:10000000008020206F2D01007BFD00007BFD0000A3
:1000100000000000000000000000000000000000E0
:100020000000000000000000000000007BFD000058
:1000300000000000000000007BFD00008DF90000C2
:100040007BFD0000C92601007BFD0000651C01004E
:100050007BFD00007BFD00007BFD00007BFD0000C0
:10006000000000007BFD00007BFD000000000000A0
:10007000000000007BFD0000491101007BFD000035
:100080007BFD00007BFD00007BFD00007BFD000090
:100090007BFD00007BFD0000000000000000000070
:1000A0007BFD00007BFD0000000000000000000060
:1000B0007BFD0000000000007BFD00007BFD0000D8
:1000C000F0B5C1B018AF07AD36AC204612F060FAFB
:1000D0002FA811F0E9FD384611F054FB284612F024
:1000E00033FA207DE17C002901D0C14E00E0C14EF1
:1000F0004937002800D0C04E3879002800970FD02B
:100100000020014612F000FBBC4812F085F8B87AD6
:10011000401EC0B2022818D88000B949085815E01E
:10012000B879002800D198E00020014612F0ECFADE
:10013000B44812F071F8387B401EC0B2022800D9D2
:10014000CFE08000B0490858CCE0B04812F064F825
:10015000AF4812F061F8387B401EC0B2022803D8C5
:100160008000A949085800E0AA48002412F054F879
:1001700002200194214612F0C7FAA74812F04CF869
:100180003878002865D0199C002C03D52D2011F05B
:1001900079F96442A149204611F046FE084601253E
:1001A0000199049505916A1E06920A220392074658
:1001B000019E334612F076FC04460D46039A334600
:1001C00012F040FA381A302318433CA9069A5054CA
:1001D000039705990A3F0846B0415DD30A220E46AF
:1001E0000027204629461C463B4612F05BFC23466E
:1001F00022433CA8049C0255069911292546039ADE
:100200004CD8104664383046B84147D3174664226C
:100210000024384631460293234612F043FC0A225A
:10022000234612F03FFC029802433CA8401942705A
:100230007D20C20038463146234612F033FCED1CC7
:10024000069A102A03D8764AD21BB441A9D36D1E50
:1002500025E0704811F0E0FF04E13C3568790028A2
:1002600000D175E200242046214612F04DFA6D4877
:1002700011F0D2FF02200394214612F045FA6148A2
:1002800011F0CAFF6879401EC0B2042800D9B1E25B
:10029000800065490858AEE2049D00E06D1C2F46C1
:1002A000681E0321069011F0BFFD481C032813D0DF
:1002B0000446032813D03CA8861EF019407811F09C
:1002C000E1F8012C00D1B7E0BD1EF05D11F0DAF8C5
:1002D000A41E2F46F1D1B0E000240328EBD13D4607
:1002E000ABE04C48002411F097FF504811F094FF08
:1002F000304611F091FF0220214612F005FA4C48D9
:1003000011F08AFF04200194214612F0FDF94948BA
:1003100011F082FF7878002800D115E21A9C002C99
:1003200003D52D2011F0AEF864423C49204611F06F
:100330007BFD0D460126019904910596701E0690DD
:100340000A2203922846019F3B4612F0ABFB04466B
:100350000E46039A3B4612F075F9281A30231843CB
:100360003CA9069A505403950A3D04980546B841A5
:1003700000D203E20A220027204631461C463B46B3
:1003800012F090FB234622433CA8059C0255069997
:1003900011292646039A00D9F2E11046643828460E
:1003A000B84100D2ECE117466422002438462946C1
:1003B0000293234612F076FB0A22234612F072FBC8
:1003C000029802433CA8801942707D20C200384642
:1003D0002946234612F066FBF61C069A102A04D81A
:1003E0000F4AD21BAC410546A6D3761EC9E1C046D2
:1003F0009334010013360100CB350100793501003B
:100400002432010031370100183201001535010096
:1004100097360100E93201008934010040420F00A3
:10042000E7030000D0310100E8300100E0320100B4
:10043000C0310100D73601007D1E0698022810D376
:100440006C423CA82818C51EA87811F01BF86878E3
:1004500011F018F8287811F015F8E41CED1E002CA6
:10046000F2D1009F04200021019112F04DF9D648ED
:1004700011F0D2FE7878002865D01A9C002C03D5A4
:100480002D2010F0FFFF6442D049204611F0CCFC33
:10049000084601250199049505916A1E06920A22D3
:1004A00003920746019E334612F0FCFA04460D46BD
:1004B000039A334612F0C6F8381A302318433CA981
:1004C000069A5054039705990A3F0846B0413ED317
:1004D0000A220E460027204629461C463B4612F0BB
:1004E000E1FA234622433CA8049C025506991129AF
:1004F0002546039A2DD8104664383046B84128D393
:10050000174664220024384631460293234612F0EF
:10051000C9FA0A22234612F0C5FA029802433CA8FF
:10052000401942707D20C20038463146234612F001
:10053000B9FAED1C069A102A03D8A54AD21BB44179
:10054000A9D36D1E06E0A34811F066FE39E0049DB4
:1005500000E06D1C2F46681E0321069011F064FC1C
:10056000481C032812D00446032812D03CA8861E3B
:10057000F019407810F086FF012C0CD0BD1EF05D04
:1005800010F080FFA41E2F46F2D105E000240328BE
:10059000ECD13D4600E07D1E0698022810D36C4247
:1005A0003CA82818C51EA87810F06CFF687810F0D9
:1005B00069FF287810F066FFE41CED1E002CF2D1D4
:1005C000009F854811F028FEB878002866D01B9C53
:1005D000002C03D52D2010F055FF64427B492046A6
:1005E00011F022FC08460021012501910495059196
:1005F0006A1E06920A2203920746019E334612F0B3
:1006000051FA04460D46039A334612F01BF8381A85
:10061000302318433CA9069A5054039705990A3F82
:100620000846B0413ED30A220E46002720462946FE
:100630001C463B4612F036FA234622433CA8049C53
:100640000255069911292546039A2DD8104664387B
:100650003046B84128D31746642200243846314634
:100660000293234612F01EFA0A22234612F01AFAC7
:10067000029802433CA8401942707D20C2003846CF
:100680003146234612F00EFAED1C069A102A03D8C2
:100690004F4AD21BB441A9D36D1E06E04D4811F05C
:1006A000BBFD39E0049D00E06D1C2F46681E032150
:1006B000069011F0B9FB481C032812D00446032809
:1006C00012D03CA8861EF019407810F0DBFE012CF9
:1006D0000CD0BD1EF05D10F0D5FEA41E2F46F2D149
:1006E00005E000240328ECD13D4600E07D1E06987D
:1006F000022810D36C423CA82818C51EA87810F018
:10070000C1FE687810F0BEFE287810F0BBFEE41C35
:10071000ED1E002CF2D1009F0620002111F0F4FF05
:10072000F87A032804D0022805D12C4800F0AEFF47
:100730002B4800F0ABFFB87A032802D0294800F01C
:10074000A5FF294800F0A2FF224811F065FDD3E083
:10075000787A002800D124E300200090014611F0AF
:10076000D3FF224811F058FDF87B401EC0B202288A
:1007700000D92BE380001E49085828E3059E00E0BD
:10078000761C701E0321069011F04EFB481C0328B6
:1007900014D00446032814D03CA83746861EF0190E
:1007A000407810F06FFE012C00D18FE0BD1EF05D8F
:1007B00010F068FEA41E2F46F1D188E00024032823
:1007C000EAD1354683E0C046D736010040420F00EB
:1007D000E7030000E9320100DF3501004B31010081
:1007E0008F310100ED3101005C3101000B3501005A
:1007F0000C320100F94811F00FFDF94811F00CFD21
:10080000089C002C03D52D2010F03CFE6442F549D5
:10081000204611F009FB0846012503990295049131
:100820006A1E05920A2206920646039C234612F08F
:1008300039F907460D46069A234611F003FF301A90
:10084000302420433CA9059A5054019604980A3E4E
:10085000039A9041069400D20CE10A220026384601
:100860002946334612F01EF922433CA8029BC2548B
:10087000059911291D46019C00D9FDE020466438E8
:100880000498B04100D2F7E0642200272046049E7D
:1008900031463B4612F006F90A223B4612F002F9B5
:1008A000069802433CA8401942707D20C2002046B1
:1008B00031463B4612F0F6F8ED1C059A102A03D893
:1008C000C94A121BB741A9D36D1ED6E07D1E0698FA
:1008D000022810D36C423CA82818C51EA87810F036
:1008E000D1FD687810F0CEFD287810F0CBFDE41C27
:1008F000ED1E002CF2D1009FBC4811F08DFCB878A1
:10090000002866D01B9C002C03D52D2010F0BAFDCA
:100910006442B449204611F087FA084600210125B7
:100920000191049505916A1E06920A2203920746D8
:10093000019E334612F0B6F804460D46039A33463C
:1009400011F080FE381A302318433CA9069A5054FF
:10095000039705990A3F0846B0413ED30A220E4646
:100960000027204629461C463B4612F09BF82346AA
:1009700022433CA8049C0255069911292546039A56
:100980002DD8104664383046B84128D31746642223
:100990000024384631460293234612F083F80A2297
:1009A000234612F07FF8029802433CA84019427097
:1009B0007D20C20038463146234612F073F8ED1C04
:1009C000069A102A03D8884AD21BB441A9D36D1EB7
:1009D00006E0874811F020FC39E0049D00E06D1C22
:1009E0002F46681E0321069011F01EFA481C0328AA
:1009F00012D00446032812D03CA8861EF019407875
:100A000010F040FD012C0CD0BD1EF05D10F03AFD41
:100A1000A41E2F46F2D105E000240328ECD13D4668
:100A200000E07D1E0698022810D36C423CA82818CE
:100A3000C51EA87810F026FD687810F023FD2878F0
:100A400010F020FDE41CED1E002CF2D1009F0620CA
:100A5000002111F059FEF879002802D0654800F015
:100A600015FE7879002802D0634800F00FFE634835
:100A700000F00CFE029D00E06D1C2E46681E032156
:100A8000059011F0D1F9481C032803D0054603282E
:100A900003D114E00025032811D03CA8841E37465A
:100AA000E019407810F0EEFC012D07D0BE1EE05D8D
:100AB00010F0E8FCAD1E3746F2D100E07E1E05982E
:100AC000022810D374423CA83018C51EA87810F034
:100AD000D9FC687810F0D6FC287810F0D3FCE41C20
:100AE000ED1E002CF2D104200021039111F00CFE28
:100AF000434811F091FB099C002C03D52D2010F0E8
:100B0000C1FC64423749204611F08EF908460125A0
:100B10000399029504916A1E05920A2201920646E3
:100B2000039C234611F0BEFF07460D46019A23465B
:100B300011F088FD301A069C20433CA9059A5054B8
:100B4000019604980A3E039A904136D30A22002661
:100B500038462946334611F0A5FF22433CA8029BA4
:100B6000C254059911291D46019C28D82046643895
:100B70000498B04123D3642200272046049E3146C6
:100B80003B4611F08FFF0A223B4611F08BFF06987F
:100B900002433CA8401942707D20C20020463146E5
:100BA0003B4611F07FFFED1C059A102A03D80E4A30
:100BB000121BB741ADD36D1E02E0029D00E06D1C1B
:100BC0002E46681E0321059011F02EF9481C0328BB
:100BD00018D00546032818D129E0C0465135010038
:100BE0007736010040420F00E7030000DF350100C7
:100BF000E93201003831010048320100FB310100C7
:100C0000193701000025032811D03CA8841E37465F
:100C1000E019407810F036FC012D07D0BE1EE05DD3
:100C200010F030FCAD1E3746F2D100E07E1E059874
:100C3000022810D374423CA83018C51EA87810F0C2
:100C400021FC687810F01EFC287810F01BFCE41CD6
:100C5000ED1E002CF2D1EE4811F0DEFA0A9C002CB9
:100C600003D52D2010F00EFC6442EA49204611F015
:100C7000DBF80846002101250391029504916A1EC4
:100C800005920A2201920646039C234611F00AFFB0
:100C900007460D46019A234611F0D4FC301A069CF3
:100CA00020433CA9059A5054019604980A3E039AA1
:100CB000904136D30A22002638462946334611F0A1
:100CC000F1FE22433CA8029BC254059911291D46FE
:100CD000019C28D8204664380498B04123D364226C
:100CE00000272046049E31463B4611F0DBFE0A22D7
:100CF0003B4611F0D7FE069802433CA840194270CB
:100D00007D20C200204631463B4611F0CBFEED1C53
:100D1000059A102A03D8C04A121BB741ADD36D1EE5
:100D200002E0029D00E06D1C2E46681E0321069025
:100D300011F07AF8481C032803D00546032803D194
:100D400014E00025032811D03CA8841E3746E01982
:100D5000407810F097FB012D07D0BE1EE05D10F02B
:100D600091FBAD1E3746F2D100E07E1E06980228A8
:100D700010D374423CA83018C51EA87810F082FB2E
:100D8000687810F07FFB287810F07CFBE41CED1EE7
:100D9000002CF2D10620002111F0B6FC9F4800F093
:100DA00075FC387A002800D1D9E30020014611F003
:100DB000ABFC9B4811F030FA787B401EC0B204288F
:100DC00000D9DFE3800097490858DCE3964811F02A
:100DD00023FA964811F020FA239D012400990491EA
:100DE000601E05900A2206922846009E334611F0A6
:100DF00059FE07460291069A334611F023FC281A41
:100E00002246302420433CA9059B585403950A3DB3
:100E100004980546B041069436D301920A22002672
:100E200038460299334611F03DFE22433CA8019C0E
:100E3000025505991129039828D80246643A2A4692
:100E4000B24123D364220027294606463B4611F0CF
:100E500029FE0A223B4611F025FE069802433CA8D3
:100E6000001942707D20C200304629463B4611F0F1
:100E700019FEE41C059A102A04D8674A921BAF4158
:100E80000546ACD3641E02E0144600E0641C26460E
:100E9000601E0321059010F0C7FF481C032801D0F5
:100EA000054600E00025032811D03CA8841E3746E3
:100EB000E019407810F0E6FA012D07D0BE1EE05D83
:100EC00010F0E0FAAD1E3746F2D100E07E1E059824
:100ED000022810D374423CA83018C51EA87810F020
:100EE000D1FA687810F0CEFA287810F0CBFAE41C2A
:100EF000ED1E002CF2D102200021039111F004FC20
:100F00004B4811F089F9199C002C03D52D2010F0C5
:100F1000B9FA64423F49204610F086FF0846012591
:100F20000399029504916A1E05920A2201920646CF
:100F3000039C234611F0B6FD07460D46019A234651
:100F400011F080FB301A069C20433CA9059A5054AE
:100F5000019604980A3E039A904136D30A2200264D
:100F600038462946334611F09DFD22433CA8029B9A
:100F7000C254059911291D46019C28D82046643881
:100F80000498B04123D3642200272046049E3146B2
:100F90003B4611F087FD0A223B4611F083FD06987F
:100FA00002433CA8401942707D20C20020463146D1
:100FB0003B4611F077FDED1C059A102A03D8164A1E
:100FC000121BB741ADD36D1E02E0029D00E06D1C07
:100FD0002E46681E0321059010F026FF481C0328AA
:100FE00001D0054600E00025032824D03CA8841E3B
:100FF0003746E019407810F045FA012D1AD0BE1E90
:10100000E05D10F03FFAAD1E3746F2D113E0C04666
:10101000B134010040420F00E7030000B03201008C
:1010200080330100FC3001001535010063360100FA
:101030001C3701007E1E0598022810D374423CA87C
:101040003018C51EA87810F01DFA687810F01AFA4A
:10105000287810F017FAE41CED1E002CF2D1E348BA
:1010600011F0DAF8289C002C03D52D2010F00AFA94
:101070006442DF49204610F0D7FE084600210125D2
:101080000391029504916A1E05920A220192064676
:10109000039C234611F006FD07460D46019A2346A0
:1010A00011F0D0FA301A069C20433CA9059A5054FE
:1010B000019604980A3E039A904136D30A220026EC
:1010C00038462946334611F0EDFC22433CA8029BEA
:1010D000C254059911291D46019C28D82046643820
:1010E0000498B04123D3642200272046049E314651
:1010F0003B4611F0D7FC0A223B4611F0D3FC069880
:1011000002433CA8401942707D20C200204631466F
:101110003B4611F0C7FCED1C059A102A03D8B54ACE
:10112000121BB741ADD36D1E02E0029D00E06D1CA5
:101130002E46681E0321059010F076FE481C0328F9
:1011400001D0054600E00025032811D03CA8841EEC
:101150003746E019407810F095F9012D07D0BE1EF2
:10116000E05D10F08FF9AD1E3746F2D100E07E1E33
:101170000598022810D374423CA83018C51EA878E0
:1011800010F080F9687810F07DF9287810F07AF97D
:10119000E41CED1E002CF2D104200021039111F07B
:1011A000B3FA954811F038F8099C002C03D52D208E
:1011B00010F068F964428E49204610F035FE08466A
:1011C00001250399029504916A1E05920A22019253
:1011D0000646039C234611F065FC07460D46019A1E
:1011E000234611F02FFA301A069C20433CA9059A99
:1011F0005054019604980A3E039A904136D30A222D
:10120000002638462946334611F04CFC22433CA8C0
:10121000029BC254059911291D46019C28D82046DD
:1012200064380498B04123D3642200272046049EEA
:1012300031463B4611F036FC0A223B4611F032FCA7
:10124000069802433CA8401942707D20C200204607
:1012500031463B4611F026FCED1C059A102A03D8B6
:10126000644A121BB741ADD36D1E02E0029D00E03F
:101270006D1C2E46681E0321059010F0D5FD481CFC
:10128000032801D0054600E00025032811D03CA822
:10129000841E3746E019407810F0F4F8012D07D08D
:1012A000BE1EE05D10F0EEF8AD1E3746F2D100E054
:1012B0007E1E0598022810D374423CA83018C51E23
:1012C000A87810F0DFF8687810F0DCF8287810F0D3
:1012D000D9F8E41CED1E002CF2D1484810F09CFF18
:1012E000299C002C03D52D2010F0CCF864424049F5
:1012F000204610F099FD0846002101250391029532
:1013000004916A1E05920A2201920646039C234616
:1013100011F0C8FB07460D46019A234611F092F9D9
:10132000301A069C20433CA9059A50540196049813
:101330000A3E039A904136D30A22002638462946AF
:10134000334611F0AFFB22433CA8029BC2540599DF
:1013500011291D46019C28D8204664380498B041C4
:1013600023D3642200272046049E31463B4611F0D9
:1013700099FB0A223B4611F095FB069802433CA8D4
:10138000401942707D20C200204631463B4611F094
:1013900089FBED1C059A102A03D8F04A121BB741AD
:1013A000ADD36D1E02E0029D00E06D1C2E46681E4E
:1013B0000321059010F038FD481C032801D0054694
:1013C00000E0002503281CD03CA8841E3746E01905
:1013D000407810F057F8012D12D0BE1EE05D10F0DD
:1013E00051F8AD1E3746F2D10BE0C046AF360100D2
:1013F00040420F00E7030000193701008336010067
:101400007E1E0598022810D374423CA83018C51ED1
:10141000A87810F037F8687810F034F8287810F0D1
:1014200031F8E41CED1E002CF2D1062000242146E8
:1014300011F06AF9D44810F0EFFE07A8808E01255C
:1014400003942146029504916A1E05920A22019294
:101450000646039C234611F025FB07460D46019ADC
:10146000234611F0EFF8301A069C20433CA9059A58
:101470005054019604980A3E039A904136D30A22AA
:10148000002638462946334611F00CFB22433CA87F
:10149000029BC254059911291D46019C28D820465B
:1014A00064380498B04123D3642200272046049E68
:1014B00031463B4611F0F6FA0A223B4611F0F2FAA9
:1014C000069802433CA8401942707D20C200204685
:1014D00031463B4611F0E6FAED1C059A102A03D876
:1014E0009E4A121BB741ADD36D1E02E0029D00E083
:1014F0006D1C2E46681E0321069010F095FC481CBA
:10150000032801D0054600E00025032811D03CA89F
:10151000841E3746E01940780FF0B4FF012D07D044
:10152000BE1EE05D0FF0AEFFAD1E3746F2D100E00B
:101530007E1E0698022800D2A7E074423CA830180C
:10154000C51EA8780FF09EFF68780FF09BFF2878E3
:101550000FF098FFE41CED1E002CF2D195E02C78E2
:101560000020014611F0D0F8002C4ED08A4810F02F
:1015700053FE2879401EC0B2032852D88000874904
:1015800008584FE0724810F047FE20200FF07AFF15
:10159000304610F041FE02200024214611F0B4F83C
:1015A0006F4810F039FE1998C1170BF073FA75489F
:1015B00010F032FE2498C1170BF06CFA042021467B
:1015C00011F0A2F8674810F027FE1C98C1170BF025
:1015D00061FA654810F020FE1D98C1170BF05AFA09
:1015E0000620214611F090F8634810F015FE099886
:1015F000C1170BF04FFA664810F00EFE07A8808E58
:1016000021460BF05BFF634840E0584810F004FEB1
:10161000387B401EC0B202283CD880004E49085892
:1016200039E04B4810F0F8FD02200024214611F06B
:101630006BF8534810F0F0FD0898C1170BF02AFA28
:10164000504810F0E9FD0798C1170BF023FA042069
:10165000214611F059F8484810F0DEFD0998C117ED
:101660000BF018FA454810F0D7FD0A98C1170BF097
:1016700011FA0620214611F047F8434810F0CCFD3E
:1016800007A8808E21460BF019FF404810F0C4FDDA
:1016900041B0F0BD2F4810F0BFFD364810F0BCFD42
:1016A000387819990BF046F920200FF0EBFE304600
:1016B00010F0B2FD02200025294611F025F8384827
:1016C00010F0AAFD2F98C1170BF0E4F9354810F07F
:1016D000A3FD379936980BF0DDF90420294611F067
:1016E00013F8204810F098FD78781A990BF022F939
:1016F0001D4810F091FDB8781B990BF01BF90620DE
:10170000294611F001F8787B04280DD005280DD169
:10171000264810F081FDB87B401EC0B2062811D8C3
:101720008000234908580EE01F48AFE7F97B2248A4
:101730000329ABD1397C0629A8D0204810F06CFDD4
:10174000387CE9E70A4810F067FD1A489EE7C04672
:1017500015350100E932010018320100E7030000ED
:1017600089340100D7360100DF350100313701002F
:10177000513501007736010019370100B1340100FD
:101780001C370100AF36010004370100303301007F
:10179000173601001B330100CE320100A0310100D9
:1017A00088350100E33501007E310100AA330100D4
:1017B00068300100BA3201006D3101003E33010092
:1017C000F0B58DB0002611F081FA0446304631465E
:1017D00010F09AFFD64810F01FFD0194E06A012531
:1017E00004963146039505916A1E06920A220792D5
:1017F0000746049D2B4611F055F904460E46079AFC
:101800002B4610F01FFF381A3025284308A9069AE6
:101810005054029705980A3F049A9041079536D391
:101820000A220027204631463B4611F03BF92A4365
:1018300008A8039BC254069911291D46029E28D868
:10184000304664380598B84123D3642200243046DA
:10185000059F3946234611F025F90A22234611F047
:1018600021F90798024308A8401942707D20C20060
:1018700030463946234611F015F9ED1C069A102A18
:1018800003D8AC4A921BBC41ACD36D1E02E0039D51
:1018900000E06D1C681E0321069010F0C5FA481C7C
:1018A000032803D00446032803D114E000240328AE
:1018B00011D008A82F46861EF01940780FF0E2FDDF
:1018C000012C07D0BD1EF05D0FF0DCFDA41E2F46DD
:1018D000F2D100E07D1E0698022810D36C4208A8C1
:1018E0002818C51EA8780FF0CDFD68780FF0CAFD46
:1018F00028780FF0C7FDE41CED1E002CF2D18E48B5
:1019000010F08AFC0198006B0021012504910395D9
:1019100005916A1E06920A2202920746049D2B46F2
:1019200011F0C0F804460E46029A2B4610F08AFECB
:10193000381A079D284308A9069A5054029705981B
:101940000A3F049A904136D30A22002720463146A6
:101950003B4611F0A7F82A4308A8039BC2540699F6
:1019600011291D46029E28D8304664380598B84192
:1019700023D3642200243046059F3946234611F0C4
:1019800091F80A22234611F08DF80798024308A81F
:10199000401942707D20C20030463946234611F07E
:1019A00081F8ED1C069A102A03D8624A921BBC41AA
:1019B000ADD36D1E02E0039D00E06D1C681E032187
:1019C000069010F031FA481C032803D0044603287F
:1019D00003D114E00024032811D008A82F46861E46
:1019E000F01940780FF04EFD012C07D0BD1EF05DC0
:1019F0000FF048FDA41E2F46F2D100E07D1E069890
:101A0000022810D36C4208A82818C51EA8780FF029
:101A100039FD68780FF036FD28780FF033FDE41CAF
:101A2000ED1E002CF2D102200024214610F06CFEA5
:101A3000424810F0F1FB0198406B012504942146C7
:101A4000039505916A1E06920A2202920746049D9A
:101A50002B4611F027F804460E46029A2B4610F04A
:101A6000F1FD381A079D284308A9069A5054029799
:101A700005980A3F049A904136D30A22002720464F
:101A800031463B4611F00EF82A4308A8039BC25486
:101A9000069911291D46029E28D8304664380598BB
:101AA000B84123D3642200243046059F394623469B
:101AB00010F0F8FF0A22234610F0F4FF07980243C3
:101AC00008A8401942707D20C2003046394623469E
:101AD00010F0E8FFED1C069A102A03D8154A921B55
:101AE000BC41ADD36D1E02E0039D00E06D1C681E7D
:101AF0000321069010F098F9481C032803D00446EF
:101B0000032803D11DE0002403281AD008A82F467B
:101B1000861EF01940780FF0B5FC012C10D0BD1EC8
:101B2000F05D0FF0AFFCA41E2F46F2D109E0C046D5
:101B3000EC360100E7030000AB3501009F360100E1
:101B40007D1E0698022810D36C4208A82818C51ECE
:101B5000A8780FF097FC68780FF094FC28780FF0C5
:101B600091FCE41CED1E002CF2D1D64810F054FB81
:101B70000198806B002101250491039505916A1E4F
:101B800006920A2202920746049D2B4610F08AFF15
:101B900004460E46029A2B4610F054FD381A079D53
:101BA000284308A9069A5054029705980A3F049AB8
:101BB000904136D30A220027204631463B4610F09A
:101BC00071FF2A4308A8039BC254069911291D4698
:101BD000029E28D8304664380598B84123D3642241
:101BE00000243046059F3946234610F05BFF0A2249
:101BF000234610F057FF0798024308A84019427087
:101C00007D20C20030463946234610F04BFFED1CC4
:101C1000069A102A03D8AC4A921BBC41ADD36D1E64
:101C200002E0039D00E06D1C681E0321069010F089
:101C3000FBF8481C032803D00446032803D114E012
:101C40000024032811D008A82F46861EF0194078DA
:101C50000FF018FC012C07D0BD1EF05D0FF012FC38
:101C6000A41E2F46F2D100E07D1E0698022810D354
:101C70006C4208A82818C51EA8780FF003FC6878E5
:101C80000FF000FC28780FF0FDFBE41CED1E002C8B
:101C9000F2D104200024214610F036FD8B4810F0CC
:101CA000BBFA0198C06B0125049421460395059168
:101CB0006A1E06920A2202920746049D2B4610F0E5
:101CC000F1FE04460E46029A2B4610F0BBFC381A71
:101CD000079D284308A9069A5054029705980A3F81
:101CE000049A904136D30A220027204631463B46CB
:101CF00010F0D8FE2A4308A8039BC2540699112964
:101D00001D46029E28D8304664380598B84123D332
:101D1000642200243046059F3946234610F0C2FE57
:101D20000A22234610F0BEFE0798024308A8401975
:101D300042707D20C20030463946234610F0B2FE84
:101D4000ED1C069A102A03D85F4A921BBC41ADD302
:101D50006D1E02E0039D00E06D1C681E03210690CD
:101D600010F062F8481C032803D00446032803D16E
:101D700014E00024032811D008A82F46861EF0196D
:101D800040780FF07FFB012C07D0BD1EF05D0FF0F7
:101D900079FBA41E2F46F2D100E07D1E0698022892
:101DA00010D36C4208A82818C51EA8780FF06AFB4B
:101DB00068780FF067FB28780FF064FBE41CED1ED9
:101DC000002CF2D1424810F027FA0198C06C002193
:101DD00001250491039505916A1E06920A2202923A
:101DE0000746049D2B4610F05DFE04460E46029AFF
:101DF0002B4610F027FC381A079D284308A9069A9D
:101E00005054029705980A3F049A904136D30A220B
:101E10000027204631463B4610F044FE2A4308A8DE
:101E2000039BC254069911291D46029E28D83046AC
:101E300064380598B84123D3642200243046059FB6
:101E40003946234610F02EFE0A22234610F02AFEC1
:101E50000798024308A8401942707D20C20030460E
:101E60003946234610F01EFEED1C069A102A03D8B0
:101E7000154A921BBC41ADD36D1E02E0039D00E0EC
:101E80006D1C681E032106900FF0CEFF481C03282E
:101E900003D00446032803D11DE0002403281AD0F0
:101EA00008A82F46861EF01940780FF0EBFA012C97
:101EB00010D0BD1EF05D0FF0E5FAA41E2F46F2D142
:101EC00009E0C046BA350100E7030000AB36010067
:101ED000C53401007D1E0698022810D36C4208A864
:101EE0002818C51EA8780FF0CDFA68780FF0CAFA46
:101EF00028780FF0C7FAE41CED1E002CF2D1062062
:101F00000024214610F000FCE04810F085F901980B
:101F1000006C012504942146039505916A1E0692E2
:101F20000A2202920746049D2B4610F0BBFD044690
:101F30000E46029A2B4610F085FB381A079D28435F
:101F400008A9069A5054029705980A3F049A9041AE
:101F500036D30A220027204631463B4610F0A2FD28
:101F60002A4308A8039BC254069911291D46029EC4
:101F700028D8304664380598B84123D36422002419
:101F80003046059F3946234610F08CFD0A22234631
:101F900010F088FD0798024308A8401942707D2080
:101FA000C20030463946234610F07CFDED1C069AEF
:101FB000102A03D8B44A921BBC41ADD36D1E02E077
:101FC000039D00E06D1C681E032106900FF02CFF9E
:101FD000481C032803D00446032803D114E000243E
:101FE000032811D008A82F46861EF01940780FF05C
:101FF00049FA012C07D0BD1EF05D0FF043FAA41E74
:102000002F46F2D100E07D1E0698022810D36C42C4
:1020100008A82818C51EA8780FF034FA68780FF0C1
:1020200031FA28780FF02EFAE41CED1E002CF2D1C4
:10203000974810F0F1F80198406C002101250491B7
:10204000039505916A1E06920A2202920746049D94
:102050002B4610F027FD04460E46029A2B4610F040
:10206000F1FA381A079D284308A9069A5054029796
:1020700005980A3F049A904136D30A220027204649
:1020800031463B4610F00EFD2A4308A8039BC2547C
:10209000069911291D46029E28D8304664380598B5
:1020A000B84123D3642200243046059F3946234695
:1020B00010F0F8FC0A22234610F0F4FC07980243C3
:1020C00008A8401942707D20C20030463946234698
:1020D00010F0E8FCED1C069A102A03D86A4A921BFD
:1020E000BC41ADD36D1E02E0039D00E06D1C681E77
:1020F000032106900FF098FE481C032803D00446E5
:10210000032803D114E00024032811D008A82F4687
:10211000861EF01940780FF0B5F9012C07D0BD1ECE
:10212000F05D0FF0AFF9A41E2F46F2D100E07D1E46
:102130000698022810D36C4208A82818C51EA87853
:102140000FF0A0F968780FF09DF928780FF09AF950
:10215000E41CED1E002CF2D14E4810F05DF8019801
:10216000866C002001240490014603940691601EB1
:1021700005900A2202923046049D2B4610F092FCF4
:1021800007460C46029A2B4610F05CFA301A079D5F
:10219000284308A9059A505402960A3E06980499C5
:1021A000884136D30A22002638462146334610F0AD
:1021B00079FC06992A4308A8039C0255059B112B1C
:1021C000029D28D8284664380846B04123D36422AB
:1021D0001E46002728463B4610F064FC0A223B4678
:1021E00010F060FC0798024308A8001942707D2097
:1021F000C200284606993B4610F054FC069BE41C9E
:10220000102E04D8204A521B9F410646ADD3641EAF
:1022100002E0039C00E0641C2646601E0321079038
:102220000FF002FE481C032803D00546032803D103
:1022300014E00025032811D008A8841E3746E019B1
:1022400040780FF01FF9012D07D0BE1EE05D0FF0A2
:1022500019F9AD1E3746F2D100E07E1E079802281C
:1022600010D3744208A83018C51EA8780FF00AF9D8
:1022700068780FF007F928780FF004F9E41CED1ED8
:10228000002CF2D10DB0F0BDE7030000C336010011
:10229000D93401009D340100F0B5B3B00220C04331
:1022A00008902AA810F02AFB0AA8432101704621B1
:1022B0004170472282702C210791C1704B25057116
:1022C000502141713D21069181712A9C002C03927D
:1022D00004D4002C65D00495072105E004950AA8D4
:1022E0002D21C171644208210898851C00270591A1
:1022F00009910998401C09900A26204631460FF0A2
:1023000093FD4643A11B30220A437E1C30A9CA55C7
:102310006D1C082F03D8092C37460446E9D8032141
:1023200028460FF081FD089948438119CA1E00D143
:102330001146701E002A18D002900AAA0598121899
:1023400030AB9C1E4D1E0023A7197F78D7549D42A9
:102350000DD0B71EA65DD01846709B1C99423E4614
:10236000F2D10599C9183E4605E0059904E00598A3
:10237000C018411C761E02980228049D0FD30AA89B
:10238000401830A9C91E8A19937803705278427098
:10239000F21E8B5D8370C01C002A1646F3D1099E85
:1023A00003E00AA83021C1710826F0B2371D0AA93E
:1023B0000A18079B0B54557044200590907006989E
:1023C000D0702B9C002C02D40DD0049718E070B272
:1023D0000321C943884211DBF8B2711D04910AA997
:1023E0002D220A540BE070B20321C943884265DBF9
:1023F000F8B2771D0AA930220A545FE004976442BC
:102400000898851C0027049809900998401C099099
:102410000A26204631460FF007FD4643A11B302215
:102420000A437E1C30A9CA556D1C082F03D8092CFD
:1024300037460446E9D8032128460FF0F5FC0899F1
:1024400048438319D91E00D10B460498C4B2701EAC
:10245000002917D002900AA904940C1930A98F1EE4
:10246000591E0025BA1952786255A9420ED0B21EE3
:10247000BE5D60194670AD1CAB421646F2D1049C9D
:10248000641907E03246022807D216E00498401982
:10249000441C721E029802280FD30AA8001930A902
:1024A000C91E8B189C7804705B784370D31E8A5CBD
:1024B0008270C01C002B1A46F3D1099FF8B27D1D13
:1024C0000AA90A18079B0B54059850704920907070
:1024D0005223D3700698107114202AA90C56002C90
:1024E000029302D40DD0049518E078B20421C943B8
:1024F000884211DBE8B2B91D04910AA92D220A54C1
:102500000BE078B20421C943884265DBE8B2BD1D07
:102510000AA930220A545FE0049564420898851C99
:102520000027049809900998401C09900A26204623
:1025300031460FF079FC4643A11B30220A437E1C32
:1025400030A9CA556D1C082F03D8092C37460446FC
:10255000E9D8032128460FF067FC089948438319FE
:10256000D91E00D10B460498C4B2701E002917D0A2
:1025700001900AA904940C1930A98F1E591E002538
:10258000BA1952786255A9420ED0B21EBE5D6019CA
:102590004670AD1CAB421646F2D1049C641907E0AC
:1025A0003246022807D216E004984019441C721ED5
:1025B000019802280FD30AA8001930A9C91E8B1848
:1025C0009C7804705B784370D31E8A5C8270C01C58
:1025D000002B1A46F3D1099DE8B26E1D0AA90A180C
:1025E000079B0B544D205070412090705820D070A4
:1025F000069810712C9C002C0BD415D168B20421C4
:10260000C94388426EDBF0B2AE1D0AA930220A54DB
:1026100068E068B20421C943884204DBF0B2AE1D11
:102620000AA92D220A5464420898851C00270496A2
:1026300009960998401C09900A26204631460FF059
:10264000F3FB4643A11B30220A437E1C30A9CA5526
:102650006D1C082F03D8092C37460446E9D80321FE
:1026600028460FF0E1FB089948438319D91E00D191
:102670000B460498C4B2701E002917D001900AA915
:1026800004940C1930A98F1E591E0025BA195278CE
:102690006255A9420ED0B21EBE5D60194670AD1CD7
:1026A000AB421646F2D1049C641907E03246022878
:1026B00007D216E004984019441C721E01980228A3
:1026C0000FD30AA8001930A9C91E8B189C78047072
:1026D0005B784370D31E8A5C8270C01C002B1A4644
:1026E000F3D1099EF0B2B71D0AA90A18079B0B5433
:1026F000532050704C2090704520D070572010719E
:10270000069850712D9C002C02D40DD0049718E02F
:1027100070B20521C943884211DBF8B2F11D049162
:102720000AA92D220A540BE070B20521C943884240
:1027300065DBF8B2F71D0AA930220A545FE004975E
:1027400064420898851C0027049809900998401C49
:1027500009900A26204631460FF066FB4643A11B2E
:1027600030220A437E1C30A9CA556D1C082F03D89D
:10277000092C37460446E9D8032128460FF054FBBC
:10278000089948438319D91E00D10B460498C4B256
:10279000701E002917D001900AA904940C1930A9C1
:1027A0008F1E591E0025BA1952786255A9420ED0C3
:1027B000B21EBE5D60194670AD1CAB421646F2D12A
:1027C000049C641907E03246022807D216E00498F8
:1027D0004019441C721E019802280FD30AA8001940
:1027E00030A9C91E8B189C7804705B784370D31E87
:1027F0008A5C8270C01C002B1A46F3D1099FFBB281
:102800003C1D0AA8C118079A0493C2540598487041
:10281000422088700698C8702AA8058A002D41D0E9
:102820000594791D0898841C002709910A262846DA
:1028300031460FF0F9FA099B4643A91B30220A439F
:102840007E1C30A9CA55641C082F04D8591C092DB8
:1028500037460546E9D8032120460FF0E5FA0899E6
:1028600048438119CA1E00D11146731E002A25D083
:1028700005930AA8049A821830A8841E4D1E0023CE
:10288000A0194778D01807719D421CD0B71EA65DCD
:1028900046719B1C99423E46F2D10498C018011D16
:1028A0003E4614E078B20321C943884204DBE0B21B
:1028B0007C1D0AA930220A54039A1DE00598C1B272
:1028C000022B07D216E00498C018411D761E059B06
:1028D000022B0FD30AA8401830A9C91E8A19937871
:1028E000037052784270F21E8B5D8370C01C002A08
:1028F0001646F3D1039A099CE5B2261D0AA8411990
:10290000079B05954355029848708A700698C870D1
:102910002AA8458A002D41D00796611D0898841C7D
:10292000002709910A26284631460FF07DFA099BB7
:102930004643A91B30220A437E1C30A9CA55641C99
:10294000082F04D8591C092D37460546E9D803211C
:1029500020460FF069FA089941438919CA1E00D12F
:102960001146731E002A24D008930AA8059A8218DB
:1029700030A8841E4D1E0023A0194778D018077177
:102980009D421BD0B71EA65D46719B1C99423E46D8
:10299000F2D10598C018011D3E4613E060B2032134
:1029A000C943884223DBF0B2631D0AA930220A54CE
:1029B0001EE00798C1B2022B07D216E00598C01896
:1029C000411D761E089B022B0FD30AA8401830A980
:1029D000C91E8A199378037052784270F21E8B5D7B
:1029E0008370C01C002A1646F3D1099B00E03346D1
:1029F000314D981CD9B20AAA53180D2454540A21F7
:102A00005970C7B22D4800882D4E3188C9434018EF
:102A10002840B84205D22C488169491C816133B0F5
:102A2000F0BD7C1E032120460FF0FEF94A1C002158
:102A3000032A084600D010460892022C20D3391AE7
:102A4000099100211F4C0AAA5718525C2B46358861
:102A500062553288521C1A4032807A783588625525
:102A60003288521C1A403280BA78358862551D4629
:102A70003288521C1A403280C91C099A8A42E2D11B
:102A8000089A032A15D00AAA51180E4A0B783488DE
:102A9000135533885B1C2B403380012809D04B78B9
:102AA0003488135533885B1C2B403380891C801E6F
:102AB000ECD133B0F0BDC046FF070000FC18202069
:102AC000FA18202000002020FC162020F0B59FB02E
:102AD00010F02CF9054610F02DF9064610F0AAF872
:102AE000297800240029049602D06968411A00E080
:102AF000E1436F78781E874108919729059501D3A6
:102B0000264600E001260BAD28460FF0ADFD285FFC
:102B10001221059D0291695E411ADF48814200DB66
:102B20000146DE48814200DC0146039120462146F1
:102B30000FF0EAFDDA480FF06FFB2878002804D088
:102B40000898962803D9D74807E0D74805E0687861
:102B5000002801D0D54800E0D54837403E46D54C46
:102B60000FF05AFBD4480FF057FB2878002860D0AC
:102B700001960898A04200D30894002001260690F0
:102B80000146089C07910996701E0A900A22089235
:102B90002046069E33460FF085FF05460F46089AED
:102BA00033460FF04FFD201A302318431AA90A9A12
:102BB000505408940A3C07980446B0413ED30A2278
:102BC0000026284639461D4633460FF06BFF2A4340
:102BD0001AA8099942540A991129089830D8274609
:102BE000014664392146B1412AD32B46642200258F
:102BF000044639461E462B460FF054FF0A222B4648
:102C00000FF050FF32431AA8099E801942707D20B0
:102C1000C200204639462B460FF044FFF61C0A9AA4
:102C2000102A04D8A34A121BBD410446AAD3761E1B
:102C300008E0A2480FF0F0FA049F3BE0099E01E093
:102C4000099E761C701E03210A900FF0EDF8481CB7
:102C5000032803D00546032803D114E000250328E8
:102C600011D01AA8841E3746E01940780EF00AFCED
:102C7000012D07D0BE1EE05D0EF004FCAD1E3746F0
:102C8000F2D100E07E1E0A98022810D374421AA8DE
:102C90003018C51EA8780EF0F5FB68780EF0F2FB30
:102CA00028780EF0EFFBE41CED1E002CF2D1049FFF
:102CB000059D019E0220002421460FF025FD80483D
:102CC0000FF0AAFA002E04D00298285E09F0C6FC84
:102CD00002E07C480FF0A0FA7B480FF09DFA0BA8A9
:102CE000005F09F0BBFC79480FF096FA002E04D083
:102CF000039800B209F0B2FC02E072480FF08CFABF
:102D0000042000210FF000FD71480FF085FA062025
:102D10000BAC205E09F0A2FC6E480FF07DFA109813
:102D20005E49884200DC08465B49884200DB084671
:102D300009F094FC68480FF06FFA3920205C0528F0
:102D400003D880006549085800E065480FF064FA30
:102D50000620002421460FF0D7FC287800286BD0ED
:102D600060480FF059FA288A0BF0DEFF5E480FF03A
:102D700053FA688B0BF0D8FF5C480FF04DFA0FF058
:102D8000E3FC012206942146144609940891621E30
:102D90000A920A2207920546069C23460FF082FEFD
:102DA00007460E46079A23460FF04CFC281A30239C
:102DB00018431AA90A9A5054079508990A3D0846DB
:102DC000A04142D30A220C460025384631461E4611
:102DD0002B460FF067FE334632431AA80999425436
:102DE0000A991129079E32D8304664382046A841F6
:102DF0002DD3642200273046254621461C463B46FB
:102E00000FF050FE0A223B460FF04CFE22431AA858
:102E1000099C001942707D20C200304629463B467D
:102E20000FF040FEE41C0A9A102A03D8214A921B94
:102E3000AF41AAD3641E0CE02D480FF0EDF93868BD
:102E4000C0087C2856D91B4E55E0099C01E0099C1E
:102E5000641C601E03210A900EF0E6FF481C032844
:102E600014D00546032814D01AA82746841EE0195A
:102E700040780EF007FB012D00D196E0BE1EE05D0C
:102E80000EF000FBAD1E3746F1D18FE00025032880
:102E9000EAD126468AE0C046FF7F00000080FFFF9F
:102EA00056330100743301002E3501000D37010047
:102EB00051350100E7030000273601008B36010081
:102EC0001C370100E9320100AF3601004F36010026
:102ED0001F370100F73501003B370100A03001002A
:102EE000BF36010034370100633601001736010098
:102EF000E03601003E68002001250590014607915B
:102F00000895681E09900A220A923046059C2346BD
:102F10000FF0C8FD07460D460A9A23460FF092FBB4
:102F2000301A302318431AA9099A505406960A3EBB
:102F300007980646A0410A934ED30A220024384639
:102F4000294623460FF0AEFD0A9802431AA80899B5
:102F50004254099B112B06980D463FD8014664390F
:102F60003146A1413AD364220027044631463B460C
:102F70000FF098FD0A223B460FF094FD0A98024399
:102F80001AA8401942707D20C200204631463B46B7
:102F90000FF088FDED1C099A102A04D8C34A121BB1
:102FA000B7410646ABD36D1E19E07E1E0A98022873
:102FB00000D278E174421AA83018C51EA8780EF025
:102FC00061FA68780EF05EFA28780EF05BFAE41C7D
:102FD000ED1E002CF2D166E1089D00E06D1C681E1C
:102FE000032109900EF020FF481C032812D006464A
:102FF000032812D01AA8841E601940780EF042FAF5
:10300000012E0CD0AF1E605D0EF03CFAB61E3D46A0
:10301000F2D105E000260328ECD12F4600E06F1E18
:103020000998022810D37C421AA83818C51EA8781F
:103030000EF028FA68780EF025FA28780EF022FAB9
:10304000E41CED1E002CF2D19A480FF0E5F804982C
:1030500005699648854200D3054600200124049066
:1030600001460891601E09900A2207922846049E94
:1030700033460FF017FD07460691079A33460FF0C7
:10308000E1FA281A22460A9C20431AA9099B58549F
:1030900007950A3D08980546B04136D305920A22A5
:1030A00000263846069933460FF0FCFC22431AA846
:1030B000059C025509991129079828D80246643AB7
:1030C0002A46B24123D364220027294606463B46BE
:1030D0000FF0E8FC0A223B460FF0E4FC0A9802439A
:1030E0001AA8001942707D20C200304629463B468E
:1030F0000FF0D8FCE41C099A102A04D86B4A921BE2
:10310000AF410546ADD3641E02E0144600E0641CE6
:103110002646601E032109900EF086FE481C0328F7
:1031200003D00546032803D114E00025032811D05D
:103130001AA8841E3746E01940780EF0A3F9012D35
:1031400007D0BE1EE05D0EF09DF9AD1E3746F2D1F0
:1031500000E07E1E0998022810D374421AA8301885
:10316000C51EA8780EF08EF968780EF08BF92878D5
:103170000EF088F9E41CED1E002CF2D14C480FF043
:103180004BF80FF0E1FA002101250791069508910F
:103190006A1E09920A2205920646079C23460FF0F2
:1031A00081FC07460D46059A23460FF04BFA301A6C
:1031B0000A9C20431AA9099A5054059608980A3E79
:1031C000079A904136D30A220026384629463346CC
:1031D0000FF068FC22431AA8069BC25409991129D2
:1031E0001D46059C28D8204664380898B04123D352
:1031F000642200272046089E31463B460FF052FCD1
:103200000A223B460FF04EFC0A9802431AA84019C6
:1032100042707D20C200204631463B460FF042FC02
:10322000ED1C099A102A03D8204A121BB741ADD3CE
:103230006D1E02E0069D00E06D1C2E46681E0321F7
:103240000A900EF0F1FD481C032803D00546032820
:1032500003D114E00025032811D01AA8841E374694
:10326000E01940780EF00EF9012D07D0BE1EE05D8A
:103270000EF008F9AD1E3746F2D100E07E1E0A9826
:10328000022810D374421AA83018C51EA8780EF070
:10329000F9F868780EF0F6F828780EF0F3F8E41CE8
:1032A000ED1E002CF2D11FB0F0BDC046E7030000B8
:1032B0001736010097360100F0B587B05B4E3178C4
:1032C0007078B37899420A4600D31A46814200D3F7
:1032D000104630700420315E0620305E0822B35E56
:1032E00099420A4600DB1A46814200DB1046B08054
:1032F0000A20315E0C20305E0E22B35E99420A46EF
:1033000000DB1A46814200DB104670811020315EDE
:103310001220305E14220492B35E99420A4600DB0A
:103320001A46814200DB104630821620315E18209A
:10333000305E1A22B35E99420A4600DB1A46814289
:1033400000DB1046F0821C20315E1E20305E202201
:10335000B35E99420A4600DB1A46814200DB104602
:10336000B0832220315E7D25E800814200DB0146EA
:10337000CA17914371842421715E814200DB0146AA
:10338000CA179143B1842621725E824200DB024655
:103390000121012A00DC0A46F2842820335C072B35
:1033A0001A4600D30722002B0B4600D01346335495
:1033B0002922B45C642C234600D36423002C00D063
:1033C00019461B4BB154718DC82901D2C82102E0A6
:1033D0009942194600D971852B01B18D642901D21A
:1033E000642102E09942194600D9B1850695EF00A3
:1033F000F18D282902D3B942384601D9F08501461A
:10340000328E8A42104600D808468A4201D398423A
:1034100005D906990901884200D308463086716BA8
:10342000C829059306D2C82007E0C046D00F202047
:1034300088130000D348814200D97063B46B002127
:1034400020460DF033FE002805D1CF4920460DF06F
:1034500041FE002801D0CD4CB463F56B0021284615
:103460000DF024FE002805D1284621460DF028FE47
:10347000002801D0C648F063346C002120460DF0CE
:1034800015FE002805D1C34920460DF023FE002873
:1034900001D0BF4830644420315ABF4A8918491EC0
:1034A00089B2BE4A914201D8642131524620315E30
:1034B000069AD200914200DB1146CA17914331525D
:1034C0004820315AB64A8918143989B2FD4A9142C6
:1034D00001D8C82131525021705A0246153A049B36
:1034E000DB439A4201D8052070525221725A642A55
:1034F00001D8824201D2642070525421705AF24A9B
:103500008218521E92B2F14B9A4201D83C2070525E
:103510005621725ABA4201D8824201D864207052B0
:10352000B46D002120460DF0C1FD0028069F05D195
:10353000E74920460DF0CEFD002801D0E548B065F2
:103540005C20315C012903D0FF2901D0FF213154D7
:103550005E21725EF800824200DB0246D3179A4376
:1035600072526021725E824200DB0246D3179A4398
:1035700072526221725E824200DB0246012A00DC46
:10358000012272526422B05EC82800DBC820C11735
:1035900088430492B052B46E002120460DF09AFD8B
:1035A000002805D0C54920460DF094FD002801D023
:1035B000C14CB466F56E002128460DF08BFD002845
:1035C00005D0284621460DF07BFD002801D0C248D9
:1035D000F0667020315EFA00914200DB114601294D
:1035E00000DC01213152756F002128460DF072FD7B
:1035F000002806D03F20010628460DF06BFD00286C
:1036000001D0B6487067B56F284629460FF0EEF92D
:1036100000280BD1284621460DF03EFD002805D19B
:10362000A64928460DF056FD002801D0AC48B067E9
:10363000A34DF46F002120460DF042FD002805D077
:10364000A74920460DF046FD002802D00120800742
:10365000F0678020315A6918491E89B2A94201D207
:10366000C821315284257459002120460DF032FDC5
:10367000002805D08F4920460DF02CFD002801D0F0
:103680009748705188257459002120460DF022FD7D
:1036900047424741B8203158204603910DF01AFDAA
:1036A000411E88413843012801D18E4C74510125B7
:1036B0008C2001903758384639460FF097F9029020
:1036C000384621460DF0E8FC0446384603990DF0D3
:1036D00001FD411E8841002C294600D10146029877
:1036E0000028069F00D10D46012D02D17E48019988
:1036F00070509020325E9221715E9423F45EA2425B
:10370000134600DB23468A4200DB194631529620DD
:10371000315E5A29664C00DB5A215922D24391422C
:10372000059B00DC114631529A20315E782900DB7E
:1037300078217722D243914200DC11463152982001
:10374000315A6429049A02D3A142224600D9325246
:103750009C20315AA14200D934529E20315A9942BC
:1037600000D93352A020315A642901D2642301E0E8
:10377000994200D93352A420325891087D2911D2A0
:10378000B90012E0102700000000B44200004041E0
:103790000000A0400000C84230F8FFFF2FF80000F2
:1037A0002BFCFFFF51498A4200D93150F021725E53
:1037B000F800824200DB0246D3179A437252F2218C
:1037C000725E824200DB0246D01782437252F420BE
:1037D0003158474A8918491E914201D23901315066
:1037E000F8257459002120460DF060FC002806D110
:1037F0007F20C10520460DF06DFC002801D03D481A
:103800007051FC257459002120460DF04FFC002812
:1038100006D17F20C10520460DF05CFC002801D0B8
:103820002E487051012005027459002120460DF0E8
:1038300033FC002805D1304920460DF04BFC002810
:1038400001D02E4870514120850074590021204636
:103850000DF022FC002806D17F20C10520460DF086
:1038600039FC002801D0264870512120C100725E29
:10387000F800824200DB0246D3179A437252852138
:103880004900725E824200DB0246D01782437252C8
:1038900043208100705A002801D1052070528721F1
:1038A0004900725A824200D2705207B0F0BDC04641
:1038B000881300000000B4420000A0400000C8428D
:1038C00030F800002AFC00000CFEFFFF0BFE000099
:1038D0000000FA430000F543CDCC4C3FCDCC4C3E2C
:1038E0000000A0410000C84100003442983A0000A6
:1038F000F0D8FFFF3333B33E000020419A99193FBF
:103900000AD7233CF0B58FB06E460D2800D161E197
:103910000A281BD1F24F3878F24D29784A424A41A1
:1039200002431DD0002800D1E1E2EF48EF490A88A8
:10393000EF490B88DB43D218C31E13400B2B00D971
:10394000E4E0EC488169491C816134E101467F393A
:10395000C9B2A02961D8F648012101700FB0F0BDAD
:10396000F94800254554F74FF968491CF96001787A
:1039700042781202511882781204C078000680182A
:103980004018F249884200D1ABE0EF4CF0490522E3
:1039900020460EF0E9FE00284DD02078617809021B
:1039A0000818582847D02078617809020818A178AB
:1039B0000904E278120651180818E649884200D135
:1039C00029E220786178090208183F2800D122E214
:1039D0002078617809020818A1780904E2781206B3
:1039E00051180818DC49884200D185E12078002868
:1039F00000D115E23D2800D1FCE16078002800D11B
:103A00000EE23D2800D1F2E1A078002800D107E2C3
:103A10003D2800D1EDE1E41CE8E7C54B1978002909
:103A200000D0D7E0C34A11782F2900D2C8E0012086
:103A300018700FB0F0BDC04C0EF0C6FEBF48018834
:103A4000BF480288D2438918621E0A400A2AB94D2B
:103A500058D30288C14941238B540288521C22400A
:103A60000280028843238B540288521C2240028029
:103A700002884B238B540288521C22400280028809
:103A80002C238B540288521C22400280028853232C
:103A90008B540288521C22400280028854238B548B
:103AA0000288521C2240028002884F238B540288D5
:103AB000521C22400280028850238B540288521CE0
:103AC0002240028002880D238B540288521C22401F
:103AD000028002880A238B540188491C21400180FE
:103AE00004E2954C00200EF0FFF994490A889449AD
:103AF0000B88DB43D218224000286DD0092A8D4D57
:103B000000D3ABE0B869401CB861EFE10C88934A80
:103B1000452313550C88641C04400C800C882E46E9
:103B2000522515550C88641C04400C800C881555D2
:103B30000C88641C04400C800C882C2515550C88BE
:103B4000641C04400C800C884C25155535460C88A7
:103B5000641C04400C800C8813550B885B1C0340CC
:103B60000B800B884E24D4540B885B1C03400B80C5
:103B70000B884724D4540B885B1C03400B800B88B4
:103B80005424D4540B885B1C03400B800B884824BE
:103B9000D4540B885B1C03400B800B880D24D45439
:103BA0000B885B1C03400B800B880A24D4540A88C2
:103BB000521C02400A80DB480169491C016196E100
:103BC0000346613BDBB21A2B00D220384B1C13702A
:103BD000D34A50540FB0F0BD092A00D22BE10A8815
:103BE000D648452383540A88521C22400A800B88F9
:103BF0005222C2540B885B1C23400B800B88C2549A
:103C00000B885B1C23400B800B882C25C5540B882C
:103C10005B1C23400B800B88C2540A88521C224034
:103C20000A800A88552383540A88521C22400A803D
:103C30000A884E2383540A88521C22400A800A882C
:103C40000D2383540A88521C22400A800A880A23C2
:103C500083540888401C2040088043E10A88B74804
:103C6000412383540A88521C22400A800A88432335
:103C700083540A88521C22400A800A884B238354AA
:103C80000A88521C22400A800A882C2383540A88FE
:103C9000521C22400A800A88522383540A88521CEC
:103CA00022400A800A88552383540A88521C2240E5
:103CB0000A800A884E2383540A88521C22400A80B4
:103CC0000A880D2383540A88521C22400A800A88DD
:103CD0000A2383540888401C2040088006E1C0461F
:103CE0000919202012192020FF070000FC182020AD
:103CF000FA182020FC162020343668460EF0B4FC5A
:103D000030780028854D03D17078002800D1F3E089
:103D1000874888490A8888490B88DB43D218431EA4
:103D200013400A2B1CD2B869401CB861DBE0C046C6
:103D30000919202012192020FF070000FC1820205C
:103D4000FA182020FC162020C415202052554E00C1
:103D5000CF34010047455400444546000000202070
:103D60000B88764A4524D4540B885B1C03400B8097
:103D70000B885224D4540B885B1C03400B800B88A7
:103D8000D4540B885B1C03400B800B882C24D45428
:103D90000B885B1C03400B800B884224D4540B8897
:103DA0005B1C03400B800B885524D4540B885B1C90
:103DB00003400B800B885324D4540B885B1C0340B6
:103DC0000B800B885924D4540B885B1C03400B8058
:103DD0000B880D24D4540B885B1C03400B800B888C
:103DE0000A24D4540A88521C02400A807BE0641CD6
:103DF00000E0A41C002C13D04948844210D0607805
:103E000000280DD0601C257006F068FF00287BD0CC
:103E100045480AF069FAFEF73FFA3F4F3F4D66E02A
:103E2000434844490A8844490B88DB43D218C31EDF
:103E300013400B2B03D8B869401CB86152E00B88C3
:103E40003E4A4524D4540B885B1C03400B800C88ED
:103E5000522313550C88641C04400C800C881355A5
:103E60000C88641C04400C800C882C2515550C888B
:103E7000641C04400C800C88462515550C88641C75
:103E800004400C800C884F2515550C88641C044098
:103E90000C800C8813550B885B1C03400B800B882F
:103EA0004D24D4540B885B1C03400B800B884124A9
:103EB000D4540B885B1C03400B800B885424D454CF
:103EC0000B885B1C03400B800B880D24D4540B889B
:103ED0005B1C03400B800B880A24D4540A88521CB4
:103EE00002400A800D4D3869401C38610A4F00209D
:103EF000287038700FB0F0BD0EF060FA10480AF06C
:103F0000F3F9FEF7C9F9F1E708480AF0EDF9386965
:103F1000401C386181E7C046091920201219202071
:103F2000C4152020FC162020C432010024310100D9
:103F3000FF070000FC182020FA1820200000202095
:103F400074320100F0B58FB0DE4D0B90002800D127
:103F50009BE22426A85D002800D196E2FB4F0120B9
:103F60000190FB480EF078FEFA480B994843C00CCC
:103F7000081A002180B20290039108460490039829
:103F800068610BE07C2008212954686E401C68663B
:103F900038460EF061FE601D2D2C79D20446A85DD6
:103FA00000280AD047200CA9022204F0B1FD002805
:103FB00006D07C200021295408E07C20082101E063
:103FC0007C2009212954686E401C686638460EF032
:103FD00043FEA85D00280AD047200CA9022204F065
:103FE00097FD002806D07C200021295408E07C2081
:103FF000082101E07C2009212954686E401C686674
:1040000038460EF029FEA85D00280AD047200CA9EA
:10401000022204F07DFD002806D07C2000212954D6
:1040200008E07C20082101E07C2009212954686EE9
:10403000401C686638460EF00FFEA85D00280AD0C6
:1040400047200CA9022204F063FD002806D07C2042
:104050000021295408E07C20082101E07C2009216E
:104060002954686E401C686638460EF0F5FDA85D60
:10407000002887D047200CA9022204F049FD00281F
:1040800003D07C200021295482E77C2009217BE792
:10409000B148411C0A910027089707973C460990B0
:1040A00009E0641C0A90A9480EF0D6FD7F1CB8B246
:1040B0000B9988422CD2A85D002820D047200DA95A
:1040C000022204F025FD00281BD00D99C8BA09BAB8
:1040D0007C220023AB54C917089A12180892079A39
:1040E0004A410792099909B28142024600DC0A4618
:1040F00009920A9909B28142D3DB0846D1E7082028
:1041000000E009207C216854686E401C6866CAE79C
:10411000A2B202988242ED4F00D2A7E10024089893
:10412000079923460EF0B4FC06902F6A3846079490
:1041300021460CF0BBFF0890069800B20DF06AFF14
:1041400039460CF0EFFA04460898002800D0079C86
:10415000099800B20A9909B2081A0DF05BFF3946B6
:104160000CF0E0FA0746204607990CF095FF012174
:104170000091C90700280894079100D04C402046C0
:10418000D3490CF0A7FF04463846D2490CF0A2FFF1
:10419000411E8841002C019900D101460029CB4FD6
:1041A00000D063E10898686100240A940EE00820BA
:1041B000099C7C216854686E401C686638460EF085
:1041C0004BFD601D0F2C044600D34BE1A85D002879
:1041D000099433D047200EA9022204F099FC00284C
:1041E0002ED00E9805907C2000272F542C6A204654
:1041F00039460CF05BFF06900598C0BA0DF00AFF37
:1042000021460CF08FFA0699002900D0384608990B
:104210000AF062FE044639460CF03EFF002801D049
:1042200007984440A94F2046AB490CF053FF0028A3
:1042300000D01BE10A98401C0A9007E0082000E02B
:1042400009207C216854686E401C686638460EF070
:1042500003FDA85D002833D047200EA9022204F0F8
:1042600057FC002830D00E9805907C2000272F5452
:104270002C6A204639460CF019FF06900598C0BA02
:104280000DF0C8FE21460CF04DFA0699002900D029
:10429000384608990AF020FE044639460CF0FCFE28
:1042A000002801D007984440884F20468A490CF0E6
:1042B00011FF002800D0D9E00A98401C0A9009E0BC
:1042C000082002E0E011202009207C216854686E5B
:1042D000401C686638460EF0BFFCA85D002833D04D
:1042E00047200EA9022204F013FC002836D00E98B5
:1042F00005907C2000272F542C6A204639460CF06C
:10430000D5FE06900598C0BA0DF084FE21460CF04B
:1043100009FA0699002900D0384608990AF0DCFD10
:10432000044639460CF0B8FE002801D007984440F6
:10433000664F204668490CF0CDFE002800D095E07D
:104340000A98401C0A900FE0082008E00071020063
:104350000024F400CDCC0000FF7F000009207C2168
:104360006854686E401C686638460EF075FCA85D9F
:10437000002832D047200EA9022204F0C9FB0028F1
:104380002DD00E9805907C2000272F542C6A2046B3
:1043900039460CF08BFE06900598C0BA0DF03AFE37
:1043A00021460CF0BFF90699002900D0384608993B
:1043B0000AF092FD044639460CF06EFE002801D04A
:1043C00007984440414F204643490CF083FE0028A3
:1043D0004CD10A98401C0A9007E0082000E0092010
:1043E0007C216854686E401C686638460EF034FCC8
:1043F000A85D002800D1DAE647200EA9022204F0C9
:1044000087FB00282CD00E9805907C2000272F5485
:104410002C6A204639460CF049FE06900598C0BA31
:104420000DF0F8FD21460CF07DF90699002900D029
:10443000384608990AF050FD044639460CF02CFE27
:10444000002801D007984440204F204622490CF014
:1044500041FE00280AD10A98401C0A90099CADE64A
:104460000920A5E60A9880B2112825D804980228C8
:1044700007D0044619480EF0EFFB601C022C00D256
:104480007CE500206861252101E025210020685499
:10449000262168540B23124900220A6011490A6040
:1044A00011490A7011490A7029216A54EA616A8522
:1044B0007C216B540FB0F0BD2520009929540023B6
:1044C000EB84AB652B660198E5E7C04600710200FE
:1044D000000020410000A0400000404000A8610012
:1044E000BC18202064142020101920201E19202020
:1044F000F0B597B0099103901C99002B01D00020D2
:1045000018800493002901D0002008800A920591A8
:10451000DC4801210C910170DB49F020085AF2219E
:104520000B91F4210D912121C9001291852149009F
:1045300013914321890010910026FC210F91F8214D
:104540000E9141210191890011917D210291C900B3
:1045500008918842304671D8CB480B99415E0029BA
:1045600030466BD4C9488142304667DAC6480D9957
:1045700040580028304661D0C3491298085E169012
:104580001398085E15901098085A14900F980C58BC
:104590000E980F581198085806900C980002085869
:1045A0000790002138460CF095FD0028304645D094
:1045B0007F20C505384629460CF078FD0028304696
:1045C0003CD0002120460CF085FD0028304635D037
:1045D000204629460CF06AFD002830462ED00021E6
:1045E00007980CF06DFD0028304627D0002406986F
:1045F00021460CF065FD002830461FD01698002893
:1046000030461BD4A14816998142304616DA1598D7
:104610000028304612D4FC481599814230460DDA04
:1046200014980028304609D087204000F549085AE0
:104630001499884201D2204600E00120F04C6070BD
:104640007F210998084060710DF0A2FEA071411E03
:1046500002468A412271002803D060790CF016FCD2
:10466000064626810A9887B208998F4200D30F46E2
:10467000002800D50027E783E06B401C00D2E063F0
:10468000207800280AD06078002807D02622A35C72
:10469000032B0ED10021218408468CE1002060808C
:1046A000E06020616061A061A0832062A08417B0F7
:1046B000F0BD591E2079012910D8002800D18DE0C5
:1046C0000020E06220866080E06020616061A0617F
:1046D000A083606221462431087102E0002800D1E5
:1046E00095E0607932216054A68601990140012944
:1046F00004D0084640290BD1012000E0FF202721EB
:104700006054282001212154A06B401C00D2A063DA
:10471000E07800284DD0E468BA490F980858159001
:104720000E980D5830460DF075FC21460AF0D4FB6A
:10473000014628460BF060FE21460AF0D2FB169097
:10474000AF49C8601098AF49085A01210026039A62
:1047500090420B4600D9334687225200A94DAA5AEF
:10476000039DAA4200D231460B40A54EB370012BE7
:10477000169D2DD1284621460AF0AEFB044603982B
:104780000DF0A8FE0146A2480BF0CCFF21460BF02D
:1047900033FE3061746921460AF09EFB014615988C
:1047A0000BF02AFE21460AF09CFB01467061954EF3
:1047B00083E030460DF02EFC05460021E0602161CB
:1047C00061610120E070A078002861D08D4E74E016
:1047D00000213161716134468A4E60E0E06A039DD8
:1047E00029180020A94200D2C143E1622546854E26
:1047F0000D9C3459A14234D20B98315A0022012B1E
:10480000104600D00846012B7D4C28D1F2E0002054
:104810006080A084E06020616061A061A0832821A5
:10482000615C0029774D00D1D1E02721635CFF2B2B
:1048300001D002210C910C99A1542086039EE662BE
:104840000D996958B14200D8CCE00B98295A002242
:10485000FF2B104600D00846FF2B00D1CAE01146BE
:10486000C8E06880A884E86028616861A861A883BE
:104870000321A954654929860146049A2C462884B7
:104880009AE0C04648152020D00F2020E903000000
:1048900016955C4E1098305A87214900725A0123B0
:1048A0000021039DA842184600D90846039DAA424C
:1048B00000D20B461840A070169D012016900002F1
:1048C0003458119830580BF097FD0646204629467B
:1048D0000BF092FD31460AF004FB0546484885611D
:1048E000129848490E5A284629460EF07FF80028AB
:1048F00000D082E0744220B20DF08CFB01462846C5
:104900000CF0D4FB002819D130B20DF083FB014626
:1049100028460CF0D5FB002834460FD1002128464C
:104920000CF0CEFB002801D1BF2000E03F200106A3
:1049300028460AF0D6FA0DF01FFC0446304884835E
:1049400020B21590C0190299CA009042044600D3C3
:104950001446002100280D462A4B00D425466C1E23
:104960002846A041139C1C5FA542169E00DB0E4604
:1049700030402426224B98550028084600D128466E
:104980001F4D2884159BFD1A95422B4600D31346D4
:10499000002D0A4600D41A46551E1346AB41A242CA
:1049A00000DB1691169C23402524154D2B552C46D3
:1049B000002B00D11146049A6184002A00D0108097
:1049C0000599002901D0608C088017B0F0BD002146
:1049D000E162E170252021540320A054012000024F
:1049E000208658E6E070252160540321A154074930
:1049F00021860146049A2084DEE700249EE7C04613
:104A000048152020D00F2020E903000001020000FB
:104A100000007A44F0B58FB00EF098F9074680692F
:104A20000DF0AAFBB44CA04200DC2046B34EB042CD
:104A300000DB30460290F8690DF09EFBA04200DCDE
:104A40002046B04200DB304601900025284629462A
:104A50000DF05AFEAA480DF0DFFB3868A04200DCDA
:104A60002046B04200DB304607F0F8FDA5480DF0C7
:104A7000D3FB7868A04200DC2046B04200DB304621
:104A800007F0ECFD022029460DF03EFE9E480DF099
:104A9000C3FBFE68BC68002E01D4354604E02D201F
:104AA0000CF0F0FC6442B54103974A3700970023AD
:104AB000964A2046294606930DF0F4FF1046194603
:104AC0000125059507916A1E08920A220992064659
:104AD000069F3B460DF0E6FF04460D46099A3B460D
:104AE0000DF0B0FD301A302738430AA9089A505407
:104AF000049607980A3E069A9041099736D30A22EF
:104B000000262046294633460DF0CCFF3A430AA83A
:104B1000059BC254089911291D46049F28D8384680
:104B200064380798B04123D3642200243846079E96
:104B3000314623460DF0B6FF0A2223460DF0B2FFA0
:104B4000099802430AA8401942707D20C2003846E5
:104B5000314623460DF0A6FFED1C089A102A03D813
:104B6000D34AD21BB441ACD36D1E02E0059D00E0D8
:104B70006D1C2E46681E032108900DF055F9481C47
:104B8000032800D00690032801D1354611E00AA879
:104B9000841E069FA01940780CF074FC012F07D0EA
:104BA000B51EA05D0CF06EFCBF1E2E46F2D100E0DB
:104BB000751E0898022810D36C420AA82818C51E32
:104BC000A8780CF05FFC68780CF05CFC28780CF09E
:104BD00059FCE41CED1E002CF2D1B7480DF01CFB73
:104BE000039845690469002D01D4294605E02D206C
:104BF0000CF048FC00216442A941AE4A0023204643
:104C000006930DF04FFF10461946012505950791B3
:104C10006A1E08920A2204920646069F3B460DF041
:104C200041FF04460D46049A3B460DF00BFD301A39
:104C3000099F38430AA9089A5054049607980A3ED7
:104C4000069A904136D30A2200262046294633464A
:104C50000DF028FF3A430AA8059BC2540899112970
:104C60001D46049F28D8384664380798B04123D39E
:104C7000642200243846079E314623460DF012FF79
:104C80000A2223460DF00EFF099802430AA8401994
:104C900042707D20C2003846314623460DF002FFA7
:104CA000ED1C089A102A03D8814AD21BB441ADD317
:104CB0006D1E02E0059D00E06D1C2E46681E03215E
:104CC00008900DF0B1F8481C032800D00690032886
:104CD00001D135461DE00AA8841E069FA019407820
:104CE0000CF0D0FB012F13D0B51EA05D0CF0CAFB59
:104CF000BF1E2E46F2D10CE00080FFFFFF7F0000B8
:104D0000CF3501007E350100A336010040420F007F
:104D1000751E0898022810D36C420AA82818C51ED0
:104D2000A8780CF0AFFB68780CF0ACFB28780CF09E
:104D3000A9FBE41CED1E002CF2D10420002529461D
:104D40000DF0E2FC5D480DF067FA029800B207F042
:104D500085FC5B480DF060FA019800B207F07EFC1C
:104D6000062029460DF0D0FC56480DF055FA009C5F
:104D7000207807F073FC54480DF04EFA607807F085
:104D80006DFC52480DF048FA0398006D0124069519
:104D9000294605940791621E08920A22049205464C
:104DA000069F3B460DF07EFE06460C46049A3B46A7
:104DB0000DF048FC281A099F38430AA9089A505454
:104DC000049507980A3D069A904136D30A22002599
:104DD000304621462B460DF065FE3A430AA8059B56
:104DE000C254089911291C46049F28D838466438B3
:104DF0000798A84123D3642200263846079D2946F8
:104E000033460DF04FFE0A2233460DF04BFE099853
:104E100002430AA8001942707D20C2003846294684
:104E200033460DF03FFEE41C089A102A03D8204AAE
:104E3000D21BAE41ADD3641E02E0059C00E0641CB1
:104E40002646601E032109900CF0EEFF481C032843
:104E500003D00546032803D114E00025032811D010
:104E60000AA8841E3746E01940780CF00BFB012D90
:104E700007D0BE1EE05D0CF005FBAD1E3746F2D13B
:104E800000E07E1E0998022810D374420AA8301848
:104E9000C51EA8780CF0F6FA68780CF0F3FA2878BA
:104EA0000CF0F0FAE41CED1E002CF2D10FB0F0BDB6
:104EB000E703000040420F00983401000336010070
:104EC000DE3401001F370100E33501004F360100D9
:104ED000F0B59BB009900DF005FF0C900DF006FFAA
:104EE00008900DF00FFF02900DF008FF03900DF0F9
:104EF000E1FE04900DF01EFF06900DF01FFF0590DF
:104F00000DF020FF07900DF0E1FE07467A3000908B
:104F10003846243001900DF019FF0A9048300B906C
:104F20000DF0E8FE014677310F910D9044300E9060
:104F30000DF0D0FE06460446243410A80DF0F4FB14
:104F4000094D099828600DF021FE28710DF08CFDA7
:104F5000089A68710C98C088E880106807210028BA
:104F60000C9104D002E0C046000E20200178297286
:104F700010796872D08968819089A881907CA87323
:104F80000DF0F2FDE873F84948782874C888688203
:104F9000C869686130882883B078A8767079E87627
:104FA000B07928773089E883F06828627069686290
:104FB000B069A862B08BA885308CE885708C288693
:104FC0002078322168546078332108916854A078A1
:104FD00034216854E07835210991685420793621CC
:104FE0006854F06AA863207B3C216854607B3D21B3
:104FF0006854A07B3E216854B08E40216852B06B4B
:105000006864B869A8643869E8647869286538888C
:10501000542168527868A865B868E865F869286618
:10502000386A6866009A108868216852D0886A21B8
:105030006852107A6C26A855386D2867786D6867B5
:1050400001990868A8674868E867F86A802168508D
:10505000386B84216850786B88216850B86B8C213C
:105060006850F86B90216850386C94216850786CC7
:1050700098216850B86C9C216850F86CA021685049
:10508000F86EA4216850386FA8216850786FAC2161
:105090006850B86DB0216850F86DB4216850386E12
:1050A000B8216850B86EBC21685002980078C021C1
:1050B00068540DF065FDC12168540DF09DFDC221BD
:1050C000685403980078C3216854049A1068C42176
:1050D00068509088C8216852A34F386ACC21685024
:1050E000B86BD0216850B88DD42168524820385C04
:1050F000D62168543B464C330FCBD8242851DC20B2
:105100002950E0202A50E4202B505C20385AE82116
:1051100068525E20385CEA216854F88DEC216852B0
:105120005F21785CEE22A8546020385CEF22A854FE
:10513000786EBA6EF023E850F4202A50B85BF8225B
:10514000A8521698FC22A850179801221202A850C3
:10515000189841229200A85006984068059B5A680A
:1051600010185A6980182122D200A850079C207874
:1051700043229200A8546278FF2003460E33EA547B
:10518000A27887235B00EA54A26811231B01EA502E
:105190000A9E326845239B00EA5072682323DB0095
:1051A000EA50F268B368092464012B512B195A6044
:1051B000726933692524E4002B512B195A60B269B6
:1051C00013231B01EA50F2694D239B00EA50326A17
:1051D0002723DB00EA50726A4F239B00EA50B26A31
:1051E00005239B01EA50F26A51239B00EA50326B7F
:1051F0002923DB00EA500B9CA27853239B00EA543E
:10520000E27803464E33EA542279A7235B00EA543E
:10521000326D15231B01EA50F26B55239B00EA50B7
:10522000326C2B23DB00EA50726C57239B00EA5050
:1052300022780B235B01EA54627803466233EA5416
:105240000D9E3288B1235B00EA52728859239B007D
:10525000EA523279B3235B00EA54B2682D23DB00B3
:10526000EA50F2685B239B00EA50326917231B0166
:10527000EA50B28B5D239B00EA520E9C2289BB232D
:105280005B00EA52326A2F23DB00EA50326D89005C
:105290006A50716A0322D201A950716D6122920095
:1052A000A950B16A3122D200A950B16D6322920097
:1052B000A950F16A19221201A950F16D65229200DC
:1052C000A950316B089AD200A950316E6722920022
:1052D000A950716B0D225201A950716E6922920082
:1052E000A950B16B099AD200A950B16E6B229200FD
:1052F000A950F16B1B221201A950F16E6D22920090
:10530000A950316C3722D200A950316F6F22920020
:10531000A95021880C9A9201A952218EE1225200B3
:10532000A952E17871229200A9540F9B1978024684
:10533000C632A9546179E3225200A95499780246F1
:10534000C832A954A1793922D200A954D978024689
:10535000CA32A954E179E5225200A9541979CC3016
:1053600029541BB0F0BDC046E0122020F0B591B02A
:105370000DF0B0FC0546044626340DF0CBFC0B9036
:105380002620285C401EC0B2022803D88000F249C3
:10539000085800E0F148099060780390E07A0290A4
:1053A0000026304631460DF0AFF9ED480CF034FFE1
:1053B0000A956C7930253127E007284600D0384619
:1053C0000CF060F8A007284600D538460CF05AF8D3
:1053D0006007284600D538460CF054F820072846C8
:1053E00000D538460CF04EF8E006284600D5384681
:1053F0000CF048F8A006284600D538460CF042F8D4
:10540000600600D53D4628460CF03CF802203146A7
:105410000DF07AF9E4480CF0FFFE09980CF0FCFE60
:10542000E2480CF0F9FE08200A9C205E07F016F90D
:105430002F200CF027F8E568284629460DF0D6FA0B
:10544000002813D1DA4EDB4928460BF043FE002832
:105450000CD1C720010628460BF01EFE002801D003
:10546000761C03E028460CF087FE064630B207F0B3
:10547000F5F80420002529460DF046F9CE480CF039
:10548000CBFE1C20205E07F0E9F8CC480CF0C4FEEF
:105490002020205E07F0E2F8C9480CF0BDFE222073
:1054A000205E07F0DBF80620099529460DF02CF95F
:1054B000C4480CF0B1FE0B984469C34920460CF077
:1054C000B3FC05467D20C100204604910CF0ACFCE5
:1054D0003C210CF0A9FC0791BC480194844202D8FD
:1054E00030200BF0CFFF01270999284606970A9133
:1054F0007A1E0B920A2208920446099E33460DF04A
:10550000D1FA05460F46089A33460DF09BF8201A4B
:10551000302630430CA90B9A505405940A980A3C43
:10552000099A9041089635D30A2200242846394624
:1055300023460DF0B7FA32430CA8069BC2540B99D0
:1055400011291F46059E27D8304664380A98A04185
:1055500022D36422002530460A9C21462B460DF0BA
:10556000A1FA0A222B460DF09DFA089802430CA8D6
:10557000C019427030462146049A2B460DF092FA2B
:10558000FF1C0B9A102A03D8914A921BA541ADD358
:105590007F1E02E0069F00E07F1C781E03210B9017
:1055A0000CF042FC481C032812D00546032812D0F8
:1055B0000CA8841EE01940780BF064FF012D0CD07C
:1055C000BE1EE05D0BF05EFFAD1E3746F2D105E07A
:1055D00000250328ECD13E4600E07E1E0B980228F1
:1055E00010D374420CA83018C51EA8780BF04AFFDF
:1055F00068780BF047FF28780BF044FFE41CED1EA1
:10560000002CF2D13A200BF03DFF079D092D02D866
:1056100030200BF037FF002101200A9005910B91FB
:105620000A98401E09900A2628463246059C2346C1
:105630000DF038FA0F460690324623460DF002F878
:10564000281A089E30430CA9099A505407950A3D20
:105650000B98A04137D30A220024069839462346E6
:105660000DF020FA0B9932430CA80A9BC254099BF7
:10567000112B079D29D8284664380846A04124D319
:105680006422002728463B460DF00CFA0A223B46CE
:105690000DF008FA32430CA80A9C00194270284603
:1056A0000B99049A3B460DF0FDF90B9BE41C0A9400
:1056B000099A102A04D8464A521B9F410546AED388
:1056C0000A9D6D1E03E00A9D01E00A9D6D1C681E87
:1056D00003210B900CF0A8FB481C032812D00646AF
:1056E000032812D00CA8841E601940780BF0CAFE63
:1056F000012E0CD0AF1E605D0BF0C4FEB61E3D4601
:10570000F2D105E000260328ECD12F4600E06F1E01
:105710000B98022810D37C420CA83818C51EA87814
:105720000BF0B0FE68780BF0ADFE28780BF0AAFE07
:10573000E41CED1E002CF2D10299022901D0264C66
:1057400000E0244C0398012900D1244C012809D001
:105750005525FF2809D009E030320100BB36010091
:10576000FC3201005225FF2800D14C25642101980C
:105770000CF05AFB0A210CF057FB0E462E200BF0C2
:1057800081FE0898064330460BF07CFE14480CF06E
:1057900043FD28460BF076FE09480CF03DFD2046FF
:1057A0000CF03AFD11B0F0BDDD3601004F360100BE
:1057B000FF7F000000FEFF46223701003B3601005C
:1057C00017360100F836010060EA0000BF27090023
:1057D000E7030000293501003D3701000B360100C9
:1057E00083360100F0B5B1B004461AAF0DF09EFA51
:1057F0000178002900D184E08168FC4A136899424D
:105800007FD01160C168FD4A136899420CD01160C5
:10581000FB49372200238B5438228B54CB80CB6139
:10582000F8490B70F8490B604178002906D081785F
:10583000002903D04668A11B972913D3FA483622C2
:10584000002181543722825C002A03D0816A491CDE
:10585000816256E038228154C180F4480170F448D6
:1058600001604EE001210791EF493723CD5C002D07
:10587000089320D0ED4A1278012A22D11222815EAB
:105880000023EC4A0693D25E05918A1AD31704923C
:105890005A40D21A3D2A00D29FE0E349486A401C90
:1058A00048623620069A0A54002D00D1C0E0886A6A
:1058B000401C886225E039228A5C022A01D0052A30
:1058C000D8D10D46D949079A0A700021E980438A48
:1058D000D8490B80D6490E606B8080692863EE61E1
:1058E000286A401C28623620012129543821685C2E
:1058F000022804D8421C6A54801E42424241089841
:105900002A540DF05BF9002803D10DF099F9002815
:105910000AD00CF007FBC4480021818641618161F7
:105920003922815431B0F0BD1AA80BF02BFF09AD1C
:1059300028460CF009FE4120285C002807D0BA4810
:105940000021818639210622425431B0F0BD493709
:10595000B54E3420305C00281ED0387800280ED098
:10596000F87800280BD03879002808D1F879002879
:1059700005D1387A002802D1787A002860D0352401
:10598000305D002803D00CF0CDFA002030553920CE
:105990000121315431B0F0BD3524305D002819D0DB
:1059A000387800280ED0F87800280BD038790028F5
:1059B00008D1F879002805D1387A002802D1787A00
:1059C00000287ED00CF0AEFA0020305539217054FA
:1059D00031B0F0BD39200021DBE7059989B206918D
:1059E000934909688E4203D1079A8F4D069B6FE752
:1059F0000590711A7D20C000049A50430BF0C6FD3B
:105A00000621894A515E03224A431018C117890FA3
:105A1000401881108848814200DC0146874A914243
:105A2000059800DB1146804DE980079A069B4FE7F9
:105A300038200A54CA807D4802707D48026060E7C1
:105A4000F0690025002801D0211A00E0E943372041
:105A5000305C002813D0972911D2308E002807D04F
:105A6000318809B2CA175140891A4900884231D297
:105A70000CF058FA0020B0863920062189E7022070
:105A8000972914D30022F2863823F254F280674B10
:105A90001A70674B1A60FF229232914207D3392065
:105AA000315C0520052902D0F16A491CF1623921D7
:105AB00070543520305C002800D16BE71AA8002113
:105AC00004E03920042131541AA8012109F098F981
:105AD00031B0F0BD1AA809A90BF000FD002800D1D3
