:10000000008020204FD1010053960100539601003B
:1000100000000000000000000000000000000000E0
:1000200000000000000000000000000053960100E6
:10003000000000000000000053960100B99101008B
:100040005396010021CA010053960100E5A6010064
:1000500053960100539601005396010053960100F8
:1000600000000000539601005396010000000000BC
:1000700000000000539601002DB1010053960100CD
:1000800053960100539601005396010053960100C8
:10009000539601005396010000000000000000008C
:1000A000539601005396010000000000000000007C
:1000B0005396010000000000539601005396010082
:1000C000F0B5D1B00D920F91064612A844210170EF
:1000D00042214170472181702C22C270462101715A
:1000E000492141714C2181715421C1714521017215
:1000F000522141720E92827274210791C1723D2188
:1001000009910173002E3ED0002401210E222746C2
:10011000109115460A24304621461BF04DFF109BD6
:100120004443311B30220A437C1C4EA9CA55082F78
:1001300004D8591C6A1C092E0646E8D81E4611959B
:10014000032138461BF038FF4D1C032D20D02846D4
:10015000022F20D310954EAAD31E251A00221E1955
:10016000B77812A989184F7376788E731E5DCE7397
:10017000D21CDB1E9542F2D1A31A0D321199109DAB
:10018000032D0DD11CE012A8302141730E2117E080
:100190000020022FDED233460D221199032D0FD0FD
:1001A00012A989184EAA9A18921E53780B7001282A
:1001B00005D013784B70891C921E801EF5D11199C1
:1001C0000A46CBB212A8C1180E9CC45472200690E5
:1001D000487065200590887073200490C870752061
:1001E000029008716C2003904871079888710998F3
:1001F000C8716E210F980191405C072803D88000D8
:10020000F049085800E0F04808320578002D24D065
:1002100011901046D1B212AAD2181092E824E31A13
:100220000024A3421BD0119A1619109A17193D7277
:100230007578002D19D04A1CF02A10D07D72B5783F
:10024000002D14D08A1CF02A09D0C91CC01CBD7214
:10025000F578E41C002DE4D10AE0104608E00D9882
:10026000068AF023002E1FD1C7E0401C00E0801C4E
:100270000346C1B2F0290D4600D8F0250A090E2A1E
:100280000ED84A1C12AB0E9C5C54AA4201D11346F4
:1002900006E08B1C12AC049EA654AB4200D016E2C2
:1002A0000D98068A002E34D0119301256F1E0A2462
:1002B000304621461BF080FE4443311B302421434D
:1002C0004EAAB954082F2FD80A2E2DD30A211BF07D
:1002D00073FE21434EA84155072F24D8642E22D304
:1002E000642130461BF068FE0A211BF065FE2143A5
:1002F0004EA8401941707D20C10030461BF05CFEC5
:10030000ED1C062F03D8B1498E420646CED86D1E8D
:100310000AE0D8B201090E296FD85B1C119312A90B
:1003200030220A5443E06D1C1198C3B2F02B1846DA
:1003300000D8F02012A9C918C21A941E0A94089372
:10034000181A401C0C904EA8C71EA81E0B90681EC1
:1003500010900026B2421BD07C19A07888551098C6
:10036000B04218D00C98801917D060788C19607042
:100370000B98B04215D00A98B04214D0785D119B0A
:10038000DB1C1193A070F61CFF1EB542E2D10EE0FB
:10039000089880190AE0119801E008988019401C1B
:1003A00004E0119801E008988019801C1190119BBD
:1003B000D9B2F029084600D8F0200A090E2A1CD824
:1003C0004B1C12AA0E9C5454834216D08A1C12ACA9
:1003D0007625E554824201D113460EE0CB1C12ACC7
:1003E0006125A554834208D00C1D12AA039DD55443
:1003F000844201D001F08CFA23460D984678002EF5
:1004000036D01193D8B2089001277D1E0A243046B9
:1004100021461BF0D1FD4443311B302421434EAA19
:10042000A954082D2FD80A2E2DD30A211BF0C4FD64
:1004300021434EA8C155072D24D8642E22D3642110
:1004400030461BF0B9FD0A211BF0B6FD21434EA832
:10045000C01941707D20C10030461BF0ADFDFF1C6E
:10046000062D03D859498E420646CED87F1E0AE093
:10047000D8B201090F295FD25B1C119312A9302257
:100480000A5441E07F1C089AF02A00D8F02212A8F2
:10049000089BC018D11A8C1E0A949A1A521C0C92EE
:1004A0004EAAD51EBA1E0B927A1E10920024A142AB
:1004B0001BD0EB199E780655109AA24218D00C9AC0
:1004C000161917D05E7803195E700B9AA24215D0E8
:1004D0000A9AA24214D0EE5D119AD21C11929E701B
:1004E000E41CED1EA742E2D10EE0089800190AE0D4
:1004F000119801E008980019401C04E0119801E0EF
:1005000008980019801C1190119BD8B2F028014660
:1005100000D8F02102090E2A0ED8421C12AB0E9C04
:100520001C548A4201D1134606E0831C12AC6D258F
:10053000A5548B4200D089E00D988678002E36D0E5
:100540001193D8B2089001277D1E0A243046214617
:100550001BF032FD4443311B302421434EAAA954E1
:10056000082D36D80A2E34D30A211BF025FD21434D
:100570004EA8C155072D2BD8642E29D364213046AF
:100580001BF01AFD0A211BF017FD21434EA8C019CC
:1005900041707D20C10030461BF00EFDFF1C062D72
:1005A00003D80A498E420646CED87F1E11E0D8B243
:1005B00001090F2900D3A0E05B1C119312A930227E
:1005C0000A545FE058D5010070DA0100E70300002B
:1005D0007F1C089AF02A00D8F02212A8089BC018A5
:1005E000D11A8C1E0A949A1A521C0C924EAAD51E2D
:1005F000BA1E0B927A1E10920024A1421BD0EB1956
:100600009E780655109AA24218D00C9A161917D047
:100610005E7803195E700B9AA24215D00A9AA24224
:100620002CD0EE5D119AD21C11929E70E41CED1E2E
:10063000A742E2D126E00898001922E0119801E0D3
:1006400008980019401C1CE0119819E0C21C12AC5B
:10065000059DE5548A4200D165E7031D12AC612572
:10066000A5548B4200D167E7401D12AA049CD454C4
:10067000884201D001F06BF903465DE70898001944
:10068000801C1190119BD8B2F028014600D8F021AF
:1006900002090E2A31D8431C12AA0E9C14548B4214
:1006A0002BD0821C12AC7025E5548A4201D113462E
:1006B00023E0C31C12AC6F25A5548B421DD0001D36
:1006C00012AA049CD454884212D1034615E0CA1CD5
:1006D00012AC059EE654AA4200D1D8E5091D12AB22
:1006E00071249C54A94201D001F023F90B46D7E5AF
:1006F000119B5B1D12A9099A0A5412200D990D5ED7
:10070000002D02D474D0119309E0D8B201090E294A
:1007100003D85B1C12A92D220A5411936D420126A5
:10072000771E0A24284621461BF046FC4443291B19
:10073000302421434EAAB954082F25D80A2D23D39B
:100740000A211BF039FC21434EA88155072F1AD8E6
:10075000642D18D3642128461BF02EFC0A211BF0BF
:100760002BFC21434EA8801941707D20C1002846F2
:100770001BF022FCF61C062F03D8F7498D420546D4
:10078000CED8761E00E0761C1198C3B2F02B184626
:1007900000D8F02012A9C918C21A941E0B940A930B
:1007A000181A401C0D904EA8C71EB01E0C90701E4B
:1007B00010900025AA4225D0BC19A0784855109861
:1007C000A84222D00D98401921D060784C19607051
:1007D0000C98A8421FD00B98A8421ED0B85D119B60
:1007E000DB1C1193A070ED1CFF1EAE42E2D118E09D
:1007F000D8B201090F2933D25B1C119312A9302200
:100800000A540EE00A9840190AE0119801E00A988B
:100810004019401C04E0119801E00A984019801C1E
:100820001190119BD9B2F029084600D8F0200A098E
:100830000E2A15D84A1C12AB0E9C5C54824201D180
:1008400013460DE08B1C12AC7625A554834207D0CD
:10085000CC1C12AA069DD554844200D0B3E0234696
:1008600008200F990D5E002D02D474D0119309E079
:10087000D8B201090E2903D85B1C12A92D220A54F3
:1008800011936D420126771E0A24284621461BF04B
:1008900093FB4443291B302421434EAAB954082F0B
:1008A00025D80A2D23D30A211BF086FB21434EA80D
:1008B0008155072F1AD8642D18D3642128461BF0C0
:1008C0007BFB0A211BF078FB21434EA88019417065
:1008D0007D20C10028461BF06FFBF61C062F03D8B5
:1008E0009D498D420546CED8761E00E0761C1198B3
:1008F000C3B2F02B184600D8F02012A9C918C21AAA
:10090000941E0B940A93181A401C0D904EA8C71EF3
:10091000B01E0C90701E10900025AA4225D0BC1964
:10092000A07848551098A84222D00D98401921D09F
:1009300060784C1960700C98A8421FD00B98A842A0
:100940001ED0B85D119BDB1C1193A070ED1CFF1E27
:10095000AE42E2D118E0D8B201090F2949D25B1C9E
:10096000119312A930220A540EE00A9840190AE0A5
:10097000119801E00A984019401C04E0119801E028
:100980000A984019801C1190119BD9B2F029084691
:1009900000D8F0200A090E2A2BD84B1C12AA0E9C54
:1009A0005454834225D08A1C12AC7625E5548242E9
:1009B00001D113461DE0C91C12AB66249C54814230
:1009C00012D10B4615E00A1D12AB61251D5582425E
:1009D00000D135E7491D12AB77249C54814201D0E8
:1009E00000F0AEFF0B463BE7119B1B1D12A8099AB6
:1009F000425406200F990D5E002D02D474D011933D
:100A000009E0D8B201090E2903D85B1C12A92D22D6
:100A10000A5411936D420126771E0A242846214666
:100A20001BF0CAFA4443291B302421434EAAB9546F
:100A3000082F25D80A2D23D30A211BF0BDFA214304
:100A40004EA88155072F1AD8642D18D36421284643
:100A50001BF0B2FA0A211BF0AFFA21434EA880190D
:100A600041707D20C10028461BF0A6FAF61C062F17
:100A700003D839498D420546CED8761E00E0761C53
:100A80001198C3B2F02B184600D8F02012A9C9184B
:100A9000C21A941E0B940A93181A401C0D904EA86B
:100AA000C71EB01E0C90701E10900025AA4225D0C3
:100AB000BC19A07848551098A84222D00D9840192A
:100AC00021D060784C1960700C98A8421FD00B9808
:100AD000A8421ED0B85D119BDB1C1193A070ED1CC9
:100AE000FF1EAE42E2D118E0D8B201090F293AD276
:100AF0005B1C119312A930220A540EE00A98401987
:100B00000AE0119801E00A984019401C04E011988D
:100B100001E00A984019801C1190119BD8B2F0286E
:100B2000014600D8F02102090E2A1CD8421C12AB43
:100B30000E9C1C548A4201D1134614E0831C12AC53
:100B40006425A5548B420ED0C01C12AA079CD45415
:100B5000884203D1034606E0E7030000119B1B1DFA
:100B600012A9099A0A540F984589002D36D011937D
:100B7000D8B20A9001277E1E0A24284621461BF07F
:100B80001BFA4443291B302421434EAAB154082E9A
:100B90002FD80A2D2DD30A211BF00EFA21434EA87F
:100BA000C155072E24D8642D22D3642128461BF07A
:100BB00003FA0A211BF000FA21434EA8C019417024
:100BC0007D20C10028461BF0F7F9FF1C062E03D834
:100BD000DF498D420546CED87F1E0AE0D8B2010912
:100BE0000F2965D25B1C119312A930220A5441E0EF
:100BF0007F1C0A9AF02A00D8F02212A80A9BC0187B
:100C0000D11A8C1E0B949A1A521C0D924EAAD51E04
:100C1000BA1E0C927A1E10920024A1421BD0EB192E
:100C20009E780655109AA24218D00D9A161917D020
:100C30005E7803195E700C9AA24215D00B9AA242FC
:100C400014D0EE5D119AD21C11929E70E41CED1E20
:100C5000A742E2D10EE00A9800190AE0119801E0DB
:100C60000A980019401C04E0119801E00A98001944
:100C7000801C1190119BD9B2F029084600D8F020B1
:100C80000A090E2A14D84A1C12AB0E9C5C548242EC
:100C900001D113460CE0891C12AB61249C548142A3
:100CA00001D10B4604E0119BDB1C12A8099A4254A7
:100CB0000F988589002D36D01193D8B20A9001275C
:100CC0007E1E0A24284621461BF076F94443291B40
:100CD000302421434EAAB154082E2FD80A2D2DD3EB
:100CE0000A211BF069F921434EA8C155072E24D8CB
:100CF000642D22D3642128461BF05EF90A211BF0E3
:100D00005BF921434EA8C01941707D20C1002846DF
:100D10001BF052F9FF1C062E03D88D498D42054663
:100D2000CED87F1E0AE0D8B201090F295FD25B1C22
:100D3000119312A930220A5441E07F1C0A9AF02A2A
:100D400000D8F02212A80A9BC018D11A8C1E0B944E
:100D50009A1A521C0D924EAAD51EBA1E0C927A1ED9
:100D600010920024A1421BD0EB199E780655109AD0
:100D7000A24218D00D9A161917D05E7803195E702A
:100D80000C9AA24215D00B9AA24214D0EE5D119A91
:100D9000D21C11929E70E41CED1EA742E2D10EE01F
:100DA0000A9800190AE0119801E00A980019401CFD
:100DB00004E0119801E00A980019801C1190119B21
:100DC000D9B2F029084600D8F0200A090E2A0ED818
:100DD0004A1C12AB0E9C5C54824201D1134606E0C1
:100DE0008B1C12AC069DA554834200D083E00F9863
:100DF000857B002D36D01193D8B20A9001277E1E34
:100E00000A24284621461BF0D7F84443291B3024E6
:100E100021434EAAB154082E30D80A2D2ED30A21D0
:100E20001BF0CAF821434EA8C155072E25D8642DC2
:100E300023D3642128461BF0BFF80A211BF0BCF81D
:100E400021434EA8C01941707D20C10028461BF0E7
:100E5000B3F8FF1C062E03D83D498D420546CED877
:100E60007F1E0BE0D8B201090F2900D380E05B1C84
:100E7000119312A930220A5452E07F1C0A9AF02AD8
:100E800000D8F02212A80A9BC018D11A8C1E0B940D
:100E90009A1A521C0D924EAAD51EBA1E0C927A1E98
:100EA00010920024A1421BD0EB199E780655109A8F
:100EB000A24218D00D9A161917D05E7803195E70E9
:100EC0000C9AA24215D00B9AA24225D0EE5D119A3F
:100ED000D21C11929E70E41CED1EA742E2D11FE0CD
:100EE0000A9800191BE0119801E00A980019401CAB
:100EF00015E0119812E0CA1C12AC059DE55482421F
:100F000000D16BE7091D12AB76249C54814201D0BD
:100F100000F0B5FC0B466AE70A980019801C119096
:100F2000119BD8B2F028014600D8F02102090E2A00
:100F30001ED8431C12AA0E9C14548B4218D0821C3B
:100F400012AC6125E5548A4204D1134610E0C04634
:100F5000E7030000C31C12AC6325A5548B4207D0E5
:100F6000041D12AAD5548C4201D000F08FFC2346F8
:100F70000F98856B002D36D01193D8B20A900127B7
:100F80007E1E0A24284621461BF016F84443291BDE
:100F9000302421434EAAB154082E2FD80A2D2DD328
:100FA0000A211BF009F821434EA8C155072E24D869
:100FB000642D22D3642128461AF0FEFF0A211AF07C
:100FC000FBFF21434EA8C01941707D20C100284677
:100FD0001AF0F2FFFF1C062E03D8FC498D4205468D
:100FE000CED87F1E0AE0D8B201090F2966D25B1C59
:100FF000119312A930220A5441E07F1C0A9AF02A68
:1010000000D8F02212A80A9BC018D11A8C1E0B948B
:101010009A1A521C0D924EAAD51EBA1E0C927A1E16
:1010200010920024A1421BD0EB199E780655109A0D
:10103000A24218D00D9A161917D05E7803195E7067
:101040000C9AA24215D00B9AA24214D0EE5D119ACE
:10105000D21C11929E70E41CED1EA742E2D10EE05C
:101060000A9800190AE0119801E00A980019401C3A
:1010700004E0119801E00A980019801C1190119B5E
:10108000D9B2F029084600D8F0200A090E2A15D84E
:101090004A1C12AB0E9C5C54824201D113460DE0F7
:1010A0008B1C12AC6A25A554834207D0CC1C12AA13
:1010B000029DD554844200D094E323460F98C56B1B
:1010C000002D36D01193D8B20A9001277E1E0A2433
:1010D000284621461AF070FF4443291B302421433F
:1010E0004EAAB154082E2FD80A2D2DD30A211AF05A
:1010F00063FF21434EA8C155072E24D8642D22D367
:10110000642128461AF058FF0A211AF055FF21439E
:101110004EA8C01941707D20C10028461AF04CFF2E
:10112000FF1C062E03D8A9498D420546CED87F1E46
:101130000AE0D8B201090F2965D25B1C119312A9EC
:1011400030220A5441E07F1C0A9AF02A00D8F0228B
:1011500012A80A9BC018D11A8C1E0B949A1A521C02
:101160000D924EAAD51EBA1E0C927A1E1092002421
:10117000A1421BD0EB199E780655109AA24218D0B6
:101180000D9A161917D05E7803195E700C9AA24258
:1011900015D00B9AA24214D0EE5D119AD21C119276
:1011A0009E70E41CED1EA742E2D10EE00A980019E1
:1011B0000AE0119801E00A980019401C04E0119817
:1011C00001E00A980019801C1190119BD9B2F029F6
:1011D000084600D8F0200A090E2A14D84B1C12AA7F
:1011E0000E9C545483420ED08A1C12AC6325E554E5
:1011F000824201D1134606E0CB1C12AC6125A554F6
:10120000834200D0FEE20F98056C002D36D011937A
:10121000D8B20A9001277E1E0A24284621461AF0D9
:10122000CBFE4443291B302421434EAAB154082E3F
:101230002FD80A2D2DD30A211AF0BEFE21434EA825
:10124000C155072E24D8642D22D3642128461AF0D4
:10125000B3FE0A211AF0B0FE21434EA8C019417016
:101260007D20C10028461AF0A7FEFF1C062E03D8D9
:1012700056498D420546CED87F1E0AE0D8B20109F4
:101280000F2967D25B1C119312A930220A5441E046
:101290007F1C0A9AF02A00D8F02212A80A9BC018D4
:1012A000D11A8C1E0B949A1A521C0D924EAAD51E5E
:1012B000BA1E0C927A1E10920024A1421BD0EB1988
:1012C0009E780655109AA24218D00D9A161917D07A
:1012D0005E7803195E700C9AA24215D00B9AA24256
:1012E00014D0EE5D119AD21C11929E70E41CED1E7A
:1012F000A742E2D10EE00A9800190AE0119801E035
:101300000A980019401C04E0119801E00A9800199D
:10131000801C1190119BD8B2F028014600D8F02112
:1013200002090E2A16D8421C12AB0E9C1C548A428B
:1013300001D113460EE0841C12AB069D9D548C42D5
:1013400001D1234606E0C31C12AA059D15558B4208
:1013500000D067E20F98456C002D39D01193D8B2B8
:101360000A9001277E1E0A24284621461AF024FEF0
:101370004443291B302421434EAAB154082E32D8AD
:101380000A2D30D30A211AF017FE21434EA8C15569
:10139000072E27D8642D25D3642128461AF00CFE89
:1013A0000A211AF009FE21434EA8C01941707D2080
:1013B000C10028461AF000FEFF1C062E03D8034980
:1013C0008D420546CED87F1E0DE0C046E7030000E3
:1013D000D8B201090F296CD25B1C119312A93022DB
:1013E0000A5441E07F1C0A9AF02A00D8F02212A881
:1013F0000A9BC018D11A8C1E0B949A1A521C0D927B
:101400004EAAD51EBA1E0C927A1E10920024A1423A
:101410001BD0EB199E780655109AA24218D00D9A4F
:10142000161917D05E7803195E700C9AA24215D077
:101430000B9AA24214D0EE5D119AD21C11929E70AA
:10144000E41CED1EA742E2D10EE00A9800190AE062
:10145000119801E00A980019401C04E0119801E07D
:101460000A980019801C1190119BD9B2F0290846E6
:1014700000D8F0200A090E2A1BD84B1C12AA0E9C79
:101480005454834215D08A1C12AC7625E55482420E
:1014900001D113460DE0CB1C12AC6325A554834249
:1014A00007D00C1D12AA039DD554844200D017E228
:1014B00023460F98456D002D36D01193D8B20A906F
:1014C00001277E1E0A24284621461AF075FD444352
:1014D000291B302421434EAAB154082E2FD80A2D9F
:1014E0002DD30A211AF068FD21434EA8C155072EBD
:1014F00024D8642D22D3642128461AF05DFD0A21E8
:101500001AF05AFD21434EA8C01941707D20C10038
:1015100028461AF051FDFF1C062E03D8FB498D42C8
:101520000546CED87F1E0AE0D8B201090F2965D240
:101530005B1C119312A930220A5441E07F1C0A9AC5
:10154000F02A00D8F02212A80A9BC018D11A8C1ECB
:101550000B949A1A521C0D924EAAD51EBA1E0C92CA
:101560007A1E10920024A1421BD0EB199E780655DA
:10157000109AA24218D00D9A161917D05E78031946
:101580005E700C9AA24215D00B9AA24214D0EE5D66
:10159000119AD21C11929E70E41CED1EA742E2D15A
:1015A0000EE00A9800190AE0119801E00A98001963
:1015B000401C04E0119801E00A980019801C119069
:1015C000119BD9B2F029084600D8F0200A090E2A4A
:1015D00014D84B1C12AA0E9C545483420ED08A1C61
:1015E00012AC6825E554824201D1134606E0CB1CBB
:1015F00012AC6F25A554834200D031E10F98846D61
:10160000002C34D011930126771E0A252046294646
:101610001AF0D2FC4543611B302529434EAAB95428
:10162000082F2FD80A2C2DD30A211AF0C5FC2943E4
:101630004EA88155072F24D8642C22D3642120463C
:101640001AF0BAFC0A211AF0B7FC29434EA88019F7
:1016500041707D20C10020461AF0AEFCF61C062F1A
:1016600003D8D5498C420446CED8761E0AE0D8B2BB
:1016700001090F295BD25B1C119312A930220A5475
:1016800043E0761C1198C3B2F02B184600D8F02026
:1016900012A9C918C21A941E0D940C93181A401C52
:1016A0000F904EA8C71EB01E0E90701E1090002501
:1016B000AA421BD0BC19A07848551098A84218D04F
:1016C0000F98401917D060784C1960700E98A84296
:1016D00015D00D98A84214D0B85D119BDB1C119356
:1016E000A070ED1CFF1EAE42E2D10EE00C98401936
:1016F0000AE0119801E00C984019401C04E0119890
:1017000001E00C984019801C1190119BD9B2080976
:101710000E280CD8481C12AA0D235354F02801D1CE
:10172000F02304E0119B9B1C12A90A220A54A34D2A
:10173000DFB2A3480088A34E3188C943401828402F
:10174000B84205D2A1488169491C816151B0F0BD00
:101750007C1E032120461AF02FFC4A1C0021032A7C
:10176000084600D010461092022C20D3391A11914D
:101770000021954C12AA5718525C2B4635886255A9
:101780003288521C1A4032807A7835886255328805
:10179000521C1A403280BA78358862551D4632880C
:1017A000521C1A403280C91C119A8A42E2D1109A06
:1017B000032A15D012AA5118834A0B78348813557E
:1017C00033885B1C2B403380012809D04B78348848
:1017D000135533885B1C2B403380891C801EECD151
:1017E00051B0F0BD0A1D12AB6D251D55824200D1CE
:1017F00054E4491D12AB70249C54814200D0ADE0EA
:101800000B465BE40A1D12AC019DE554824200D1F7
:10181000F0E4491D12AB64249C54814200D0A4E042
:101820000B46F0E4021D12AC6225E5548A4200D159
:101830007FE5431D12AC6125A5548B4200D189E59B
:10184000821D12AC049DE5548A4200D171E5C01D91
:1018500012AB059C9C54884200D099E0034679E580
:101860000A1D12AC039DE554824200D1BDE6491D1C
:1018700012AB64249C5481427DD10B46BEE6119B81
:101880005B1D12A8099A4254FFF7B1FA421D12AB30
:10189000059D1D558A4201D1FFF757FB831D12ACF0
:1018A0007025A5548B4201D1FFF762FBC41D12AA1B
:1018B000079DD5548C4201D1FFF759FB02460832EF
:1018C00012AB059D1D558A4201D1FFF73EFB093041
:1018D00012AB64249C54884266D10346FFF748FB50
:1018E0004A1D12AB61251D55824200D1D1E58B1DE9
:1018F00012AC6D25A554834200D1DAE5C91D12AAA8
:101900007024D454814249D10B46D2E5E70300004C
:101910004A1D12AB69251D55824201D1FEF75CFDBF
:10192000891D12AB64249C5481422AD10B46FEF7D8
:1019300064FD0346431D12A8099A4254FEF7B0FC09
:10194000119B9B1D12A8099A4254FEF789FF119B17
:101950009B1D12A9099A0A54FEF7EEFD119B9B1DCF
:1019600012A8099A4254FFF7A9FB119B9B1D12A8CC
:10197000099A425447E4119B9B1D12A8099A4254AC
:101980003CE6119BDB1D12A8099A4254FEF735FD77
:10199000119B083312A9099A0A54DBE4119B0833FE
:1019A00012A8099A425484E5119B0A3312A9099A94
:1019B0000A54FFF7DDFAC046E7030000FF07000006
:1019C0005C1A20205A1A2020000020202C182020E9
:1019D000F0B5C1B018AF07AD36AC20461AF070FFB5
:1019E0002FA81AF029FA384619F044FF28461AF0B1
:1019F00043FF207DE17C002901D0C14E00E0C14EB3
:101A00004937002800D0C04E3879002800970FD001
:101A1000002001461BF024F8BC481AF04FFDB87AAC
:101A2000401EC0B2022818D88000B949085815E0F5
:101A3000B879002800D198E0002001461BF010F88A
:101A4000B4481AF03BFD387B401EC0B2022800D9D2
:101A5000CFE08000B0490858CCE0B0481AF02EFD25
:101A6000AF481AF02BFD387B401EC0B2022803D8C5
:101A70008000A949085800E0AA4800241AF01EFD79
:101A80000220019421461AF0EBFFA7481AF016FD38
:101A90003878002865D0199C002C03D52D2019F02A
:101AA00069FD6442A14920461AF086FA08460125DC
:101AB0000199049505916A1E06920A22039207462F
:101AC000019E33461BF0B4F904460D46039A334693
:101AD0001AF074FF381A302318433CA9069A505460
:101AE000039705990A3F0846B0415DD30A220E4686
:101AF0000027204629461C463B461BF099F9234601
:101B000022433CA8049C0255069911292546039AB4
:101B10004CD8104664383046B84147D31746642243
:101B2000002438463146029323461BF081F90A22ED
:101B300023461BF07DF9029802433CA840194270ED
:101B40007D20C2003846314623461BF071F9ED1C5A
:101B5000069A102A03D8764AD21BB441A9D36D1E27
:101B600025E070481AF0AAFC04E13C3568790028A9
:101B700000D175E20024204621461AF071FF6D481D
:101B80001AF09CFC0220039421461AF069FF614878
:101B90001AF094FC6879401EC0B2042800D9B1E262
:101BA000800065490858AEE2049D00E06D1C2F4698
:101BB000681E032106901AF0FFF9481C032813D071
:101BC0000446032813D03CA8861EF019407819F06B
:101BD000D1FC012C00D1B7E0BD1EF05D19F0CAFCAC
:101BE000A41E2F46F1D1B0E000240328EBD13D46DE
:101BF000ABE04C4800241AF061FC50481AF05EFC3F
:101C000030461AF05BFC022021461AF029FF4C48AE
:101C10001AF054FC0420019421461AF021FF49488F
:101C20001AF04CFC7878002800D115E21A9C002CA0
:101C300003D52D2019F09EFC64423C4920461AF041
:101C4000BBF90D460126019904910596701E069078
:101C50000A2203922846019F3B461BF0E9F80446FE
:101C60000E46039A3B461AF0A9FE281A3023184361
:101C70003CA9069A505403950A3D04980546B8417C
:101C800000D203E20A220027204631461C463B468A
:101C90001BF0CEF8234622433CA8059C025506992A
:101CA00011292646039A00D9F2E1104664382846E5
:101CB000B84100D2ECE11746642200243846294698
:101CC000029323461BF0B4F80A2223461BF0B0F817
:101CD000029802433CA8801942707D20C200384619
:101CE000294623461BF0A4F8F61C069A102A04D8AD
:101CF0000F4AD21BAC410546A6D3761EC9E1C046A9
:101D000013DD0100C8DE01006CDF010009DD010008
:101D1000B0D801000EE00100A4D801003BDD0100B5
:101D200098DF010017E001003ADE010040420F0099
:101D3000E7030000ADD7010070D6010037DA0100DB
:101D400070D701001AE001007D1E0698022810D30A
:101D50006C423CA82818C51EA87819F00BFC6878BE
:101D600019F008FC287819F005FCE41CED1E002C85
:101D7000F2D1009F0420002101911AF071FED64893
:101D80001AF09CFB7878002865D01A9C002C03D5AB
:101D90002D2019F0EFFB6442D04920461AF00CF9CF
:101DA000084601250199049505916A1E06920A22AA
:101DB00003920746019E33461BF03AF804460D464F
:101DC000039A33461AF0FAFD381A302318433CA917
:101DD000069A5054039705990A3F0846B0413ED3EE
:101DE0000A220E460027204629461C463B461BF089
:101DF0001FF8234622433CA8049C0255069911294A
:101E00002546039A2DD8104664383046B84128D369
:101E100017466422002438463146029323461BF0BD
:101E200007F80A2223461BF003F8029802433CA855
:101E3000401942707D20C2003846314623461AF0D0
:101E4000F7FFED1C069A102A03D8A54AD21BB4410D
:101E5000A9D36D1E06E0A3481AF030FB39E0049DBB
:101E600000E06D1C2F46681E032106901AF0A4F8AE
:101E7000481C032812D00446032812D03CA8861E12
:101E8000F019407819F076FB012C0CD0BD1EF05DE6
:101E900019F070FBA41E2F46F2D105E000240328A0
:101EA000ECD13D4600E07D1E0698022810D36C421E
:101EB0003CA82818C51EA87819F05CFB687819F0B2
:101EC00059FB287819F056FBE41CED1E002CF2D1CA
:101ED000009F85481AF0F2FAB878002866D01B9C5B
:101EE000002C03D52D2019F045FB64427B49204688
:101EF0001AF062F808460021012501910495059128
:101F00006A1E06920A2203920746019E33461AF081
:101F10008FFF04460D46039A33461AF04FFD381AD8
:101F2000302318433CA9069A5054039705990A3F59
:101F30000846B0413ED30A220E46002720462946D5
:101F40001C463B461AF074FF234622433CA8049CDF
:101F50000255069911292546039A2DD81046643852
:101F60003046B84128D3174664220024384631460B
:101F7000029323461AF05CFF0A2223461AF058FF08
:101F8000029802433CA8401942707D20C2003846A6
:101F9000314623461AF04CFFED1C069A102A03D84E
:101FA0004F4AD21BB441A9D36D1E06E04D481AF02A
:101FB00085FA39E0049D00E06D1C2F46681E032160
:101FC000069019F0F9FF481C032812D00446032894
:101FD00012D03CA8861EF019407819F0CBFA012CDB
:101FE0000CD0BD1EF05D19F0C5FAA41E2F46F2D12B
:101FF00005E000240328ECD13D4600E07D1E069854
:10200000022810D36C423CA82818C51EA87819F0E5
:10201000B1FA687819F0AEFA287819F0ABFAE41C36
:10202000ED1E002CF2D1009F062000211AF018FDB1
:10203000F87A032804D0022805D12C4800F0AEFF1E
:102040002B4800F0ABFFB87A032802D0294800F0F3
:10205000A5FF294800F0A2FF22481AF02FFAD3E08A
:10206000787A002800D124E30020009001461AF07D
:10207000F7FC22481AF022FAF87B401EC0B2022870
:1020800000D92BE380001E49085828E3059E00E094
:10209000761C701E0321069019F08EFF481C032841
:1020A00014D00446032814D03CA83746861EF019E5
:1020B000407819F05FFA012C00D18FE0BD1EF05D71
:1020C00019F058FAA41E2F46F1D188E00024032805
:1020D000EAD1354683E0C0461AE0010040420F00D5
:1020E000E703000017E00100A8DE0100F8D60100B8
:1020F0001AD701002DD801002BD7010053DE0100B3
:1021000098D80100F9481AF0D9F9F9481AF0D6F927
:10211000089C002C03D52D2019F02CFA6442F549B7
:10212000204619F049FF08460125039902950491BC
:102130006A1E05920A2206920646039C23461AF05E
:1021400077FE07460D46069A23461AF037FC301AEA
:10215000302420433CA9059A5054019604980A3E25
:10216000039A9041069400D20CE10A2200263846D8
:10217000294633461AF05CFE22433CA8029BC25417
:10218000059911291D46019C00D9FDE020466438BF
:102190000498B04100D2F7E0642200272046049E54
:1021A00031463B461AF044FE0A223B461AF040FEF6
:1021B000069802433CA8401942707D20C200204688
:1021C00031463B461AF034FEED1C059A102A03D81E
:1021D000C94A121BB741A9D36D1ED6E07D1E0698D1
:1021E000022810D36C423CA82818C51EA87819F004
:1021F000C1F9687819F0BEF9287819F0BBF9E41C28
:10220000ED1E002CF2D1009FBC481AF057F9B878A7
:10221000002866D01B9C002C03D52D2019F0AAF9AC
:102220006442B449204619F0C7FE08460021012542
:102230000191049505916A1E06920A2203920746AF
:10224000019E33461AF0F4FD04460D46039A3346C8
:102250001AF0B4FB381A302318433CA9069A50549C
:10226000039705990A3F0846B0413ED30A220E461D
:102270000027204629461C463B461AF0D9FD234636
:1022800022433CA8049C0255069911292546039A2D
:102290002DD8104664383046B84128D317466422FA
:1022A000002438463146029323461AF0C1FD0A2223
:1022B00023461AF0BDFD029802433CA84019427023
:1022C0007D20C2003846314623461AF0B1FDED1C90
:1022D000069A102A03D8884AD21BB441A9D36D1E8E
:1022E00006E087481AF0EAF839E0049D00E06D1C2A
:1022F0002F46681E0321069019F05EFE481C032835
:1023000012D00446032812D03CA8861EF01940784B
:1023100019F030F9012C0CD0BD1EF05D19F02AF92E
:10232000A41E2F46F2D105E000240328ECD13D463F
:1023300000E07D1E0698022810D36C423CA82818A5
:10234000C51EA87819F016F9687819F013F92878DD
:1023500019F010F9E41CED1E002CF2D1009F0620AC
:1023600000211AF07DFBF879002802D0654800F0C2
:1023700015FE7879002802D0634800F00FFE63480C
:1023800000F00CFE029D00E06D1C2E46681E03212D
:10239000059019F011FE481C032803D005460328B8
:1023A00003D114E00025032811D03CA8841E374631
:1023B000E019407819F0DEF8012D07D0BE1EE05D6F
:1023C00019F0D8F8AD1E3746F2D100E07E1E059810
:1023D000022810D374423CA83018C51EA87819F002
:1023E000C9F8687819F0C6F8287819F0C3F8E41C21
:1023F000ED1E002CF2D10420002103911AF030FBD5
:1024000043481AF05BF8099C002C03D52D2019F0E5
:10241000B1F864423749204619F0CEFD084601253F
:102420000399029504916A1E05920A2201920646BA
:10243000039C23461AF0FCFC07460D46019A2346EE
:102440001AF0BCFA301A069C20433CA9059A505455
:10245000019604980A3E039A904136D30A22002638
:102460003846294633461AF0E3FC22433CA8029B37
:10247000C254059911291D46019C28D8204664386C
:102480000498B04123D3642200272046049E31469D
:102490003B461AF0CDFC0A223B461AF0C9FC0698CE
:1024A00002433CA8401942707D20C20020463146BC
:1024B0003B461AF0BDFCED1C059A102A03D80E4AC3
:1024C000121BB741ADD36D1E02E0029D00E06D1CF2
:1024D0002E46681E0321059019F06EFD481C032846
:1024E00018D00546032818D129E0C04695DD010023
:1024F00094DF010040420F00E7030000A8DE010066
:1025000017E00100C0D60100F8D8010049D8010049
:1025100011E001000025032811D03CA8841E374695
:10252000E019407819F026F8012D07D0BE1EE05DB5
:1025300019F020F8AD1E3746F2D100E07E1E059856
:10254000022810D374423CA83018C51EA87819F090
:1025500011F8687819F00EF8287819F00BF8E41CD7
:10256000ED1E002CF2D1EE4819F0A8FF0A9C002CB9
:1025700003D52D2018F0FEFF6442EA49204619F0E9
:102580001BFD0846002101250391029504916A1E56
:1025900005920A2201920646039C23461AF048FC43
:1025A00007460D46019A23461AF008FA301A069C8F
:1025B00020433CA9059A5054019604980A3E039A78
:1025C000904136D30A2200263846294633461AF06F
:1025D0002FFC22433CA8029BC254059911291D4699
:1025E000019C28D8204664380498B04123D3642243
:1025F00000272046049E31463B461AF019FC0A2269
:102600003B461AF015FC069802433CA8401942705C
:102610007D20C200204631463B461AF009FCED1CE5
:10262000059A102A03D8C04A121BB741ADD36D1EBC
:1026300002E0029D00E06D1C2E46681E03210690FC
:1026400019F0BAFC481C032803D00546032803D11F
:1026500014E00025032811D03CA8841E3746E01959
:10266000407818F087FF012D07D0BE1EE05D18F0FE
:1026700081FFAD1E3746F2D100E07E1E069802288B
:1026800010D374423CA83018C51EA87818F072FF09
:10269000687818F06FFF287818F06CFFE41CED1EC6
:1026A000002CF2D1062000211AF0DAF99F4800F040
:1026B00075FC387A002800D1D9E3002001461AF0D1
:1026C000CFF99B4819F0FAFE787B401EC0B204286F
:1026D00000D9DFE3800097490858DCE3964819F0F9
:1026E000EDFE964819F0EAFE239D0124009904911D
:1026F000601E05900A2206922846009E33461AF074
:1027000097FB07460291069A33461AF057F9281AA2
:102710002246302420433CA9059B585403950A3D8A
:1027200004980546B041069436D301920A22002649
:102730003846029933461AF07BFB22433CA8019CA1
:10274000025505991129039828D80246643A2A4669
:10275000B24123D364220027294606463B461AF09D
:1027600067FB0A223B461AF063FB069802433CA82B
:10277000001942707D20C200304629463B461AF0BF
:1027800057FBE41C059A102A04D8674A921BAF41F4
:102790000546ACD3641E02E0144600E0641C2646E5
:1027A000601E0321059019F007FC481C032801D086
:1027B000054600E00025032811D03CA8841E3746BA
:1027C000E019407818F0D6FE012D07D0BE1EE05D5E
:1027D00018F0D0FEAD1E3746F2D100E07E1E0598FF
:1027E000022810D374423CA83018C51EA87818F0EF
:1027F000C1FE687818F0BEFE287818F0BBFEE41C15
:10280000ED1E002CF2D10220002103911AF028F9CC
:102810004B4819F053FE199C002C03D52D2018F0BD
:10282000A9FE64423F49204619F0C6FB084601252F
:102830000399029504916A1E05920A2201920646A6
:10284000039C23461AF0F4FA07460D46019A2346E4
:102850001AF0B4F8301A069C20433CA9059A50544B
:10286000019604980A3E039A904136D30A22002624
:102870003846294633461AF0DBFA22433CA8029B2D
:10288000C254059911291D46019C28D82046643858
:102890000498B04123D3642200272046049E314689
:1028A0003B461AF0C5FA0A223B461AF0C1FA0698CE
:1028B00002433CA8401942707D20C20020463146A8
:1028C0003B461AF0B5FAED1C059A102A03D8164AB1
:1028D000121BB741ADD36D1E02E0029D00E06D1CDE
:1028E0002E46681E0321059019F066FB481C03283C
:1028F00001D0054600E00025032824D03CA8841E12
:102900003746E019407818F035FE012D1AD0BE1E6A
:10291000E05D18F02FFEAD1E3746F2D113E0C04641
:102920008CDC010040420F00E7030000E2D9010007
:1029300087DB010084D601003BDD010018DF0100C8
:1029400032E001007E1E0598022810D374423CA894
:102950003018C51EA87818F00DFE687818F00AFE29
:10296000287818F007FEE41CED1E002CF2D1E34895
:1029700019F0A4FD289C002C03D52D2018F0FAFD99
:102980006442DF49204619F017FB08460021012563
:102990000391029504916A1E05920A22019206464D
:1029A000039C23461AF044FA07460D46019A234633
:1029B0001AF004F8301A069C20433CA9059A50549A
:1029C000019604980A3E039A904136D30A220026C3
:1029D0003846294633461AF02BFA22433CA8029B7C
:1029E000C254059911291D46019C28D820466438F7
:1029F0000498B04123D3642200272046049E314628
:102A00003B461AF015FA0A223B461AF011FA0698CC
:102A100002433CA8401942707D20C2002046314646
:102A20003B461AF005FAED1C059A102A03D8B54A60
:102A3000121BB741ADD36D1E02E0029D00E06D1C7C
:102A40002E46681E0321059019F0B6FA481C03288B
:102A500001D0054600E00025032811D03CA8841EC3
:102A60003746E019407818F085FD012D07D0BE1ECD
:102A7000E05D18F07FFDAD1E3746F2D100E07E1E0E
:102A80000598022810D374423CA83018C51EA878B7
:102A900018F070FD687818F06DFD287818F06AFD60
:102AA000E41CED1E002CF2D104200021039119F04A
:102AB000D7FF954819F002FD099C002C03D52D2065
:102AC00018F058FD64428E49204619F075FA084600
:102AD00001250399029504916A1E05920A2201922A
:102AE0000646039C23461AF0A3F907460D46019AB1
:102AF000234619F063FF301A069C20433CA9059A2F
:102B00005054019604980A3E039A904136D30A2203
:102B100000263846294633461AF08AF922433CA853
:102B2000029BC254059911291D46019C28D82046B4
:102B300064380498B04123D3642200272046049EC1
:102B400031463B461AF074F90A223B461AF070F9F6
:102B5000069802433CA8401942707D20C2002046DE
:102B600031463B461AF064F9ED1C059A102A03D849
:102B7000644A121BB741ADD36D1E02E0029D00E016
:102B80006D1C2E46681E0321059019F015FA481C8D
:102B9000032801D0054600E00025032811D03CA8F9
:102BA000841E3746E019407818F0E4FC012D07D068
:102BB000BE1EE05D18F0DEFCAD1E3746F2D100E02F
:102BC0007E1E0598022810D374423CA83018C51EFA
:102BD000A87818F0CFFC687818F0CCFC287818F0AA
:102BE000C9FCE41CED1E002CF2D1484819F066FC2B
:102BF000299C002C03D52D2018F0BCFC64424049D0
:102C0000204619F0D9F908460021012503910295C3
:102C100004916A1E05920A2201920646039C2346ED
:102C20001AF006F907460D46019A234619F0C6FE2A
:102C3000301A069C20433CA9059A505401960498EA
:102C40000A3E039A904136D30A2200263846294686
:102C500033461AF0EDF822433CA8029BC254059972
:102C600011291D46019C28D8204664380498B0419B
:102C700023D3642200272046049E31463B461AF0A7
:102C8000D7F80A223B461AF0D3F8069802433CA82C
:102C9000401942707D20C200204631463B461AF062
:102CA000C7F8ED1C059A102A03D8F04A121BB74149
:102CB000ADD36D1E02E0029D00E06D1C2E46681E25
:102CC0000321059019F078F9481C032801D0054626
:102CD00000E0002503281CD03CA8841E3746E019DC
:102CE000407818F047FC012D12D0BE1EE05D18F0B0
:102CF00041FCAD1E3746F2D10BE0C0469CDF01001F
:102D000040420F00E703000011E001000CDF01006A
:102D10007E1E0598022810D374423CA83018C51EA8
:102D2000A87818F027FC687818F024FC287818F0A8
:102D300021FCE41CED1E002CF2D1062000242146CB
:102D400019F08EFED44819F0B9FB07A8808E012532
:102D500003942146029504916A1E05920A2201926B
:102D60000646039C23461AF063F807460D46019A6F
:102D7000234619F023FE301A069C20433CA9059AED
:102D80005054019604980A3E039A904136D30A2281
:102D900000263846294633461AF04AF822433CA812
:102DA000029BC254059911291D46019C28D8204632
:102DB00064380498B04123D3642200272046049E3F
:102DC00031463B461AF034F80A223B461AF030F8F6
:102DD000069802433CA8401942707D20C20020465C
:102DE00031463B461AF024F8ED1C059A102A03D808
:102DF0009E4A121BB741ADD36D1E02E0029D00E05A
:102E00006D1C2E46681E0321069019F0D5F8481C4B
:102E1000032801D0054600E00025032811D03CA876
:102E2000841E3746E019407818F0A4FB012D07D026
:102E3000BE1EE05D18F09EFBAD1E3746F2D100E0ED
:102E40007E1E0698022800D2A7E074423CA83018E3
:102E5000C51EA87818F08EFB687818F08BFB2878D0
:102E600018F088FBE41CED1E002CF2D195E02C78C4
:102E70000020014619F0F4FD002C4ED08A4819F0CC
:102E80001DFB2879401EC0B2032852D88000874914
:102E900008584FE0724819F011FB202018F06AFB27
:102EA000304619F00BFB02200024214619F0D8FD12
:102EB0006F4819F003FB1998C11712F017FF7548F6
:102EC00019F0FCFA2498C11712F010FF04202146D3
:102ED00019F0C6FD674819F0F1FA1C98C11712F0F5
:102EE00005FF654819F0EAFA1D98C11712F0FEFEB9
:102EF0000620214619F0B4FD634819F0DFFA09985D
:102F0000C11712F0F3FE664819F0D8FA07A8808EB0
:102F1000214613F00DFC634840E0584819F0CEFA02
:102F2000387B401EC0B202283CD880004E49085869
:102F300039E04B4819F0C2FA02200024214619F06A
:102F40008FFD534819F0BAFA0898C11712F0CEFE57
:102F5000504819F0B3FA0798C11712F0C7FE0420C1
:102F6000214619F07DFD484819F0A8FA0998C117C3
:102F700012F0BCFE454819F0A1FA0A98C11712F0E8
:102F8000B5FE0620214619F06BFD434819F096FA6C
:102F900007A8808E214613F0CBFB404819F08EFA2B
:102FA00041B0F0BD2F4819F089FA364819F086FA79
:102FB0003878199912F0EAFD202018F0DBFA304633
:102FC00019F07CFA02200025294619F049FD3848FD
:102FD00019F074FA2F98C11712F088FE354819F0CD
:102FE0006DFA3799369812F081FE0420294619F0BF
:102FF00037FD204819F062FA78781A9912F0C6FD68
:103000001D4819F05BFAB8781B9912F0BFFD062035
:10301000294619F025FD787B04280DD005280DD10F
:10302000264819F04BFAB87B401EC0B2062811D8CA
:103030008000234908580EE01F48AFE7F97B22487B
:103040000329ABD1397C0629A8D0204819F036FADB
:10305000387CE9E70A4819F031FA1A489EE7C04679
:103060003BDD010017E00100A4D80100E7030000E8
:103070003ADE01001AE00100A8DE01000EE00100C6
:1030800095DD010094DF010011E001008CDC0100FE
:1030900032E001009CDF0100FFDF0100D0DA010017
:1030A0007CDF010098DA01001CDA010050D7010032
:1030B000C2DD010038DF01003CD70100BDDB0100AB
:1030C00078D50100F6D9010009D70100B7DB01006E
:1030D000F0B5CDB00B9105460EA8442101704221F8
:1030E0004170472181702C22C270522101715821F8
:1030F00041710A92827174210491C1713D2106913E
:103100000172002D40D0002401210A220C92264693
:103110000D91144628460C9F394618F04DFF234662
:1031200039460D9F4143691A30220A43741C4AA94B
:103130008A55082E04D8791C5A1C092D0546E6D854
:103140000C930321304618F037FF4B1C032B20D083
:103150001846022E20D30D934AAAD31E251A002208
:103160001E19B7780EA989184F7276788E721E5D77
:10317000CE72D21CDB1E9542F2D1A71A09320C99ED
:103180000D9B032B0CD11BE00EA8302141720A21AC
:1031900016E00020022EDED209220C99032B0FD05C
:1031A0000EA989184AAABA18921E53780B700128E2
:1031B00005D013784B70891C921E801EF5D10C9996
:1031C0000C46CBB20EA8C1180A9AC25465204870AA
:1031D000762201928A700390C8706E200090087168
:1031E000049848710698887170210B980291405C90
:1031F0000E2803D88000EC49085800E0EB48E11D98
:103200000578002D24D00D900846C9B20EAAD21818
:103210000C92E924E31A0024A3421BD00D9A16193C
:103220000C9A1719FD717578002D19D04A1CF02AD7
:1032300010D03D72B578002D14D08A1CF02A09D028
:10324000C91CC01C7D72F578E41C002DE4D10AE095
:10325000084608E00B980568F027002D21D1BDE055
:10326000401C00E0801C0746C1B2F029084600D887
:10327000F0200A090E2A10D84B1C0EAA0A9C54549E
:10328000834201D11F4608E08A1C0EAC6225E5543A
:10329000824201D000F07CFE17460B980568002D95
:1032A00034D00D970124671E0A262846314618F0AF
:1032B00083FE4643A91B302631434AAAB954082F3E
:1032C0002FD80A2D2DD30A2118F076FE31434AA8B3
:1032D0000155072F24D8642D22D36421284618F0E5
:1032E0006BFE0A2118F068FE31434AA800194170AC
:1032F0007D20C100284618F05FFEE41C062F03D88D
:10330000AB498D420546CED8641E0AE0F8B20109E9
:103310000E2963D87F1C0D970EA930220A5443E072
:10332000641C0D98C3B2F02B184600D8F0200EA9EB
:10333000C918C21A951E07950593181A401C0990C2
:103340004AA8C71EA01E0890601E0C900026B2421C
:103350001BD03D19A87888550C98B04218D0099810
:10336000801917D068788D1968700898B04215D008
:103370000798B04214D0385D0D9BDB1C0D93A870EC
:10338000F61CFF1EB442E2D10EE0059880190AE057
:103390000D9801E005988019401C04E00D9801E0AB
:1033A00005988019801C0D900D9FF9B2F0290846F0
:1033B00000D8F0200A090E2A10D84A1C0EAB0A9C2D
:1033C0005C54824201D1174608E08B1C0EAC029D72
:1033D000A554834201D000F0AFFD1F460B9805694C
:1033E000002D36D00D97F8B205900124671E0A26ED
:1033F0002846314618F0E0FD4643A91B30263143EC
:103400004AAAB954082F2FD80A2D2DD30A2118F013
:10341000D3FD31434AA80155072F24D8642D22D368
:103420006421284618F0C8FD0A2118F0C5FD314373
:103430004AA8001941707D20C100284618F0BCFD43
:10344000E41C062F03D85A498D420546CED8641E87
:103450000AE0F8B201090F2960D27F1C0D970EA96E
:1034600030220A5441E0641C059AF02A00D8F02268
:103470000EA8059BC018D11A8D1E07959A1A521CCA
:1034800009924AAAD61EA21E0892621E0C9200251C
:10349000A9421BD033199F7847550C9AAA4218D0DD
:1034A000099A571917D05F7843195F70089AAA4292
:1034B00015D0079AAA4214D0375D0D9AD21C0D92EE
:1034C0009F70ED1CF61EAC42E2D10EE0059840194B
:1034D0000AE00D9801E005984019401C04E00D98A1
:1034E00001E005984019801C0D900D9FF8B2F0285E
:1034F000014600D8F02102090E2A0FD8431C0EAA5B
:103500000A9C14548B4201D11F4607E0821C0EAC6A
:103510006125E5548A4200D08AE017460B98456938
:10352000002D36D00D97F8B205900124671E0A26AB
:103530002846314618F040FD4643A91B302631434A
:103540004AAAB954082F36D80A2D34D30A2118F0C4
:1035500033FD31434AA80155072F2BD8642D29D3B9
:103560006421284618F028FD0A2118F025FD314372
:103570004AA8001941707D20C100284618F01CFDA2
:10358000E41C062F03D80A498D420546CED8641E96
:1035900011E0F8B201090F2900D39AE07F1C0D97C2
:1035A0000EA930220A547BE0E0D2010070DA01005B
:1035B000E7030000641C059AF02A00D8F0220EA848
:1035C000059BC018D11A8D1E07959A1A521C099294
:1035D0004AAAD61EA21E0892621E0C920025A9427B
:1035E0001BD033199F7847550C9AAA4218D0099AD4
:1035F000571917D05F7843195F70089AAA4215D0FF
:10360000079AAA4248D0375D0D9AD21C0D929F703E
:10361000ED1CF61EAC42E2D142E0059840193EE0B6
:103620000D9801E005984019401C38E00D9835E0F0
:10363000C31C0EAD6324AC548B4200D164E7021D61
:103640000EADEC548A4200D167E7431D0EAC039DDA
:10365000A5548B4200D157E7821D0EAC029DE55464
:103660008A4200D159E7C31D0EAC049DA5548B427C
:1036700000D149E7024608320EAC039DE5548A4268
:1036800000D14AE709300EAB64249C54884201D033
:1036900001F041F8074641E705984019801C0D905C
:1036A0000D9FF8B2F028014600D8F02102090E2A39
:1036B0000FD8421C0EAB0A9C1C548A4201D11746FB
:1036C00007E0831C0EAC6C25A5548B4200D083E030
:1036D0001F460B98056A002D36D00D97F8B205905D
:1036E0000124671E0A262846314618F065FC464329
:1036F000A91B302631434AAAB954082F2FD80A2DC6
:103700002DD30A2118F058FC31434AA80155072F40
:1037100024D8642D22D36421284618F04DFC0A21B8
:1037200018F04AFC31434AA8001941707D20C100BD
:10373000284618F041FCE41C062F03D8EA498D42C4
:103740000546CED8641E0AE0F8B201090F2971D2ED
:103750007F1C0D970EA930220A5452E0641C059A72
:10376000F02A00D8F0220EA8059BC018D11A8D1E91
:1037700007959A1A521C09924AAAD61EA21E0892AE
:10378000621E0C920025A9421BD033199F78475521
:103790000C9AAA4218D0099A571917D05F78431982
:1037A0005F70089AAA4215D0079AAA4225D0375DC1
:1037B0000D9AD21C0D929F70ED1CF61EAC42E2D108
:1037C0001FE0059840191BE00D9801E0059840198D
:1037D000401C15E00D9812E0C21C0EAC039DE55490
:1037E0008A4200D16BE7001D0EAB009C9C548842BE
:1037F00001D000F039FF07466BE705984019801C9F
:103800000D900D9FF8B2F028014600D8F021020972
:103810000E2A0FD8441C0EAA0A9B13548C4201D1C5
:10382000274607E0831C0EAD63222A558B4200D049
:1038300083E01F460B98456A002D36D00D97F8B2ED
:1038400005900124671E0A262846314618F0B4FB6D
:103850004643A91B302631434AAAB954082F2FD812
:103860000A2D2DD30A2118F0A7FB31434AA8015590
:10387000072F24D8642D22D36421284618F09CFBFE
:103880000A2118F099FB31434AA8001941707D20A4
:10389000C100284618F090FBE41C062F03D892497B
:1038A0008D420546CED8641E0AE0F8B201090F2900
:1038B00070D27F1C0D970EA930220A5451E0641C6F
:1038C000059AF02A00D8F0220EA8059BC018D11A3C
:1038D0008D1E07959A1A521C09924AAAD61EA21E3C
:1038E0000892621E0C920025A9421BD033199F78C2
:1038F00047550C9AAA4218D0099A571917D05F78E1
:1039000043195F70089AAA4215D0079AAA4224D098
:10391000375D0D9AD21C0D929F70ED1CF61EAC42C5
:10392000E2D11EE0059840191AE00D9801E00598D3
:103930004019401C14E00D9811E0C41C0EAD722615
:10394000EE548C4200D16BE7001D0EAB1A55884235
:1039500001D000F08FFE07466CE705984019801CE7
:103960000D900D9FF9B2F029084600D8F0200A0901
:103970000E2A0FD84B1C0EAA0A9C5454834201D124
:103980001F4607E08A1C0EAC6625E554824200D033
:1039900083E017460B98856B002D36D00D97F8B253
:1039A00005900124671E0A262846314618F004FBBC
:1039B0004643A91B302631434AAAB954082F2FD8B1
:1039C0000A2D2DD30A2118F0F7FA31434AA80155E0
:1039D000072F24D8642D22D36421284618F0ECFA4E
:1039E0000A2118F0E9FA31434AA8001941707D20F4
:1039F000C100284618F0E0FAE41C062F03D83A4923
:103A00008D420546CED8641E0AE0F8B201090F299E
:103A100074D27F1C0D970EA930220A5452E0641C08
:103A2000059AF02A00D8F0220EA8059BC018D11ADA
:103A30008D1E07959A1A521C09924AAAD61EA21EDA
:103A40000892621E0C920025A9421BD033199F7860
:103A500047550C9AAA4218D0099A571917D05F787F
:103A600043195F70089AAA4215D0079AAA4225D036
:103A7000375D0D9AD21C0D929F70ED1CF61EAC4264
:103A8000E2D11FE0059840191BE00D9801E0059870
:103A90004019401C15E00D9812E0CB1C0EAC6925B6
:103AA000A554834200D16BE70C1D0EAA039DD5548B
:103AB000844201D000F0E4FD27466BE705984019E9
:103AC000801C0D900D9FF8B2F028014600D8F0211F
:103AD00002090E2A12D8431C0EAA0A9C14548B42C7
:103AE00004D11F460AE0C046E7030000821C0EAC6A
:103AF0006425E5548A4200D083E017460B98456C54
:103B0000002D36D00D97F8B205900124671E0A26C5
:103B10002846314618F050FA4643A91B3026314357
:103B20004AAAB954082F2FD80A2D2DD30A2118F0EC
:103B300043FA31434AA80155072F24D8642D22D3D4
:103B40006421284618F038FA0A2118F035FA314372
:103B50004AA8001941707D20C100284618F02CFAAF
:103B6000E41C062F03D8F3498D420546CED8641EC7
:103B70000AE0F8B201090F2971D27F1C0D970EA936
:103B800030220A5452E0641C059AF02A00D8F02230
:103B90000EA8059BC018D11A8D1E07959A1A521CA3
:103BA00009924AAAD61EA21E0892621E0C920025F5
:103BB000A9421BD033199F7847550C9AAA4218D0B6
:103BC000099A571917D05F7843195F70089AAA426B
:103BD00015D0079AAA4225D0375D0D9AD21C0D92B6
:103BE0009F70ED1CF61EAC42E2D11FE00598401913
:103BF0001BE00D9801E005984019401C15E00D9858
:103C000012E0C31C0EAC7525A5548B4200D168E7A9
:103C1000001D0EAA029CD454884201D000F041FD40
:103C200007466BE705984019801C0D900D9FF9B26F
:103C3000F029084600D8F0200A090E2A0FD84B1C9C
:103C40000EAA0A9C5454834201D11F4607E08A1CE5
:103C50000EAC6F25E554824200D083E017460B98E6
:103C6000856C002D36D00D97F8B205900124671EA3
:103C70000A262846314618F09FF94643A91B3026EC
:103C800031434AAAB954082F2FD80A2D2DD30A211F
:103C900018F092F931434AA80155072F24D8642D12
:103CA00022D36421284618F087F90A2118F084F9F4
:103CB00031434AA8001941707D20C100284618F000
:103CC0007BF9E41C062F03D8B0498D420546CED8B7
:103CD000641E0AE0F8B201090F2971D27F1C0D970A
:103CE0000EA930220A5452E0641C059AF02A00D82A
:103CF000F0220EA8059BC018D11A8D1E07959A1A9E
:103D0000521C09924AAAD61EA21E0892621E0C924A
:103D10000025A9421BD033199F7847550C9AAA4217
:103D200018D0099A571917D05F7843195F70089A0D
:103D3000AA4215D0079AAA4225D0375D0D9AD21C07
:103D40000D929F70ED1CF61EAC42E2D11FE005986B
:103D500040191BE00D9801E005984019401C15E042
:103D60000D9812E0CB1C0EAC6C25A554834200D1FB
:103D70006BE7091D0EAA6424D454814201D000F0DF
:103D800096FC0F466BE705984019801C0D900D9F1F
:103D9000F9B2F029084600D8F0200A090E2A0FD8F7
:103DA0004A1C0EAB0A9C5C54824201D1174607E0C4
:103DB0008B1C0EAC6F25A554834200D084E01F46B7
:103DC0000B984568002D36D00D97F8B20590012468
:103DD000671E0A262846314618F0EEF84643A91B0E
:103DE000302631434AAAB954082F30D80A2D2ED391
:103DF0000A2118F0E1F831434AA80155072F25D8C8
:103E0000642D23D36421284618F0D6F80A2118F02F
:103E1000D3F831434AA8001941707D20C1002846DB
:103E200018F0CAF8E41C062F03D858498D420546FD
:103E3000CED8641E0BE0F8B201090F2900D3BDE013
:103E40007F1C0D970EA930220A5451E0641C059A7C
:103E5000F02A00D8F0220EA8059BC018D11A8D1E9A
:103E600007959A1A521C09924AAAD61EA21E0892B7
:103E7000621E0C920025A9421BD033199F7847552A
:103E80000C9AAA4218D0099A571917D05F7843198B
:103E90005F70089AAA4215D0079AAA4224D0375DCB
:103EA0000D9AD21C0D929F70ED1CF61EAC42E2D111
:103EB0001EE0059840191AE00D9801E00598401998
:103EC000401C14E00D9811E0CA1C0EAC019DE55495
:103ED000824200D16AE7091D0EAB66249C548142E0
:103EE00000D0EAE30F466BE705984019801C0D905F
:103EF0000D9FF9B2F029084600D8F0200A090E2AD1
:103F00005CD84B1C0EAA0A9C5454834201D11F4614
:103F100054E08A1C0EAC6825E554824201D1174654
:103F20004CE0C91C0EAB77249C54814242D10F4611
:103F300044E0C046E7030000CA1C0EAC6125E5540E
:103F4000824201D1FFF73FFA0B1D0EAC7225A5543A
:103F5000834201D1FFF741FA4A1D0EAC7325E554A7
:103F6000824201D1FFF72FFA8B1D0EAC039DA554A1
:103F7000834201D1FFF731FAC91D0EAA6424D4543B
:103F8000814200D0C1E30F46FFF728FAE7030000A3
:103F9000CB1C0EAC7925A554834201D1FFF772F9F1
:103FA0000C1D0EAA049DD554844200D090E32746F0
:103FB000FFF773F93F1D0EA8069A42540B98856DC2
:103FC000002D36D00D97F8B205900124671E0A2601
:103FD0002846314617F0F0FF4643A91B30263143EF
:103FE0004AAAB954082F2FD80A2D2DD30A2117F029
:103FF000E3FF31434AA80155072F24D8642D22D36B
:104000006421284617F0D8FF0A2117F0D5FF314365
:104010004AA8001941707D20C100284617F0CCFF46
:10402000E41C062F03D8FE498D420546CED8641EF7
:104030000AE0F8B201090F2950D27F1C0D970EA992
:1040400030220A5441E0641C059AF02A00D8F0227C
:104050000EA8059BC018D11A8D1E07959A1A521CDE
:1040600009924AAAD61EA21E0892621E0C92002530
:10407000A9421BD033199F7847550C9AAA4218D0F1
:10408000099A571917D05F7843195F70089AAA42A6
:1040900015D0079AAA4214D0375D0D9AD21C0D9202
:1040A0009F70ED1CF61EAC42E2D10EE0059840195F
:1040B0000AE00D9801E005984019401C04E00D98B5
:1040C00001E005984019801C0D900D9FF8B2010980
:1040D0000E2903D87F1C0EA92F220A540B98C56DF8
:1040E000002D36D00D97F8B205900124671E0A26E0
:1040F0002846314617F060FF4643A91B302631435E
:104100004AAAB954082F2FD80A2D2DD30A2117F007
:1041100053FF31434AA80155072F24D8642D22D3D9
:104120006421284617F048FF0A2117F045FF314364
:104130004AA8001941707D20C100284617F03CFFB5
:10414000E41C062F03D8B6498D420546CED8641E1E
:104150000AE0F8B201090F2950D27F1C0D970EA971
:1041600030220A5441E0641C059AF02A00D8F0225B
:104170000EA8059BC018D11A8D1E07959A1A521CBD
:1041800009924AAAD61EA21E0892621E0C9200250F
:10419000A9421BD033199F7847550C9AAA4218D0D0
:1041A000099A571917D05F7843195F70089AAA4285
:1041B00015D0079AAA4214D0375D0D9AD21C0D92E1
:1041C0009F70ED1CF61EAC42E2D10EE0059840193E
:1041D0000AE00D9801E005984019401C04E00D9894
:1041E00001E005984019801C0D900D9FF8B201095F
:1041F0000E2903D87F1C0EA92F220A540B98056E96
:10420000002D36D00D97F8B205900124671E0A26BE
:104210002846314617F0D0FE4643A91B30263143CD
:104220004AAAB954082F2FD80A2D2DD30A2117F0E6
:10423000C3FE31434AA80155072F24D8642D22D349
:104240006421284617F0B8FE0A2117F0B5FE314365
:104250004AA8001941707D20C100284617F0ACFE25
:10426000E41C062F03D86E498D420546CED8641E45
:104270000AE0F8B201090F2950D27F1C0D970EA950
:1042800030220A5441E0641C059AF02A00D8F0223A
:104290000EA8059BC018D11A8D1E07959A1A521C9C
:1042A00009924AAAD61EA21E0892621E0C920025EE
:1042B000A9421BD033199F7847550C9AAA4218D0AF
:1042C000099A571917D05F7843195F70089AAA4264
:1042D00015D0079AAA4214D0375D0D9AD21C0D92C0
:1042E0009F70ED1CF61EAC42E2D10EE0059840191D
:1042F0000AE00D9801E005984019401C04E00D9873
:1043000001E005984019801C0D900D9FF8B201093D
:104310000E2903D87F1C0EA92F220A540B98456E34
:10432000002D36D00D97F8B205900124671E0A269D
:104330002846314617F040FE4643A91B302631433C
:104340004AAAB954082F2FD80A2D2DD30A2117F0C5
:1043500033FE31434AA80155072F24D8642D22D3B8
:104360006421284617F028FE0A2117F025FE314364
:104370004AA8001941707D20C100284617F01CFE94
:10438000E41C062F03D8E7498D420546CED8641EAB
:104390000AE0F8B201090F2963D27F1C0D970EA91C
:1043A00030220A5444E0641C059AF02A00D8F02216
:1043B0000EA8059BC018D11A8D1E07959A1A521C7B
:1043C00009924AAAD61EA21E0892621E0C920025CD
:1043D000A9421BD033199F7847550C9AAA4218D08E
:1043E000099A571917D05F7843195F70089AAA4243
:1043F00018D0079AAA4217D0375D0D9AD21C0D9299
:104400009F70ED1CF61EAC42E2D111E005984019F8
:104410000DE00D9801E005984019401C07E0C046EA
:10442000E70300000D9801E005984019801C0D90ED
:104430000D9FF9B2F029084600D8F0200A090E2A8B
:104440000FD84A1C0EAB0A9C5C54824201D117461D
:1044500007E08B1C0EAC7325A554834200D083E08B
:104460001F460B98C46B002C34D00D970126771E85
:104470000A252046294617F09FFD4543611B30253C
:1044800029434AAAB954082F2FD80A2C2DD30A2120
:1044900017F092FD29434AA88155072F24D8642C90
:1044A00022D36421204617F087FD0A2117F084FDEE
:1044B00029434AA8801941707D20C100204617F089
:1044C0007BFDF61C062F03D896498C420446CED8B5
:1044D000761E0AE0F8B201090F296AD27F1C0D97F7
:1044E0000EA930220A5453E0761C0D98C3B2F02B6B
:1044F000184600D8F0200EA9C918C21A941E0994B3
:104500000893181A401C0B904AA8C71EB01E0A90A8
:10451000701E0C900025AA421BD0BC19A0784855EB
:104520000C98A84218D00B98401917D060784C19F5
:1045300060700A98A84215D00998A84224D0B85DA6
:104540000D9BDB1C0D93A070ED1CFF1EAE42E2D153
:104550001EE0089840191AE00D9801E008984019EB
:10456000401C14E00D9811E0CA1C0EAC039DE554EC
:10457000824200D16BE7091D0EAB6D249C54814231
:1045800000D0A0E00F466CE708984019801C0D9001
:104590000D9FF9B208090E280BD8481C0EAA0D234E
:1045A0005354F02801D1F02703E0BF1C0EA90A22C2
:1045B0000A545D4DFFB25D4800885D4E3188C943A5
:1045C00040182840B84205D25B488169491C816186
:1045D0004DB0F0BD7C1E0321204617F0EDFC4A1CB7
:1045E0000021032A084600D010460C92022C20D34A
:1045F000391A0D9100214F4C0EAA5718525C2B46C8
:10460000358862553288521C1A4032807A78358853
:1046100062553288521C1A403280BA783588625509
:104620001D463288521C1A403280C91C0D9A8A429B
:10463000E2D10C9A032A15D00EAA51183D4A0B78E4
:104640003488135533885B1C2B403380012809D0F4
:104650004B783488135533885B1C2B403380891C7E
:10466000801EECD14DB0F0BD7F1D0EA9069A0A54F4
:10467000FFF72FF87F1D0EA9069A0A54FFF7DAF804
:104680004A1D0EAB6C251D55824201D1FFF781F901
:10469000891D0EAB64249C5481422AD10F46FFF73A
:1046A00079F97F1D0EA9069A0A54FFF727FA7F1D94
:1046B0000EA8069A4254FFF7D2FA7F1D0EA8069A5A
:1046C0004254FFF77DFB7F1D0EA8069A4254C8E6B0
:1046D0004A1D0EAB039D1D55824201D1FEF7DCFD44
:1046E000891D0EAB73249C54814208D10F46FEF7FE
:1046F000D4FDFF1D0EA8069A4254FFF74BF9FF1D8B
:104700000EA8069A4254FEF7C8FD08370EA8069A6E
:104710004254FEF763FE0A370EA9069A0A54FEF7C2
:10472000FDFEC046E7030000FF0700005C1A2020E2
:104730005A1A2020000020202C182020F0B5DBB0D1
:104740000220C0430F904DA818F0F8F911A843219A
:10475000017046214170472282702C210E91C17058
:104760004B2505715021099141713D210D918171B8
:104770004D9C002C069204D4002C65D00B9507218B
:1047800005E00B9511A82D21C171644208210F98F5
:10479000851C00270C9110911098401C10900A263F
:1047A0002046314617F008FC4643A11B30220A433D
:1047B0007E1C58A9CA556D1C082F03D8092C3746F2
:1047C0000446E9D80321284617F0F6FB0F99484321
:1047D0008119CA1E00D11146701E002A18D00A90F5
:1047E00011AA0C98121858AB9C1E4D1E0023A71935
:1047F0007F78D7549D420DD0B71EA65DD018467065
:104800009B1C99423E46F2D10C99C9183E4605E0E0
:104810000C9904E00C98C018411C761E0A980228D6
:104820000B9D0FD311A8401858A9C91E8A19937857
:10483000037052784270F21E8B5D8370C01C002A98
:104840001646F3D1109E03E011A83021C17108264D
:10485000F0B2371D11A90A180E9B0B545570442154
:104860000B9191700D99D1704E9C002C02D40BD0FD
:104870000C9714E080083A280FD8F8B2711D0C91FB
:1048800011A92D220A5409E080083A2865D8F8B207
:10489000771D11A930220A545FE00C9764420F98EB
:1048A000851C00270C9810901098401C10900A2628
:1048B0002046314617F080FB4643A11B30220A43B5
:1048C0007E1C58A9CA556D1C082F03D8092C3746E1
:1048D0000446E9D80321284617F06EFB0F99484398
:1048E0008319D91E00D10B460C98C4B2701E002942
:1048F00017D00A9011A90C940C1958A98F1E591E93
:104900000025BA1952786255A9420ED0B21EBE5D7A
:1049100060194670AD1CAB421646F2D10C9C64196E
:1049200007E03246022807D216E00C984019441CD2
:10493000721E0A9802280FD311A8001958A9C91E7F
:104940008B189C7804705B784370D31E8A5C8270ED
:10495000C01C002B1A46F3D1109FF8B2BE1D11A93E
:104960000A180E9B0B545621039151704D2108914A
:10497000917041210C91D170582313710D9951718F
:104980004F9C002C059309D411D1400874286CD891
:10499000F0B2FE1D11A930220A5466E040087428C6
:1049A00004D8F0B2FE1D11A92D220A5464420F98BA
:1049B000851C00270A9610961098401C10900A2615
:1049C0002046314617F0F8FA4643A11B30220A432D
:1049D0007E1C58A9CA556D1C082F03D8092C3746D0
:1049E0000446E9D80321284617F0E6FA0F99484310
:1049F0008319D91E00D10B460A98C4B2701E002933
:104A000017D0079011A90A940C1958A98F1E591E86
:104A10000025BA1952786255A9420ED0B21EBE5D69
:104A200060194670AD1CAB421646F2D10A9C64195F
:104A300007E03246022807D216E00A984019441CC3
:104A4000721E079802280FD311A8001958A9C91E71
:104A50008B189C7804705B784370D31E8A5C8270DC
:104A6000C01C002B1A46F3D1109EF0B2B71D11A93D
:104A70000A180E9B0B5442210A91517049239370DE
:104A80000C99D1705321049111710D995171509C61
:104A9000002C029302D40BD0079714E0400874282E
:104AA0000FD8F8B2F11D079111A92D220A5409E07F
:104AB0004008742865D8F8B2F71D11A930220A54AD
:104AC0005FE0079764420F98851C002707981090B5
:104AD0001098401C10900A262046314617F06CFAB8
:104AE0004643A11B30220A437E1C58A9CA556D1C9F
:104AF000082F03D8092C37460446E9D80321284655
:104B000017F05AFA0F9948438319D91E00D10B4662
:104B10000798C4B2701E002917D0019011A90794FC
:104B20000C1958A98F1E591E0025BA1952786255C2
:104B3000A9420ED0B21EBE5D60194670AD1CAB42DC
:104B40001646F2D1079C641907E03246022807D2C4
:104B500016E007984019441C721E019802280FD3D2
:104B600011A8001958A9C91E8B189C7804705B788D
:104B70004370D31E8A5C8270C01C002B1A46F3D18E
:104B8000109FFBB23C1D11A8C1180E9AC2540C987C
:104B90004870099888700D98C8704DA8058A002D36
:104BA00042D001940793791D0F98841C002710911F
:104BB0000A262846314617F0FFF9109B4643A91BE9
:104BC00030220A437E1C58A9CA55641C082F04D8F9
:104BD000591C092D37460546E9D80321204617F010
:104BE000EBF90F9948438119CA1E00D11146731E73
:104BF000002A22D0019311A8079A821858A8841E6F
:104C00004D1E0023A0194778D01807719D4219D076
:104C1000B71EA65D46719B1C99423E46F2D107988D
:104C2000C018011D3E4611E098083A2823D8E0B28A
:104C30007B1D11A930220A541EE00198C1B2022B3B
:104C400007D216E00798C018411D761E019B022B63
:104C50000FD311A8401858A9C91E8A199378037058
:104C600052784270F21E8B5D8370C01C002A16467B
:104C7000F3D1109B00E02346DCB21E1D11A80119E0
:104C80000E9A02550C9848704E2088700D98C87086
:104C90004DA8458A002D42D001960794591D0F98C2
:104CA000841C002710910A262846314617F084F903
:104CB000109B4643A91B30220A437E1C58A9CA55A3
:104CC000641C082F04D8591C092D37460546E9D81D
:104CD0000321204617F070F90F9948438119CA1E25
:104CE00000D11146731E002A22D0019311A8079A01
:104CF000821858A8841E4D1E0023A0194778D0188A
:104D000007719D4219D0B71EA65D46719B1C994242
:104D10003E46F2D10798C018011D3E4611E0A0089A
:104D20003A2823D8F0B25B1D11A930220A541EE0A4
:104D30000198C1B2022B07D216E00798C018411D96
:104D4000761E019B022B0FD311A8401858A9C91E2B
:104D50008A199378037052784270F21E8B5D8370CB
:104D6000C01C002A1646F3D1109B00E03346DCB28B
:104D70001E1D11A801190E9A025554224A700B9853
:104D800088700D98C8704DA8858A002D079242D072
:104D900000960194591D0F98841C002710910A2633
:104DA0002846314617F008F9109B4643A91B3022CC
:104DB0000A437E1C58A9CA55641C082F04D8591CE4
:104DC000092D37460546E9D80321204617F0F4F8A7
:104DD0000F9948438119CA1E00D11146731E002A3B
:104DE00022D0009311A8019A821858A8841E4D1E43
:104DF0000023A0194778D01807719D4219D0B71E1B
:104E0000A65D46719B1C99423E46F2D10198C0189E
:104E1000011D3E4611E0A0083A2823D8F0B25B1DE0
:104E200011A930220A541EE00098C1B2022B07D209
:104E300016E00198C018411D761E009B022B0FD36F
:104E400011A8401858A9C91E8A199378037052787E
:104E50004270F21E8B5D8370C01C002A1646F3D18F
:104E6000109B00E03346DCB21E1D11A801190E9AFA
:104E700002550A984870089888700D98C8704DA817
:104E8000C58A002D42D000960194591D0F98841CAC
:104E9000002710910A262846314617F08DF8109BFE
:104EA0004643A91B30220A437E1C58A9CA55641CDC
:104EB000082F04D8591C092D37460546E9D8032187
:104EC000204617F079F80F9948438119CA1E00D17E
:104ED0001146731E002A22D0009311A8019A82184D
:104EE00058A8841E4D1E0023A0194778D0180771BA
:104EF0009D4219D0B71EA65D46719B1C99423E4645
:104F0000F2D10198C018011D3E4611E0A0083A28D0
:104F100023D8F0B25B1D11A930220A541EE000987C
:104F2000C1B2022B07D216E00198C018411D761EAF
:104F3000009B022B0FD311A8401858A9C91E8A192B
:104F40009378037052784270F21E8B5D8370C01CA0
:104F5000002A1646F3D1109B00E03346DCB29E1DBA
:104F600011A801190E9A0255039848700C98887080
:104F70000998C87008710D9848714DA8058B002DCF
:104F800042D003960994D91D0F98841C00271091D4
:104F90000A262846314617F00FF8109B4643A91BF6
:104FA00030220A437E1C58A9CA55641C082F04D815
:104FB000591C092D37460546E9D80321204616F02D
:104FC000FBFF0F9948438119CA1E00D11146731E79
:104FD000002A22D0039311A8099A821858A8841E87
:104FE0004D1E0023A0194778D01887719D4217D015
:104FF000B71EA65DC6719B1C99423E46F2D1099828
:10500000C018811D3E460FE06008742822D8F0B217
:10501000DB1D11A930220A541DE00398C1B204E03F
:105020000998C018C11D761E039B022B029C0FD34A
:1050300011A8401858A9C91E8A199378037052788C
:105040004270F21E8B5D8370C01C002A1646F3D19D
:10505000109B01E03346029CD8B21D465E1D11A98B
:105060000A180E9B0B540B995170947052210991A0
:10507000D1700D99117128214DAA5456002C08D4D5
:105080000FD1EA286BD8F0B2AE1D11A930220A5414
:1050900065E0EA2804D8F0B2AE1D11A92D220A5409
:1050A00064420F98851C0027039610961098401CA8
:1050B00010900A262046314616F07EFF4643A11B7B
:1050C00030220A437E1C58A9CA556D1C082F03D8EC
:1050D000092C37460446E9D80321284616F06CFF10
:1050E0000F9948438319D91E00D10B460398C4B2C7
:1050F000701E002917D0029011A903940C1958A909
:105100008F1E591E0025BA1952786255A9420ED039
:10511000B21EBE5D60194670AD1CAB421646F2D1A0
:10512000039C641907E03246022807D216E0039870
:105130004019441C721E029802280FD311A80019AE
:1051400058A9C91E8B189C7804705B784370D31ED5
:105150008A5C8270C01C002B1A46F3D1109EF0B2FC
:105160003546761D11A90A180E9B0B5408995170EB
:105170000C9991700599D1700D991171549C002C66
:1051800008D40FD1EA286BD8F0B2AE1D11A9302295
:105190000A5465E0EA2804D8F0B2AE1D11A92D2208
:1051A0000A5464420F98851C00270C96109610989C
:1051B000401C10900A262046314616F0FDFE46435C
:1051C000A11B30220A437E1C58A9CA556D1C082F0A
:1051D00003D8092C37460446E9D80321284616F09F
:1051E000EBFE0F9948438319D91E00D10B460C984A
:1051F000C4B2701E002917D0089011A90C940C1984
:1052000058A98F1E591E0025BA1952786255A94215
:105210000ED0B21EBE5D60194670AD1CAB42164684
:10522000F2D10C9C641907E03246022807D216E03E
:105230000C984019441C721E089802280FD311A81C
:10524000001958A9C91E8B189C7804705B784370AC
:10525000D31E8A5C8270C01C002B1A46F3D1109EAC
:10526000049CF0B2B71D11A90A180E9B0B54547080
:105270004C2191704521D170572111710D995171B7
:10528000559C002C02D40BD00C9714E040087428D5
:105290000FD8F8B2F11D0C9111A92D220A5409E082
:1052A0004008742865D8F8B2F71D11A930220A54B5
:1052B0005FE00C9764420F98851C00270C981090B3
:1052C0001098401C10900A262046314616F074FEB5
:1052D0004643A11B30220A437E1C58A9CA556D1CA7
:1052E000082F03D8092C37460446E9D8032128465D
:1052F00016F062FE0F9948438319D91E00D10B4660
:105300000C98C4B2701E002917D0089011A90C94F3
:105310000C1958A98F1E591E0025BA1952786255CA
:10532000A9420ED0B21EBE5D60194670AD1CAB42E4
:105330001646F2D10C9C641907E03246022807D2C7
:1053400016E00C984019441C721E089802280FD3CE
:1053500011A8001958A9C91E8B189C7804705B7895
:105360004370D31E8A5C8270C01C002B1A46F3D196
:10537000109FFBB23C1D11A8C1180E9AC2540B9885
:1053800048700A9888700D98C8704DA8858C002DBB
:1053900042D00B940C93791D0F98841C0027109118
:1053A0000A262846314616F007FE109B4643A91BE5
:1053B00030220A437E1C58A9CA55641C082F04D801
:1053C000591C092D37460546E9D80321204616F019
:1053D000F3FD0F9948438119CA1E00D11146731E6F
:1053E000002A22D00B9311A80C9A821858A8841E68
:1053F0004D1E0023A0194778D01807719D4219D07F
:10540000B71EA65D46719B1C99423E46F2D10C9890
:10541000C018011D3E4611E098083A2823D8E0B292
:105420007B1D11A930220A541EE00B98C1B2022B39
:1054300007D216E00C98C018411D761E0B9B022B5C
:105440000FD311A8401858A9C91E8A199378037060
:1054500052784270F21E8B5D8370C01C002A164683
:10546000F3D1109B00E02346DCB21E1D11A80119E8
:105470000E9A025509984870069888700D98C87061
:105480004DA8C58C002D42D00B960C94591D0F9839
:10549000841C002710910A262846314616F08CFD00
:1054A000109B4643A91B30220A437E1C58A9CA55AB
:1054B000641C082F04D8591C092D37460546E9D825
:1054C0000321204616F078FD0F9948438119CA1E22
:1054D00000D11146731E002A22D00B9311A80C9AFA
:1054E000821858A8841E4D1E0023A0194778D01892
:1054F00007719D4219D0B71EA65D46719B1C99424B
:105500003E46F2D10C98C018011D3E4611E0A0089D
:105510003A2823D8F0B25B1D11A930220A541EE0AC
:105520000B98C1B2022B07D216E00C98C018411D8F
:10553000761E0B9B022B0FD311A8401858A9C91E29
:105540008A199378037052784270F21E8B5D8370D3
:10555000C01C002A1646F3D1109B00E03346D8B297
:105560001D46DE1C11A90A180E9B0B540799517099
:105570000D99917000226B498C5E002C0E9208D41C
:105580000FD1EC286BD8F0B22E1D11A930220A548D
:1055900065E0EC2804D8F0B22E1D11A92D220A5482
:1055A00064420F98851C00270D9610961098401C99
:1055B00010900A262046314616F0FEFC4643A11BF9
:1055C00030220A437E1C58A9CA556D1C082F03D8E7
:1055D000092C37460446E9D80321284616F0ECFC8E
:1055E0000F9941438B19D91E00D10B460D98C4B2B7
:1055F000701E002917D00D9011A90F940C1958A9ED
:105600008F1E591E0025BA1952786255A9420ED034
:10561000B21EBE5D60194670AD1CAB421646F2D19B
:105620000F9C641907E03246022807D216E00F9853
:105630004019441C721E0D9802280FD311A800199E
:1056400058A9C91E8B189C7804705B784370D31ED0
:105650008A5C8270C01C002B1A46F3D1109E324D1A
:10566000B01CF1B211AA53180D2454540A215970D8
:10567000C7B22E4800882E4E3188C94340182840B2
:10568000B84205D22C488169491C81615BB0F0BDEC
:105690007C1E0321204616F08FFC491C03290E981E
:1056A00000D008460F91022C0E9D1F4A1ED3391AB6
:1056B000109100251F4B11AF7C197F5D31885F541D
:1056C0003188491C1140318061783788D95531883B
:1056D000491C11403180A178348819553188491C02
:1056E00011403180ED1C1099A942E4D10F99032992
:1056F00016D0174611A949190E4A0B78348813554C
:1057000033885B1C3B403380012809D04B783488B8
:10571000135533885B1C3B403380891C801EECD1C1
:105720005BB0F0BD581A2020FF0700005C1A202053
:105730005A1A2020000020202C182020F0B5D3B0C9
:105740000C930D4604461192506B211A0D910026C0
:10575000F14300280B4600D00D9BA7488268A01A91
:105760000392002A00D001460A910B9014A844210C
:10577000017042214170472181702C22C270432167
:10578000017154214171522181714C21C1711292D8
:1057900002727421049141723D2109918172002CA1
:1057A000059407933CD00F9501210C2235461391A7
:1057B00017460A262046314616F0FEFB139B464349
:1057C000A11B30220A436E1C50A94A55082D04D84B
:1057D000591C7A1C092C0446E8D81C461097032152
:1057E000284616F0E9FB4F1C032F1ED03846022D29
:1057F0001ED3139750AAD31E341A00229D19AF78D6
:1058000014A98918CF726D780D739D5D4D73D21CEC
:10581000DB1E9442F2D1B31A0B321099139F0AE0A7
:1058200014A83021C1720C2118E00020022DE0D212
:1058300023460B221099032F0F9D0FD014A989180E
:1058400050AA9A18921E53780B70012805D013782D
:105850004B70891C921E801EF5D110990C46C8B25F
:1058600014A90A18129B0B546F2151706C210291DC
:10587000917064210191D17009991171072D03D89C
:10588000A9005E4A525800E05D4A11996C311191AD
:10589000611D1778002F2AD0CBB214AC24180F94B6
:1058A000EB24201A10900026F020109CB442139094
:1058B00037D094190F9DAD196F716778002F13D0F1
:1058C00010465A1CF02A2CD0AF71A778002F0DD0AB
:1058D0009A1CF02A25D0DB1CC91CEF71E778F61C56
:1058E000002F0246E0D102E0491C00E0891CCBB247
:1058F000F02B1A4600D8F02218090E2801D913916E
:105900000FE0581C14AC129DE554904201D1139045
:1059100007E09C1C14AD6E262E54944200D094E0F7
:1059200013941199C9780729069103D88900334A3D
:10593000525800E0324A1178002913982FD0C3B290
:10594000F02B1D4600D8F02514ACE4180895ED1A8C
:10595000AB1E0E9310956B1E0F930023109D9D425E
:1059600018D0D618E1547778002F15D00F999942A6
:1059700010D0E1184F70B778002F0FD015460E9A4F
:105980009A4207D0C01C8F70F178DB1C00292A4690
:10599000E4D104E0089802E0401C00E0801C589923
:1059A00008910699052900D0BBE0C2B2F02A114641
:1059B00000D8F02113090E2B0ED8541C14AB129DE5
:1059C0009D548C4201D1204606E0931C14AD632601
:1059D0002E558B424AD11846059C11998978072982
:1059E0000B9B6BD8074DC0467944097949008F4419
:1059F0000B665B5D5961635F1016202038D501008E
:105A000070DA010069D90100F94D0399002956D0D7
:105A1000F84AC73A934252D87021089B595C091F33
:105A2000C9B20B2905D2F44BCB40DB0701D000F003
:105A300007FE0899496D631AF04D93422A4600D833
:105A4000EF4A00293BD0154639E0D81C14AD652635
:105A50002E55904200D15AE71B1D14AC77252554D2
:105A6000934201D000F0D1FD13935AE7D41C14AD3A
:105A70006126EE548C42A6D0131D14AD75262E550A
:105A80008B42A8D0541D14AD7326EE548C429AD08C
:105A9000921D14AB65251D558A4201D000F0E6FD2C
:105AA000104699E7D74D0AE0D74D08E0D74D06E0FC
:105AB000D74D04E0D74D02E0D74D00E0D74D2F7809
:105AC000002F2ED01095C1B2F0290B4600D8F0233C
:105AD00014AA521813935B1A991E0E91591E0F9116
