:10000000008020203FC201009F8801009F880100DE
:1000100000000000000000000000000000000000E0
:100020000000000000000000000000009F880100A8
:1000300000000000000000009F8801000D84010006
:100040009F8801001DBB01009F88010015980100D9
:100050009F8801009F8801009F8801009F88010000
:10006000000000009F8801009F8801000000000040
:10007000000000009F88010001A201009F8801008C
:100080009F8801009F8801009F8801009F880100D0
:100090009F8801009F880100000000000000000010
:1000A0009F8801009F880100000000000000000000
:1000B0009F880100000000009F8801009F880100C8
:1000C000F0B5D1B00D920F91064612A844210170EF
:1000D00042214170472181702C22C270462101715A
:1000E000492141714C2181715421C1714521017215
:1000F000522141720E92827274210791C1723D2188
:1001000009910173002E3ED0002401210E222746C2
:10011000109115460A24304621461AF0CDFF109B57
:100120004443311B30220A437C1C4EA9CA55082F78
:1001300004D8591C6A1C092E0646E8D81E4611959B
:10014000032138461AF0B8FF4D1C032D20D0284655
:10015000022F20D310954EAAD31E251A00221E1955
:10016000B77812A989184F7376788E731E5DCE7397
:10017000D21CDB1E9542F2D1A31A0D321199109DAB
:10018000032D0DD11CE012A8302141730E2117E080
:100190000020022FDED233460D221199032D0FD0FD
:1001A00012A989184EAA9A18921E53780B7001282A
:1001B00005D013784B70891C921E801EF5D11199C1
:1001C0000A46CBB212A8C1180E9CC45472200690E5
:1001D000487065200590887073200490C870752061
:1001E000029008716C2003904871079888710998F3
:1001F000C8716E210F980191405C072803D88000D8
:10020000F049085800E0F04808320578002D24D065
:1002100011901046D1B212AAD2181092E824E31A13
:100220000024A3421BD0119A1619109A17193D7277
:100230007578002D19D04A1CF02A10D07D72B5783F
:10024000002D14D08A1CF02A09D0C91CC01CBD7214
:10025000F578E41C002DE4D10AE0104608E00D9882
:10026000068AF023002E1FD1C7E0401C00E0801C4E
:100270000346C1B2F0290D4600D8F0250A090E2A1E
:100280000ED84A1C12AB0E9C5C54AA4201D11346F4
:1002900006E08B1C12AC049EA654AB4200D016E2C2
:1002A0000D98068A002E34D0119301256F1E0A2462
:1002B000304621461AF000FF4443311B30242143CD
:1002C0004EAAB954082F2FD80A2E2DD30A211AF07E
:1002D000F3FE21434EA84155072F24D8642E22D384
:1002E000642130461AF0E8FE0A211AF0E5FE2143A7
:1002F0004EA8401941707D20C10030461AF0DCFE46
:10030000ED1C062F03D8B1498E420646CED86D1E8D
:100310000AE0D8B201090E296FD85B1C119312A90B
:1003200030220A5443E06D1C1198C3B2F02B1846DA
:1003300000D8F02012A9C918C21A941E0A94089372
:10034000181A401C0C904EA8C71EA81E0B90681EC1
:1003500010900026B2421BD07C19A07888551098C6
:10036000B04218D00C98801917D060788C19607042
:100370000B98B04215D00A98B04214D0785D119B0A
:10038000DB1C1193A070F61CFF1EB542E2D10EE0FB
:10039000089880190AE0119801E008988019401C1B
:1003A00004E0119801E008988019801C1190119BBD
:1003B000D9B2F029084600D8F0200A090E2A1CD824
:1003C0004B1C12AA0E9C5454834216D08A1C12ACA9
:1003D0007625E554824201D113460EE0CB1C12ACC7
:1003E0006125A554834208D00C1D12AA039DD55443
:1003F000844201D001F08CFA23460D984678002EF5
:1004000036D01193D8B2089001277D1E0A243046B9
:1004100021461AF051FE4443311B302421434EAA99
:10042000A954082D2FD80A2E2DD30A211AF044FEE4
:1004300021434EA8C155072D24D8642E22D3642110
:1004400030461AF039FE0A211AF036FE21434EA832
:10045000C01941707D20C10030461AF02DFEFF1CEE
:10046000062D03D859498E420646CED87F1E0AE093
:10047000D8B201090F295FD25B1C119312A9302257
:100480000A5441E07F1C089AF02A00D8F02212A8F2
:10049000089BC018D11A8C1E0A949A1A521C0C92EE
:1004A0004EAAD51EBA1E0B927A1E10920024A142AB
:1004B0001BD0EB199E780655109AA24218D00C9AC0
:1004C000161917D05E7803195E700B9AA24215D0E8
:1004D0000A9AA24214D0EE5D119AD21C11929E701B
:1004E000E41CED1EA742E2D10EE0089800190AE0D4
:1004F000119801E008980019401C04E0119801E0EF
:1005000008980019801C1190119BD8B2F028014660
:1005100000D8F02102090E2A0ED8421C12AB0E9C04
:100520001C548A4201D1134606E0831C12AC6D258F
:10053000A5548B4200D089E00D988678002E36D0E5
:100540001193D8B2089001277D1E0A243046214617
:100550001AF0B2FD4443311B302421434EAAA95462
:10056000082D36D80A2E34D30A211AF0A5FD2143CE
:100570004EA8C155072D2BD8642E29D364213046AF
:100580001AF09AFD0A211AF097FD21434EA8C019CE
:1005900041707D20C10030461AF08EFDFF1C062DF3
:1005A00003D80A498E420646CED87F1E11E0D8B243
:1005B00001090F2900D3A0E05B1C119312A930227E
:1005C0000A545FE008C60100A8CA0100E703000062
:1005D0007F1C089AF02A00D8F02212A8089BC018A5
:1005E000D11A8C1E0A949A1A521C0C924EAAD51E2D
:1005F000BA1E0B927A1E10920024A1421BD0EB1956
:100600009E780655109AA24218D00C9A161917D047
:100610005E7803195E700B9AA24215D00A9AA24224
:100620002CD0EE5D119AD21C11929E70E41CED1E2E
:10063000A742E2D126E00898001922E0119801E0D3
:1006400008980019401C1CE0119819E0C21C12AC5B
:10065000059DE5548A4200D165E7031D12AC612572
:10066000A5548B4200D167E7401D12AA049CD454C4
:10067000884201D001F06BF903465DE70898001944
:10068000801C1190119BD8B2F028014600D8F021AF
:1006900002090E2A31D8431C12AA0E9C14548B4214
:1006A0002BD0821C12AC7025E5548A4201D113462E
:1006B00023E0C31C12AC6F25A5548B421DD0001D36
:1006C00012AA049CD454884212D1034615E0CA1CD5
:1006D00012AC059EE654AA4200D1D8E5091D12AB22
:1006E00071249C54A94201D001F023F90B46D7E5AF
:1006F000119B5B1D12A9099A0A5412200D990D5ED7
:10070000002D02D474D0119309E0D8B201090E294A
:1007100003D85B1C12A92D220A5411936D420126A5
:10072000771E0A24284621461AF0C6FC4443291B9A
:10073000302421434EAAB954082F25D80A2D23D39B
:100740000A211AF0B9FC21434EA88155072F1AD867
:10075000642D18D3642128461AF0AEFC0A211AF041
:10076000ABFC21434EA8801941707D20C100284672
:100770001AF0A2FCF61C062F03D8F7498D42054655
:10078000CED8761E00E0761C1198C3B2F02B184626
:1007900000D8F02012A9C918C21A941E0B940A930B
:1007A000181A401C0D904EA8C71EB01E0C90701E4B
:1007B00010900025AA4225D0BC19A0784855109861
:1007C000A84222D00D98401921D060784C19607051
:1007D0000C98A8421FD00B98A8421ED0B85D119B60
:1007E000DB1C1193A070ED1CFF1EAE42E2D118E09D
:1007F000D8B201090F2933D25B1C119312A9302200
:100800000A540EE00A9840190AE0119801E00A988B
:100810004019401C04E0119801E00A984019801C1E
:100820001190119BD9B2F029084600D8F0200A098E
:100830000E2A15D84A1C12AB0E9C5C54824201D180
:1008400013460DE08B1C12AC7625A554834207D0CD
:10085000CC1C12AA069DD554844200D0B3E0234696
:1008600008200F990D5E002D02D474D0119309E079
:10087000D8B201090E2903D85B1C12A92D220A54F3
:1008800011936D420126771E0A24284621461AF04C
:1008900013FC4443291B302421434EAAB954082F8A
:1008A00025D80A2D23D30A211AF006FC21434EA88D
:1008B0008155072F1AD8642D18D3642128461AF0C1
:1008C000FBFB0A211AF0F8FB21434EA88019417066
:1008D0007D20C10028461AF0EFFBF61C062F03D836
:1008E0009D498D420546CED8761E00E0761C1198B3
:1008F000C3B2F02B184600D8F02012A9C918C21AAA
:10090000941E0B940A93181A401C0D904EA8C71EF3
:10091000B01E0C90701E10900025AA4225D0BC1964
:10092000A07848551098A84222D00D98401921D09F
:1009300060784C1960700C98A8421FD00B98A842A0
:100940001ED0B85D119BDB1C1193A070ED1CFF1E27
:10095000AE42E2D118E0D8B201090F2949D25B1C9E
:10096000119312A930220A540EE00A9840190AE0A5
:10097000119801E00A984019401C04E0119801E028
:100980000A984019801C1190119BD9B2F029084691
:1009900000D8F0200A090E2A2BD84B1C12AA0E9C54
:1009A0005454834225D08A1C12AC7625E5548242E9
:1009B00001D113461DE0C91C12AB66249C54814230
:1009C00012D10B4615E00A1D12AB61251D5582425E
:1009D00000D135E7491D12AB77249C54814201D0E8
:1009E00000F0AEFF0B463BE7119B1B1D12A8099AB6
:1009F000425406200F990D5E002D02D474D011933D
:100A000009E0D8B201090E2903D85B1C12A92D22D6
:100A10000A5411936D420126771E0A242846214666
:100A20001AF04AFB4443291B302421434EAAB954EF
:100A3000082F25D80A2D23D30A211AF03DFB214384
:100A40004EA88155072F1AD8642D18D36421284643
:100A50001AF032FB0A211AF02FFB21434EA880190D
:100A600041707D20C10028461AF026FBF61C062F97
:100A700003D839498D420546CED8761E00E0761C53
:100A80001198C3B2F02B184600D8F02012A9C9184B
:100A9000C21A941E0B940A93181A401C0D904EA86B
:100AA000C71EB01E0C90701E10900025AA4225D0C3
:100AB000BC19A07848551098A84222D00D9840192A
:100AC00021D060784C1960700C98A8421FD00B9808
:100AD000A8421ED0B85D119BDB1C1193A070ED1CC9
:100AE000FF1EAE42E2D118E0D8B201090F293AD276
:100AF0005B1C119312A930220A540EE00A98401987
:100B00000AE0119801E00A984019401C04E011988D
:100B100001E00A984019801C1190119BD8B2F0286E
:100B2000014600D8F02102090E2A1CD8421C12AB43
:100B30000E9C1C548A4201D1134614E0831C12AC53
:100B40006425A5548B420ED0C01C12AA079CD45415
:100B5000884203D1034606E0E7030000119B1B1DFA
:100B600012A9099A0A540F984589002D36D011937D
:100B7000D8B20A9001277E1E0A24284621461AF080
:100B80009BFA4443291B302421434EAAB154082E1A
:100B90002FD80A2D2DD30A211AF08EFA21434EA800
:100BA000C155072E24D8642D22D3642128461AF07B
:100BB00083FA0A211AF080FA21434EA8C019417025
:100BC0007D20C10028461AF077FAFF1C062E03D8B4
:100BD000DF498D420546CED87F1E0AE0D8B2010912
:100BE0000F2965D25B1C119312A930220A5441E0EF
:100BF0007F1C0A9AF02A00D8F02212A80A9BC0187B
:100C0000D11A8C1E0B949A1A521C0D924EAAD51E04
:100C1000BA1E0C927A1E10920024A1421BD0EB192E
:100C20009E780655109AA24218D00D9A161917D020
:100C30005E7803195E700C9AA24215D00B9AA242FC
:100C400014D0EE5D119AD21C11929E70E41CED1E20
:100C5000A742E2D10EE00A9800190AE0119801E0DB
:100C60000A980019401C04E0119801E00A98001944
:100C7000801C1190119BD9B2F029084600D8F020B1
:100C80000A090E2A14D84A1C12AB0E9C5C548242EC
:100C900001D113460CE0891C12AB61249C548142A3
:100CA00001D10B4604E0119BDB1C12A8099A4254A7
:100CB0000F988589002D36D01193D8B20A9001275C
:100CC0007E1E0A24284621461AF0F6F94443291BC1
:100CD000302421434EAAB154082E2FD80A2D2DD3EB
:100CE0000A211AF0E9F921434EA8C155072E24D84C
:100CF000642D22D3642128461AF0DEF90A211AF065
:100D0000DBF921434EA8C01941707D20C10028465F
:100D10001AF0D2F9FF1C062E03D88D498D420546E4
:100D2000CED87F1E0AE0D8B201090F295FD25B1C22
:100D3000119312A930220A5441E07F1C0A9AF02A2A
:100D400000D8F02212A80A9BC018D11A8C1E0B944E
:100D50009A1A521C0D924EAAD51EBA1E0C927A1ED9
:100D600010920024A1421BD0EB199E780655109AD0
:100D7000A24218D00D9A161917D05E7803195E702A
:100D80000C9AA24215D00B9AA24214D0EE5D119A91
:100D9000D21C11929E70E41CED1EA742E2D10EE01F
:100DA0000A9800190AE0119801E00A980019401CFD
:100DB00004E0119801E00A980019801C1190119B21
:100DC000D9B2F029084600D8F0200A090E2A0ED818
:100DD0004A1C12AB0E9C5C54824201D1134606E0C1
:100DE0008B1C12AC069DA554834200D083E00F9863
:100DF000857B002D36D01193D8B20A9001277E1E34
:100E00000A24284621461AF057F94443291B302466
:100E100021434EAAB154082E30D80A2D2ED30A21D0
:100E20001AF04AF921434EA8C155072E25D8642D42
:100E300023D3642128461AF03FF90A211AF03CF91D
:100E400021434EA8C01941707D20C10028461AF0E8
:100E500033F9FF1C062E03D83D498D420546CED8F6
:100E60007F1E0BE0D8B201090F2900D380E05B1C84
:100E7000119312A930220A5452E07F1C0A9AF02AD8
:100E800000D8F02212A80A9BC018D11A8C1E0B940D
:100E90009A1A521C0D924EAAD51EBA1E0C927A1E98
:100EA00010920024A1421BD0EB199E780655109A8F
:100EB000A24218D00D9A161917D05E7803195E70E9
:100EC0000C9AA24215D00B9AA24225D0EE5D119A3F
:100ED000D21C11929E70E41CED1EA742E2D11FE0CD
:100EE0000A9800191BE0119801E00A980019401CAB
:100EF00015E0119812E0CA1C12AC059DE55482421F
:100F000000D16BE7091D12AB76249C54814201D0BD
:100F100000F0B5FC0B466AE70A980019801C119096
:100F2000119BD8B2F028014600D8F02102090E2A00
:100F30001ED8431C12AA0E9C14548B4218D0821C3B
:100F400012AC6125E5548A4204D1134610E0C04634
:100F5000E7030000C31C12AC6325A5548B4207D0E5
:100F6000041D12AAD5548C4201D000F08FFC2346F8
:100F70000F98856B002D36D01193D8B20A900127B7
:100F80007E1E0A24284621461AF096F84443291B5F
:100F9000302421434EAAB154082E2FD80A2D2DD328
:100FA0000A211AF089F821434EA8C155072E24D8EA
:100FB000642D22D3642128461AF07EF80A211AF003
:100FC0007BF821434EA8C01941707D20C1002846FE
:100FD0001AF072F8FF1C062E03D8FC498D42054614
:100FE000CED87F1E0AE0D8B201090F2966D25B1C59
:100FF000119312A930220A5441E07F1C0A9AF02A68
:1010000000D8F02212A80A9BC018D11A8C1E0B948B
:101010009A1A521C0D924EAAD51EBA1E0C927A1E16
:1010200010920024A1421BD0EB199E780655109A0D
:10103000A24218D00D9A161917D05E7803195E7067
:101040000C9AA24215D00B9AA24214D0EE5D119ACE
:10105000D21C11929E70E41CED1EA742E2D10EE05C
:101060000A9800190AE0119801E00A980019401C3A
:1010700004E0119801E00A980019801C1190119B5E
:10108000D9B2F029084600D8F0200A090E2A15D84E
:101090004A1C12AB0E9C5C54824201D113460DE0F7
:1010A0008B1C12AC6A25A554834207D0CC1C12AA13
:1010B000029DD554844200D094E323460F98C56B1B
:1010C000002D36D01193D8B20A9001277E1E0A2433
:1010D0002846214619F0F0FF4443291B30242143C0
:1010E0004EAAB154082E2FD80A2D2DD30A2119F05B
:1010F000E3FF21434EA8C155072E24D8642D22D3E7
:101100006421284619F0D8FF0A2119F0D5FF2143A0
:101110004EA8C01941707D20C100284619F0CCFFAF
:10112000FF1C062E03D8A9498D420546CED87F1E46
:101130000AE0D8B201090F2965D25B1C119312A9EC
:1011400030220A5441E07F1C0A9AF02A00D8F0228B
:1011500012A80A9BC018D11A8C1E0B949A1A521C02
:101160000D924EAAD51EBA1E0C927A1E1092002421
:10117000A1421BD0EB199E780655109AA24218D0B6
:101180000D9A161917D05E7803195E700C9AA24258
:1011900015D00B9AA24214D0EE5D119AD21C119276
:1011A0009E70E41CED1EA742E2D10EE00A980019E1
:1011B0000AE0119801E00A980019401C04E0119817
:1011C00001E00A980019801C1190119BD9B2F029F6
:1011D000084600D8F0200A090E2A14D84B1C12AA7F
:1011E0000E9C545483420ED08A1C12AC6325E554E5
:1011F000824201D1134606E0CB1C12AC6125A554F6
:10120000834200D0FEE20F98056C002D36D011937A
:10121000D8B20A9001277E1E0A242846214619F0DA
:101220004BFF4443291B302421434EAAB154082EBE
:101230002FD80A2D2DD30A2119F03EFF21434EA8A5
:10124000C155072E24D8642D22D36421284619F0D5
:1012500033FF0A2119F030FF21434EA8C019417015
:101260007D20C100284619F027FFFF1C062E03D859
:1012700056498D420546CED87F1E0AE0D8B20109F4
:101280000F2967D25B1C119312A930220A5441E046
:101290007F1C0A9AF02A00D8F02212A80A9BC018D4
:1012A000D11A8C1E0B949A1A521C0D924EAAD51E5E
:1012B000BA1E0C927A1E10920024A1421BD0EB1988
:1012C0009E780655109AA24218D00D9A161917D07A
:1012D0005E7803195E700C9AA24215D00B9AA24256
:1012E00014D0EE5D119AD21C11929E70E41CED1E7A
:1012F000A742E2D10EE00A9800190AE0119801E035
:101300000A980019401C04E0119801E00A9800199D
:10131000801C1190119BD8B2F028014600D8F02112
:1013200002090E2A16D8421C12AB0E9C1C548A428B
:1013300001D113460EE0841C12AB069D9D548C42D5
:1013400001D1234606E0C31C12AA059D15558B4208
:1013500000D067E20F98456C002D39D01193D8B2B8
:101360000A9001277E1E0A242846214619F0A4FE71
:101370004443291B302421434EAAB154082E32D8AD
:101380000A2D30D30A2119F097FE21434EA8C155EA
:10139000072E27D8642D25D36421284619F08CFE0A
:1013A0000A2119F089FE21434EA8C01941707D2001
:1013B000C100284619F080FEFF1C062E03D8034901
:1013C0008D420546CED87F1E0DE0C046E7030000E3
:1013D000D8B201090F296CD25B1C119312A93022DB
:1013E0000A5441E07F1C0A9AF02A00D8F02212A881
:1013F0000A9BC018D11A8C1E0B949A1A521C0D927B
:101400004EAAD51EBA1E0C927A1E10920024A1423A
:101410001BD0EB199E780655109AA24218D00D9A4F
:10142000161917D05E7803195E700C9AA24215D077
:101430000B9AA24214D0EE5D119AD21C11929E70AA
:10144000E41CED1EA742E2D10EE00A9800190AE062
:10145000119801E00A980019401C04E0119801E07D
:101460000A980019801C1190119BD9B2F0290846E6
:1014700000D8F0200A090E2A1BD84B1C12AA0E9C79
:101480005454834215D08A1C12AC7625E55482420E
:1014900001D113460DE0CB1C12AC6325A554834249
:1014A00007D00C1D12AA039DD554844200D017E228
:1014B00023460F98456D002D36D01193D8B20A906F
:1014C00001277E1E0A242846214619F0F5FD4443D3
:1014D000291B302421434EAAB154082E2FD80A2D9F
:1014E0002DD30A2119F0E8FD21434EA8C155072E3E
:1014F00024D8642D22D36421284619F0DDFD0A2169
:1015000019F0DAFD21434EA8C01941707D20C100B9
:10151000284619F0D1FDFF1C062E03D8FB498D4249
:101520000546CED87F1E0AE0D8B201090F2965D240
:101530005B1C119312A930220A5441E07F1C0A9AC5
:10154000F02A00D8F02212A80A9BC018D11A8C1ECB
:101550000B949A1A521C0D924EAAD51EBA1E0C92CA
:101560007A1E10920024A1421BD0EB199E780655DA
:10157000109AA24218D00D9A161917D05E78031946
:101580005E700C9AA24215D00B9AA24214D0EE5D66
:10159000119AD21C11929E70E41CED1EA742E2D15A
:1015A0000EE00A9800190AE0119801E00A98001963
:1015B000401C04E0119801E00A980019801C119069
:1015C000119BD9B2F029084600D8F0200A090E2A4A
:1015D00014D84B1C12AA0E9C545483420ED08A1C61
:1015E00012AC6825E554824201D1134606E0CB1CBB
:1015F00012AC6F25A554834200D031E10F98846D61
:10160000002C34D011930126771E0A252046294646
:1016100019F052FD4543611B302529434EAAB954A8
:10162000082F2FD80A2C2DD30A2119F045FD294364
:101630004EA88155072F24D8642C22D3642120463C
:1016400019F03AFD0A2119F037FD29434EA88019F7
:1016500041707D20C100204619F02EFDF61C062F9A
:1016600003D8D5498C420446CED8761E0AE0D8B2BB
:1016700001090F295BD25B1C119312A930220A5475
:1016800043E0761C1198C3B2F02B184600D8F02026
:1016900012A9C918C21A941E0D940C93181A401C52
:1016A0000F904EA8C71EB01E0E90701E1090002501
:1016B000AA421BD0BC19A07848551098A84218D04F
:1016C0000F98401917D060784C1960700E98A84296
:1016D00015D00D98A84214D0B85D119BDB1C119356
:1016E000A070ED1CFF1EAE42E2D10EE00C98401936
:1016F0000AE0119801E00C984019401C04E0119890
:1017000001E00C984019801C1190119BD9B2080976
:101710000E280CD8481C12AA0D235354F02801D1CE
:10172000F02304E0119B9B1C12A90A220A54A34D2A
:10173000DFB2A3480088A34E3188C943401828402F
:10174000B84205D2A1488169491C816151B0F0BD00
:101750007C1E0321204619F0AFFC4A1C0021032AFD
:10176000084600D010461092022C20D3391A11914D
:101770000021954C12AA5718525C2B4635886255A9
:101780003288521C1A4032807A7835886255328805
:10179000521C1A403280BA78358862551D4632880C
:1017A000521C1A403280C91C119A8A42E2D1109A06
:1017B000032A15D012AA5118834A0B78348813557E
:1017C00033885B1C2B403380012809D04B78348848
:1017D000135533885B1C2B403380891C801EECD151
:1017E00051B0F0BD0A1D12AB6D251D55824200D1CE
:1017F00054E4491D12AB70249C54814200D0ADE0EA
:101800000B465BE40A1D12AC019DE554824200D1F7
:10181000F0E4491D12AB64249C54814200D0A4E042
:101820000B46F0E4021D12AC6225E5548A4200D159
:101830007FE5431D12AC6125A5548B4200D189E59B
:10184000821D12AC049DE5548A4200D171E5C01D91
:1018500012AB059C9C54884200D099E0034679E580
:101860000A1D12AC039DE554824200D1BDE6491D1C
:1018700012AB64249C5481427DD10B46BEE6119B81
:101880005B1D12A8099A4254FFF7B1FA421D12AB30
:10189000059D1D558A4201D1FFF757FB831D12ACF0
:1018A0007025A5548B4201D1FFF762FBC41D12AA1B
:1018B000079DD5548C4201D1FFF759FB02460832EF
:1018C00012AB059D1D558A4201D1FFF73EFB093041
:1018D00012AB64249C54884266D10346FFF748FB50
:1018E0004A1D12AB61251D55824200D1D1E58B1DE9
:1018F00012AC6D25A554834200D1DAE5C91D12AAA8
:101900007024D454814249D10B46D2E5E70300004C
:101910004A1D12AB69251D55824201D1FEF75CFDBF
:10192000891D12AB64249C5481422AD10B46FEF7D8
:1019300064FD0346431D12A8099A4254FEF7B0FC09
:10194000119B9B1D12A8099A4254FEF789FF119B17
:101950009B1D12A9099A0A54FEF7EEFD119B9B1DCF
:1019600012A8099A4254FFF7A9FB119B9B1D12A8CC
:10197000099A425447E4119B9B1D12A8099A4254AC
:101980003CE6119BDB1D12A8099A4254FEF735FD77
:10199000119B083312A9099A0A54DBE4119B0833FE
:1019A00012A8099A425484E5119B0A3312A9099A94
:1019B0000A54FFF7DDFAC046E7030000FF07000006
:1019C000041A2020021A202000002020FC172020CA
:1019D000F0B5C1B018AF07AD36AC204619F0CCFF5A
:1019E0002FA819F0A9FA384618F080FF284619F0F8
:1019F0009FFF207DE17C002901D0C14E00E0C14E57
:101A00004937002800D0C04E3879002800970FD001
:101A1000002001461AF0A2F8BC4819F0EDFDB87A92
:101A2000401EC0B2022818D88000B949085815E0F5
:101A3000B879002800D198E0002001461AF08EF80D
:101A4000B44819F0D9FD387B401EC0B2022800D935
:101A5000CFE08000B0490858CCE0B04819F0CCFD88
:101A6000AF4819F0C9FD387B401EC0B2022803D828
:101A70008000A949085800E0AA48002419F0BCFDDC
:101A80000220019421461AF069F8A74819F0B4FD24
:101A90003878002865D0199C002C03D52D2018F02B
:101AA000A7FD6442A149204619F006FB084601251E
:101AB0000199049505916A1E06920A22039207462F
:101AC000019E33461AF028FA04460D46039A33461F
:101AD00019F0E2FF381A302318433CA9069A5054F3
:101AE000039705990A3F0846B0415DD30A220E4686
:101AF0000027204629461C463B461AF00DFA23468D
:101B000022433CA8049C0255069911292546039AB4
:101B10004CD8104664383046B84147D31746642243
:101B2000002438463146029323461AF0F5F90A227A
:101B300023461AF0F1F9029802433CA8401942707A
:101B40007D20C2003846314623461AF0E5F9ED1CE7
:101B5000069A102A03D8764AD21BB441A9D36D1E27
:101B600025E0704819F048FD04E13C35687900280B
:101B700000D175E200242046214619F0EFFF6D48A0
:101B800019F03AFD02200394214619F0E7FF61485D
:101B900019F032FD6879401EC0B2042800D9B1E2C4
:101BA000800065490858AEE2049D00E06D1C2F4698
:101BB000681E0321069019F07FFA481C032813D0F1
:101BC0000446032813D03CA8861EF019407818F06C
:101BD0000FFD012C00D1B7E0BD1EF05D18F008FD2F
:101BE000A41E2F46F1D1B0E000240328EBD13D46DE
:101BF000ABE04C48002419F0FFFC504819F0FCFC05
:101C0000304619F0F9FC0220214619F0A7FF4C4894
:101C100019F0F2FC04200194214619F09FFF494875
:101C200019F0EAFC7878002800D115E21A9C002C03
:101C300003D52D2018F0DCFC64423C49204619F005
:101C40003BFA0D460126019904910596701E0690F7
:101C50000A2203922846019F3B461AF05DF904468A
:101C60000E46039A3B4619F017FF281A30231843F3
:101C70003CA9069A505403950A3D04980546B8417C
:101C800000D203E20A220027204631461C463B468A
:101C90001AF042F9234622433CA8059C02550699B6
:101CA00011292646039A00D9F2E1104664382846E5
:101CB000B84100D2ECE11746642200243846294698
:101CC000029323461AF028F90A2223461AF024F92F
:101CD000029802433CA8801942707D20C200384619
:101CE000294623461AF018F9F61C069A102A04D839
:101CF0000F4AD21BAC410546A6D3761EC9E1C046A9
:101D0000D9CC010077CE010023CF01006ECE0100B7
:101D100018C90100FCCF01000CC9010029CD010048
:101D2000F7CE01003ED001000BCD010040420F0074
:101D3000E703000030C8010020C701004CCA0100C1
:101D400020C801000BD001007D1E0698022810D388
:101D50006C423CA82818C51EA87818F049FC687881
:101D600018F046FC287818F043FCE41CED1E002C0B
:101D7000F2D1009F04200021019119F0EFFED64816
:101D800019F03AFC7878002865D01A9C002C03D50D
:101D90002D2018F02DFC6442D049204619F08CF912
:101DA000084601250199049505916A1E06920A22AA
:101DB00003920746019E33461AF0AEF804460D46DC
:101DC000039A334619F068FE381A302318433CA9A9
:101DD000069A5054039705990A3F0846B0413ED3EE
:101DE0000A220E460027204629461C463B461AF08A
:101DF00093F8234622433CA8049C025506991129D6
:101E00002546039A2DD8104664383046B84128D369
:101E100017466422002438463146029323461AF0BE
:101E20007BF80A2223461AF077F8029802433CA86E
:101E3000401942707D20C2003846314623461AF0D0
:101E40006BF8ED1C069A102A03D8A54AD21BB441A0
:101E5000A9D36D1E06E0A34819F0CEFB39E0049D1E
:101E600000E06D1C2F46681E0321069019F024F92E
:101E7000481C032812D00446032812D03CA8861E12
:101E8000F019407818F0B4FB012C0CD0BD1EF05DA9
:101E900018F0AEFBA41E2F46F2D105E00024032863
:101EA000ECD13D4600E07D1E0698022810D36C421E
:101EB0003CA82818C51EA87818F09AFB687818F076
:101EC00097FB287818F094FBE41CED1E002CF2D14F
:101ED000009F854819F090FBB878002866D01B9CBD
:101EE000002C03D52D2018F083FB64427B4920464B
:101EF00019F0E2F8084600210125019104950591A9
:101F00006A1E06920A2203920746019E33461AF081
:101F100003F804460D46039A334619F0BDFD381AFE
:101F2000302318433CA9069A5054039705990A3F59
:101F30000846B0413ED30A220E46002720462946D5
:101F40001C463B4619F0E8FF234622433CA8049C6C
:101F50000255069911292546039A2DD81046643852
:101F60003046B84128D3174664220024384631460B
:101F70000293234619F0D0FF0A22234619F0CCFF22
:101F8000029802433CA8401942707D20C2003846A6
:101F90003146234619F0C0FFED1C069A102A03D8DB
:101FA0004F4AD21BB441A9D36D1E06E04D4819F02B
:101FB00023FB39E0049D00E06D1C2F46681E0321C1
:101FC000069019F079F8481C032812D0044603281B
:101FD00012D03CA8861EF019407818F009FB012C9D
:101FE0000CD0BD1EF05D18F003FBA41E2F46F2D1ED
:101FF00005E000240328ECD13D4600E07D1E069854
:10200000022810D36C423CA82818C51EA87818F0E6
:10201000EFFA687818F0ECFA287818F0E9FAE41C7E
:10202000ED1E002CF2D1009F0620002119F096FD34
:10203000F87A032804D0022805D12C4800F0AEFF1E
:102040002B4800F0ABFFB87A032802D0294800F0F3
:10205000A5FF294800F0A2FF224819F0CDFAD3E0ED
:10206000787A002800D124E300200090014619F07E
:1020700075FD224819F0C0FAF87B401EC0B2022854
:1020800000D92BE380001E49085828E3059E00E094
:10209000761C701E0321069019F00EF8481C0328C8
:1020A00014D00446032814D03CA83746861EF019E5
:1020B000407818F09DFA012C00D18FE0BD1EF05D34
:1020C00018F096FAA41E2F46F1D188E000240328C8
:1020D000EAD1354683E0C0460BD0010040420F00F4
:1020E000E70300003ED001007BCE0100ECC70100F9
:1020F000B9C701006BC80100DBC7010092CD010028
:1021000000C90100F94819F077FAF94819F074FA92
:10211000089C002C03D52D2018F06AFA6442F5497A
:10212000204618F0C9FF084601250399029504913D
:102130006A1E05920A2206920646039C234619F05F
:10214000EBFE07460D46069A234619F0A5FC301A09
:10215000302420433CA9059A5054019604980A3E25
:10216000039A9041069400D20CE10A2200263846D8
:102170002946334619F0D0FE22433CA8029BC254A4
:10218000059911291D46019C00D9FDE020466438BF
:102190000498B04100D2F7E0642200272046049E54
:1021A00031463B4619F0B8FE0A223B4619F0B4FE10
:1021B000069802433CA8401942707D20C200204688
:1021C00031463B4619F0A8FEED1C059A102A03D8AB
:1021D000C94A121BB741A9D36D1ED6E07D1E0698D1
:1021E000022810D36C423CA82818C51EA87818F005
:1021F000FFF9687818F0FCF9287818F0F9F9E41C70
:10220000ED1E002CF2D1009FBC4819F0F5F9B8780A
:10221000002866D01B9C002C03D52D2018F0E8F96F
:102220006442B449204618F047FF084600210125C2
:102230000191049505916A1E06920A2203920746AF
:10224000019E334619F068FE04460D46039A334654
:1022500019F022FC381A302318433CA9069A50542E
:10226000039705990A3F0846B0413ED30A220E461D
:102270000027204629461C463B4619F04DFE2346C2
:1022800022433CA8049C0255069911292546039A2D
:102290002DD8104664383046B84128D317466422FA
:1022A0000024384631460293234619F035FE0A22AF
:1022B000234619F031FE029802433CA840194270AF
:1022C0007D20C20038463146234619F025FEED1C1C
:1022D000069A102A03D8884AD21BB441A9D36D1E8E
:1022E00006E0874819F088F939E0049D00E06D1C8C
:1022F0002F46681E0321069018F0DEFE481C0328B6
:1023000012D00446032812D03CA8861EF01940784B
:1023100018F06EF9012C0CD0BD1EF05D18F068F9B4
:10232000A41E2F46F2D105E000240328ECD13D463F
:1023300000E07D1E0698022810D36C423CA82818A5
:10234000C51EA87818F054F9687818F051F9287863
:1023500018F04EF9E41CED1E002CF2D1009F06206F
:10236000002119F0FBFBF879002802D0654800F045
:1023700015FE7879002802D0634800F00FFE63480C
:1023800000F00CFE029D00E06D1C2E46681E03212D
:10239000059018F091FE481C032803D00546032839
:1023A00003D114E00025032811D03CA8841E374631
:1023B000E019407818F01CF9012D07D0BE1EE05D31
:1023C00018F016F9AD1E3746F2D100E07E1E0598D2
:1023D000022810D374423CA83018C51EA87818F003
:1023E00007F9687818F004F9287818F001F9E41C66
:1023F000ED1E002CF2D104200021039119F0AEFB58
:10240000434819F0F9F8099C002C03D52D2018F049
:10241000EFF864423749204618F04EFE0846012581
:102420000399029504916A1E05920A2201920646BA
:10243000039C234619F070FD07460D46019A23467A
:1024400019F02AFB301A069C20433CA9059A5054E7
:10245000019604980A3E039A904136D30A22002638
:1024600038462946334619F057FD22433CA8029BC3
:10247000C254059911291D46019C28D8204664386C
:102480000498B04123D3642200272046049E31469D
:102490003B4619F041FD0A223B4619F03DFD0698E6
:1024A00002433CA8401942707D20C20020463146BC
:1024B0003B4619F031FDED1C059A102A03D80E4A4F
:1024C000121BB741ADD36D1E02E0029D00E06D1CF2
:1024D0002E46681E0321059018F0EEFD481C0328C7
:1024E00018D00546032818D129E0C04632CE010095
:1024F0003FCF010040420F00E70300007BCE010008
:102500003ED0010083C7010060C90100A3C80100DB
:102510000ED001000025032811D03CA8841E3746A8
:10252000E019407818F064F8012D07D0BE1EE05D78
:1025300018F05EF8AD1E3746F2D100E07E1E059819
:10254000022810D374423CA83018C51EA87818F091
:102550004FF8687818F04CF8287818F049F8E41C1F
:10256000ED1E002CF2D1EE4819F046F80A9C002C22
:1025700003D52D2018F03CF86442EA49204618F0B3
:102580009BFD0846002101250391029504916A1ED6
:1025900005920A2201920646039C234619F0BCFCD0
:1025A00007460D46019A234619F076FA301A069C22
:1025B00020433CA9059A5054019604980A3E039A78
:1025C000904136D30A22002638462946334619F070
:1025D000A3FC22433CA8029BC254059911291D4625
:1025E000019C28D8204664380498B04123D3642243
:1025F00000272046049E31463B4619F08DFC0A22F6
:102600003B4619F089FC069802433CA840194270E9
:102610007D20C200204631463B4619F07DFCED1C72
:10262000059A102A03D8C04A121BB741ADD36D1EBC
:1026300002E0029D00E06D1C2E46681E03210690FC
:1026400018F03AFD481C032803D00546032803D19F
:1026500014E00025032811D03CA8841E3746E01959
:10266000407817F0C5FF012D07D0BE1EE05D17F0C2
:10267000BFFFAD1E3746F2D100E07E1E069802284D
:1026800010D374423CA83018C51EA87817F0B0FFCC
:10269000687817F0ADFF287817F0AAFFE41CED1E4C
:1026A000002CF2D10620002119F058FA9F4800F0C2
:1026B00075FC387A002800D1D9E30020014619F0D2
:1026C0004DFA9B4818F098FF787B401EC0B2042852
:1026D00000D9DFE3800097490858DCE3964818F0FA
:1026E0008BFF964818F088FF239D012400990491E0
:1026F000601E05900A2206922846009E334619F075
:102700000BFC07460291069A334619F0C5F9281AC0
:102710002246302420433CA9059B585403950A3D8A
:1027200004980546B041069436D301920A22002649
:1027300038460299334619F0EFFB22433CA8019C2E
:10274000025505991129039828D80246643A2A4669
:10275000B24123D364220027294606463B4619F09E
:10276000DBFB0A223B4619F0D7FB069802433CA844
:10277000001942707D20C200304629463B4619F0C0
:10278000CBFBE41C059A102A04D8674A921BAF4180
:102790000546ACD3641E02E0144600E0641C2646E5
:1027A000601E0321059018F087FC481C032801D007
:1027B000054600E00025032811D03CA8841E3746BA
:1027C000E019407817F014FF012D07D0BE1EE05D20
:1027D00017F00EFFAD1E3746F2D100E07E1E0598C1
:1027E000022810D374423CA83018C51EA87817F0F0
:1027F000FFFE687817F0FCFE287817F0F9FEE41C5D
:10280000ED1E002CF2D102200021039119F0A6F94F
:102810004B4818F0F1FE199C002C03D52D2017F021
:10282000E7FE64423F49204618F046FC0846012571
:102830000399029504916A1E05920A2201920646A6
:10284000039C234619F068FB07460D46019A234670
:1028500019F022F9301A069C20433CA9059A5054DD
:10286000019604980A3E039A904136D30A22002624
:1028700038462946334619F04FFB22433CA8029BB9
:10288000C254059911291D46019C28D82046643858
:102890000498B04123D3642200272046049E314689
:1028A0003B4619F039FB0A223B4619F035FB0698E6
:1028B00002433CA8401942707D20C20020463146A8
:1028C0003B4619F029FBED1C059A102A03D8164A3D
:1028D000121BB741ADD36D1E02E0029D00E06D1CDE
:1028E0002E46681E0321059018F0E6FB481C0328BD
:1028F00001D0054600E00025032824D03CA8841E12
:102900003746E019407817F073FE012D1AD0BE1E2D
:10291000E05D17F06DFEAD1E3746F2D113E0C04604
:1029200097CD010040420F00E703000026CA0100D6
:10293000CFCB010034C7010029CD01004FCF0100EA
:10294000E1CF01007E1E0598022810D374423CA8F6
:102950003018C51EA87817F04BFE687817F048FEAF
:10296000287817F045FEE41CED1E002CF2D1E34858
:1029700018F042FE289C002C03D52D2017F038FEBD
:102980006442DF49204618F097FB084600210125E4
:102990000391029504916A1E05920A22019206464D
:1029A000039C234619F0B8FA07460D46019A2346C0
:1029B00019F072F8301A069C20433CA9059A50542D
:1029C000019604980A3E039A904136D30A220026C3
:1029D00038462946334619F09FFA22433CA8029B09
:1029E000C254059911291D46019C28D820466438F7
:1029F0000498B04123D3642200272046049E314628
:102A00003B4619F089FA0A223B4619F085FA0698E6
:102A100002433CA8401942707D20C2002046314646
:102A20003B4619F079FAED1C059A102A03D8B54AED
:102A3000121BB741ADD36D1E02E0029D00E06D1C7C
:102A40002E46681E0321059018F036FB481C03280B
:102A500001D0054600E00025032811D03CA8841EC3
:102A60003746E019407817F0C3FD012D07D0BE1E90
:102A7000E05D17F0BDFDAD1E3746F2D100E07E1ED1
:102A80000598022810D374423CA83018C51EA878B7
:102A900017F0AEFD687817F0ABFD287817F0A8FDA9
:102AA000E41CED1E002CF2D104200021039119F04A
:102AB00055F8954818F0A0FD099C002C03D52D2051
:102AC00017F096FD64428E49204618F0F5FA084644
:102AD00001250399029504916A1E05920A2201922A
:102AE0000646039C234619F017FA07460D46019A3D
:102AF000234618F0D1FF301A069C20433CA9059AC2
:102B00005054019604980A3E039A904136D30A2203
:102B1000002638462946334619F0FEF922433CA8E0
:102B2000029BC254059911291D46019C28D82046B4
:102B300064380498B04123D3642200272046049EC1
:102B400031463B4619F0E8F90A223B4619F0E4F910
:102B5000069802433CA8401942707D20C2002046DE
:102B600031463B4619F0D8F9ED1C059A102A03D8D6
:102B7000644A121BB741ADD36D1E02E0029D00E016
:102B80006D1C2E46681E0321059018F095FA481C0E
:102B9000032801D0054600E00025032811D03CA8F9
:102BA000841E3746E019407817F022FD012D07D02A
:102BB000BE1EE05D17F01CFDAD1E3746F2D100E0F1
:102BC0007E1E0598022810D374423CA83018C51EFA
:102BD000A87817F00DFD687817F00AFD287817F02F
:102BE00007FDE41CED1E002CF2D1484818F004FD4E
:102BF000299C002C03D52D2017F0FAFC6442404993
:102C0000204618F059FA0846002101250391029543
:102C100004916A1E05920A2201920646039C2346ED
:102C200019F07AF907460D46019A234618F034FF49
:102C3000301A069C20433CA9059A505401960498EA
:102C40000A3E039A904136D30A2200263846294686
:102C5000334619F061F922433CA8029BC2540599FE
:102C600011291D46019C28D8204664380498B0419B
:102C700023D3642200272046049E31463B4619F0A8
:102C80004BF90A223B4619F047F9069802433CA843
:102C9000401942707D20C200204631463B4619F063
:102CA0003BF9ED1C059A102A03D8F04A121BB741D4
:102CB000ADD36D1E02E0029D00E06D1C2E46681E25
:102CC0000321059018F0F8F9481C032801D00546A7
:102CD00000E0002503281CD03CA8841E3746E019DC
:102CE000407817F085FC012D12D0BE1EE05D17F074
:102CF0007FFCAD1E3746F2D10BE0C046A7CF0100E6
:102D000040420F00E70300000ED0010037CF010062
:102D10007E1E0598022810D374423CA83018C51EA8
:102D2000A87817F065FC687817F062FC287817F02F
:102D30005FFCE41CED1E002CF2D10620002421468D
:102D400018F00CFFD44818F057FC07A8808E012516
:102D500003942146029504916A1E05920A2201926B
:102D60000646039C234619F0D7F807460D46019AFC
:102D7000234618F091FE301A069C20433CA9059A80
:102D80005054019604980A3E039A904136D30A2281
:102D9000002638462946334619F0BEF822433CA89F
:102DA000029BC254059911291D46019C28D8204632
:102DB00064380498B04123D3642200272046049E3F
:102DC00031463B4619F0A8F80A223B4619F0A4F810
:102DD000069802433CA8401942707D20C20020465C
:102DE00031463B4619F098F8ED1C059A102A03D895
:102DF0009E4A121BB741ADD36D1E02E0029D00E05A
:102E00006D1C2E46681E0321069018F055F9481CCB
:102E1000032801D0054600E00025032811D03CA876
:102E2000841E3746E019407817F0E2FB012D07D0E9
:102E3000BE1EE05D17F0DCFBAD1E3746F2D100E0B0
:102E40007E1E0698022800D2A7E074423CA83018E3
:102E5000C51EA87817F0CCFB687817F0C9FB287856
:102E600017F0C6FBE41CED1E002CF2D195E02C7887
:102E70000020014618F072FE002C4ED08A4818F04F
:102E8000BBFB2879401EC0B2032852D88000874976
:102E900008584FE0724818F0AFFB202017F0A8FB4D
:102EA000304618F0A9FB02200024214618F056FEF7
:102EB0006F4818F0A1FB1998C11712F0B1F87548C6
:102EC00018F09AFB2498C11712F0AAF804202146A2
:102ED00018F044FE674818F08FFB1C98C11712F0D9
:102EE0009FF8654818F088FB1D98C11712F098F8F4
:102EF0000620214618F032FE634818F07DFB099841
:102F0000C11712F08DF8664818F076FB07A8808E7E
:102F1000214612F0E7FE634840E0584818F06CFB89
:102F2000387B401EC0B202283CD880004E49085869
:102F300039E04B4818F060FB02200024214618F0CD
:102F40000DFE534818F058FB0898C11712F068F8A6
:102F5000504818F051FB0798C11712F061F804208F
:102F6000214618F0FBFD484818F046FB0998C117A8
:102F700012F056F8454818F03FFB0A98C11712F0B6
:102F80004FF80620214618F0E9FD434818F034FBBD
:102F900007A8808E214612F0A5FE404818F02CFBB1
:102FA00041B0F0BD2F4818F027FB364818F024FB3D
:102FB0003878199911F084FF202017F019FB30465A
:102FC00018F01AFB02200025294618F0C7FD3848E2
:102FD00018F012FB2F98C11712F022F8354818F09C
:102FE0000BFB3799369812F01BF80420294618F08D
:102FF000B5FD204818F000FB78781A9911F060FFB1
:103000001D4818F0F9FAB8781B9911F059FF0620FD
:10301000294618F0A3FD787B04280DD005280DD192
:10302000264818F0E9FAB87B401EC0B2062811D82D
:103030008000234908580EE01F48AFE7F97B22487B
:103040000329ABD1397C0629A8D0204818F0D4FA3E
:10305000387CE9E70A4818F0CFFA1A489EE7C046DC
:1030600029CD01003ED001000CC90100E70300009A
:103070000BCD01000BD001007BCE0100FCCF010085
:1030800032CE01003FCF01000ED0010097CD0100EC
:10309000E1CF0100A7CF01001AD00100D6CA01007C
:1030A000CFCE010031CB01005ECA010000C8010093
:1030B000CECD010027CF0100A8C70100B1CB010090
:1030C00028C6010030CA0100CAC70100D5CB0100E3
:1030D000F0B5CDB00B9105460EA8442101704221F8
:1030E0004170472181702C22C270522101715821F8
:1030F00041710A92827174210491C1713D2106913E
:103100000172002D40D0002401210A220C92264693
:103110000D91144628460C9F394617F0CDFF2346E3
:1031200039460D9F4143691A30220A43741C4AA94B
:103130008A55082E04D8791C5A1C092D0546E6D854
:103140000C930321304617F0B7FF4B1C032B20D004
:103150001846022E20D30D934AAAD31E251A002208
:103160001E19B7780EA989184F7276788E721E5D77
:10317000CE72D21CDB1E9542F2D1A71A09320C99ED
:103180000D9B032B0CD11BE00EA8302141720A21AC
:1031900016E00020022EDED209220C99032B0FD05C
:1031A0000EA989184AAABA18921E53780B700128E2
:1031B00005D013784B70891C921E801EF5D10C9996
:1031C0000C46CBB20EA8C1180A9AC25465204870AA
:1031D000762201928A700390C8706E200090087168
:1031E000049848710698887170210B980291405C90
:1031F0000E2803D88000EC49085800E0EB48E11D98
:103200000578002D24D00D900846C9B20EAAD21818
:103210000C92E924E31A0024A3421BD00D9A16193C
:103220000C9A1719FD717578002D19D04A1CF02AD7
:1032300010D03D72B578002D14D08A1CF02A09D028
:10324000C91CC01C7D72F578E41C002DE4D10AE095
:10325000084608E00B980568F027002D21D1BDE055
:10326000401C00E0801C0746C1B2F029084600D887
:10327000F0200A090E2A10D84B1C0EAA0A9C54549E
:10328000834201D11F4608E08A1C0EAC6225E5543A
:10329000824201D000F07CFE17460B980568002D95
:1032A00034D00D970124671E0A262846314617F0B0
:1032B00003FF4643A91B302631434AAAB954082FBD
:1032C0002FD80A2D2DD30A2117F0F6FE31434AA834
:1032D0000155072F24D8642D22D36421284617F0E6
:1032E000EBFE0A2117F0E8FE31434AA800194170AD
:1032F0007D20C100284617F0DFFEE41C062F03D80E
:10330000AB498D420546CED8641E0AE0F8B20109E9
:103310000E2963D87F1C0D970EA930220A5443E072
:10332000641C0D98C3B2F02B184600D8F0200EA9EB
:10333000C918C21A951E07950593181A401C0990C2
:103340004AA8C71EA01E0890601E0C900026B2421C
:103350001BD03D19A87888550C98B04218D0099810
:10336000801917D068788D1968700898B04215D008
:103370000798B04214D0385D0D9BDB1C0D93A870EC
:10338000F61CFF1EB442E2D10EE0059880190AE057
:103390000D9801E005988019401C04E00D9801E0AB
:1033A00005988019801C0D900D9FF9B2F0290846F0
:1033B00000D8F0200A090E2A10D84A1C0EAB0A9C2D
:1033C0005C54824201D1174608E08B1C0EAC029D72
:1033D000A554834201D000F0AFFD1F460B9805694C
:1033E000002D36D00D97F8B205900124671E0A26ED
:1033F0002846314617F060FE4643A91B302631436C
:103400004AAAB954082F2FD80A2D2DD30A2117F014
:1034100053FE31434AA80155072F24D8642D22D3E7
:103420006421284617F048FE0A2117F045FE314373
:103430004AA8001941707D20C100284617F03CFEC3
:10344000E41C062F03D85A498D420546CED8641E87
:103450000AE0F8B201090F2960D27F1C0D970EA96E
:1034600030220A5441E0641C059AF02A00D8F02268
:103470000EA8059BC018D11A8D1E07959A1A521CCA
:1034800009924AAAD61EA21E0892621E0C9200251C
:10349000A9421BD033199F7847550C9AAA4218D0DD
:1034A000099A571917D05F7843195F70089AAA4292
:1034B00015D0079AAA4214D0375D0D9AD21C0D92EE
:1034C0009F70ED1CF61EAC42E2D10EE0059840194B
:1034D0000AE00D9801E005984019401C04E00D98A1
:1034E00001E005984019801C0D900D9FF8B2F0285E
:1034F000014600D8F02102090E2A0FD8431C0EAA5B
:103500000A9C14548B4201D11F4607E0821C0EAC6A
:103510006125E5548A4200D08AE017460B98456938
:10352000002D36D00D97F8B205900124671E0A26AB
:103530002846314617F0C0FD4643A91B30263143CB
:103540004AAAB954082F36D80A2D34D30A2117F0C5
:10355000B3FD31434AA80155072F2BD8642D29D339
:103560006421284617F0A8FD0A2117F0A5FD314374
:103570004AA8001941707D20C100284617F09CFD23
:10358000E41C062F03D80A498D420546CED8641E96
:1035900011E0F8B201090F2900D39AE07F1C0D97C2
:1035A0000EA930220A547BE098C30100A8CA01008A
:1035B000E7030000641C059AF02A00D8F0220EA848
:1035C000059BC018D11A8D1E07959A1A521C099294
:1035D0004AAAD61EA21E0892621E0C920025A9427B
:1035E0001BD033199F7847550C9AAA4218D0099AD4
:1035F000571917D05F7843195F70089AAA4215D0FF
:10360000079AAA4248D0375D0D9AD21C0D929F703E
:10361000ED1CF61EAC42E2D142E0059840193EE0B6
:103620000D9801E005984019401C38E00D9835E0F0
:10363000C31C0EAD6324AC548B4200D164E7021D61
:103640000EADEC548A4200D167E7431D0EAC039DDA
:10365000A5548B4200D157E7821D0EAC029DE55464
:103660008A4200D159E7C31D0EAC049DA5548B427C
:1036700000D149E7024608320EAC039DE5548A4268
:1036800000D14AE709300EAB64249C54884201D033
:1036900001F041F8074641E705984019801C0D905C
:1036A0000D9FF8B2F028014600D8F02102090E2A39
:1036B0000FD8421C0EAB0A9C1C548A4201D11746FB
:1036C00007E0831C0EAC6C25A5548B4200D083E030
:1036D0001F460B98056A002D36D00D97F8B205905D
:1036E0000124671E0A262846314617F0E5FC4643AA
:1036F000A91B302631434AAAB954082F2FD80A2DC6
:103700002DD30A2117F0D8FC31434AA80155072FC1
:1037100024D8642D22D36421284617F0CDFC0A2139
:1037200017F0CAFC31434AA8001941707D20C1003E
:10373000284617F0C1FCE41C062F03D8EA498D4245
:103740000546CED8641E0AE0F8B201090F2971D2ED
:103750007F1C0D970EA930220A5452E0641C059A72
:10376000F02A00D8F0220EA8059BC018D11A8D1E91
:1037700007959A1A521C09924AAAD61EA21E0892AE
:10378000621E0C920025A9421BD033199F78475521
:103790000C9AAA4218D0099A571917D05F78431982
:1037A0005F70089AAA4215D0079AAA4225D0375DC1
:1037B0000D9AD21C0D929F70ED1CF61EAC42E2D108
:1037C0001FE0059840191BE00D9801E0059840198D
:1037D000401C15E00D9812E0C21C0EAC039DE55490
:1037E0008A4200D16BE7001D0EAB009C9C548842BE
:1037F00001D000F039FF07466BE705984019801C9F
:103800000D900D9FF8B2F028014600D8F021020972
:103810000E2A0FD8441C0EAA0A9B13548C4201D1C5
:10382000274607E0831C0EAD63222A558B4200D049
:1038300083E01F460B98456A002D36D00D97F8B2ED
:1038400005900124671E0A262846314617F034FCED
:103850004643A91B302631434AAAB954082F2FD812
:103860000A2D2DD30A2117F027FC31434AA8015510
:10387000072F24D8642D22D36421284617F01CFC7E
:103880000A2117F019FC31434AA8001941707D2024
:10389000C100284617F010FCE41C062F03D89249FB
:1038A0008D420546CED8641E0AE0F8B201090F2900
:1038B00070D27F1C0D970EA930220A5451E0641C6F
:1038C000059AF02A00D8F0220EA8059BC018D11A3C
:1038D0008D1E07959A1A521C09924AAAD61EA21E3C
:1038E0000892621E0C920025A9421BD033199F78C2
:1038F00047550C9AAA4218D0099A571917D05F78E1
:1039000043195F70089AAA4215D0079AAA4224D098
:10391000375D0D9AD21C0D929F70ED1CF61EAC42C5
:10392000E2D11EE0059840191AE00D9801E00598D3
:103930004019401C14E00D9811E0C41C0EAD722615
:10394000EE548C4200D16BE7001D0EAB1A55884235
:1039500001D000F08FFE07466CE705984019801CE7
:103960000D900D9FF9B2F029084600D8F0200A0901
:103970000E2A0FD84B1C0EAA0A9C5454834201D124
:103980001F4607E08A1C0EAC6625E554824200D033
:1039900083E017460B98856B002D36D00D97F8B253
:1039A00005900124671E0A262846314617F084FB3D
:1039B0004643A91B302631434AAAB954082F2FD8B1
:1039C0000A2D2DD30A2117F077FB31434AA8015560
:1039D000072F24D8642D22D36421284617F06CFBCE
:1039E0000A2117F069FB31434AA8001941707D2074
:1039F000C100284617F060FBE41C062F03D83A49A3
:103A00008D420546CED8641E0AE0F8B201090F299E
:103A100074D27F1C0D970EA930220A5452E0641C08
:103A2000059AF02A00D8F0220EA8059BC018D11ADA
:103A30008D1E07959A1A521C09924AAAD61EA21EDA
:103A40000892621E0C920025A9421BD033199F7860
:103A500047550C9AAA4218D0099A571917D05F787F
:103A600043195F70089AAA4215D0079AAA4225D036
:103A7000375D0D9AD21C0D929F70ED1CF61EAC4264
:103A8000E2D11FE0059840191BE00D9801E0059870
:103A90004019401C15E00D9812E0CB1C0EAC6925B6
:103AA000A554834200D16BE70C1D0EAA039DD5548B
:103AB000844201D000F0E4FD27466BE705984019E9
:103AC000801C0D900D9FF8B2F028014600D8F0211F
:103AD00002090E2A12D8431C0EAA0A9C14548B42C7
:103AE00004D11F460AE0C046E7030000821C0EAC6A
:103AF0006425E5548A4200D083E017460B98456C54
:103B0000002D36D00D97F8B205900124671E0A26C5
:103B10002846314617F0D0FA4643A91B30263143D8
:103B20004AAAB954082F2FD80A2D2DD30A2117F0ED
:103B3000C3FA31434AA80155072F24D8642D22D354
:103B40006421284617F0B8FA0A2117F0B5FA314374
:103B50004AA8001941707D20C100284617F0ACFA30
:103B6000E41C062F03D8F3498D420546CED8641EC7
:103B70000AE0F8B201090F2971D27F1C0D970EA936
:103B800030220A5452E0641C059AF02A00D8F02230
:103B90000EA8059BC018D11A8D1E07959A1A521CA3
:103BA00009924AAAD61EA21E0892621E0C920025F5
:103BB000A9421BD033199F7847550C9AAA4218D0B6
:103BC000099A571917D05F7843195F70089AAA426B
:103BD00015D0079AAA4225D0375D0D9AD21C0D92B6
:103BE0009F70ED1CF61EAC42E2D11FE00598401913
:103BF0001BE00D9801E005984019401C15E00D9858
:103C000012E0C31C0EAC7525A5548B4200D168E7A9
:103C1000001D0EAA029CD454884201D000F041FD40
:103C200007466BE705984019801C0D900D9FF9B26F
:103C3000F029084600D8F0200A090E2A0FD84B1C9C
:103C40000EAA0A9C5454834201D11F4607E08A1CE5
:103C50000EAC6F25E554824200D083E017460B98E6
:103C6000856C002D36D00D97F8B205900124671EA3
:103C70000A262846314617F01FFA4643A91B30266C
:103C800031434AAAB954082F2FD80A2D2DD30A211F
:103C900017F012FA31434AA80155072F24D8642D92
:103CA00022D36421284617F007FA0A2117F004FAF4
:103CB00031434AA8001941707D20C100284617F001
:103CC000FBF9E41C062F03D8B0498D420546CED837
:103CD000641E0AE0F8B201090F2971D27F1C0D970A
:103CE0000EA930220A5452E0641C059AF02A00D82A
:103CF000F0220EA8059BC018D11A8D1E07959A1A9E
:103D0000521C09924AAAD61EA21E0892621E0C924A
:103D10000025A9421BD033199F7847550C9AAA4217
:103D200018D0099A571917D05F7843195F70089A0D
:103D3000AA4215D0079AAA4225D0375D0D9AD21C07
:103D40000D929F70ED1CF61EAC42E2D11FE005986B
:103D500040191BE00D9801E005984019401C15E042
:103D60000D9812E0CB1C0EAC6C25A554834200D1FB
:103D70006BE7091D0EAA6424D454814201D000F0DF
:103D800096FC0F466BE705984019801C0D900D9F1F
:103D9000F9B2F029084600D8F0200A090E2A0FD8F7
:103DA0004A1C0EAB0A9C5C54824201D1174607E0C4
:103DB0008B1C0EAC6F25A554834200D084E01F46B7
:103DC0000B984568002D36D00D97F8B20590012468
:103DD000671E0A262846314617F06EF94643A91B8E
:103DE000302631434AAAB954082F30D80A2D2ED391
:103DF0000A2117F061F931434AA80155072F25D848
:103E0000642D23D36421284617F056F90A2117F0B0
:103E100053F931434AA8001941707D20C10028465A
:103E200017F04AF9E41C062F03D858498D4205467D
:103E3000CED8641E0BE0F8B201090F2900D3BDE013
:103E40007F1C0D970EA930220A5451E0641C059A7C
:103E5000F02A00D8F0220EA8059BC018D11A8D1E9A
:103E600007959A1A521C09924AAAD61EA21E0892B7
:103E7000621E0C920025A9421BD033199F7847552A
:103E80000C9AAA4218D0099A571917D05F7843198B
:103E90005F70089AAA4215D0079AAA4224D0375DCB
:103EA0000D9AD21C0D929F70ED1CF61EAC42E2D111
:103EB0001EE0059840191AE00D9801E00598401998
:103EC000401C14E00D9811E0CA1C0EAC019DE55495
:103ED000824200D16AE7091D0EAB66249C548142E0
:103EE00000D0EAE30F466BE705984019801C0D905F
:103EF0000D9FF9B2F029084600D8F0200A090E2AD1
:103F00005CD84B1C0EAA0A9C5454834201D11F4614
:103F100054E08A1C0EAC6825E554824201D1174654
:103F20004CE0C91C0EAB77249C54814242D10F4611
:103F300044E0C046E7030000CA1C0EAC6125E5540E
:103F4000824201D1FFF73FFA0B1D0EAC7225A5543A
:103F5000834201D1FFF741FA4A1D0EAC7325E554A7
:103F6000824201D1FFF72FFA8B1D0EAC039DA554A1
:103F7000834201D1FFF731FAC91D0EAA6424D4543B
:103F8000814200D0C1E30F46FFF728FAE7030000A3
:103F9000CB1C0EAC7925A554834201D1FFF772F9F1
:103FA0000C1D0EAA049DD554844200D090E32746F0
:103FB000FFF773F93F1D0EA8069A42540B98856DC2
:103FC000002D36D00D97F8B205900124671E0A2601
:103FD0002846314617F070F84643A91B3026314376
:103FE0004AAAB954082F2FD80A2D2DD30A2117F029
:103FF00063F831434AA80155072F24D8642D22D3F2
:104000006421284617F058F80A2117F055F8314373
:104010004AA8001941707D20C100284617F04CF8CD
:10402000E41C062F03D8FE498D420546CED8641EF7
:104030000AE0F8B201090F2950D27F1C0D970EA992
:1040400030220A5441E0641C059AF02A00D8F0227C
:104050000EA8059BC018D11A8D1E07959A1A521CDE
:1040600009924AAAD61EA21E0892621E0C92002530
:10407000A9421BD033199F7847550C9AAA4218D0F1
:10408000099A571917D05F7843195F70089AAA42A6
:1040900015D0079AAA4214D0375D0D9AD21C0D9202
:1040A0009F70ED1CF61EAC42E2D10EE0059840195F
:1040B0000AE00D9801E005984019401C04E00D98B5
:1040C00001E005984019801C0D900D9FF8B2010980
:1040D0000E2903D87F1C0EA92F220A540B98C56DF8
:1040E000002D36D00D97F8B205900124671E0A26E0
:1040F0002846314616F0E0FF4643A91B30263143DF
:104100004AAAB954082F2FD80A2D2DD30A2116F008
:10411000D3FF31434AA80155072F24D8642D22D359
:104120006421284616F0C8FF0A2116F0C5FF314366
:104130004AA8001941707D20C100284616F0BCFF36
:10414000E41C062F03D8B6498D420546CED8641E1E
:104150000AE0F8B201090F2950D27F1C0D970EA971
:1041600030220A5441E0641C059AF02A00D8F0225B
:104170000EA8059BC018D11A8D1E07959A1A521CBD
:1041800009924AAAD61EA21E0892621E0C9200250F
:10419000A9421BD033199F7847550C9AAA4218D0D0
:1041A000099A571917D05F7843195F70089AAA4285
:1041B00015D0079AAA4214D0375D0D9AD21C0D92E1
:1041C0009F70ED1CF61EAC42E2D10EE0059840193E
:1041D0000AE00D9801E005984019401C04E00D9894
:1041E00001E005984019801C0D900D9FF8B201095F
:1041F0000E2903D87F1C0EA92F220A540B98056E96
:10420000002D36D00D97F8B205900124671E0A26BE
:104210002846314616F050FF4643A91B302631434D
:104220004AAAB954082F2FD80A2D2DD30A2116F0E7
:1042300043FF31434AA80155072F24D8642D22D3C8
:104240006421284616F038FF0A2116F035FF314365
:104250004AA8001941707D20C100284616F02CFFA5
:10426000E41C062F03D86E498D420546CED8641E45
:104270000AE0F8B201090F2950D27F1C0D970EA950
:1042800030220A5441E0641C059AF02A00D8F0223A
:104290000EA8059BC018D11A8D1E07959A1A521C9C
:1042A00009924AAAD61EA21E0892621E0C920025EE
:1042B000A9421BD033199F7847550C9AAA4218D0AF
:1042C000099A571917D05F7843195F70089AAA4264
:1042D00015D0079AAA4214D0375D0D9AD21C0D92C0
:1042E0009F70ED1CF61EAC42E2D10EE0059840191D
:1042F0000AE00D9801E005984019401C04E00D9873
:1043000001E005984019801C0D900D9FF8B201093D
:104310000E2903D87F1C0EA92F220A540B98456E34
:10432000002D36D00D97F8B205900124671E0A269D
:104330002846314616F0C0FE4643A91B30263143BD
:104340004AAAB954082F2FD80A2D2DD30A2116F0C6
:10435000B3FE31434AA80155072F24D8642D22D338
:104360006421284616F0A8FE0A2116F0A5FE314366
:104370004AA8001941707D20C100284616F09CFE15
:10438000E41C062F03D8E7498D420546CED8641EAB
:104390000AE0F8B201090F2963D27F1C0D970EA91C
:1043A00030220A5444E0641C059AF02A00D8F02216
:1043B0000EA8059BC018D11A8D1E07959A1A521C7B
:1043C00009924AAAD61EA21E0892621E0C920025CD
:1043D000A9421BD033199F7847550C9AAA4218D08E
:1043E000099A571917D05F7843195F70089AAA4243
:1043F00018D0079AAA4217D0375D0D9AD21C0D9299
:104400009F70ED1CF61EAC42E2D111E005984019F8
:104410000DE00D9801E005984019401C07E0C046EA
:10442000E70300000D9801E005984019801C0D90ED
:104430000D9FF9B2F029084600D8F0200A090E2A8B
:104440000FD84A1C0EAB0A9C5C54824201D117461D
:1044500007E08B1C0EAC7325A554834200D083E08B
:104460001F460B98C46B002C34D00D970126771E85
:104470000A252046294616F01FFE4543611B3025BC
:1044800029434AAAB954082F2FD80A2C2DD30A2120
:1044900016F012FE29434AA88155072F24D8642C10
:1044A00022D36421204616F007FE0A2116F004FEEE
:1044B00029434AA8801941707D20C100204616F08A
:1044C000FBFDF61C062F03D896498C420446CED835
:1044D000761E0AE0F8B201090F296AD27F1C0D97F7
:1044E0000EA930220A5453E0761C0D98C3B2F02B6B
:1044F000184600D8F0200EA9C918C21A941E0994B3
:104500000893181A401C0B904AA8C71EB01E0A90A8
:10451000701E0C900025AA421BD0BC19A0784855EB
:104520000C98A84218D00B98401917D060784C19F5
:1045300060700A98A84215D00998A84224D0B85DA6
:104540000D9BDB1C0D93A070ED1CFF1EAE42E2D153
:104550001EE0089840191AE00D9801E008984019EB
:10456000401C14E00D9811E0CA1C0EAC039DE554EC
:10457000824200D16BE7091D0EAB6D249C54814231
:1045800000D0A0E00F466CE708984019801C0D9001
:104590000D9FF9B208090E280BD8481C0EAA0D234E
:1045A0005354F02801D1F02703E0BF1C0EA90A22C2
:1045B0000A545D4DFFB25D4800885D4E3188C943A5
:1045C00040182840B84205D25B488169491C816186
:1045D0004DB0F0BD7C1E0321204616F06DFD4A1C37
:1045E0000021032A084600D010460C92022C20D34A
:1045F000391A0D9100214F4C0EAA5718525C2B46C8
:10460000358862553288521C1A4032807A78358853
:1046100062553288521C1A403280BA783588625509
:104620001D463288521C1A403280C91C0D9A8A429B
:10463000E2D10C9A032A15D00EAA51183D4A0B78E4
:104640003488135533885B1C2B403380012809D0F4
:104650004B783488135533885B1C2B403380891C7E
:10466000801EECD14DB0F0BD7F1D0EA9069A0A54F4
:10467000FFF72FF87F1D0EA9069A0A54FFF7DAF804
:104680004A1D0EAB6C251D55824201D1FFF781F901
:10469000891D0EAB64249C5481422AD10F46FFF73A
:1046A00079F97F1D0EA9069A0A54FFF727FA7F1D94
:1046B0000EA8069A4254FFF7D2FA7F1D0EA8069A5A
:1046C0004254FFF77DFB7F1D0EA8069A4254C8E6B0
:1046D0004A1D0EAB039D1D55824201D1FEF7DCFD44
:1046E000891D0EAB73249C54814208D10F46FEF7FE
:1046F000D4FDFF1D0EA8069A4254FFF74BF9FF1D8B
:104700000EA8069A4254FEF7C8FD08370EA8069A6E
:104710004254FEF763FE0A370EA9069A0A54FEF7C2
:10472000FDFEC046E7030000FF070000041A20203A
:10473000021A202000002020FC172020F0B5DBB05A
:104740000220C0430F904DA817F076FA11A843211C
:10475000017046214170472282702C210E91C17058
:104760004B2505715021099141713D210D918171B8
:104770004D9C002C069204D4002C65D00B9507218B
:1047800005E00B9511A82D21C171644208210F98F5
:10479000851C00270C9110911098401C10900A263F
:1047A0002046314616F088FC4643A11B30220A43BE
:1047B0007E1C58A9CA556D1C082F03D8092C3746F2
:1047C0000446E9D80321284616F076FC0F994843A1
:1047D0008119CA1E00D11146701E002A18D00A90F5
:1047E00011AA0C98121858AB9C1E4D1E0023A71935
:1047F0007F78D7549D420DD0B71EA65DD018467065
:104800009B1C99423E46F2D10C99C9183E4605E0E0
:104810000C9904E00C98C018411C761E0A980228D6
:104820000B9D0FD311A8401858A9C91E8A19937857
:10483000037052784270F21E8B5D8370C01C002A98
:104840001646F3D1109E03E011A83021C17108264D
:10485000F0B2371D11A90A180E9B0B545570442154
:104860000B9191700D99D1704E9C002C02D40BD0FD
:104870000C9714E080083A280FD8F8B2711D0C91FB
:1048800011A92D220A5409E080083A2865D8F8B207
:10489000771D11A930220A545FE00C9764420F98EB
:1048A000851C00270C9810901098401C10900A2628
:1048B0002046314616F000FC4643A11B30220A4335
:1048C0007E1C58A9CA556D1C082F03D8092C3746E1
:1048D0000446E9D80321284616F0EEFB0F99484319
:1048E0008319D91E00D10B460C98C4B2701E002942
:1048F00017D00A9011A90C940C1958A98F1E591E93
:104900000025BA1952786255A9420ED0B21EBE5D7A
:1049100060194670AD1CAB421646F2D10C9C64196E
:1049200007E03246022807D216E00C984019441CD2
:10493000721E0A9802280FD311A8001958A9C91E7F
:104940008B189C7804705B784370D31E8A5C8270ED
:10495000C01C002B1A46F3D1109FF8B2BE1D11A93E
:104960000A180E9B0B545621039151704D2108914A
:10497000917041210C91D170582313710D9951718F
:104980004F9C002C059309D411D1400874286CD891
:10499000F0B2FE1D11A930220A5466E040087428C6
:1049A00004D8F0B2FE1D11A92D220A5464420F98BA
:1049B000851C00270A9610961098401C10900A2615
:1049C0002046314616F078FB4643A11B30220A43AD
:1049D0007E1C58A9CA556D1C082F03D8092C3746D0
:1049E0000446E9D80321284616F066FB0F99484390
:1049F0008319D91E00D10B460A98C4B2701E002933
:104A000017D0079011A90A940C1958A98F1E591E86
:104A10000025BA1952786255A9420ED0B21EBE5D69
:104A200060194670AD1CAB421646F2D10A9C64195F
:104A300007E03246022807D216E00A984019441CC3
:104A4000721E079802280FD311A8001958A9C91E71
:104A50008B189C7804705B784370D31E8A5C8270DC
:104A6000C01C002B1A46F3D1109EF0B2B71D11A93D
:104A70000A180E9B0B5442210A91517049239370DE
:104A80000C99D1705321049111710D995171509C61
:104A9000002C029302D40BD0079714E0400874282E
:104AA0000FD8F8B2F11D079111A92D220A5409E07F
:104AB0004008742865D8F8B2F71D11A930220A54AD
:104AC0005FE0079764420F98851C002707981090B5
:104AD0001098401C10900A262046314616F0ECFA39
:104AE0004643A11B30220A437E1C58A9CA556D1C9F
:104AF000082F03D8092C37460446E9D80321284655
:104B000016F0DAFA0F9948438319D91E00D10B46E3
:104B10000798C4B2701E002917D0019011A90794FC
:104B20000C1958A98F1E591E0025BA1952786255C2
:104B3000A9420ED0B21EBE5D60194670AD1CAB42DC
:104B40001646F2D1079C641907E03246022807D2C4
:104B500016E007984019441C721E019802280FD3D2
:104B600011A8001958A9C91E8B189C7804705B788D
:104B70004370D31E8A5C8270C01C002B1A46F3D18E
:104B8000109FFBB23C1D11A8C1180E9AC2540C987C
:104B90004870099888700D98C8704DA8058A002D36
:104BA00042D001940793791D0F98841C002710911F
:104BB0000A262846314616F07FFA109B4643A91B69
:104BC00030220A437E1C58A9CA55641C082F04D8F9
:104BD000591C092D37460546E9D80321204616F011
:104BE0006BFA0F9948438119CA1E00D11146731EF2
:104BF000002A22D0019311A8079A821858A8841E6F
:104C00004D1E0023A0194778D01807719D4219D076
:104C1000B71EA65D46719B1C99423E46F2D107988D
:104C2000C018011D3E4611E098083A2823D8E0B28A
:104C30007B1D11A930220A541EE00198C1B2022B3B
:104C400007D216E00798C018411D761E019B022B63
:104C50000FD311A8401858A9C91E8A199378037058
:104C600052784270F21E8B5D8370C01C002A16467B
:104C7000F3D1109B00E02346DCB21E1D11A80119E0
:104C80000E9A02550C9848704E2088700D98C87086
:104C90004DA8458A002D42D001960794591D0F98C2
:104CA000841C002710910A262846314616F004FA83
:104CB000109B4643A91B30220A437E1C58A9CA55A3
:104CC000641C082F04D8591C092D37460546E9D81D
:104CD0000321204616F0F0F90F9948438119CA1EA6
:104CE00000D11146731E002A22D0019311A8079A01
:104CF000821858A8841E4D1E0023A0194778D0188A
:104D000007719D4219D0B71EA65D46719B1C994242
:104D10003E46F2D10798C018011D3E4611E0A0089A
:104D20003A2823D8F0B25B1D11A930220A541EE0A4
:104D30000198C1B2022B07D216E00798C018411D96
:104D4000761E019B022B0FD311A8401858A9C91E2B
:104D50008A199378037052784270F21E8B5D8370CB
:104D6000C01C002A1646F3D1109B00E03346DCB28B
:104D70001E1D11A801190E9A025554224A700B9853
:104D800088700D98C8704DA8858A002D079242D072
:104D900000960194591D0F98841C002710910A2633
:104DA0002846314616F088F9109B4643A91B30224D
:104DB0000A437E1C58A9CA55641C082F04D8591CE4
:104DC000092D37460546E9D80321204616F074F927
:104DD0000F9948438119CA1E00D11146731E002A3B
:104DE00022D0009311A8019A821858A8841E4D1E43
:104DF0000023A0194778D01807719D4219D0B71E1B
:104E0000A65D46719B1C99423E46F2D10198C0189E
:104E1000011D3E4611E0A0083A2823D8F0B25B1DE0
:104E200011A930220A541EE00098C1B2022B07D209
:104E300016E00198C018411D761E009B022B0FD36F
:104E400011A8401858A9C91E8A199378037052787E
:104E50004270F21E8B5D8370C01C002A1646F3D18F
:104E6000109B00E03346DCB21E1D11A801190E9AFA
:104E700002550A984870089888700D98C8704DA817
:104E8000C58A002D42D000960194591D0F98841CAC
:104E9000002710910A262846314616F00DF9109B7E
:104EA0004643A91B30220A437E1C58A9CA55641CDC
:104EB000082F04D8591C092D37460546E9D8032187
:104EC000204616F0F9F80F9948438119CA1E00D1FF
:104ED0001146731E002A22D0009311A8019A82184D
:104EE00058A8841E4D1E0023A0194778D0180771BA
:104EF0009D4219D0B71EA65D46719B1C99423E4645
:104F0000F2D10198C018011D3E4611E0A0083A28D0
:104F100023D8F0B25B1D11A930220A541EE000987C
:104F2000C1B2022B07D216E00198C018411D761EAF
:104F3000009B022B0FD311A8401858A9C91E8A192B
:104F40009378037052784270F21E8B5D8370C01CA0
:104F5000002A1646F3D1109B00E03346DCB29E1DBA
:104F600011A801190E9A0255039848700C98887080
:104F70000998C87008710D9848714DA8058B002DCF
:104F800042D003960994D91D0F98841C00271091D4
:104F90000A262846314616F08FF8109B4643A91B77
:104FA00030220A437E1C58A9CA55641C082F04D815
:104FB000591C092D37460546E9D80321204616F02D
:104FC0007BF80F9948438119CA1E00D11146731E00
:104FD000002A22D0039311A8099A821858A8841E87
:104FE0004D1E0023A0194778D01887719D4217D015
:104FF000B71EA65DC6719B1C99423E46F2D1099828
:10500000C018811D3E460FE06008742822D8F0B217
:10501000DB1D11A930220A541DE00398C1B204E03F
:105020000998C018C11D761E039B022B029C0FD34A
:1050300011A8401858A9C91E8A199378037052788C
:105040004270F21E8B5D8370C01C002A1646F3D19D
:10505000109B01E03346029CD8B21D465E1D11A98B
:105060000A180E9B0B540B995170947052210991A0
:10507000D1700D99117128214DAA5456002C08D4D5
:105080000FD1EA286BD8F0B2AE1D11A930220A5414
:1050900065E0EA2804D8F0B2AE1D11A92D220A5409
:1050A00064420F98851C0027039610961098401CA8
:1050B00010900A262046314615F0FEFF4643A11BFC
:1050C00030220A437E1C58A9CA556D1C082F03D8EC
:1050D000092C37460446E9D80321284615F0ECFF91
:1050E0000F9948438319D91E00D10B460398C4B2C7
:1050F000701E002917D0029011A903940C1958A909
:105100008F1E591E0025BA1952786255A9420ED039
:10511000B21EBE5D60194670AD1CAB421646F2D1A0
:10512000039C641907E03246022807D216E0039870
:105130004019441C721E029802280FD311A80019AE
:1051400058A9C91E8B189C7804705B784370D31ED5
:105150008A5C8270C01C002B1A46F3D1109EF0B2FC
:105160003546761D11A90A180E9B0B5408995170EB
:105170000C9991700599D1700D991171549C002C66
:1051800008D40FD1EA286BD8F0B2AE1D11A9302295
:105190000A5465E0EA2804D8F0B2AE1D11A92D2208
:1051A0000A5464420F98851C00270C96109610989C
:1051B000401C10900A262046314615F07DFF4643DC
:1051C000A11B30220A437E1C58A9CA556D1C082F0A
:1051D00003D8092C37460446E9D80321284615F0A0
:1051E0006BFF0F9948438319D91E00D10B460C98C9
:1051F000C4B2701E002917D0089011A90C940C1984
:1052000058A98F1E591E0025BA1952786255A94215
:105210000ED0B21EBE5D60194670AD1CAB42164684
:10522000F2D10C9C641907E03246022807D216E03E
:105230000C984019441C721E089802280FD311A81C
:10524000001958A9C91E8B189C7804705B784370AC
:10525000D31E8A5C8270C01C002B1A46F3D1109EAC
:10526000049CF0B2B71D11A90A180E9B0B54547080
:105270004C2191704521D170572111710D995171B7
:10528000559C002C02D40BD00C9714E040087428D5
:105290000FD8F8B2F11D0C9111A92D220A5409E082
:1052A0004008742865D8F8B2F71D11A930220A54B5
:1052B0005FE00C9764420F98851C00270C981090B3
:1052C0001098401C10900A262046314615F0F4FE36
:1052D0004643A11B30220A437E1C58A9CA556D1CA7
:1052E000082F03D8092C37460446E9D8032128465D
:1052F00015F0E2FE0F9948438319D91E00D10B46E1
:105300000C98C4B2701E002917D0089011A90C94F3
:105310000C1958A98F1E591E0025BA1952786255CA
:10532000A9420ED0B21EBE5D60194670AD1CAB42E4
:105330001646F2D10C9C641907E03246022807D2C7
:1053400016E00C984019441C721E089802280FD3CE
:1053500011A8001958A9C91E8B189C7804705B7895
:105360004370D31E8A5C8270C01C002B1A46F3D196
:10537000109FFBB23C1D11A8C1180E9AC2540B9885
:1053800048700A9888700D98C8704DA8858C002DBB
:1053900042D00B940C93791D0F98841C0027109118
:1053A0000A262846314615F087FE109B4643A91B66
:1053B00030220A437E1C58A9CA55641C082F04D801
:1053C000591C092D37460546E9D80321204615F01A
:1053D00073FE0F9948438119CA1E00D11146731EEE
:1053E000002A22D00B9311A80C9A821858A8841E68
:1053F0004D1E0023A0194778D01807719D4219D07F
:10540000B71EA65D46719B1C99423E46F2D10C9890
:10541000C018011D3E4611E098083A2823D8E0B292
:105420007B1D11A930220A541EE00B98C1B2022B39
:1054300007D216E00C98C018411D761E0B9B022B5C
:105440000FD311A8401858A9C91E8A199378037060
:1054500052784270F21E8B5D8370C01C002A164683
:10546000F3D1109B00E02346DCB21E1D11A80119E8
:105470000E9A025509984870069888700D98C87061
:105480004DA8C58C002D42D00B960C94591D0F9839
:10549000841C002710910A262846314615F00CFE80
:1054A000109B4643A91B30220A437E1C58A9CA55AB
:1054B000641C082F04D8591C092D37460546E9D825
:1054C0000321204615F0F8FD0F9948438119CA1EA3
:1054D00000D11146731E002A22D00B9311A80C9AFA
:1054E000821858A8841E4D1E0023A0194778D01892
:1054F00007719D4219D0B71EA65D46719B1C99424B
:105500003E46F2D10C98C018011D3E4611E0A0089D
:105510003A2823D8F0B25B1D11A930220A541EE0AC
:105520000B98C1B2022B07D216E00C98C018411D8F
:10553000761E0B9B022B0FD311A8401858A9C91E29
:105540008A199378037052784270F21E8B5D8370D3
:10555000C01C002A1646F3D1109B00E03346D8B297
:105560001D46DE1C11A90A180E9B0B540799517099
:105570000D99917000226B498C5E002C0E9208D41C
:105580000FD1EC286BD8F0B22E1D11A930220A548D
:1055900065E0EC2804D8F0B22E1D11A92D220A5482
:1055A00064420F98851C00270D9610961098401C99
:1055B00010900A262046314615F07EFD4643A11B79
:1055C00030220A437E1C58A9CA556D1C082F03D8E7
:1055D000092C37460446E9D80321284615F06CFD0E
:1055E0000F9941438B19D91E00D10B460D98C4B2B7
:1055F000701E002917D00D9011A90F940C1958A9ED
:105600008F1E591E0025BA1952786255A9420ED034
:10561000B21EBE5D60194670AD1CAB421646F2D19B
:105620000F9C641907E03246022807D216E00F9853
:105630004019441C721E0D9802280FD311A800199E
:1056400058A9C91E8B189C7804705B784370D31ED0
:105650008A5C8270C01C002B1A46F3D1109E324D1A
:10566000B01CF1B211AA53180D2454540A215970D8
:10567000C7B22E4800882E4E3188C94340182840B2
:10568000B84205D22C488169491C81615BB0F0BDEC
:105690007C1E0321204615F00FFD491C03290E989E
:1056A00000D008460F91022C0E9D1F4A1ED3391AB6
:1056B000109100251F4B11AF7C197F5D31885F541D
:1056C0003188491C1140318061783788D95531883B
:1056D000491C11403180A178348819553188491C02
:1056E00011403180ED1C1099A942E4D10F99032992
:1056F00016D0174611A949190E4A0B78348813554C
:1057000033885B1C3B403380012809D04B783488B8
:10571000135533885B1C3B403380891C801EECD1C1
:105720005BB0F0BD001A2020FF070000041A202003
:10573000021A202000002020FC172020F0B5D3B052
:105740000C930D4604461192506B211A0D910026C0
:10575000F14300280B4600D00D9BA7488268A01A91
:105760000392002A00D001460A910B9014A844210C
:10577000017042214170472181702C22C270432167
:10578000017154214171522181714C21C1711292D8
:1057900002727421049141723D2109918172002CA1
:1057A000059407933CD00F9501210C2235461391A7
:1057B00017460A262046314615F07EFC139B4643C9
:1057C000A11B30220A436E1C50A94A55082D04D84B
:1057D000591C7A1C092C0446E8D81C461097032152
:1057E000284615F069FC4F1C032F1ED03846022DA9
:1057F0001ED3139750AAD31E341A00229D19AF78D6
:1058000014A98918CF726D780D739D5D4D73D21CEC
:10581000DB1E9442F2D1B31A0B321099139F0AE0A7
:1058200014A83021C1720C2118E00020022DE0D212
:1058300023460B221099032F0F9D0FD014A989180E
:1058400050AA9A18921E53780B70012805D013782D
:105850004B70891C921E801EF5D110990C46C8B25F
:1058600014A90A18129B0B546F2151706C210291DC
:10587000917064210191D17009991171072D03D89C
:10588000A9005E4A525800E05D4A11996C311191AD
:10589000611D1778002F2AD0CBB214AC24180F94B6
:1058A000EB24201A10900026F020109CB442139094
:1058B00037D094190F9DAD196F716778002F13D0F1
:1058C00010465A1CF02A2CD0AF71A778002F0DD0AB
:1058D0009A1CF02A25D0DB1CC91CEF71E778F61C56
:1058E000002F0246E0D102E0491C00E0891CCBB247
:1058F000F02B1A4600D8F02218090E2801D913916E
:105900000FE0581C14AC129DE554904201D1139045
:1059100007E09C1C14AD6E262E54944200D094E0F7
:1059200013941199C9780729069103D88900334A3D
:10593000525800E0324A1178002913982FD0C3B290
:10594000F02B1D4600D8F02514ACE4180895ED1A8C
:10595000AB1E0E9310956B1E0F930023109D9D425E
:1059600018D0D618E1547778002F15D00F999942A6
:1059700010D0E1184F70B778002F0FD015460E9A4F
:105980009A4207D0C01C8F70F178DB1C00292A4690
:10599000E4D104E0089802E0401C00E0801C589923
:1059A00008910699052900D0BBE0C2B2F02A114641
:1059B00000D8F02113090E2B0ED8541C14AB129DE5
:1059C0009D548C4201D1204606E0931C14AD632601
:1059D0002E558B424AD11846059C11998978072982
:1059E0000B9B6BD8074DC0467944097949008F4419
:1059F0000B665B5D5961635F10162020E8C50100EE
:105A0000A8CA0100A3C90100F94D0399002956D085
:105A1000F84AC73A934252D87021089B595C091F33
:105A2000C9B20B2905D2F44BCB40DB0701D000F003
:105A300007FE0899496D631AF04D93422A4600D833
:105A4000EF4A00293BD0154639E0D81C14AD652635
:105A50002E55904200D15AE71B1D14AC77252554D2
:105A6000934201D000F0D1FD13935AE7D41C14AD3A
:105A70006126EE548C42A6D0131D14AD75262E550A
:105A80008B42A8D0541D14AD7326EE548C429AD08C
:105A9000921D14AB65251D558A4201D000F0E6FD2C
:105AA000104699E7D74D0AE0D74D08E0D74D06E0FC
:105AB000D74D04E0D74D02E0D74D00E0D74D2F7809
:105AC000002F2ED01095C1B2F0290B4600D8F0233C
:105AD00014AA521813935B1A991E0E91591E0F9116
