:10000000008020205F3001006700010067000100D0
:1000100000000000000000000000000000000000E0
:100020000000000000000000000000006700010068
:1000300000000000000000006700010079FC0000E3
:1000400067000100BD29010067000100551F010084
:100050006700010067000100670001006700010000
:1000600000000000670001006700010000000000C0
:100070000000000067000100391401006700010062
:1000800067000100670001006700010067000100D0
:100090006700010067000100000000000000000090
:1000A0006700010067000100000000000000000080
:1000B0006700010000000000670001006700010008
:1000C000F0B5C1B018AF07AD36AC204612F0DAFB80
:1000D0002FA811F081FF384611F0CCFC284612F011
:1000E000ADFB207DE17C002901D0C14E00E0C14E76
:1000F0004937002800D0C04E3879002800970FD02B
:100100000020014612F07AFCBC4812F0FFF9B87AE0
:10011000401EC0B2022818D88000B949085815E01E
:10012000B879002800D198E00020014612F066FC62
:10013000B44812F0EBF9387B401EC0B2022800D957
:10014000CFE08000B0490858CCE0B04812F0DEF9AA
:10015000AF4812F0DBF9387B401EC0B2022803D84A
:100160008000A949085800E0AA48002412F0CEF9FE
:1001700002200194214612F041FCA74812F0C6F972
:100180003878002865D0199C002C03D52D2011F05B
:10019000F1FA6442A149204611F0DEFF084601252C
:1001A0000199049505916A1E06920A220392074658
:1001B000019E334612F0F0FD04460D46039A334685
:1001C00012F0BAFB381A302318433CA9069A50544F
:1001D000039705990A3F0846B0415DD30A220E46AF
:1001E0000027204629461C463B4612F0D5FD2346F3
:1001F00022433CA8049C0255069911292546039ADE
:100200004CD8104664383046B84147D3174664226C
:100210000024384631460293234612F0BDFD0A22DF
:10022000234612F0B9FD029802433CA840194270DF
:100230007D20C20038463146234612F0ADFDED1C4C
:10024000069A102A03D8764AD21BB441A9D36D1E50
:1002500025E0704812F05AF904E13C35687900282D
:1002600000D175E200242046214612F0C7FB6D48FC
:1002700012F04CF902200394214612F0BFFB6148B2
:1002800012F044F96879401EC0B2042800D9B1E2E6
:10029000800065490858AEE2049D00E06D1C2F46C1
:1002A000681E0321069011F057FF481C032813D045
:1002B0000446032813D03CA8861EF019407811F09C
:1002C00059FA012C00D1B7E0BD1EF05D11F052FAD1
:1002D000A41E2F46F1D1B0E000240328EBD13D4607
:1002E000ABE04C48002412F011F9504812F00EF91E
:1002F000304612F00BF90220214612F07FFB4C48E9
:1003000012F004F904200194214612F077FB4948C9
:1003100012F0FCF87878002800D115E21A9C002C25
:1003200003D52D2011F026FA64423C49204611F0F5
:1003300013FF0D460126019904910596701E069043
:100340000A2203922846019F3B4612F025FD0446EF
:100350000E46039A3B4612F0EFFA281A3023184350
:100360003CA9069A505403950A3D04980546B841A5
:1003700000D203E20A220027204631461C463B46B3
:1003800012F00AFD234622433CA8059C025506991B
:1003900011292646039A00D9F2E11046643828460E
:1003A000B84100D2ECE117466422002438462946C1
:1003B0000293234612F0F0FC0A22234612F0ECFCD2
:1003C000029802433CA8801942707D20C200384642
:1003D0002946234612F0E0FCF61C069A102A04D89F
:1003E0000F4AD21BAC410546A6D3761EC9E1C046D2
:1003F0008337010003390100BB380100693801006F
:1004000014350100213A01000835010005380100CA
:1004100087390100D93501007937010040420F00CA
:10042000E7030000C0340100D8330100D0350100DB
:10043000B0340100C73901007D1E0698022810D390
:100440006C423CA82818C51EA87811F093F968786A
:1004500011F090F9287811F08DF9E41CED1E002CB4
:10046000F2D1009F04200021019112F0C7FAD64872
:1004700012F04CF87878002865D01A9C002C03D52F
:100480002D2011F077F96442D049204611F064FE26
:10049000084601250199049505916A1E06920A22D3
:1004A00003920746019E334612F076FC04460D4641
:1004B000039A334612F040FA381A302318433CA905
:1004C000069A5054039705990A3F0846B0413ED317
:1004D0000A220E460027204629461C463B4612F0BB
:1004E0005BFC234622433CA8049C02550699112933
:1004F0002546039A2DD8104664383046B84128D393
:10050000174664220024384631460293234612F0EF
:1005100043FC0A22234612F03FFC029802433CA807
:10052000401942707D20C20038463146234612F001
:1005300033FCED1C069A102A03D8A54AD21BB441FD
:10054000A9D36D1E06E0A34811F0E0FF39E0049D39
:1005500000E06D1C2F46681E0321069011F0FCFD83
:10056000481C032812D00446032812D03CA8861E3B
:10057000F019407811F0FEF8012C0CD0BD1EF05D92
:1005800011F0F8F8A41E2F46F2D105E0002403284C
:10059000ECD13D4600E07D1E0698022810D36C4247
:1005A0003CA82818C51EA87811F0E4F8687811F066
:1005B000E1F8287811F0DEF8E41CED1E002CF2D1F1
:1005C000009F854811F0A2FFB878002866D01B9CD8
:1005D000002C03D52D2011F0CDF864427B49204634
:1005E00011F0BAFD084600210125019104950591FD
:1005F0006A1E06920A2203920746019E334612F0B3
:10060000CBFB04460D46039A334612F095F9381A8F
:10061000302318433CA9069A5054039705990A3F82
:100620000846B0413ED30A220E46002720462946FE
:100630001C463B4612F0B0FB234622433CA8049CD8
:100640000255069911292546039A2DD8104664387B
:100650003046B84128D31746642200243846314634
:100660000293234612F098FB0A22234612F094FBD1
:10067000029802433CA8401942707D20C2003846CF
:100680003146234612F088FBED1C069A102A03D847
:100690004F4AD21BB441A9D36D1E06E04D4811F05C
:1006A00035FF39E0049D00E06D1C2F46681E0321D4
:1006B000069011F051FD481C032812D0044603286F
:1006C00012D03CA8861EF019407811F053F8012C86
:1006D0000CD0BD1EF05D11F04DF8A41E2F46F2D1D6
:1006E00005E000240328ECD13D4600E07D1E06987D
:1006F000022810D36C423CA82818C51EA87811F017
:1007000039F8687811F036F8287811F033F8E41CDD
:10071000ED1E002CF2D1009F0620002112F06EF990
:10072000F87A032804D0022805D12C4800F0AEFF47
:100730002B4800F0ABFFB87A032802D0294800F01C
:10074000A5FF294800F0A2FF224811F0DFFED3E008
:10075000787A002800D124E300200090014612F0AE
:100760004DF9224811F0D2FEF87B401EC0B202289B
:1007700000D92BE380001E49085828E3059E00E0BD
:10078000761C701E0321069011F0E6FC481C03281D
:1007900014D00446032814D03CA83746861EF0190E
:1007A000407810F0E7FF012C00D18FE0BD1EF05D16
:1007B00010F0E0FFA41E2F46F1D188E000240328AA
:1007C000EAD1354683E0C046C739010040420F00F8
:1007D000E7030000D9350100CF3801003B340100A8
:1007E0007F340100DD3401004C340100FB3701008F
:1007F000FC340100F94811F089FEF94811F086FE39
:10080000089C002C03D52D2010F0B4FF6442F5495C
:10081000204611F0A1FC0846012503990295049198
:100820006A1E05920A2206920646039C234612F08F
:10083000B3FA07460D46069A234612F07DF8301AA1
:10084000302420433CA9059A5054019604980A3E4E
:10085000039A9041069400D20CE10A220026384601
:100860002946334612F098FA22433CA8029BC25410
:10087000059911291D46019C00D9FDE020466438E8
:100880000498B04100D2F7E0642200272046049E7D
:1008900031463B4612F080FA0A223B4612F07CFABF
:1008A000069802433CA8401942707D20C2002046B1
:1008B00031463B4612F070FAED1C059A102A03D817
:1008C000C94A121BB741A9D36D1ED6E07D1E0698FA
:1008D000022810D36C423CA82818C51EA87810F036
:1008E00049FF687810F046FF287810F043FFE41CB9
:1008F000ED1E002CF2D1009FBC4811F007FEB87825
:10090000002866D01B9C002C03D52D2010F032FF50
:100910006442B449204611F01FFC0846002101251D
:100920000191049505916A1E06920A2203920746D8
:10093000019E334612F030FA04460D46039A3346C0
:1009400011F0FAFF381A302318433CA9069A505484
:10095000039705990A3F0846B0413ED30A220E4646
:100960000027204629461C463B4612F015FA23462E
:1009700022433CA8049C0255069911292546039A56
:100980002DD8104664383046B84128D31746642223
:100990000024384631460293234612F0FDF90A221C
:1009A000234612F0F9F9029802433CA8401942701C
:1009B0007D20C20038463146234612F0EDF9ED1C89
:1009C000069A102A03D8884AD21BB441A9D36D1EB7
:1009D00006E0874811F09AFD39E0049D00E06D1CA7
:1009E0002F46681E0321069011F0B6FB481C032811
:1009F00012D00446032812D03CA8861EF019407875
:100A000010F0B8FE012C0CD0BD1EF05D10F0B2FE4F
:100A1000A41E2F46F2D105E000240328ECD13D4668
:100A200000E07D1E0698022810D36C423CA82818CE
:100A3000C51EA87810F09EFE687810F09BFE2878FE
:100A400010F098FEE41CED1E002CF2D1009F062051
:100A5000002111F0D3FFF879002802D0654800F09A
:100A600015FE7879002802D0634800F00FFE634835
:100A700000F00CFE029D00E06D1C2E46681E032156
:100A8000059011F069FB481C032803D00546032894
:100A900003D114E00025032811D03CA8841E37465A
:100AA000E019407810F066FE012D07D0BE1EE05D13
:100AB00010F060FEAD1E3746F2D100E07E1E0598B4
:100AC000022810D374423CA83018C51EA87810F034
:100AD00051FE687810F04EFE287810F04BFEE41CB2
:100AE000ED1E002CF2D104200021039111F086FFAD
:100AF000434811F00BFD099C002C03D52D2010F06C
:100B000039FE64423749204611F026FB084601258C
:100B10000399029504916A1E05920A2201920646E3
:100B2000039C234612F038F907460D46019A2346E6
:100B300011F002FF301A069C20433CA9059A50543C
:100B4000019604980A3E039A904136D30A22002661
:100B500038462946334612F01FF922433CA8029B2F
:100B6000C254059911291D46019C28D82046643895
:100B70000498B04123D3642200272046049E3146C6
:100B80003B4612F009F90A223B4612F005F9069895
:100B900002433CA8401942707D20C20020463146E5
:100BA0003B4612F0F9F8ED1C059A102A03D80E4ABC
:100BB000121BB741ADD36D1E02E0029D00E06D1C1B
:100BC0002E46681E0321059011F0C6FA481C032822
:100BD00018D00546032818D129E0C0464138010045
:100BE0006739010040420F00E7030000CF380100E1
:100BF000D93501002834010038350100EB340100FB
:100C0000093A01000025032811D03CA8841E37466C
:100C1000E019407810F0AEFD012D07D0BE1EE05D5A
:100C200010F0A8FDAD1E3746F2D100E07E1E0598FB
:100C3000022810D374423CA83018C51EA87810F0C2
:100C400099FD687810F096FD287810F093FDE41C6B
:100C5000ED1E002CF2D1EE4811F058FC0A9C002C3D
:100C600003D52D2010F086FD6442EA49204611F09C
:100C700073FA0846002101250391029504916A1E2A
:100C800005920A2201920646039C234612F084F83C
:100C900007460D46019A234611F04EFE301A069C77
:100CA00020433CA9059A5054019604980A3E039AA1
:100CB000904136D30A22002638462946334612F0A0
:100CC0006BF822433CA8029BC254059911291D468A
:100CD000019C28D8204664380498B04123D364226C
:100CE00000272046049E31463B4612F055F80A2262
:100CF0003B4612F051F8069802433CA84019427056
:100D00007D20C200204631463B4612F045F8ED1CDE
:100D1000059A102A03D8C04A121BB741ADD36D1EE5
:100D200002E0029D00E06D1C2E46681E0321069025
:100D300011F012FA481C032803D00546032803D1FA
:100D400014E00025032811D03CA8841E3746E01982
:100D5000407810F00FFD012D07D0BE1EE05D10F0B1
:100D600009FDAD1E3746F2D100E07E1E069802282E
:100D700010D374423CA83018C51EA87810F0FAFCB5
:100D8000687810F0F7FC287810F0F4FCE41CED1EF5
:100D9000002CF2D10620002111F030FE9F4800F017
:100DA00075FC387A002800D1D9E30020014611F003
:100DB00025FE9B4811F0AAFB787B401EC0B2042898
:100DC00000D9DFE3800097490858DCE3964811F02A
:100DD0009DFB964811F09AFB239D012400990491F4
:100DE000601E05900A2206922846009E334611F0A6
:100DF000D3FF07460291069A334611F09DFD281A4B
:100E00002246302420433CA9059B585403950A3DB3
:100E100004980546B041069436D301920A22002672
:100E200038460299334611F0B7FF22433CA8019C93
:100E3000025505991129039828D80246643A2A4692
:100E4000B24123D364220027294606463B4611F0CF
:100E5000A3FF0A223B4611F09FFF069802433CA8DD
:100E6000001942707D20C200304629463B4611F0F1
:100E700093FFE41C059A102A04D8674A921BAF41DD
:100E80000546ACD3641E02E0144600E0641C26460E
:100E9000601E0321059011F05FF9481C032801D062
:100EA000054600E00025032811D03CA8841E3746E3
:100EB000E019407810F05EFC012D07D0BE1EE05D09
:100EC00010F058FCAD1E3746F2D100E07E1E0598AA
:100ED000022810D374423CA83018C51EA87810F020
:100EE00049FC687810F046FC287810F043FCE41CBC
:100EF000ED1E002CF2D102200021039111F07EFDA5
:100F00004B4811F003FB199C002C03D52D2010F049
:100F100031FC64423F49204611F01EF90846012584
:100F20000399029504916A1E05920A2201920646CF
:100F3000039C234611F030FF07460D46019A2346D5
:100F400011F0FAFC301A069C20433CA9059A505433
:100F5000019604980A3E039A904136D30A2200264D
:100F600038462946334611F017FF22433CA8029B1E
:100F7000C254059911291D46019C28D82046643881
:100F80000498B04123D3642200272046049E3146B2
:100F90003B4611F001FF0A223B4611F0FDFE069888
:100FA00002433CA8401942707D20C20020463146D1
:100FB0003B4611F0F1FEED1C059A102A03D8164AA3
:100FC000121BB741ADD36D1E02E0029D00E06D1C07
:100FD0002E46681E0321059011F0BEF8481C032818
:100FE00001D0054600E00025032824D03CA8841E3B
:100FF0003746E019407810F0BDFB012D1AD0BE1E17
:10100000E05D10F0B7FBAD1E3746F2D113E0C046ED
:10101000A137010040420F00E7030000A0350100A6
:1010200070360100EC33010005380100533901002E
:101030000C3A01007E1E0598022810D374423CA889
:101040003018C51EA87810F095FB687810F092FB58
:10105000287810F08FFBE41CED1E002CF2D1E34841
:1010600011F054FA289C002C03D52D2010F082FB9F
:101070006442DF49204611F06FF80846002101253F
:101080000391029504916A1E05920A220192064676
:10109000039C234611F080FE07460D46019A234625
:1010A00011F04AFC301A069C20433CA9059A505482
:1010B000019604980A3E039A904136D30A220026EC
:1010C00038462946334611F067FE22433CA8029B6E
:1010D000C254059911291D46019C28D82046643820
:1010E0000498B04123D3642200272046049E314651
:1010F0003B4611F051FE0A223B4611F04DFE069888
:1011000002433CA8401942707D20C200204631466F
:101110003B4611F041FEED1C059A102A03D8B54A52
:10112000121BB741ADD36D1E02E0029D00E06D1CA5
:101130002E46681E0321059011F00EF8481C032866
:1011400001D0054600E00025032811D03CA8841EEC
:101150003746E019407810F00DFB012D07D0BE1E78
:10116000E05D10F007FBAD1E3746F2D100E07E1EB9
:101170000598022810D374423CA83018C51EA878E0
:1011800010F0F8FA687810F0F5FA287810F0F2FA12
:10119000E41CED1E002CF2D104200021039111F07B
:1011A0002DFC954811F0B2F9099C002C03D52D2097
:1011B00010F0E0FA64428E49204610F0CDFF084658
:1011C00001250399029504916A1E05920A22019253
:1011D0000646039C234611F0DFFD07460D46019AA3
:1011E000234611F0A9FB301A069C20433CA9059A1E
:1011F0005054019604980A3E039A904136D30A222D
:10120000002638462946334611F0C6FD22433CA845
:10121000029BC254059911291D46019C28D82046DD
:1012200064380498B04123D3642200272046049EEA
:1012300031463B4611F0B0FD0A223B4611F0ACFDB1
:10124000069802433CA8401942707D20C200204607
:1012500031463B4611F0A0FDED1C059A102A03D83B
:10126000644A121BB741ADD36D1E02E0029D00E03F
:101270006D1C2E46681E0321059010F06DFF481C62
:10128000032801D0054600E00025032811D03CA822
:10129000841E3746E019407810F06CFA012D07D013
:1012A000BE1EE05D10F066FAAD1E3746F2D100E0DA
:1012B0007E1E0598022810D374423CA83018C51E23
:1012C000A87810F057FA687810F054FA287810F0DF
:1012D00051FAE41CED1E002CF2D1484811F016F929
:1012E000299C002C03D52D2010F044FA644240497B
:1012F000204610F031FF0846002101250391029598
:1013000004916A1E05920A2201920646039C234616
:1013100011F042FD07460D46019A234611F00CFBE1
:10132000301A069C20433CA9059A50540196049813
:101330000A3E039A904136D30A22002638462946AF
:10134000334611F029FD22433CA8029BC254059963
:1013500011291D46019C28D8204664380498B041C4
:1013600023D3642200272046049E31463B4611F0D9
:1013700013FD0A223B4611F00FFD069802433CA8DC
:10138000401942707D20C200204631463B4611F094
:1013900003FDED1C059A102A03D8F04A121BB74131
:1013A000ADD36D1E02E0029D00E06D1C2E46681E4E
:1013B0000321059010F0D0FE481C032801D00546FB
:1013C00000E0002503281CD03CA8841E3746E01905
:1013D000407810F0CFF9012D12D0BE1EE05D10F064
:1013E000C9F9AD1E3746F2D10BE0C0469F39010066
:1013F00040420F00E7030000093A01007339010081
:101400007E1E0598022810D374423CA83018C51ED1
:10141000A87810F0AFF9687810F0ACF9287810F0DF
:10142000A9F9E41CED1E002CF2D10620002421466F
:1014300011F0E4FAD44811F069F807A8808E01256C
:1014400003942146029504916A1E05920A22019294
:101450000646039C234611F09FFC07460D46019A61
:10146000234611F069FA301A069C20433CA9059ADC
:101470005054019604980A3E039A904136D30A22AA
:10148000002638462946334611F086FC22433CA804
:10149000029BC254059911291D46019C28D820465B
:1014A00064380498B04123D3642200272046049E68
:1014B00031463B4611F070FC0A223B4611F06CFCB1
:1014C000069802433CA8401942707D20C200204685
:1014D00031463B4611F060FCED1C059A102A03D8FA
:1014E0009E4A121BB741ADD36D1E02E0029D00E083
:1014F0006D1C2E46681E0321069010F02DFE481C20
:10150000032801D0054600E00025032811D03CA89F
:10151000841E3746E019407810F02CF9012D07D0D1
:10152000BE1EE05D10F026F9AD1E3746F2D100E098
:101530007E1E0698022800D2A7E074423CA830180C
:10154000C51EA87810F016F9687810F013F92878FD
:1015500010F010F9E41CED1E002CF2D195E02C786F
:101560000020014611F04AFA002C4ED08A4810F0B3
:10157000CDFF2879401EC0B2032852D88000874989
:1015800008584FE0724810F0C1FF202010F0F2F828
:10159000304610F0BBFF02200024214611F02EFA45
:1015A0006F4810F0B3FF1998C1170BF003FC754892
:1015B00010F0ACFF2498C1170BF0FCFB042021466F
:1015C00011F01CFA674810F0A1FF1C98C1170BF02E
:1015D000F1FB654810F09AFF1D98C1170BF0EAFB6C
:1015E0000620214611F00AFA634810F08FFF09988F
:1015F000C1170BF0DFFB664810F088FF07A8808E4C
:1016000021460CF04DF8634840E0584810F07EFF4A
:10161000387B401EC0B202283CD880004E49085892
:1016200039E04B4810F072FF02200024214611F0EF
:10163000E5F9534810F06AFF0898C1170BF0BAFBA0
:10164000504810F063FF0798C1170BF0B3FB04205C
:10165000214611F0D3F9484810F058FF0998C117F6
:101660000BF0A8FB454810F051FF0A98C1170BF08A
:10167000A1FB0620214611F0C1F9434810F046FFB6
:1016800007A8808E21460CF00BF8404810F03EFF72
:1016900041B0F0BD2F4810F039FF364810F036FF4A
:1016A000387819990BF0D6FA202010F063F83046FC
:1016B00010F02CFF02200025294611F09FF9384830
:1016C00010F024FF2F98C1170BF074FB354810F071
:1016D0001DFF379936980BF06DFB0420294611F059
:1016E0008DF9204810F012FF78781A990BF0B2FAB1
:1016F0001D4810F00BFFB8781B990BF0ABFA0620D1
:10170000294611F07BF9787B04280DD005280DD1EE
:10171000264810F0FBFEB87B401EC0B2062811D848
:101720008000234908580EE01F48AFE7F97B2248A4
:101730000329ABD1397C0629A8D0204810F0E6FE59
:10174000387CE9E70A4810F0E1FE1A489EE7C046F7
:1017500005380100D935010008350100E703000014
:1017600079370100C7390100CF380100213A010063
:101770004138010067390100093A0100A137010031
:101780000C3A01009F390100F439010020360100B4
:10179000073901000B360100BE350100903401000D
:1017A00078380100D33801006E3401009A36010008
:1017B00058330100AA3501005D3401002E360100C6
:1017C000F0B58DB0002611F0FBFB044630463146E3
:1017D00011F014F9D64810F099FE0194E06A012541
:1017E00004963146039505916A1E06920A220792D5
:1017F0000746049D2B4611F0CFFA04460E46079A81
:101800002B4611F099F8381A3025284308A9069A72
:101810005054029705980A3F049A9041079536D391
:101820000A220027204631463B4611F0B5FA2A43EA
:1018300008A8039BC254069911291D46029E28D868
:10184000304664380598B84123D3642200243046DA
:10185000059F3946234611F09FFA0A22234611F0CC
:101860009BFA0798024308A8401942707D20C200E5
:1018700030463946234611F08FFAED1C069A102A9D
:1018800003D8AC4A921BBC41ACD36D1E02E0039D51
:1018900000E06D1C681E0321069010F05DFC481CE2
:1018A000032803D00446032803D114E000240328AE
:1018B00011D008A82F46861EF01940780FF05AFF65
:1018C000012C07D0BD1EF05D0FF054FFA41E2F4663
:1018D000F2D100E07D1E0698022810D36C4208A8C1
:1018E0002818C51EA8780FF045FF68780FF042FF52
:1018F00028780FF03FFFE41CED1E002CF2D18E483B
:1019000010F004FE0198006B00210125049103955D
:1019100005916A1E06920A2202920746049D2B46F2
:1019200011F03AFA04460E46029A2B4611F004F8DA
:10193000381A079D284308A9069A5054029705981B
:101940000A3F049A904136D30A22002720463146A6
:101950003B4611F021FA2A4308A8039BC25406997A
:1019600011291D46029E28D8304664380598B84192
:1019700023D3642200243046059F3946234611F0C4
:101980000BFA0A22234611F007FA0798024308A827
:10199000401942707D20C20030463946234611F07E
:1019A000FBF9ED1C069A102A03D8624A921BBC412F
:1019B000ADD36D1E02E0039D00E06D1C681E032187
:1019C000069010F0C9FB481C032803D004460328E6
:1019D00003D114E00024032811D008A82F46861E46
:1019E000F01940780FF0C6FE012C07D0BD1EF05D47
:1019F0000FF0C0FEA41E2F46F2D100E07D1E069817
:101A0000022810D36C4208A82818C51EA8780FF029
:101A1000B1FE68780FF0AEFE28780FF0ABFEE41C44
:101A2000ED1E002CF2D102200024214610F0E6FF2A
:101A3000424810F06BFD0198406B0125049421464B
:101A4000039505916A1E06920A2202920746049D9A
:101A50002B4611F0A1F904460E46029A2B4610F0CF
:101A60006BFF381A079D284308A9069A505402971D
:101A700005980A3F049A904136D30A22002720464F
:101A800031463B4611F088F92A4308A8039BC2540B
:101A9000069911291D46029E28D8304664380598BB
:101AA000B84123D3642200243046059F394623469B
:101AB00011F072F90A22234611F06EF907980243D9
:101AC00008A8401942707D20C2003046394623469E
:101AD00011F062F9ED1C069A102A03D8154A921BE0
:101AE000BC41ADD36D1E02E0039D00E06D1C681E7D
:101AF0000321069010F030FB481C032803D0044655
:101B0000032803D11DE0002403281AD008A82F467B
:101B1000861EF01940780FF02DFE012C10D0BD1E4E
:101B2000F05D0FF027FEA41E2F46F2D109E0C0465B
:101B3000DC390100E70300009B3801008F39010008
:101B40007D1E0698022810D36C4208A82818C51ECE
:101B5000A8780FF00FFE68780FF00CFE28780FF0D1
:101B600009FEE41CED1E002CF2D1D64810F0CEFC8C
:101B70000198806B002101250491039505916A1E4F
:101B800006920A2202920746049D2B4611F004F9A0
:101B900004460E46029A2B4610F0CEFE381A079DD8
:101BA000284308A9069A5054029705980A3F049AB8
:101BB000904136D30A220027204631463B4611F099
:101BC000EBF82A4308A8039BC254069911291D4625
:101BD000029E28D8304664380598B84123D3642241
:101BE00000243046059F3946234611F0D5F80A22D5
:101BF000234611F0D1F80798024308A84019427013
:101C00007D20C20030463946234611F0C5F8ED1C50
:101C1000069A102A03D8AC4A921BBC41ADD36D1E64
:101C200002E0039D00E06D1C681E0321069010F089
:101C300093FA481C032803D00446032803D114E078
:101C40000024032811D008A82F46861EF0194078DA
:101C50000FF090FD012C07D0BD1EF05D0FF08AFD46
:101C6000A41E2F46F2D100E07D1E0698022810D354
:101C70006C4208A82818C51EA8780FF07BFD68786C
:101C80000FF078FD28780FF075FDE41CED1E002C98
:101C9000F2D104200024214610F0B0FE8B4810F051
:101CA00035FC0198C06B01250494214603950591EC
:101CB0006A1E06920A2202920746049D2B4611F0E4
:101CC0006BF804460E46029A2B4610F035FE381A81
:101CD000079D284308A9069A5054029705980A3F81
:101CE000049A904136D30A220027204631463B46CB
:101CF00011F052F82A4308A8039BC25406991129EF
:101D00001D46029E28D8304664380598B84123D332
:101D1000642200243046059F3946234611F03CF8E2
:101D20000A22234611F038F80798024308A8401900
:101D300042707D20C20030463946234611F02CF80F
:101D4000ED1C069A102A03D85F4A921BBC41ADD302
:101D50006D1E02E0039D00E06D1C681E03210690CD
:101D600010F0FAF9481C032803D00446032803D1D5
:101D700014E00024032811D008A82F46861EF0196D
:101D800040780FF0F7FC012C07D0BD1EF05D0FF07E
:101D9000F1FCA41E2F46F2D100E07D1E0698022819
:101DA00010D36C4208A82818C51EA8780FF0E2FCD2
:101DB00068780FF0DFFC28780FF0DCFCE41CED1EE7
:101DC000002CF2D1424810F0A1FB0198C06C002118
:101DD00001250491039505916A1E06920A2202923A
:101DE0000746049D2B4610F0D7FF04460E46029A84
:101DF0002B4610F0A1FD381A079D284308A9069A22
:101E00005054029705980A3F049A904136D30A220B
:101E10000027204631463B4610F0BEFF2A4308A863
:101E2000039BC254069911291D46029E28D83046AC
:101E300064380598B84123D3642200243046059FB6
:101E40003946234610F0A8FF0A22234610F0A4FFCB
:101E50000798024308A8401942707D20C20030460E
:101E60003946234610F098FFED1C069A102A03D835
:101E7000154A921BBC41ADD36D1E02E0039D00E0EC
:101E80006D1C681E0321069010F066F9481C03289B
:101E900003D00446032803D11DE0002403281AD0F0
:101EA00008A82F46861EF01940780FF063FC012C1D
:101EB00010D0BD1EF05D0FF05DFCA41E2F46F2D1C8
:101EC00009E0C046AA380100E70300009B39010081
:101ED000B53701007D1E0698022810D36C4208A871
:101EE0002818C51EA8780FF045FC68780FF042FC52
:101EF00028780FF03FFCE41CED1E002CF2D10620E8
:101F00000024214610F07AFDE04810F0FFFA019815
:101F1000006C012504942146039505916A1E0692E2
:101F20000A2202920746049D2B4610F035FF044614
:101F30000E46029A2B4610F0FFFC381A079D2843E4
:101F400008A9069A5054029705980A3F049A9041AE
:101F500036D30A220027204631463B4610F01CFFAC
:101F60002A4308A8039BC254069911291D46029EC4
:101F700028D8304664380598B84123D36422002419
:101F80003046059F3946234610F006FF0A222346B5
:101F900010F002FF0798024308A8401942707D2004
:101FA000C20030463946234610F0F6FEED1C069A74
:101FB000102A03D8B44A921BBC41ADD36D1E02E077
:101FC000039D00E06D1C681E0321069010F0C4F80C
:101FD000481C032803D00446032803D114E000243E
:101FE000032811D008A82F46861EF01940780FF05C
:101FF000C1FB012C07D0BD1EF05D0FF0BBFBA41E82
:102000002F46F2D100E07D1E0698022810D36C42C4
:1020100008A82818C51EA8780FF0ACFB68780FF048
:10202000A9FB28780FF0A6FBE41CED1E002CF2D1D2
:10203000974810F06BFA0198406C0021012504913B
:10204000039505916A1E06920A2202920746049D94
:102050002B4610F0A1FE04460E46029A2B4610F0C5
:102060006BFC381A079D284308A9069A505402971A
:1020700005980A3F049A904136D30A220027204649
:1020800031463B4610F088FE2A4308A8039BC25401
:10209000069911291D46029E28D8304664380598B5
:1020A000B84123D3642200243046059F3946234695
:1020B00010F072FE0A22234610F06EFE07980243CB
:1020C00008A8401942707D20C20030463946234698
:1020D00010F062FEED1C069A102A03D86A4A921B81
:1020E000BC41ADD36D1E02E0039D00E06D1C681E77
:1020F0000321069010F030F8481C032803D0044652
:10210000032803D114E00024032811D008A82F4687
:10211000861EF01940780FF02DFB012C07D0BD1E54
:10212000F05D0FF027FBA41E2F46F2D100E07D1ECC
:102130000698022810D36C4208A82818C51EA87853
:102140000FF018FB68780FF015FB28780FF012FBE2
:10215000E41CED1E002CF2D14E4810F0D7F9019886
:10216000866C002001240490014603940691601EB1
:1021700005900A2202923046049D2B4610F00CFE78
:1021800007460C46029A2B4610F0D6FB301A079DE4
:10219000284308A9059A505402960A3E06980499C5
:1021A000884136D30A22002638462146334610F0AD
:1021B000F3FD06992A4308A8039C0255059B112BA1
:1021C000029D28D8284664380846B04123D36422AB
:1021D0001E46002728463B4610F0DEFD0A223B46FD
:1021E00010F0DAFD0798024308A8001942707D201C
:1021F000C200284606993B4610F0CEFD069BE41C23
:10220000102E04D8204A521B9F410646ADD3641EAF
:1022100002E0039C00E0641C2646601E0321079038
:102220000FF09AFF481C032803D00546032803D16A
:1022300014E00025032811D008A8841E3746E019B1
:1022400040780FF097FA012D07D0BE1EE05D0FF029
:1022500091FAAD1E3746F2D100E07E1E07980228A3
:1022600010D3744208A83018C51EA8780FF082FA5F
:1022700068780FF07FFA28780FF07CFAE41CED1EE6
:10228000002CF2D10DB0F0BDE7030000B33901001E
:10229000C93701008D370100F0B5B3B00220C0434B
:1022A00008902AA810F0A4FC0AA843210170462136
:1022B0004170472282702C210791C1704B25057116
:1022C000502141713D21069181712A9C002C03927D
:1022D00004D4002C65D00495072105E004950AA8D4
:1022E0002D21C171644208210898851C00270591A1
:1022F00009910998401C09900A26204631460FF0A2
:102300002BFF4643A11B30220A437E1C30A9CA552D
:102310006D1C082F03D8092C37460446E9D8032141
:1023200028460FF019FF089948438119CA1E00D1A9
:102330001146701E002A18D002900AAA0598121899
:1023400030AB9C1E4D1E0023A7197F78D7549D42A9
:102350000DD0B71EA65DD01846709B1C99423E4614
:10236000F2D10599C9183E4605E0059904E00598A3
:10237000C018411C761E02980228049D0FD30AA89B
:10238000401830A9C91E8A19937803705278427098
:10239000F21E8B5D8370C01C002A1646F3D1099E85
:1023A00003E00AA83021C1710826F0B2371D0AA93E
:1023B0000A18079B0B54557044200590907006989E
:1023C000D0702B9C002C02D40DD0049718E070B272
:1023D0000321C943884211DBF8B2711D04910AA997
:1023E0002D220A540BE070B20321C943884265DBF9
:1023F000F8B2771D0AA930220A545FE004976442BC
:102400000898851C0027049809900998401C099099
:102410000A26204631460FF09FFE4643A11B30227C
:102420000A437E1C30A9CA556D1C082F03D8092CFD
:1024300037460446E9D8032128460FF08DFE089957
:1024400048438319D91E00D10B460498C4B2701EAC
:10245000002917D002900AA904940C1930A98F1EE4
:10246000591E0025BA1952786255A9420ED0B21EE3
:10247000BE5D60194670AD1CAB421646F2D1049C9D
:10248000641907E03246022807D216E00498401982
:10249000441C721E029802280FD30AA8001930A902
:1024A000C91E8B189C7804705B784370D31E8A5CBD
:1024B0008270C01C002B1A46F3D1099FF8B27D1D13
:1024C0000AA90A18079B0B54059850704920907070
:1024D0005223D3700698107114202AA90C56002C90
:1024E000029302D40DD0049518E078B20421C943B8
:1024F000884211DBE8B2B91D04910AA92D220A54C1
:102500000BE078B20421C943884265DBE8B2BD1D07
:102510000AA930220A545FE0049564420898851C99
:102520000027049809900998401C09900A26204623
:1025300031460FF011FE4643A11B30220A437E1C98
:1025400030A9CA556D1C082F03D8092C37460446FC
:10255000E9D8032128460FF0FFFD08994843831965
:10256000D91E00D10B460498C4B2701E002917D0A2
:1025700001900AA904940C1930A98F1E591E002538
:10258000BA1952786255A9420ED0B21EBE5D6019CA
:102590004670AD1CAB421646F2D1049C641907E0AC
:1025A0003246022807D216E004984019441C721ED5
:1025B000019802280FD30AA8001930A9C91E8B1848
:1025C0009C7804705B784370D31E8A5C8270C01C58
:1025D000002B1A46F3D1099DE8B26E1D0AA90A180C
:1025E000079B0B544D205070412090705820D070A4
:1025F000069810712C9C002C0BD415D168B20421C4
:10260000C94388426EDBF0B2AE1D0AA930220A54DB
:1026100068E068B20421C943884204DBF0B2AE1D11
:102620000AA92D220A5464420898851C00270496A2
:1026300009960998401C09900A26204631460FF059
:102640008BFD4643A11B30220A437E1C30A9CA558C
:102650006D1C082F03D8092C37460446E9D80321FE
:1026600028460FF079FD089948438319D91E00D1F7
:102670000B460498C4B2701E002917D001900AA915
:1026800004940C1930A98F1E591E0025BA195278CE
:102690006255A9420ED0B21EBE5D60194670AD1CD7
:1026A000AB421646F2D1049C641907E03246022878
:1026B00007D216E004984019441C721E01980228A3
:1026C0000FD30AA8001930A9C91E8B189C78047072
:1026D0005B784370D31E8A5C8270C01C002B1A4644
:1026E000F3D1099EF0B2B71D0AA90A18079B0B5433
:1026F000532050704C2090704520D070572010719E
:10270000069850712D9C002C02D40DD0049718E02F
:1027100070B20521C943884211DBF8B2F11D049162
:102720000AA92D220A540BE070B20521C943884240
:1027300065DBF8B2F71D0AA930220A545FE004975E
:1027400064420898851C0027049809900998401C49
:1027500009900A26204631460FF0FEFC4643A11B95
:1027600030220A437E1C30A9CA556D1C082F03D89D
:10277000092C37460446E9D8032128460FF0ECFC23
:10278000089948438319D91E00D10B460498C4B256
:10279000701E002917D001900AA904940C1930A9C1
:1027A0008F1E591E0025BA1952786255A9420ED0C3
:1027B000B21EBE5D60194670AD1CAB421646F2D12A
:1027C000049C641907E03246022807D216E00498F8
:1027D0004019441C721E019802280FD30AA8001940
:1027E00030A9C91E8B189C7804705B784370D31E87
:1027F0008A5C8270C01C002B1A46F3D1099FFBB281
:102800003C1D0AA8C118079A0493C2540598487041
:10281000422088700698C8702AA8058A002D41D0E9
:102820000594791D0898841C002709910A262846DA
:1028300031460FF091FC099B4643A91B30220A4305
:102840007E1C30A9CA55641C082F04D8591C092DB8
:1028500037460546E9D8032120460FF07DFC08994C
:1028600048438119CA1E00D11146731E002A25D083
:1028700005930AA8049A821830A8841E4D1E0023CE
:10288000A0194778D01807719D421CD0B71EA65DCD
:1028900046719B1C99423E46F2D10498C018011D16
:1028A0003E4614E078B20321C943884204DBE0B21B
:1028B0007C1D0AA930220A54039A1DE00598C1B272
:1028C000022B07D216E00498C018411D761E059B06
:1028D000022B0FD30AA8401830A9C91E8A19937871
:1028E000037052784270F21E8B5D8370C01C002A08
:1028F0001646F3D1039A099CE5B2261D0AA8411990
:10290000079B05954355029848708A700698C870D1
:102910002AA8458A002D41D00796611D0898841C7D
:10292000002709910A26284631460FF015FC099B1D
:102930004643A91B30220A437E1C30A9CA55641C99
:10294000082F04D8591C092D37460546E9D803211C
:1029500020460FF001FC089941438919CA1E00D195
:102960001146731E002A24D008930AA8059A8218DB
:1029700030A8841E4D1E0023A0194778D018077177
:102980009D421BD0B71EA65D46719B1C99423E46D8
:10299000F2D10598C018011D3E4613E060B2032134
:1029A000C943884223DBF0B2631D0AA930220A54CE
:1029B0001EE00798C1B2022B07D216E00598C01896
:1029C000411D761E089B022B0FD30AA8401830A980
:1029D000C91E8A199378037052784270F21E8B5D7B
:1029E0008370C01C002A1646F3D1099B00E03346D1
:1029F000314D981CD9B20AAA53180D2454540A21F7
:102A00005970C7B22D4800882D4E3188C9434018EF
:102A10002840B84205D22C488169491C816133B0F5
:102A2000F0BD7C1E032120460FF096FB4A1C0021BE
:102A3000032A084600D010460892022C20D3391AE7
:102A4000099100211F4C0AAA5718525C2B46358861
:102A500062553288521C1A4032807A783588625525
:102A60003288521C1A403280BA78358862551D4629
:102A70003288521C1A403280C91C099A8A42E2D11B
:102A8000089A032A15D00AAA51180E4A0B783488DE
:102A9000135533885B1C2B403380012809D04B78B9
:102AA0003488135533885B1C2B403380891C801E6F
:102AB000ECD133B0F0BDC046FF070000FC18202069
:102AC000FA18202000002020FC162020F0B59FB02E
:102AD00010F0A6FA054610F0A7FA064610F024FA00
:102AE000297800240029049602D06968411A00E080
:102AF000E1436F78781E874108919729059501D3A6
:102B0000264600E001260BAD28460FF027FF285F80
:102B10001221059D0291695E411ADF48814200DB66
:102B20000146DE48814200DC0146039120462146F1
:102B30000FF064FFDA480FF0E9FC2878002804D091
:102B40000898962803D9D74807E0D74805E0687861
:102B5000002801D0D54800E0D54837403E46D54C46
:102B60000FF0D4FCD4480FF0D1FC2878002860D0B6
:102B700001960898A04200D30894002001260690F0
:102B80000146089C07910996701E0A900A22089235
:102B90002046069E334610F0FFF805460F46089A79
:102BA00033460FF0C9FE201A302318431AA90A9A97
:102BB000505408940A3C07980446B0413ED30A2278
:102BC0000026284639461D46334610F0E5F82A43CC
:102BD0001AA8099942540A991129089830D8274609
:102BE000014664392146B1412AD32B46642200258F
:102BF000044639461E462B4610F0CEF80A222B46D4
:102C000010F0CAF832431AA8099E801942707D203C
:102C1000C200204639462B4610F0BEF8F61C0A9A30
:102C2000102A04D8A34A121BBD410446AAD3761E1B
:102C300008E0A2480FF06AFC049F3BE0099E01E017
:102C4000099E761C701E03210A900FF085FA481C1D
:102C5000032803D00546032803D114E000250328E8
:102C600011D01AA8841E3746E01940780EF082FD74
:102C7000012D07D0BE1EE05D0EF07CFDAD1E374677
:102C8000F2D100E07E1E0A98022810D374421AA8DE
:102C90003018C51EA8780EF06DFD68780EF06AFD3C
:102CA00028780EF067FDE41CED1E002CF2D1049F85
:102CB000059D019E0220002421460FF09FFE8048C2
:102CC0000FF024FC002E04D00298285E09F056FE76
:102CD00002E07C480FF01AFC7B480FF017FC0BA8B1
:102CE000005F09F04BFE79480FF010FC002E04D075
:102CF000039800B209F042FE02E072480FF006FCB1
:102D0000042000210FF07AFE71480FF0FFFB06202F
:102D10000BAC205E09F032FE6E480FF0F7FB109806
:102D20005E49884200DC08465B49884200DB084671
:102D300009F024FE68480FF0E9FB3920205C0528E3
:102D400003D880006549085800E065480FF0DEFBB5
:102D50000620002421460FF051FE287800286BD071
:102D600060480FF0D3FB288A0CF054F95E480FF04E
:102D7000CDFB688B0CF04EF95C480FF0C7FB0FF0F1
:102D80005DFE012206942146144609940891621EB4
:102D90000A920A2207920546069C23460FF0FCFF82
:102DA00007460E46079A23460FF0C6FD281A302321
:102DB00018431AA90A9A5054079508990A3D0846DB
:102DC000A04142D30A220C460025384631461E4611
:102DD0002B460FF0E1FF334632431AA809994254BB
:102DE0000A991129079E32D8304664382046A841F6
:102DF0002DD3642200273046254621461C463B46FB
:102E00000FF0CAFF0A223B460FF0C6FF22431AA862
:102E1000099C001942707D20C200304629463B467D
:102E20000FF0BAFFE41C0A9A102A03D8214A921B19
:102E3000AF41AAD3641E0CE02D480FF067FB386841
:102E4000C0087C2856D91B4E55E0099C01E0099C1E
:102E5000641C601E03210A900FF07EF9481C0328B1
:102E600014D00546032814D01AA82746841EE0195A
:102E700040780EF07FFC012D00D196E0BE1EE05D93
:102E80000EF078FCAD1E3746F1D18FE00025032807
:102E9000EAD126468AE0C046FF7F00000080FFFF9F
:102EA00046360100643601001E380100FD3901007C
:102EB00041380100E7030000173901007B390100A8
:102EC0000C3A0100D93501009F3901003F3901005A
:102ED0000F3A0100E73801002B3A0100903301005E
:102EE000AF390100243A01005339010007390100CC
:102EF000D03901003E680020012505900146079168
:102F00000895681E09900A220A923046059C2346BD
:102F10000FF042FF07460D460A9A23460FF00CFDBC
:102F2000301A302318431AA9099A505406960A3EBB
:102F300007980646A0410A934ED30A220024384639
:102F4000294623460FF028FF0A9802431AA8089939
:102F50004254099B112B06980D463FD8014664390F
:102F60003146A1413AD364220027044631463B460C
:102F70000FF012FF0A223B460FF00EFF0A980243A1
:102F80001AA8401942707D20C200204631463B46B7
:102F90000FF002FFED1C099A102A04D8C34A121B35
:102FA000B7410646ABD36D1E19E07E1E0A98022873
:102FB00000D278E174421AA83018C51EA8780EF025
:102FC000D9FB68780EF0D6FB28780EF0D3FBE41C12
:102FD000ED1E002CF2D166E1089D00E06D1C681E1C
:102FE000032109900FF0B8F8481C032812D00646B8
:102FF000032812D01AA8841E601940780EF0BAFB7C
:10300000012E0CD0AF1E605D0EF0B4FBB61E3D4627
:10301000F2D105E000260328ECD12F4600E06F1E18
:103020000998022810D37C421AA83818C51EA8781F
:103030000EF0A0FB68780EF09DFB28780EF09AFB4E
:10304000E41CED1E002CF2D19A480FF05FFA0498B0
:1030500005699648854200D3054600200124049066
:1030600001460891601E09900A2207922846049E94
:1030700033460FF091FE07460691079A33460FF04C
:103080005BFC281A22460A9C20431AA9099B585423
:1030900007950A3D08980546B04136D305920A22A5
:1030A00000263846069933460FF076FE22431AA8CA
:1030B000059C025509991129079828D80246643AB7
:1030C0002A46B24123D364220027294606463B46BE
:1030D0000FF062FE0A223B460FF05EFE0A980243A2
:1030E0001AA8001942707D20C200304629463B468E
:1030F0000FF052FEE41C099A102A04D86B4A921B66
:10310000AF410546ADD3641E02E0144600E0641CE6
:103110002646601E032109900FF01EF8481C032864
:1031200003D00546032803D114E00025032811D05D
:103130001AA8841E3746E01940780EF01BFB012DBB
:1031400007D0BE1EE05D0EF015FBAD1E3746F2D176
:1031500000E07E1E0998022810D374421AA8301885
:10316000C51EA8780EF006FB68780EF003FB2878E1
:103170000EF000FBE41CED1E002CF2D14C480FF0C9
:10318000C5F90FF05BFC0021012507910695089118
:103190006A1E09920A2205920646079C23460FF0F2
:1031A000FBFD07460D46059A23460FF0C5FB301A76
:1031B0000A9C20431AA9099A5054059608980A3E79
:1031C000079A904136D30A220026384629463346CC
:1031D0000FF0E2FD22431AA8069BC2540999112957
:1031E0001D46059C28D8204664380898B04123D352
:1031F000642200272046089E31463B460FF0CCFD56
:103200000A223B460FF0C8FD0A9802431AA840194B
:1032100042707D20C200204631463B460FF0BCFD87
:10322000ED1C099A102A03D8204A121BB741ADD3CE
:103230006D1E02E0069D00E06D1C2E46681E0321F7
:103240000A900EF089FF481C032803D00546032886
:1032500003D114E00025032811D01AA8841E374694
:10326000E01940780EF086FA012D07D0BE1EE05D11
:103270000EF080FAAD1E3746F2D100E07E1E0A98AD
:10328000022810D374421AA83018C51EA8780EF070
:1032900071FA68780EF06EFA28780EF06BFAE41C7A
:1032A000ED1E002CF2D11FB0F0BDC046E7030000B8
:1032B0000739010087390100F0B587B05B4E3178DE
:1032C0007078B37899420A4600D31A46814200D3F7
:1032D000104630700420315E0620305E0822B35E56
:1032E00099420A4600DB1A46814200DB1046B08054
:1032F0000A20315E0C20305E0E22B35E99420A46EF
:1033000000DB1A46814200DB104670811020315EDE
:103310001220305E14220492B35E99420A4600DB0A
:103320001A46814200DB104630821620315E18209A
:10333000305E1A22B35E99420A4600DB1A46814289
:1033400000DB1046F0821C20315E1E20305E202201
:10335000B35E99420A4600DB1A46814200DB104602
:10336000B0832220315E7D25E800814200DB0146EA
:10337000CA17914371842421715E814200DB0146AA
:10338000CA179143B1842621725E824200DB024655
:103390000121012A00DC0A46F2842820335C072B35
:1033A0001A4600D30722002B0B4600D01346335495
:1033B0002922B45C642C234600D36423002C00D063
:1033C00019461B4BB154718DC82901D2C82102E0A6
:1033D0009942194600D971852B01B18D642901D21A
:1033E000642102E09942194600D9B1850695EF00A3
:1033F000F18D282902D3B942384601D9F08501461A
:10340000328E8A42104600D808468A4201D398423A
:1034100005D906990901884200D308463086716BA8
:10342000C829059306D2C82007E0C046D00F202047
:1034300088130000D348814200D97063B46B002127
:1034400020460DF0ABFF002805D1CF4920460DF0F6
:10345000B9FF002801D0CD4CB463F56B002128469C
:103460000DF09CFF002805D1284621460DF0A0FF55
:10347000002801D0C648F063346C002120460DF0CE
:103480008DFF002805D1C34920460DF09BFF002881
:1034900001D0BF4830644420315ABF4A8918491EC0
:1034A00089B2BE4A914201D8642131524620315E30
:1034B000069AD200914200DB1146CA17914331525D
:1034C0004820315AB64A8918143989B2FD4A9142C6
:1034D00001D8C82131525021705A0246153A049B36
:1034E000DB439A4201D8052070525221725A642A55
:1034F00001D8824201D2642070525421705AF24A9B
:103500008218521E92B2F14B9A4201D83C2070525E
:103510005621725ABA4201D8824201D864207052B0
:10352000B46D002120460DF039FF0028069F05D11B
:10353000E74920460DF046FF002801D0E548B06578
:103540005C20315C012903D0FF2901D0FF213154D7
:103550005E21725EF800824200DB0246D3179A4376
:1035600072526021725E824200DB0246D3179A4398
:1035700072526221725E824200DB0246012A00DC46
:10358000012272526422B05EC82800DBC820C11735
:1035900088430492B052B46E002120460DF012FF11
:1035A000002805D0C54920460DF00CFF002801D0A9
:1035B000C14CB466F56E002128460DF003FF0028CB
:1035C00005D0284621460DF0F3FE002801D0C24860
:1035D000F0667020315EFA00914200DB114601294D
:1035E00000DC01213152756F002128460DF0EAFE02
:1035F000002806D03F20010628460DF0E3FE0028F3
:1036000001D0B6487067B56F284629460FF068FBB1
:1036100000280BD1284621460DF0B6FE002805D122
:10362000A64928460DF0CEFE002801D0AC48B06770
:10363000A34DF46F002120460DF0BAFE002805D0FE
:10364000A74920460DF0BEFE002802D001208007C9
:10365000F0678020315A6918491E89B2A94201D207
:10366000C821315284257459002120460DF0AAFE4C
:10367000002805D08F4920460DF0A4FE002801D077
:103680009748705188257459002120460DF09AFE04
:1036900047424741B8203158204603910DF092FE31
:1036A000411E88413843012801D18E4C74510125B7
:1036B0008C2001903758384639460FF011FB0290A4
:1036C000384621460DF060FE0446384603990DF059
:1036D00079FE411E8841002C294600D101460298FE
:1036E0000028069F00D10D46012D02D17E48019988
:1036F00070509020325E9221715E9423F45EA2425B
:10370000134600DB23468A4200DB194631529620DD
:10371000315E5A29664C00DB5A215922D24391422C
:10372000059B00DC114631529A20315E782900DB7E
:1037300078217722D243914200DC11463152982001
:10374000315A6429049A02D3A142224600D9325246
:103750009C20315AA14200D934529E20315A9942BC
:1037600000D93352A020315A642901D2642301E0E8
:10377000994200D93352A420325891087D2911D2A0
:10378000B90012E0102700000000B44200004041E0
:103790000000A0400000C84230F8FFFF2FF80000F2
:1037A0002BFCFFFF51498A4200D93150F021725E53
:1037B000F800824200DB0246D3179A437252F2218C
:1037C000725E824200DB0246D01782437252F420BE
:1037D0003158474A8918491E914201D23901315066
:1037E000F8257459002120460DF0D8FD002806D197
:1037F0007F20C10520460DF0E5FD002801D03D48A1
:103800007051FC257459002120460DF0C7FD002899
:1038100006D17F20C10520460DF0D4FD002801D03F
:103820002E487051012005027459002120460DF0E8
:10383000ABFD002805D1304920460DF0C3FD00281E
:1038400001D02E4870514120850074590021204636
:103850000DF09AFD002806D17F20C10520460DF00D
:10386000B1FD002801D0264870512120C100725EB0
:10387000F800824200DB0246D3179A437252852138
:103880004900725E824200DB0246D01782437252C8
:1038900043208100705A002801D1052070528721F1
:1038A0004900725A824200D2705207B0F0BDC04641
:1038B000881300000000B4420000A0400000C8428D
:1038C00030F800002AFC00000CFEFFFF0BFE000099
:1038D0000000FA430000F543CDCC4C3FCDCC4C3E2C
:1038E0000000A0410000C84100003442983A0000A6
:1038F000F0D8FFFF3333B33E000020419A99193FBF
:103900000AD7233CF0B58FB06E460D2800D161E197
:103910000A281BD1F24F3878F24D29784A424A41A1
:1039200002431DD0002800D1E1E2EF48EF490A88A8
:10393000EF490B88DB43D218C31E13400B2B00D971
:10394000E4E0EC488169491C816134E101467F393A
:10395000C9B2A02961D8F648012101700FB0F0BDAD
:10396000F94800254554F74FF968491CF96001787A
:1039700042781202511882781204C078000680182A
:103980004018F249884200D1ABE0EF4CF0490522E3
:1039900020460FF063F800284DD0207861780902A6
:1039A0000818582847D02078617809020818A178AB
:1039B0000904E278120651180818E649884200D135
:1039C00029E220786178090208183F2800D122E214
:1039D0002078617809020818A1780904E2781206B3
:1039E00051180818DC49884200D185E12078002868
:1039F00000D115E23D2800D1FCE16078002800D11B
:103A00000EE23D2800D1F2E1A078002800D107E2C3
:103A10003D2800D1EDE1E41CE8E7C54B1978002909
:103A200000D0D7E0C34A11782F2900D2C8E0012086
:103A300018700FB0F0BDC04C0FF040F8BF480188BF
:103A4000BF480288D2438918621E0A400A2AB94D2B
:103A500058D30288C14941238B540288521C22400A
:103A60000280028843238B540288521C2240028029
:103A700002884B238B540288521C22400280028809
:103A80002C238B540288521C22400280028853232C
:103A90008B540288521C22400280028854238B548B
:103AA0000288521C2240028002884F238B540288D5
:103AB000521C22400280028850238B540288521CE0
:103AC0002240028002880D238B540288521C22401F
:103AD000028002880A238B540188491C21400180FE
:103AE00004E2954C00200EF057FA94490A88944954
:103AF0000B88DB43D218224000286DD0092A8D4D57
:103B000000D3ABE0B869401CB861EFE10C88934A80
:103B1000452313550C88641C04400C800C882E46E9
:103B2000522515550C88641C04400C800C881555D2
:103B30000C88641C04400C800C882C2515550C88BE
:103B4000641C04400C800C884C25155535460C88A7
:103B5000641C04400C800C8813550B885B1C0340CC
:103B60000B800B884E24D4540B885B1C03400B80C5
:103B70000B884724D4540B885B1C03400B800B88B4
:103B80005424D4540B885B1C03400B800B884824BE
:103B9000D4540B885B1C03400B800B880D24D45439
:103BA0000B885B1C03400B800B880A24D4540A88C2
:103BB000521C02400A80DB480169491C016196E100
:103BC0000346613BDBB21A2B00D220384B1C13702A
:103BD000D34A50540FB0F0BD092A00D22BE10A8815
:103BE000D648452383540A88521C22400A800B88F9
:103BF0005222C2540B885B1C23400B800B88C2549A
:103C00000B885B1C23400B800B882C25C5540B882C
:103C10005B1C23400B800B88C2540A88521C224034
:103C20000A800A88552383540A88521C22400A803D
:103C30000A884E2383540A88521C22400A800A882C
:103C40000D2383540A88521C22400A800A880A23C2
:103C500083540888401C2040088043E10A88B74804
:103C6000412383540A88521C22400A800A88432335
:103C700083540A88521C22400A800A884B238354AA
:103C80000A88521C22400A800A882C2383540A88FE
:103C9000521C22400A800A88522383540A88521CEC
:103CA00022400A800A88552383540A88521C2240E5
:103CB0000A800A884E2383540A88521C22400A80B4
:103CC0000A880D2383540A88521C22400A800A88DD
:103CD0000A2383540888401C2040088006E1C0461F
:103CE0000919202012192020FF070000FC182020AD
:103CF000FA182020FC162020343668460EF02EFEDE
:103D000030780028854D03D17078002800D1F3E089
:103D1000874888490A8888490B88DB43D218431EA4
:103D200013400A2B1CD2B869401CB861DBE0C046C6
:103D30000919202012192020FF070000FC1820205C
:103D4000FA182020FC162020C415202052554E00C1
:103D5000BF3701004745540044454600000020207D
:103D60000B88764A4524D4540B885B1C03400B8097
:103D70000B885224D4540B885B1C03400B800B88A7
:103D8000D4540B885B1C03400B800B882C24D45428
:103D90000B885B1C03400B800B884224D4540B8897
:103DA0005B1C03400B800B885524D4540B885B1C90
:103DB00003400B800B885324D4540B885B1C0340B6
:103DC0000B800B885924D4540B885B1C03400B8058
:103DD0000B880D24D4540B885B1C03400B800B888C
:103DE0000A24D4540A88521C02400A807BE0641CD6
:103DF00000E0A41C002C13D04948844210D0607805
:103E000000280DD0601C257007F0F8F800287BD042
:103E100045480AF0DFFBFEF73FFA3F4F3F4D66E0B3
:103E2000434844490A8844490B88DB43D218C31EDF
:103E300013400B2B03D8B869401CB86152E00B88C3
:103E40003E4A4524D4540B885B1C03400B800C88ED
:103E5000522313550C88641C04400C800C881355A5
:103E60000C88641C04400C800C882C2515550C888B
:103E7000641C04400C800C88462515550C88641C75
:103E800004400C800C884F2515550C88641C044098
:103E90000C800C8813550B885B1C03400B800B882F
:103EA0004D24D4540B885B1C03400B800B884124A9
:103EB000D4540B885B1C03400B800B885424D454CF
:103EC0000B885B1C03400B800B880D24D4540B889B
:103ED0005B1C03400B800B880A24D4540A88521CB4
:103EE00002400A800D4D3869401C38610A4F00209D
:103EF000287038700FB0F0BD0EF0DAFB10480AF0F1
:103F000069FBFEF7C9F9F1E708480AF063FB386975
:103F1000401C386181E7C046091920201219202071
:103F2000C4152020FC162020B435010014340100F3
:103F3000FF070000FC182020FA1820200000202095
:103F400064350100F0B58FB0DE4D0B90002800D134
:103F50009BE22426A85D002800D196E2FB4F0120B9
:103F60000190FB480EF0F2FFFA480B994843C00C51
:103F7000081A002180B20290039108460490039829
:103F800068610BE07C2008212954686E401C68663B
:103F900038460EF0DBFF601D2D2C79D20446A85D5B
:103FA00000280AD047200CA9022205F065F8002855
:103FB00006D07C200021295408E07C20082101E063
:103FC0007C2009212954686E401C686638460EF032
:103FD000BDFFA85D00280AD047200CA9022205F0E9
:103FE0004BF8002806D07C200021295408E07C20D2
:103FF000082101E07C2009212954686E401C686674
:1040000038460EF0A3FFA85D00280AD047200CA96F
:10401000022205F031F8002806D07C200021295426
:1040200008E07C20082101E07C2009212954686EE9
:10403000401C686638460EF089FFA85D00280AD04B
:1040400047200CA9022205F017F8002806D07C2092
:104050000021295408E07C20082101E07C2009216E
:104060002954686E401C686638460EF06FFFA85DE4
:10407000002887D047200CA9022204F0FDFF002869
:1040800003D07C200021295482E77C2009217BE792
:10409000B148411C0A910027089707973C460990B0
:1040A00009E0641C0A90A9480EF050FF7F1CB8B2CA
:1040B0000B9988422CD2A85D002820D047200DA95A
:1040C000022204F0D9FF00281BD00D99C8BA09BA02
:1040D0007C220023AB54C917089A12180892079A39
:1040E0004A410792099909B28142024600DC0A4618
:1040F00009920A9909B28142D3DB0846D1E7082028
:1041000000E009207C216854686E401C6866CAE79C
:10411000A2B202988242ED4F00D2A7E10024089893
:10412000079923460EF02EFE06902F6A3846079414
:1041300021460DF033F90890069800B20EF0E4F82D
:1041400039460CF067FC04460898002800D0079C0C
:10415000099800B20A9909B2081A0EF0D5F8394642
:104160000CF058FC0746204607990DF00DF9012187
:104170000091C90700280894079100D04C402046C0
:10418000D3490DF01FF904463846D2490DF01AF90B
:10419000411E8841002C019900D101460029CB4FD6
:1041A00000D063E10898686100240A940EE00820BA
:1041B000099C7C216854686E401C686638460EF085
:1041C000C5FE601D0F2C044600D34BE1A85D0028FE
:1041D000099433D047200EA9022204F04DFF002895
:1041E0002ED00E9805907C2000272F542C6A204654
:1041F00039460DF0D3F806900598C0BA0EF084F851
:1042000021460CF007FC0699002900D03846089991
:104210000AF0D8FF044639460DF0B6F8002801D060
:1042200007984440A94F2046AB490DF0CBF8002831
:1042300000D01BE10A98401C0A9007E0082000E02B
:1042400009207C216854686E401C686638460EF070
:104250007DFEA85D002833D047200EA9022204F07D
:104260000BFF002830D00E9805907C2000272F549B
:104270002C6A204639460DF091F806900598C0BA90
:104280000EF042F821460CF0C5FB0699002900D03B
:10429000384608990AF096FF044639460DF074F83E
:1042A000002801D007984440884F20468A490DF0E5
:1042B00089F8002800D0D9E00A98401C0A9009E04B
:1042C000082002E0E011202009207C216854686E5B
:1042D000401C686638460EF039FEA85D002833D0D1
:1042E00047200EA9022204F0C7FE002836D00E98FF
:1042F00005907C2000272F542C6A204639460DF06B
:104300004DF806900598C0BA0DF0FEFF21460CF05E
:1043100081FB0699002900D0384608990AF052FF1F
:10432000044639460DF030F8002801D00798444083
:10433000664F204668490DF045F8002800D095E00A
:104340000A98401C0A900FE0082008E00071020063
:104350000024F400CDCC0000FF7F000009207C2168
:104360006854686E401C686638460EF0EFFDA85D24
:10437000002832D047200EA9022204F07DFE00283A
:104380002DD00E9805907C2000272F542C6A2046B3
:1043900039460DF003F806900598C0BA0DF0B4FF49
:1043A00021460CF037FB0699002900D038460899C1
:1043B0000AF008FF044639460CF0E6FF002801D059
:1043C00007984440414F204643490CF0FBFF00282A
:1043D0004CD10A98401C0A9007E0082000E0092010
:1043E0007C216854686E401C686638460EF0AEFD4D
:1043F000A85D002800D1DAE647200EA9022204F0C9
:104400003BFE00282CD00E9805907C2000272F54CE
:104410002C6A204639460CF0C1FF06900598C0BAB8
:104420000DF072FF21460CF0F5FA0699002900D034
:10443000384608990AF0C6FE044639460CF0A4FF37
:10444000002801D007984440204F204622490CF014
:10445000B9FF00280AD10A98401C0A90099CADE6D1
:104460000920A5E60A9880B2112825D804980228C8
:1044700007D0044619480EF069FD601C022C00D2DA
:104480007CE500206861252101E025210020685499
:10449000262168540B23124900220A6011490A6040
:1044A00011490A7011490A7029216A54EA616A8522
:1044B0007C216B540FB0F0BD2520009929540023B6
:1044C000EB84AB652B660198E5E7C04600710200FE
:1044D000000020410000A0400000404000A8610012
:1044E000BC18202064142020101920201E19202020
:1044F000F0B597B00E91002900D1B2E20B904B209D
:10450000850001200C900FA812300A900024324E32
:10451000324B334A0D9508E032498868401C886068
:10452000641C0E98844200D39DE231881888814231
:1045300000D199E22C48405C491C17462A46D332E8
:104540000A4032803A460D28EAD028490A2805D187
:10455000087801281FD100200870B5E009780129EA
:10456000DAD001467F395F22D24391426DD81D4D8A
:10457000A86B401CA86354200C2129541C4A1088A5
:10458000A9684018401CA8600D9D002010800C9860
:1045900016490870A9E0164801880029C0D0114DBD
:1045A0002869401C28610FAA124802F039FA2B46EC
:1045B000042879D8194620310622800001A3185812
:1045C000084B8746F9450000A94600009F460000B9
:1045D000B7460000B1460000E8182020E618202069
:1045E000A81820200C142020000C20200A192020BC
:1045F000E4182020501320200FA8007C09900028E8
:104600003A4674D0119801B2C9134840401A80B29A
:10461000962811D80FA8408901B2C9134840401A02
:1046200080B2962808D8129801B2C9134840401A9F
:1046300080B2FE4988425AD3986B401C986354203C
:104640000C211954FA4B0D9D3DE0FA490988402888
:1046500012D1002909D0F84A906840189060D068BB
:10466000401CD06054200D2111544020F3490870A3
:104670000C98F049088038E0002928D05F292ED313
:10468000ED4D286A401C2862542006222A54A8684E
:104690004018A8600D9D0020F749088077E7F6488C
:1046A0000088996808189860194638310C2202E091
:1046B0001946243107220868401C086054201A5407
:1046C000EC4B0D9D3A460020EB49088028E7EB4A69
:1046D0009068401C906054200D21115405E04A1C44
:1046E000E54E3280E24EE64A50543A4618E75220F0
:1046F000195C00290D9D13D006901098E1490968B6
:10470000079088422BD21168481C08900020049022
:104710000898884200D398E00498C043089095E038
:104720000121089111600F9A502107925A52FF21DE
:10473000023119520B9898640898D8645869401C43
:1047400058611099CF4806910160CF480830242164
:104750000EF0F6FB099A002A2CD110462BE05321CB
:10476000595C002900D1F4E00FA9088850215A5A59
:10477000831A1BB2012B00DAF2E03A680890BF4BB3
:104780005852FF210231069819520B9898640692EC
:10479000DA645869401C5861BA4807990160BA4800
:1047A000083024210EF0CCFB099A002A00D0E0E06A
:1047B0001046DFE00920B44908720898C860079BDA
:1047C0000B82069B4B610D834883119804900FA8C0
:1047D0000590C08906900021CB43002A184600D0DE
:1047E00004980390002A184600D008460290002A38
:1047F000069900D11146A44A039890830298D08369
:1048000011845384089B1370099850700B99516060
:104810009E4A1370099850700598407C90705160C2
:104820009068401C9060D36007981082099A002A13
:1048300000D104929549049848820598408988825D
:104840001298C8820D8306986DE01060596C491C5F
:104850000F98502205909852FF22023206981A5261
:1048600059640B9898640898D8645869401C58613A
:104870008448079901608448083024210EF060FBC9
:10488000099A002A01D1104600E00920049B7E49C4
:1048900008720898C86005980882079848610D83D7
:1048A000012001904883119807900FA80290C189B8
:1048B000D843002A069002D0079B0693049B002A47
:1048C000039000D00393002A049100D11146009177
:1048D0006D4B069999830399D9830099198458845B
:1048E000019919705A700B985860684A11700999AB
:1048F0005170029B587C90700B9850609068401CDF
:1049000090600898D060059810820A46002901D16D
:10491000084607915D49079848825889888212980D
:10492000C8820D830498488308461C300C220A99DB
:104930000EF08AFB0998002801D0182000E01C2006
:104940004C4B4E4A1158491C11505420032111540C
:10495000B8E60FA800220B9909F032FC454BB1E6EE
:10496000904275D1454AD06B401CD063542004213D
:1049700074E00920444908720698C86008980882C3
:10498000079848610D830C984883119805900FA8EB
:104990000490C08907900021CB43002A184600D01C
:1049A00005980390002A184600D008460290002A75
:1049B000079900D11146344A039890830298D08316
:1049C000118453840C981070099951700B9951609F
:1049D0002E4A107009985070049B587C907051605A
:1049E0009068401C90600698D060089810820998E2
:1049F000002800D105902549059848825889888269
:104A00001298C8820D830798488308461C300C22F0
:104A10000A990EF019FB0999002901D0182000E02D
:104A20001C20144B00290BD00C990AE0B90B000094
:104A3000E6182020E41820200C14202050132020F9
:104A400002210E4D2A58521C2A505420295438E66F
:104A50000A4A106C401C1064542005211154054B67
:104A600030E6002400E00E9CA0B217B0F0BDC046B6
:104A7000E8182020E6182020E41820200C1420201C
:104A8000501320209C182020241620207C16202043
:104A9000F0B597B0099103901C99002B01D000202C
:104AA00018800493002901D0002008800A92059103
:104AB000DC4801210C910170DB49F020085AF221F9
:104AC0000B91F4210D912121C900129185214900FA
:104AD00013914321890010910026FC210F91F821A8
:104AE0000E9141210191890011917D210291C9000E
:104AF00008918842304671D8CB480B99415E002915
:104B000030466BD4C9488142304667DAC6480D99B1
:104B100040580028304661D0C3491298085E16906C
:104B20001398085E15901098085A14900F980C5816
:104B30000E980F581198085806900C9800020858C3
:104B40000790002138460CF03DFC0028304645D047
:104B50007F20C505384629460CF020FC0028304649
:104B60003CD0002120460CF02DFC0028304635D0EA
:104B7000204629460CF012FC002830462ED0002199
:104B800007980CF015FC0028304627D00024069822
:104B900021460CF00DFC002830461FD01698002846
:104BA00030461BD4A14816998142304616DA159832
:104BB0000028304612D4FC481599814230460DDA5F
:104BC00014980028304609D087204000F549085A3B
:104BD0001499884201D2204600E00120F04C607018
:104BE0007F210998084060710DF04CFDA071411EB5
:104BF00002468A412271002803D060790CF0BEFA87
:104C0000064626810A9887B208998F4200D30F463C
:104C1000002800D50027E783E06B401C00D2E0634A
:104C2000207800280AD06078002807D02622A35CCC
:104C3000032B0ED10021218408468CE100206080E6
:104C4000E06020616061A061A0832062A08417B051
:104C5000F0BD591E2079012910D8002800D18DE01F
:104C60000020E06220866080E06020616061A061D9
:104C7000A083606221462431087102E0002800D13F
:104C800095E0607932216054A6860199014001299E
:104C900004D0084640290BD1012000E0FF20272145
:104CA0006054282001212154A06B401C00D2A06335
:104CB000E07800284DD0E468BA490F98085815905C
:104CC0000E980D5830460DF01FFB21460AF07AFA77
:104CD000014628460BF006FD21460AF078FA1690A8
:104CE000AF49C8601098AF49085A01210026039ABD
:104CF00090420B4600D9334687225200A94DAA5A4A
:104D0000039DAA4200D231460B40A54EB370012B41
:104D1000169D2DD1284621460AF054FA04460398E0
:104D20000DF052FD0146A2480BF074FE21460BF037
:104D3000D9FC3061746921460AF044FA014615989D
:104D40000BF0D0FC21460AF042FA01467061954E04
:104D500083E030460DF0D8FA05460021E06021617D
:104D600061610120E070A078002861D08D4E74E070
:104D700000213161716134468A4E60E0E06A039D32
:104D800029180020A94200D2C143E1622546854E80
:104D90000D9C3459A14234D20B98315A0022012B78
:104DA000104600D00846012B7D4C28D1F2E00020AF
:104DB0006080A084E06020616061A061A083282100
:104DC000615C0029774D00D1D1E02721635CFF2B86
:104DD00001D002210C910C99A1542086039EE66219
:104DE0000D996958B14200D8CCE00B98295A00229D
:104DF000FF2B104600D00846FF2B00D1CAE0114619
:104E0000C8E06880A884E86028616861A861A88318
:104E10000321A954654929860146049A2C46288411
:104E20009AE0C04648152020D00F2020E90300005A
:104E300016955C4E1098305A87214900725A01230A
:104E40000021039DA842184600D90846039DAA42A6
:104E500000D20B461840A070169D0120169000024B
:104E60003458119830580BF03DFC06462046294630
:104E70000BF038FC31460AF0AAF90546484885612E
:104E8000129848490E5A284629460DF029FF002855
:104E900000D082E0744220B20DF036FA0146284676
:104EA0000CF07CFA002819D130B20DF02DFA014631
:104EB00028460CF07DFA002834460FD10021284600
:104EC0000CF076FA002801D1BF2000E03F20010657
:104ED00028460AF07CF90DF0C9FA0446304884836C
:104EE00020B21590C0190299CA009042044600D31E
:104EF0001446002100280D462A4B00D425466C1E7E
:104F00002846A041139C1C5FA542169E00DB0E465E
:104F100030402426224B98550028084600D12846C8
:104F20001F4D2884159BFD1A95422B4600D313462E
:104F3000002D0A4600D41A46551E1346AB41A24224
:104F400000DB1691169C23402524154D2B552C462D
:104F5000002B00D11146049A6184002A00D01080F1
:104F60000599002901D0608C088017B0F0BD0021A0
:104F7000E162E170252021540320A05401200002A9
:104F8000208658E6E070252160540321A15407498A
:104F900021860146049A2084DEE700249EE7C0466D
:104FA00048152020D00F2020E90300000102000056
:104FB00000007A44F0B58FB00EF042F807468069E1
:104FC0000DF054FAB44CA04200DC2046B34EB0427F
:104FD00000DB30460290F8690DF048FAA04200DC90
:104FE0002046B04200DB3046019000252846294685
:104FF0000DF004FDAA480DF089FA3868A04200DCE3
:105000002046B04200DB304607F0B8FCA5480DF062
:105010007DFA7868A04200DC2046B04200DB3046D2
:1050200007F0ACFC022029460DF0E8FC9E480DF08C
:105030006DFAFE68BC68002E01D4354604E02D20D0
:105040000CF098FB6442B54103974A370097002360
:10505000964A2046294606930DF09EFE10461946B4
:105060000125059507916A1E08920A2209920646B3
:10507000069F3B460DF090FE04460D46099A3B46BE
:105080000DF05AFC301A302738430AA9089A5054B8
:10509000049607980A3E069A9041099736D30A2249
:1050A00000262046294633460DF076FE3A430AA8EC
:1050B000059BC254089911291D46049F28D83846DB
:1050C00064380798B04123D3642200243846079EF1
:1050D000314623460DF060FE0A2223460DF05CFEA9
:1050E000099802430AA8401942707D20C200384640
:1050F000314623460DF050FEED1C089A102A03D8C5
:10510000D34AD21BB441ACD36D1E02E0059D00E032
:105110006D1C2E46681E032108900DF01DF8481CDA
:10512000032800D00690032801D1354611E00AA8D3
:10513000841E069FA01940780CF01CFB012F07D09D
:10514000B51EA05D0CF016FBBF1E2E46F2D100E08E
:10515000751E0898022810D36C420AA82818C51E8C
:10516000A8780CF007FB68780CF004FB28780CF0AA
:1051700001FBE41CED1E002CF2D1B7480DF0C6F97E
:10518000039845690469002D01D4294605E02D20C6
:105190000CF0F0FA00216442A941AE4A00232046F7
:1051A00006930DF0F9FD1046194601250595079166
:1051B0006A1E08920A2204920646069F3B460DF09C
:1051C000EBFD04460D46049A3B460DF0B5FB301A44
:1051D000099F38430AA9089A5054049607980A3E32
:1051E000069A904136D30A220026204629463346A5
:1051F0000DF0D2FD3A430AA8059BC2540899112923
:105200001D46049F28D8384664380798B04123D3F8
:10521000642200243846079E314623460DF0BCFD2B
:105220000A2223460DF0B8FD099802430AA8401946
:1052300042707D20C2003846314623460DF0ACFD59
:10524000ED1C089A102A03D8814AD21BB441ADD371
:105250006D1E02E0059D00E06D1C2E46681E0321B8
:1052600008900CF079FF481C032800D00690032812
:1052700001D135461DE00AA8841E069FA01940787A
:105280000CF078FA012F13D0B51EA05D0CF072FA65
:10529000BF1E2E46F2D10CE00080FFFFFF7F000012
:1052A000BF3801006E3801009339010040420F0001
:1052B000751E0898022810D36C420AA82818C51E2B
:1052C000A8780CF057FA68780CF054FA28780CF0AB
:1052D00051FAE41CED1E002CF2D1042000252946D1
:1052E0000DF08CFB5D480DF011F9029800B207F04B
:1052F00045FB5B480DF00AF9019800B207F03EFB50
:10530000062029460DF07AFB56480DF0FFF8009C68
:10531000207807F033FB54480DF0F8F8607807F078
:105320002DFB52480DF0F2F80398006D012406950C
:10533000294605940791621E08920A2204920546A6
:10534000069F3B460DF028FD06460C46049A3B4658
:105350000DF0F2FA281A099F38430AA9089A505406
:10536000049507980A3D069A904136D30A220025F3
:10537000304621462B460DF00FFD3A430AA8059B07
:10538000C254089911291C46049F28D8384664380D
:105390000798A84123D3642200263846079D294652
:1053A00033460DF0F9FC0A2233460DF0F5FC09985E
:1053B00002430AA8001942707D20C20038462946DF
:1053C00033460DF0E9FCE41C089A102A03D8204A61
:1053D000D21BAE41ADD3641E02E0059C00E0641C0C
:1053E0002646601E032109900CF0B6FE481C0328D7
:1053F00003D00546032803D114E00025032811D06B
:105400000AA8841E3746E01940780CF0B3F9012D44
:1054100007D0BE1EE05D0CF0ADF9AD1E3746F2D1EF
:1054200000E07E1E0998022810D374420AA83018A2
:10543000C51EA8780CF09EF968780CF09BF92878C6
:105440000CF098F9E41CED1E002CF2D10FB0F0BD69
:10545000E703000040420F0088370100F3380100E5
:10546000CE3701000F3A0100D33801003F39010067
:10547000F0B59BB009900DF0AFFD0C900DF0B0FDB4
:1054800008900DF0B9FD02900DF0B2FD03900DF003
:105490008BFD04900DF0C8FD06900DF0C9FD059040
:1054A0000DF0CAFD07900DF08BFD07467A30009095
:1054B0003846243001900DF0C3FD0A9048300B901F
:1054C0000DF092FD014677310F910D9044300E9012
:1054D0000DF07AFD06460446243410A80DF09EFA1D
:1054E000094D099828600DF0CBFC28710DF036FCB1
:1054F000089A68710C98C088E88010680721002815
:105500000C9104D002E0C046000E202001782972E0
:1055100010796872D08968819089A881907CA8737D
:105520000DF09CFCE873F84948782874C8886882B4
:10553000C869686130882883B078A8767079E87681
:10554000B07928773089E883F068286270696862EA
:10555000B069A862B08BA885308CE885708C2886ED
:105560002078322168546078332108916854A078FB
:1055700034216854E0783521099168542079362126
:105580006854F06AA863207B3C216854607B3D210D
:105590006854A07B3E216854B08E40216852B06BA5
:1055A0006864B869A8643869E864786928653888E7
:1055B000542168527868A865B868E865F869286673
:1055C000386A6866009A108868216852D0886A2113
:1055D0006852107A6C26A855386D2867786D686710
:1055E00001990868A8674868E867F86A80216850E8
:1055F000386B84216850786B88216850B86B8C2197
:105600006850F86B90216850386C94216850786C21
:1056100098216850B86C9C216850F86CA0216850A3
:10562000F86EA4216850386FA8216850786FAC21BB
:105630006850B86DB0216850F86DB4216850386E6C
:10564000B8216850B86EBC21685002980078C0211B
:1056500068540DF00FFCC12168540DF047FCC221C5
:10566000685403980078C3216854049A1068C421D0
:1056700068509088C8216852A34F386ACC2168507E
:10568000B86BD0216850B88DD42168524820385C5E
:10569000D62168543B464C330FCBD8242851DC200C
:1056A0002950E0202A50E4202B505C20385AE82171
:1056B00068525E20385CEA216854F88DEC2168520B
:1056C0005F21785CEE22A8546020385CEF22A85459
:1056D000786EBA6EF023E850F4202A50B85BF822B6
:1056E000A8521698FC22A850179801221202A8501E
:1056F000189841229200A85006984068059B5A6865
:1057000010185A6980182122D200A850079C2078CE
:1057100043229200A8546278FF2003460E33EA54D5
:10572000A27887235B00EA54A26811231B01EA5088
:105730000A9E326845239B00EA5072682323DB00EF
:10574000EA50F268B368092464012B512B195A609E
:10575000726933692524E4002B512B195A60B26910
:1057600013231B01EA50F2694D239B00EA50326A71
:105770002723DB00EA50726A4F239B00EA50B26A8B
:1057800005239B01EA50F26A51239B00EA50326BD9
:105790002923DB00EA500B9CA27853239B00EA5498
:1057A000E27803464E33EA542279A7235B00EA5499
:1057B000326D15231B01EA50F26B55239B00EA5012
:1057C000326C2B23DB00EA50726C57239B00EA50AB
:1057D00022780B235B01EA54627803466233EA5471
:1057E0000D9E3288B1235B00EA52728859239B00D8
:1057F000EA523279B3235B00EA54B2682D23DB000E
:10580000EA50F2685B239B00EA50326917231B01C0
:10581000EA50B28B5D239B00EA520E9C2289BB2387
:105820005B00EA52326A2F23DB00EA50326D8900B6
:105830006A50716A0322D201A950716D61229200EF
:10584000A950B16A3122D200A950B16D63229200F1
:10585000A950F16A19221201A950F16D6522920036
:10586000A950316B089AD200A950316E672292007C
:10587000A950716B0D225201A950716E69229200DC
:10588000A950B16B099AD200A950B16E6B22920057
:10589000A950F16B1B221201A950F16E6D229200EA
:1058A000A950316C3722D200A950316F6F2292007B
:1058B000A95021880C9A9201A952218EE12252000E
:1058C000A952E17871229200A9540F9B19780246DF
:1058D000C632A9546179E3225200A954997802464C
:1058E000C832A954A1793922D200A954D9780246E4
:1058F000CA32A954E179E5225200A9541979CC3071
:1059000029541BB0F0BDC046E0122020F0B591B084
:105910000DF05AFB0546044626340DF075FB0B903E
:105920002620285C401EC0B2022803D88000F2491D
:10593000085800E0F148099060780390E07A0290FE
:105940000026304631460DF059F8ED480CF0DEFDEA
:105950000A956C7930253127E007284600D0384673
:105960000BF008FFA007284600D538460BF002FFD1
:105970006007284600D538460BF0FCFE2007284675
:1059800000D538460BF0F6FEE006284600D538462E
:105990000BF0F0FEA006284600D538460BF0EAFED4
:1059A000600600D53D4628460BF0E4FE0220314655
:1059B0000DF024F8E4480CF0A9FD09980CF0A6FDC0
:1059C000E2480CF0A3FD08200A9C205E06F0D6FFFA
:1059D0002F200BF0CFFEE568284629460DF080F910
:1059E000002813D1DA4EDB4928460BF0EBFC0028E7
:1059F0000CD1C720010628460BF0C6FC002801D0B8
:105A0000761C03E028460CF031FD064630B206F065
:105A1000B5FF0420002529460CF0F0FFCE480CF01D
:105A200075FD1C20205E06F0A9FFCC480CF06EFD31
:105A30002020205E06F0A2FFC9480CF067FD22205E
:105A4000205E06F09BFF0620099529460CF0D6FF44
:105A5000C4480CF05BFD0B984469C34920460CF028
:105A60007BFB05467D20C100204604910CF074FBB1
:105A70003C210CF071FB0791BC480194844202D890
:105A800030200BF077FE01270999284606970A91E6
:105A90007A1E0B920A2208920446099E33460DF0A4
:105AA0007BF905460F46089A33460CF045FF201A4D
:105AB000302630430CA90B9A505405940A980A3C9E
:105AC000099A9041089635D30A220024284639467F
:105AD00023460DF061F932430CA8069BC2540B9982
