:1000000000802020478A0100C3570100C357010028
:1000100000000000000000000000000000000000E0
:10002000000000000000000000000000C3570100B5
:100030000000000000000000C3570100D55301007C
:10004000C357010099830100C3570100857801005F
:10005000C3570100C3570100C3570100C357010034
:1000600000000000C3570100C3570100000000005A
:1000700000000000C3570100256D0100C3570100B7
:10008000C3570100C3570100C3570100C357010004
:10009000C3570100C357010000000000000000002A
:1000A000C3570100C357010000000000000000001A
:1000B000C357010000000000C3570100C3570100EF
:1000C000F0B5C1B018AF07AD36AC204618F0C8F88F
:1000D0002FA817F01BFC384617F042F9284618F0F5
:1000E0009BF8207DE17C002901D0C14E00E0C14E8B
:1000F0004937002800D0C04E3879002800970FD02B
:100100000020014618F068F9BC4817F0EDFEB87AF7
:10011000401EC0B2022818D88000B949085815E01E
:10012000B879002800D198E00020014618F054F971
:10013000B44817F0D9FE387B401EC0B2022800D95F
:10014000CFE08000B0490858CCE0B04817F0CCFEB2
:10015000AF4817F0C9FE387B401EC0B2022803D852
:100160008000A949085800E0AA48002417F0BCFE06
:1001700002200194214618F02FF9A74817F0B4FE89
:100180003878002865D0199C002C03D52D2016F056
:1001900067FF6442A149204617F078FC0846012514
:1001A0000199049505916A1E06920A220392074658
:1001B000019E334618F0DEFA04460D46039A334694
:1001C00018F0A8F8381A302318433CA9069A50545E
:1001D000039705990A3F0846B0415DD30A220E46AF
:1001E0000027204629461C463B4618F0C3FA234602
:1001F00022433CA8049C0255069911292546039ADE
:100200004CD8104664383046B84147D3174664226C
:100210000024384631460293234618F0ABFA0A22EE
:10022000234618F0A7FA029802433CA840194270EE
:100230007D20C20038463146234618F09BFAED1C5B
:10024000069A102A03D8764AD21BB441A9D36D1E50
:1002500025E0704817F048FE04E13C356879002835
:1002600000D175E200242046214618F0B5F86D480B
:1002700017F03AFE02200394214618F0ADF86148C9
:1002800017F032FE6879401EC0B2042800D9B1E2EE
:10029000800065490858AEE2049D00E06D1C2F46C1
:1002A000681E0321069017F0F1FB481C032813D0A9
:1002B0000446032813D03CA8861EF019407816F097
:1002C000CFFE012C00D1B7E0BD1EF05D16F0C8FED8
:1002D000A41E2F46F1D1B0E000240328EBD13D4607
:1002E000ABE04C48002417F0FFFD504817F0FCFD30
:1002F000304617F0F9FD0220214618F06DF84C4801
:1003000017F0F2FD04200194214618F065F84948E1
:1003100017F0EAFD7878002800D115E21A9C002C2D
:1003200003D52D2016F09CFE64423C49204617F070
:10033000ADFB0D460126019904910596701E0690AD
:100340000A2203922846019F3B4618F013FA0446FE
:100350000E46039A3B4617F0DDFF281A3023184358
:100360003CA9069A505403950A3D04980546B841A5
:1003700000D203E20A220027204631461C463B46B3
:1003800018F0F8F9234622433CA8059C025506992B
:1003900011292646039A00D9F2E11046643828460E
:1003A000B84100D2ECE117466422002438462946C1
:1003B0000293234618F0DEF90A22234618F0DAF9F0
:1003C000029802433CA8801942707D20C200384642
:1003D0002946234618F0CEF9F61C069A102A04D8AE
:1003E0000F4AD21BAC410546A6D3761EC9E1C046D2
:1003F000FE930100C69501007A9501001695010053
:1004000078900100FE9601006C900100A894010014
:1004100052960100BD910100F993010040420F0086
:10042000E7030000C88F0100A48E0100AB9101001A
:10043000B88F01009E9601007D1E0698022810D3F9
:100440006C423CA82818C51EA87816F009FE6878EA
:1004500016F006FE287816F003FEE41CED1E002CB4
:10046000F2D1009F04200021019117F0B5FFD6487A
:1004700017F03AFD7878002865D01A9C002C03D537
:100480002D2016F0EDFD6442D049204617F0FEFA0B
:10049000084601250199049505916A1E06920A22D3
:1004A00003920746019E334618F064F904460D4650
:1004B000039A334617F02EFF381A302318433CA90D
:1004C000069A5054039705990A3F0846B0413ED317
:1004D0000A220E460027204629461C463B4618F0B5
:1004E00049F9234622433CA8049C02550699112948
:1004F0002546039A2DD8104664383046B84128D393
:10050000174664220024384631460293234618F0E9
:1005100031F90A22234618F02DF9029802433CA82B
:10052000401942707D20C20038463146234618F0FB
:1005300021F9ED1C069A102A03D8A54AD21BB44112
:10054000A9D36D1E06E0A34817F0CEFC39E0049D48
:1005500000E06D1C2F46681E0321069017F096FAE6
:10056000481C032812D00446032812D03CA8861E3B
:10057000F019407816F074FD012C0CD0BD1EF05D12
:1005800016F06EFDA41E2F46F2D105E000240328CC
:10059000ECD13D4600E07D1E0698022810D36C4247
:1005A0003CA82818C51EA87816F05AFD687816F0E1
:1005B00057FD287816F054FDE41CED1E002CF2D1F6
:1005C000009F854817F090FCB878002866D01B9CE7
:1005D000002C03D52D2016F043FD64427B492046B4
:1005E00017F054FA08460021012501910495059160
:1005F0006A1E06920A2203920746019E334618F0AD
:10060000B9F804460D46039A334617F083FE381AAC
:10061000302318433CA9069A5054039705990A3F82
:100620000846B0413ED30A220E46002720462946FE
:100630001C463B4618F09EF8234622433CA8049CE7
:100640000255069911292546039A2DD8104664387B
:100650003046B84128D31746642200243846314634
:100660000293234618F086F80A22234618F082F8EF
:10067000029802433CA8401942707D20C2003846CF
:100680003146234618F076F8ED1C069A102A03D856
:100690004F4AD21BB441A9D36D1E06E04D4817F056
:1006A00023FC39E0049D00E06D1C2F46681E0321E9
:1006B000069017F0EBF9481C032812D004460328D3
:1006C00012D03CA8861EF019407816F0C9FC012C07
:1006D0000CD0BD1EF05D16F0C3FCA41E2F46F2D157
:1006E00005E000240328ECD13D4600E07D1E06987D
:1006F000022810D36C423CA82818C51EA87816F012
:10070000AFFC687816F0ACFC287816F0A9FCE41C65
:10071000ED1E002CF2D1009F0620002117F05CFE98
:10072000F87A032804D0022805D12C4800F0AEFF47
:100730002B4800F0ABFFB87A032802D0294800F01C
:10074000A5FF294800F0A2FF224817F0CDFBD3E017
:10075000787A002800D124E300200090014617F0A9
:100760003BFE224817F0C0FBF87B401EC0B20228B7
:1007700000D92BE380001E49085828E3059E00E0BD
:10078000761C701E0321069017F080F9481C032880
:1007900014D00446032814D03CA83746861EF0190E
:1007A000407816F05DFC012C00D18FE0BD1EF05D9D
:1007B00016F056FCA41E2F46F1D188E00024032831
:1007C000EAD1354683E0C0469E96010040420F00C4
:1007D000E7030000BD91010092950100408F0100E8
:1007E000848F0100E58F0100518F01009994010071
:1007F00060900100F94817F077FBF94817F074FB97
:10080000089C002C03D52D2016F02AFC6442F549E3
:10081000204617F03BF908460125039902950491FB
:100820006A1E05920A2206920646039C234617F08A
:10083000A1FF07460D46069A234617F06BFD301AB6
:10084000302420433CA9059A5054019604980A3E4E
:10085000039A9041069400D20CE10A220026384601
:100860002946334617F086FF22433CA8029BC25418
:10087000059911291D46019C00D9FDE020466438E8
:100880000498B04100D2F7E0642200272046049E7D
:1008900031463B4617F06EFF0A223B4617F06AFFCF
:1008A000069802433CA8401942707D20C2002046B1
:1008B00031463B4617F05EFFED1C059A102A03D81F
:1008C000C94A121BB741A9D36D1ED6E07D1E0698FA
:1008D000022810D36C423CA82818C51EA87816F030
:1008E000BFFB687816F0BCFB287816F0B9FBE41C57
:1008F000ED1E002CF2D1009FBC4817F0F5FAB87835
:10090000002866D01B9C002C03D52D2016F0A8FBD8
:100910006442B449204617F0B9F808460021012581
:100920000191049505916A1E06920A2203920746D8
:10093000019E334617F01EFF04460D46039A3346C8
:1009400017F0E8FC381A302318433CA9069A505493
:10095000039705990A3F0846B0413ED30A220E4646
:100960000027204629461C463B4617F003FF234636
:1009700022433CA8049C0255069911292546039A56
:100980002DD8104664383046B84128D31746642223
:100990000024384631460293234617F0EBFE0A2224
:1009A000234617F0E7FE029802433CA84019427024
:1009B0007D20C20038463146234617F0DBFEED1C91
:1009C000069A102A03D8884AD21BB441A9D36D1EB7
:1009D00006E0874817F088FA39E0049D00E06D1CB6
:1009E0002F46681E0321069017F050F8481C032874
:1009F00012D00446032812D03CA8861EF019407875
:100A000016F02EFB012C0CD0BD1EF05D16F028FB5D
:100A1000A41E2F46F2D105E000240328ECD13D4668
:100A200000E07D1E0698022810D36C423CA82818CE
:100A3000C51EA87816F014FB687816F011FB28780C
:100A400016F00EFBE41CED1E002CF2D1009F0620D8
:100A5000002117F0C1FCF879002802D0654800F0A9
:100A600015FE7879002802D0634800F00FFE634835
:100A700000F00CFE029D00E06D1C2E46681E032156
:100A8000059017F003F8481C032803D005460328F7
:100A900003D114E00025032811D03CA8841E37465A
:100AA000E019407816F0DCFA012D07D0BE1EE05D9B
:100AB00016F0D6FAAD1E3746F2D100E07E1E05983C
:100AC000022810D374423CA83018C51EA87816F02E
:100AD000C7FA687816F0C4FA287816F0C1FAE41C50
:100AE000ED1E002CF2D104200021039117F074FCBC
:100AF000434817F0F9F9099C002C03D52D2016F076
:100B0000AFFA64423749204616F0C0FF0846012577
:100B10000399029504916A1E05920A2201920646E3
:100B2000039C234617F026FE07460D46019A2346EE
:100B300017F0F0FB301A069C20433CA9059A50544C
:100B4000019604980A3E039A904136D30A22002661
:100B500038462946334617F00DFE22433CA8029B37
:100B6000C254059911291D46019C28D82046643895
:100B70000498B04123D3642200272046049E3146C6
:100B80003B4617F0F7FD0A223B4617F0F3FD0698A7
:100B900002433CA8401942707D20C20020463146E5
:100BA0003B4617F0E7FDED1C059A102A03D80E4AC4
:100BB000121BB741ADD36D1E02E0029D00E06D1C1B
:100BC0002E46681E0321059016F060FF481C03287E
:100BD00018D00546032818D129E0C046E994010041
:100BE0003696010040420F00E70300009295010095
:100BF000BD910100088F0100A8900100F38F010052
:100C0000D79601000025032811D03CA8841E374642
:100C1000E019407816F024FA012D07D0BE1EE05DE1
:100C200016F01EFAAD1E3746F2D100E07E1E059882
:100C3000022810D374423CA83018C51EA87816F0BC
:100C40000FFA687816F00CFA287816F009FAE41C06
:100C5000ED1E002CF2D1EE4817F046F90A9C002C4C
:100C600003D52D2016F0FCF96442EA49204616F01F
:100C70000DFF0846002101250391029504916A1E8B
:100C800005920A2201920646039C234617F072FD44
:100C900007460D46019A234617F03CFB301A069C86
:100CA00020433CA9059A5054019604980A3E039AA1
:100CB000904136D30A22002638462946334617F09B
:100CC00059FD22433CA8029BC254059911291D4697
:100CD000019C28D8204664380498B04123D364226C
:100CE00000272046049E31463B4617F043FD0A226A
:100CF0003B4617F03FFD069802433CA8401942705E
:100D00007D20C200204631463B4617F033FDED1CE6
:100D1000059A102A03D8C04A121BB741ADD36D1EE5
:100D200002E0029D00E06D1C2E46681E0321069025
:100D300016F0ACFE481C032803D00546032803D157
:100D400014E00025032811D03CA8841E3746E01982
:100D5000407816F085F9012D07D0BE1EE05D16F033
:100D60007FF9AD1E3746F2D100E07E1E06980228BC
:100D700010D374423CA83018C51EA87816F070F93C
:100D8000687816F06DF9287816F06AF9E41CED1E03
:100D9000002CF2D10620002117F01EFB9F4800F026
:100DA00075FC387A002800D1D9E30020014617F0FD
:100DB00013FB9B4817F098F8787B401EC0B20428BC
:100DC00000D9DFE3800097490858DCE3964817F024
:100DD0008BF8964817F088F8239D01240099049118
:100DE000601E05900A2206922846009E334617F0A0
:100DF000C1FC07460291069A334617F08BFA281A6F
:100E00002246302420433CA9059B585403950A3DB3
:100E100004980546B041069436D301920A22002672
:100E200038460299334617F0A5FC22433CA8019CA2
:100E3000025505991129039828D80246643A2A4692
:100E4000B24123D364220027294606463B4617F0C9
:100E500091FC0A223B4617F08DFC069802433CA801
:100E6000001942707D20C200304629463B4617F0EB
:100E700081FCE41C059A102A04D8674A921BAF41F2
:100E80000546ACD3641E02E0144600E0641C26460E
:100E9000601E0321059016F0F9FD481C032801D0BF
:100EA000054600E00025032811D03CA8841E3746E3
:100EB000E019407816F0D4F8012D07D0BE1EE05D91
:100EC00016F0CEF8AD1E3746F2D100E07E1E059832
:100ED000022810D374423CA83018C51EA87816F01A
:100EE000BFF8687816F0BCF8287816F0B9F8E41C5A
:100EF000ED1E002CF2D102200021039117F06CFAB4
:100F00004B4816F0F1FF199C002C03D52D2016F04C
:100F1000A7F864423F49204616F0B8FD084601256F
:100F20000399029504916A1E05920A2201920646CF
:100F3000039C234617F01EFC07460D46019A2346E4
:100F400017F0E8F9301A069C20433CA9059A505442
:100F5000019604980A3E039A904136D30A2200264D
:100F600038462946334617F005FC22433CA8029B2D
:100F7000C254059911291D46019C28D82046643881
:100F80000498B04123D3642200272046049E3146B2
:100F90003B4617F0EFFB0A223B4617F0EBFB0698A7
:100FA00002433CA8401942707D20C20020463146D1
:100FB0003B4617F0DFFBED1C059A102A03D8164AB2
:100FC000121BB741ADD36D1E02E0029D00E06D1C07
:100FD0002E46681E0321059016F058FD481C032874
:100FE00001D0054600E00025032824D03CA8841E3B
:100FF0003746E019407816F033F8012D1AD0BE1E9E
:10100000E05D16F02DF8AD1E3746F2D113E0C04674
:101010002694010040420F00E70300007291010096
:10102000C8920100B88E0100A89401001E9601002C
:10103000DD9601007E1E0598022810D374423CA85C
:101040003018C51EA87816F00BF8687816F008F866
:10105000287816F005F8E41CED1E002CF2D1E348C8
:1010600016F042FF289C002C03D52D2015F0F8FF28
:101070006442DF49204616F009FD0846002101259B
:101080000391029504916A1E05920A220192064676
:10109000039C234617F06EFB07460D46019A234634
:1010A00017F038F9301A069C20433CA9059A505491
:1010B000019604980A3E039A904136D30A220026EC
:1010C00038462946334617F055FB22433CA8029B7D
:1010D000C254059911291D46019C28D82046643820
:1010E0000498B04123D3642200272046049E314651
:1010F0003B4617F03FFB0A223B4617F03BFB0698A6
:1011000002433CA8401942707D20C200204631466F
:101110003B4617F02FFBED1C059A102A03D8B54A61
:10112000121BB741ADD36D1E02E0029D00E06D1CA5
:101130002E46681E0321059016F0A8FC481C0328C3
:1011400001D0054600E00025032811D03CA8841EEC
:101150003746E019407815F083FF012D07D0BE1EF9
:10116000E05D15F07DFFAD1E3746F2D100E07E1E3A
:101170000598022810D374423CA83018C51EA878E0
:1011800015F06EFF687815F06BFF287815F068FF92
:10119000E41CED1E002CF2D104200021039117F075
:1011A0001BF9954816F0A0FE099C002C03D52D20B4
:1011B00015F056FF64428E49204616F067FC08463B
:1011C00001250399029504916A1E05920A22019253
:1011D0000646039C234617F0CDFA07460D46019AB2
:1011E000234617F097F8301A069C20433CA9059A2D
:1011F0005054019604980A3E039A904136D30A222D
:10120000002638462946334617F0B4FA22433CA854
:10121000029BC254059911291D46019C28D82046DD
:1012200064380498B04123D3642200272046049EEA
:1012300031463B4617F09EFA0A223B4617F09AFACF
:10124000069802433CA8401942707D20C200204607
:1012500031463B4617F08EFAED1C059A102A03D84A
:10126000644A121BB741ADD36D1E02E0029D00E03F
:101270006D1C2E46681E0321059016F007FC481CC5
:10128000032801D0054600E00025032811D03CA822
:10129000841E3746E019407815F0E2FE012D07D094
:1012A000BE1EE05D15F0DCFEAD1E3746F2D100E05B
:1012B0007E1E0598022810D374423CA83018C51E23
:1012C000A87815F0CDFE687815F0CAFE287815F0DC
:1012D000C7FEE41CED1E002CF2D1484816F004FEB7
:1012E000299C002C03D52D2015F0BAFE64424049FC
:1012F000204616F0CBFB08460021012503910295FC
:1013000004916A1E05920A2201920646039C234616
:1013100017F030FA07460D46019A234616F0FAFFF9
:10132000301A069C20433CA9059A50540196049813
:101330000A3E039A904136D30A22002638462946AF
:10134000334617F017FA22433CA8029BC254059972
:1013500011291D46019C28D8204664380498B041C4
:1013600023D3642200272046049E31463B4617F0D3
:1013700001FA0A223B4617F0FDF9069802433CA801
:10138000401942707D20C200204631463B4617F08E
:10139000F1F9ED1C059A102A03D8F04A121BB74147
:1013A000ADD36D1E02E0029D00E06D1C2E46681E4E
:1013B0000321059016F06AFB481C032801D005465E
:1013C00000E0002503281CD03CA8841E3746E01905
:1013D000407815F045FE012D12D0BE1EE05D15F0DF
:1013E0003FFEAD1E3746F2D10BE0C0466E960100BF
:1013F00040420F00E7030000D79601003A96010033
:101400007E1E0598022810D374423CA83018C51ED1
:10141000A87815F025FE687815F022FE287815F0DA
:101420001FFEE41CED1E002CF2D1062000242146F4
:1014300016F0D2FFD44816F057FD07A8808E01257C
:1014400003942146029504916A1E05920A22019294
:101450000646039C234617F08DF907460D46019A70
:10146000234616F057FF301A069C20433CA9059AE4
:101470005054019604980A3E039A904136D30A22AA
:10148000002638462946334617F074F922433CA813
:10149000029BC254059911291D46019C28D820465B
:1014A00064380498B04123D3642200272046049E68
:1014B00031463B4617F05EF90A223B4617F05AF9CF
:1014C000069802433CA8401942707D20C200204685
:1014D00031463B4617F04EF9ED1C059A102A03D809
:1014E0009E4A121BB741ADD36D1E02E0029D00E083
:1014F0006D1C2E46681E0321069016F0C7FA481C84
:10150000032801D0054600E00025032811D03CA89F
:10151000841E3746E019407815F0A2FD012D07D052
:10152000BE1EE05D15F09CFDAD1E3746F2D100E019
:101530007E1E0698022800D2A7E074423CA830180C
:10154000C51EA87815F08CFD687815F089FD2878FF
:1015500015F086FDE41CED1E002CF2D195E02C78F0
:101560000020014616F038FF002C4ED08A4816F0B5
:10157000BBFC2879401EC0B2032852D8800087499E
:1015800008584FE0724816F0AFFC202015F068FDB7
:10159000304616F0A9FC02200024214616F01CFF5C
:1015A0006F4816F0A1FC1998C11710F019FF754883
:1015B00016F09AFC2498C11710F012FF042021465F
:1015C00016F00AFF674816F08FFC1C98C11710F040
:1015D00007FF654816F088FC1D98C11710F000FF42
:1015E0000620214616F0F8FE634816F07DFC0998A7
:1015F000C11710F0F5FE664816F076FC07A8808E3D
:10160000214611F001FC634840E0584816F06CFC9C
:10161000387B401EC0B202283CD880004E49085892
:1016200039E04B4816F060FC02200024214616F0F9
:10163000D3FE534816F058FC0898C11710F0D0FE9E
:10164000504816F051FC0798C11710F0C9FE04204D
:10165000214616F0C1FE484816F046FC0998C1170D
:1016600010F0BEFE454816F03FFC0A98C11710F076
:10167000B7FE0620214616F0AFFE434816F034FCB4
:1016800007A8808E214611F0BFFB404816F02CFCC5
:1016900041B0F0BD2F4816F027FC364816F024FC68
:1016A0003878199910F0ECFD202015F0D9FC30465F
:1016B00016F01AFC02200025294616F08DFE384847
:1016C00016F012FC2F98C11710F08AFE354816F05C
:1016D0000BFC3799369810F083FE0420294616F04B
:1016E0007BFE204816F000FC78781A9910F0C8FDAF
:1016F0001D4816F0F9FBB8781B9910F0C1FD0620C3
:10170000294616F069FE787B04280DD005280DD1F6
:10171000264816F0E9FBB87B401EC0B2062811D857
:101720008000234908580EE01F48AFE7F97B2248A4
:101730000329ABD1397C0629A8D0204816F0D4FB68
:10174000387CE9E70A4816F0CFFB1A489EE7C04606
:10175000A8940100BD9101006C900100E703000016
:10176000F99301009E96010092950100FE960100FA
:10177000E994010036960100D796010026940100F5
:10178000DD9601006E960100C29601006C92010088
:10179000CE9501002D92010090910100988F0100DB
:1017A0002A95010096950100738F01000A930100AC
:1017B000D88D01007C910100628F01007A920100B6
:1017C000F0B5C9B00B9105460EA844210170422125
:1017D0004170472181702C22C27052210171582121
:1017E00041710A92827174210491C1713D21059168
:1017F0000172002D40D0002401210A220C922646BD
:101800000D91144628460C9F394616F03FF92346A1
:1018100039460D9F4143691A30220A43741C46A978
:101820008A55082E04D8791C5A1C092D0546E6D87D
:101830000C930321304616F029F94B1C032B20D0C2
:101840001846022E20D30D9346AAD31E251A002235
:101850001E19B7780EA989184F7276788E721E5DA0
:10186000CE72D21CDB1E9542F2D1A71A09320C9916
:101870000D9B032B0CD11BE00EA8302141720A21D5
:1018800016E00020022EDED209220C99032B0FD085
:101890000EA9891846AABA18921E53780B7001280F
:1018A00005D013784B70891C921E801EF5D10C99BF
:1018B0000C46CBB20EA8C1180A9AC25465224A70CF
:1018C0007620029088700392CA706E200190087191
:1018D000049848710598887154200B99085C0D286C
:1018E00003D88000EB49085800E0EB48E11D05787B
:1018F000002D24D00D900846C9B20EAAD2180C9221
:10190000D924E31A0024A3421BD00D9A16190C9A6D
:101910001719FD717578002D19D04A1CE02A10D0D6
:101920003D72B578002D14D08A1CE02A09D0C91C5C
:10193000C01C7D72F578E41C002DE4D10AE0084655
:1019400008E00B980568E027002D21D1BDE0401C80
:1019500000E0801C0746C1B2E029084600D8E0201C
:101960004A09062A10D84B1C0EAA0A9C54548342DA
:1019700001D11F4608E08A1C0EAC6225E554824264
:1019800001D000F09BFE17460B980568002D34D05F
:101990000D970124671E0A262846314616F076F870
:1019A0004643A91B3026314346AAB954082F2FD8E5
:1019B0000A2D2DD30A2116F069F8314346A80155A6
:1019C000072F24D8642D22D36421284616F05EF810
:1019D0000A2116F05BF8314346A8001941707D20BA
:1019E000C100284616F052F8E41C062F03D8AB4974
:1019F0008D420546CED8641E0AE0F8B24109062998
:101A000063D87F1C0D970EA930220A5443E0641C52
:101A10000D98C3B2E02B184600D8E0200EA9C918D3
:101A2000C21A951E07950693181A401C099046A8DD
:101A3000C71EA01E0890601E0C900026B2421BD04C
:101A40003D19A87888550C98B04218D0099880198B
:101A500017D068788D1968700898B04215D007982B
:101A6000B04214D0385D0D9BDB1C0D93A870F61CA2
:101A7000FF1EB442E2D10EE0069880190AE00D98EC
:101A800001E006988019401C04E00D9801E00698DA
:101A90008019801C0D900D9FF9B2E029084600D8EE
:101AA000E0204A09062A10D84B1C0EAA0A9C54545E
:101AB000834201D11F4608E08A1C0EAC7025E55414
:101AC000824201D000F0D0FD17460B980569002D29
:101AD00036D00D97F8B206900124671E0A262846D4
:101AE000314615F0D3FF4643A91B3026314346AAA1
:101AF000B954082F2FD80A2D2DD30A2115F0C6FF6F
:101B0000314346A80155072F24D8642D22D36421E0
:101B1000284615F0BBFF0A2115F0B8FF314346A84F
:101B2000001941707D20C100284615F0AFFFE41C6C
:101B3000062F03D859498D420546CED8641E0AE0C7
:101B4000F8B24109072960D27F1C0D970EA93022F7
:101B50000A5441E0641C069AE02A00D8E0220EA84C
:101B6000069BC018D11A8D1E07959A1A521C09920D
:101B700046AAD61EA21E0892621E0C920025A942F9
:101B80001BD033199F7847550C9AAA4218D0099A4E
:101B9000571917D05F7843195F70089AAA4215D079
:101BA000079AAA4214D0375D0D9AD21C0D929F70ED
:101BB000ED1CF61EAC42E2D10EE0069840190AE098
:101BC0000D9801E006984019401C04E00D9801E0D2
:101BD00006984019801C0D900D9FF8B2E028014630
:101BE00000D8E0214209062A0FD8431C0EAA0A9CFD
:101BF00014548B4201D11F4607E0821C0EAC6125B4
:101C0000E5548A4200D089E017460B984569002DBB
:101C100036D00D97F8B206900124671E0A26284692
:101C2000314615F033FF4643A91B3026314346AAFF
:101C3000B954082F35D80A2D33D30A2115F026FFC1
:101C4000314346A80155072F2AD8642D28D3642193
:101C5000284615F01BFF0A2115F018FF314346A84E
:101C6000001941707D20C100284615F00FFFE41CCB
:101C7000062F03D809498D420546CED8641E10E0D0
:101C8000F8B24109072976D27F1C0D970EA93022A0
:101C90000A5457E0B88C010008920100E7030000E5
:101CA000641C069AE02A00D8E0220EA8069BC01801
:101CB000D11A8D1E07959A1A521C099246AAD61E51
:101CC000A21E0892621E0C920025A9421BD0331955
:101CD0009F7847550C9AAA4218D0099A571917D0DD
:101CE0005F7843195F70089AAA4215D0079AAA42F2
:101CF00024D0375D0D9AD21C0D929F70ED1CF61EFC
:101D0000AC42E2D11EE0069840191AE00D9801E0BD
:101D100006984019401C14E00D9811E0C31C0EAC4D
:101D20006325A5548B4200D165E7041D0EAAD55446
:101D30008C4201D000F0D3FC274666E70698401994
:101D4000801C0D900D9FF8B2E028014600D8E021DC
:101D50004209062A0FD8421C0EAB0A9C1C548A4228
:101D600001D1174607E0831C0EAC6C25A5548B42AD
:101D700000D083E01F460B98056A002D36D00D97E2
:101D8000F8B206900124671E0A262846314615F04F
:101D90007DFE4643A91B3026314346AAB954082F7D
:101DA0002FD80A2D2DD30A2115F070FE314346A8F5
:101DB0000155072F24D8642D22D36421284615F01D
:101DC00065FE0A2115F062FE314346A800194170F4
:101DD0007D20C100284615F059FEE41C062F03D8CB
:101DE000E9498D420546CED8641E0AE0F8B24109A1
:101DF000072971D27F1C0D970EA930220A5452E098
:101E0000641C069AE02A00D8E0220EA8069BC0189F
:101E1000D11A8D1E07959A1A521C099246AAD61EEF
:101E2000A21E0892621E0C920025A9421BD03319F3
:101E30009F7847550C9AAA4218D0099A571917D07B
:101E40005F7843195F70089AAA4215D0079AAA4290
:101E500025D0375D0D9AD21C0D929F70ED1CF61E99
:101E6000AC42E2D11FE0069840191BE00D9801E05A
:101E700006984019401C15E00D9812E0C21C0EACEB
:101E8000039DE5548A4200D16BE7001D0EAB019C17
:101E90009C54884201D000F04CFC07466BE7069842
:101EA0004019801C0D900D9FF8B2E028014600D823
:101EB000E0214209062A0FD8441C0EAA0A9B13549B
:101EC0008C4201D1274607E0831C0EAD63222A55C0
:101ED0008B4200D083E01F460B98456A002D36D018
:101EE0000D97F8B206900124671E0A26284631464F
:101EF00015F0CCFD4643A91B3026314346AAB95400
:101F0000082F2FD80A2D2DD30A2115F0BFFD3143FC
:101F100046A80155072F24D8642D22D364212846D2
:101F200015F0B4FD0A2115F0B1FD314346A80019A2
:101F300041707D20C100284615F0A8FDE41C062F45
:101F400003D891498D420546CED8641E0AE0F8B206
:101F5000410907296FD27F1C0D970EA930220A5420
:101F600050E0641C069AE02A00D8E0220EA8069BE6
:101F7000C018D11A8D1E07959A1A521C099246AAAA
:101F8000D61EA21E0892621E0C920025A9421BD0EA
:101F900033199F7847550C9AAA4218D0099A5719B5
:101FA00017D05F7843195F70089AAA4215D0079A34
:101FB000AA4223D0375D0D9AD21C0D929F70ED1C62
:101FC000F61EAC42E2D11DE00698401919E00D98CA
:101FD00001E006984019401C13E00D9810E0C41C65
:101FE0000EAD7226EE548C4200D16BE7001D0EAB95
:101FF0001A55884200D0A2E307466DE706984019BB
:10200000801C0D900D9FF9B2E029084600D8E02011
:102010004A09062A0FD84B1C0EAA0A9C5454834224
:1020200001D11F4607E08A1C0EAC6625E5548242AA
:1020300000D083E017460B98856B002D36D00D97A6
:10204000F8B206900124671E0A262846314615F08C
:102050001DFD4643A91B3026314346AAB954082F1B
:102060002FD80A2D2DD30A2115F010FD314346A893
:102070000155072F24D8642D22D36421284615F05A
:1020800005FD0A2115F002FD314346A800194170F3
:102090007D20C100284615F0F9FCE41C062F03D86A
:1020A00039498D420546CED8641E0AE0F8B241098E
:1020B000072973D27F1C0D970EA930220A5451E0D4
:1020C000641C069AE02A00D8E0220EA8069BC018DD
:1020D000D11A8D1E07959A1A521C099246AAD61E2D
:1020E000A21E0892621E0C920025A9421BD0331931
:1020F0009F7847550C9AAA4218D0099A571917D0B9
:102100005F7843195F70089AAA4215D0079AAA42CD
:1021100024D0375D0D9AD21C0D929F70ED1CF61ED7
:10212000AC42E2D11EE0069840191AE00D9801E099
:1021300006984019401C14E00D9811E0CB1C0EAC21
:102140006925A554834200D16BE70C1D0EAA039D9F
:10215000D554844200D0F8E227466CE7069840192F
:10216000801C0D900D9FF9B2E029084600D8E020B0
:102170004A09062A12D84B1C0EAA0A9C54548342C0
:1021800004D11F460AE0C046E70300008A1C0EACDB
:102190006425E554824200D083E017460B98C56B56
:1021A000002D36D00D97F8B206900124671E0A263E
:1021B0002846314615F06AFC4643A91B30263143B8
:1021C00046AAB954082F2FD80A2D2DD30A2115F06D
:1021D0005DFC314346A80155072F24D8642D22D336
:1021E0006421284615F052FC0A2115F04FFC3143BA
:1021F00046A8001941707D20C100284615F046FC14
:10220000E41C062F03D8F2498D420546CED8641E41
:102210000AE0F8B24109072970D27F1C0D970EA978
:1022200030220A5451E0641C069AE02A00D8E022C9
:102230000EA8069BC018D11A8D1E07959A1A521C1B
:10224000099246AAD61EA21E0892621E0C92002572
:10225000A9421BD033199F7847550C9AAA4218D02F
:10226000099A571917D05F7843195F70089AAA42E4
:1022700015D0079AAA4224D0375D0D9AD21C0D9230
:102280009F70ED1CF61EAC42E2D11EE0069840198C
:102290001AE00D9801E006984019401C14E00D98D2
:1022A00011E0CB1C0EAC7525A554834200D168E724
:1022B000091D0EAA7024D454814200D054E20F4666
:1022C0006CE706984019801C0D900D9FF9B2E0292B
:1022D000084600D8E0204A09062A0FD84B1C0EAA4F
:1022E0000A9C5454834201D11F4607E08A1C0EAC5D
:1022F0006F25E554824200D083E017460B98056CA9
:10230000002D36D00D97F8B206900124671E0A26DC
:102310002846314615F0BAFB4643A91B3026314307
:1023200046AAB954082F2FD80A2D2DD30A2115F00B
:10233000ADFB314346A80155072F24D8642D22D385
:102340006421284615F0A2FB0A2115F09FFB3143BA
:1023500046A8001941707D20C100284615F096FB63
:10236000E41C062F03D89A498D420546CED8641E38
:102370000AE0F8B24109072970D27F1C0D970EA917
:1023800030220A5451E0641C069AE02A00D8E02268
:102390000EA8069BC018D11A8D1E07959A1A521CBA
:1023A000099246AAD61EA21E0892621E0C92002511
:1023B000A9421BD033199F7847550C9AAA4218D0CE
:1023C000099A571917D05F7843195F70089AAA4283
:1023D00015D0079AAA4224D0375D0D9AD21C0D92CF
:1023E0009F70ED1CF61EAC42E2D11EE0069840192B
:1023F0001AE00D9801E006984019401C14E00D9871
:1024000011E0CB1C0EAC6C25A554834200D16BE7C8
:10241000091D0EAA6424D454814200D0A9E10F46BC
:102420006CE706984019801C0D900D9FF9B2E029C9
:10243000084600D8E0204A09062A0FD84A1C0EABED
:102440000A9C5C54824201D1174607E08B1C0EACFB
:102450006F25A554834200D083E01F460B98446843
:10246000002C34D00D970126771E0A2520462946D8
:1024700015F00CFB4543611B3025294346AAB9548E
:10248000082F2FD80A2C2DD30A2115F0FFFA294343
:1024900046A88155072F24D8642C22D364212046D6
:1024A00015F0F4FA0A2115F0F1FA294346A880192B
:1024B00041707D20C100204615F0E8FAF61C062F79
:1024C00003D8C5498C420446CED8761E0AE0F8B23D
:1024D000410907296AD27F1C0D970EA930220A54A0
:1024E00053E0761C0D98C3B2E02B184600D8E020CC
:1024F0000EA9C918C21A941E09940893181A401CF0
:102500000B9046A8C71EB01E0A90701E0C900025A6
:10251000AA421BD0BC19A07848550C98A84218D0E4
:102520000B98401917D060784C1960700A98A8422F
:1025300015D00998A84224D0B85D0D9BDB1C0D93E3
:10254000A070ED1CFF1EAE42E2D11EE008984019BB
:102550001AE00D9801E008984019401C14E00D980D
:1025600011E0CA1C0EAC029DE554824200D16BE71B
:10257000091D0EAB66249C54814200D0FEE00F463C
:102580006CE708984019801C0D900D9FF9B248091E
:1025900006280BD8481C0EAA0D235354E02801D15D
:1025A000E02703E0BF1C0EA90A220A548B4DFFB29C
:1025B0008B4800888B4E3188C94340182840B84268
:1025C00008D28A488169491C816149B0F0BDC04682
:1025D000E70300007C1E0321204615F057FA4A1C31
:1025E0000021032A084600D010460C92022C20D36A
:1025F000391A0D9100217C4C0EAA5718525C2B46BB
:10260000358862553288521C1A4032807A78358873
:1026100062553288521C1A403280BA783588625529
:102620001D463288521C1A403280C91C0D9A8A42BB
:10263000E2D10C9A032A15D00EAA51186A4A0B78D7
:102640003488135533885B1C2B403380012809D014
:102650004B783488135533885B1C2B403380891C9E
:10266000801EECD149B0F0BDCB1C0EAC6125A55449
:10267000834201D1FFF71EFA0A1D0EAC7225E55404
:10268000824201D1FFF720FA4B1D0EAC7325A554F1
:10269000834201D1FFF70EFA8A1D0EAC039DE5546B
:1026A000824201D1FFF710FAC91D0EAB64249C547D
:1026B000814200D083E00F46FFF707FACB1C0EAC37
:1026C0007925A554834201D1FFF753F90C1D0EAAB9
:1026D000049DD554844256D12746FFF755F9421D33
:1026E0000EAB039D1D558A4201D1FFF78DFA831D64
:1026F0000EAC7025A5548B4201D1FFF77CFAC41DA6
:102700000EAA049DD5548C4201D1FFF715FB024659
:1027100008320EAB039D1D558A4201D1FFF774FAB2
:1027200009300EAB64249C5488424ED10746FFF713
:102730006CFA7F1D0EA9059A0A54FFF71CFB7F1D3A
:102740000EA9059A0A54FFF7C7FB4A1D0EAB6C256C
:102750001D55824200D16DE4891D0EAB64249C544A
:10276000814221D10F4666E47F1D0EA8059A42548E
:1027700014E57F1D0EA8059A4254BFE57F1D0EA8E3
:10278000059A42546AE64A1D0EAB039D1D558242CE
:1027900001D1FFF7F8F8891D0EAB73249C548142D8
:1027A00007D10F46FFF7F0F8FF1D0EA8059A425417
:1027B00041E4FF1D0EA8059A4254FFF7E5F80837DB
:1027C0000EA8059A4254FFF780F90A370EA9059A18
:1027D0000A54FFF71AFAC046E7030000FF0700009B
:1027E0002A19202028192020000020202817202026
:1027F000F0B5D3B00C930D4604461192D069211A5E
:102800000D910026F14300280B4600D00D9BA848EF
:102810008268A01A0292002A00D001460A910B9009
:1028200014A84421017042214170472181702C225B
:10283000C27043210171542107914171522181716C
:102840004C21C171129202727421039141723D2197
:1028500009918172002C049406933CD00F950121BC
:102860000C223546139117460A262046314615F0AC
:102870000DF9139B4643A11B30220A436E1C50A93D
:102880004A55082D04D8591C7A1C092C0446E8D84E
:102890001C4610970321284615F0F8F84F1C032F0B
:1028A0001ED03846022D1ED3139750AAD31E341AB9
:1028B00000229D19AF7814A98918CF726D780D7315
:1028C0009D5D4D73D21CDB1E9442F2D1B31A0B32C4
:1028D0001099139F0AE014A83021C1720C2118E04E
:1028E0000020022DE0D223460B221099032F0F9DCA
:1028F0000FD014A9891850AA9A18921E53780B70F9
:10290000012805D013784B70891C921E801EF5D1CA
:1029100010990C46C8B214A90A18129B0B546F21C7
:1029200051706C210191917064210091D1700999CD
:102930001171072D03D8A9005E4A525800E05E4A83
:1029400011993C311191611D1778002F2AD0CBB21B
:1029500014AC24180F94EB24201A10900026F020B9
:10296000109CB442139037D094190F9DAD196F711C
:102970006778002F13D010465A1CF02A2CD0AF7164
:10298000A778002F0DD09A1CF02A25D0DB1CC91C7B
:10299000EF71E778F61C002F0246E0D102E0491CF7
:1029A00000E0891CCBB2F02B1A4600D8F02218099F
:1029B0000E2801D913910FE0581C14AC129DE55458
:1029C000904201D1139007E09C1C14AD6E262E544A
:1029D000944200D095E013941199C9780729059184
:1029E00003D88900334A525800E0334A117800294D
:1029F00013982FD0C3B2F02B1D4600D8F02514AC8D
:102A0000E4180895ED1AAB1E0E9310956B1E0F93EC
:102A10000023109D9D4218D0D618E1547778002FDE
:102A200015D00F99994210D0E1184F70B778002F48
:102A30000FD015460E9A9A4207D0C01C8F70F178BD
:102A4000DB1C00292A46E4D104E0089802E0401C7F
:102A500000E0801C589908910599052900D0B9E03B
:102A6000C2B2F02A114600D8F02113090E2B0FD85C
:102A7000541C14AB129D9D548C4201D1204607E09A
:102A8000931C14AD63262E558B4200D080E018466F
:102A9000049C1199897804290B9B49D8074DC0469D
:102AA0007944097949008F440B443F413D00C046B9
:102AB000A8162020B88D010008920100E0910100C5
:102AC000F84D0299002934D0F74AC73A934230D8DA
:102AD0000799089B595C091FC9B20A2905D2F34B13
:102AE000CB40DB0701D000F0FFFD0899896C631A29
:102AF000EF4D93422A4600D8EE4A002919D01546D8
:102B000017E0D81C14AD65262E55904200D159E728
:102B10001B1D14AC77252554934201D000F0C9FD4C
:102B2000139359E7E44D04E0E44D02E0E44D00E086
:102B3000E44D2F78002F4DD01095C1B2F0290B46EF
:102B400000D8F02314AA521813935B1A991E0E9101
:102B5000591E0F910026B34217D010998919975525
:102B60004C78002C33D00F9DB5420ED097197C7055
:102B70008C78002C2DD00E9DB54206D0C01CBC70A8
:102B8000CF78F61C002FE6D124E00B980D9E3DE097
:102B9000D41C14AD6126EE548C4200D16EE7131D97
:102BA00014AD75262E558B4200D170E7541D14AD1F
:102BB0007326EE548C4200D160E7921D14AB65255C
:102BC0001D558A4201D000F0A5FD104660E7401C6B
:102BD00000E0801CC2B2F02A114600D8F02113098F
:102BE0000E2B0D9E01D913900FE0571C14AB129CB5
:102BF0009C548F4201D1139707E0931C14AC6D25B0
:102C0000E5558B4200D017E213930B98069B002BDF
:102C10000BD415D1139EF4B221090F2900D39FE0E4
:102C2000731C14A930220A5580E0139AD0B201090E
:102C30000E2904D8521C139214A92D220A545E4264
:102C400001256F1E0A243046214614F01FFF44431D
:102C5000311B3024214350AAB954082F25D80A2EFD
:102C600023D30A2114F012FF214350A84155072F06
:102C70001AD8642E18D36421304614F007FF0A21B5
:102C800014F004FF214350A8401941707D20C10079
:102C9000304614F0FBFEED1C062F03D882498E420D
:102CA0000646CED86D1E00E06D1C13980346C4B2D4
:102CB000F02C204600D8F02014A90919021B961EFA
:102CC0000D960694201A401C0F9050A8C71EA81EEF
:102CD0000E90681E10900026B24219D07C19A07880
:102CE00088551098B04216D00F98801915D060788A
:102CF0008C1960700E98B04213D00D98B04212D06B
:102D0000785DDB1CA070F61CFF1EB542E4D10DE01F
:102D1000069883190AE05B1C08E006988019431C9A
:102D200004E09B1C02E006988019831C1E46D9B261
:102D3000F029084600D8F0200A090E2A0FD84B1CAB
:102D400014AA129C5454834201D11E4607E08A1CE7
:102D500014AC7225E554824200D039E116460B9836
:102D60000A99002902D474D013960AE0F0B201093E
:102D70000E2903D8761C14A92D220A5413960A98FA
:102D8000404201256F1E0A242146064614F07EFEAD
:102D90004443311B3024214350AAB954082F25D86D
:102DA00033460A2E22D30A2114F070FE214350AA82
:102DB0005155072F19D83046642E16D3642114F0CC
:102DC00065FE0A2114F062FE214350A840194170AB
:102DD0007D20C100304614F059FEED1C062F02D8AC
:102DE00031498E42CED86D1E00E06D1C139803460B
:102DF000C4B2F02C204600D8F02014A90919021BF7
:102E0000961E0D960B94201A401C0F9050A8C71EBA
:102E1000A81E0E90681E10900026B24222D07C1987
:102E2000A07888551098B0421FD00F9880191ED0F6
:102E300060788C1960700E98B0421CD00D98B0422A
:102E40001BD0785DDB1CA070F61CFF1EB542E4D1E0
:102E500016E0F0B201090F293ED2731C14A93022EA
:102E60000A540DE00B9883190AE05B1C08E00B98EC
:102E70008019431C04E09B1C02E00B988019831C02
:102E80001E46D9B2F029084600D8F0200A090E2AB9
:102E900022D84B1C14AA129C5454834214D11E46AF
:102EA0001AE0C0460F900100E70300000F03000086
:102EB0002E8F010052900100A2910100F8900100B4
:102EC000C0900100089201008A1C14AC7325E554DF
:102ED000824200D09AE016460C98048A002C36D024
:102EE0001396F0B20B9001277E1E0A252046294634
:102EF00014F0CCFD4543611B3025294350AAB15441
:102F0000082E30D80A2C2ED30A2114F0BFFD2943F5
:102F100050A8C155072E25D8642C23D36421204600
:102F200014F0B4FD0A2114F0B1FD294350A8C019D2
:102F300041707D20C100204614F0A8FDFF1C062E24
:102F400003D8F9498C420446CED87F1E0BE0F0B27C
:102F500001090F2900D3A5E0761C139614A930228D
:102F60000A5486E07F1C0B9AF02A00D8F02214A89D
:102F70000B9BC018D11A8C1E0D949A1A521C0F92DA
:102F800050AAD51EBA1E0E927A1E10920024A1429B
:102F90001BD0EB199E780655109AA24246D00F9A84
:102FA000161945D05E7803195E700E9AA2425AD067
:102FB0000D9AA24259D0EE5D139AD21C13929E70C4
:102FC000E41CED1EA742E2D153E00B9800194FE03C
:102FD000CB1C14AC7825A554834200D1B5E60A1D5C
:102FE00014AC6125E554824200D1B7E64B1D14AC08
:102FF0006725A554834200D1A7E6891D14AA65243C
:10300000D454814200D074E30E46A8E6CB1C14AC25
:103010006525A554834200D141E7091D14AA7124F6
:10302000D454814200D03FE30E4655E7139801E0A7
:103030000B980019401C1BE0D71C14AC6125E5540B
:103040008F4200D1D7E5131D14AC6725E5558B429F
:1030500000D1D9E5521D14AC6525E5548A4200D053
:103060002EE31392D1E5139801E00B980019801C10
:103070001390139EF0B2F028014600D8F021020907
:103080000E2A0FD8431C14AA129C14548B4201D14F
:103090001E4607E0821C14AC7625E5548A4200D017
:1030A00083E016460C984478002C36D01396F0B284
:1030B0000B9001277E1E0A252046294614F0E6FCC7
:1030C0004543611B3025294350AAB154082E2FD8FF
:1030D0000A2C2DD30A2114F0D9FC294350A8C1553C
:1030E000072E24D8642C22D36421204614F0CEFC71
:1030F0000A2114F0CBFC294350A8C01941707D204F
:10310000C100204614F0C2FCFF1C062E03D89349D0
:103110008C420446CED87F1E0AE0F0B201090F2986
:103120007ED2761C139614A930220A545FE07F1CCD
:103130000B9AF02A00D8F02214A80B9BC018D11AC1
:103140008C1E0D949A1A521C0F9250AAD51EBA1EAC
:103150000E927A1E10920024A1421BD0EB199E7889
:103160000655109AA24218D00F9A161917D05E78F9
:1031700003195E700E9AA24215D00D9AA24232D067
:10318000EE5D139AD21C13929E70E41CED1EA742B2
:10319000E2D12CE00B98001928E0139801E00B987D
:1031A0000019401C22E013981FE0C31C14AC6125D9
:1031B000A5548B4200D16BE7021D14AC019DE55470
:1031C0008A4200D16DE7431D14AC6925A5548B429A
:1031D00000D15DE7801D14AA009CD454884200D021
:1031E0008DE206465EE70B980019801C1390139E33
:1031F000F1B2F029084600D8F0200A090E2A0FD8AB
:103200004B1C14AA129C5454834201D11E4607E061
:103210008A1C14AC6D25E554824200D086E0164627
:103220000C988478002C36D01396F0B20C900127BD
:103230007E1E0A252046294614F028FC4543611BC2
:103240003025294350AAB154082E30D80A2C2ED349
:103250000A2114F01BFC294350A8C155072E25D87C
:10326000642C23D36421204614F010FC0A2114F0AE
:103270000DFC294350A8C01941707D20C100204693
:1032800014F004FCFF1C062E03D834498C4204467B
:10329000CED87F1E0BE0F0B201090F2900D384E0E5
:1032A000761C139614A930220A545DE07F1C0C9AF8
:1032B000F02A00D8F02214A80C9BC018D11A8C1E3A
:1032C0000D949A1A521C0F9250AAD51EBA1E0E9235
:1032D0007A1E10920024A1421BD0EB199E7806554D
:1032E000109AA24218D00F9A161917D05E780319B7
:1032F0005E700E9AA24215D00D9AA24230D0EE5DB9
:10330000139AD21C13929E70E41CED1EA742E2D1C8
:103310002AE00C98001926E0139801E00C98001997
:10332000401C20E013981DE0E7030000CB1C14AC08
:103330006525A554834200D168E70A1D14AC6125B8
:10334000E554824200D16AE7491D14AB73249C54B2
:10335000814200D0BBE10E4662E7C046E7030000B1
:103360000C980019801C1390139EF1B2F0290846A6
:1033700000D8F0200A090E2A17D84A1C14AB129C58
:103380005C54824201D116460FE08B1C14AC7325AD
:10339000A554834201D11E4607E0CC1C14AA039D0C
:1033A000D554844200D062E1264611980478002C5E
:1033B00036D01396F0B20D9001277E1E0A252046C6
:1033C000294614F063FB4543611B3025294350AA6D
:1033D000B154082E2FD80A2C2DD30A2114F056FBF5
:1033E000294350A8C155072E24D8642C22D3642128
:1033F000204614F04BFB0A2114F048FB294350A847
:10340000C01941707D20C100204614F03FFBFF1C15
:10341000062E03D8C6498C420446CED87F1E0AE049
:10342000F0B201090F2960D2761C139614A930223C
:103430000A5441E07F1C0D9AF02A00D8F02214A80B
:103440000D9BC018D11A8C1E0E949A1A521C109201
:1034500050AAD51EBA1E0F927A1E11920024A142C4
:103460001BD0EB199E780655119AA24218D0109ADB
:10347000161917D05E7803195E700F9AA24215D004
:103480000E9AA24214D0EE5D139AD21C13929E7033
:10349000E41CED1EA742E2D10EE00D9800190AE0EF
:1034A000139801E00D980019401C04E0139801E006
:1034B0000D980019801C1390139EF0B2F02801465D
:1034C00000D8F02102090E2A0FD8441C14AA129B1E
:1034D00013548C4201D1264607E0831C14AD6522AB
:1034E0002A558B4200D0ADE01E4607980899085C2B
:1034F0000D2803D880009049095800E08B490F78C7
:10350000002F2BD03546F0B2F028034600D8F02328
:1035100014AA121810931B1A981E11901393581E78
:10352000129000261398B0421AD088199755447803
:10353000002C17D0129BB34212D097197C7084785C
:10354000002C11D00B461199B14209D0ED1CBC7072
:10355000C778F61C002F1946E4D106E0354604E092
:10356000109B14E06D1C00E0AD1CE9B208090E28A8
:1035700001D92B460BE0481C14AA0D235354F02804
:1035800001D1F02303E0AB1C14A90A220A546B4DAD
:10359000DFB26B4800886B4E3188C9434018284021
:1035A000B84205D269488169491C816153B0F0BDB8
:1035B0007C1E0321204614F069FA4A1C0021032ACC
:1035C000084600D010461292022C20D3391A1391CB
:1035D00000215D4C14AA5718525C2B463588625561
:1035E0003288521C1A4032807A7835886255328887
:1035F000521C1A403280BA78358862551D4632888E
:10360000521C1A403280C91C139A8A42E2D1129A83
:10361000032A15D014AA51184B4A0B783488135535
:1036200033885B1C2B403380012809D04B783488C9
:10363000135533885B1C2B403380891C801EECD1D2
:1036400053B0F0BDC41C14AD7626EE548C4200D1AC
:1036500041E7031D14AD2A558B4200D144E7421DBA
:1036600014AC6E25E5548A4236D116463DE70A1D54
:1036700014AB72251D55824200D184E64B1D14AC5B
:103680006525A554834200D185E68A1D14AC6125C9
:10369000E554824200D176E6C91D14AB6B249C54DC
:1036A00081423DD10E4680E6761D14A8099A425407
:1036B00012E4481D139014A9099ACA54FFF78CF913
:1036C000801D139014A809998154FFF79EFAB61D26
:1036D00014A8099A4254A3E5801D14AB039C9C5482
:1036E000884211D1064600E78900124A5558FFF773
:1036F00020FAF61D14A8099A4254FFF730FBF61D74
:1037000014A9099A0A54CDE4139EF61D14A9099A26
:103710000A54EAE6C01D14A9099B8B54FFF7B8F9B7
:10372000083614A8099A42543FE6C04608920100A0
:10373000E7030000508D0100B88C0100FF07000076
:103740002A192020281920200000202028172020B6
:10375000F0B5C3B00C920D91064610A8442101703B
:1037600042214170472181702C22C2704621017193
:10377000492141714C2181715421C171452101724E
:10378000522141720B92827274210591C1723D21C6
:1037900006910173002E3ED0002401210E222746FF
:1037A0000E9115460A243046214614F06FF90E9BFF
:1037B0004443311B30220A437C1C40A9CA55082FC0
:1037C00004D8591C6A1C092E0646E8D81E460F95D7
:1037D0000321384614F05AF94D1C032D20D02846F9
:1037E000022F20D30E9540AAD31E251A00221E199F
:1037F000B77810A989184F7376788E731E5DCE73D3
:10380000D21CDB1E9542F2D1A31A0D320F990E9DE8
:10381000032D0DD11CE010A8302141730E2117E0BB
:103820000020022FDED233460D220F99032D0FD038
:1038300010A9891840AA9A18921E53780B70012873
:1038400005D013784B70891C921E801EF5D10F99FC
:103850000A46CBB210A8C1180B9CC4547220487001
:1038600065200390887073200490C87075200290C2
:1038700008716C2001904871059888710698C8718C
:103880003E200D99085C042803D88000F0490858B0
:1038900000E0F04808320578002D24D00F90104643
:1038A000D1B210AAD2180E92B824E31A0024A3426F
:1038B0001BD00F9A16190E9A17193D727578002DA4
:1038C00019D04A1CC02A10D07D72B578002D14D0B2
:1038D0008A1CC02A09D0C91CC01CBD72F578E41C22
:1038E000002DE4D10AE0104608E00C98068AC023B7
:1038F000002E1FD1C7E0401C00E0801C0346C1B26F
:10390000C0290D4600D8C0258A09022A0ED84A1CB3
:1039100010AB0B9C5C54AA4201D1134606E08B1CF1
:1039200010AC049EA654AB4200D015E20C98068A57
:10393000002E34D00F9301256F1E0A2430462146F5
:1039400014F0A4F84443311B3024214340AAB95455
:10395000082F2FD80A2E2DD30A2114F097F82143CF
:1039600040A84155072F24D8642E22D36421304625
:1039700014F08CF80A2114F089F8214340A840196A
:1039800041707D20C100304614F080F8ED1C062FF8
:1039900003D8B1498E420646CED86D1E0AE0D8B291
:1039A000810902296FD85B1C0F9310A930220A5499
:1039B00043E06D1C0F98C3B2C02B184600D8C0203E
:1039C00010A9C918C21A941E08940793181A401C0B
:1039D0000A9040A8C71EA81E0990681E0E900026D7
:1039E000B2421BD07C19A07888550E98B04218D0EE
:1039F0000A98801917D060788C1960700998B042C5
:103A000015D00898B04214D0785D0F9BDB1C0F9343
:103A1000A070F61CFF1EB542E2D10EE00798801997
:103A20000AE00F9801E007988019401C04E00F9805
:103A300001E007988019801C0F900F9BD9B2C02914
:103A4000084600D8C0208A09022A1CD84B1C10AA9C
:103A50000B9C5454834216D08A1C10AC7625E55436
:103A6000824201D113460EE0CB1C10AC6125A55457
:103A7000834208D00C1D10AA019DD554844201D068
:103A800000F0BCFC23460C984678002E36D00F93ED
:103A9000D8B2079001277D1E0A243046214613F034
:103AA000F5FF4443311B3024214340AAA954082D7B
:103AB0002FD80A2E2DD30A2113F0E8FF214340A866
:103AC000C155072D24D8642E22D36421304613F02B
:103AD000DDFF0A2113F0DAFF214340A8C01941702D
:103AE0007D20C100304613F0D1FFFF1C062D03D806
:103AF00059498E420646CED87F1E0AE0D8B28109C7
:103B000003295FD25B1C0F9310A930220A5441E0B5
:103B10007F1C079AC02A00D8C02210A8079BC01893
:103B2000D11A8C1E08949A1A521C0A9240AAD51EC9
:103B3000BA1E09927A1E0E920024A1421BD0EB19E4
:103B40009E7806550E9AA24218D00A9A161917D0D6
:103B50005E7803195E70099AA24215D0089AA242B3
:103B600014D0EE5D0F9AD21C0F929E70E41CED1ED5
:103B7000A742E2D10EE0079800190AE00F9801E091
:103B800007980019401C04E00F9801E007980019FD
:103B9000801C0F900F9BD8B2C028014600D8C021CE
:103BA0008209022A0ED8421C10AB0B9C1C548A427C
:103BB00001D1134606E0831C10AC6D25A5548B4241
:103BC00000D089E00C988678002E36D00F93D8B2BA
:103BD000079001277D1E0A243046214613F056FF28
:103BE0004443311B3024214340AAA954082D36D820
:103BF0000A2E34D30A2113F049FF214340A8C155AE
:103C0000072D2BD8642E29D36421304613F03EFFB4
:103C10000A2113F03BFF214340A8C01941707D20C9
:103C2000C100304613F032FFFF1C062D03D80A49AD
:103C30008E420646CED87F1E11E0D8B281090329F4
:103C400000D39EE05B1C0F9310A930220A545EE063
:103C5000E08E010008920100E70300007F1C079A34
:103C6000C02A00D8C02210A8079BC018D11A8C1EE9
:103C700008949A1A521C0A9240AAD51EBA1E09929A
:103C80007A1E0E920024A1421BD0EB199E78065595
:103C90000E9AA24218D00A9A161917D05E78031904
:103CA0005E70099AA24215D0089AA2422BD0EE5D0E
:103CB0000F9AD21C0F929E70E41CED1EA742E2D117
:103CC00025E00798001921E00F9801E007980019F6
:103CD000401C1BE00F9818E0C21C10AC039DE5547B
:103CE0008A4200D165E7031D10AC6125A5548B42C3
:103CF00000D167E7401D10AA049CD454884200D02C
:103D000094E303465EE707980019801C0F900F9B11
:103D1000D8B2C028014600D8C0218209022A30D872
:103D2000431C10AA0B9C14548B422AD0821C10AC4A
:103D30007025E5548A4201D1134622E0C31C10AC21
:103D40006F25A5548B421CD0001D10AA049CD4548E
:103D5000884211D1034614E0CA1C10AC039EE654FD
:103D6000AA4200D1D9E5091D10AB71249C54A94287
:103D700000D054E30B46D9E50F9B5B1D10A9069AB2
:103D80000A5412200C990D5E002D02D474D00F93AA
:103D900009E0D8B28109022903D85B1C10A92D22A1
:103DA0000A540F936D420126771E0A2428462146A5
:103DB00013F06CFE4443291B3024214340AAB9541C
:103DC000082F25D80A2D23D30A2113F05FFE2143A3
:103DD00040A88155072F1AD8642D18D3642128468E
:103DE00013F054FE0A2113F051FE214340A880191C
:103DF00041707D20C100284613F048FEF61C062FB6
:103E000003D8FE498D420546CED8761E00E0761CCA
:103E10000F98C3B2C02B184600D8C02010A9C918EB
:103E2000C21A941E09940893181A401C0C9040A8BA
:103E3000C71EB01E0A90701E0E900025AA4225D003
:103E4000BC19A07848550E98A84222D00C98401969
:103E500021D060784C1960700A98A8421FD0099848
:103E6000A8421ED0B85D0F9BDB1C0F93A070ED1C09
:103E7000FF1EAE42E2D118E0D8B28109032938D240
:103E80005B1C0F9310A930220A540EE008984019C9
:103E90000AE00F9801E008984019401C04E00F98D0
:103EA00001E008984019801C0F900F9BD8B2C028E1
:103EB000014600D8C0218209022A1AD8431C10AA40
:103EC0000B9C14548B4214D0821C10AC6125E55419
:103ED0008A4201D113460CE0C31C10AC6325A554E3
:103EE0008B4206D0041D10AAD5548C4200D060E24B
:103EF00023460D98056A002D36D00F93D8B208904E
:103F000001277E1E0A242846214613F0BFFD4443A4
:103F1000291B3024214340AAB154082E2FD80A2D42
:103F20002DD30A2113F0B2FD214340A8C155072E1D
:103F300024D8642D22D36421284613F0A7FD0A213A
:103F400013F0A4FD214340A8C01941707D20C10099
:103F5000284613F09BFDFF1C062E03D8A7498D426F
:103F60000546CED87F1E0AE0D8B28109032966D261
:103F70005B1C0F9310A930220A5441E07F1C089A61
:103F8000C02A00D8C02210A8089BC018D11A8C1EC5
:103F900009949A1A521C0C9240AAD51EBA1E0A9273
:103FA0007A1E0E920024A1421BD0EB199E78065572
:103FB0000E9AA24218D00C9A161917D05E780319DF
:103FC0005E700A9AA24215D0099AA24214D0EE5D00
:103FD0000F9AD21C0F929E70E41CED1EA742E2D1F4
:103FE0000EE0089800190AE00F9801E008980019FF
:103FF000401C04E00F9801E008980019801C0F9005
:104000000F9BD9B2C029084600D8C0208A09022ACD
:1040100015D84A1C10AB0B9C5C54824201D113464C
:104020000DE08B1C10AC6A25A554834207D0CC1C34
:1040300010AA029DD554844200D09CE123460D98DD
:10404000456A002D36D00F93D8B2089001277E1E06
:104050000A242846214613F019FD4443291B302425
:10406000214340AAB154082E2FD80A2D2DD30A215E
:1040700013F00CFD214340A8C155072E24D8642D10
:1040800022D36421284613F001FD0A2113F0FEFC1F
:10409000214340A8C01941707D20C100284613F07B
:1040A000F5FCFF1C062E03D8F0498D420546CED8FC
:1040B0007F1E0AE0D8B28109032965D25B1C0F93E9
:1040C00010A930220A5441E07F1C089AC02A00D867
:1040D000C02210A8089BC018D11A8C1E09949A1AE5
:1040E000521C0C9240AAD51EBA1E0A927A1E0E923B
:1040F0000024A1421BD0EB199E7806550E9AA242CD
:1041000018D00C9A161917D05E7803195E700A9AA7
:10411000A24215D0099AA24214D0EE5D0F9AD21C89
:104120000F929E70E41CED1EA742E2D10EE00898AB
:1041300000190AE00F9801E008980019401C04E0FB
:104140000F9801E008980019801C0F900F9BD9B2BE
:10415000C029084600D8C0208A09022A14D84B1C5E
:1041600010AA0B9C545483420ED08A1C10AC6825B4
:10417000E554824201D1134606E0CB1C10AC6F25FA
:10418000A554834200D005E10D98846A002C37D0F5
:104190000F930126771E0A252046294613F076FC48
:1041A0004543611B3025294340AAB954082F32D812
:1041B0000A2C30D30A2113F069FC294340A8815509
:1041C000072F27D8642C25D36421204613F05EFCEA
:1041D0000A2113F05BFC294340A8801941707D201F
:1041E000C100204613F052FCF61C062F03D89F494D
:1041F0008C420446CED8761E0DE0C046E703000090
:10420000D8B2810903295BD25B1C0F9310A930221D
:104210000A5443E0761C0F98C3B2C02B184600D84E
:10422000C02010A9C918C21A941E0B940A93181A18
:10423000401C0D9040A8C71EB01E0C90701E0E9022
:104240000025AA421BD0BC19A07848550E98A84258
:1042500018D00D98401917D060784C1960700C98E0
:10426000A84215D00B98A84214D0B85D0F9BDB1C58
:104270000F93A070ED1CFF1EAE42E2D10EE00A9833
:1042800040190AE00F9801E00A984019401C04E028
:104290000F9801E00A984019801C0F900F9BD9B22B
:1042A000880902280CD8481C10AA0D235354C02892
:1042B00001D1C02304E00F9B9B1C10A90A220A54C1
:1042C0006B4DDFB26B4800886B4E3188C943401894
:1042D0002840B84205D26A488169491C816143B0CF
:1042E000F0BD7C1E0321204613F0D0FB4A1C0021A8
:1042F000032A084600D010460E92022C20D3391A09
:104300000F9100215D4C10AA5718525C2B4635883E
:1043100062553288521C1A4032807A78358862554C
:104320003288521C1A403280BA78358862551D4650
:104330003288521C1A403280C91C0F9A8A42E2D13C
:104340000E9A032A15D010AA51184C4A0B783488BB
:10435000135533885B1C2B403380012809D04B78E0
:104360003488135533885B1C2B403380891C801E96
:10437000ECD143B0F0BD0A1D10AB6D251D55824236
:1043800000D14CE6491D10AB70249C54814254D19D
:104390000B4654E60A1D10AC019DE554824200D143
:1043A000E9E6491D10AB64249C5481424BD10B4675
:1043B000EAE6421D10AB039D1D558A4200D189E5F6
:1043C000831D10AC7025A5548B4200D191E5C41D0E
:1043D00010AA059DD5548C4200D189E502460832C9
:1043E00010AB039D1D558A4200D173E5093010AB17
:1043F00064249C54884233D103467AE54A1D10ABAD
:1044000069251D55824201D1FFF72CFB891D10AB98
:1044100064249C5481421CD10B46FFF734FB0346B5
:10442000431D10A8069A4254FFF780FA0F9B9B1D6C
:1044300010A9069A0A54FFF7C5FB0F9B9B1D10A8F5
:10444000069A4254FBE50F9B9B1D10A8069A425406
:104450009AE60F9BDB1D10A8069A4254FFF713FB48
:104460000F9B0A3310A9069A0A5442E5E70300009D
:10447000FF0700002A1920202819202000002020F2
:1044800028172020F0B58DB0002614F08DFA0446D0
:104490003046314613F0A0FFD64813F025FD0194B5
:1044A000E06A012504963146039505916A1E06923D
:1044B0000A2207920746049D2B4614F05BF9044636
:1044C0000E46079A2B4613F025FF381A302528434D
:1044D00008A9069A5054029705980A3F049A9041F9
:1044E000079536D30A220027204631463B4614F072
:1044F00041F92A4308A8039BC254069911291D4675
:10450000029E28D8304664380598B84123D36422E7
:1045100000243046059F3946234614F02BF90A2221
:10452000234614F027F90798024308A8401942705F
:104530007D20C20030463946234614F01BF9ED1C9D
:10454000069A102A03D8AC4A921BBC41ACD36D1E0C
:1045500002E0039D00E06D1C681E0321069013F02D
:1045600095FA481C032803D00446032803D114E01D
:104570000024032811D008A82F46861EF019407881
:1045800012F06EFD012C07D0BD1EF05D12F068FD2B
:10459000A41E2F46F2D100E07D1E0698022810D3FB
:1045A0006C4208A82818C51EA87812F059FD687832
:1045B00012F056FD287812F053FDE41CED1E002C7D
:1045C000F2D18E4813F090FC0198006B0021012578
:1045D0000491039505916A1E06920A2202920746EB
:1045E000049D2B4614F0C6F804460E46029A2B464C
:1045F00013F090FE381A079D284308A9069A5054D4
:10460000029705980A3F049A904136D30A22002760
:10461000204631463B4614F0ADF82A4308A8039BD8
:10462000C254069911291D46029E28D83046643886
:104630000598B84123D3642200243046059F3946AB
:10464000234614F097F80A22234614F093F80798AB
:10465000024308A8401942707D20C2003046394606
:10466000234614F087F8ED1C069A102A03D8624AF4
:10467000921BBC41ADD36D1E02E0039D00E06D1C9A
:10468000681E0321069013F001FA481C032803D08A
:104690000446032803D114E00024032811D008A8FD
:1046A0002F46861EF019407812F0DAFC012C07D054
:1046B000BD1EF05D12F0D4FCA41E2F46F2D100E026
:1046C0007D1E0698022810D36C4208A82818C51E23
:1046D000A87812F0C5FC687812F0C2FC287812F0B5
:1046E000BFFCE41CED1E002CF2D102200024214668
:1046F00013F072FE424813F0F7FB0198406B01255E
:1047000004942146039505916A1E06920A2202929C
:104710000746049D2B4614F02DF804460E46029AD7
:104720002B4613F0F7FD381A079D284308A9069A6F
:104730005054029705980A3F049A904136D30A22B2
:104740000027204631463B4614F014F82A4308A8B7
:10475000039BC254069911291D46029E28D8304653
:1047600064380598B84123D3642200243046059F5D
:104770003946234613F0FEFF0A22234613F0FAFFC0
:104780000798024308A8401942707D20C2003046B5
:104790003946234613F0EEFFED1C069A102A03D883
:1047A000154A921BBC41ADD36D1E02E0039D00E093
:1047B0006D1C681E0321069013F068F9481C03283D
:1047C00003D00446032803D11DE0002403281AD097
:1047D00008A82F46861EF019407812F041FC012CE3
:1047E00010D0BD1EF05D12F03BFCA41E2F46F2D18E
:1047F00009E0C046AD960100E703000052950100B4
:104800005E9601007D1E0698022810D36C4208A80F
:104810002818C51EA87812F023FC687812F020FC36
:10482000287812F01DFCE41CED1E002CF2D1D648B5
:1048300013F05AFB0198806B002101250491039528
:1048400005916A1E06920A2202920746049D2B4693
:1048500013F090FF04460E46029A2B4613F05AFDC1
:10486000381A079D284308A9069A505402970598BC
:104870000A3F049A904136D30A2200272046314647
:104880003B4613F077FF2A4308A8039BC2540699BE
:1048900011291D46029E28D8304664380598B84133
:1048A00023D3642200243046059F3946234613F063
:1048B00061FF0A22234613F05DFF0798024308A810
:1048C000401942707D20C20030463946234613F01D
:1048D00051FFED1C069A102A03D8AC4A921BBC412A
:1048E000ADD36D1E02E0039D00E06D1C681E032128
:1048F000069013F0CBF8481C032803D00446032885
:1049000003D114E00024032811D008A82F46861EE6
:10491000F019407812F0A4FB012C07D0BD1EF05D09
:1049200012F09EFBA41E2F46F2D100E07D1E0698D9
:10493000022810D36C4208A82818C51EA87812F0C7
:104940008FFB687812F08CFB287812F089FBE41C4E
:10495000ED1E002CF2D104200024214613F03CFD72
:104960008B4813F0C1FA0198C06B012504942146CD
:10497000039505916A1E06920A2202920746049D3B
:104980002B4613F0F7FE04460E46029A2B4613F010
:10499000C1FC381A079D284308A9069A505402976B
:1049A00005980A3F049A904136D30A2200272046F0
:1049B00031463B4613F0DEFE2A4308A8039BC2544F
:1049C000069911291D46029E28D83046643805985C
:1049D000B84123D3642200243046059F394623463C
:1049E00013F0C8FE0A22234613F0C4FE07980243C0
:1049F00008A8401942707D20C2003046394623463F
:104A000013F0B8FEED1C069A102A03D85F4A921BD9
:104A1000BC41ADD36D1E02E0039D00E06D1C681E1D
:104A20000321069013F032F8481C032803D00446F3
:104A3000032803D114E00024032811D008A82F462E
:104A4000861EF019407812F00BFB012C07D0BD1E1A
:104A5000F05D12F005FBA41E2F46F2D100E07D1E92
:104A60000698022810D36C4208A82818C51EA878FA
:104A700012F0F6FA687812F0F3FA287812F0F0FAE9
:104A8000E41CED1E002CF2D1424813F02DFA0198DF
:104A9000C06C002101250491039505916A1E0692C0
:104AA0000A2202920746049D2B4613F063FE044639
:104AB0000E46029A2B4613F02DFC381A079D284308
:104AC00008A9069A5054029705980A3F049A904103
:104AD00036D30A220027204631463B4613F04AFED1
:104AE0002A4308A8039BC254069911291D46029E19
:104AF00028D8304664380598B84123D3642200246E
:104B00003046059F3946234613F034FE0A222346D9
:104B100013F030FE0798024308A8401942707D2028
:104B2000C20030463946234613F024FEED1C069A97
:104B3000102A03D8154A921BBC41ADD36D1E02E06A
:104B4000039D00E06D1C681E0321069012F09EFF7D
:104B5000481C032803D00446032803D11DE0002489
:104B600003281AD008A82F46861EF019407812F0A4
:104B700077FA012C10D0BD1EF05D12F071FAA41E60
:104B80002F46F2D109E0C04661950100E70300001D
:104B90006A9601003A9401007D1E0698022810D3FF
:104BA0006C4208A82818C51EA87812F059FA68782F
:104BB00012F056FA287812F053FAE41CED1E002C7D
:104BC000F2D106200024214613F006FCE04813F041
:104BD0008BF90198006C01250494214603950591F9
:104BE0006A1E06920A2202920746049D2B4613F083
:104BF000C1FD04460E46029A2B4613F08BFB381A71
:104C0000079D284308A9069A5054029705980A3F21
:104C1000049A904136D30A220027204631463B466B
:104C200013F0A8FD2A4308A8039BC2540699112932
:104C30001D46029E28D8304664380598B84123D3D3
:104C4000642200243046059F3946234613F092FD26
:104C50000A22234613F08EFD0798024308A8401944
:104C600042707D20C20030463946234613F082FD53
:104C7000ED1C069A102A03D8B44A921BBC41ADD34E
:104C80006D1E02E0039D00E06D1C681E032106906E
:104C900012F0FCFE481C032803D00446032803D16D
:104CA00014E00024032811D008A82F46861EF0190E
:104CB000407812F0D5F9012C07D0BD1EF05D12F03E
:104CC000CFF9A41E2F46F2D100E07D1E06980228DF
:104CD00010D36C4208A82818C51EA87812F0C0F995
:104CE000687812F0BDF9287812F0BAF9E41CED1ECC
:104CF000002CF2D1974813F0F7F80198406C00218E
:104D000001250491039505916A1E06920A220292DA
:104D10000746049D2B4613F02DFD04460E46029ACD
:104D20002B4613F0F7FA381A079D284308A9069A6C
:104D30005054029705980A3F049A904136D30A22AC
:104D40000027204631463B4613F014FD2A4308A8AD
:104D5000039BC254069911291D46029E28D830464D
:104D600064380598B84123D3642200243046059F57
:104D70003946234613F0FEFC0A22234613F0FAFCC0
:104D80000798024308A8401942707D20C2003046AF
:104D90003946234613F0EEFCED1C069A102A03D880
:104DA0006A4A921BBC41ADD36D1E02E0039D00E038
:104DB0006D1C681E0321069012F068FE481C032833
:104DC00003D00446032803D114E00024032811D0A3
:104DD00008A82F46861EF019407812F041F9012CE0
:104DE00007D0BD1EF05D12F03BF9A41E2F46F2D194
:104DF00000E07D1E0698022810D36C4208A82818EF
:104E0000C51EA87812F02CF9687812F029F92878D4
:104E100012F026F9E41CED1E002CF2D14E4813F0DE
:104E200063F80198866C00200124049001460394E5
:104E30000691601E05900A2202923046049D2B4680
:104E400013F098FC07460C46029A2B4613F062FAC0
:104E5000301A079D284308A9059A505402960A3E25
:104E600006980499884136D30A22002638462146FE
:104E7000334613F07FFC06992A4308A8039C025589
:104E8000059B112B029D28D8284664380846B0415E
:104E900023D364221E46002728463B4613F06AFCB3
:104EA0000A223B4613F066FC0798024308A8001943
:104EB00042707D20C200284606993B4613F05AFCFA
:104EC000069BE41C102E04D8204A521B9F41064624
:104ED000ADD3641E02E0039C00E0641C2646601E05
:104EE0000321079012F0D2FD481C032803D0054689
:104EF000032803D114E00025032811D008A8841E3C
:104F00003746E019407812F0ABF8012D07D0BE1EED
:104F1000E05D12F0A5F8AD1E3746F2D100E07E1E2E
:104F20000798022810D3744208A83018C51EA87824
:104F300012F096F8687812F093F8287812F090F84A
:104F4000E41CED1E002CF2D10DB0F0BDE703000013
:104F5000869601005394010008940100F0B5C1B099
:104F60000C9105460EA84421017042214170472151
:104F700081702C22C2705021017143214171542152
:104F800081715221C1714C210172079242727421C8
:104F9000069181723D210591C172002D3ED00027FE
:104FA00001210D223E460D9114460A272846394616
:104FB00012F06CFD0D9B4743E91B30220A43771C1E
:104FC0003EA98A55082E04D8591C621C092D054695
:104FD000E8D81D460B940321304612F057FD491CBA
:104FE000032920D00846022E20D30D913EAAD31EBD
:104FF0003C1A0022DD19AE780EA989180E736D785F
:105000004D73DD5D8D73D21CDB1E9442F2D1BD1A4F
:105010000C320B9B0D9903290CD11BE00EA83021FB
:1050200001730D2316E00020022EDED20C220B9B12
:1050300003290FD00EA989183EAAAA18921E5378E8
:105040000B70012805D013784B70891C921E801EAE
:10505000F5D10B9BDCB20EA80119079A0255662008
:105060000490487061200A90887075200290C87082
:105070006C2001900871069848710598887141204C
:105080000C99085C052803D88000FC49095800E009
:10509000FB49D81D0E78002E24D00D910146C2B2D6
:1050A0000EA800190B90B920041B0025AC421BD0A0
:1050B0000D9847190B984019C6717E78002E1BD0A9
:1050C000531CC02B10D00672BE78002E16D0931C35
:1050D000C02B09D0D21CC91C4672FE78ED1C002ED4
:1050E000E4D10CE001460AE00C980568C027002DC9
:1050F0003FD4002D3ED1CFE0491C00E0891C0F4673
:10510000C9B2C0290A4600D8C0228809022818D886
:10511000481C0EAB079C5C54904201D1074610E03E
:105120008C1C0EAB069D1D54944201D1274608E00D
:10513000CB1C0EA80A9D0555934201D000F010FC2F
:105140001F460C980568002D0BD413D1F8B28109C5
:10515000022900D9A0E07F1C0D970EA930220A5425
:1051600081E0F8B28109022903D87F1C0EA92D2203
:105170000A546D420D970124671E0A2628463146BF
:1051800012F084FC4643A91B302631433EAAB95491
:10519000082F25D80A2D23D30A2112F077FC31439A
:1051A0003EA80155072F1AD8642D18D3642128462C
:1051B00012F06CFC0A2112F069FC31433EA8001980
:1051C00041707D20C100284612F060FCE41C062FCF
:1051D00003D8AC498D420546CED8641E00E0641C5D
:1051E0000D98C3B2C02B184600D8C0200EA9C9180C
:1051F000C21A951E08950393181A401C0A903EA8DF
:10520000C71EA01E0990601E0B900026B2421BD044
:105210003D19A87888550B98B04218D00A98801983
:1052200017D068788D1968700998B04215D0089821
:10523000B04214D0385D0D9BDB1C0D93A870F61C9A
:10524000FF1EB442E2D10EE0039880190AE00D98E7
:1052500001E003988019401C04E00D9801E00398D8
:105260008019801C0D900D9FF8B2C028014600D80F
:10527000C0218209022A0FD8421C0EAB079C1C5485
:105280008A4201D1174607E0831C0EAC6325A55462
:105290008B4200D0BCE21F460C984568002D02D41A
:1052A00074D00D9709E0F8B28109022903D87F1C58
:1052B0000EA92D220A540D976D420124671E0A265D
:1052C0002846314612F0E2FB4643A91B3026314303
:1052D0003EAAB954082F25D80A2D23D30A2112F04B
:1052E000D5FB31433EA80155072F1AD8642D18D39A
:1052F0006421284612F0CAFB0A2112F0C7FB314391
:105300003EA8001941707D20C100284612F0BEFB66
:10531000E41C062F03D85B498D420546CED8641E97
:1053200000E0641C0D98C3B2C02B184600D8C02002
:105330000EA9C918C21A951E08950693181A401C82
:105340000A903EA8C71EA01E0990601E0B90002662
:10535000B24225D03D19A87888550B98B04222D08A
:105360000A98801921D068788D1968700998B04220
:105370001FD00898B0421ED0385D0D9BDB1C0D93EA
:10538000A870F61CFF1EB442E2D118E0F8B2810901
:1053900003292DD27F1C0D970EA930220A540EE04E
:1053A000069880190AE00D9801E006988019401CC3
:1053B00004E00D9801E006988019801C0D900D9F67
:1053C000F8B2C028014600D8C0218209022A0FD8AD
:1053D000431C0EAA079C14548B4201D11F4607E0C0
:1053E000821C0EAC6525E5548A4200D0B3E0174616
:1053F0000C988568002D02D47BD00D9709E0F8B297
:105400008109022903D87F1C0EA92D220A540D9769
:105410006D420124671E0A262846314612F036FBEB
:105420004643A91B302631433EAAB954082F2CD835
:105430000A2D2AD30A2112F029FB31433EA8015537
:10544000072F21D8642D1FD36421284612F01EFB9C
:105450000A2112F01BFB31433EA8001941707D2048
:10546000C100284612F012FBE41C062F03D80549A0
:105470008D420546CED8641E07E0C046448E01002A
:1054800008920100E7030000641C0D98C3B2C02B12
:10549000184600D8C0200EA9C918C21A951E089532
:1054A0000693181A401C0A903EA8C71EA01E099019
:1054B000601E0B900026B24225D03D19A878885571
:1054C0000B98B04222D00A98801921D068788D19A3
:1054D00068700998B0421FD00898B0421ED0385D5D
:1054E0000D9BDB1C0D93A870F61CFF1EB442E2D18D
:1054F00018E0F8B28109032944D27F1C0D970EA948
:1055000030220A540EE0069880190AE00D9801E056
:1055100006988019401C04E00D9801E00698801957
:10552000801C0D900D9FF9B2C029084600D8C020FC
:105530008A09022A26D84A1C0EAB079C5C54824278
:1055400001D117461EE08B1C0EAC049DA55483426E
:1055500010D11F4616E0C31C0EAD7224AC548B4212
:1055600000D13BE7001D0EAAD454884200D018E2B7
:1055700007463DE7CC1C0EAD6F22EA54844200D0B2
:10558000D2E127460C98C568002D02D474D00D973F
:1055900009E0F8B28109022903D87F1C0EA92D2247
:1055A0000A540D976D420124671E0A26284631468B
:1055B00012F06CFA4643A91B302631433EAAB95477
:1055C000082F25D80A2D23D30A2112F05FFA314380
:1055D0003EA80155072F1AD8642D18D364212846F8
:1055E00012F054FA0A2112F051FA31433EA8001980
:1055F00041707D20C100284612F048FAE41C062FB5
:1056000003D8FD498D420546CED8641E00E0641CD7
:105610000D98C3B2C02B184600D8C0200EA9C918D7
:10562000C21A951E08950693181A401C0A903EA8A7
:10563000C71EA01E0990601E0B900026B24225D006
:105640003D19A87888550B98B04222D00A98801945
:1056500021D068788D1968700998B0421FD00898D9
:10566000B0421ED0385D0D9BDB1C0D93A870F61C5C
:10567000FF1EB442E2D118E0F8B2810903292CD20E
:105680007F1C0D970EA930220A540EE0069880194F
:105690000AE00D9801E006988019401C04E00D987E
:1056A00001E006988019801C0D900D9FF9B2C02969
:1056B000084600D8C0208A09022A0ED84C1C0EAA1F
:1056C000079B5354844201D1274606E08B1C0EAD44
:1056D0006E222A5583427CD11F460C98046B002C05
:1056E00034D00D970126771E0A252046294612F050
:1056F000CDF94543611B302529433EAAB954082FF3
:1057000030D80A2C2ED30A2112F0C0F929433EA822
:105710008155072F25D8642C23D36421204612F00D
:10572000B5F90A2112F0B2F929433EA88019417057
:105730007D20C100204612F0A9F9F61C062F03D8DF
:10574000B1498C420446CED8761E0BE0F8B28109EE
:10575000032900D38DE07F1C0D970EA930220A5437
:1057600076E0761C0D98C3B2C02B184600D8C02036
:105770000EA9C918C21A941E09940893181A401C3D
:105780000B903EA8C71EB01E0A90701E0C900025FC
:10579000AA421BD0BC19A07848550C98A84235D015
:1057A0000B9840194AD060784C1960700A98A8424A
:1057B00048D00998A84247D0B85D0D9BDB1C0D93DB
:1057C000A070ED1CFF1EAE42E2D141E008984019E6
:1057D0003DE0CC1C0EAD6F26EE54844200D173E741
:1057E0000B1D0EAD65262E55834200D174E74C1D6E
:1057F0000EADEA54844200D166E7891D0EAA6323E8
:105800001355814200D0E7E00F4666E70D9817E098
:10581000C21C0EAC029DE5548A4200D132E5031D44
:105820000EAC7225A5548B4200D134E5441D0EAA5E
:10583000D5548C4200D0B9E027462DE50898401990
:10584000401C04E00D9801E008984019801C0D9060
:105850000D9FF9B2880902280BD8481C0EAA0D2307
:105860005354C02801D1C02703E0BF1C0EA90A224F
:105870000A54664DFFB266480088664E3188C943B7
:1058800040182840B84205D264488169491C8161AA
:1058900041B0F0BD7C1E0321204612F0F7F84A1CEF
:1058A0000021032A084600D010460C92022C20D377
:1058B000391A0D910021584C0EAA5718525C2B46EC
:1058C000358862553288521C1A4032807A78358881
:1058D00062553288521C1A403280BA783588625537
:1058E0001D463288521C1A403280C91C0D9A8A42C9
:1058F000E2D10C9A032A15D00EAA5118464A0B7809
:105900003488135533885B1C2B403380012809D021
:105910004B783488135533885B1C2B403380891CAB
:10592000801EECD141B0F0BD0B1D0EAD019E2E5579
:10593000834200D10DE634464C1D0EADEE54844238
:1059400000D11EE68B1D0EAD2A55834200D100E624
:10595000C91D0EAA7724D454814242D10F4611E6C4
:10596000081D0EAC7225E554904201D1FFF7D6FB1D
:105970004B1D0EAC67252554934201D1FFF7E0FB88
:10598000881D0EAC6525E554904201D1FFF7C6FB9A
:10599000C91D0EAB069C1C54914227D10F46FFF740
:1059A000D0FB7F1D0EA9059A0A5421E5821D0EAB7E
:1059B00065251D558A4200D164E4C31D0EAC6E25D9
:1059C000A5548B4200D166E408300EAA069CD4543C
:1059D000884213D107465FE4FF1D0EA8059A425482
:1059E0007BE608370EA8059A4254CBE508370EA887
:1059F000059A4254FFF7A5FBE703000009370EA9FB
:105A0000059A0A5448E4C046E7030000FF07000077
:105A10002A192020281920200000202028172020C3
:105A2000F0B5D3B039A804464D3411F099FC0DA857
:105A300043210170412242704C21049181702C213C
:105A40000791C1705321009101715421417102925B
:105A500082714721C1714521059101723D21039158
:105A60004172FC48007801280CD12078FA490028BE
:105A700009D0A079401EC0B2022804D88000F7499E
:105A8000095800E0F64906940878002816D00DAAB7
:105A90000A32491C0A260024A62C1AD03346761C4A
:105AA0001055085D641C0028F6D1F0B2B0280146FC
:105AB00000D8B021DAB2AE2A03D91BE00A20B02107
:105AC0000646421C0DAB079C1C548A420AD116465E
:105AD00010E012F093FE0446B026002823D4002CD8
