:10000000008020201F7701001747010017470100DB
:1000100000000000000000000000000000000000E0
:100020000000000000000000000000001747010071
:1000300000000000000000001747010029430100F4
:10004000174701007D700100174701001966010084
:100050001747010017470100174701001747010024
:1000600000000000174701001747010000000000D2
:100070000000000017470100FD5A0100174701006A
:1000800017470100174701001747010017470100F4
:1000900017470100174701000000000000000000A2
:1000A0001747010017470100000000000000000092
:1000B0001747010000000000174701001747010023
:1000C000F0B5C1B018AF07AD36AC204616F03AFF18
:1000D0002FA816F0C3FA384616F02EF8284616F068
:1000E0000DFF207DE17C002901D0C14E00E0C14E12
:1000F0004937002800D0C04E3879002800970FD02B
:100100000020014616F0DAFFBC4816F05FFDB87A11
:10011000401EC0B2022818D88000B949085815E01E
:10012000B879002800D198E00020014616F0C6FFFB
:10013000B44816F04BFD387B401EC0B2022800D9EF
:10014000CFE08000B0490858CCE0B04816F03EFD42
:10015000AF4816F03BFD387B401EC0B2022803D8E2
:100160008000A949085800E0AA48002416F02EFD96
:1001700002200194214616F0A1FFA74816F026FDA3
:100180003878002865D0199C002C03D52D2015F057
:1001900053FE6442A149204616F020FB0846012583
:1001A0000199049505916A1E06920A220392074658
:1001B000019E334617F050F904460D46039A334624
:1001C00016F01AFF381A302318433CA9069A5054E7
:1001D000039705990A3F0846B0415DD30A220E46AF
:1001E0000027204629461C463B4617F035F9234692
:1001F00022433CA8049C0255069911292546039ADE
:100200004CD8104664383046B84147D3174664226C
:100210000024384631460293234617F01DF90A227E
:10022000234617F019F9029802433CA8401942707E
:100230007D20C20038463146234617F00DF9ED1CEB
:10024000069A102A03D8764AD21BB441A9D36D1E50
:1002500025E0704816F0BAFC04E13C3568790028C6
:1002600000D175E200242046214616F027FF6D4894
:1002700016F0ACFC02200394214616F01FFF6148E3
:1002800016F0A4FC6879401EC0B2042800D9B1E27F
:10029000800065490858AEE2049D00E06D1C2F46C1
:1002A000681E0321069016F099FA481C032813D003
:1002B0000446032813D03CA8861EF019407815F098
:1002C000BBFD012C00D1B7E0BD1EF05D15F0B4FD03
:1002D000A41E2F46F1D1B0E000240328EBD13D4607
:1002E000ABE04C48002416F071FC504816F06EFC50
:1002F000304616F06BFC0220214616F0DFFE4C481B
:1003000016F064FC04200194214616F0D7FE4948FB
:1003100016F05CFC7878002800D115E21A9C002CBD
:1003200003D52D2015F088FD64423C49204616F087
:1003300055FA0D460126019904910596701E069006
:100340000A2203922846019F3B4617F085F804468F
:100350000E46039A3B4616F04FFE281A30231843E8
:100360003CA9069A505403950A3D04980546B841A5
:1003700000D203E20A220027204631461C463B46B3
:1003800017F06AF8234622433CA8059C02550699BB
:1003900011292646039A00D9F2E11046643828460E
:1003A000B84100D2ECE117466422002438462946C1
:1003B0000293234617F050F80A22234617F04CF810
:1003C000029802433CA8801942707D20C200384642
:1003D0002946234617F040F8F61C069A102A04D83E
:1003E0000F4AD21BAC410546A6D3761EC9E1C046D2
:1003F000F17F01009381010047810100EB80010042
:10040000C47C0100C8820100B87C01008780010023
:100410002B8201006B820100E77F010040420F0048
:10042000E70300003C7C01002C7B0100D47D01002F
:100430002C7C01006E8201007D1E0698022810D3DC
:100440006C423CA82818C51EA87815F0F5FC687801
:1004500015F0F2FC287815F0EFFCE41CED1E002CE2
:10046000F2D1009F04200021019116F027FED6480A
:1004700016F0ACFB7878002865D01A9C002C03D5C8
:100480002D2015F0D9FC6442D049204616F0A6F97B
:10049000084601250199049505916A1E06920A22D3
:1004A00003920746019E334616F0D6FF04460D46DA
:1004B000039A334616F0A0FD381A302318433CA99E
:1004C000069A5054039705990A3F0846B0413ED317
:1004D0000A220E460027204629461C463B4616F0B7
:1004E000BBFF234622433CA8049C025506991129D0
:1004F0002546039A2DD8104664383046B84128D393
:10050000174664220024384631460293234616F0EB
:10051000A3FF0A22234616F09FFF029802433CA83D
:10052000401942707D20C20038463146234616F0FD
:1005300093FFED1C069A102A03D8A54AD21BB4419A
:10054000A9D36D1E06E0A34816F040FB39E0049DD8
:1005500000E06D1C2F46681E0321069016F03EF940
:10056000481C032812D00446032812D03CA8861E3B
:10057000F019407815F060FC012C0CD0BD1EF05D28
:1005800015F05AFCA41E2F46F2D105E000240328E2
:10059000ECD13D4600E07D1E0698022810D36C4247
:1005A0003CA82818C51EA87815F046FC687815F0F8
:1005B00043FC287815F040FCE41CED1E002CF2D121
:1005C000009F854816F002FBB878002866D01B9C77
:1005D000002C03D52D2015F02FFC64427B492046CA
:1005E00016F0FCF8084600210125019104950591BB
:1005F0006A1E06920A2203920746019E334616F0AF
:100600002BFF04460D46039A334616F0F5FC381AC4
:10061000302318433CA9069A5054039705990A3F82
:100620000846B0413ED30A220E46002720462946FE
:100630001C463B4616F010FF234622433CA8049C70
:100640000255069911292546039A2DD8104664387B
:100650003046B84128D31746642200243846314634
:100660000293234616F0F8FE0A22234616F0F4FE03
:10067000029802433CA8401942707D20C2003846CF
:100680003146234616F0E8FEED1C069A102A03D8E0
:100690004F4AD21BB441A9D36D1E06E04D4816F057
:1006A00095FA39E0049D00E06D1C2F46681E032179
:1006B000069016F093F8481C032812D0044603282D
:1006C00012D03CA8861EF019407815F0B5FB012C1D
:1006D0000CD0BD1EF05D15F0AFFBA41E2F46F2D16D
:1006E00005E000240328ECD13D4600E07D1E06987D
:1006F000022810D36C423CA82818C51EA87815F013
:100700009BFB687815F098FB287815F095FBE41CA6
:10071000ED1E002CF2D1009F0620002116F0CEFC29
:10072000F87A032804D0022805D12C4800F0AEFF47
:100730002B4800F0ABFFB87A032802D0294800F01C
:10074000A5FF294800F0A2FF224816F03FFAD3E0A7
:10075000787A002800D124E300200090014616F0AA
:10076000ADFC224816F032FAF87B401EC0B20228D7
:1007700000D92BE380001E49085828E3059E00E0BD
:10078000761C701E0321069016F028F8481C0328DA
:1007900014D00446032814D03CA83746861EF0190E
:1007A000407815F049FB012C00D18FE0BD1EF05DB3
:1007B00015F042FBA41E2F46F1D188E00024032847
:1007C000EAD1354683E0C0466E82010040420F0008
:1007D000E70300006B8201005B810100B57B010033
:1007E000F97B0100597C0100C67B01007D8001007E
:1007F000AC7C0100F94816F0E9F9F94816F0E6F981
:10080000089C002C03D52D2015F016FB6442F549F9
:10081000204615F0E3FF084601250399029504914F
:100820006A1E05920A2206920646039C234616F08B
:1008300013FE07460D46069A234616F0DDFB301AD6
:10084000302420433CA9059A5054019604980A3E4E
:10085000039A9041069400D20CE10A220026384601
:100860002946334616F0F8FD22433CA8029BC254A9
:10087000059911291D46019C00D9FDE020466438E8
:100880000498B04100D2F7E0642200272046049E7D
:1008900031463B4616F0E0FD0A223B4616F0DCFDF1
:1008A000069802433CA8401942707D20C2002046B1
:1008B00031463B4616F0D0FDED1C059A102A03D8B0
:1008C000C94A121BB741A9D36D1ED6E07D1E0698FA
:1008D000022810D36C423CA82818C51EA87815F031
:1008E000ABFA687815F0A8FA287815F0A5FAE41C98
:1008F000ED1E002CF2D1009FBC4816F067F9B878C5
:10090000002866D01B9C002C03D52D2015F094FAEE
:100910006442B449204615F061FF084600210125D4
:100920000191049505916A1E06920A2203920746D8
:10093000019E334616F090FD04460D46039A334659
:1009400016F05AFB381A302318433CA9069A505423
:10095000039705990A3F0846B0413ED30A220E4646
:100960000027204629461C463B4616F075FD2346C7
:1009700022433CA8049C0255069911292546039A56
:100980002DD8104664383046B84128D31746642223
:100990000024384631460293234616F05DFD0A22B4
:1009A000234616F059FD029802433CA840194270B4
:1009B0007D20C20038463146234616F04DFDED1C21
:1009C000069A102A03D8884AD21BB441A9D36D1EB7
:1009D00006E0874816F0FAF839E0049D00E06D1C47
:1009E0002F46681E0321069015F0F8FE481C0328C8
:1009F00012D00446032812D03CA8861EF019407875
:100A000015F01AFA012C0CD0BD1EF05D15F014FA89
:100A1000A41E2F46F2D105E000240328ECD13D4668
:100A200000E07D1E0698022810D36C423CA82818CE
:100A3000C51EA87815F000FA687815F0FDF9287839
:100A400015F0FAF9E41CED1E002CF2D1009F0620EF
:100A5000002116F033FBF879002802D0654800F039
:100A600015FE7879002802D0634800F00FFE634835
:100A700000F00CFE029D00E06D1C2E46681E032156
:100A8000059015F0ABFE481C032803D0054603284B
:100A900003D114E00025032811D03CA8841E37465A
:100AA000E019407815F0C8F9012D07D0BE1EE05DB1
:100AB00015F0C2F9AD1E3746F2D100E07E1E059852
:100AC000022810D374423CA83018C51EA87815F02F
:100AD000B3F9687815F0B0F9287815F0ADF9E41C91
:100AE000ED1E002CF2D104200021039116F0E6FA4D
:100AF000434816F06BF8099C002C03D52D2015F007
:100B00009BF964423749204615F068FE08460125E6
:100B10000399029504916A1E05920A2201920646E3
:100B2000039C234616F098FC07460D46019A23467F
:100B300016F062FA301A069C20433CA9059A5054DC
:100B4000019604980A3E039A904136D30A22002661
:100B500038462946334616F07FFC22433CA8029BC8
:100B6000C254059911291D46019C28D82046643895
:100B70000498B04123D3642200272046049E3146C6
:100B80003B4616F069FC0A223B4616F065FC0698C7
:100B900002433CA8401942707D20C20020463146E5
:100BA0003B4616F059FCED1C059A102A03D80E4A54
:100BB000121BB741ADD36D1E02E0029D00E06D1C1B
:100BC0002E46681E0321059015F008FE481C0328D8
:100BD00018D00546032818D129E0C046C38001007B
:100BE0000B82010040420F00E70300005B8101001F
:100BF0006B820100907B0100007D0100677C010099
:100C0000AD8201000025032811D03CA8841E374680
:100C1000E019407815F010F9012D07D0BE1EE05DF7
:100C200015F00AF9AD1E3746F2D100E07E1E059898
:100C3000022810D374423CA83018C51EA87815F0BD
:100C4000FBF8687815F0F8F8287815F0F5F8E41C4A
:100C5000ED1E002CF2D1EE4815F0B8FF0A9C002CD6
:100C600003D52D2015F0E8F86442EA49204615F036
:100C7000B5FD0846002101250391029504916A1EE5
:100C800005920A2201920646039C234616F0E4FBD5
:100C900007460D46019A234616F0AEF9301A069C17
:100CA00020433CA9059A5054019604980A3E039AA1
:100CB000904136D30A22002638462946334616F09C
:100CC000CBFB22433CA8029BC254059911291D4627
:100CD000019C28D8204664380498B04123D364226C
:100CE00000272046049E31463B4616F0B5FB0A22FB
:100CF0003B4616F0B1FB069802433CA840194270EF
:100D00007D20C200204631463B4616F0A5FBED1C77
:100D1000059A102A03D8C04A121BB741ADD36D1EE5
:100D200002E0029D00E06D1C2E46681E0321069025
:100D300015F054FD481C032803D00546032803D1B1
:100D400014E00025032811D03CA8841E3746E01982
:100D5000407815F071F8012D07D0BE1EE05D15F04A
:100D60006BF8AD1E3746F2D100E07E1E06980228D1
:100D700010D374423CA83018C51EA87815F05CF852
:100D8000687815F059F8287815F056F8E41CED1E2F
:100D9000002CF2D10620002116F090F99F4800F0B7
:100DA00075FC387A002800D1D9E30020014616F0FE
:100DB00085F99B4815F00AFF787B401EC0B20428D5
:100DC00000D9DFE3800097490858DCE3964815F026
:100DD000FDFE964815F0FAFE239D0124009904912A
:100DE000601E05900A2206922846009E334616F0A1
:100DF00033FB07460291069A334616F0FDF8281A8F
:100E00002246302420433CA9059B585403950A3DB3
:100E100004980546B041069436D301920A22002672
:100E200038460299334616F017FB22433CA8019C32
:100E3000025505991129039828D80246643A2A4692
:100E4000B24123D364220027294606463B4616F0CA
:100E500003FB0A223B4616F0FFFA069802433CA821
:100E6000001942707D20C200304629463B4616F0EC
:100E7000F3FAE41C059A102A04D8674A921BAF4182
:100E80000546ACD3641E02E0144600E0641C26460E
:100E9000601E0321059015F0A1FC481C032801D019
:100EA000054600E00025032811D03CA8841E3746E3
:100EB000E019407814F0C0FF012D07D0BE1EE05DA0
:100EC00014F0BAFFAD1E3746F2D100E07E1E059841
:100ED000022810D374423CA83018C51EA87814F01C
:100EE000ABFF687814F0A8FF287814F0A5FFE41C85
:100EF000ED1E002CF2D102200021039116F0DEF845
:100F00004B4815F063FE199C002C03D52D2014F0DE
:100F100093FF64423F49204615F060FC08460125D6
:100F20000399029504916A1E05920A2201920646CF
:100F3000039C234616F090FA07460D46019A234675
:100F400016F05AF8301A069C20433CA9059A5054D2
:100F5000019604980A3E039A904136D30A2200264D
:100F600038462946334616F077FA22433CA8029BBE
:100F7000C254059911291D46019C28D82046643881
:100F80000498B04123D3642200272046049E3146B2
:100F90003B4616F061FA0A223B4616F05DFA0698C7
:100FA00002433CA8401942707D20C20020463146D1
:100FB0003B4616F051FAED1C059A102A03D8164A42
:100FC000121BB741ADD36D1E02E0029D00E06D1C07
:100FD0002E46681E0321059015F000FC481C0328CE
:100FE00001D0054600E00025032824D03CA8841E3B
:100FF0003746E019407814F01FFF012D1AD0BE1EAD
:10100000E05D14F019FFAD1E3746F2D113E0C04683
:101010001E80010040420F00E70300007E7D0100BA
:10102000D87E0100407B010087800100F381010030
:10103000B08201007E1E0598022810D374423CA89D
:101040003018C51EA87814F0F7FE687814F0F4FE86
:10105000287814F0F1FEE41CED1E002CF2D1E348D8
:1010600015F0B4FD289C002C03D52D2014F0E4FECF
:101070006442DF49204615F0B1FB084600210125F6
:101080000391029504916A1E05920A220192064676
:10109000039C234616F0E0F907460D46019A2346C5
:1010A00015F0AAFF301A069C20433CA9059A50541B
:1010B000019604980A3E039A904136D30A220026EC
:1010C00038462946334616F0C7F922433CA8029B0E
:1010D000C254059911291D46019C28D82046643820
:1010E0000498B04123D3642200272046049E314651
:1010F0003B4616F0B1F90A223B4616F0ADF90698C8
:1011000002433CA8401942707D20C200204631466F
:101110003B4616F0A1F9ED1C059A102A03D8B54AF2
:10112000121BB741ADD36D1E02E0029D00E06D1CA5
:101130002E46681E0321059015F050FB481C03281D
:1011400001D0054600E00025032811D03CA8841EEC
:101150003746E019407814F06FFE012D07D0BE1E0F
:10116000E05D14F069FEAD1E3746F2D100E07E1E50
:101170000598022810D374423CA83018C51EA878E0
:1011800014F05AFE687814F057FE287814F054FED4
:10119000E41CED1E002CF2D104200021039115F077
:1011A0008DFF954815F012FD099C002C03D52D20CC
:1011B00014F042FE64428E49204615F00FFB0846AB
:1011C00001250399029504916A1E05920A22019253
:1011D0000646039C234616F03FF907460D46019A42
:1011E000234615F009FF301A069C20433CA9059AB6
:1011F0005054019604980A3E039A904136D30A222D
:10120000002638462946334616F026F922433CA8E4
:10121000029BC254059911291D46019C28D82046DD
:1012200064380498B04123D3642200272046049EEA
:1012300031463B4616F010F90A223B4616F00CF9EF
:10124000069802433CA8401942707D20C200204607
:1012500031463B4616F000F9ED1C059A102A03D8DA
:10126000644A121BB741ADD36D1E02E0029D00E03F
:101270006D1C2E46681E0321059015F0AFFA481C20
:10128000032801D0054600E00025032811D03CA822
:10129000841E3746E019407814F0CEFD012D07D0AA
:1012A000BE1EE05D14F0C8FDAD1E3746F2D100E071
:1012B0007E1E0598022810D374423CA83018C51E23
:1012C000A87814F0B9FD687814F0B6FD287814F009
:1012D000B3FDE41CED1E002CF2D1484815F076FC5D
:1012E000299C002C03D52D2014F0A6FD6442404912
:1012F000204615F073FA0846002101250391029556
:1013000004916A1E05920A2201920646039C234616
:1013100016F0A2F807460D46019A234615F06CFE1A
:10132000301A069C20433CA9059A50540196049813
:101330000A3E039A904136D30A22002638462946AF
:10134000334616F089F822433CA8029BC254059903
:1013500011291D46019C28D8204664380498B041C4
:1013600023D3642200272046049E31463B4616F0D4
:1013700073F80A223B4616F06FF8069802433CA821
:10138000401942707D20C200204631463B4616F08F
:1013900063F8ED1C059A102A03D8F04A121BB741D6
:1013A000ADD36D1E02E0029D00E06D1C2E46681E4E
:1013B0000321059015F012FA481C032801D00546B8
:1013C00000E0002503281CD03CA8841E3746E01905
:1013D000407814F031FD012D12D0BE1EE05D14F0F6
:1013E0002BFDAD1E3746F2D10BE0C0464382010013
:1013F00040420F00E7030000AD82010017820100A8
:101400007E1E0598022810D374423CA83018C51ED1
:10141000A87814F011FD687814F00EFD287814F007
:101420000BFDE41CED1E002CF2D106200024214609
:1014300015F044FED44815F0C9FB07A8808E01259D
:1014400003942146029504916A1E05920A22019294
:101450000646039C234615F0FFFF07460D46019AFA
:10146000234615F0C9FD301A069C20433CA9059A75
:101470005054019604980A3E039A904136D30A22AA
:10148000002638462946334615F0E6FF22433CA89D
:10149000029BC254059911291D46019C28D820465B
:1014A00064380498B04123D3642200272046049E68
:1014B00031463B4615F0D0FF0A223B4615F0CCFFE3
:1014C000069802433CA8401942707D20C200204685
:1014D00031463B4615F0C0FFED1C059A102A03D893
:1014E0009E4A121BB741ADD36D1E02E0029D00E083
:1014F0006D1C2E46681E0321069015F06FF9481CDE
:10150000032801D0054600E00025032811D03CA89F
:10151000841E3746E019407814F08EFC012D07D068
:10152000BE1EE05D14F088FCAD1E3746F2D100E02F
:101530007E1E0698022800D2A7E074423CA830180C
:10154000C51EA87814F078FC687814F075FC28782B
:1015500014F072FCE41CED1E002CF2D195E02C7806
:101560000020014615F0AAFD002C4ED08A4815F047
:101570002DFB2879401EC0B2032852D8800087492D
:1015800008584FE0724815F021FB202014F054FC5D
:10159000304615F01BFB02200024214615F08EFD7D
:1015A0006F4815F013FB1998C1170FF041FF7548EC
:1015B00015F00CFB2498C1170FF03AFF04202146C8
:1015C00015F07CFD674815F001FB1C98C1170FF062
:1015D0002FFF654815F0FAFA1D98C1170FF028FF84
:1015E0000620214615F06AFD634815F0EFFA0998C8
:1015F000C1170FF01DFF664815F0E8FA07A8808EA6
:10160000214610F029FC634840E0584815F0DEFA06
:10161000387B401EC0B202283CD880004E49085892
:1016200039E04B4815F0D2FA02200024214615F08B
:1016300045FD534815F0CAFA0898C1170FF0F8FE97
:10164000504815F0C3FA0798C1170FF0F1FE0420B7
:10165000214615F033FD484815F0B8FA0998C1172E
:101660000FF0E6FE454815F0B1FA0A98C1170FF0E1
:10167000DFFE0620214615F021FD434815F0A6FAAD
:1016800007A8808E214610F0E7FB404815F09EFA2F
:1016900041B0F0BD2F4815F099FA364815F096FA8A
:1016A000387819990FF014FE202014F0C5FB30464D
:1016B00015F08CFA02200025294615F0FFFC384869
:1016C00015F084FA2F98C1170FF0B2FE354815F0C7
:1016D0007DFA379936980FF0ABFE0420294615F0B5
:1016E000EDFC204815F072FA78781A990FF0F0FDA9
:1016F0001D4815F06BFAB8781B990FF0E9FD06202C
:10170000294615F0DBFC787B04280DD005280DD187
:10171000264815F05BFAB87B401EC0B2062811D8E7
:101720008000234908580EE01F48AFE7F97B2248A4
:101730000329ABD1397C0629A8D0204815F046FAF8
:10174000387CE9E70A4815F041FA1A489EE7C04696
:10175000878001006B820100B87C0100E703000074
:10176000E77F01006E8201005B810100C8820100F9
:10177000C38001000B820100AD8201001E800100C8
:10178000B08201004382010095820100707E010059
:10179000978101003F7E0100B97D01000C7C0100B2
:1017A000048101005F810100E87B0100087F0100E6
:1017B000787A0100927D0100D77B01007E7E0100D6
:1017C000F0B5C9B00B9105460EA844210170422125
:1017D0004170472181702C22C27052210171582121
:1017E00041710A92827174210491C1713D21059168
:1017F0000172002D40D0002401210A220C922646BD
:101800000D91144628460C9F394614F0E7FF2346F5
:1018100039460D9F4143691A30220A43741C46A978
:101820008A55082E04D8791C5A1C092D0546E6D87D
:101830000C930321304614F0D1FF4B1C032B20D016
:101840001846022E20D30D9346AAD31E251A002235
:101850001E19B7780EA989184F7276788E721E5DA0
:10186000CE72D21CDB1E9542F2D1A71A09320C9916
:101870000D9B032B0CD11BE00EA8302141720A21D5
:1018800016E00020022EDED209220C99032B0FD085
:101890000EA9891846AABA18921E53780B7001280F
:1018A00005D013784B70891C921E801EF5D10C99BF
:1018B0000C46CBB20EA8C1180A9AC25465224A70CF
:1018C0007620029088700392CA706E200190087191
:1018D000049848710598887154200B99085C0D286C
:1018E00003D88000EB49085800E0EB48E11D05787B
:1018F000002D24D00D900846C9B20EAAD2180C9221
:10190000D924E31A0024A3421BD00D9A16190C9A6D
:101910001719FD717578002D19D04A1CE02A10D0D6
:101920003D72B578002D14D08A1CE02A09D0C91C5C
:10193000C01C7D72F578E41C002DE4D10AE0084655
:1019400008E00B980568E027002D21D1BDE0401C80
:1019500000E0801C0746C1B2E029084600D8E0201C
:101960004A09062A10D84B1C0EAA0A9C54548342DA
:1019700001D11F4608E08A1C0EAC6225E554824264
:1019800001D000F09BFE17460B980568002D34D05F
:101990000D970124671E0A262846314614F01EFFC3
:1019A0004643A91B3026314346AAB954082F2FD8E5
:1019B0000A2D2DD30A2114F011FF314346A80155F9
:1019C000072F24D8642D22D36421284614F006FF63
:1019D0000A2114F003FF314346A8001941707D200D
:1019E000C100284614F0FAFEE41C062F03D8AB49C8
:1019F0008D420546CED8641E0AE0F8B24109062998
:101A000063D87F1C0D970EA930220A5443E0641C52
:101A10000D98C3B2E02B184600D8E0200EA9C918D3
:101A2000C21A951E07950693181A401C099046A8DD
:101A3000C71EA01E0890601E0C900026B2421BD04C
:101A40003D19A87888550C98B04218D0099880198B
:101A500017D068788D1968700898B04215D007982B
:101A6000B04214D0385D0D9BDB1C0D93A870F61CA2
:101A7000FF1EB442E2D10EE0069880190AE00D98EC
:101A800001E006988019401C04E00D9801E00698DA
:101A90008019801C0D900D9FF9B2E029084600D8EE
:101AA000E0204A09062A10D84B1C0EAA0A9C54545E
:101AB000834201D11F4608E08A1C0EAC7025E55414
:101AC000824201D000F0D0FD17460B980569002D29
:101AD00036D00D97F8B206900124671E0A262846D4
:101AE000314614F07BFE4643A91B3026314346AAFB
:101AF000B954082F2FD80A2D2DD30A2114F06EFEC9
:101B0000314346A80155072F24D8642D22D36421E0
:101B1000284614F063FE0A2114F060FE314346A803
:101B2000001941707D20C100284614F057FEE41CC6
:101B3000062F03D859498D420546CED8641E0AE0C7
:101B4000F8B24109072960D27F1C0D970EA93022F7
:101B50000A5441E0641C069AE02A00D8E0220EA84C
:101B6000069BC018D11A8D1E07959A1A521C09920D
:101B700046AAD61EA21E0892621E0C920025A942F9
:101B80001BD033199F7847550C9AAA4218D0099A4E
:101B9000571917D05F7843195F70089AAA4215D079
:101BA000079AAA4214D0375D0D9AD21C0D929F70ED
:101BB000ED1CF61EAC42E2D10EE0069840190AE098
:101BC0000D9801E006984019401C04E00D9801E0D2
:101BD00006984019801C0D900D9FF8B2E028014630
:101BE00000D8E0214209062A0FD8431C0EAA0A9CFD
:101BF00014548B4201D11F4607E0821C0EAC6125B4
:101C0000E5548A4200D089E017460B984569002DBB
:101C100036D00D97F8B206900124671E0A26284692
:101C2000314614F0DBFD4643A91B3026314346AA5A
:101C3000B954082F35D80A2D33D30A2114F0CEFD1C
:101C4000314346A80155072F2AD8642D28D3642193
:101C5000284614F0C3FD0A2114F0C0FD314346A804
:101C6000001941707D20C100284614F0B7FDE41C26
:101C7000062F03D809498D420546CED8641E10E0D0
:101C8000F8B24109072976D27F1C0D970EA93022A0
:101C90000A5457E098790100207E0100E703000014
:101CA000641C069AE02A00D8E0220EA8069BC01801
:101CB000D11A8D1E07959A1A521C099246AAD61E51
:101CC000A21E0892621E0C920025A9421BD0331955
:101CD0009F7847550C9AAA4218D0099A571917D0DD
:101CE0005F7843195F70089AAA4215D0079AAA42F2
:101CF00024D0375D0D9AD21C0D929F70ED1CF61EFC
:101D0000AC42E2D11EE0069840191AE00D9801E0BD
:101D100006984019401C14E00D9811E0C31C0EAC4D
:101D20006325A5548B4200D165E7041D0EAAD55446
:101D30008C4201D000F0D3FC274666E70698401994
:101D4000801C0D900D9FF8B2E028014600D8E021DC
:101D50004209062A0FD8421C0EAB0A9C1C548A4228
:101D600001D1174607E0831C0EAC6C25A5548B42AD
:101D700000D083E01F460B98056A002D36D00D97E2
:101D8000F8B206900124671E0A262846314614F050
:101D900025FD4643A91B3026314346AAB954082FD6
:101DA0002FD80A2D2DD30A2114F018FD314346A84F
:101DB0000155072F24D8642D22D36421284614F01E
:101DC0000DFD0A2114F00AFD314346A800194170A7
:101DD0007D20C100284614F001FDE41C062F03D825
:101DE000E9498D420546CED8641E0AE0F8B24109A1
:101DF000072971D27F1C0D970EA930220A5452E098
:101E0000641C069AE02A00D8E0220EA8069BC0189F
:101E1000D11A8D1E07959A1A521C099246AAD61EEF
:101E2000A21E0892621E0C920025A9421BD03319F3
:101E30009F7847550C9AAA4218D0099A571917D07B
:101E40005F7843195F70089AAA4215D0079AAA4290
:101E500025D0375D0D9AD21C0D929F70ED1CF61E99
:101E6000AC42E2D11FE0069840191BE00D9801E05A
:101E700006984019401C15E00D9812E0C21C0EACEB
:101E8000039DE5548A4200D16BE7001D0EAB019C17
:101E90009C54884201D000F04CFC07466BE7069842
:101EA0004019801C0D900D9FF8B2E028014600D823
:101EB000E0214209062A0FD8441C0EAA0A9B13549B
:101EC0008C4201D1274607E0831C0EAD63222A55C0
:101ED0008B4200D083E01F460B98456A002D36D018
:101EE0000D97F8B206900124671E0A26284631464F
:101EF00014F074FC4643A91B3026314346AAB9545A
:101F0000082F2FD80A2D2DD30A2114F067FC314356
:101F100046A80155072F24D8642D22D364212846D2
:101F200014F05CFC0A2114F059FC314346A8001956
:101F300041707D20C100284614F050FCE41C062F9F
:101F400003D891498D420546CED8641E0AE0F8B206
:101F5000410907296FD27F1C0D970EA930220A5420
:101F600050E0641C069AE02A00D8E0220EA8069BE6
:101F7000C018D11A8D1E07959A1A521C099246AAAA
:101F8000D61EA21E0892621E0C920025A9421BD0EA
:101F900033199F7847550C9AAA4218D0099A5719B5
:101FA00017D05F7843195F70089AAA4215D0079A34
:101FB000AA4223D0375D0D9AD21C0D929F70ED1C62
:101FC000F61EAC42E2D11DE00698401919E00D98CA
:101FD00001E006984019401C13E00D9810E0C41C65
:101FE0000EAD7226EE548C4200D16BE7001D0EAB95
:101FF0001A55884200D0A2E307466DE706984019BB
:10200000801C0D900D9FF9B2E029084600D8E02011
:102010004A09062A0FD84B1C0EAA0A9C5454834224
:1020200001D11F4607E08A1C0EAC6625E5548242AA
:1020300000D083E017460B98856B002D36D00D97A6
:10204000F8B206900124671E0A262846314614F08D
:10205000C5FB4643A91B3026314346AAB954082F75
:102060002FD80A2D2DD30A2114F0B8FB314346A8EE
:102070000155072F24D8642D22D36421284614F05B
:10208000ADFB0A2114F0AAFB314346A800194170A8
:102090007D20C100284614F0A1FBE41C062F03D8C4
:1020A00039498D420546CED8641E0AE0F8B241098E
:1020B000072973D27F1C0D970EA930220A5451E0D4
:1020C000641C069AE02A00D8E0220EA8069BC018DD
:1020D000D11A8D1E07959A1A521C099246AAD61E2D
:1020E000A21E0892621E0C920025A9421BD0331931
:1020F0009F7847550C9AAA4218D0099A571917D0B9
:102100005F7843195F70089AAA4215D0079AAA42CD
:1021100024D0375D0D9AD21C0D929F70ED1CF61ED7
:10212000AC42E2D11EE0069840191AE00D9801E099
:1021300006984019401C14E00D9811E0CB1C0EAC21
:102140006925A554834200D16BE70C1D0EAA039D9F
:10215000D554844200D0F8E227466CE7069840192F
:10216000801C0D900D9FF9B2E029084600D8E020B0
:102170004A09062A12D84B1C0EAA0A9C54548342C0
:1021800004D11F460AE0C046E70300008A1C0EACDB
:102190006425E554824200D083E017460B98C56B56
:1021A000002D36D00D97F8B206900124671E0A263E
:1021B0002846314614F012FB4643A91B3026314312
:1021C00046AAB954082F2FD80A2D2DD30A2114F06E
:1021D00005FB314346A80155072F24D8642D22D38F
:1021E0006421284614F0FAFA0A2114F0F7FA314370
:1021F00046A8001941707D20C100284614F0EEFA6F
:10220000E41C062F03D8F2498D420546CED8641E41
:102210000AE0F8B24109072970D27F1C0D970EA978
:1022200030220A5451E0641C069AE02A00D8E022C9
:102230000EA8069BC018D11A8D1E07959A1A521C1B
:10224000099246AAD61EA21E0892621E0C92002572
:10225000A9421BD033199F7847550C9AAA4218D02F
:10226000099A571917D05F7843195F70089AAA42E4
:1022700015D0079AAA4224D0375D0D9AD21C0D9230
:102280009F70ED1CF61EAC42E2D11EE0069840198C
:102290001AE00D9801E006984019401C14E00D98D2
:1022A00011E0CB1C0EAC7525A554834200D168E724
:1022B000091D0EAA7024D454814200D054E20F4666
:1022C0006CE706984019801C0D900D9FF9B2E0292B
:1022D000084600D8E0204A09062A0FD84B1C0EAA4F
:1022E0000A9C5454834201D11F4607E08A1C0EAC5D
:1022F0006F25E554824200D083E017460B98056CA9
:10230000002D36D00D97F8B206900124671E0A26DC
:102310002846314614F062FA4643A91B3026314361
:1023200046AAB954082F2FD80A2D2DD30A2114F00C
:1023300055FA314346A80155072F24D8642D22D3DE
:102340006421284614F04AFA0A2114F047FA31436E
:1023500046A8001941707D20C100284614F03EFABD
:10236000E41C062F03D89A498D420546CED8641E38
:102370000AE0F8B24109072970D27F1C0D970EA917
:1023800030220A5451E0641C069AE02A00D8E02268
:102390000EA8069BC018D11A8D1E07959A1A521CBA
:1023A000099246AAD61EA21E0892621E0C92002511
:1023B000A9421BD033199F7847550C9AAA4218D0CE
:1023C000099A571917D05F7843195F70089AAA4283
:1023D00015D0079AAA4224D0375D0D9AD21C0D92CF
:1023E0009F70ED1CF61EAC42E2D11EE0069840192B
:1023F0001AE00D9801E006984019401C14E00D9871
:1024000011E0CB1C0EAC6C25A554834200D16BE7C8
:10241000091D0EAA6424D454814200D0A9E10F46BC
:102420006CE706984019801C0D900D9FF9B2E029C9
:10243000084600D8E0204A09062A0FD84A1C0EABED
:102440000A9C5C54824201D1174607E08B1C0EACFB
:102450006F25A554834200D083E01F460B98446843
:10246000002C34D00D970126771E0A2520462946D8
:1024700014F0B4F94543611B3025294346AAB954E9
:10248000082F2FD80A2C2DD30A2114F0A7F929439D
:1024900046A88155072F24D8642C22D364212046D6
:1024A00014F09CF90A2114F099F9294346A88019DF
:1024B00041707D20C100204614F090F9F61C062FD3
:1024C00003D8C5498C420446CED8761E0AE0F8B23D
:1024D000410907296AD27F1C0D970EA930220A54A0
:1024E00053E0761C0D98C3B2E02B184600D8E020CC
:1024F0000EA9C918C21A941E09940893181A401CF0
:102500000B9046A8C71EB01E0A90701E0C900025A6
:10251000AA421BD0BC19A07848550C98A84218D0E4
:102520000B98401917D060784C1960700A98A8422F
:1025300015D00998A84224D0B85D0D9BDB1C0D93E3
:10254000A070ED1CFF1EAE42E2D11EE008984019BB
:102550001AE00D9801E008984019401C14E00D980D
:1025600011E0CA1C0EAC029DE554824200D16BE71B
:10257000091D0EAB66249C54814200D0FEE00F463C
:102580006CE708984019801C0D900D9FF9B248091E
:1025900006280BD8481C0EAA0D235354E02801D15D
:1025A000E02703E0BF1C0EA90A220A548B4DFFB29C
:1025B0008B4800888B4E3188C94340182840B84268
:1025C00008D28A488169491C816149B0F0BDC04682
:1025D000E70300007C1E0321204614F0FFF84A1C8C
:1025E0000021032A084600D010460C92022C20D36A
:1025F000391A0D9100217C4C0EAA5718525C2B46BB
:10260000358862553288521C1A4032807A78358873
:1026100062553288521C1A403280BA783588625529
:102620001D463288521C1A403280C91C0D9A8A42BB
:10263000E2D10C9A032A15D00EAA51186A4A0B78D7
:102640003488135533885B1C2B403380012809D014
:102650004B783488135533885B1C2B403380891C9E
:10266000801EECD149B0F0BDCB1C0EAC6125A55449
:10267000834201D1FFF71EFA0A1D0EAC7225E55404
:10268000824201D1FFF720FA4B1D0EAC7325A554F1
:10269000834201D1FFF70EFA8A1D0EAC039DE5546B
:1026A000824201D1FFF710FAC91D0EAB64249C547D
:1026B000814200D083E00F46FFF707FACB1C0EAC37
:1026C0007925A554834201D1FFF753F90C1D0EAAB9
:1026D000049DD554844256D12746FFF755F9421D33
:1026E0000EAB039D1D558A4201D1FFF78DFA831D64
:1026F0000EAC7025A5548B4201D1FFF77CFAC41DA6
:102700000EAA049DD5548C4201D1FFF715FB024659
:1027100008320EAB039D1D558A4201D1FFF774FAB2
:1027200009300EAB64249C5488424ED10746FFF713
:102730006CFA7F1D0EA9059A0A54FFF71CFB7F1D3A
:102740000EA9059A0A54FFF7C7FB4A1D0EAB6C256C
:102750001D55824200D16DE4891D0EAB64249C544A
:10276000814221D10F4666E47F1D0EA8059A42548E
:1027700014E57F1D0EA8059A4254BFE57F1D0EA8E3
:10278000059A42546AE64A1D0EAB039D1D558242CE
:1027900001D1FFF7F8F8891D0EAB73249C548142D8
:1027A00007D10F46FFF7F0F8FF1D0EA8059A425417
:1027B00041E4FF1D0EA8059A4254FFF7E5F80837DB
:1027C0000EA8059A4254FFF780F90A370EA9059A18
:1027D0000A54FFF71AFAC046E7030000FF0700009B
:1027E000281920202619202000002020281720202A
:1027F000F0B5D3B00C930D4604461192D069211A5E
:102800000D910026F14300280B4600D00D9BA848EF
:102810008268A01A0292002A00D001460A910B9009
:1028200014A84421017042214170472181702C225B
:10283000C27043210171542107914171522181716C
:102840004C21C171129202727421039141723D2197
:1028500009918172002C049406933CD00F950121BC
:102860000C223546139117460A262046314613F0AE
:10287000B5FF139B4643A11B30220A436E1C50A98F
:102880004A55082D04D8591C7A1C092C0446E8D84E
:102890001C4610970321284613F0A0FF4F1C032F5E
:1028A0001ED03846022D1ED3139750AAD31E341AB9
:1028B00000229D19AF7814A98918CF726D780D7315
:1028C0009D5D4D73D21CDB1E9442F2D1B31A0B32C4
:1028D0001099139F0AE014A83021C1720C2118E04E
:1028E0000020022DE0D223460B221099032F0F9DCA
:1028F0000FD014A9891850AA9A18921E53780B70F9
:10290000012805D013784B70891C921E801EF5D1CA
:1029100010990C46C8B214A90A18129B0B546F21C7
:1029200051706C210191917064210091D1700999CD
:102930001171062D03D8A9005E4A525800E05E4A84
:1029400011993C311191611D1778002F2AD0CBB21B
:1029500014AC24180F94EB24201A10900026F020B9
:10296000109CB442139037D094190F9DAD196F711C
:102970006778002F13D010465A1CF02A2CD0AF7164
:10298000A778002F0DD09A1CF02A25D0DB1CC91C7B
:10299000EF71E778F61C002F0246E0D102E0491CF7
:1029A00000E0891CCBB2F02B1A4600D8F02218099F
:1029B0000E2801D913910FE0581C14AC129DE55458
:1029C000904201D1139007E09C1C14AD6E262E544A
:1029D000944200D095E013941199897806290591C5
:1029E00003D88900334A525800E0334A117800294D
:1029F00013982FD0C3B2F02B1D4600D8F02514AC8D
:102A0000E4180895ED1AAB1E0E9310956B1E0F93EC
:102A10000023109D9D4218D0D618E1547778002FDE
:102A200015D00F99994210D0E1184F70B778002F48
:102A30000FD015460E9A9A4207D0C01C8F70F178BD
:102A4000DB1C00292A46E4D104E0089802E0401C7F
:102A500000E0801C589908910599052900D0B9E03B
:102A6000C2B2F02A114600D8F02113090E2B0FD85C
:102A7000541C14AB129D9D548C4201D1204607E09A
:102A8000931C14AD63262E558B4200D080E018466F
:102A9000049C1199497804290B9B49D8074DC046DD
:102AA0007944097949008F440B443F413D00C046B9
:102AB000A8162020B07A0100207E0100307E01009F
:102AC000F84D0299002934D019210A01934230D8D7
:102AD0000799089B595C091FC9B20A2905D2F24B14
:102AE000CB40DB0701D000F0FFFD0899896C631A29
:102AF000EE4D93422A4600D8ED4A002919D01546DA
:102B000017E0D81C14AD65262E55904200D159E728
:102B10001B1D14AC77252554934201D000F0C9FD4C
:102B2000139359E7E34D04E0E34D02E0E34D00E089
:102B3000E34D2F78002F4DD01095C1B2F0290B46F0
:102B400000D8F02314AA521813935B1A991E0E9101
:102B5000591E0F910026B34217D010998919975525
:102B60004C78002C33D00F9DB5420ED097197C7055
:102B70008C78002C2DD00E9DB54206D0C01CBC70A8
:102B8000CF78F61C002FE6D124E00B980D9E3DE097
:102B9000D41C14AD6126EE548C4200D16EE7131D97
:102BA00014AD75262E558B4200D170E7541D14AD1F
:102BB0007326EE548C4200D160E7921D14AB65255C
:102BC0001D558A4201D000F0A5FD104660E7401C6B
:102BD00000E0801CC2B2F02A114600D8F02113098F
:102BE0000E2B0D9E01D913900FE0571C14AB129CB5
:102BF0009C548F4201D1139707E0931C14AC6D25B0
:102C0000E5558B4200D017E213930B98069B002BDF
:102C10000BD415D1139EF4B221090F2900D39FE0E4
:102C2000731C14A930220A5580E0139AD0B201090E
:102C30000E2904D8521C139214A92D220A545E4264
:102C400001256F1E0A243046214613F0C7FD444378
:102C5000311B3024214350AAB954082F25D80A2EFD
:102C600023D30A2113F0BAFD214350A84155072F61
:102C70001AD8642E18D36421304613F0AFFD0A2110
:102C800013F0ACFD214350A8401941707D20C100D4
:102C9000304613F0A3FDED1C062F03D889498E4260
:102CA0000646CED86D1E00E06D1C13980346C4B2D4
:102CB000F02C204600D8F02014A90919021B961EFA
:102CC0000D960694201A401C0F9050A8C71EA81EEF
:102CD0000E90681E10900026B24219D07C19A07880
:102CE00088551098B04216D00F98801915D060788A
:102CF0008C1960700E98B04213D00D98B04212D06B
:102D0000785DDB1CA070F61CFF1EB542E4D10DE01F
:102D1000069883190AE05B1C08E006988019431C9A
:102D200004E09B1C02E006988019831C1E46D9B261
:102D3000F029084600D8F0200A090E2A0FD84B1CAB
:102D400014AA129C5454834201D11E4607E08A1CE7
:102D500014AC7225E554824200D039E116460B9836
:102D60000A99002902D474D013960AE0F0B201093E
:102D70000E2903D8761C14A92D220A5413960A98FA
:102D8000404201256F1E0A242146064613F026FD07
:102D90004443311B3024214350AAB954082F25D86D
:102DA00033460A2E22D30A2113F018FD214350AADC
:102DB0005155072F19D83046642E16D3642113F0CD
:102DC0000DFD0A2113F00AFD214350A8401941705E
:102DD0007D20C100304613F001FDED1C062F02D806
:102DE00038498E42CED86D1E00E06D1C1398034604
:102DF000C4B2F02C204600D8F02014A90919021BF7
:102E0000961E0D960B94201A401C0F9050A8C71EBA
:102E1000A81E0E90681E10900026B24222D07C1987
:102E2000A07888551098B0421FD00F9880191ED0F6
:102E300060788C1960700E98B0421CD00D98B0422A
:102E40001BD0785DDB1CA070F61CFF1EB542E4D1E0
:102E500016E0F0B201090F293ED2731C14A93022EA
:102E60000A540DE00B9883190AE05B1C08E00B98EC
:102E70008019431C04E09B1C02E00B988019831C02
:102E80001E46D9B2F029084600D8F0200A090E2AB9
:102E900022D84B1C14AA129C5454834214D11E46AF
:102EA0001AE0C046757C01000F030000A37B0100FF
:102EB000837C0100B07D01002D7D0100DC7C0100E0
:102EC000207E0100E70300008A1C14AC7325E55442
:102ED000824200D09AE016460C98048A002C36D024
:102EE0001396F0B20B9001277E1E0A252046294634
:102EF00013F074FC4543611B3025294350AAB1549B
:102F0000082E30D80A2C2ED30A2113F067FC29434F
:102F100050A8C155072E25D8642C23D36421204600
:102F200013F05CFC0A2113F059FC294350A8C01986
:102F300041707D20C100204613F050FCFF1C062E7E
:102F400003D8F9498C420446CED87F1E0BE0F0B27C
:102F500001090F2900D3A5E0761C139614A930228D
:102F60000A5486E07F1C0B9AF02A00D8F02214A89D
:102F70000B9BC018D11A8C1E0D949A1A521C0F92DA
:102F800050AAD51EBA1E0E927A1E10920024A1429B
:102F90001BD0EB199E780655109AA24246D00F9A84
:102FA000161945D05E7803195E700E9AA2425AD067
:102FB0000D9AA24259D0EE5D139AD21C13929E70C4
:102FC000E41CED1EA742E2D153E00B9800194FE03C
:102FD000CB1C14AC7825A554834200D1B5E60A1D5C
:102FE00014AC6125E554824200D1B7E64B1D14AC08
:102FF0006725A554834200D1A7E6891D14AA65243C
:10300000D454814200D074E30E46A8E6CB1C14AC25
:103010006525A554834200D141E7091D14AA7124F6
:10302000D454814200D03FE30E4655E7139801E0A7
:103030000B980019401C1BE0D71C14AC6125E5540B
:103040008F4200D1D7E5131D14AC6725E5558B429F
:1030500000D1D9E5521D14AC6525E5548A4200D053
:103060002EE31392D1E5139801E00B980019801C10
:103070001390139EF0B2F028014600D8F021020907
:103080000E2A0FD8431C14AA129C14548B4201D14F
:103090001E4607E0821C14AC7625E5548A4200D017
:1030A00083E016460C984478002C36D01396F0B284
:1030B0000B9001277E1E0A252046294613F08EFB21
:1030C0004543611B3025294350AAB154082E2FD8FF
:1030D0000A2C2DD30A2113F081FB294350A8C15596
:1030E000072E24D8642C22D36421204613F076FBCB
:1030F0000A2113F073FB294350A8C01941707D20A9
:10310000C100204613F06AFBFF1C062E03D893492A
:103110008C420446CED87F1E0AE0F0B201090F2986
:103120007ED2761C139614A930220A545FE07F1CCD
:103130000B9AF02A00D8F02214A80B9BC018D11AC1
:103140008C1E0D949A1A521C0F9250AAD51EBA1EAC
:103150000E927A1E10920024A1421BD0EB199E7889
:103160000655109AA24218D00F9A161917D05E78F9
:1031700003195E700E9AA24215D00D9AA24232D067
:10318000EE5D139AD21C13929E70E41CED1EA742B2
:10319000E2D12CE00B98001928E0139801E00B987D
:1031A0000019401C22E013981FE0C31C14AC6125D9
:1031B000A5548B4200D16BE7021D14AC019DE55470
:1031C0008A4200D16DE7431D14AC6925A5548B429A
:1031D00000D15DE7801D14AA009CD454884200D021
:1031E0008DE206465EE70B980019801C1390139E33
:1031F000F1B2F029084600D8F0200A090E2A0FD8AB
:103200004B1C14AA129C5454834201D11E4607E061
:103210008A1C14AC6D25E554824200D086E0164627
:103220000C988478002C36D01396F0B20C900127BD
:103230007E1E0A252046294613F0D0FA4543611B1D
:103240003025294350AAB154082E30D80A2C2ED349
:103250000A2113F0C3FA294350A8C155072E25D8D7
:10326000642C23D36421204613F0B8FA0A2113F00A
:10327000B5FA294350A8C01941707D20C1002046ED
:1032800013F0ACFAFF1C062E03D834498C420446D6
:10329000CED87F1E0BE0F0B201090F2900D384E0E5
:1032A000761C139614A930220A545DE07F1C0C9AF8
:1032B000F02A00D8F02214A80C9BC018D11A8C1E3A
:1032C0000D949A1A521C0F9250AAD51EBA1E0E9235
:1032D0007A1E10920024A1421BD0EB199E7806554D
:1032E000109AA24218D00F9A161917D05E780319B7
:1032F0005E700E9AA24215D00D9AA24230D0EE5DB9
:10330000139AD21C13929E70E41CED1EA742E2D1C8
:103310002AE00C98001926E0139801E00C98001997
:10332000401C20E013981DE0E7030000CB1C14AC08
:103330006525A554834200D168E70A1D14AC6125B8
:10334000E554824200D16AE7491D14AB73249C54B2
:10335000814200D0BBE10E4662E7C046E7030000B1
:103360000C980019801C1390139EF1B2F0290846A6
:1033700000D8F0200A090E2A17D84A1C14AB129C58
:103380005C54824201D116460FE08B1C14AC7325AD
:10339000A554834201D11E4607E0CC1C14AA039D0C
:1033A000D554844200D062E1264611980478002C5E
:1033B00036D01396F0B20D9001277E1E0A252046C6
:1033C000294613F00BFA4543611B3025294350AAC7
:1033D000B154082E2FD80A2C2DD30A2113F0FEF950
:1033E000294350A8C155072E24D8642C22D3642128
:1033F000204613F0F3F90A2113F0F0F9294350A8FD
:10340000C01941707D20C100204613F0E7F9FF1C70
:10341000062E03D8C7498C420446CED87F1E0AE048
:10342000F0B201090F2960D2761C139614A930223C
:103430000A5441E07F1C0D9AF02A00D8F02214A80B
:103440000D9BC018D11A8C1E0E949A1A521C109201
:1034500050AAD51EBA1E0F927A1E11920024A142C4
:103460001BD0EB199E780655119AA24218D0109ADB
:10347000161917D05E7803195E700F9AA24215D004
:103480000E9AA24214D0EE5D139AD21C13929E7033
:10349000E41CED1EA742E2D10EE00D9800190AE0EF
:1034A000139801E00D980019401C04E0139801E006
:1034B0000D980019801C1390139EF0B2F02801465D
:1034C00000D8F02102090E2A0FD8441C14AA129B1E
:1034D00013548C4201D1264607E0831C14AD6522AB
:1034E0002A558B4200D0ADE01E4607980899085C2B
:1034F0000D2803D880009049095800E08B490F78C7
:10350000002F2BD03546F0B2F028034600D8F02328
:1035100014AA121810931B1A981E11901393581E78
:10352000129000261398B0421AD088199755447803
:10353000002C17D0129BB34212D097197C7084785C
:10354000002C11D00B461199B14209D0ED1CBC7072
:10355000C778F61C002F1946E4D106E0354604E092
:10356000109B14E06D1C00E0AD1CE9B208090E28A8
:1035700001D92B460BE0481C14AA0D235354F02804
:1035800001D1F02303E0AB1C14A90A220A546B4DAD
:10359000DFB26B4800886B4E3188C9434018284021
:1035A000B84205D269488169491C816153B0F0BDB8
:1035B0007C1E0321204613F011F94A1C0021032A26
:1035C000084600D010461292022C20D3391A1391CB
:1035D00000215D4C14AA5718525C2B463588625561
:1035E0003288521C1A4032807A7835886255328887
:1035F000521C1A403280BA78358862551D4632888E
:10360000521C1A403280C91C139A8A42E2D1129A83
:10361000032A15D014AA51184B4A0B783488135535
:1036200033885B1C2B403380012809D04B783488C9
:10363000135533885B1C2B403380891C801EECD1D2
:1036400053B0F0BDC41C14AD7626EE548C4200D1AC
:1036500041E7031D14AD2A558B4200D144E7421DBA
:1036600014AC6E25E5548A4236D116463DE70A1D54
:1036700014AB72251D55824200D184E64B1D14AC5B
:103680006525A554834200D185E68A1D14AC6125C9
:10369000E554824200D176E6C91D14AB6B249C54DC
:1036A00081423DD10E4680E6761D14A8099A425407
:1036B00012E4481D139014A9099ACA54FFF78CF913
:1036C000801D139014A809998154FFF79EFAB61D26
:1036D00014A8099A4254A3E5801D14AB039C9C5482
:1036E000884211D1064600E78900114A5558FFF774
:1036F00020FAF61D14A8099A4254FFF730FBF61D74
:1037000014A9099A0A54CDE4139EF61D14A9099A26
:103710000A54EAE6C01D14A9099B8B54FFF7B8F9B7
:10372000083614A8099A42543FE6C046207E01009C
:10373000307A0100E703000098790100FF070000DC
:1037400028192020261920200000202028172020BA
:10375000F0B5C3B00C920D91064610A8442101703B
:1037600042214170472181702C22C2704621017193
:10377000492141714C2181715421C171452101724E
:10378000522141720B92827274210591C1723D21C6
:1037900006910173002E3ED0002401210E222746FF
:1037A0000E9115460A243046214613F017F80E9B59
:1037B0004443311B30220A437C1C40A9CA55082FC0
:1037C00004D8591C6A1C092E0646E8D81E460F95D7
:1037D0000321384613F002F84D1C032D20D0284653
:1037E000022F20D30E9540AAD31E251A00221E199F
:1037F000B77810A989184F7376788E731E5DCE73D3
:10380000D21CDB1E9542F2D1A31A0D320F990E9DE8
:10381000032D0DD11CE010A8302141730E2117E0BB
:103820000020022FDED233460D220F99032D0FD038
:1038300010A9891840AA9A18921E53780B70012873
:1038400005D013784B70891C921E801EF5D10F99FC
:103850000A46CBB210A8C1180B9CC4547220487001
:1038600065200390887073200490C87075200290C2
:1038700008716C200190487105988871069CCC7184
:103880000D98005D042803D88000F149085800E035
:10389000F04808320578002D24D00F901046D1B2A0
:1038A00010AAD2180E92B824E31A0024A3421BD007
:1038B0000F9A16190E9A17193D727578002D19D0A6
:1038C0004A1CC02A10D07D72B578002D14D08A1CF5
:1038D000C02A09D0C91CC01CBD72F578E41C002D9B
:1038E000E4D10AE0104608E00C98068AC023002EB6
:1038F0001FD1C7E0401C00E0801C0346C1B2C029B4
:103900000D4600D8C0258A09022A0ED84A1C10ABE1
:103910000B9C5C54AA4201D1134606E08B1C10ACF0
:10392000049EA654AB4200D016E20C98068A002EE4
:1039300034D00F9301256F1E0A243046214612F021
:103940004DFF4443311B3024214340AAB954082F72
:103950002FD80A2E2DD30A2112F040FF214340A870
:103960004155072F24D8642E22D36421304612F00B
:1039700035FF0A2112F032FF214340A8401941705F
:103980007D20C100304612F029FFED1C062F03D820
:10399000B1498E420646CED86D1E0AE0D8B28109E2
:1039A00002296FD85B1C0F9310A930220A5443E000
:1039B0006D1C0F98C3B2C02B184600D8C02010A9A8
:1039C000C918C21A941E08940793181A401C0A902A
:1039D00040A8C71EA81E0990681E0E900026B2427D
:1039E0001BD07C19A07888550E98B04218D00A9840
:1039F000801917D060788C1960700998B04215D082
:103A00000898B04214D0785D0F9BDB1C0F93A07018
:103A1000F61CFF1EB542E2D10EE0079880190AE0BD
:103A20000F9801E007988019401C04E00F9801E00E
:103A300007988019801C0F900F9BD9B2C0290846A7
:103A400000D8C0208A09022A1CD84B1C10AA0B9C43
:103A50005454834216D08A1C10AC7625E554824219
:103A600001D113460EE0CB1C10AC6125A554834256
:103A700008D00C1D10AA019DD554844201D000F03D
:103A8000BDFC23460C984678002E36D00F93D8B252
:103A9000079001277D1E0A243046214612F09EFE23
:103AA0004443311B3024214340AAA954082D2FD868
:103AB0000A2E2DD30A2112F091FE214340A8C155B0
:103AC000072D24D8642E22D36421304612F086FEBE
:103AD0000A2112F083FE214340A8C01941707D20C5
:103AE000C100304612F07AFEFF1C062D03D85A4959
:103AF0008E420646CED87F1E0AE0D8B2810903293D
:103B00005FD25B1C0F9310A930220A5441E07F1C46
:103B1000079AC02A00D8C02210A8079BC018D11A43
:103B20008C1E08949A1A521C0A9240AAD51EBA1EDC
:103B300009927A1E0E920024A1421BD0EB199E78A6
:103B400006550E9AA24218D00A9A161917D05E7816
:103B500003195E70099AA24215D0089AA24214D0A5
:103B6000EE5D0F9AD21C0F929E70E41CED1EA742D0
:103B7000E2D10EE0079800190AE00F9801E00798DB
:103B80000019401C04E00F9801E007980019801C00
:103B90000F900F9BD8B2C028014600D8C0218209DF
:103BA000022A0ED8421C10AB0B9C1C548A4201D135
:103BB000134606E0831C10AC6D25A5548B4200D043
:103BC0008AE00C988678002E36D00F93D8B20790F2
:103BD00001277D1E0A243046214612F0FFFD444392
:103BE000311B3024214340AAA954082D37D80A2E6E
:103BF00035D30A2112F0F2FD214340A8C155072D0B
:103C00002CD8642E2AD36421304612F0E7FD0A2115
:103C100012F0E4FD214340A8C01941707D20C1008D
:103C2000304612F0DBFDFF1C062D03D80A498E42F8
:103C30000646CED87F1E12E0D8B28109032900D3F0
:103C40009FE05B1C0F9310A930220A545FE0C0462E
:103C5000687B0100207E0100E70300007F1C079ABB
:103C6000C02A00D8C02210A8079BC018D11A8C1EE9
:103C700008949A1A521C0A9240AAD51EBA1E09929A
:103C80007A1E0E920024A1421BD0EB199E78065595
:103C90000E9AA24218D00A9A161917D05E78031904
:103CA0005E70099AA24215D0089AA2422BD0EE5D0E
:103CB0000F9AD21C0F929E70E41CED1EA742E2D117
:103CC00025E00798001921E00F9801E007980019F6
:103CD000401C1BE00F9818E0C21C10AC039DE5547B
:103CE0008A4200D164E7031D10AC6125A5548B42C4
:103CF00000D166E7401D10AA049CD454884200D02D
:103D000094E303465DE707980019801C0F900F9B12
:103D1000D8B2C028014600D8C0218209022A30D872
:103D2000431C10AA0B9C14548B422AD0821C10AC4A
:103D30007025E5548A4201D1134622E0C31C10AC21
:103D40006F25A5548B421CD0001D10AA049CD4548E
:103D5000884211D1034614E0CA1C10AC039EE654FD
:103D6000AA4200D1D8E5091D10AB71249C54A94288
:103D700000D054E30B46D8E50F9B5B1D10A9069AB3
:103D80000A5412200C990D5E002D02D474D00F93AA
:103D900009E0D8B28109022903D85B1C10A92D22A1
:103DA0000A540F936D420126771E0A2428462146A5
:103DB00012F014FD4443291B3024214340AAB95476
:103DC000082F25D80A2D23D30A2112F007FD2143FD
:103DD00040A88155072F1AD8642D18D3642128468E
:103DE00012F0FCFC0A2112F0F9FC214340A88019D2
:103DF00041707D20C100284612F0F0FCF61C062F11
:103E000003D8FE498D420546CED8761E00E0761CCA
:103E10000F98C3B2C02B184600D8C02010A9C918EB
:103E2000C21A941E09940893181A401C0C9040A8BA
:103E3000C71EB01E0A90701E0E900025AA4225D003
:103E4000BC19A07848550E98A84222D00C98401969
:103E500021D060784C1960700A98A8421FD0099848
:103E6000A8421ED0B85D0F9BDB1C0F93A070ED1C09
:103E7000FF1EAE42E2D118E0D8B28109032938D240
:103E80005B1C0F9310A930220A540EE008984019C9
:103E90000AE00F9801E008984019401C04E00F98D0
:103EA00001E008984019801C0F900F9BD8B2C028E1
:103EB000014600D8C0218209022A1AD8431C10AA40
:103EC0000B9C14548B4214D0821C10AC6125E55419
:103ED0008A4201D113460CE0C31C10AC6325A554E3
:103EE0008B4206D0041D10AAD5548C4200D060E24B
:103EF00023460D98056A002D36D00F93D8B208904E
:103F000001277E1E0A242846214612F067FC4443FE
:103F1000291B3024214340AAB154082E2FD80A2D42
:103F20002DD30A2112F05AFC214340A8C155072E77
:103F300024D8642D22D36421284612F04FFC0A2194
:103F400012F04CFC214340A8C01941707D20C100F3
:103F5000284612F043FCFF1C062E03D8A7498D42C9
:103F60000546CED87F1E0AE0D8B28109032966D261
:103F70005B1C0F9310A930220A5441E07F1C089A61
:103F8000C02A00D8C02210A8089BC018D11A8C1EC5
:103F900009949A1A521C0C9240AAD51EBA1E0A9273
:103FA0007A1E0E920024A1421BD0EB199E78065572
:103FB0000E9AA24218D00C9A161917D05E780319DF
:103FC0005E700A9AA24215D0099AA24214D0EE5D00
:103FD0000F9AD21C0F929E70E41CED1EA742E2D1F4
:103FE0000EE0089800190AE00F9801E008980019FF
:103FF000401C04E00F9801E008980019801C0F9005
:104000000F9BD9B2C029084600D8C0208A09022ACD
:1040100015D84A1C10AB0B9C5C54824201D113464C
:104020000DE08B1C10AC6A25A554834207D0CC1C34
:1040300010AA029DD554844200D09CE123460D98DD
:10404000456A002D36D00F93D8B2089001277E1E06
:104050000A242846214612F0C1FB4443291B302480
:10406000214340AAB154082E2FD80A2D2DD30A215E
:1040700012F0B4FB214340A8C155072E24D8642D6B
:1040800022D36421284612F0A9FB0A2112F0A6FBD4
:10409000214340A8C01941707D20C100284612F07C
:1040A0009DFBFF1C062E03D8F0498D420546CED855
:1040B0007F1E0AE0D8B28109032965D25B1C0F93E9
:1040C00010A930220A5441E07F1C089AC02A00D867
:1040D000C02210A8089BC018D11A8C1E09949A1AE5
:1040E000521C0C9240AAD51EBA1E0A927A1E0E923B
:1040F0000024A1421BD0EB199E7806550E9AA242CD
:1041000018D00C9A161917D05E7803195E700A9AA7
:10411000A24215D0099AA24214D0EE5D0F9AD21C89
:104120000F929E70E41CED1EA742E2D10EE00898AB
:1041300000190AE00F9801E008980019401C04E0FB
:104140000F9801E008980019801C0F900F9BD9B2BE
:10415000C029084600D8C0208A09022A14D84B1C5E
:1041600010AA0B9C545483420ED08A1C10AC6825B4
:10417000E554824201D1134606E0CB1C10AC6F25FA
:10418000A554834200D005E10D98846A002C37D0F5
:104190000F930126771E0A252046294612F01EFBA2
:1041A0004543611B3025294340AAB954082F32D812
:1041B0000A2C30D30A2112F011FB294340A8815563
:1041C000072F27D8642C25D36421204612F006FB44
:1041D0000A2112F003FB294340A8801941707D2079
:1041E000C100204612F0FAFAF61C062F03D89F49A8
:1041F0008C420446CED8761E0DE0C046E703000090
:10420000D8B2810903295BD25B1C0F9310A930221D
:104210000A5443E0761C0F98C3B2C02B184600D84E
:10422000C02010A9C918C21A941E0B940A93181A18
:10423000401C0D9040A8C71EB01E0C90701E0E9022
:104240000025AA421BD0BC19A07848550E98A84258
:1042500018D00D98401917D060784C1960700C98E0
:10426000A84215D00B98A84214D0B85D0F9BDB1C58
:104270000F93A070ED1CFF1EAE42E2D10EE00A9833
:1042800040190AE00F9801E00A984019401C04E028
:104290000F9801E00A984019801C0F900F9BD9B22B
:1042A000880902280CD8481C10AA0D235354C02892
:1042B00001D1C02304E00F9B9B1C10A90A220A54C1
:1042C0006B4DDFB26B4800886B4E3188C943401894
:1042D0002840B84205D26A488169491C816143B0CF
:1042E000F0BD7C1E0321204612F078FA4A1C002102
:1042F000032A084600D010460E92022C20D3391A09
:104300000F9100215D4C10AA5718525C2B4635883E
:1043100062553288521C1A4032807A78358862554C
:104320003288521C1A403280BA78358862551D4650
:104330003288521C1A403280C91C0F9A8A42E2D13C
:104340000E9A032A15D010AA51184C4A0B783488BB
:10435000135533885B1C2B403380012809D04B78E0
:104360003488135533885B1C2B403380891C801E96
:10437000ECD143B0F0BD0A1D10AB6D251D55824236
:1043800000D14CE6491D10AB70249C54814254D19D
:104390000B4654E60A1D10AC019DE554824200D143
:1043A000E9E6491D10AB64249C5481424BD10B4675
:1043B000EAE6421D10AB039D1D558A4200D189E5F6
:1043C000831D10AC7025A5548B4200D191E5C41D0E
:1043D00010AA059DD5548C4200D189E502460832C9
:1043E00010AB039D1D558A4200D173E5093010AB17
:1043F00064249C54884233D103467AE54A1D10ABAD
:1044000069251D55824201D1FFF72BFB891D10AB99
:1044100064249C5481421CD10B46FFF733FB0346B6
:10442000431D10A8069A4254FFF77FFA0F9B9B1D6D
:1044300010A9069A0A54FFF7C4FB0F9B9B1D10A8F6
:10444000069A4254FBE50F9B9B1D10A8069A425406
:104450009AE60F9BDB1D10A8069A4254FFF712FB49
:104460000F9B0A3310A9069A0A5442E5E70300009D
:10447000FF070000281920202619202000002020F6
:1044800028172020F0B58DB0002613F0F9F8044667
:104490003046314612F012FED64812F097FB0194D6
:1044A000E06A012504963146039505916A1E06923D
:1044B0000A2207920746049D2B4612F0CDFF0446C0
:1044C0000E46079A2B4612F097FD381A30252843DE
:1044D00008A9069A5054029705980A3F049A9041F9
:1044E000079536D30A220027204631463B4612F074
:1044F000B3FF2A4308A8039BC254069911291D46FD
:10450000029E28D8304664380598B84123D36422E7
:1045100000243046059F3946234612F09DFF0A22AB
:10452000234612F099FF0798024308A840194270E9
:104530007D20C20030463946234612F08DFFED1C27
:10454000069A102A03D8AC4A921BBC41ACD36D1E0C
:1045500002E0039D00E06D1C681E0321069012F02E
:104560003DF9481C032803D00446032803D114E076
:104570000024032811D008A82F46861EF019407881
:1045800011F05AFC012C07D0BD1EF05D11F054FC57
:10459000A41E2F46F2D100E07D1E0698022810D3FB
:1045A0006C4208A82818C51EA87811F045FC687848
:1045B00011F042FC287811F03FFCE41CED1E002CA9
:1045C000F2D18E4812F002FB0198006B0021012508
:1045D0000491039505916A1E06920A2202920746EB
:1045E000049D2B4612F038FF04460E46029A2B46D5
:1045F00012F002FD381A079D284308A9069A505464
:10460000029705980A3F049A904136D30A22002760
:10461000204631463B4612F01FFF2A4308A8039B61
:10462000C254069911291D46029E28D83046643886
:104630000598B84123D3642200243046059F3946AB
:10464000234612F009FF0A22234612F005FF0798BD
:10465000024308A8401942707D20C2003046394606
:10466000234612F0F9FEED1C069A102A03D8624A7E
:10467000921BBC41ADD36D1E02E0039D00E06D1C9A
:10468000681E0321069012F0A9F8481C032803D0E5
:104690000446032803D114E00024032811D008A8FD
:1046A0002F46861EF019407811F0C6FB012C07D06A
:1046B000BD1EF05D11F0C0FBA41E2F46F2D100E03C
:1046C0007D1E0698022810D36C4208A82818C51E23
:1046D000A87811F0B1FB687811F0AEFB287811F0E2
:1046E000ABFBE41CED1E002CF2D10220002421467D
:1046F00012F0E4FC424812F069FA0198406B01257F
:1047000004942146039505916A1E06920A2202929C
:104710000746049D2B4612F09FFE04460E46029A61
:104720002B4612F069FC381A079D284308A9069AFF
:104730005054029705980A3F049A904136D30A22B2
:104740000027204631463B4612F086FE2A4308A841
:10475000039BC254069911291D46029E28D8304653
:1047600064380598B84123D3642200243046059F5D
:104770003946234612F070FE0A22234612F06CFEE0
:104780000798024308A8401942707D20C2003046B5
:104790003946234612F060FEED1C069A102A03D813
:1047A000154A921BBC41ADD36D1E02E0039D00E093
:1047B0006D1C681E0321069012F010F8481C032897
:1047C00003D00446032803D11DE0002403281AD097
:1047D00008A82F46861EF019407811F02DFB012CF9
:1047E00010D0BD1EF05D11F027FBA41E2F46F2D1A4
:1047F00009E0C04680820100E70300002781010034
:10480000338201007D1E0698022810D36C4208A84E
:104810002818C51EA87811F00FFB687811F00CFB62
:10482000287811F009FBE41CED1E002CF2D1D648CB
:1048300012F0CCF90198806B0021012504910395B9
:1048400005916A1E06920A2202920746049D2B4693
:1048500012F002FE04460E46029A2B4612F0CCFBE2
:10486000381A079D284308A9069A505402970598BC
:104870000A3F049A904136D30A2200272046314647
:104880003B4612F0E9FD2A4308A8039BC25406994F
:1048900011291D46029E28D8304664380598B84133
:1048A00023D3642200243046059F3946234612F064
:1048B000D3FD0A22234612F0CFFD0798024308A831
:1048C000401942707D20C20030463946234612F01E
:1048D000C3FDED1C069A102A03D8AC4A921BBC41BA
:1048E000ADD36D1E02E0039D00E06D1C681E032128
:1048F000069011F073FF481C032803D004460328D8
:1049000003D114E00024032811D008A82F46861EE6
:10491000F019407811F090FA012C07D0BD1EF05D1F
:1049200011F08AFAA41E2F46F2D100E07D1E0698EF
:10493000022810D36C4208A82818C51EA87811F0C8
:104940007BFA687811F078FA287811F075FAE41C8F
:10495000ED1E002CF2D104200024214612F0AEFB03
:104960008B4812F033F90198C06B0125049421465D
:10497000039505916A1E06920A2202920746049D3B
:104980002B4612F069FD04460E46029A2B4612F0A1
:1049900033FB381A079D284308A9069A50540297FA
:1049A00005980A3F049A904136D30A2200272046F0
:1049B00031463B4612F050FD2A4308A8039BC254DF
:1049C000069911291D46029E28D83046643805985C
:1049D000B84123D3642200243046059F394623463C
:1049E00012F03AFD0A22234612F036FD07980243E0
:1049F00008A8401942707D20C2003046394623463F
:104A000012F02AFDED1C069A102A03D85F4A921B69
:104A1000BC41ADD36D1E02E0039D00E06D1C681E1D
:104A20000321069011F0DAFE481C032803D0044647
:104A3000032803D114E00024032811D008A82F462E
:104A4000861EF019407811F0F7F9012C07D0BD1E31
:104A5000F05D11F0F1F9A41E2F46F2D100E07D1EA9
:104A60000698022810D36C4208A82818C51EA878FA
:104A700011F0E2F9687811F0DFF9287811F0DCF92B
:104A8000E41CED1E002CF2D1424812F09FF8019870
:104A9000C06C002101250491039505916A1E0692C0
:104AA0000A2202920746049D2B4612F0D5FC0446CA
:104AB0000E46029A2B4612F09FFA381A079D284399
:104AC00008A9069A5054029705980A3F049A904103
:104AD00036D30A220027204631463B4612F0BCFC62
:104AE0002A4308A8039BC254069911291D46029E19
:104AF00028D8304664380598B84123D3642200246E
:104B00003046059F3946234612F0A6FC0A2223466A
:104B100012F0A2FC0798024308A8401942707D20B9
:104B2000C20030463946234612F096FCED1C069A28
:104B3000102A03D8154A921BBC41ADD36D1E02E06A
:104B4000039D00E06D1C681E0321069011F046FED7
:104B5000481C032803D00446032803D11DE0002489
:104B600003281AD008A82F46861EF019407811F0A5
:104B700063F9012C10D0BD1EF05D11F05DF9A41E8B
:104B80002F46F2D109E0C04636810100E70300005C
:104B90003F820100328001007D1E0698022810D35A
:104BA0006C4208A82818C51EA87811F045F9687845
:104BB00011F042F9287811F03FF9E41CED1E002CA9
:104BC000F2D106200024214612F078FAE04811F0D4
:104BD000FDFF0198006C0125049421460395059181
:104BE0006A1E06920A2202920746049D2B4612F084
:104BF00033FC04460E46029A2B4612F0FDF9381A91
:104C0000079D284308A9069A5054029705980A3F21
:104C1000049A904136D30A220027204631463B466B
:104C200012F01AFC2A4308A8039BC25406991129C2
:104C30001D46029E28D8304664380598B84123D3D3
:104C4000642200243046059F3946234612F004FCB6
:104C50000A22234612F000FC0798024308A84019D4
:104C600042707D20C20030463946234612F0F4FBE4
:104C7000ED1C069A102A03D8B44A921BBC41ADD34E
:104C80006D1E02E0039D00E06D1C681E032106906E
:104C900011F0A4FD481C032803D00446032803D1C7
:104CA00014E00024032811D008A82F46861EF0190E
:104CB000407811F0C1F8012C07D0BD1EF05D11F055
:104CC000BBF8A41E2F46F2D100E07D1E06980228F4
:104CD00010D36C4208A82818C51EA87811F0ACF8AB
:104CE000687811F0A9F8287811F0A6F8E41CED1EF8
:104CF000002CF2D1974811F069FF0198406C002117
:104D000001250491039505916A1E06920A220292DA
:104D10000746049D2B4612F09FFB04460E46029A5E
:104D20002B4612F069F9381A079D284308A9069AFC
:104D30005054029705980A3F049A904136D30A22AC
:104D40000027204631463B4612F086FB2A4308A83E
:104D5000039BC254069911291D46029E28D830464D
:104D600064380598B84123D3642200243046059F57
:104D70003946234612F070FB0A22234612F06CFBE0
:104D80000798024308A8401942707D20C2003046AF
:104D90003946234612F060FBED1C069A102A03D810
:104DA0006A4A921BBC41ADD36D1E02E0039D00E038
:104DB0006D1C681E0321069011F010FD481C03288D
:104DC00003D00446032803D114E00024032811D0A3
:104DD00008A82F46861EF019407811F02DF8012CF6
:104DE00007D0BD1EF05D11F027F8A41E2F46F2D1AA
:104DF00000E07D1E0698022810D36C4208A82818EF
:104E0000C51EA87811F018F8687811F015F8287800
:104E100011F012F8E41CED1E002CF2D14E4811F0F6
:104E2000D5FE0198866C002001240490014603946D
:104E30000691601E05900A2202923046049D2B4680
:104E400012F00AFB07460C46029A2B4612F0D4F8E1
:104E5000301A079D284308A9059A505402960A3E25
:104E600006980499884136D30A22002638462146FE
:104E7000334612F0F1FA06992A4308A8039C02551A
:104E8000059B112B029D28D8284664380846B0415E
:104E900023D364221E46002728463B4612F0DCFA44
:104EA0000A223B4612F0D8FA0798024308A80019D4
:104EB00042707D20C200284606993B4612F0CCFA8B
:104EC000069BE41C102E04D8204A521B9F41064624
:104ED000ADD3641E02E0039C00E0641C2646601E05
:104EE0000321079011F07AFC481C032803D00546E3
:104EF000032803D114E00025032811D008A8841E3C
:104F00003746E019407810F097FF012D07D0BE1EFC
:104F1000E05D10F091FFAD1E3746F2D100E07E1E3D
:104F20000798022810D3744208A83018C51EA87824
:104F300010F082FF687810F07FFF287810F07CFF77
:104F4000E41CED1E002CF2D10DB0F0BDE703000013
:104F5000578201004B800100FB7F0100F0B5C1B01A
:104F60000C9105460EA84421017042214170472151
:104F700081702C22C2705021017143214171542152
:104F800081715221C1714C210172079242727421C8
:104F9000069181723D210591C172002D3ED00027FE
:104FA00001210D223E460D9114460A272846394616
:104FB00011F014FC0D9B4743E91B30220A43771C78
:104FC0003EA98A55082E04D8591C621C092D054695
:104FD000E8D81D460B940321304611F0FFFB491C15
:104FE000032920D00846022E20D30D913EAAD31EBD
:104FF0003C1A0022DD19AE780EA989180E736D785F
:105000004D73DD5D8D73D21CDB1E9442F2D1BD1A4F
:105010000C320B9B0D9903290CD11BE00EA83021FB
:1050200001730D2316E00020022EDED20C220B9B12
:1050300003290FD00EA989183EAAAA18921E5378E8
:105040000B70012805D013784B70891C921E801EAE
:10505000F5D10B9BDCB20EA80119079A0255662008
:105060000490487061200A90887075200290C87082
:105070006C2001900871069848710598887141204C
:105080000C99085C052803D88000FC49095800E009
:10509000FB49D81D0E78002E24D00D910146C2B2D6
:1050A0000EA800190B90B920041B0025AC421BD0A0
:1050B0000D9847190B984019C6717E78002E1BD0A9
:1050C000531CC02B10D00672BE78002E16D0931C35
:1050D000C02B09D0D21CC91C4672FE78ED1C002ED4
:1050E000E4D10CE001460AE00C980568C027002DC9
:1050F0003FD4002D3ED1CFE0491C00E0891C0F4673
:10510000C9B2C0290A4600D8C0228809022818D886
:10511000481C0EAB079C5C54904201D1074610E03E
:105120008C1C0EAB069D1D54944201D1274608E00D
:10513000CB1C0EA80A9D0555934201D000F010FC2F
:105140001F460C980568002D0BD413D1F8B28109C5
:10515000022900D9A0E07F1C0D970EA930220A5425
:1051600081E0F8B28109022903D87F1C0EA92D2203
:105170000A546D420D970124671E0A2628463146BF
:1051800011F02CFB4643A91B302631433EAAB954EB
:10519000082F25D80A2D23D30A2111F01FFB3143F4
:1051A0003EA80155072F1AD8642D18D3642128462C
:1051B00011F014FB0A2111F011FB31433EA8001934
:1051C00041707D20C100284611F008FBE41C062F29
:1051D00003D8AC498D420546CED8641E00E0641C5D
:1051E0000D98C3B2C02B184600D8C0200EA9C9180C
:1051F000C21A951E08950393181A401C0A903EA8DF
:10520000C71EA01E0990601E0B900026B2421BD044
:105210003D19A87888550B98B04218D00A98801983
:1052200017D068788D1968700998B04215D0089821
:10523000B04214D0385D0D9BDB1C0D93A870F61C9A
:10524000FF1EB442E2D10EE0039880190AE00D98E7
:1052500001E003988019401C04E00D9801E00398D8
:105260008019801C0D900D9FF8B2C028014600D80F
:10527000C0218209022A0FD8421C0EAB079C1C5485
:105280008A4201D1174607E0831C0EAC6325A55462
:105290008B4200D0BCE21F460C984568002D02D41A
:1052A00074D00D9709E0F8B28109022903D87F1C58
:1052B0000EA92D220A540D976D420124671E0A265D
:1052C0002846314611F08AFA4643A91B302631435D
:1052D0003EAAB954082F25D80A2D23D30A2111F04C
:1052E0007DFA31433EA80155072F1AD8642D18D3F3
:1052F0006421284611F072FA0A2111F06FFA314345
:105300003EA8001941707D20C100284611F066FAC0
:10531000E41C062F03D85B498D420546CED8641E97
:1053200000E0641C0D98C3B2C02B184600D8C02002
:105330000EA9C918C21A951E08950693181A401C82
:105340000A903EA8C71EA01E0990601E0B90002662
:10535000B24225D03D19A87888550B98B04222D08A
:105360000A98801921D068788D1968700998B04220
:105370001FD00898B0421ED0385D0D9BDB1C0D93EA
:10538000A870F61CFF1EB442E2D118E0F8B2810901
:1053900003292DD27F1C0D970EA930220A540EE04E
:1053A000069880190AE00D9801E006988019401CC3
:1053B00004E00D9801E006988019801C0D900D9F67
:1053C000F8B2C028014600D8C0218209022A0FD8AD
:1053D000431C0EAA079C14548B4201D11F4607E0C0
:1053E000821C0EAC6525E5548A4200D0B3E0174616
:1053F0000C988568002D02D47BD00D9709E0F8B297
:105400008109022903D87F1C0EA92D220A540D9769
:105410006D420124671E0A262846314611F0DEF946
:105420004643A91B302631433EAAB954082F2CD835
:105430000A2D2AD30A2111F0D1F931433EA8015592
:10544000072F21D8642D1FD36421284611F0C6F9F7
:105450000A2111F0C3F931433EA8001941707D20A3
:10546000C100284611F0BAF9E41C062F03D80549FB
:105470008D420546CED8641E07E0C046FC7A010086
:10548000207E0100E7030000641C0D98C3B2C02B0E
:10549000184600D8C0200EA9C918C21A951E089532
:1054A0000693181A401C0A903EA8C71EA01E099019
:1054B000601E0B900026B24225D03D19A878885571
:1054C0000B98B04222D00A98801921D068788D19A3
:1054D00068700998B0421FD00898B0421ED0385D5D
:1054E0000D9BDB1C0D93A870F61CFF1EB442E2D18D
:1054F00018E0F8B28109032944D27F1C0D970EA948
:1055000030220A540EE0069880190AE00D9801E056
:1055100006988019401C04E00D9801E00698801957
:10552000801C0D900D9FF9B2C029084600D8C020FC
:105530008A09022A26D84A1C0EAB079C5C54824278
:1055400001D117461EE08B1C0EAC049DA55483426E
:1055500010D11F4616E0C31C0EAD7224AC548B4212
:1055600000D13BE7001D0EAAD454884200D018E2B7
:1055700007463DE7CC1C0EAD6F22EA54844200D0B2
:10558000D2E127460C98C568002D02D474D00D973F
:1055900009E0F8B28109022903D87F1C0EA92D2247
:1055A0000A540D976D420124671E0A26284631468B
:1055B00011F014F94643A91B302631433EAAB954D1
:1055C000082F25D80A2D23D30A2111F007F93143DA
:1055D0003EA80155072F1AD8642D18D364212846F8
:1055E00011F0FCF80A2111F0F9F831433EA8001936
:1055F00041707D20C100284611F0F0F8E41C062F10
:1056000003D8FD498D420546CED8641E00E0641CD7
:105610000D98C3B2C02B184600D8C0200EA9C918D7
:10562000C21A951E08950693181A401C0A903EA8A7
:10563000C71EA01E0990601E0B900026B24225D006
:105640003D19A87888550B98B04222D00A98801945
:1056500021D068788D1968700998B0421FD00898D9
:10566000B0421ED0385D0D9BDB1C0D93A870F61C5C
:10567000FF1EB442E2D118E0F8B2810903292CD20E
:105680007F1C0D970EA930220A540EE0069880194F
:105690000AE00D9801E006988019401C04E00D987E
:1056A00001E006988019801C0D900D9FF9B2C02969
:1056B000084600D8C0208A09022A0ED84C1C0EAA1F
:1056C000079B5354844201D1274606E08B1C0EAD44
:1056D0006E222A5583427CD11F460C98046B002C05
:1056E00034D00D970126771E0A252046294611F051
:1056F00075F84543611B302529433EAAB954082F4C
:1057000030D80A2C2ED30A2111F068F829433EA87C
:105710008155072F25D8642C23D36421204611F00E
:105720005DF80A2111F05AF829433EA8801941700A
:105730007D20C100204611F051F8F61C062F03D839
:10574000B1498C420446CED8761E0BE0F8B28109EE
:10575000032900D38DE07F1C0D970EA930220A5437
:1057600076E0761C0D98C3B2C02B184600D8C02036
:105770000EA9C918C21A941E09940893181A401C3D
:105780000B903EA8C71EB01E0A90701E0C900025FC
:10579000AA421BD0BC19A07848550C98A84235D015
:1057A0000B9840194AD060784C1960700A98A8424A
:1057B00048D00998A84247D0B85D0D9BDB1C0D93DB
:1057C000A070ED1CFF1EAE42E2D141E008984019E6
:1057D0003DE0CC1C0EAD6F26EE54844200D173E741
:1057E0000B1D0EAD65262E55834200D174E74C1D6E
:1057F0000EADEA54844200D166E7891D0EAA6323E8
:105800001355814200D0E7E00F4666E70D9817E098
:10581000C21C0EAC029DE5548A4200D132E5031D44
:105820000EAC7225A5548B4200D134E5441D0EAA5E
:10583000D5548C4200D0B9E027462DE50898401990
:10584000401C04E00D9801E008984019801C0D9060
:105850000D9FF9B2880902280BD8481C0EAA0D2307
:105860005354C02801D1C02703E0BF1C0EA90A224F
:105870000A54664DFFB266480088664E3188C943B7
:1058800040182840B84205D264488169491C8161AA
:1058900041B0F0BD7C1E0321204610F09FFF4A1C42
:1058A0000021032A084600D010460C92022C20D377
:1058B000391A0D910021584C0EAA5718525C2B46EC
:1058C000358862553288521C1A4032807A78358881
:1058D00062553288521C1A403280BA783588625537
:1058E0001D463288521C1A403280C91C0D9A8A42C9
:1058F000E2D10C9A032A15D00EAA5118464A0B7809
:105900003488135533885B1C2B403380012809D021
:105910004B783488135533885B1C2B403380891CAB
:10592000801EECD141B0F0BD0B1D0EAD019E2E5579
:10593000834200D10DE634464C1D0EADEE54844238
:1059400000D11EE68B1D0EAD2A55834200D100E624
:10595000C91D0EAA7724D454814242D10F4611E6C4
:10596000081D0EAC7225E554904201D1FFF7D6FB1D
:105970004B1D0EAC67252554934201D1FFF7E0FB88
:10598000881D0EAC6525E554904201D1FFF7C6FB9A
:10599000C91D0EAB069C1C54914227D10F46FFF740
:1059A000D0FB7F1D0EA9059A0A5421E5821D0EAB7E
:1059B00065251D558A4200D164E4C31D0EAC6E25D9
:1059C000A5548B4200D166E408300EAA069CD4543C
:1059D000884213D107465FE4FF1D0EA8059A425482
:1059E0007BE608370EA8059A4254CBE508370EA887
:1059F000059A4254FFF7A5FBE703000009370EA9FB
:105A0000059A0A5448E4C046E7030000FF07000077
:105A100028192020261920200000202028172020C7
:105A2000F0B5C3B0064649310B9110A8442101706E
:105A300042214170472181702C23C37041210171A3
:105A400058214171492181715321C1710E93037213
:105A50007421099141723D210D918172002E0A92AB
:105A60003ED0002401210C2227460F9115460A241E
:105A70003046214610F0B2FE0F9B4443311B3022CA
:105A80000A437C1C40A9CA55082F04D8591C6A1C1B
:105A9000092E0646E8D81E460C950321384610F01C
:105AA0009DFE491C032920D00846022F20D30F91C8
:105AB00040AAD31E251A00221E19B77810A98918EA
:105AC000CF7276780E731E5D4E73D21CDB1E95422C
:105AD000F2D1A61A0B320C9B0F9903290CD11BE0B3
