:1000000000802020A78701009F5501009F55010017
:1000100000000000000000000000000000000000E0
:100020000000000000000000000000009F550100DB
:1000300000000000000000009F550100B1510100C8
:100040009F550100018101009F550100F9750100D4
:100050009F5501009F5501009F5501009F550100CC
:10006000000000009F5501009F55010000000000A6
:10007000000000009F550100896A01009F550100A2
:100080009F5501009F5501009F5501009F5501009C
:100090009F5501009F550100000000000000000076
:1000A0009F5501009F550100000000000000000066
:1000B0009F550100000000009F5501009F55010061
:1000C000F0B5C1B018AF07AD36AC204617F07CFFD5
:1000D0002FA817F0B3FA384617F01EF8284617F085
:1000E0004FFF207DE17C002901D0C14E00E0C14ED0
:1000F0004937002800D0C04E3879002800970FD02B
:100100000020014618F01CF8BC4817F0A1FDB87A91
:10011000401EC0B2022818D88000B949085815E01E
:10012000B879002800D198E00020014618F008F8BE
:10013000B44817F08DFD387B401EC0B2022800D9AC
:10014000CFE08000B0490858CCE0B04817F080FDFF
:10015000AF4817F07DFD387B401EC0B2022803D89F
:100160008000A949085800E0AA48002417F070FD53
:1001700002200194214617F0E3FFA74817F068FD1D
:100180003878002865D0199C002C03D52D2016F056
:1001900019FE6442A149204617F010FB08460125CC
:1001A0000199049505916A1E06920A220392074658
:1001B000019E334618F092F904460D46039A3346E1
:1001C00017F05CFF381A302318433CA9069A5054A4
:1001D000039705990A3F0846B0415DD30A220E46AF
:1001E0000027204629461C463B4618F077F923464F
:1001F00022433CA8049C0255069911292546039ADE
:100200004CD8104664383046B84147D3174664226C
:100210000024384631460293234618F05FF90A223B
:10022000234618F05BF9029802433CA8401942703B
:100230007D20C20038463146234618F04FF9ED1CA8
:10024000069A102A03D8764AD21BB441A9D36D1E50
:1002500025E0704817F0FCFC04E13C356879002883
:1002600000D175E200242046214617F069FF6D4851
:1002700017F0EEFC02200394214617F061FF61485D
:1002800017F0E6FC6879401EC0B2042800D9B1E23C
:10029000800065490858AEE2049D00E06D1C2F46C1
:1002A000681E0321069017F089FA481C032813D012
:1002B0000446032813D03CA8861EF019407816F097
:1002C00081FD012C00D1B7E0BD1EF05D16F07AFD76
:1002D000A41E2F46F1D1B0E000240328EBD13D4607
:1002E000ABE04C48002417F0B3FC504817F0B0FCCA
:1002F000304617F0ADFC0220214617F021FF4C4894
:1003000017F0A6FC04200194214617F019FF494874
:1003100017F09EFC7878002800D115E21A9C002C7A
:1003200003D52D2016F04EFD64423C49204617F0BF
:1003300045FA0D460126019904910596701E069016
:100340000A2203922846019F3B4618F0C7F804464C
:100350000E46039A3B4617F091FE281A30231843A5
:100360003CA9069A505403950A3D04980546B841A5
:1003700000D203E20A220027204631461C463B46B3
:1003800018F0ACF8234622433CA8059C0255069978
:1003900011292646039A00D9F2E11046643828460E
:1003A000B84100D2ECE117466422002438462946C1
:1003B0000293234618F092F80A22234618F08EF88A
:1003C000029802433CA8801942707D20C200384642
:1003D0002946234618F082F8F61C069A102A04D8FB
:1003E0000F4AD21BAC410546A6D3761EC9E1C046D2
:1003F0001B910100DE920100929201002E920100F9
:10040000BC8D010019940100B08D0100A79101007D
:100410006A930100018F01001191010040420F0019
:10042000E70300000C8D0100E88B0100EF8E010056
:10043000FC8C0100B69301007D1E0698022810D3A3
:100440006C423CA82818C51EA87816F0BBFC68783A
:1004500016F0B8FC287816F0B5FCE41CED1E002C54
:10046000F2D1009F04200021019117F069FED648C7
:1004700017F0EEFB7878002865D01A9C002C03D585
:100480002D2016F09FFC6442D049204617F096F9C3
:10049000084601250199049505916A1E06920A22D3
:1004A00003920746019E334618F018F804460D469D
:1004B000039A334617F0E2FD381A302318433CA95B
:1004C000069A5054039705990A3F0846B0413ED317
:1004D0000A220E460027204629461C463B4617F0B6
:1004E000FDFF234622433CA8049C0255069911298E
:1004F0002546039A2DD8104664383046B84128D393
:10050000174664220024384631460293234617F0EA
:10051000E5FF0A22234617F0E1FF029802433CA8B8
:10052000401942707D20C20038463146234617F0FC
:10053000D5FFED1C069A102A03D8A54AD21BB44158
:10054000A9D36D1E06E0A34817F082FB39E0049D95
:1005500000E06D1C2F46681E0321069017F02EF94F
:10056000481C032812D00446032812D03CA8861E3B
:10057000F019407816F026FC012C0CD0BD1EF05D61
:1005800016F020FCA41E2F46F2D105E0002403281B
:10059000ECD13D4600E07D1E0698022810D36C4247
:1005A0003CA82818C51EA87816F00CFC687816F030
:1005B00009FC287816F006FCE41CED1E002CF2D194
:1005C000009F854817F044FBB878002866D01B9C34
:1005D000002C03D52D2016F0F5FB64427B49204604
:1005E00017F0ECF8084600210125019104950591CA
:1005F0006A1E06920A2203920746019E334617F0AE
:100600006DFF04460D46039A334617F037FD381A3E
:10061000302318433CA9069A5054039705990A3F82
:100620000846B0413ED30A220E46002720462946FE
:100630001C463B4617F052FF234622433CA8049C2D
:100640000255069911292546039A2DD8104664387B
:100650003046B84128D31746642200243846314634
:100660000293234617F03AFF0A22234617F036FF7B
:10067000029802433CA8401942707D20C2003846CF
:100680003146234617F02AFFED1C069A102A03D89C
:100690004F4AD21BB441A9D36D1E06E04D4817F056
:1006A000D7FA39E0049D00E06D1C2F46681E032137
:1006B000069017F083F8481C032812D0044603283C
:1006C00012D03CA8861EF019407816F07BFB012C56
:1006D0000CD0BD1EF05D16F075FBA41E2F46F2D1A6
:1006E00005E000240328ECD13D4600E07D1E06987D
:1006F000022810D36C423CA82818C51EA87816F012
:1007000061FB687816F05EFB287816F05BFBE41C52
:10071000ED1E002CF2D1009F0620002117F010FDE5
:10072000F87A032804D0022805D12C4800F0AEFF47
:100730002B4800F0ABFFB87A032802D0294800F01C
:10074000A5FF294800F0A2FF224817F081FAD3E064
:10075000787A002800D124E300200090014617F0A9
:10076000EFFC224817F074FAF87B401EC0B2022852
:1007700000D92BE380001E49085828E3059E00E0BD
:10078000761C701E0321069017F018F8481C0328E9
:1007900014D00446032814D03CA83746861EF0190E
:1007A000407816F00FFB012C00D18FE0BD1EF05DEC
:1007B00016F008FBA41E2F46F1D188E00024032880
:1007C000EAD1354683E0C046B693010040420F00AF
:1007D000E7030000018F0100A6920100848C010054
:1007E000C88C0100298D0100958C010098910100B1
:1007F000A48D0100F94817F02BFAF94817F028FAF0
:10080000089C002C03D52D2016F0DCFA6442F54933
:10081000204616F0D3FF084601250399029504915E
:100820006A1E05920A2206920646039C234617F08A
:1008300055FE07460D46069A234617F01FFC301A50
:10084000302420433CA9059A5054019604980A3E4E
:10085000039A9041069400D20CE10A220026384601
:100860002946334617F03AFE22433CA8029BC25465
:10087000059911291D46019C00D9FDE020466438E8
:100880000498B04100D2F7E0642200272046049E7D
:1008900031463B4617F022FE0A223B4617F01EFE69
:1008A000069802433CA8401942707D20C2002046B1
:1008B00031463B4617F012FEED1C059A102A03D86C
:1008C000C94A121BB741A9D36D1ED6E07D1E0698FA
:1008D000022810D36C423CA82818C51EA87816F030
:1008E00071FA687816F06EFA287816F06BFAE41C44
:1008F000ED1E002CF2D1009FBC4817F0A9F9B87882
:10090000002866D01B9C002C03D52D2016F05AFA27
:100910006442B449204616F051FF084600210125E3
:100920000191049505916A1E06920A2203920746D8
:10093000019E334617F0D2FD04460D46039A334616
:1009400017F09CFB381A302318433CA9069A5054E0
:10095000039705990A3F0846B0413ED30A220E4646
:100960000027204629461C463B4617F0B7FD234684
:1009700022433CA8049C0255069911292546039A56
:100980002DD8104664383046B84128D31746642223
:100990000024384631460293234617F09FFD0A2271
:1009A000234617F09BFD029802433CA84019427071
:1009B0007D20C20038463146234617F08FFDED1CDE
:1009C000069A102A03D8884AD21BB441A9D36D1EB7
:1009D00006E0874817F03CF939E0049D00E06D1C03
:1009E0002F46681E0321069016F0E8FE481C0328D7
:1009F00012D00446032812D03CA8861EF019407875
:100A000016F0E0F9012C0CD0BD1EF05D16F0DAF9FD
:100A1000A41E2F46F2D105E000240328ECD13D4668
:100A200000E07D1E0698022810D36C423CA82818CE
:100A3000C51EA87816F0C6F9687816F0C3F92878AC
:100A400016F0C0F9E41CED1E002CF2D1009F062028
:100A5000002117F075FBF879002802D0654800F0F6
:100A600015FE7879002802D0634800F00FFE634835
:100A700000F00CFE029D00E06D1C2E46681E032156
:100A8000059016F09BFE481C032803D0054603285A
:100A900003D114E00025032811D03CA8841E37465A
:100AA000E019407816F08EF9012D07D0BE1EE05DEA
:100AB00016F088F9AD1E3746F2D100E07E1E05988B
:100AC000022810D374423CA83018C51EA87816F02E
:100AD00079F9687816F076F9287816F073F9E41C3D
:100AE000ED1E002CF2D104200021039117F028FB09
:100AF000434817F0ADF8099C002C03D52D2016F0C3
:100B000061F964423749204616F058FE084601252F
:100B10000399029504916A1E05920A2201920646E3
:100B2000039C234617F0DAFC07460D46019A23463C
:100B300017F0A4FA301A069C20433CA9059A505499
:100B4000019604980A3E039A904136D30A22002661
:100B500038462946334617F0C1FC22433CA8029B85
:100B6000C254059911291D46019C28D82046643895
:100B70000498B04123D3642200272046049E3146C6
:100B80003B4617F0ABFC0A223B4617F0A7FC069841
:100B900002433CA8401942707D20C20020463146E5
:100BA0003B4617F09BFCED1C059A102A03D80E4A11
:100BB000121BB741ADD36D1E02E0029D00E06D1C1B
:100BC0002E46681E0321059016F0F8FD481C0328E8
:100BD00018D00546032818D129E0C046FC91010031
:100BE0004A93010040420F00E7030000A692010073
:100BF000018F01004C8C0100EC8D0100378D01004C
:100C0000F89301000025032811D03CA8841E374624
:100C1000E019407816F0D6F8012D07D0BE1EE05D31
:100C200016F0D0F8AD1E3746F2D100E07E1E0598D2
:100C3000022810D374423CA83018C51EA87816F0BC
:100C4000C1F8687816F0BEF8287816F0BBF8E41CF6
:100C5000ED1E002CF2D1EE4816F0FAFF0A9C002C93
:100C600003D52D2016F0AEF86442EA49204616F06E
:100C7000A5FD0846002101250391029504916A1EF5
:100C800005920A2201920646039C234617F026FC91
:100C900007460D46019A234617F0F0F9301A069CD4
:100CA00020433CA9059A5054019604980A3E039AA1
:100CB000904136D30A22002638462946334617F09B
:100CC0000DFC22433CA8029BC254059911291D46E4
:100CD000019C28D8204664380498B04123D364226C
:100CE00000272046049E31463B4617F0F7FB0A22B8
:100CF0003B4617F0F3FB069802433CA840194270AC
:100D00007D20C200204631463B4617F0E7FBED1C34
:100D1000059A102A03D8C04A121BB741ADD36D1EE5
:100D200002E0029D00E06D1C2E46681E0321069025
:100D300016F044FD481C032803D00546032803D1C0
:100D400014E00025032811D03CA8841E3746E01982
:100D5000407816F037F8012D07D0BE1EE05D16F082
:100D600031F8AD1E3746F2D100E07E1E069802280B
:100D700010D374423CA83018C51EA87816F022F88B
:100D8000687816F01FF8287816F01CF8E41CED1EA1
:100D9000002CF2D10620002117F0D2F99F4800F074
:100DA00075FC387A002800D1D9E30020014617F0FD
:100DB000C7F99B4816F04CFF787B401EC0B2042850
:100DC00000D9DFE3800097490858DCE3964816F025
:100DD0003FFF964816F03CFF239D012400990491A3
:100DE000601E05900A2206922846009E334617F0A0
:100DF00075FB07460291069A334617F03FF9281A09
:100E00002246302420433CA9059B585403950A3DB3
:100E100004980546B041069436D301920A22002672
:100E200038460299334617F059FB22433CA8019CEF
:100E3000025505991129039828D80246643A2A4692
:100E4000B24123D364220027294606463B4617F0C9
:100E500045FB0A223B4617F041FB069802433CA89B
:100E6000001942707D20C200304629463B4617F0EB
:100E700035FBE41C059A102A04D8674A921BAF413F
:100E80000546ACD3641E02E0144600E0641C26460E
:100E9000601E0321059016F091FC481C032801D028
:100EA000054600E00025032811D03CA8841E3746E3
:100EB000E019407815F086FF012D07D0BE1EE05DD9
:100EC00015F080FFAD1E3746F2D100E07E1E05987A
:100ED000022810D374423CA83018C51EA87815F01B
:100EE00071FF687815F06EFF287815F06BFFE41C31
:100EF000ED1E002CF2D102200021039117F020F901
:100F00004B4816F0A5FE199C002C03D52D2015F09A
:100F100059FF64423F49204616F050FC084601251F
:100F20000399029504916A1E05920A2201920646CF
:100F3000039C234617F0D2FA07460D46019A234632
:100F400017F09CF8301A069C20433CA9059A50548F
:100F5000019604980A3E039A904136D30A2200264D
:100F600038462946334617F0B9FA22433CA8029B7B
:100F7000C254059911291D46019C28D82046643881
:100F80000498B04123D3642200272046049E3146B2
:100F90003B4617F0A3FA0A223B4617F09FFA069841
:100FA00002433CA8401942707D20C20020463146D1
:100FB0003B4617F093FAED1C059A102A03D8164AFF
:100FC000121BB741ADD36D1E02E0029D00E06D1C07
:100FD0002E46681E0321059016F0F0FB481C0328DE
:100FE00001D0054600E00025032824D03CA8841E3B
:100FF0003746E019407815F0E5FE012D1AD0BE1EE7
:10100000E05D15F0DFFEAD1E3746F2D113E0C046BD
:101010003E91010040420F00E7030000B68E010040
:10102000F08F0100FC8B0100A791010032930100B9
:10103000FE9301007E1E0598022810D374423CA83E
:101040003018C51EA87815F0BDFE687815F0BAFEF8
:10105000287815F0B7FEE41CED1E002CF2D1E34811
:1010600016F0F6FD289C002C03D52D2015F0AAFEC5
:101070006442DF49204616F0A1FB08460021012505
:101080000391029504916A1E05920A220192064676
:10109000039C234617F022FA07460D46019A234681
:1010A00016F0ECFF301A069C20433CA9059A5054D8
:1010B000019604980A3E039A904136D30A220026EC
:1010C00038462946334617F009FA22433CA8029BCA
:1010D000C254059911291D46019C28D82046643820
:1010E0000498B04123D3642200272046049E314651
:1010F0003B4617F0F3F90A223B4617F0EFF9069842
:1011000002433CA8401942707D20C200204631466F
:101110003B4617F0E3F9ED1C059A102A03D8B54AAF
:10112000121BB741ADD36D1E02E0029D00E06D1CA5
:101130002E46681E0321059016F040FB481C03282C
:1011400001D0054600E00025032811D03CA8841EEC
:101150003746E019407815F035FE012D07D0BE1E48
:10116000E05D15F02FFEAD1E3746F2D100E07E1E89
:101170000598022810D374423CA83018C51EA878E0
:1011800015F020FE687815F01DFE287815F01AFE7F
:10119000E41CED1E002CF2D104200021039116F076
:1011A000CFFF954816F054FD099C002C03D52D2047
:1011B00015F008FE64428E49204616F0FFFA0846F4
:1011C00001250399029504916A1E05920A22019253
:1011D0000646039C234617F081F907460D46019AFF
:1011E000234616F04BFF301A069C20433CA9059A73
:1011F0005054019604980A3E039A904136D30A222D
:10120000002638462946334617F068F922433CA8A1
:10121000029BC254059911291D46019C28D82046DD
:1012200064380498B04123D3642200272046049EEA
:1012300031463B4617F052F90A223B4617F04EF969
:10124000069802433CA8401942707D20C200204607
:1012500031463B4617F042F9ED1C059A102A03D897
:10126000644A121BB741ADD36D1E02E0029D00E03F
:101270006D1C2E46681E0321059016F09FFA481C2F
:10128000032801D0054600E00025032811D03CA822
:10129000841E3746E019407815F094FD012D07D0E3
:1012A000BE1EE05D15F08EFDAD1E3746F2D100E0AA
:1012B0007E1E0598022810D374423CA83018C51E23
:1012C000A87815F07FFD687815F07CFD287815F07A
:1012D00079FDE41CED1E002CF2D1484816F0B8FC54
:1012E000299C002C03D52D2015F06CFD644240494B
:1012F000204616F063FA0846002101250391029565
:1013000004916A1E05920A2201920646039C234616
:1013100017F0E4F807460D46019A234616F0AEFE94
:10132000301A069C20433CA9059A50540196049813
:101330000A3E039A904136D30A22002638462946AF
:10134000334617F0CBF822433CA8029BC2540599C0
:1013500011291D46019C28D8204664380498B041C4
:1013600023D3642200272046049E31463B4617F0D3
:10137000B5F80A223B4617F0B1F8069802433CA89C
:10138000401942707D20C200204631463B4617F08E
:10139000A5F8ED1C059A102A03D8F04A121BB74194
:1013A000ADD36D1E02E0029D00E06D1C2E46681E4E
:1013B0000321059016F002FA481C032801D00546C7
:1013C00000E0002503281CD03CA8841E3746E01905
:1013D000407815F0F7FC012D12D0BE1EE05D15F02F
:1013E000F1FCAD1E3746F2D10BE0C04686930100FA
:1013F00040420F00E7030000F893010056930100FC
:101400007E1E0598022810D374423CA83018C51ED1
:10141000A87815F0D7FC687815F0D4FC287815F07A
:10142000D1FCE41CED1E002CF2D106200024214644
:1014300016F086FED44816F00BFC07A8808E012516
:1014400003942146029504916A1E05920A22019294
:101450000646039C234617F041F807460D46019ABD
:10146000234616F00BFE301A069C20433CA9059A31
:101470005054019604980A3E039A904136D30A22AA
:10148000002638462946334617F028F822433CA860
:10149000029BC254059911291D46019C28D820465B
:1014A00064380498B04123D3642200272046049E68
:1014B00031463B4617F012F80A223B4617F00EF869
:1014C000069802433CA8401942707D20C200204685
:1014D00031463B4617F002F8ED1C059A102A03D856
:1014E0009E4A121BB741ADD36D1E02E0029D00E083
:1014F0006D1C2E46681E0321069016F05FF9481CED
:10150000032801D0054600E00025032811D03CA89F
:10151000841E3746E019407815F054FC012D07D0A1
:10152000BE1EE05D15F04EFCAD1E3746F2D100E068
:101530007E1E0698022800D2A7E074423CA830180C
:10154000C51EA87815F03EFC687815F03BFC28789D
:1015500015F038FCE41CED1E002CF2D195E02C783F
:101560000020014616F0ECFD002C4ED08A4816F003
:101570006FFB2879401EC0B2032852D880008749EB
:1015800008584FE0724816F063FB202015F01AFC53
:10159000304616F05DFB02200024214616F0D0FDF7
:1015A0006F4816F055FB1998C11710F085FE754865
:1015B00016F04EFB2498C11710F07EFE0420214641
:1015C00016F0BEFD674816F043FB1C98C11710F0DB
:1015D00073FE654816F03CFB1D98C11710F06CFEB9
:1015E0000620214616F0ACFD634816F031FB099841
:1015F000C11710F061FE664816F02AFB07A8808E1E
:10160000214611F06DFB634840E0584816F020FB7E
:10161000387B401EC0B202283CD880004E49085892
:1016200039E04B4816F014FB02200024214616F046
:1016300087FD534816F00CFB0898C11710F03CFECC
:10164000504816F005FB0798C11710F035FE04202E
:10165000214616F075FD484816F0FAFA0998C117A8
:1016600010F02AFE454816F0F3FA0A98C11710F058
:1016700023FE0620214616F063FD434816F0E8FAE3
:1016800007A8808E214611F02BFB404816F0E0FAA7
:1016900041B0F0BD2F4816F0DBFA364816F0D8FA04
:1016A0003878199910F058FD202015F08BFB304642
:1016B00016F0CEFA02200025294616F041FD3848E2
:1016C00016F0C6FA2F98C11710F0F6FD354816F03F
:1016D000BFFA3799369810F0EFFD0420294616F02E
:1016E0002FFD204816F0B4FA78781A9910F034FDDE
:1016F0001D4816F0ADFAB8781B9910F02DFD0620A4
:10170000294616F01DFD787B04280DD005280DD143
:10171000264816F09DFAB87B401EC0B2062811D8A4
:101720008000234908580EE01F48AFE7F97B2248A4
:101730000329ABD1397C0629A8D0204816F088FAB5
:10174000387CE9E70A4816F083FA1A489EE7C04653
:10175000A7910100018F0100B08D0100E703000097
:1017600011910100B6930100A692010019940100A5
:10177000FC9101004A930100F89301003E910100A1
:10178000FE93010086930100E0930100948F010015
:10179000E2920100638F0100D48E0100DC8C010015
:1017A00042920100AA920100B78C01002C90010026
:1017B000388B0100C08E0100A68C0100A28F0100B1
:1017C000F0B5C9B00B9105460EA844210170422125
:1017D0004170472181702C22C27052210171582121
:1017E00041710A92827174210491C1713D21059168
:1017F0000172002D40D0002401210A220C922646BD
:101800000D91144628460C9F394615F0D7FF234604
:1018100039460D9F4143691A30220A43741C46A978
:101820008A55082E04D8791C5A1C092D0546E6D87D
:101830000C930321304615F0C1FF4B1C032B20D025
:101840001846022E20D30D9346AAD31E251A002235
:101850001E19B7780EA989184F7276788E721E5DA0
:10186000CE72D21CDB1E9542F2D1A71A09320C9916
:101870000D9B032B0CD11BE00EA8302141720A21D5
:1018800016E00020022EDED209220C99032B0FD085
:101890000EA9891846AABA18921E53780B7001280F
:1018A00005D013784B70891C921E801EF5D10C99BF
:1018B0000C46CBB20EA8C1180A9AC25465224A70CF
:1018C0007620029088700392CA706E200190087191
:1018D000049848710598887154200B99085C0D286C
:1018E00003D88000EB49085800E0EB48E11D05787B
:1018F000002D24D00D900846C9B20EAAD2180C9221
:10190000D924E31A0024A3421BD00D9A16190C9A6D
:101910001719FD717578002D19D04A1CE02A10D0D6
:101920003D72B578002D14D08A1CE02A09D0C91C5C
:10193000C01C7D72F578E41C002DE4D10AE0084655
:1019400008E00B980568E027002D21D1BDE0401C80
:1019500000E0801C0746C1B2E029084600D8E0201C
:101960004A09062A10D84B1C0EAA0A9C54548342DA
:1019700001D11F4608E08A1C0EAC6225E554824264
:1019800001D000F09BFE17460B980568002D34D05F
:101990000D970124671E0A262846314615F00EFFD2
:1019A0004643A91B3026314346AAB954082F2FD8E5
:1019B0000A2D2DD30A2115F001FF314346A8015508
:1019C000072F24D8642D22D36421284615F0F6FE73
:1019D0000A2115F0F3FE314346A8001941707D201D
:1019E000C100284615F0EAFEE41C062F03D8AB49D7
:1019F0008D420546CED8641E0AE0F8B24109062998
:101A000063D87F1C0D970EA930220A5443E0641C52
:101A10000D98C3B2E02B184600D8E0200EA9C918D3
:101A2000C21A951E07950693181A401C099046A8DD
:101A3000C71EA01E0890601E0C900026B2421BD04C
:101A40003D19A87888550C98B04218D0099880198B
:101A500017D068788D1968700898B04215D007982B
:101A6000B04214D0385D0D9BDB1C0D93A870F61CA2
:101A7000FF1EB442E2D10EE0069880190AE00D98EC
:101A800001E006988019401C04E00D9801E00698DA
:101A90008019801C0D900D9FF9B2E029084600D8EE
:101AA000E0204A09062A10D84B1C0EAA0A9C54545E
:101AB000834201D11F4608E08A1C0EAC7025E55414
:101AC000824201D000F0D0FD17460B980569002D29
:101AD00036D00D97F8B206900124671E0A262846D4
:101AE000314615F06BFE4643A91B3026314346AA0A
:101AF000B954082F2FD80A2D2DD30A2115F05EFED8
:101B0000314346A80155072F24D8642D22D36421E0
:101B1000284615F053FE0A2115F050FE314346A821
:101B2000001941707D20C100284615F047FEE41CD5
:101B3000062F03D859498D420546CED8641E0AE0C7
:101B4000F8B24109072960D27F1C0D970EA93022F7
:101B50000A5441E0641C069AE02A00D8E0220EA84C
:101B6000069BC018D11A8D1E07959A1A521C09920D
:101B700046AAD61EA21E0892621E0C920025A942F9
:101B80001BD033199F7847550C9AAA4218D0099A4E
:101B9000571917D05F7843195F70089AAA4215D079
:101BA000079AAA4214D0375D0D9AD21C0D929F70ED
:101BB000ED1CF61EAC42E2D10EE0069840190AE098
:101BC0000D9801E006984019401C04E00D9801E0D2
:101BD00006984019801C0D900D9FF8B2E028014630
:101BE00000D8E0214209062A0FD8431C0EAA0A9CFD
:101BF00014548B4201D11F4607E0821C0EAC6125B4
:101C0000E5548A4200D089E017460B984569002DBB
:101C100036D00D97F8B206900124671E0A26284692
:101C2000314615F0CBFD4643A91B3026314346AA69
:101C3000B954082F35D80A2D33D30A2115F0BEFD2B
:101C4000314346A80155072F2AD8642D28D3642193
:101C5000284615F0B3FD0A2115F0B0FD314346A822
:101C6000001941707D20C100284615F0A7FDE41C35
:101C7000062F03D809498D420546CED8641E10E0D0
:101C8000F8B24109072976D27F1C0D970EA93022A0
:101C90000A5457E0188A01004C8F0100E703000046
:101CA000641C069AE02A00D8E0220EA8069BC01801
:101CB000D11A8D1E07959A1A521C099246AAD61E51
:101CC000A21E0892621E0C920025A9421BD0331955
:101CD0009F7847550C9AAA4218D0099A571917D0DD
:101CE0005F7843195F70089AAA4215D0079AAA42F2
:101CF00024D0375D0D9AD21C0D929F70ED1CF61EFC
:101D0000AC42E2D11EE0069840191AE00D9801E0BD
:101D100006984019401C14E00D9811E0C31C0EAC4D
:101D20006325A5548B4200D165E7041D0EAAD55446
:101D30008C4201D000F0D3FC274666E70698401994
:101D4000801C0D900D9FF8B2E028014600D8E021DC
:101D50004209062A0FD8421C0EAB0A9C1C548A4228
:101D600001D1174607E0831C0EAC6C25A5548B42AD
:101D700000D083E01F460B98056A002D36D00D97E2
:101D8000F8B206900124671E0A262846314615F04F
:101D900015FD4643A91B3026314346AAB954082FE6
:101DA0002FD80A2D2DD30A2115F008FD314346A85E
:101DB0000155072F24D8642D22D36421284615F01D
:101DC000FDFC0A2115F0FAFC314346A800194170C8
:101DD0007D20C100284615F0F1FCE41C062F03D835
:101DE000E9498D420546CED8641E0AE0F8B24109A1
:101DF000072971D27F1C0D970EA930220A5452E098
:101E0000641C069AE02A00D8E0220EA8069BC0189F
:101E1000D11A8D1E07959A1A521C099246AAD61EEF
:101E2000A21E0892621E0C920025A9421BD03319F3
:101E30009F7847550C9AAA4218D0099A571917D07B
:101E40005F7843195F70089AAA4215D0079AAA4290
:101E500025D0375D0D9AD21C0D929F70ED1CF61E99
:101E6000AC42E2D11FE0069840191BE00D9801E05A
:101E700006984019401C15E00D9812E0C21C0EACEB
:101E8000039DE5548A4200D16BE7001D0EAB019C17
:101E90009C54884201D000F04CFC07466BE7069842
:101EA0004019801C0D900D9FF8B2E028014600D823
:101EB000E0214209062A0FD8441C0EAA0A9B13549B
:101EC0008C4201D1274607E0831C0EAD63222A55C0
:101ED0008B4200D083E01F460B98456A002D36D018
:101EE0000D97F8B206900124671E0A26284631464F
:101EF00015F064FC4643A91B3026314346AAB95469
:101F0000082F2FD80A2D2DD30A2115F057FC314365
:101F100046A80155072F24D8642D22D364212846D2
:101F200015F04CFC0A2115F049FC314346A8001974
:101F300041707D20C100284615F040FCE41C062FAE
:101F400003D891498D420546CED8641E0AE0F8B206
:101F5000410907296FD27F1C0D970EA930220A5420
:101F600050E0641C069AE02A00D8E0220EA8069BE6
:101F7000C018D11A8D1E07959A1A521C099246AAAA
:101F8000D61EA21E0892621E0C920025A9421BD0EA
:101F900033199F7847550C9AAA4218D0099A5719B5
:101FA00017D05F7843195F70089AAA4215D0079A34
:101FB000AA4223D0375D0D9AD21C0D929F70ED1C62
:101FC000F61EAC42E2D11DE00698401919E00D98CA
:101FD00001E006984019401C13E00D9810E0C41C65
:101FE0000EAD7226EE548C4200D16BE7001D0EAB95
:101FF0001A55884200D0A2E307466DE706984019BB
:10200000801C0D900D9FF9B2E029084600D8E02011
:102010004A09062A0FD84B1C0EAA0A9C5454834224
:1020200001D11F4607E08A1C0EAC6625E5548242AA
:1020300000D083E017460B98856B002D36D00D97A6
:10204000F8B206900124671E0A262846314615F08C
:10205000B5FB4643A91B3026314346AAB954082F85
:102060002FD80A2D2DD30A2115F0A8FB314346A8FD
:102070000155072F24D8642D22D36421284615F05A
:102080009DFB0A2115F09AFB314346A800194170C7
:102090007D20C100284615F091FBE41C062F03D8D3
:1020A00039498D420546CED8641E0AE0F8B241098E
:1020B000072973D27F1C0D970EA930220A5451E0D4
:1020C000641C069AE02A00D8E0220EA8069BC018DD
:1020D000D11A8D1E07959A1A521C099246AAD61E2D
:1020E000A21E0892621E0C920025A9421BD0331931
:1020F0009F7847550C9AAA4218D0099A571917D0B9
:102100005F7843195F70089AAA4215D0079AAA42CD
:1021100024D0375D0D9AD21C0D929F70ED1CF61ED7
:10212000AC42E2D11EE0069840191AE00D9801E099
:1021300006984019401C14E00D9811E0CB1C0EAC21
:102140006925A554834200D16BE70C1D0EAA039D9F
:10215000D554844200D0F8E227466CE7069840192F
:10216000801C0D900D9FF9B2E029084600D8E020B0
:102170004A09062A12D84B1C0EAA0A9C54548342C0
:1021800004D11F460AE0C046E70300008A1C0EACDB
:102190006425E554824200D083E017460B98C56B56
:1021A000002D36D00D97F8B206900124671E0A263E
:1021B0002846314615F002FB4643A91B3026314321
:1021C00046AAB954082F2FD80A2D2DD30A2115F06D
:1021D000F5FA314346A80155072F24D8642D22D3A0
:1021E0006421284615F0EAFA0A2115F0E7FA31438E
:1021F00046A8001941707D20C100284615F0DEFA7E
:10220000E41C062F03D8F2498D420546CED8641E41
:102210000AE0F8B24109072970D27F1C0D970EA978
:1022200030220A5451E0641C069AE02A00D8E022C9
:102230000EA8069BC018D11A8D1E07959A1A521C1B
:10224000099246AAD61EA21E0892621E0C92002572
:10225000A9421BD033199F7847550C9AAA4218D02F
:10226000099A571917D05F7843195F70089AAA42E4
:1022700015D0079AAA4224D0375D0D9AD21C0D9230
:102280009F70ED1CF61EAC42E2D11EE0069840198C
:102290001AE00D9801E006984019401C14E00D98D2
:1022A00011E0CB1C0EAC7525A554834200D168E724
:1022B000091D0EAA7024D454814200D054E20F4666
:1022C0006CE706984019801C0D900D9FF9B2E0292B
:1022D000084600D8E0204A09062A0FD84B1C0EAA4F
:1022E0000A9C5454834201D11F4607E08A1C0EAC5D
:1022F0006F25E554824200D083E017460B98056CA9
:10230000002D36D00D97F8B206900124671E0A26DC
:102310002846314615F052FA4643A91B3026314370
:1023200046AAB954082F2FD80A2D2DD30A2115F00B
:1023300045FA314346A80155072F24D8642D22D3EE
:102340006421284615F03AFA0A2115F037FA31438C
:1023500046A8001941707D20C100284615F02EFACC
:10236000E41C062F03D89A498D420546CED8641E38
:102370000AE0F8B24109072970D27F1C0D970EA917
:1023800030220A5451E0641C069AE02A00D8E02268
:102390000EA8069BC018D11A8D1E07959A1A521CBA
:1023A000099246AAD61EA21E0892621E0C92002511
:1023B000A9421BD033199F7847550C9AAA4218D0CE
:1023C000099A571917D05F7843195F70089AAA4283
:1023D00015D0079AAA4224D0375D0D9AD21C0D92CF
:1023E0009F70ED1CF61EAC42E2D11EE0069840192B
:1023F0001AE00D9801E006984019401C14E00D9871
:1024000011E0CB1C0EAC6C25A554834200D16BE7C8
:10241000091D0EAA6424D454814200D0A9E10F46BC
:102420006CE706984019801C0D900D9FF9B2E029C9
:10243000084600D8E0204A09062A0FD84A1C0EABED
:102440000A9C5C54824201D1174607E08B1C0EACFB
:102450006F25A554834200D083E01F460B98446843
:10246000002C34D00D970126771E0A2520462946D8
:1024700015F0A4F94543611B3025294346AAB954F8
:10248000082F2FD80A2C2DD30A2115F097F92943AC
:1024900046A88155072F24D8642C22D364212046D6
:1024A00015F08CF90A2115F089F9294346A88019FD
:1024B00041707D20C100204615F080F9F61C062FE2
:1024C00003D8C5498C420446CED8761E0AE0F8B23D
:1024D000410907296AD27F1C0D970EA930220A54A0
:1024E00053E0761C0D98C3B2E02B184600D8E020CC
:1024F0000EA9C918C21A941E09940893181A401CF0
:102500000B9046A8C71EB01E0A90701E0C900025A6
:10251000AA421BD0BC19A07848550C98A84218D0E4
:102520000B98401917D060784C1960700A98A8422F
:1025300015D00998A84224D0B85D0D9BDB1C0D93E3
:10254000A070ED1CFF1EAE42E2D11EE008984019BB
:102550001AE00D9801E008984019401C14E00D980D
:1025600011E0CA1C0EAC029DE554824200D16BE71B
:10257000091D0EAB66249C54814200D0FEE00F463C
:102580006CE708984019801C0D900D9FF9B248091E
:1025900006280BD8481C0EAA0D235354E02801D15D
:1025A000E02703E0BF1C0EA90A220A548B4DFFB29C
:1025B0008B4800888B4E3188C94340182840B84268
:1025C00008D28A488169491C816149B0F0BDC04682
:1025D000E70300007C1E0321204615F0EFF84A1C9B
:1025E0000021032A084600D010460C92022C20D36A
:1025F000391A0D9100217C4C0EAA5718525C2B46BB
:10260000358862553288521C1A4032807A78358873
:1026100062553288521C1A403280BA783588625529
:102620001D463288521C1A403280C91C0D9A8A42BB
:10263000E2D10C9A032A15D00EAA51186A4A0B78D7
:102640003488135533885B1C2B403380012809D014
:102650004B783488135533885B1C2B403380891C9E
:10266000801EECD149B0F0BDCB1C0EAC6125A55449
:10267000834201D1FFF71EFA0A1D0EAC7225E55404
:10268000824201D1FFF720FA4B1D0EAC7325A554F1
:10269000834201D1FFF70EFA8A1D0EAC039DE5546B
:1026A000824201D1FFF710FAC91D0EAB64249C547D
:1026B000814200D083E00F46FFF707FACB1C0EAC37
:1026C0007925A554834201D1FFF753F90C1D0EAAB9
:1026D000049DD554844256D12746FFF755F9421D33
:1026E0000EAB039D1D558A4201D1FFF78DFA831D64
:1026F0000EAC7025A5548B4201D1FFF77CFAC41DA6
:102700000EAA049DD5548C4201D1FFF715FB024659
:1027100008320EAB039D1D558A4201D1FFF774FAB2
:1027200009300EAB64249C5488424ED10746FFF713
:102730006CFA7F1D0EA9059A0A54FFF71CFB7F1D3A
:102740000EA9059A0A54FFF7C7FB4A1D0EAB6C256C
:102750001D55824200D16DE4891D0EAB64249C544A
:10276000814221D10F4666E47F1D0EA8059A42548E
:1027700014E57F1D0EA8059A4254BFE57F1D0EA8E3
:10278000059A42546AE64A1D0EAB039D1D558242CE
:1027900001D1FFF7F8F8891D0EAB73249C548142D8
:1027A00007D10F46FFF7F0F8FF1D0EA8059A425417
:1027B00041E4FF1D0EA8059A4254FFF7E5F80837DB
:1027C0000EA8059A4254FFF780F90A370EA9059A18
:1027D0000A54FFF71AFAC046E7030000FF0700009B
:1027E0002A19202028192020000020202817202026
:1027F000F0B5D3B00C930D4604461192D069211A5E
:102800000D910026F14300280B4600D00D9BA848EF
:102810008268A01A0292002A00D001460A910B9009
:1028200014A84421017042214170472181702C225B
:10283000C27043210171542107914171522181716C
:102840004C21C171129202727421039141723D2197
:1028500009918172002C049406933CD00F950121BC
:102860000C223546139117460A262046314614F0AD
:10287000A5FF139B4643A11B30220A436E1C50A99F
:102880004A55082D04D8591C7A1C092C0446E8D84E
:102890001C4610970321284614F090FF4F1C032F6D
:1028A0001ED03846022D1ED3139750AAD31E341AB9
:1028B00000229D19AF7814A98918CF726D780D7315
:1028C0009D5D4D73D21CDB1E9442F2D1B31A0B32C4
:1028D0001099139F0AE014A83021C1720C2118E04E
:1028E0000020022DE0D223460B221099032F0F9DCA
:1028F0000FD014A9891850AA9A18921E53780B70F9
:10290000012805D013784B70891C921E801EF5D1CA
:1029100010990C46C8B214A90A18129B0B546F21C7
:1029200051706C210191917064210091D1700999CD
:102930001171072D03D8A9005E4A525800E05E4A83
:1029400011993C311191611D1778002F2AD0CBB21B
:1029500014AC24180F94EB24201A10900026F020B9
:10296000109CB442139037D094190F9DAD196F711C
:102970006778002F13D010465A1CF02A2CD0AF7164
:10298000A778002F0DD09A1CF02A25D0DB1CC91C7B
:10299000EF71E778F61C002F0246E0D102E0491CF7
:1029A00000E0891CCBB2F02B1A4600D8F02218099F
:1029B0000E2801D913910FE0581C14AC129DE55458
:1029C000904201D1139007E09C1C14AD6E262E544A
:1029D000944200D095E013941199897807290591C4
:1029E00003D88900334A525800E0334A117800294D
:1029F00013982FD0C3B2F02B1D4600D8F02514AC8D
:102A0000E4180895ED1AAB1E0E9310956B1E0F93EC
:102A10000023109D9D4218D0D618E1547778002FDE
:102A200015D00F99994210D0E1184F70B778002F48
:102A30000FD015460E9A9A4207D0C01C8F70F178BD
:102A4000DB1C00292A46E4D104E0089802E0401C7F
:102A500000E0801C589908910599052900D0B9E03B
:102A6000C2B2F02A114600D8F02113090E2B0FD85C
:102A7000541C14AB129D9D548C4201D1204607E09A
:102A8000931C14AD63262E558B4200D080E018466F
:102A9000049C1199497804290B9B49D8074DC046DD
:102AA0007944097949008F440B443F413D00C046B9
:102AB000A8162020188B01004C8F01002C8F0100DC
:102AC000F84D0299002934D0F74AC73A934230D8DA
:102AD0000799089B595C091FC9B20A2905D2F34B13
:102AE000CB40DB0701D000F0FFFD0899896C631A29
:102AF000EF4D93422A4600D8EE4A002919D01546D8
:102B000017E0D81C14AD65262E55904200D159E728
:102B10001B1D14AC77252554934201D000F0C9FD4C
:102B2000139359E7E44D04E0E44D02E0E44D00E086
:102B3000E44D2F78002F4DD01095C1B2F0290B46EF
:102B400000D8F02314AA521813935B1A991E0E9101
:102B5000591E0F910026B34217D010998919975525
:102B60004C78002C33D00F9DB5420ED097197C7055
:102B70008C78002C2DD00E9DB54206D0C01CBC70A8
:102B8000CF78F61C002FE6D124E00B980D9E3DE097
:102B9000D41C14AD6126EE548C4200D16EE7131D97
:102BA00014AD75262E558B4200D170E7541D14AD1F
:102BB0007326EE548C4200D160E7921D14AB65255C
:102BC0001D558A4201D000F0A5FD104660E7401C6B
:102BD00000E0801CC2B2F02A114600D8F02113098F
:102BE0000E2B0D9E01D913900FE0571C14AB129CB5
:102BF0009C548F4201D1139707E0931C14AC6D25B0
:102C0000E5558B4200D017E213930B98069B002BDF
:102C10000BD415D1139EF4B221090F2900D39FE0E4
:102C2000731C14A930220A5580E0139AD0B201090E
:102C30000E2904D8521C139214A92D220A545E4264
:102C400001256F1E0A243046214614F0B7FD444387
:102C5000311B3024214350AAB954082F25D80A2EFD
:102C600023D30A2114F0AAFD214350A84155072F70
:102C70001AD8642E18D36421304614F09FFD0A211F
:102C800014F09CFD214350A8401941707D20C100E3
:102C9000304614F093FDED1C062F03D882498E4276
:102CA0000646CED86D1E00E06D1C13980346C4B2D4
:102CB000F02C204600D8F02014A90919021B961EFA
:102CC0000D960694201A401C0F9050A8C71EA81EEF
:102CD0000E90681E10900026B24219D07C19A07880
:102CE00088551098B04216D00F98801915D060788A
:102CF0008C1960700E98B04213D00D98B04212D06B
:102D0000785DDB1CA070F61CFF1EB542E4D10DE01F
:102D1000069883190AE05B1C08E006988019431C9A
:102D200004E09B1C02E006988019831C1E46D9B261
:102D3000F029084600D8F0200A090E2A0FD84B1CAB
:102D400014AA129C5454834201D11E4607E08A1CE7
:102D500014AC7225E554824200D039E116460B9836
:102D60000A99002902D474D013960AE0F0B201093E
:102D70000E2903D8761C14A92D220A5413960A98FA
:102D8000404201256F1E0A242146064614F016FD16
:102D90004443311B3024214350AAB954082F25D86D
:102DA00033460A2E22D30A2114F008FD214350AAEB
:102DB0005155072F19D83046642E16D3642114F0CC
:102DC000FDFC0A2114F0FAFC214350A8401941707F
:102DD0007D20C100304614F0F1FCED1C062F02D816
:102DE00031498E42CED86D1E00E06D1C139803460B
:102DF000C4B2F02C204600D8F02014A90919021BF7
:102E0000961E0D960B94201A401C0F9050A8C71EBA
:102E1000A81E0E90681E10900026B24222D07C1987
:102E2000A07888551098B0421FD00F9880191ED0F6
:102E300060788C1960700E98B0421CD00D98B0422A
:102E40001BD0785DDB1CA070F61CFF1EB542E4D1E0
:102E500016E0F0B201090F293ED2731C14A93022EA
:102E60000A540DE00B9883190AE05B1C08E00B98EC
:102E70008019431C04E09B1C02E00B988019831C02
:102E80001E46D9B2F029084600D8F0200A090E2AB9
:102E900022D84B1C14AA129C5454834214D11E46AF
:102EA0001AE0C046538D0100E70300000F03000045
:102EB000728C0100968D0100E68E01003C8E0100AF
:102EC000048E01004C8F01008A1C14AC7325E5545C
:102ED000824200D09AE016460C98048A002C36D024
:102EE0001396F0B20B9001277E1E0A252046294634
:102EF00014F064FC4543611B3025294350AAB154AA
:102F0000082E30D80A2C2ED30A2114F057FC29435E
:102F100050A8C155072E25D8642C23D36421204600
:102F200014F04CFC0A2114F049FC294350A8C019A4
:102F300041707D20C100204614F040FCFF1C062E8D
:102F400003D8F9498C420446CED87F1E0BE0F0B27C
:102F500001090F2900D3A5E0761C139614A930228D
:102F60000A5486E07F1C0B9AF02A00D8F02214A89D
:102F70000B9BC018D11A8C1E0D949A1A521C0F92DA
:102F800050AAD51EBA1E0E927A1E10920024A1429B
:102F90001BD0EB199E780655109AA24246D00F9A84
:102FA000161945D05E7803195E700E9AA2425AD067
:102FB0000D9AA24259D0EE5D139AD21C13929E70C4
:102FC000E41CED1EA742E2D153E00B9800194FE03C
:102FD000CB1C14AC7825A554834200D1B5E60A1D5C
:102FE00014AC6125E554824200D1B7E64B1D14AC08
:102FF0006725A554834200D1A7E6891D14AA65243C
:10300000D454814200D074E30E46A8E6CB1C14AC25
:103010006525A554834200D141E7091D14AA7124F6
:10302000D454814200D03FE30E4655E7139801E0A7
:103030000B980019401C1BE0D71C14AC6125E5540B
:103040008F4200D1D7E5131D14AC6725E5558B429F
:1030500000D1D9E5521D14AC6525E5548A4200D053
:103060002EE31392D1E5139801E00B980019801C10
:103070001390139EF0B2F028014600D8F021020907
:103080000E2A0FD8431C14AA129C14548B4201D14F
:103090001E4607E0821C14AC7625E5548A4200D017
:1030A00083E016460C984478002C36D01396F0B284
:1030B0000B9001277E1E0A252046294614F07EFB30
:1030C0004543611B3025294350AAB154082E2FD8FF
:1030D0000A2C2DD30A2114F071FB294350A8C155A5
:1030E000072E24D8642C22D36421204614F066FBDA
:1030F0000A2114F063FB294350A8C01941707D20B8
:10310000C100204614F05AFBFF1C062E03D8934939
:103110008C420446CED87F1E0AE0F0B201090F2986
:103120007ED2761C139614A930220A545FE07F1CCD
:103130000B9AF02A00D8F02214A80B9BC018D11AC1
:103140008C1E0D949A1A521C0F9250AAD51EBA1EAC
:103150000E927A1E10920024A1421BD0EB199E7889
:103160000655109AA24218D00F9A161917D05E78F9
:1031700003195E700E9AA24215D00D9AA24232D067
:10318000EE5D139AD21C13929E70E41CED1EA742B2
:10319000E2D12CE00B98001928E0139801E00B987D
:1031A0000019401C22E013981FE0C31C14AC6125D9
:1031B000A5548B4200D16BE7021D14AC019DE55470
:1031C0008A4200D16DE7431D14AC6925A5548B429A
:1031D00000D15DE7801D14AA009CD454884200D021
:1031E0008DE206465EE70B980019801C1390139E33
:1031F000F1B2F029084600D8F0200A090E2A0FD8AB
:103200004B1C14AA129C5454834201D11E4607E061
:103210008A1C14AC6D25E554824200D086E0164627
:103220000C988478002C36D01396F0B20C900127BD
:103230007E1E0A252046294614F0C0FA4543611B2C
:103240003025294350AAB154082E30D80A2C2ED349
:103250000A2114F0B3FA294350A8C155072E25D8E6
:10326000642C23D36421204614F0A8FA0A2114F018
:10327000A5FA294350A8C01941707D20C1002046FD
:1032800014F09CFAFF1C062E03D834498C420446E5
:10329000CED87F1E0BE0F0B201090F2900D384E0E5
:1032A000761C139614A930220A545DE07F1C0C9AF8
:1032B000F02A00D8F02214A80C9BC018D11A8C1E3A
:1032C0000D949A1A521C0F9250AAD51EBA1E0E9235
:1032D0007A1E10920024A1421BD0EB199E7806554D
:1032E000109AA24218D00F9A161917D05E780319B7
:1032F0005E700E9AA24215D00D9AA24230D0EE5DB9
:10330000139AD21C13929E70E41CED1EA742E2D1C8
:103310002AE00C98001926E0139801E00C98001997
:10332000401C20E013981DE0E7030000CB1C14AC08
:103330006525A554834200D168E70A1D14AC6125B8
:10334000E554824200D16AE7491D14AB73249C54B2
:10335000814200D0BBE10E4662E7C046E7030000B1
:103360000C980019801C1390139EF1B2F0290846A6
:1033700000D8F0200A090E2A17D84A1C14AB129C58
:103380005C54824201D116460FE08B1C14AC7325AD
:10339000A554834201D11E4607E0CC1C14AA039D0C
:1033A000D554844200D062E1264611980478002C5E
:1033B00036D01396F0B20D9001277E1E0A252046C6
:1033C000294614F0FBF94543611B3025294350AAD7
:1033D000B154082E2FD80A2C2DD30A2114F0EEF95F
:1033E000294350A8C155072E24D8642C22D3642128
:1033F000204614F0E3F90A2114F0E0F9294350A81B
:10340000C01941707D20C100204614F0D7F9FF1C7F
:10341000062E03D8C6498C420446CED87F1E0AE049
:10342000F0B201090F2960D2761C139614A930223C
:103430000A5441E07F1C0D9AF02A00D8F02214A80B
:103440000D9BC018D11A8C1E0E949A1A521C109201
:1034500050AAD51EBA1E0F927A1E11920024A142C4
:103460001BD0EB199E780655119AA24218D0109ADB
:10347000161917D05E7803195E700F9AA24215D004
:103480000E9AA24214D0EE5D139AD21C13929E7033
:10349000E41CED1EA742E2D10EE00D9800190AE0EF
:1034A000139801E00D980019401C04E0139801E006
:1034B0000D980019801C1390139EF0B2F02801465D
:1034C00000D8F02102090E2A0FD8441C14AA129B1E
:1034D00013548C4201D1264607E0831C14AD6522AB
:1034E0002A558B4200D0ADE01E4607980899085C2B
:1034F0000D2803D880009049095800E08B490F78C7
:10350000002F2BD03546F0B2F028034600D8F02328
:1035100014AA121810931B1A981E11901393581E78
:10352000129000261398B0421AD088199755447803
:10353000002C17D0129BB34212D097197C7084785C
:10354000002C11D00B461199B14209D0ED1CBC7072
:10355000C778F61C002F1946E4D106E0354604E092
:10356000109B14E06D1C00E0AD1CE9B208090E28A8
:1035700001D92B460BE0481C14AA0D235354F02804
:1035800001D1F02303E0AB1C14A90A220A546B4DAD
:10359000DFB26B4800886B4E3188C9434018284021
:1035A000B84205D269488169491C816153B0F0BDB8
:1035B0007C1E0321204614F001F94A1C0021032A35
:1035C000084600D010461292022C20D3391A1391CB
:1035D00000215D4C14AA5718525C2B463588625561
:1035E0003288521C1A4032807A7835886255328887
:1035F000521C1A403280BA78358862551D4632888E
:10360000521C1A403280C91C139A8A42E2D1129A83
:10361000032A15D014AA51184B4A0B783488135535
:1036200033885B1C2B403380012809D04B783488C9
:10363000135533885B1C2B403380891C801EECD1D2
:1036400053B0F0BDC41C14AD7626EE548C4200D1AC
:1036500041E7031D14AD2A558B4200D144E7421DBA
:1036600014AC6E25E5548A4236D116463DE70A1D54
:1036700014AB72251D55824200D184E64B1D14AC5B
:103680006525A554834200D185E68A1D14AC6125C9
:10369000E554824200D176E6C91D14AB6B249C54DC
:1036A00081423DD10E4680E6761D14A8099A425407
:1036B00012E4481D139014A9099ACA54FFF78CF913
:1036C000801D139014A809998154FFF79EFAB61D26
:1036D00014A8099A4254A3E5801D14AB039C9C5482
:1036E000884211D1064600E78900124A5558FFF773
:1036F00020FAF61D14A8099A4254FFF730FBF61D74
:1037000014A9099A0A54CDE4139EF61D14A9099A26
:103710000A54EAE6C01D14A9099B8B54FFF7B8F9B7
:10372000083614A8099A42543FE6C0464C8F01005F
:10373000E7030000B08A0100188A0100FF070000BB
:103740002A192020281920200000202028172020B6
:10375000F0B5C3B00C920D91064610A8442101703B
:1037600042214170472181702C22C2704621017193
:10377000492141714C2181715421C171452101724E
:10378000522141720B92827274210591C1723D21C6
:1037900006910173002E3ED0002401210E222746FF
:1037A0000E9115460A243046214614F007F80E9B68
:1037B0004443311B30220A437C1C40A9CA55082FC0
:1037C00004D8591C6A1C092E0646E8D81E460F95D7
:1037D0000321384613F0F2FF4D1C032D20D028465C
:1037E000022F20D30E9540AAD31E251A00221E199F
:1037F000B77810A989184F7376788E731E5DCE73D3
:10380000D21CDB1E9542F2D1A31A0D320F990E9DE8
:10381000032D0DD11CE010A8302141730E2117E0BB
:103820000020022FDED233460D220F99032D0FD038
:1038300010A9891840AA9A18921E53780B70012873
:1038400005D013784B70891C921E801EF5D10F99FC
:103850000A46CBB210A8C1180B9CC4547220487001
:1038600065200390887073200490C87075200290C2
:1038700008716C200190487105988871069CCC7184
:103880000D98005D042803D88000F149085800E035
:10389000F04808320578002D24D00F901046D1B2A0
:1038A00010AAD2180E92B824E31A0024A3421BD007
:1038B0000F9A16190E9A17193D727578002D19D0A6
:1038C0004A1CC02A10D07D72B578002D14D08A1CF5
:1038D000C02A09D0C91CC01CBD72F578E41C002D9B
:1038E000E4D10AE0104608E00C98068AC023002EB6
:1038F0001FD1C7E0401C00E0801C0346C1B2C029B4
:103900000D4600D8C0258A09022A0ED84A1C10ABE1
:103910000B9C5C54AA4201D1134606E08B1C10ACF0
:10392000049EA654AB4200D016E20C98068A002EE4
:1039300034D00F9301256F1E0A243046214613F020
:103940003DFF4443311B3024214340AAB954082F82
:103950002FD80A2E2DD30A2113F030FF214340A87F
:103960004155072F24D8642E22D36421304613F00A
:1039700025FF0A2113F022FF214340A8401941707E
:103980007D20C100304613F019FFED1C062F03D82F
:10399000B1498E420646CED86D1E0AE0D8B28109E2
:1039A00002296FD85B1C0F9310A930220A5443E000
:1039B0006D1C0F98C3B2C02B184600D8C02010A9A8
:1039C000C918C21A941E08940793181A401C0A902A
:1039D00040A8C71EA81E0990681E0E900026B2427D
:1039E0001BD07C19A07888550E98B04218D00A9840
:1039F000801917D060788C1960700998B04215D082
:103A00000898B04214D0785D0F9BDB1C0F93A07018
:103A1000F61CFF1EB542E2D10EE0079880190AE0BD
:103A20000F9801E007988019401C04E00F9801E00E
:103A300007988019801C0F900F9BD9B2C0290846A7
:103A400000D8C0208A09022A1CD84B1C10AA0B9C43
:103A50005454834216D08A1C10AC7625E554824219
:103A600001D113460EE0CB1C10AC6125A554834256
:103A700008D00C1D10AA019DD554844201D000F03D
:103A8000BDFC23460C984678002E36D00F93D8B252
:103A9000079001277D1E0A243046214613F08EFE32
:103AA0004443311B3024214340AAA954082D2FD868
:103AB0000A2E2DD30A2113F081FE214340A8C155BF
:103AC000072D24D8642E22D36421304613F076FECD
:103AD0000A2113F073FE214340A8C01941707D20D4
:103AE000C100304613F06AFEFF1C062D03D85A4968
:103AF0008E420646CED87F1E0AE0D8B2810903293D
:103B00005FD25B1C0F9310A930220A5441E07F1C46
:103B1000079AC02A00D8C02210A8079BC018D11A43
:103B20008C1E08949A1A521C0A9240AAD51EBA1EDC
:103B300009927A1E0E920024A1421BD0EB199E78A6
:103B400006550E9AA24218D00A9A161917D05E7816
:103B500003195E70099AA24215D0089AA24214D0A5
:103B6000EE5D0F9AD21C0F929E70E41CED1EA742D0
:103B7000E2D10EE0079800190AE00F9801E00798DB
:103B80000019401C04E00F9801E007980019801C00
:103B90000F900F9BD8B2C028014600D8C0218209DF
:103BA000022A0ED8421C10AB0B9C1C548A4201D135
:103BB000134606E0831C10AC6D25A5548B4200D043
:103BC0008AE00C988678002E36D00F93D8B20790F2
:103BD00001277D1E0A243046214613F0EFFD4443A1
:103BE000311B3024214340AAA954082D37D80A2E6E
:103BF00035D30A2113F0E2FD214340A8C155072D1A
:103C00002CD8642E2AD36421304613F0D7FD0A2124
:103C100013F0D4FD214340A8C01941707D20C1009C
:103C2000304613F0CBFDFF1C062D03D80A498E4207
:103C30000646CED87F1E12E0D8B28109032900D3F0
:103C40009FE05B1C0F9310A930220A545FE0C0462E
:103C5000248C01004C8F0100E70300007F1C079AB1
:103C6000C02A00D8C02210A8079BC018D11A8C1EE9
:103C700008949A1A521C0A9240AAD51EBA1E09929A
:103C80007A1E0E920024A1421BD0EB199E78065595
:103C90000E9AA24218D00A9A161917D05E78031904
:103CA0005E70099AA24215D0089AA2422BD0EE5D0E
:103CB0000F9AD21C0F929E70E41CED1EA742E2D117
:103CC00025E00798001921E00F9801E007980019F6
:103CD000401C1BE00F9818E0C21C10AC039DE5547B
:103CE0008A4200D164E7031D10AC6125A5548B42C4
:103CF00000D166E7401D10AA049CD454884200D02D
:103D000094E303465DE707980019801C0F900F9B12
:103D1000D8B2C028014600D8C0218209022A30D872
:103D2000431C10AA0B9C14548B422AD0821C10AC4A
:103D30007025E5548A4201D1134622E0C31C10AC21
:103D40006F25A5548B421CD0001D10AA049CD4548E
:103D5000884211D1034614E0CA1C10AC039EE654FD
:103D6000AA4200D1D8E5091D10AB71249C54A94288
:103D700000D054E30B46D8E50F9B5B1D10A9069AB3
:103D80000A5412200C990D5E002D02D474D00F93AA
:103D900009E0D8B28109022903D85B1C10A92D22A1
:103DA0000A540F936D420126771E0A2428462146A5
:103DB00013F004FD4443291B3024214340AAB95485
:103DC000082F25D80A2D23D30A2113F0F7FC21430D
:103DD00040A88155072F1AD8642D18D3642128468E
:103DE00013F0ECFC0A2113F0E9FC214340A88019F0
:103DF00041707D20C100284613F0E0FCF61C062F20
:103E000003D8FE498D420546CED8761E00E0761CCA
:103E10000F98C3B2C02B184600D8C02010A9C918EB
:103E2000C21A941E09940893181A401C0C9040A8BA
:103E3000C71EB01E0A90701E0E900025AA4225D003
:103E4000BC19A07848550E98A84222D00C98401969
:103E500021D060784C1960700A98A8421FD0099848
:103E6000A8421ED0B85D0F9BDB1C0F93A070ED1C09
:103E7000FF1EAE42E2D118E0D8B28109032938D240
:103E80005B1C0F9310A930220A540EE008984019C9
:103E90000AE00F9801E008984019401C04E00F98D0
:103EA00001E008984019801C0F900F9BD8B2C028E1
:103EB000014600D8C0218209022A1AD8431C10AA40
:103EC0000B9C14548B4214D0821C10AC6125E55419
:103ED0008A4201D113460CE0C31C10AC6325A554E3
:103EE0008B4206D0041D10AAD5548C4200D060E24B
:103EF00023460D98056A002D36D00F93D8B208904E
:103F000001277E1E0A242846214613F057FC44430D
:103F1000291B3024214340AAB154082E2FD80A2D42
:103F20002DD30A2113F04AFC214340A8C155072E86
:103F300024D8642D22D36421284613F03FFC0A21A3
:103F400013F03CFC214340A8C01941707D20C10002
:103F5000284613F033FCFF1C062E03D8A7498D42D8
:103F60000546CED87F1E0AE0D8B28109032966D261
:103F70005B1C0F9310A930220A5441E07F1C089A61
:103F8000C02A00D8C02210A8089BC018D11A8C1EC5
:103F900009949A1A521C0C9240AAD51EBA1E0A9273
:103FA0007A1E0E920024A1421BD0EB199E78065572
:103FB0000E9AA24218D00C9A161917D05E780319DF
:103FC0005E700A9AA24215D0099AA24214D0EE5D00
:103FD0000F9AD21C0F929E70E41CED1EA742E2D1F4
:103FE0000EE0089800190AE00F9801E008980019FF
:103FF000401C04E00F9801E008980019801C0F9005
:104000000F9BD9B2C029084600D8C0208A09022ACD
:1040100015D84A1C10AB0B9C5C54824201D113464C
:104020000DE08B1C10AC6A25A554834207D0CC1C34
:1040300010AA029DD554844200D09CE123460D98DD
:10404000456A002D36D00F93D8B2089001277E1E06
:104050000A242846214613F0B1FB4443291B30248F
:10406000214340AAB154082E2FD80A2D2DD30A215E
:1040700013F0A4FB214340A8C155072E24D8642D7A
:1040800022D36421284613F099FB0A2113F096FBF2
:10409000214340A8C01941707D20C100284613F07B
:1040A0008DFBFF1C062E03D8F0498D420546CED865
:1040B0007F1E0AE0D8B28109032965D25B1C0F93E9
:1040C00010A930220A5441E07F1C089AC02A00D867
:1040D000C02210A8089BC018D11A8C1E09949A1AE5
:1040E000521C0C9240AAD51EBA1E0A927A1E0E923B
:1040F0000024A1421BD0EB199E7806550E9AA242CD
:1041000018D00C9A161917D05E7803195E700A9AA7
:10411000A24215D0099AA24214D0EE5D0F9AD21C89
:104120000F929E70E41CED1EA742E2D10EE00898AB
:1041300000190AE00F9801E008980019401C04E0FB
:104140000F9801E008980019801C0F900F9BD9B2BE
:10415000C029084600D8C0208A09022A14D84B1C5E
:1041600010AA0B9C545483420ED08A1C10AC6825B4
:10417000E554824201D1134606E0CB1C10AC6F25FA
:10418000A554834200D005E10D98846A002C37D0F5
:104190000F930126771E0A252046294613F00EFBB1
:1041A0004543611B3025294340AAB954082F32D812
:1041B0000A2C30D30A2113F001FB294340A8815572
:1041C000072F27D8642C25D36421204613F0F6FA54
:1041D0000A2113F0F3FA294340A8801941707D2089
:1041E000C100204613F0EAFAF61C062F03D89F49B7
:1041F0008C420446CED8761E0DE0C046E703000090
:10420000D8B2810903295BD25B1C0F9310A930221D
:104210000A5443E0761C0F98C3B2C02B184600D84E
:10422000C02010A9C918C21A941E0B940A93181A18
:10423000401C0D9040A8C71EB01E0C90701E0E9022
:104240000025AA421BD0BC19A07848550E98A84258
:1042500018D00D98401917D060784C1960700C98E0
:10426000A84215D00B98A84214D0B85D0F9BDB1C58
:104270000F93A070ED1CFF1EAE42E2D10EE00A9833
:1042800040190AE00F9801E00A984019401C04E028
:104290000F9801E00A984019801C0F900F9BD9B22B
:1042A000880902280CD8481C10AA0D235354C02892
:1042B00001D1C02304E00F9B9B1C10A90A220A54C1
:1042C0006B4DDFB26B4800886B4E3188C943401894
:1042D0002840B84205D26A488169491C816143B0CF
:1042E000F0BD7C1E0321204613F068FA4A1C002111
:1042F000032A084600D010460E92022C20D3391A09
:104300000F9100215D4C10AA5718525C2B4635883E
:1043100062553288521C1A4032807A78358862554C
:104320003288521C1A403280BA78358862551D4650
:104330003288521C1A403280C91C0F9A8A42E2D13C
:104340000E9A032A15D010AA51184C4A0B783488BB
:10435000135533885B1C2B403380012809D04B78E0
:104360003488135533885B1C2B403380891C801E96
:10437000ECD143B0F0BD0A1D10AB6D251D55824236
:1043800000D14CE6491D10AB70249C54814254D19D
:104390000B4654E60A1D10AC019DE554824200D143
:1043A000E9E6491D10AB64249C5481424BD10B4675
:1043B000EAE6421D10AB039D1D558A4200D189E5F6
:1043C000831D10AC7025A5548B4200D191E5C41D0E
:1043D00010AA059DD5548C4200D189E502460832C9
:1043E00010AB039D1D558A4200D173E5093010AB17
:1043F00064249C54884233D103467AE54A1D10ABAD
:1044000069251D55824201D1FFF72BFB891D10AB99
:1044100064249C5481421CD10B46FFF733FB0346B6
:10442000431D10A8069A4254FFF77FFA0F9B9B1D6D
:1044300010A9069A0A54FFF7C4FB0F9B9B1D10A8F6
:10444000069A4254FBE50F9B9B1D10A8069A425406
:104450009AE60F9BDB1D10A8069A4254FFF712FB49
:104460000F9B0A3310A9069A0A5442E5E70300009D
:10447000FF0700002A1920202819202000002020F2
:1044800028172020F0B58DB0002614F03BF9044623
:104490003046314613F054FED64813F0D9FB019450
:1044A000E06A012504963146039505916A1E06923D
:1044B0000A2207920746049D2B4614F00FF8044683
:1044C0000E46079A2B4613F0D9FD381A302528439B
:1044D00008A9069A5054029705980A3F049A9041F9
:1044E000079536D30A220027204631463B4613F073
:1044F000F5FF2A4308A8039BC254069911291D46BB
:10450000029E28D8304664380598B84123D36422E7
:1045100000243046059F3946234613F0DFFF0A2268
:10452000234613F0DBFF0798024308A840194270A6
:104530007D20C20030463946234613F0CFFFED1CE4
:10454000069A102A03D8AC4A921BBC41ACD36D1E0C
:1045500002E0039D00E06D1C681E0321069013F02D
:104560002DF9481C032803D00446032803D114E086
:104570000024032811D008A82F46861EF019407881
:1045800012F020FC012C07D0BD1EF05D12F01AFCC9
:10459000A41E2F46F2D100E07D1E0698022810D3FB
:1045A0006C4208A82818C51EA87812F00BFC687881
:1045B00012F008FC287812F005FCE41CED1E002C1B
:1045C000F2D18E4813F044FB0198006B00210125C5
:1045D0000491039505916A1E06920A2202920746EB
:1045E000049D2B4613F07AFF04460E46029A2B4692
:1045F00013F044FD381A079D284308A9069A505421
:10460000029705980A3F049A904136D30A22002760
:10461000204631463B4613F061FF2A4308A8039B1E
:10462000C254069911291D46029E28D83046643886
:104630000598B84123D3642200243046059F3946AB
:10464000234613F04BFF0A22234613F047FF079837
:10465000024308A8401942707D20C2003046394606
:10466000234613F03BFFED1C069A102A03D8624A3A
:10467000921BBC41ADD36D1E02E0039D00E06D1C9A
:10468000681E0321069013F099F8481C032803D0F4
:104690000446032803D114E00024032811D008A8FD
:1046A0002F46861EF019407812F08CFB012C07D0A3
:1046B000BD1EF05D12F086FBA41E2F46F2D100E075
:1046C0007D1E0698022810D36C4208A82818C51E23
:1046D000A87812F077FB687812F074FB287812F053
:1046E00071FBE41CED1E002CF2D1022000242146B7
:1046F00013F026FD424813F0ABFA0198406B0125F8
:1047000004942146039505916A1E06920A2202929C
:104710000746049D2B4613F0E1FE04460E46029A1E
:104720002B4613F0ABFC381A079D284308A9069ABC
:104730005054029705980A3F049A904136D30A22B2
:104740000027204631463B4613F0C8FE2A4308A8FE
:10475000039BC254069911291D46029E28D8304653
:1047600064380598B84123D3642200243046059F5D
:104770003946234613F0B2FE0A22234613F0AEFE5A
:104780000798024308A8401942707D20C2003046B5
:104790003946234613F0A2FEED1C069A102A03D8D0
:1047A000154A921BBC41ADD36D1E02E0039D00E093
:1047B0006D1C681E0321069013F000F8481C0328A6
:1047C00003D00446032803D11DE0002403281AD097
:1047D00008A82F46861EF019407812F0F3FA012C33
:1047E00010D0BD1EF05D12F0EDFAA41E2F46F2D1DE
:1047F00009E0C046C8930100E70300006A92010087
:10480000769301007D1E0698022810D36C4208A8FA
:104810002818C51EA87812F0D5FA687812F0D2FAD6
:10482000287812F0CFFAE41CED1E002CF2D1D64805
:1048300013F00EFA0198806B002101250491039575
:1048400005916A1E06920A2202920746049D2B4693
:1048500013F044FE04460E46029A2B4613F00EFC5B
:10486000381A079D284308A9069A505402970598BC
:104870000A3F049A904136D30A2200272046314647
:104880003B4613F02BFE2A4308A8039BC25406990B
:1048900011291D46029E28D8304664380598B84133
:1048A00023D3642200243046059F3946234613F063
:1048B00015FE0A22234613F011FE0798024308A8AA
:1048C000401942707D20C20030463946234613F01D
:1048D00005FEED1C069A102A03D8AC4A921BBC4177
:1048E000ADD36D1E02E0039D00E06D1C681E032128
:1048F000069012F063FF481C032803D004460328E7
:1049000003D114E00024032811D008A82F46861EE6
:10491000F019407812F056FA012C07D0BD1EF05D58
:1049200012F050FAA41E2F46F2D100E07D1E069828
:10493000022810D36C4208A82818C51EA87812F0C7
:1049400041FA687812F03EFA287812F03BFAE41C3B
:10495000ED1E002CF2D104200024214613F0F0FBC0
:104960008B4813F075F90198C06B0125049421461A
:10497000039505916A1E06920A2202920746049D3B
:104980002B4613F0ABFD04460E46029A2B4613F05D
:1049900075FB381A079D284308A9069A50540297B8
:1049A00005980A3F049A904136D30A2200272046F0
:1049B00031463B4613F092FD2A4308A8039BC2549C
:1049C000069911291D46029E28D83046643805985C
:1049D000B84123D3642200243046059F394623463C
:1049E00013F07CFD0A22234613F078FD079802435A
:1049F00008A8401942707D20C2003046394623463F
:104A000013F06CFDED1C069A102A03D85F4A921B26
:104A1000BC41ADD36D1E02E0039D00E06D1C681E1D
:104A20000321069012F0CAFE481C032803D0044656
:104A3000032803D114E00024032811D008A82F462E
:104A4000861EF019407812F0BDF9012C07D0BD1E6A
:104A5000F05D12F0B7F9A41E2F46F2D100E07D1EE2
:104A60000698022810D36C4208A82818C51EA878FA
:104A700012F0A8F9687812F0A5F9287812F0A2F9D6
:104A8000E41CED1E002CF2D1424813F0E1F801982D
:104A9000C06C002101250491039505916A1E0692C0
:104AA0000A2202920746049D2B4613F017FD044686
:104AB0000E46029A2B4613F0E1FA381A079D284356
:104AC00008A9069A5054029705980A3F049A904103
:104AD00036D30A220027204631463B4613F0FEFC1F
:104AE0002A4308A8039BC254069911291D46029E19
:104AF00028D8304664380598B84123D3642200246E
:104B00003046059F3946234613F0E8FC0A22234627
:104B100013F0E4FC0798024308A8401942707D2076
:104B2000C20030463946234613F0D8FCED1C069AE5
:104B3000102A03D8154A921BBC41ADD36D1E02E06A
:104B4000039D00E06D1C681E0321069012F036FEE6
:104B5000481C032803D00446032803D11DE0002489
:104B600003281AD008A82F46861EF019407812F0A4
:104B700029F9012C10D0BD1EF05D12F023F9A41EFE
:104B80002F46F2D109E0C04679920100E703000008
:104B900082930100529101007D1E0698022810D3D5
:104BA0006C4208A82818C51EA87812F00BF968787E
:104BB00012F008F9287812F005F9E41CED1E002C1B
:104BC000F2D106200024214613F0BAFAE04813F08F
:104BD0003FF80198006C0125049421460395059146
:104BE0006A1E06920A2202920746049D2B4613F083
:104BF00075FC04460E46029A2B4613F03FFA381A0B
:104C0000079D284308A9069A5054029705980A3F21
:104C1000049A904136D30A220027204631463B466B
:104C200013F05CFC2A4308A8039BC254069911297F
:104C30001D46029E28D8304664380598B84123D3D3
:104C4000642200243046059F3946234613F046FC73
:104C50000A22234613F042FC0798024308A8401991
:104C600042707D20C20030463946234613F036FCA0
:104C7000ED1C069A102A03D8B44A921BBC41ADD34E
:104C80006D1E02E0039D00E06D1C681E032106906E
:104C900012F094FD481C032803D00446032803D1D6
:104CA00014E00024032811D008A82F46861EF0190E
:104CB000407812F087F8012C07D0BD1EF05D12F08D
:104CC00081F8A41E2F46F2D100E07D1E069802282E
:104CD00010D36C4208A82818C51EA87812F072F8E4
:104CE000687812F06FF8287812F06CF8E41CED1E6A
:104CF000002CF2D1974812F0ABFF0198406C0021D4
:104D000001250491039505916A1E06920A220292DA
:104D10000746049D2B4613F0E1FB04460E46029A1B
:104D20002B4613F0ABF9381A079D284308A9069AB9
:104D30005054029705980A3F049A904136D30A22AC
:104D40000027204631463B4613F0C8FB2A4308A8FB
:104D5000039BC254069911291D46029E28D830464D
:104D600064380598B84123D3642200243046059F57
:104D70003946234613F0B2FB0A22234613F0AEFB5A
:104D80000798024308A8401942707D20C2003046AF
:104D90003946234613F0A2FBED1C069A102A03D8CD
:104DA0006A4A921BBC41ADD36D1E02E0039D00E038
:104DB0006D1C681E0321069012F000FD481C03289C
:104DC00003D00446032803D114E00024032811D0A3
:104DD00008A82F46861EF019407811F0F3FF012C29
:104DE00007D0BD1EF05D11F0EDFFA41E2F46F2D1DD
:104DF00000E07D1E0698022810D36C4208A82818EF
:104E0000C51EA87811F0DEFF687811F0DBFF287866
:104E100011F0D8FFE41CED1E002CF2D14E4812F028
:104E200017FF0198866C002001240490014603942A
:104E30000691601E05900A2202923046049D2B4680
:104E400013F04CFB07460C46029A2B4613F016F95A
:104E5000301A079D284308A9059A505402960A3E25
:104E600006980499884136D30A22002638462146FE
:104E7000334613F033FB06992A4308A8039C0255D6
:104E8000059B112B029D28D8284664380846B0415E
:104E900023D364221E46002728463B4613F01EFB00
:104EA0000A223B4613F01AFB0798024308A8001990
:104EB00042707D20C200284606993B4613F00EFB47
:104EC000069BE41C102E04D8204A521B9F41064624
:104ED000ADD3641E02E0039C00E0641C2646601E05
:104EE0000321079012F06AFC481C032803D00546F2
:104EF000032803D114E00025032811D008A8841E3C
:104F00003746E019407811F05DFF012D07D0BE1E35
:104F1000E05D11F057FFAD1E3746F2D100E07E1E76
:104F20000798022810D3744208A83018C51EA87824
:104F300011F048FF687811F045FF287811F042FF22
:104F4000E41CED1E002CF2D10DB0F0BDE703000013
:104F50009E9301006691010025910100F0B5C1B05A
:104F60000C9105460EA84421017042214170472151
:104F700081702C22C2705021017143214171542152
:104F800081715221C1714C210172079242727421C8
:104F9000069181723D210591C172002D3ED00027FE
:104FA00001210D223E460D9114460A272846394616
:104FB00012F004FC0D9B4743E91B30220A43771C87
:104FC0003EA98A55082E04D8591C621C092D054695
:104FD000E8D81D460B940321304612F0EFFB491C24
:104FE000032920D00846022E20D30D913EAAD31EBD
:104FF0003C1A0022DD19AE780EA989180E736D785F
:105000004D73DD5D8D73D21CDB1E9442F2D1BD1A4F
:105010000C320B9B0D9903290CD11BE00EA83021FB
:1050200001730D2316E00020022EDED20C220B9B12
:1050300003290FD00EA989183EAAAA18921E5378E8
:105040000B70012805D013784B70891C921E801EAE
:10505000F5D10B9BDCB20EA80119079A0255662008
:105060000490487061200A90887075200290C87082
:105070006C2001900871069848710598887141204C
:105080000C99085C052803D88000FC49095800E009
:10509000FB49D81D0E78002E24D00D910146C2B2D6
:1050A0000EA800190B90B920041B0025AC421BD0A0
:1050B0000D9847190B984019C6717E78002E1BD0A9
:1050C000531CC02B10D00672BE78002E16D0931C35
:1050D000C02B09D0D21CC91C4672FE78ED1C002ED4
:1050E000E4D10CE001460AE00C980568C027002DC9
:1050F0003FD4002D3ED1CFE0491C00E0891C0F4673
:10510000C9B2C0290A4600D8C0228809022818D886
:10511000481C0EAB079C5C54904201D1074610E03E
:105120008C1C0EAB069D1D54944201D1274608E00D
:10513000CB1C0EA80A9D0555934201D000F010FC2F
:105140001F460C980568002D0BD413D1F8B28109C5
:10515000022900D9A0E07F1C0D970EA930220A5425
:1051600081E0F8B28109022903D87F1C0EA92D2203
:105170000A546D420D970124671E0A2628463146BF
:1051800012F01CFB4643A91B302631433EAAB954FA
:10519000082F25D80A2D23D30A2112F00FFB314303
:1051A0003EA80155072F1AD8642D18D3642128462C
:1051B00012F004FB0A2112F001FB31433EA8001952
:1051C00041707D20C100284612F0F8FAE41C062F39
:1051D00003D8AC498D420546CED8641E00E0641C5D
:1051E0000D98C3B2C02B184600D8C0200EA9C9180C
:1051F000C21A951E08950393181A401C0A903EA8DF
:10520000C71EA01E0990601E0B900026B2421BD044
:105210003D19A87888550B98B04218D00A98801983
:1052200017D068788D1968700998B04215D0089821
:10523000B04214D0385D0D9BDB1C0D93A870F61C9A
:10524000FF1EB442E2D10EE0039880190AE00D98E7
:1052500001E003988019401C04E00D9801E00398D8
:105260008019801C0D900D9FF8B2C028014600D80F
:10527000C0218209022A0FD8421C0EAB079C1C5485
:105280008A4201D1174607E0831C0EAC6325A55462
:105290008B4200D0BCE21F460C984568002D02D41A
:1052A00074D00D9709E0F8B28109022903D87F1C58
:1052B0000EA92D220A540D976D420124671E0A265D
:1052C0002846314612F07AFA4643A91B302631436C
:1052D0003EAAB954082F25D80A2D23D30A2112F04B
:1052E0006DFA31433EA80155072F1AD8642D18D303
:1052F0006421284612F062FA0A2112F05FFA314363
:105300003EA8001941707D20C100284612F056FACF
:10531000E41C062F03D85B498D420546CED8641E97
:1053200000E0641C0D98C3B2C02B184600D8C02002
:105330000EA9C918C21A951E08950693181A401C82
:105340000A903EA8C71EA01E0990601E0B90002662
:10535000B24225D03D19A87888550B98B04222D08A
:105360000A98801921D068788D1968700998B04220
:105370001FD00898B0421ED0385D0D9BDB1C0D93EA
:10538000A870F61CFF1EB442E2D118E0F8B2810901
:1053900003292DD27F1C0D970EA930220A540EE04E
:1053A000069880190AE00D9801E006988019401CC3
:1053B00004E00D9801E006988019801C0D900D9F67
:1053C000F8B2C028014600D8C0218209022A0FD8AD
:1053D000431C0EAA079C14548B4201D11F4607E0C0
:1053E000821C0EAC6525E5548A4200D0B3E0174616
:1053F0000C988568002D02D47BD00D9709E0F8B297
:105400008109022903D87F1C0EA92D220A540D9769
:105410006D420124671E0A262846314612F0CEF955
:105420004643A91B302631433EAAB954082F2CD835
:105430000A2D2AD30A2112F0C1F931433EA80155A1
:10544000072F21D8642D1FD36421284612F0B6F906
:105450000A2112F0B3F931433EA8001941707D20B2
:10546000C100284612F0AAF9E41C062F03D805490A
:105470008D420546CED8641E07E0C046888B0100E9
:105480004C8F0100E7030000641C0D98C3B2C02BD1
:10549000184600D8C0200EA9C918C21A951E089532
:1054A0000693181A401C0A903EA8C71EA01E099019
:1054B000601E0B900026B24225D03D19A878885571
:1054C0000B98B04222D00A98801921D068788D19A3
:1054D00068700998B0421FD00898B0421ED0385D5D
:1054E0000D9BDB1C0D93A870F61CFF1EB442E2D18D
:1054F00018E0F8B28109032944D27F1C0D970EA948
:1055000030220A540EE0069880190AE00D9801E056
:1055100006988019401C04E00D9801E00698801957
:10552000801C0D900D9FF9B2C029084600D8C020FC
:105530008A09022A26D84A1C0EAB079C5C54824278
:1055400001D117461EE08B1C0EAC049DA55483426E
:1055500010D11F4616E0C31C0EAD7224AC548B4212
:1055600000D13BE7001D0EAAD454884200D018E2B7
:1055700007463DE7CC1C0EAD6F22EA54844200D0B2
:10558000D2E127460C98C568002D02D474D00D973F
:1055900009E0F8B28109022903D87F1C0EA92D2247
:1055A0000A540D976D420124671E0A26284631468B
:1055B00012F004F94643A91B302631433EAAB954E0
:1055C000082F25D80A2D23D30A2112F0F7F83143EA
:1055D0003EA80155072F1AD8642D18D364212846F8
:1055E00012F0ECF80A2112F0E9F831433EA8001954
:1055F00041707D20C100284612F0E0F8E41C062F1F
:1056000003D8FD498D420546CED8641E00E0641CD7
:105610000D98C3B2C02B184600D8C0200EA9C918D7
:10562000C21A951E08950693181A401C0A903EA8A7
:10563000C71EA01E0990601E0B900026B24225D006
:105640003D19A87888550B98B04222D00A98801945
:1056500021D068788D1968700998B0421FD00898D9
:10566000B0421ED0385D0D9BDB1C0D93A870F61C5C
:10567000FF1EB442E2D118E0F8B2810903292CD20E
:105680007F1C0D970EA930220A540EE0069880194F
:105690000AE00D9801E006988019401C04E00D987E
:1056A00001E006988019801C0D900D9FF9B2C02969
:1056B000084600D8C0208A09022A0ED84C1C0EAA1F
:1056C000079B5354844201D1274606E08B1C0EAD44
:1056D0006E222A5583427CD11F460C98046B002C05
:1056E00034D00D970126771E0A252046294612F050
:1056F00065F84543611B302529433EAAB954082F5C
:1057000030D80A2C2ED30A2112F058F829433EA88B
:105710008155072F25D8642C23D36421204612F00D
:105720004DF80A2112F04AF829433EA88019417029
:105730007D20C100204612F041F8F61C062F03D848
:10574000B1498C420446CED8761E0BE0F8B28109EE
:10575000032900D38DE07F1C0D970EA930220A5437
:1057600076E0761C0D98C3B2C02B184600D8C02036
:105770000EA9C918C21A941E09940893181A401C3D
:105780000B903EA8C71EB01E0A90701E0C900025FC
:10579000AA421BD0BC19A07848550C98A84235D015
:1057A0000B9840194AD060784C1960700A98A8424A
:1057B00048D00998A84247D0B85D0D9BDB1C0D93DB
:1057C000A070ED1CFF1EAE42E2D141E008984019E6
:1057D0003DE0CC1C0EAD6F26EE54844200D173E741
:1057E0000B1D0EAD65262E55834200D174E74C1D6E
:1057F0000EADEA54844200D166E7891D0EAA6323E8
:105800001355814200D0E7E00F4666E70D9817E098
:10581000C21C0EAC029DE5548A4200D132E5031D44
:105820000EAC7225A5548B4200D134E5441D0EAA5E
:10583000D5548C4200D0B9E027462DE50898401990
:10584000401C04E00D9801E008984019801C0D9060
:105850000D9FF9B2880902280BD8481C0EAA0D2307
:105860005354C02801D1C02703E0BF1C0EA90A224F
:105870000A54664DFFB266480088664E3188C943B7
:1058800040182840B84205D264488169491C8161AA
:1058900041B0F0BD7C1E0321204611F08FFF4A1C51
:1058A0000021032A084600D010460C92022C20D377
:1058B000391A0D910021584C0EAA5718525C2B46EC
:1058C000358862553288521C1A4032807A78358881
:1058D00062553288521C1A403280BA783588625537
:1058E0001D463288521C1A403280C91C0D9A8A42C9
:1058F000E2D10C9A032A15D00EAA5118464A0B7809
:105900003488135533885B1C2B403380012809D021
:105910004B783488135533885B1C2B403380891CAB
:10592000801EECD141B0F0BD0B1D0EAD019E2E5579
:10593000834200D10DE634464C1D0EADEE54844238
:1059400000D11EE68B1D0EAD2A55834200D100E624
:10595000C91D0EAA7724D454814242D10F4611E6C4
:10596000081D0EAC7225E554904201D1FFF7D6FB1D
:105970004B1D0EAC67252554934201D1FFF7E0FB88
:10598000881D0EAC6525E554904201D1FFF7C6FB9A
:10599000C91D0EAB069C1C54914227D10F46FFF740
:1059A000D0FB7F1D0EA9059A0A5421E5821D0EAB7E
:1059B00065251D558A4200D164E4C31D0EAC6E25D9
:1059C000A5548B4200D166E408300EAA069CD4543C
:1059D000884213D107465FE4FF1D0EA8059A425482
:1059E0007BE608370EA8059A4254CBE508370EA887
:1059F000059A4254FFF7A5FBE703000009370EA9FB
:105A0000059A0A5448E4C046E7030000FF07000077
:105A10002A192020281920200000202028172020C3
:105A2000F0B5D3B039A804464D3411F075FB0DA87C
:105A300043210170412242704C21049181702C213C
:105A40000791C1705321009101715421417102925B
:105A500082714721C1714521059101723D21039158
:105A60004172FC48007801280CD12078FA490028BE
:105A700009D0A079401EC0B2022804D88000F7499E
:105A8000095800E0F64906940878002816D00DAAB7
:105A90000A32491C0A260024A62C1AD03346761C4A
:105AA0001055085D641C0028F6D1F0B2B0280146FC
:105AB00000D8B021DAB2AE2A03D91BE00A20B02107
:105AC0000646421C0DAB079C1C548A420AD116465E
:105AD00010E012F047FD0446B026002823D4002C25
