:10000000008020205F2D010067FD000067FD0000DB
:1000100000000000000000000000000000000000E0
:1000200000000000000000000000000067FD00006C
:10003000000000000000000067FD000079F90000EA
:1000400067FD0000BD26010067FD0000551C010092
:1000500067FD000067FD000067FD000067FD000010
:100060000000000067FD000067FD000000000000C8
:100070000000000067FD00003911010067FD00006D
:1000800067FD000067FD000067FD000067FD0000E0
:1000900067FD000067FD0000000000000000000098
:1000A00067FD000067FD0000000000000000000088
:1000B00067FD00000000000067FD000067FD000014
:1000C000F0B5C1B018AF07AD36AC204612F05AFA01
:1000D0002FA811F001FE384611F04CFB284612F013
:1000E0002DFA207DE17C002901D0C14E00E0C14EF7
:1000F0004937002800D0C04E3879002800970FD02B
:100100000020014612F0FAFABC4812F07FF8B87AE3
:10011000401EC0B2022818D88000B949085815E01E
:10012000B879002800D198E00020014612F0E6FAE4
:10013000B44812F06BF8387B401EC0B2022800D9D8
:10014000CFE08000B0490858CCE0B04812F05EF82B
:10015000AF4812F05BF8387B401EC0B2022803D8CB
:100160008000A949085800E0AA48002412F04EF87F
:1001700002200194214612F0C1FAA74812F046F875
:100180003878002865D0199C002C03D52D2011F05B
:1001900071F96442A149204611F05EFE084601252E
:1001A0000199049505916A1E06920A220392074658
:1001B000019E334612F070FC04460D46039A334606
:1001C00012F03AFA381A302318433CA9069A5054D0
:1001D000039705990A3F0846B0415DD30A220E46AF
:1001E0000027204629461C463B4612F055FC234674
:1001F00022433CA8049C0255069911292546039ADE
:100200004CD8104664383046B84147D3174664226C
:100210000024384631460293234612F03DFC0A2260
:10022000234612F039FC029802433CA84019427060
:100230007D20C20038463146234612F02DFCED1CCD
:10024000069A102A03D8764AD21BB441A9D36D1E50
:1002500025E0704811F0DAFF04E13C3568790028A8
:1002600000D175E200242046214612F047FA6D487D
:1002700011F0CCFF02200394214612F03FFA6148AE
:1002800011F0C4FF6879401EC0B2042800D9B1E261
:10029000800065490858AEE2049D00E06D1C2F46C1
:1002A000681E0321069011F0D7FD481C032813D0C7
:1002B0000446032813D03CA8861EF019407811F09C
:1002C000D9F8012C00D1B7E0BD1EF05D11F0D2F8D5
:1002D000A41E2F46F1D1B0E000240328EBD13D4607
:1002E000ABE04C48002411F091FF504811F08EFF14
:1002F000304611F08BFF0220214612F0FFF94C48E6
:1003000011F084FF04200194214612F0F7F94948C6
:1003100011F07CFF7878002800D115E21A9C002C9F
:1003200003D52D2011F0A6F864423C49204611F077
:1003300093FD0D460126019904910596701E0690C5
:100340000A2203922846019F3B4612F0A5FB044671
:100350000E46039A3B4612F06FF9281A30231843D1
:100360003CA9069A505403950A3D04980546B841A5
:1003700000D203E20A220027204631461C463B46B3
:1003800012F08AFB234622433CA8059C025506999D
:1003900011292646039A00D9F2E11046643828460E
:1003A000B84100D2ECE117466422002438462946C1
:1003B0000293234612F070FB0A22234612F06CFBD4
:1003C000029802433CA8801942707D20C200384642
:1003D0002946234612F060FBF61C069A102A04D820
:1003E0000F4AD21BAC410546A6D3761EC9E1C046D2
:1003F0008334010003360100BB350100693501007B
:1004000014320100213701000832010005350100D6
:1004100087360100D93201007934010040420F00D3
:10042000E7030000C0310100D8300100D0320100E4
:10043000B0310100C73601007D1E0698022810D396
:100440006C423CA82818C51EA87811F013F86878EB
:1004500011F010F8287811F00DF8E41CED1E002CB6
:10046000F2D1009F04200021019112F047F9D648F3
:1004700011F0CCFE7878002865D01A9C002C03D5AA
:100480002D2010F0F7FF6442D049204611F0E4FC23
:10049000084601250199049505916A1E06920A22D3
:1004A00003920746019E334612F0F6FA04460D46C3
:1004B000039A334612F0C0F8381A302318433CA987
:1004C000069A5054039705990A3F0846B0413ED317
:1004D0000A220E460027204629461C463B4612F0BB
:1004E000DBFA234622433CA8049C025506991129B5
:1004F0002546039A2DD8104664383046B84128D393
:10050000174664220024384631460293234612F0EF
:10051000C3FA0A22234612F0BFFA029802433CA80B
:10052000401942707D20C20038463146234612F001
:10053000B3FAED1C069A102A03D8A54AD21BB4417F
:10054000A9D36D1E06E0A34811F060FE39E0049DBA
:1005500000E06D1C2F46681E0321069011F07CFC04
:10056000481C032812D00446032812D03CA8861E3B
:10057000F019407810F07EFF012C0CD0BD1EF05D0C
:1005800010F078FFA41E2F46F2D105E000240328C6
:10059000ECD13D4600E07D1E0698022810D36C4247
:1005A0003CA82818C51EA87810F064FF687810F0E1
:1005B00061FF287810F05EFFE41CED1E002CF2D1E4
:1005C000009F854811F022FEB878002866D01B9C59
:1005D000002C03D52D2010F04DFF64427B492046AE
:1005E00011F03AFC0846002101250191049505917E
:1005F0006A1E06920A2203920746019E334612F0B3
:100600004BFA04460D46039A334612F015F8381A91
:10061000302318433CA9069A5054039705990A3F82
:100620000846B0413ED30A220E46002720462946FE
:100630001C463B4612F030FA234622433CA8049C59
:100640000255069911292546039A2DD8104664387B
:100650003046B84128D31746642200243846314634
:100660000293234612F018FA0A22234612F014FAD3
:10067000029802433CA8401942707D20C2003846CF
:100680003146234612F008FAED1C069A102A03D8C8
:100690004F4AD21BB441A9D36D1E06E04D4811F05C
:1006A000B5FD39E0049D00E06D1C2F46681E032156
:1006B000069011F0D1FB481C032812D004460328F1
:1006C00012D03CA8861EF019407810F0D3FE012C01
:1006D0000CD0BD1EF05D10F0CDFEA41E2F46F2D151
:1006E00005E000240328ECD13D4600E07D1E06987D
:1006F000022810D36C423CA82818C51EA87810F018
:10070000B9FE687810F0B6FE287810F0B3FEE41C4D
:10071000ED1E002CF2D1009F0620002111F0EEFF0B
:10072000F87A032804D0022805D12C4800F0AEFF47
:100730002B4800F0ABFFB87A032802D0294800F01C
:10074000A5FF294800F0A2FF224811F05FFDD3E089
:10075000787A002800D124E300200090014611F0AF
:10076000CDFF224811F052FDF87B401EC0B2022896
:1007700000D92BE380001E49085828E3059E00E0BD
:10078000761C701E0321069011F066FB481C03289E
:1007900014D00446032814D03CA83746861EF0190E
:1007A000407810F067FE012C00D18FE0BD1EF05D97
:1007B00010F060FEA41E2F46F1D188E0002403282B
:1007C000EAD1354683E0C046C736010040420F00FB
:1007D000E7030000D9320100CF3501003B310100B1
:1007E0007F310100DD3101004C310100FB3401009B
:1007F000FC310100F94811F009FDF94811F006FD3E
:10080000089C002C03D52D2010F034FE6442F549DD
:10081000204611F021FB0846012503990295049119
:100820006A1E05920A2206920646039C234612F08F
:1008300033F907460D46069A234611F0FDFE301A9D
:10084000302420433CA9059A5054019604980A3E4E
:10085000039A9041069400D20CE10A220026384601
:100860002946334612F018F922433CA8029BC25491
:10087000059911291D46019C00D9FDE020466438E8
:100880000498B04100D2F7E0642200272046049E7D
:1008900031463B4612F000F90A223B4612F0FCF8C2
:1008A000069802433CA8401942707D20C2002046B1
:1008B00031463B4612F0F0F8ED1C059A102A03D899
:1008C000C94A121BB741A9D36D1ED6E07D1E0698FA
:1008D000022810D36C423CA82818C51EA87810F036
:1008E000C9FD687810F0C6FD287810F0C3FDE41C3F
:1008F000ED1E002CF2D1009FBC4811F087FCB878A7
:10090000002866D01B9C002C03D52D2010F0B2FDD2
:100910006442B449204611F09FFA0846002101259F
:100920000191049505916A1E06920A2203920746D8
:10093000019E334612F0B0F804460D46039A334642
:1009400011F07AFE381A302318433CA9069A505405
:10095000039705990A3F0846B0413ED30A220E4646
:100960000027204629461C463B4612F095F82346B0
:1009700022433CA8049C0255069911292546039A56
:100980002DD8104664383046B84128D31746642223
:100990000024384631460293234612F07DF80A229D
:1009A000234612F079F8029802433CA8401942709D
:1009B0007D20C20038463146234612F06DF8ED1C0A
:1009C000069A102A03D8884AD21BB441A9D36D1EB7
:1009D00006E0874811F01AFC39E0049D00E06D1C28
:1009E0002F46681E0321069011F036FA481C032892
:1009F00012D00446032812D03CA8861EF019407875
:100A000010F038FD012C0CD0BD1EF05D10F032FD51
:100A1000A41E2F46F2D105E000240328ECD13D4668
:100A200000E07D1E0698022810D36C423CA82818CE
:100A3000C51EA87810F01EFD687810F01BFD287800
:100A400010F018FDE41CED1E002CF2D1009F0620D2
:100A5000002111F053FEF879002802D0654800F01B
:100A600015FE7879002802D0634800F00FFE634835
:100A700000F00CFE029D00E06D1C2E46681E032156
:100A8000059011F0E9F9481C032803D00546032816
:100A900003D114E00025032811D03CA8841E37465A
:100AA000E019407810F0E6FC012D07D0BE1EE05D95
:100AB00010F0E0FCAD1E3746F2D100E07E1E059836
:100AC000022810D374423CA83018C51EA87810F034
:100AD000D1FC687810F0CEFC287810F0CBFCE41C38
:100AE000ED1E002CF2D104200021039111F006FE2E
:100AF000434811F08BFB099C002C03D52D2010F0EE
:100B0000B9FC64423749204611F0A6F90846012590
:100B10000399029504916A1E05920A2201920646E3
:100B2000039C234611F0B8FF07460D46019A234661
:100B300011F082FD301A069C20433CA9059A5054BE
:100B4000019604980A3E039A904136D30A22002661
:100B500038462946334611F09FFF22433CA8029BAA
:100B6000C254059911291D46019C28D82046643895
:100B70000498B04123D3642200272046049E3146C6
:100B80003B4611F089FF0A223B4611F085FF06988B
:100B900002433CA8401942707D20C20020463146E5
:100BA0003B4611F079FFED1C059A102A03D80E4A36
:100BB000121BB741ADD36D1E02E0029D00E06D1C1B
:100BC0002E46681E0321059011F046F9481C0328A3
:100BD00018D00546032818D129E0C0464135010048
:100BE0006736010040420F00E7030000CF350100E7
:100BF000D93201002831010038320100EB31010007
:100C0000093701000025032811D03CA8841E37466F
:100C1000E019407810F02EFC012D07D0BE1EE05DDB
:100C200010F028FCAD1E3746F2D100E07E1E05987C
:100C3000022810D374423CA83018C51EA87810F0C2
:100C400019FC687810F016FC287810F013FCE41CEE
:100C5000ED1E002CF2D1EE4811F0D8FA0A9C002CBF
:100C600003D52D2010F006FC6442EA49204611F01D
:100C7000F3F80846002101250391029504916A1EAC
:100C800005920A2201920646039C234611F004FFB6
:100C900007460D46019A234611F0CEFC301A069CF9
:100CA00020433CA9059A5054019604980A3E039AA1
:100CB000904136D30A22002638462946334611F0A1
:100CC000EBFE22433CA8029BC254059911291D4604
:100CD000019C28D8204664380498B04123D364226C
:100CE00000272046049E31463B4611F0D5FE0A22DD
:100CF0003B4611F0D1FE069802433CA840194270D1
:100D00007D20C200204631463B4611F0C5FEED1C59
:100D1000059A102A03D8C04A121BB741ADD36D1EE5
:100D200002E0029D00E06D1C2E46681E0321069025
:100D300011F092F8481C032803D00546032803D17C
:100D400014E00025032811D03CA8841E3746E01982
:100D5000407810F08FFB012D07D0BE1EE05D10F033
:100D600089FBAD1E3746F2D100E07E1E06980228B0
:100D700010D374423CA83018C51EA87810F07AFB36
:100D8000687810F077FB287810F074FBE41CED1EF7
:100D9000002CF2D10620002111F0B0FC9F4800F099
:100DA00075FC387A002800D1D9E30020014611F003
:100DB000A5FC9B4811F02AFA787B401EC0B204289B
:100DC00000D9DFE3800097490858DCE3964811F02A
:100DD0001DFA964811F01AFA239D012400990491F6
:100DE000601E05900A2206922846009E334611F0A6
:100DF00053FE07460291069A334611F01DFC281A4D
:100E00002246302420433CA9059B585403950A3DB3
:100E100004980546B041069436D301920A22002672
:100E200038460299334611F037FE22433CA8019C14
:100E3000025505991129039828D80246643A2A4692
:100E4000B24123D364220027294606463B4611F0CF
:100E500023FE0A223B4611F01FFE069802433CA8DF
:100E6000001942707D20C200304629463B4611F0F1
:100E700013FEE41C059A102A04D8674A921BAF415E
:100E80000546ACD3641E02E0144600E0641C26460E
:100E9000601E0321059010F0DFFF481C032801D0DD
:100EA000054600E00025032811D03CA8841E3746E3
:100EB000E019407810F0DEFA012D07D0BE1EE05D8B
:100EC00010F0D8FAAD1E3746F2D100E07E1E05982C
:100ED000022810D374423CA83018C51EA87810F020
:100EE000C9FA687810F0C6FA287810F0C3FAE41C42
:100EF000ED1E002CF2D102200021039111F0FEFB27
:100F00004B4811F083F9199C002C03D52D2010F0CB
:100F1000B1FA64423F49204610F09EFF0846012581
:100F20000399029504916A1E05920A2201920646CF
:100F3000039C234611F0B0FD07460D46019A234657
:100F400011F07AFB301A069C20433CA9059A5054B4
:100F5000019604980A3E039A904136D30A2200264D
:100F600038462946334611F097FD22433CA8029BA0
:100F7000C254059911291D46019C28D82046643881
:100F80000498B04123D3642200272046049E3146B2
:100F90003B4611F081FD0A223B4611F07DFD06988B
:100FA00002433CA8401942707D20C20020463146D1
:100FB0003B4611F071FDED1C059A102A03D8164A24
:100FC000121BB741ADD36D1E02E0029D00E06D1C07
:100FD0002E46681E0321059010F03EFF481C032892
:100FE00001D0054600E00025032824D03CA8841E3B
:100FF0003746E019407810F03DFA012D1AD0BE1E98
:10100000E05D10F037FAAD1E3746F2D113E0C0466E
:10101000A134010040420F00E7030000A0320100AC
:1010200070330100EC30010005350100533601003A
:101030000C3701007E1E0598022810D374423CA88C
:101040003018C51EA87810F015FA687810F012FA5A
:10105000287810F00FFAE41CED1E002CF2D1E348C2
:1010600011F0D4F8289C002C03D52D2010F002FAA2
:101070006442DF49204610F0EFFE084600210125BA
:101080000391029504916A1E05920A220192064676
:10109000039C234611F000FD07460D46019A2346A6
:1010A00011F0CAFA301A069C20433CA9059A505404
:1010B000019604980A3E039A904136D30A220026EC
:1010C00038462946334611F0E7FC22433CA8029BF0
:1010D000C254059911291D46019C28D82046643820
:1010E0000498B04123D3642200272046049E314651
:1010F0003B4611F0D1FC0A223B4611F0CDFC06988C
:1011000002433CA8401942707D20C200204631466F
:101110003B4611F0C1FCED1C059A102A03D8B54AD4
:10112000121BB741ADD36D1E02E0029D00E06D1CA5
:101130002E46681E0321059010F08EFE481C0328E1
:1011400001D0054600E00025032811D03CA8841EEC
:101150003746E019407810F08DF9012D07D0BE1EFA
:10116000E05D10F087F9AD1E3746F2D100E07E1E3B
:101170000598022810D374423CA83018C51EA878E0
:1011800010F078F9687810F075F9287810F072F995
:10119000E41CED1E002CF2D104200021039111F07B
:1011A000ADFA954811F032F8099C002C03D52D209A
:1011B00010F060F964428E49204610F04DFE08465A
:1011C00001250399029504916A1E05920A22019253
:1011D0000646039C234611F05FFC07460D46019A24
:1011E000234611F029FA301A069C20433CA9059A9F
:1011F0005054019604980A3E039A904136D30A222D
:10120000002638462946334611F046FC22433CA8C6
:10121000029BC254059911291D46019C28D82046DD
:1012200064380498B04123D3642200272046049EEA
:1012300031463B4611F030FC0A223B4611F02CFCB3
:10124000069802433CA8401942707D20C200204607
:1012500031463B4611F020FCED1C059A102A03D8BC
:10126000644A121BB741ADD36D1E02E0029D00E03F
:101270006D1C2E46681E0321059010F0EDFD481CE4
:10128000032801D0054600E00025032811D03CA822
:10129000841E3746E019407810F0ECF8012D07D095
:1012A000BE1EE05D10F0E6F8AD1E3746F2D100E05C
:1012B0007E1E0598022810D374423CA83018C51E23
:1012C000A87810F0D7F8687810F0D4F8287810F0E3
:1012D000D1F8E41CED1E002CF2D1484810F096FF26
:1012E000299C002C03D52D2010F0C4F864424049FD
:1012F000204610F0B1FD084600210125039102951A
:1013000004916A1E05920A2201920646039C234616
:1013100011F0C2FB07460D46019A234611F08CF9E5
:10132000301A069C20433CA9059A50540196049813
:101330000A3E039A904136D30A22002638462946AF
:10134000334611F0A9FB22433CA8029BC2540599E5
:1013500011291D46019C28D8204664380498B041C4
:1013600023D3642200272046049E31463B4611F0D9
:1013700093FB0A223B4611F08FFB069802433CA8E0
:10138000401942707D20C200204631463B4611F094
:1013900083FBED1C059A102A03D8F04A121BB741B3
:1013A000ADD36D1E02E0029D00E06D1C2E46681E4E
:1013B0000321059010F050FD481C032801D005467C
:1013C00000E0002503281CD03CA8841E3746E01905
:1013D000407810F04FF8012D12D0BE1EE05D10F0E5
:1013E00049F8AD1E3746F2D10BE0C0469F360100EA
:1013F00040420F00E7030000093701007336010087
:101400007E1E0598022810D374423CA83018C51ED1
:10141000A87810F02FF8687810F02CF8287810F0E1
:1014200029F8E41CED1E002CF2D1062000242146F0
:1014300011F064F9D44810F0E9FE07A8808E012568
:1014400003942146029504916A1E05920A22019294
:101450000646039C234611F01FFB07460D46019AE2
:10146000234611F0E9F8301A069C20433CA9059A5E
:101470005054019604980A3E039A904136D30A22AA
:10148000002638462946334611F006FB22433CA885
:10149000029BC254059911291D46019C28D820465B
:1014A00064380498B04123D3642200272046049E68
:1014B00031463B4611F0F0FA0A223B4611F0ECFAB5
:1014C000069802433CA8401942707D20C200204685
:1014D00031463B4611F0E0FAED1C059A102A03D87C
:1014E0009E4A121BB741ADD36D1E02E0029D00E083
:1014F0006D1C2E46681E0321069010F0ADFC481CA2
:10150000032801D0054600E00025032811D03CA89F
:10151000841E3746E01940780FF0ACFF012D07D04C
:10152000BE1EE05D0FF0A6FFAD1E3746F2D100E013
:101530007E1E0698022800D2A7E074423CA830180C
:10154000C51EA8780FF096FF68780FF093FF2878F3
:101550000FF090FFE41CED1E002CF2D195E02C78EA
:101560000020014611F0CAF8002C4ED08A4810F035
:101570004DFE2879401EC0B2032852D8800087490A
:1015800008584FE0724810F041FE20200FF072FF23
:10159000304610F03BFE02200024214611F0AEF848
:1015A0006F4810F033FE1998C1170BF065FA7548B3
:1015B00010F02CFE2498C1170BF05EFA042021468F
:1015C00011F09CF8674810F021FE1C98C1170BF031
:1015D00053FA654810F01AFE1D98C1170BF04CFA2B
:1015E0000620214611F08AF8634810F00FFE099892
:1015F000C1170BF041FA664810F008FE07A8808E6C
:1016000021460BF051FF634840E0584810F0FEFDC2
:10161000387B401EC0B202283CD880004E49085892
:1016200039E04B4810F0F2FD02200024214611F071
:1016300065F8534810F0EAFD0898C1170BF01CFA42
:10164000504810F0E3FD0798C1170BF015FA04207D
:10165000214611F053F8484810F0D8FD0998C117F9
:101660000BF00AFA454810F0D1FD0A98C1170BF0AB
:1016700003FA0620214611F041F8434810F0C6FD58
:1016800007A8808E21460BF00FFF404810F0BEFDEA
:1016900041B0F0BD2F4810F0B9FD364810F0B6FD4E
:1016A000387819990BF038F920200FF0E3FE304616
:1016B00010F0ACFD02200025294611F01FF8384833
:1016C00010F0A4FD2F98C1170BF0D6F9354810F093
:1016D0009DFD379936980BF0CFF90420294611F07B
:1016E0000DF8204810F092FD78781A990BF014F953
:1016F0001D4810F08BFDB8781B990BF00DF90620F2
:10170000294610F0FBFF787B04280DD005280DD169
:10171000264810F07BFDB87B401EC0B2062811D8C9
:101720008000234908580EE01F48AFE7F97B2248A4
:101730000329ABD1397C0629A8D0204810F066FDDA
:10174000387CE9E70A4810F061FD1A489EE7C04678
:1017500005350100D932010008320100E70300001D
:1017600079340100C7360100CF350100213701006F
:10177000413501006736010009370100A13401003D
:101780000C3701009F360100F436010020330100C0
:10179000073601000B330100BE3201009031010019
:1017A00078350100D33501006E3101009A33010014
:1017B00058300100AA3201005D3101002E330100D2
:1017C000F0B58DB0002611F07BFA04463046314664
:1017D00010F094FFD64810F019FD0194E06A01253D
:1017E00004963146039505916A1E06920A220792D5
:1017F0000746049D2B4611F04FF904460E46079A02
:101800002B4610F019FF381A3025284308A9069AEC
:101810005054029705980A3F049A9041079536D391
:101820000A220027204631463B4611F035F92A436B
:1018300008A8039BC254069911291D46029E28D868
:10184000304664380598B84123D3642200243046DA
:10185000059F3946234611F01FF90A22234611F04D
:101860001BF90798024308A8401942707D20C20066
:1018700030463946234611F00FF9ED1C069A102A1E
:1018800003D8AC4A921BBC41ACD36D1E02E0039D51
:1018900000E06D1C681E0321069010F0DDFA481C64
:1018A000032803D00446032803D114E000240328AE
:1018B00011D008A82F46861EF01940780FF0DAFDE7
:1018C000012C07D0BD1EF05D0FF0D4FDA41E2F46E5
:1018D000F2D100E07D1E0698022810D36C4208A8C1
:1018E0002818C51EA8780FF0C5FD68780FF0C2FD56
:1018F00028780FF0BFFDE41CED1E002CF2D18E48BD
:1019000010F084FC0198006B0021012504910395DF
:1019100005916A1E06920A2202920746049D2B46F2
:1019200011F0BAF804460E46029A2B4610F084FED7
:10193000381A079D284308A9069A5054029705981B
:101940000A3F049A904136D30A22002720463146A6
:101950003B4611F0A1F82A4308A8039BC2540699FC
:1019600011291D46029E28D8304664380598B84192
:1019700023D3642200243046059F3946234611F0C4
:101980008BF80A22234611F087F80798024308A82B
:10199000401942707D20C20030463946234611F07E
:1019A0007BF8ED1C069A102A03D8624A921BBC41B0
:1019B000ADD36D1E02E0039D00E06D1C681E032187
:1019C000069010F049FA481C032803D00446032867
:1019D00003D114E00024032811D008A82F46861E46
:1019E000F01940780FF046FD012C07D0BD1EF05DC8
:1019F0000FF040FDA41E2F46F2D100E07D1E069898
:101A0000022810D36C4208A82818C51EA8780FF029
:101A100031FD68780FF02EFD28780FF02BFDE41CC7
:101A2000ED1E002CF2D102200024214610F066FEAB
:101A3000424810F0EBFB0198406B012504942146CD
:101A4000039505916A1E06920A2202920746049D9A
:101A50002B4611F021F804460E46029A2B4610F050
:101A6000EBFD381A079D284308A9069A505402979F
:101A700005980A3F049A904136D30A22002720464F
:101A800031463B4611F008F82A4308A8039BC2548C
:101A9000069911291D46029E28D8304664380598BB
:101AA000B84123D3642200243046059F394623469B
:101AB00010F0F2FF0A22234610F0EEFF07980243CF
:101AC00008A8401942707D20C2003046394623469E
:101AD00010F0E2FFED1C069A102A03D8154A921B5B
:101AE000BC41ADD36D1E02E0039D00E06D1C681E7D
:101AF0000321069010F0B0F9481C032803D00446D7
:101B0000032803D11DE0002403281AD008A82F467B
:101B1000861EF01940780FF0ADFC012C10D0BD1ED0
:101B2000F05D0FF0A7FCA41E2F46F2D109E0C046DD
:101B3000DC360100E70300009B3501008F36010011
:101B40007D1E0698022810D36C4208A82818C51ECE
:101B5000A8780FF08FFC68780FF08CFC28780FF0D5
:101B600089FCE41CED1E002CF2D1D64810F04EFB8F
:101B70000198806B002101250491039505916A1E4F
:101B800006920A2202920746049D2B4610F084FF1B
:101B900004460E46029A2B4610F04EFD381A079D59
:101BA000284308A9069A5054029705980A3F049AB8
:101BB000904136D30A220027204631463B4610F09A
:101BC0006BFF2A4308A8039BC254069911291D469E
:101BD000029E28D8304664380598B84123D3642241
:101BE00000243046059F3946234610F055FF0A224F
:101BF000234610F051FF0798024308A8401942708D
:101C00007D20C20030463946234610F045FFED1CCA
:101C1000069A102A03D8AC4A921BBC41ADD36D1E64
:101C200002E0039D00E06D1C681E0321069010F089
:101C300013F9481C032803D00446032803D114E0F9
:101C40000024032811D008A82F46861EF0194078DA
:101C50000FF010FC012C07D0BD1EF05D0FF00AFC48
:101C6000A41E2F46F2D100E07D1E0698022810D354
:101C70006C4208A82818C51EA8780FF0FBFB6878EE
:101C80000FF0F8FB28780FF0F5FBE41CED1E002C9C
:101C9000F2D104200024214610F030FD8B4810F0D2
:101CA000B5FA0198C06B012504942146039505916E
:101CB0006A1E06920A2202920746049D2B4610F0E5
:101CC000EBFE04460E46029A2B4610F0B5FC381A7D
:101CD000079D284308A9069A5054029705980A3F81
:101CE000049A904136D30A220027204631463B46CB
:101CF00010F0D2FE2A4308A8039BC254069911296A
:101D00001D46029E28D8304664380598B84123D332
:101D1000642200243046059F3946234610F0BCFE5D
:101D20000A22234610F0B8FE0798024308A840197B
:101D300042707D20C20030463946234610F0ACFE8A
:101D4000ED1C069A102A03D85F4A921BBC41ADD302
:101D50006D1E02E0039D00E06D1C681E03210690CD
:101D600010F07AF8481C032803D00446032803D156
:101D700014E00024032811D008A82F46861EF0196D
:101D800040780FF077FB012C07D0BD1EF05D0FF0FF
:101D900071FBA41E2F46F2D100E07D1E069802289A
:101DA00010D36C4208A82818C51EA8780FF062FB53
:101DB00068780FF05FFB28780FF05CFBE41CED1EE9
:101DC000002CF2D1424810F021FA0198C06C002199
:101DD00001250491039505916A1E06920A2202923A
:101DE0000746049D2B4610F057FE04460E46029A05
:101DF0002B4610F021FC381A079D284308A9069AA3
:101E00005054029705980A3F049A904136D30A220B
:101E10000027204631463B4610F03EFE2A4308A8E4
:101E2000039BC254069911291D46029E28D83046AC
:101E300064380598B84123D3642200243046059FB6
:101E40003946234610F028FE0A22234610F024FECD
:101E50000798024308A8401942707D20C20030460E
:101E60003946234610F018FEED1C069A102A03D8B6
:101E7000154A921BBC41ADD36D1E02E0039D00E0EC
:101E80006D1C681E032106900FF0E6FF481C032816
:101E900003D00446032803D11DE0002403281AD0F0
:101EA00008A82F46861EF01940780FF0E3FA012C9F
:101EB00010D0BD1EF05D0FF0DDFAA41E2F46F2D14A
:101EC00009E0C046AA350100E70300009B36010087
:101ED000B53401007D1E0698022810D36C4208A874
:101EE0002818C51EA8780FF0C5FA68780FF0C2FA56
:101EF00028780FF0BFFAE41CED1E002CF2D106206A
:101F00000024214610F0FAFBE04810F07FF9019818
:101F1000006C012504942146039505916A1E0692E2
:101F20000A2202920746049D2B4610F0B5FD044696
:101F30000E46029A2B4610F07FFB381A079D284365
:101F400008A9069A5054029705980A3F049A9041AE
:101F500036D30A220027204631463B4610F09CFD2E
:101F60002A4308A8039BC254069911291D46029EC4
:101F700028D8304664380598B84123D36422002419
:101F80003046059F3946234610F086FD0A22234637
:101F900010F082FD0798024308A8401942707D2086
:101FA000C20030463946234610F076FDED1C069AF5
:101FB000102A03D8B44A921BBC41ADD36D1E02E077
:101FC000039D00E06D1C681E032106900FF044FF86
:101FD000481C032803D00446032803D114E000243E
:101FE000032811D008A82F46861EF01940780FF05C
:101FF00041FA012C07D0BD1EF05D0FF03BFAA41E84
:102000002F46F2D100E07D1E0698022810D36C42C4
:1020100008A82818C51EA8780FF02CFA68780FF0C9
:1020200029FA28780FF026FAE41CED1E002CF2D1D4
:10203000974810F0EBF80198406C002101250491BD
:10204000039505916A1E06920A2202920746049D94
:102050002B4610F021FD04460E46029A2B4610F046
:10206000EBFA381A079D284308A9069A505402979C
:1020700005980A3F049A904136D30A220027204649
:1020800031463B4610F008FD2A4308A8039BC25482
:10209000069911291D46029E28D8304664380598B5
:1020A000B84123D3642200243046059F3946234695
:1020B00010F0F2FC0A22234610F0EEFC07980243CF
:1020C00008A8401942707D20C20030463946234698
:1020D00010F0E2FCED1C069A102A03D86A4A921B03
:1020E000BC41ADD36D1E02E0039D00E06D1C681E77
:1020F000032106900FF0B0FE481C032803D00446CD
:10210000032803D114E00024032811D008A82F4687
:10211000861EF01940780FF0ADF9012C07D0BD1ED6
:10212000F05D0FF0A7F9A41E2F46F2D100E07D1E4E
:102130000698022810D36C4208A82818C51EA87853
:102140000FF098F968780FF095F928780FF092F968
:10215000E41CED1E002CF2D14E4810F057F8019807
:10216000866C002001240490014603940691601EB1
:1021700005900A2202923046049D2B4610F08CFCFA
:1021800007460C46029A2B4610F056FA301A079D65
:10219000284308A9059A505402960A3E06980499C5
:1021A000884136D30A22002638462146334610F0AD
:1021B00073FC06992A4308A8039C0255059B112B22
:1021C000029D28D8284664380846B04123D36422AB
:1021D0001E46002728463B4610F05EFC0A223B467E
:1021E00010F05AFC0798024308A8001942707D209D
:1021F000C200284606993B4610F04EFC069BE41CA4
:10220000102E04D8204A521B9F410646ADD3641EAF
:1022100002E0039C00E0641C2646601E0321079038
:102220000FF01AFE481C032803D00546032803D1EB
:1022300014E00025032811D008A8841E3746E019B1
:1022400040780FF017F9012D07D0BE1EE05D0FF0AA
:1022500011F9AD1E3746F2D100E07E1E0798022824
:1022600010D3744208A83018C51EA8780FF002F9E0
:1022700068780FF0FFF828780FF0FCF8E41CED1EEA
:10228000002CF2D10DB0F0BDE7030000B336010021
:10229000C93401008D340100F0B5B3B00220C04351
:1022A00008902AA810F024FB0AA8432101704621B7
:1022B0004170472282702C210791C1704B25057116
:1022C000502141713D21069181712A9C002C03927D
:1022D00004D4002C65D00495072105E004950AA8D4
:1022E0002D21C171644208210898851C00270591A1
:1022F00009910998401C09900A26204631460FF0A2
:10230000ABFD4643A11B30220A437E1C30A9CA55AF
:102310006D1C082F03D8092C37460446E9D8032141
:1023200028460FF099FD089948438119CA1E00D12B
:102330001146701E002A18D002900AAA0598121899
:1023400030AB9C1E4D1E0023A7197F78D7549D42A9
:102350000DD0B71EA65DD01846709B1C99423E4614
:10236000F2D10599C9183E4605E0059904E00598A3
:10237000C018411C761E02980228049D0FD30AA89B
:10238000401830A9C91E8A19937803705278427098
:10239000F21E8B5D8370C01C002A1646F3D1099E85
:1023A00003E00AA83021C1710826F0B2371D0AA93E
:1023B0000A18079B0B54557044200590907006989E
:1023C000D0702B9C002C02D40DD0049718E070B272
:1023D0000321C943884211DBF8B2711D04910AA997
:1023E0002D220A540BE070B20321C943884265DBF9
:1023F000F8B2771D0AA930220A545FE004976442BC
:102400000898851C0027049809900998401C099099
:102410000A26204631460FF01FFD4643A11B3022FD
:102420000A437E1C30A9CA556D1C082F03D8092CFD
:1024300037460446E9D8032128460FF00DFD0899D8
:1024400048438319D91E00D10B460498C4B2701EAC
:10245000002917D002900AA904940C1930A98F1EE4
:10246000591E0025BA1952786255A9420ED0B21EE3
:10247000BE5D60194670AD1CAB421646F2D1049C9D
:10248000641907E03246022807D216E00498401982
:10249000441C721E029802280FD30AA8001930A902
:1024A000C91E8B189C7804705B784370D31E8A5CBD
:1024B0008270C01C002B1A46F3D1099FF8B27D1D13
:1024C0000AA90A18079B0B54059850704920907070
:1024D0005223D3700698107114202AA90C56002C90
:1024E000029302D40DD0049518E078B20421C943B8
:1024F000884211DBE8B2B91D04910AA92D220A54C1
:102500000BE078B20421C943884265DBE8B2BD1D07
:102510000AA930220A545FE0049564420898851C99
:102520000027049809900998401C09900A26204623
:1025300031460FF091FC4643A11B30220A437E1C1A
:1025400030A9CA556D1C082F03D8092C37460446FC
:10255000E9D8032128460FF07FFC089948438319E6
:10256000D91E00D10B460498C4B2701E002917D0A2
:1025700001900AA904940C1930A98F1E591E002538
:10258000BA1952786255A9420ED0B21EBE5D6019CA
:102590004670AD1CAB421646F2D1049C641907E0AC
:1025A0003246022807D216E004984019441C721ED5
:1025B000019802280FD30AA8001930A9C91E8B1848
:1025C0009C7804705B784370D31E8A5C8270C01C58
:1025D000002B1A46F3D1099DE8B26E1D0AA90A180C
:1025E000079B0B544D205070412090705820D070A4
:1025F000069810712C9C002C0BD415D168B20421C4
:10260000C94388426EDBF0B2AE1D0AA930220A54DB
:1026100068E068B20421C943884204DBF0B2AE1D11
:102620000AA92D220A5464420898851C00270496A2
:1026300009960998401C09900A26204631460FF059
:102640000BFC4643A11B30220A437E1C30A9CA550D
:102650006D1C082F03D8092C37460446E9D80321FE
:1026600028460FF0F9FB089948438319D91E00D179
:102670000B460498C4B2701E002917D001900AA915
:1026800004940C1930A98F1E591E0025BA195278CE
:102690006255A9420ED0B21EBE5D60194670AD1CD7
:1026A000AB421646F2D1049C641907E03246022878
:1026B00007D216E004984019441C721E01980228A3
:1026C0000FD30AA8001930A9C91E8B189C78047072
:1026D0005B784370D31E8A5C8270C01C002B1A4644
:1026E000F3D1099EF0B2B71D0AA90A18079B0B5433
:1026F000532050704C2090704520D070572010719E
:10270000069850712D9C002C02D40DD0049718E02F
:1027100070B20521C943884211DBF8B2F11D049162
:102720000AA92D220A540BE070B20521C943884240
:1027300065DBF8B2F71D0AA930220A545FE004975E
:1027400064420898851C0027049809900998401C49
:1027500009900A26204631460FF07EFB4643A11B16
:1027600030220A437E1C30A9CA556D1C082F03D89D
:10277000092C37460446E9D8032128460FF06CFBA4
:10278000089948438319D91E00D10B460498C4B256
:10279000701E002917D001900AA904940C1930A9C1
:1027A0008F1E591E0025BA1952786255A9420ED0C3
:1027B000B21EBE5D60194670AD1CAB421646F2D12A
:1027C000049C641907E03246022807D216E00498F8
:1027D0004019441C721E019802280FD30AA8001940
:1027E00030A9C91E8B189C7804705B784370D31E87
:1027F0008A5C8270C01C002B1A46F3D1099FFBB281
:102800003C1D0AA8C118079A0493C2540598487041
:10281000422088700698C8702AA8058A002D41D0E9
:102820000594791D0898841C002709910A262846DA
:1028300031460FF011FB099B4643A91B30220A4386
:102840007E1C30A9CA55641C082F04D8591C092DB8
:1028500037460546E9D8032120460FF0FDFA0899CE
:1028600048438119CA1E00D11146731E002A25D083
:1028700005930AA8049A821830A8841E4D1E0023CE
:10288000A0194778D01807719D421CD0B71EA65DCD
:1028900046719B1C99423E46F2D10498C018011D16
:1028A0003E4614E078B20321C943884204DBE0B21B
:1028B0007C1D0AA930220A54039A1DE00598C1B272
:1028C000022B07D216E00498C018411D761E059B06
:1028D000022B0FD30AA8401830A9C91E8A19937871
:1028E000037052784270F21E8B5D8370C01C002A08
:1028F0001646F3D1039A099CE5B2261D0AA8411990
:10290000079B05954355029848708A700698C870D1
:102910002AA8458A002D41D00796611D0898841C7D
:10292000002709910A26284631460FF095FA099B9F
:102930004643A91B30220A437E1C30A9CA55641C99
:10294000082F04D8591C092D37460546E9D803211C
:1029500020460FF081FA089941438919CA1E00D117
:102960001146731E002A24D008930AA8059A8218DB
:1029700030A8841E4D1E0023A0194778D018077177
:102980009D421BD0B71EA65D46719B1C99423E46D8
:10299000F2D10598C018011D3E4613E060B2032134
:1029A000C943884223DBF0B2631D0AA930220A54CE
:1029B0001EE00798C1B2022B07D216E00598C01896
:1029C000411D761E089B022B0FD30AA8401830A980
:1029D000C91E8A199378037052784270F21E8B5D7B
:1029E0008370C01C002A1646F3D1099B00E03346D1
:1029F000314D981CD9B20AAA53180D2454540A21F7
:102A00005970C7B22D4800882D4E3188C9434018EF
:102A10002840B84205D22C488169491C816133B0F5
:102A2000F0BD7C1E032120460FF016FA4A1C00213F
:102A3000032A084600D010460892022C20D3391AE7
:102A4000099100211F4C0AAA5718525C2B46358861
:102A500062553288521C1A4032807A783588625525
:102A60003288521C1A403280BA78358862551D4629
:102A70003288521C1A403280C91C099A8A42E2D11B
:102A8000089A032A15D00AAA51180E4A0B783488DE
:102A9000135533885B1C2B403380012809D04B78B9
:102AA0003488135533885B1C2B403380891C801E6F
:102AB000ECD133B0F0BDC046FF070000FC18202069
:102AC000FA18202000002020FC162020F0B59FB02E
:102AD00010F026F9054610F027F9064610F0A4F884
:102AE000297800240029049602D06968411A00E080
:102AF000E1436F78781E874108919729059501D3A6
:102B0000264600E001260BAD28460FF0A7FD285F02
:102B10001221059D0291695E411ADF48814200DB66
:102B20000146DE48814200DC0146039120462146F1
:102B30000FF0E4FDDA480FF069FB2878002804D094
:102B40000898962803D9D74807E0D74805E0687861
:102B5000002801D0D54800E0D54837403E46D54C46
:102B60000FF054FBD4480FF051FB2878002860D0B8
:102B700001960898A04200D30894002001260690F0
:102B80000146089C07910996701E0A900A22089235
:102B90002046069E33460FF07FFF05460F46089AF3
:102BA00033460FF049FD201A302318431AA90A9A18
:102BB000505408940A3C07980446B0413ED30A2278
:102BC0000026284639461D4633460FF065FF2A4346
:102BD0001AA8099942540A991129089830D8274609
:102BE000014664392146B1412AD32B46642200258F
:102BF000044639461E462B460FF04EFF0A222B464E
:102C00000FF04AFF32431AA8099E801942707D20B6
:102C1000C200204639462B460FF03EFFF61C0A9AAA
:102C2000102A04D8A34A121BBD410446AAD3761E1B
:102C300008E0A2480FF0EAFA049F3BE0099E01E099
:102C4000099E761C701E03210A900FF005F9481C9E
:102C5000032803D00546032803D114E000250328E8
:102C600011D01AA8841E3746E01940780EF002FCF5
:102C7000012D07D0BE1EE05D0EF0FCFBAD1E3746F9
:102C8000F2D100E07E1E0A98022810D374421AA8DE
:102C90003018C51EA8780EF0EDFB68780EF0EAFB40
:102CA00028780EF0E7FBE41CED1E002CF2D1049F07
:102CB000059D019E0220002421460FF01FFD804843
:102CC0000FF0A4FA002E04D00298285E09F0B8FC98
:102CD00002E07C480FF09AFA7B480FF097FA0BA8B5
:102CE000005F09F0ADFC79480FF090FA002E04D097
:102CF000039800B209F0A4FC02E072480FF086FAD3
:102D0000042000210FF0FAFC71480FF07FFA062032
:102D10000BAC205E09F094FC6E480FF077FA109827
:102D20005E49884200DC08465B49884200DB084671
:102D300009F086FC68480FF069FA3920205C052804
:102D400003D880006549085800E065480FF05EFA36
:102D50000620002421460FF0D1FC287800286BD0F3
:102D600060480FF053FA288A0BF0D4FF5E480FF04A
:102D70004DFA688B0BF0CEFF5C480FF047FA0FF06E
:102D8000DDFC012206942146144609940891621E36
:102D90000A920A2207920546069C23460FF07CFE03
:102DA00007460E46079A23460FF046FC281A3023A2
:102DB00018431AA90A9A5054079508990A3D0846DB
:102DC000A04142D30A220C460025384631461E4611
:102DD0002B460FF061FE334632431AA8099942543C
:102DE0000A991129079E32D8304664382046A841F6
:102DF0002DD3642200273046254621461C463B46FB
:102E00000FF04AFE0A223B460FF046FE22431AA864
:102E1000099C001942707D20C200304629463B467D
:102E20000FF03AFEE41C0A9A102A03D8214A921B9A
:102E3000AF41AAD3641E0CE02D480FF0E7F93868C3
:102E4000C0087C2856D91B4E55E0099C01E0099C1E
:102E5000641C601E03210A900EF0FEFF481C03282C
:102E600014D00546032814D01AA82746841EE0195A
:102E700040780EF0FFFA012D00D196E0BE1EE05D15
:102E80000EF0F8FAAD1E3746F1D18FE00025032889
:102E9000EAD126468AE0C046FF7F00000080FFFF9F
:102EA00046330100643301001E350100FD36010088
:102EB00041350100E7030000173601007B360100B1
:102EC0000C370100D93201009F3601003F36010066
:102ED0000F370100E73501002B370100903001006A
:102EE000AF360100243701005336010007360100D8
:102EF000D03601003E68002001250590014607916B
:102F00000895681E09900A220A923046059C2346BD
:102F10000FF0C2FD07460D460A9A23460FF08CFBC0
:102F2000301A302318431AA9099A505406960A3EBB
:102F300007980646A0410A934ED30A220024384639
:102F4000294623460FF0A8FD0A9802431AA80899BB
:102F50004254099B112B06980D463FD8014664390F
:102F60003146A1413AD364220027044631463B460C
:102F70000FF092FD0A223B460FF08EFD0A980243A5
:102F80001AA8401942707D20C200204631463B46B7
:102F90000FF082FDED1C099A102A04D8C34A121BB7
:102FA000B7410646ABD36D1E19E07E1E0A98022873
:102FB00000D278E174421AA83018C51EA8780EF025
:102FC00059FA68780EF056FA28780EF053FAE41C95
:102FD000ED1E002CF2D166E1089D00E06D1C681E1C
:102FE000032109900EF038FF481C032812D0064632
:102FF000032812D01AA8841E601940780EF03AFAFD
:10300000012E0CD0AF1E605D0EF034FAB61E3D46A8
:10301000F2D105E000260328ECD12F4600E06F1E18
:103020000998022810D37C421AA83818C51EA8781F
:103030000EF020FA68780EF01DFA28780EF01AFAD1
:10304000E41CED1E002CF2D19A480FF0DFF8049832
:1030500005699648854200D3054600200124049066
:1030600001460891601E09900A2207922846049E94
:1030700033460FF011FD07460691079A33460FF0CD
:10308000DBFA281A22460A9C20431AA9099B5854A5
:1030900007950A3D08980546B04136D305920A22A5
:1030A00000263846069933460FF0F6FC22431AA84C
:1030B000059C025509991129079828D80246643AB7
:1030C0002A46B24123D364220027294606463B46BE
:1030D0000FF0E2FC0A223B460FF0DEFC0A980243A6
:1030E0001AA8001942707D20C200304629463B468E
:1030F0000FF0D2FCE41C099A102A04D86B4A921BE8
:10310000AF410546ADD3641E02E0144600E0641CE6
:103110002646601E032109900EF09EFE481C0328DF
:1031200003D00546032803D114E00025032811D05D
:103130001AA8841E3746E01940780EF09BF9012D3D
:1031400007D0BE1EE05D0EF095F9AD1E3746F2D1F8
:1031500000E07E1E0998022810D374421AA8301885
:10316000C51EA8780EF086F968780EF083F92878E5
:103170000EF080F9E41CED1E002CF2D14C480FF04B
:1031800045F80FF0DBFA002101250791069508911B
:103190006A1E09920A2205920646079C23460FF0F2
:1031A0007BFC07460D46059A23460FF045FA301A78
:1031B0000A9C20431AA9099A5054059608980A3E79
:1031C000079A904136D30A220026384629463346CC
:1031D0000FF062FC22431AA8069BC25409991129D8
:1031E0001D46059C28D8204664380898B04123D352
:1031F000642200272046089E31463B460FF04CFCD7
:103200000A223B460FF048FC0A9802431AA84019CC
:1032100042707D20C200204631463B460FF03CFC08
:10322000ED1C099A102A03D8204A121BB741ADD3CE
:103230006D1E02E0069D00E06D1C2E46681E0321F7
:103240000A900EF009FE481C032803D00546032807
:1032500003D114E00025032811D01AA8841E374694
:10326000E01940780EF006F9012D07D0BE1EE05D92
:103270000EF000F9AD1E3746F2D100E07E1E0A982E
:10328000022810D374421AA83018C51EA8780EF070
:10329000F1F868780EF0EEF828780EF0EBF8E41C00
:1032A000ED1E002CF2D11FB0F0BDC046E7030000B8
:1032B0000736010087360100F0B587B05B4E3178E4
:1032C0007078B37899420A4600D31A46814200D3F7
:1032D000104630700420315E0620305E0822B35E56
:1032E00099420A4600DB1A46814200DB1046B08054
:1032F0000A20315E0C20305E0E22B35E99420A46EF
:1033000000DB1A46814200DB104670811020315EDE
:103310001220305E14220492B35E99420A4600DB0A
:103320001A46814200DB104630821620315E18209A
:10333000305E1A22B35E99420A4600DB1A46814289
:1033400000DB1046F0821C20315E1E20305E202201
:10335000B35E99420A4600DB1A46814200DB104602
:10336000B0832220315E7D25E800814200DB0146EA
:10337000CA17914371842421715E814200DB0146AA
:10338000CA179143B1842621725E824200DB024655
:103390000121012A00DC0A46F2842820335C072B35
:1033A0001A4600D30722002B0B4600D01346335495
:1033B0002922B45C642C234600D36423002C00D063
:1033C00019461B4BB154718DC82901D2C82102E0A6
:1033D0009942194600D971852B01B18D642901D21A
:1033E000642102E09942194600D9B1850695EF00A3
:1033F000F18D282902D3B942384601D9F08501461A
:10340000328E8A42104600D808468A4201D398423A
:1034100005D906990901884200D308463086716BA8
:10342000C829059306D2C82007E0C046D00F202047
:1034300088130000D348814200D97063B46B002127
:1034400020460DF02BFE002805D1CF4920460DF077
:1034500039FE002801D0CD4CB463F56B002128461D
:103460000DF01CFE002805D1284621460DF020FE57
:10347000002801D0C648F063346C002120460DF0CE
:103480000DFE002805D1C34920460DF01BFE002883
:1034900001D0BF4830644420315ABF4A8918491EC0
:1034A00089B2BE4A914201D8642131524620315E30
:1034B000069AD200914200DB1146CA17914331525D
:1034C0004820315AB64A8918143989B2FD4A9142C6
:1034D00001D8C82131525021705A0246153A049B36
:1034E000DB439A4201D8052070525221725A642A55
:1034F00001D8824201D2642070525421705AF24A9B
:103500008218521E92B2F14B9A4201D83C2070525E
:103510005621725ABA4201D8824201D864207052B0
:10352000B46D002120460DF0B9FD0028069F05D19D
:10353000E74920460DF0C6FD002801D0E548B065FA
:103540005C20315C012903D0FF2901D0FF213154D7
:103550005E21725EF800824200DB0246D3179A4376
:1035600072526021725E824200DB0246D3179A4398
:1035700072526221725E824200DB0246012A00DC46
:10358000012272526422B05EC82800DBC820C11735
:1035900088430492B052B46E002120460DF092FD93
:1035A000002805D0C54920460DF08CFD002801D02B
:1035B000C14CB466F56E002128460DF083FD00284D
:1035C00005D0284621460DF073FD002801D0C248E1
:1035D000F0667020315EFA00914200DB114601294D
:1035E00000DC01213152756F002128460DF06AFD83
:1035F000002806D03F20010628460DF063FD002874
:1036000001D0B6487067B56F284629460FF0E8F933
:1036100000280BD1284621460DF036FD002805D1A3
:10362000A64928460DF04EFD002801D0AC48B067F1
:10363000A34DF46F002120460DF03AFD002805D07F
:10364000A74920460DF03EFD002802D0012080074A
:10365000F0678020315A6918491E89B2A94201D207
:10366000C821315284257459002120460DF02AFDCD
:10367000002805D08F4920460DF024FD002801D0F8
:103680009748705188257459002120460DF01AFD85
:1036900047424741B8203158204603910DF012FDB2
:1036A000411E88413843012801D18E4C74510125B7
:1036B0008C2001903758384639460FF091F9029026
:1036C000384621460DF0E0FC0446384603990DF0DB
:1036D000F9FC411E8841002C294600D10146029880
:1036E0000028069F00D10D46012D02D17E48019988
:1036F00070509020325E9221715E9423F45EA2425B
:10370000134600DB23468A4200DB194631529620DD
:10371000315E5A29664C00DB5A215922D24391422C
:10372000059B00DC114631529A20315E782900DB7E
:1037300078217722D243914200DC11463152982001
:10374000315A6429049A02D3A142224600D9325246
:103750009C20315AA14200D934529E20315A9942BC
:1037600000D93352A020315A642901D2642301E0E8
:10377000994200D93352A420325891087D2911D2A0
:10378000B90012E0102700000000B44200004041E0
:103790000000A0400000C84230F8FFFF2FF80000F2
:1037A0002BFCFFFF51498A4200D93150F021725E53
:1037B000F800824200DB0246D3179A437252F2218C
:1037C000725E824200DB0246D01782437252F420BE
:1037D0003158474A8918491E914201D23901315066
:1037E000F8257459002120460DF058FC002806D118
:1037F0007F20C10520460DF065FC002801D03D4822
:103800007051FC257459002120460DF047FC00281A
:1038100006D17F20C10520460DF054FC002801D0C0
:103820002E487051012005027459002120460DF0E8
:103830002BFC002805D1304920460DF043FC002820
:1038400001D02E4870514120850074590021204636
:103850000DF01AFC002806D17F20C10520460DF08E
:1038600031FC002801D0264870512120C100725E31
:10387000F800824200DB0246D3179A437252852138
:103880004900725E824200DB0246D01782437252C8
:1038900043208100705A002801D1052070528721F1
:1038A0004900725A824200D2705207B0F0BDC04641
:1038B000881300000000B4420000A0400000C8428D
:1038C00030F800002AFC00000CFEFFFF0BFE000099
:1038D0000000FA430000F543CDCC4C3FCDCC4C3E2C
:1038E0000000A0410000C84100003442983A0000A6
:1038F000F0D8FFFF3333B33E000020419A99193FBF
:103900000AD7233CF0B58FB06E460D2800D161E197
:103910000A281BD1F24F3878F24D29784A424A41A1
:1039200002431DD0002800D1E1E2EF48EF490A88A8
:10393000EF490B88DB43D218C31E13400B2B00D971
:10394000E4E0EC488169491C816134E101467F393A
:10395000C9B2A02961D8F648012101700FB0F0BDAD
:10396000F94800254554F74FF968491CF96001787A
:1039700042781202511882781204C078000680182A
:103980004018F249884200D1ABE0EF4CF0490522E3
:1039900020460EF0E3FE00284DD020786178090221
:1039A0000818582847D02078617809020818A178AB
:1039B0000904E278120651180818E649884200D135
:1039C00029E220786178090208183F2800D122E214
:1039D0002078617809020818A1780904E2781206B3
:1039E00051180818DC49884200D185E12078002868
:1039F00000D115E23D2800D1FCE16078002800D11B
:103A00000EE23D2800D1F2E1A078002800D107E2C3
:103A10003D2800D1EDE1E41CE8E7C54B1978002909
:103A200000D0D7E0C34A11782F2900D2C8E0012086
:103A300018700FB0F0BDC04C0EF0C0FEBF4801883A
:103A4000BF480288D2438918621E0A400A2AB94D2B
:103A500058D30288C14941238B540288521C22400A
:103A60000280028843238B540288521C2240028029
:103A700002884B238B540288521C22400280028809
:103A80002C238B540288521C22400280028853232C
:103A90008B540288521C22400280028854238B548B
:103AA0000288521C2240028002884F238B540288D5
:103AB000521C22400280028850238B540288521CE0
:103AC0002240028002880D238B540288521C22401F
:103AD000028002880A238B540188491C21400180FE
:103AE00004E2954C00200EF0D7F894490A889449D6
:103AF0000B88DB43D218224000286DD0092A8D4D57
:103B000000D3ABE0B869401CB861EFE10C88934A80
:103B1000452313550C88641C04400C800C882E46E9
:103B2000522515550C88641C04400C800C881555D2
:103B30000C88641C04400C800C882C2515550C88BE
:103B4000641C04400C800C884C25155535460C88A7
:103B5000641C04400C800C8813550B885B1C0340CC
:103B60000B800B884E24D4540B885B1C03400B80C5
:103B70000B884724D4540B885B1C03400B800B88B4
:103B80005424D4540B885B1C03400B800B884824BE
:103B9000D4540B885B1C03400B800B880D24D45439
:103BA0000B885B1C03400B800B880A24D4540A88C2
:103BB000521C02400A80DB480169491C016196E100
:103BC0000346613BDBB21A2B00D220384B1C13702A
:103BD000D34A50540FB0F0BD092A00D22BE10A8815
:103BE000D648452383540A88521C22400A800B88F9
:103BF0005222C2540B885B1C23400B800B88C2549A
:103C00000B885B1C23400B800B882C25C5540B882C
:103C10005B1C23400B800B88C2540A88521C224034
:103C20000A800A88552383540A88521C22400A803D
:103C30000A884E2383540A88521C22400A800A882C
:103C40000D2383540A88521C22400A800A880A23C2
:103C500083540888401C2040088043E10A88B74804
:103C6000412383540A88521C22400A800A88432335
:103C700083540A88521C22400A800A884B238354AA
:103C80000A88521C22400A800A882C2383540A88FE
:103C9000521C22400A800A88522383540A88521CEC
:103CA00022400A800A88552383540A88521C2240E5
:103CB0000A800A884E2383540A88521C22400A80B4
:103CC0000A880D2383540A88521C22400A800A88DD
:103CD0000A2383540888401C2040088006E1C0461F
:103CE0000919202012192020FF070000FC182020AD
:103CF000FA182020FC162020343668460EF0AEFC60
:103D000030780028854D03D17078002800D1F3E089
:103D1000874888490A8888490B88DB43D218431EA4
:103D200013400A2B1CD2B869401CB861DBE0C046C6
:103D30000919202012192020FF070000FC1820205C
:103D4000FA182020FC162020C415202052554E00C1
:103D5000BF34010047455400444546000000202080
:103D60000B88764A4524D4540B885B1C03400B8097
:103D70000B885224D4540B885B1C03400B800B88A7
:103D8000D4540B885B1C03400B800B882C24D45428
:103D90000B885B1C03400B800B884224D4540B8897
:103DA0005B1C03400B800B885524D4540B885B1C90
:103DB00003400B800B885324D4540B885B1C0340B6
:103DC0000B800B885924D4540B885B1C03400B8058
:103DD0000B880D24D4540B885B1C03400B800B888C
:103DE0000A24D4540A88521C02400A807BE0641CD6
:103DF00000E0A41C002C13D04948844210D0607805
:103E000000280DD0601C257006F05AFF00287BD0DA
:103E100045480AF05FFAFEF73FFA3F4F3F4D66E034
:103E2000434844490A8844490B88DB43D218C31EDF
:103E300013400B2B03D8B869401CB86152E00B88C3
:103E40003E4A4524D4540B885B1C03400B800C88ED
:103E5000522313550C88641C04400C800C881355A5
:103E60000C88641C04400C800C882C2515550C888B
:103E7000641C04400C800C88462515550C88641C75
:103E800004400C800C884F2515550C88641C044098
:103E90000C800C8813550B885B1C03400B800B882F
:103EA0004D24D4540B885B1C03400B800B884124A9
:103EB000D4540B885B1C03400B800B885424D454CF
:103EC0000B885B1C03400B800B880D24D4540B889B
:103ED0005B1C03400B800B880A24D4540A88521CB4
:103EE00002400A800D4D3869401C38610A4F00209D
:103EF000287038700FB0F0BD0EF05AFA10480AF072
:103F0000E9F9FEF7C9F9F1E708480AF0E3F9386979
:103F1000401C386181E7C046091920201219202071
:103F2000C4152020FC162020B432010014310100F9
:103F3000FF070000FC182020FA1820200000202095
:103F400064320100F0B58FB0DE4D0B90002800D137
:103F50009BE22426A85D002800D196E2FB4F0120B9
:103F60000190FB480EF072FEFA480B994843C00CD2
:103F7000081A002180B20290039108460490039829
:103F800068610BE07C2008212954686E401C68663B
:103F900038460EF05BFE601D2D2C79D20446A85DDC
:103FA00000280AD047200CA9022204F0A3FD002813
:103FB00006D07C200021295408E07C20082101E063
:103FC0007C2009212954686E401C686638460EF032
:103FD0003DFEA85D00280AD047200CA9022204F06B
:103FE00089FD002806D07C200021295408E07C208F
:103FF000082101E07C2009212954686E401C686674
:1040000038460EF023FEA85D00280AD047200CA9F0
:10401000022204F06FFD002806D07C2000212954E4
:1040200008E07C20082101E07C2009212954686EE9
:10403000401C686638460EF009FEA85D00280AD0CC
:1040400047200CA9022204F055FD002806D07C2050
:104050000021295408E07C20082101E07C2009216E
:104060002954686E401C686638460EF0EFFDA85D66
:10407000002887D047200CA9022204F03BFD00282D
:1040800003D07C200021295482E77C2009217BE792
:10409000B148411C0A910027089707973C460990B0
:1040A00009E0641C0A90A9480EF0D0FD7F1CB8B24C
:1040B0000B9988422CD2A85D002820D047200DA95A
:1040C000022204F017FD00281BD00D99C8BA09BAC6
:1040D0007C220023AB54C917089A12180892079A39
:1040E0004A410792099909B28142024600DC0A4618
:1040F00009920A9909B28142D3DB0846D1E7082028
:1041000000E009207C216854686E401C6866CAE79C
:10411000A2B202988242ED4F00D2A7E10024089893
:10412000079923460EF0AEFC06902F6A3846079496
:1041300021460CF0B3FF0890069800B20DF064FF22
:1041400039460CF0E7FA04460898002800D0079C8E
:10415000099800B20A9909B2081A0DF055FF3946BC
:104160000CF0D8FA0746204607990CF08DFF012184
:104170000091C90700280894079100D04C402046C0
:10418000D3490CF09FFF04463846D2490CF09AFF01
:10419000411E8841002C019900D101460029CB4FD6
:1041A00000D063E10898686100240A940EE00820BA
:1041B000099C7C216854686E401C686638460EF085
:1041C00045FD601D0F2C044600D34BE1A85D00287F
:1041D000099433D047200EA9022204F08BFC00285A
:1041E0002ED00E9805907C2000272F542C6A204654
:1041F00039460CF053FF06900598C0BA0DF004FF45
:1042000021460CF087FA0699002900D03846089913
:104210000AF058FE044639460CF036FF002801D05B
:1042200007984440A94F2046AB490CF04BFF0028AB
:1042300000D01BE10A98401C0A9007E0082000E02B
:1042400009207C216854686E401C686638460EF070
:10425000FDFCA85D002833D047200EA9022204F0FF
:1042600049FC002830D00E9805907C2000272F5460
:104270002C6A204639460CF011FF06900598C0BA0A
:104280000DF0C2FE21460CF045FA0699002900D037
:10429000384608990AF016FE044639460CF0F4FE3A
:1042A000002801D007984440884F20468A490CF0E6
:1042B00009FF002800D0D9E00A98401C0A9009E0C4
:1042C000082002E0E011202009207C216854686E5B
:1042D000401C686638460EF0B9FCA85D002833D053
:1042E00047200EA9022204F005FC002836D00E98C3
:1042F00005907C2000272F542C6A204639460CF06C
:10430000CDFE06900598C0BA0DF07EFE21460CF059
:1043100001FA0699002900D0384608990AF0D2FD22
:10432000044639460CF0B0FE002801D007984440FE
:10433000664F204668490CF0C5FE002800D095E085
:104340000A98401C0A900FE0082008E00071020063
:104350000024F400CDCC0000FF7F000009207C2168
:104360006854686E401C686638460EF06FFCA85DA5
:10437000002832D047200EA9022204F0BBFB0028FF
:104380002DD00E9805907C2000272F542C6A2046B3
:1043900039460CF083FE06900598C0BA0DF034FE45
:1043A00021460CF0B7F90699002900D03846089943
:1043B0000AF088FD044639460CF066FE002801D05C
:1043C00007984440414F204643490CF07BFE0028AB
:1043D0004CD10A98401C0A9007E0082000E0092010
:1043E0007C216854686E401C686638460EF02EFCCE
:1043F000A85D002800D1DAE647200EA9022204F0C9
:1044000079FB00282CD00E9805907C2000272F5493
:104410002C6A204639460CF041FE06900598C0BA39
:104420000DF0F2FD21460CF075F90699002900D037
:10443000384608990AF046FD044639460CF024FE39
:10444000002801D007984440204F204622490CF014
:1044500039FE00280AD10A98401C0A90099CADE652
:104460000920A5E60A9880B2112825D804980228C8
:1044700007D0044619480EF0E9FB601C022C00D25C
:104480007CE500206861252101E025210020685499
:10449000262168540B23124900220A6011490A6040
:1044A00011490A7011490A7029216A54EA616A8522
:1044B0007C216B540FB0F0BD2520009929540023B6
:1044C000EB84AB652B660198E5E7C04600710200FE
:1044D000000020410000A0400000404000A8610012
:1044E000BC18202064142020101920201E19202020
:1044F000F0B597B0099103901C99002B01D00020D2
:1045000018800493002901D0002008800A920591A8
:10451000DC4801210C910170DB49F020085AF2219E
:104520000B91F4210D912121C9001291852149009F
:1045300013914321890010910026FC210F91F8214D
:104540000E9141210191890011917D210291C900B3
:1045500008918842304671D8CB480B99415E0029BA
:1045600030466BD4C9488142304667DAC6480D9957
:1045700040580028304661D0C3491298085E169012
:104580001398085E15901098085A14900F980C58BC
:104590000E980F581198085806900C980002085869
:1045A0000790002138460CF08DFD0028304645D09C
:1045B0007F20C505384629460CF070FD002830469E
:1045C0003CD0002120460CF07DFD0028304635D03F
:1045D000204629460CF062FD002830462ED00021EE
:1045E00007980CF065FD0028304627D00024069877
:1045F00021460CF05DFD002830461FD0169800289B
:1046000030461BD4A14816998142304616DA1598D7
:104610000028304612D4FC481599814230460DDA04
:1046200014980028304609D087204000F549085AE0
:104630001499884201D2204600E00120F04C6070BD
:104640007F210998084060710DF09CFEA071411E09
:1046500002468A412271002803D060790CF00EFCDA
:10466000064626810A9887B208998F4200D30F46E2
:10467000002800D50027E783E06B401C00D2E063F0
:10468000207800280AD06078002807D02622A35C72
:10469000032B0ED10021218408468CE1002060808C
:1046A000E06020616061A061A0832062A08417B0F7
:1046B000F0BD591E2079012910D8002800D18DE0C5
:1046C0000020E06220866080E06020616061A0617F
:1046D000A083606221462431087102E0002800D1E5
:1046E00095E0607932216054A68601990140012944
:1046F00004D0084640290BD1012000E0FF202721EB
:104700006054282001212154A06B401C00D2A063DA
:10471000E07800284DD0E468BA490F980858159001
:104720000E980D5830460DF06FFC21460AF0CAFB7A
:10473000014628460BF056FE21460AF0C8FB1690AB
:10474000AF49C8601098AF49085A01210026039A62
:1047500090420B4600D9334687225200A94DAA5AEF
:10476000039DAA4200D231460B40A54EB370012BE7
:10477000169D2DD1284621460AF0A4FB0446039835
:104780000DF0A2FE0146A2480BF0C4FF21460BF03B
:1047900029FE3061746921460AF094FB01461598A0
:1047A0000BF020FE21460AF092FB01467061954E07
:1047B00083E030460DF028FC05460021E0602161D1
:1047C00061610120E070A078002861D08D4E74E016
:1047D00000213161716134468A4E60E0E06A039DD8
:1047E00029180020A94200D2C143E1622546854E26
:1047F0000D9C3459A14234D20B98315A0022012B1E
:10480000104600D00846012B7D4C28D1F2E0002054
:104810006080A084E06020616061A061A0832821A5
:10482000615C0029774D00D1D1E02721635CFF2B2B
:1048300001D002210C910C99A1542086039EE662BE
:104840000D996958B14200D8CCE00B98295A002242
:10485000FF2B104600D00846FF2B00D1CAE01146BE
:10486000C8E06880A884E86028616861A861A883BE
:104870000321A954654929860146049A2C462884B7
:104880009AE0C04648152020D00F2020E903000000
:1048900016955C4E1098305A87214900725A0123B0
:1048A0000021039DA842184600D90846039DAA424C
:1048B00000D20B461840A070169D012016900002F1
:1048C0003458119830580BF08DFD06462046294685
:1048D0000BF088FD31460AF0FAFA05464848856132
:1048E000129848490E5A284629460EF079F80028B1
:1048F00000D082E0744220B20DF086FB01462846CB
:104900000CF0CCFB002819D130B20DF07DFB014634
:1049100028460CF0CDFB002834460FD10021284654
:104920000CF0C6FB002801D1BF2000E03F200106AB
:1049300028460AF0CCFA0DF019FC0446304884836E
:1049400020B21590C0190299CA009042044600D3C3
:104950001446002100280D462A4B00D425466C1E23
:104960002846A041139C1C5FA542169E00DB0E4604
:1049700030402426224B98550028084600D128466E
:104980001F4D2884159BFD1A95422B4600D31346D4
:10499000002D0A4600D41A46551E1346AB41A242CA
:1049A00000DB1691169C23402524154D2B552C46D3
:1049B000002B00D11146049A6184002A00D0108097
:1049C0000599002901D0608C088017B0F0BD002146
:1049D000E162E170252021540320A054012000024F
:1049E000208658E6E070252160540321A154074930
:1049F00021860146049A2084DEE700249EE7C04613
:104A000048152020D00F2020E903000001020000FB
:104A100000007A44F0B58FB00EF092F90746806935
:104A20000DF0A4FBB44CA04200DC2046B34EB042D3
:104A300000DB30460290F8690DF098FBA04200DCE4
:104A40002046B04200DB304601900025284629462A
:104A50000DF054FEAA480DF0D9FB3868A04200DCE6
:104A60002046B04200DB304607F0EAFDA5480DF0D5
:104A7000CDFB7868A04200DC2046B04200DB304627
:104A800007F0DEFD022029460DF038FE9E480DF0AD
:104A9000BDFBFE68BC68002E01D4354604E02D2025
:104AA0000CF0E8FC6442B54103974A3700970023B5
:104AB000964A2046294606930DF0EEFF1046194609
:104AC0000125059507916A1E08920A220992064659
:104AD000069F3B460DF0E0FF04460D46099A3B4613
:104AE0000DF0AAFD301A302738430AA9089A50540D
:104AF000049607980A3E069A9041099736D30A22EF
:104B000000262046294633460DF0C6FF3A430AA840
:104B1000059BC254089911291D46049F28D8384680
:104B200064380798B04123D3642200243846079E96
:104B3000314623460DF0B0FF0A2223460DF0ACFFAC
:104B4000099802430AA8401942707D20C2003846E5
:104B5000314623460DF0A0FFED1C089A102A03D819
:104B6000D34AD21BB441ACD36D1E02E0059D00E0D8
:104B70006D1C2E46681E032108900DF06DF9481C2F
:104B8000032800D00690032801D1354611E00AA879
:104B9000841E069FA01940780CF06CFC012F07D0F2
:104BA000B51EA05D0CF066FCBF1E2E46F2D100E0E3
:104BB000751E0898022810D36C420AA82818C51E32
:104BC000A8780CF057FC68780CF054FC28780CF0AE
:104BD00051FCE41CED1E002CF2D1B7480DF016FB81
:104BE000039845690469002D01D4294605E02D206C
:104BF0000CF040FC00216442A941AE4A002320464B
:104C000006930DF049FF10461946012505950791B9
:104C10006A1E08920A2204920646069F3B460DF041
:104C20003BFF04460D46049A3B460DF005FD301A45
:104C3000099F38430AA9089A5054049607980A3ED7
:104C4000069A904136D30A2200262046294633464A
:104C50000DF022FF3A430AA8059BC2540899112976
:104C60001D46049F28D8384664380798B04123D39E
:104C7000642200243846079E314623460DF00CFF7F
:104C80000A2223460DF008FF099802430AA840199A
:104C900042707D20C2003846314623460DF0FCFEAE
:104CA000ED1C089A102A03D8814AD21BB441ADD317
:104CB0006D1E02E0059D00E06D1C2E46681E03215E
:104CC00008900DF0C9F8481C032800D0069003286E
:104CD00001D135461DE00AA8841E069FA019407820
:104CE0000CF0C8FB012F13D0B51EA05D0CF0C2FB69
:104CF000BF1E2E46F2D10CE00080FFFFFF7F0000B8
:104D0000BF3501006E3501009336010040420F00AF
:104D1000751E0898022810D36C420AA82818C51ED0
:104D2000A8780CF0A7FB68780CF0A4FB28780CF0AE
:104D3000A1FBE41CED1E002CF2D104200025294625
:104D40000DF0DCFC5D480DF061FA029800B207F04E
:104D500077FC5B480DF05AFA019800B207F070FC3E
:104D6000062029460DF0CAFC56480DF04FFA009C6B
:104D7000207807F065FC54480DF048FA607807F099
:104D80005FFC52480DF042FA0398006D012406952D
:104D9000294605940791621E08920A22049205464C
:104DA000069F3B460DF078FE06460C46049A3B46AD
:104DB0000DF042FC281A099F38430AA9089A50545A
:104DC000049507980A3D069A904136D30A22002599
:104DD000304621462B460DF05FFE3A430AA8059B5C
:104DE000C254089911291C46049F28D838466438B3
:104DF0000798A84123D3642200263846079D2946F8
:104E000033460DF049FE0A2233460DF045FE09985F
:104E100002430AA8001942707D20C2003846294684
:104E200033460DF039FEE41C089A102A03D8204AB4
:104E3000D21BAE41ADD3641E02E0059C00E0641CB1
:104E40002646601E032109900DF006F8481C032831
:104E500003D00546032803D114E00025032811D010
:104E60000AA8841E3746E01940780CF003FB012D98
:104E700007D0BE1EE05D0CF0FDFAAD1E3746F2D144
:104E800000E07E1E0998022810D374420AA8301848
:104E9000C51EA8780CF0EEFA68780CF0EBFA2878CA
:104EA0000CF0E8FAE41CED1E002CF2D10FB0F0BDBE
:104EB000E703000040420F0088340100F335010091
:104EC000CE3401000F370100D33501003F36010019
:104ED000F0B59BB009900DF0FFFE0C900DF000FFB7
:104EE00008900DF009FF02900DF002FF03900DF005
:104EF000DBFE04900DF018FF06900DF019FF0590F1
:104F00000DF01AFF07900DF0DBFE07467A30009097
:104F10003846243001900DF013FF0A9048300B9072
:104F20000DF0E2FE014677310F910D9044300E9066
:104F30000DF0CAFE06460446243410A80DF0EEFB20
:104F4000094D099828600DF01BFE28710DF086FDB3
:104F5000089A68710C98C088E880106807210028BA
:104F60000C9104D002E0C046000E20200178297286
:104F700010796872D08968819089A881907CA87323
:104F80000DF0ECFDE873F84948782874C888688209
:104F9000C869686130882883B078A8767079E87627
:104FA000B07928773089E883F06828627069686290
:104FB000B069A862B08BA885308CE885708C288693
:104FC0002078322168546078332108916854A078A1
:104FD00034216854E07835210991685420793621CC
:104FE0006854F06AA863207B3C216854607B3D21B3
:104FF0006854A07B3E216854B08E40216852B06B4B
:105000006864B869A8643869E8647869286538888C
:10501000542168527868A865B868E865F869286618
:10502000386A6866009A108868216852D0886A21B8
:105030006852107A6C26A855386D2867786D6867B5
:1050400001990868A8674868E867F86A802168508D
:10505000386B84216850786B88216850B86B8C213C
:105060006850F86B90216850386C94216850786CC7
:1050700098216850B86C9C216850F86CA021685049
:10508000F86EA4216850386FA8216850786FAC2161
:105090006850B86DB0216850F86DB4216850386E12
:1050A000B8216850B86EBC21685002980078C021C1
:1050B00068540DF05FFDC12168540DF097FDC221C9
:1050C000685403980078C3216854049A1068C42176
:1050D00068509088C8216852A34F386ACC21685024
:1050E000B86BD0216850B88DD42168524820385C04
:1050F000D62168543B464C330FCBD8242851DC20B2
:105100002950E0202A50E4202B505C20385AE82116
:1051100068525E20385CEA216854F88DEC216852B0
:105120005F21785CEE22A8546020385CEF22A854FE
:10513000786EBA6EF023E850F4202A50B85BF8225B
:10514000A8521698FC22A850179801221202A850C3
:10515000189841229200A85006984068059B5A680A
:1051600010185A6980182122D200A850079C207874
:1051700043229200A8546278FF2003460E33EA547B
:10518000A27887235B00EA54A26811231B01EA502E
:105190000A9E326845239B00EA5072682323DB0095
:1051A000EA50F268B368092464012B512B195A6044
:1051B000726933692524E4002B512B195A60B269B6
:1051C00013231B01EA50F2694D239B00EA50326A17
:1051D0002723DB00EA50726A4F239B00EA50B26A31
:1051E00005239B01EA50F26A51239B00EA50326B7F
:1051F0002923DB00EA500B9CA27853239B00EA543E
:10520000E27803464E33EA542279A7235B00EA543E
:10521000326D15231B01EA50F26B55239B00EA50B7
:10522000326C2B23DB00EA50726C57239B00EA5050
:1052300022780B235B01EA54627803466233EA5416
:105240000D9E3288B1235B00EA52728859239B007D
:10525000EA523279B3235B00EA54B2682D23DB00B3
:10526000EA50F2685B239B00EA50326917231B0166
:10527000EA50B28B5D239B00EA520E9C2289BB232D
:105280005B00EA52326A2F23DB00EA50326D89005C
:105290006A50716A0322D201A950716D6122920095
:1052A000A950B16A3122D200A950B16D6322920097
:1052B000A950F16A19221201A950F16D65229200DC
:1052C000A950316B089AD200A950316E6722920022
:1052D000A950716B0D225201A950716E6922920082
:1052E000A950B16B099AD200A950B16E6B229200FD
:1052F000A950F16B1B221201A950F16E6D22920090
:10530000A950316C3722D200A950316F6F22920020
:10531000A95021880C9A9201A952218EE1225200B3
:10532000A952E17871229200A9540F9B1978024684
:10533000C632A9546179E3225200A95499780246F1
:10534000C832A954A1793922D200A954D978024689
:10535000CA32A954E179E5225200A9541979CC3016
:1053600029541BB0F0BDC046E0122020F0B591B02A
:105370000DF0AAFC0546044626340DF0C5FC0B9042
:105380002620285C401EC0B2022803D88000F249C3
:10539000085800E0F148099060780390E07A0290A4
:1053A0000026304631460DF0A9F9ED480CF02EFFED
:1053B0000A956C7930253127E007284600D0384619
:1053C0000CF058F8A007284600D538460CF052F8E3
:1053D0006007284600D538460CF04CF820072846D0
:1053E00000D538460CF046F8E006284600D5384689
:1053F0000CF040F8A006284600D538460CF03AF8E4
:10540000600600D53D4628460CF034F802203146AF
:105410000DF074F9E4480CF0F9FE09980CF0F6FE72
:10542000E2480CF0F3FE08200A9C205E07F008F921
:105430002F200CF01FF8E568284629460DF0D0FA19
:10544000002813D1DA4EDB4928460BF03BFE00283A
:105450000CD1C720010628460BF016FE002801D00B
:10546000761C03E028460CF081FE064630B207F0B9
:10547000E7F80420002529460DF040F9CE480CF04D
:10548000C5FE1C20205E07F0DBF8CC480CF0BEFE09
:105490002020205E07F0D4F8C9480CF0B7FE222087
:1054A000205E07F0CDF80620099529460DF026F973
:1054B000C4480CF0ABFE0B984469C34920460CF07D
:1054C000CBFC05467D20C100204604910CF0C4FCB5
:1054D0003C210CF0C1FC0791BC480194844202D8E5
:1054E00030200BF0C7FF01270999284606970A913B
:1054F0007A1E0B920A2208920446099E33460DF04A
:10550000CBFA05460F46089A33460DF095F8201A57
:10551000302630430CA90B9A505405940A980A3C43
:10552000099A9041089635D30A2200242846394624
:1055300023460DF0B1FA32430CA8069BC2540B99D6
:1055400011291F46059E27D8304664380A98A04185
:1055500022D36422002530460A9C21462B460DF0BA
:105560009BFA0A222B460DF097FA089802430CA8E2
:10557000C019427030462146049A2B460DF08CFA31
:10558000FF1C0B9A102A03D8914A921BA541ADD358
:105590007F1E02E0069F00E07F1C781E03210B9017
:1055A0000CF05AFC481C032812D00546032812D0E0
:1055B0000CA8841EE01940780BF05CFF012D0CD084
:1055C000BE1EE05D0BF056FFAD1E3746F2D105E082
:1055D00000250328ECD13E4600E07E1E0B980228F1
:1055E00010D374420CA83018C51EA8780BF042FFE7
:1055F00068780BF03FFF28780BF03CFFE41CED1EB1
:10560000002CF2D13A200BF035FF079D092D02D86E
:1056100030200BF02FFF002101200A9005910B9103
:105620000A98401E09900A2628463246059C2346C1
:105630000DF032FA0F460690324623460CF0FCFF7E
:10564000281A089E30430CA9099A505407950A3D20
:105650000B98A04137D30A220024069839462346E6
:105660000DF01AFA0B9932430CA80A9BC254099BFD
:10567000112B079D29D8284664380846A04124D319
:105680006422002728463B460DF006FA0A223B46D4
:105690000DF002FA32430CA80A9C00194270284609
:1056A0000B99049A3B460DF0F7F90B9BE41C0A9406
:1056B000099A102A04D8464A521B9F410546AED388
:1056C0000A9D6D1E03E00A9D01E00A9D6D1C681E87
:1056D00003210B900CF0C0FB481C032812D0064697
:1056E000032812D00CA8841E601940780BF0C2FE6B
:1056F000012E0CD0AF1E605D0BF0BCFEB61E3D4609
:10570000F2D105E000260328ECD12F4600E06F1E01
:105710000B98022810D37C420CA83818C51EA87814
:105720000BF0A8FE68780BF0A5FE28780BF0A2FE1F
:10573000E41CED1E002CF2D10299022901D0264C66
:1057400000E0244C0398012900D1244C012809D001
:105750005525FF2809D009E020320100AB360100B1
:10576000EC3201005225FF2800D14C25642101981C
:105770000CF072FB0A210CF06FFB0E462E200BF092
:1057800079FE0898064330460BF074FE14480CF07E
:105790003DFD28460BF06EFE09480CF037FD204613
:1057A0000CF034FD11B0F0BDCD3601003F360100E4
:1057B000FF7F000000FEFF46123701002B3601007C
:1057C00007360100E836010060EA0000BF27090043
:1057D000E7030000193501002D370100FB350100FA
:1057E00073360100F0B58FB00B930A920C46054654
:1057F00047680026384631460BF03CFC00280DD0A7
:10580000AE60E8680121C907414029616E61AE615F
:10581000EE612E626E62AE62EE62FFE10294159856
:1058200009902E462A360D95AC680025204629465B
:105830000BF020FC00280C960E97089432D10695A8
:105840000026384631460BF03DFC07902046314695
:105850000BF038FC411E224604468C414142414136
:105860000591104631460BF00FFC0546401E854160
:10587000384631460BF008FC414241410798002868
:10588000204603D169400598014008460C99891CBF
:10589000012800D0ACE0087800280E9F069D089CE7
:1058A00004D104E0B078002801D0B11C0D700026AE
:1058B000384631460BF0E8FB0121CD070028069160
:1058C00000D06F40204631460BF0DEFB002801D1AE
:1058D000254600E06540D34C384629460BF0F2FBE4
:1058E000002801D1E83400E0E4340E9F20680999D3
:1058F0000AF078FD0546089C204639460BF0C4FBAB
:1059000000280AD02046294609F0E1FA0546394622
:105910000BF0D8FB002810D010E0204639460BF0E1
:10592000D1FB00280AD02046294609F0CBFA0546CB
:1059300039460BF0A9FB002800D12F460D9DAF6022
:10594000E9680E97384609F0BDFA044628613146E9
:105950000BF0B8FB0746401E39468141079103947E
:10596000204631460BF090FB411E04468C41002836
:1059700000D0F043069B002F00D10346002B0C9F64
:1059800009D03878411E02468A41D9B20E1A701EDB
:10599000864116403B7014980190012005903E719D
:1059A00000210E9D284608910BF08CFB411E88417A
:1059B0000490204200940DD00120F8700A9E0D9DA5
:1059C0006E626869002106900BF07CFB0028059848
:1059D0002CD042E00026284631460BF055FB00282B
:1059E00020D00798F8700028029E1DD00A9E1BE068
:1059F00001200E9108708B48E821405809990AF05F
:105A0000F1FC0146002D089800D1E1E009F05FFAB1
:105A10000746002529460BF055FB00280D9C00D0B9
:105A2000E3E0E3E0FE70029E0D98466200270E98C8
:105A300039460BF029FB34460646401E864107983E
:105A400006400D984069069039460C9F0BF01CFBF0
:105A5000411E8841304026460D9D0A907871039C76
:105A6000204631460AF0BEFC0290A861B8206D4F76
:105A700039580E980AF04EFE6B490E910AF0B2FCAE
:105A800001990AF0AFFC01902862204609990AF0BA
:105A9000A9FC0A99002928D0E02179580AF0A2FC33
:105AA000069D294609F013FA0146002628460D46B0
:105AB00031460BF007FB002805D0002128460BF0EB
:105AC000E3FA002815D10026069831460BF0DCFADF
:105AD0000746284631460BF0F5FA002800D12E463D
