:10000000008020201F1201009FE400009FE40000F8
:1000100000000000000000000000000000000000E0
:100020000000000000000000000000009FE400004D
:1000300000000000000000009FE400005DE10000FF
:100040009FE40000950B01009FE400007501010092
:100050009FE400009FE400009FE400009FE4000094
:10006000000000009FE400009FE40000000000008A
:10007000000000009FE400009FE400009FE40000F7
:100080009FE400009FE400009FE400009FE4000064
:100090009FE400009FE4000000000000000000005A
:1000A0009FE400009FE4000000000000000000004A
:1000B0009FE40000000000009FE400009FE40000B7
:1000C000F0B5BFB016AF07AD34AC204610F0C4FC9D
:1000D0002DA810F091F838460FF0D8FD284610F002
:1000E0009DFB207DE17C002901D0C14E00E0C14E86
:1000F0004937002800D0C04E3879002800970FD02B
:100100000020014610F066FDBC4810F00DFBB87AE7
:10011000401EC0B2022818D88000B949085815E01E
:10012000B879002800D198E00020014610F052FD77
:10013000B44810F0F9FA387B401EC0B2022800D94A
:10014000CFE08000B0490858CCE0B04810F0ECFA9D
:10015000AF4810F0E9FA387B401EC0B2022803D83D
:100160008000A949085800E0AA48002410F0DCFAF1
:1001700002200194214610F02DFDA74810F0D4FA7A
:100180003878002865D0179C002C03D52D200FF05F
:1001900027FC6442A149204610F00EF908460125CB
:1001A0000199049505916A1E06920A220392074658
:1001B000019E334610F0CEFE04460D46039A3346A8
:1001C00010F0B6FC381A302318433AA9069A505456
:1001D000039705990A3F0846B0415DD30A220E46AF
:1001E0000027204629461C463B4610F0B3FE234616
:1001F00022433AA8049C0255069911292546039AE0
:100200004CD8104664383046B84147D3174664226C
:100210000024384631460293234610F09BFE0A2202
:10022000234610F097FE029802433AA84019427004
:100230007D20C20038463146234610F08BFEED1C6F
:10024000069A102A03D8764AD21BB441A9D36D1E50
:1002500025E0704810F068FA04E134356879002828
:1002600000D175E200242046214610F0B3FC6D4811
:1002700010F05AFA02200394214610F0ABFC6148BA
:1002800010F052FA6879401EC0B2042800D9B1E2D9
:10029000800065490858AEE2049D00E06D1C2F46C1
:1002A000681E0321069010F087F8481C032813D01D
:1002B0000446032813D03AA8861EF01940780FF0A0
:1002C0008FFB012C00D1B7E0BD1EF05D0FF088FB65
:1002D000A41E2F46F1D1B0E000240328EBD13D4607
:1002E000ABE04C48002410F01FFA504810F01CFA04
:1002F000304610F019FA0220214610F06BFC4C48F1
:1003000010F012FA04200194214610F063FC4948D1
:1003100010F00AFA7878002800D115E2189C002C19
:1003200003D52D200FF05CFB64423C49204610F0C1
:1003300043F80D460126019904910596701E06901A
:100340000A2203922846019F3B4610F003FE044612
:100350000E46039A3B4610F0EBFB281A3023184355
:100360003AA9069A505403950A3D04980546B841A7
:1003700000D203E20A220027204631461C463B46B3
:1003800010F0E8FD234622433AA8059C0255069941
:1003900011292646039A00D9F2E11046643828460E
:1003A000B84100D2ECE117466422002438462946C1
:1003B0000293234610F0CEFD0A22234610F0CAFD18
:1003C000029802433AA8801942707D20C200384644
:1003D0002946234610F0BEFDF61C069A102A04D8C2
:1003E0000F4AD21BAC410546A6D3761EC9E1C046D2
:1003F000AC180100FF190100CB1901008819010098
:100400005C160100061B0100501601003D19010099
:100410007F1A0100E81A0100A718010040420F00EE
:10042000E70300000816010034150100ED16010075
:10043000D8150100BB1A01007D1E0698022810D3B2
:100440006C423AA82818C51EA8780FF0C9FA687837
:100450000FF0C6FA28780FF0C3FAE41CED1E002C4A
:10046000F2D1009F04200021019110F0B3FBD64887
:1004700010F05AF97878002865D0189C002C03D524
:100480002D200FF0ADFA6442D04920460FF094FFC2
:10049000084601250199049505916A1E06920A22D3
:1004A00003920746019E334610F054FD04460D4664
:1004B000039A334610F03CFB381A302318433AA90C
:1004C000069A5054039705990A3F0846B0413ED317
:1004D0000A220E460027204629461C463B4610F0BD
:1004E00039FD234622433AA8049C02550699112956
:1004F0002546039A2DD8104664383046B84128D393
:10050000174664220024384631460293234610F0F1
:1005100021FD0A22234610F01DFD029802433AA84D
:10052000401942707D20C20038463146234610F003
:1005300011FDED1C069A102A03D8A54AD21BB4411E
:10054000A9D36D1E06E0A34810F0EEF839E0049D33
:1005500000E06D1C2F46681E032106900FF02CFF53
:10056000481C032812D00446032812D03AA8861E3D
:10057000F01940780FF034FA012C0CD0BD1EF05D5C
:100580000FF02EFAA41E2F46F2D105E00024032816
:10059000ECD13D4600E07D1E0698022810D36C4247
:1005A0003AA82818C51EA8780FF01AFA68780FF034
:1005B00017FA28780FF014FAE41CED1E002CF2D183
:1005C000009F854810F0B0F8B878002866D0199CD4
:1005D000002C03D52D200FF003FA64427B492046FE
:1005E0000FF0EAFE084600210125019104950591CE
:1005F0006A1E06920A2203920746019E334610F0B5
:10060000A9FC04460D46039A334610F091FA381AB5
:10061000302318433AA9069A5054039705990A3F84
:100620000846B0413ED30A220E46002720462946FE
:100630001C463B4610F08EFC234622433AA8049CFD
:100640000255069911292546039A2DD8104664387B
:100650003046B84128D31746642200243846314634
:100660000293234610F076FC0A22234610F072FC17
:10067000029802433AA8401942707D20C2003846D1
:100680003146234610F066FCED1C069A102A03D86A
:100690004F4AD21BB441A9D36D1E06E04D4810F05D
:1006A00043F839E0049D00E06D1C2F46681E0321CD
:1006B00006900FF081FE481C032812D00446032840
:1006C00012D03AA8861EF01940780FF089F9012C53
:1006D0000CD0BD1EF05D0FF083F9A41E2F46F2D1A1
:1006E00005E000240328ECD13D4600E07D1E06987D
:1006F000022810D36C423AA82818C51EA8780FF01B
:100700006FF968780FF06CF928780FF069F9E41C3C
:10071000ED1E002CF2D1009F0620002110F05AFAA5
:10072000F87A032804D0022805D12C4800F0AEFF47
:100730002B4800F0ABFFB87A032802D0294800F01C
:10074000A5FF294800F0A2FF22480FF0EDFFD3E0FB
:10075000787A002800D124E300200090014610F0B0
:1007600039FA22480FF0E0FFF87B401EC0B20228A1
:1007700000D92BE380001E49085828E3059E00E0BD
:10078000761C701E032106900FF016FE481C0328ED
:1007900014D00446032814D03AA83746861EF01910
:1007A00040780FF01DF9012C00D18FE0BD1EF05DE7
:1007B0000FF016F9A41E2F46F1D188E0002403287B
:1007C000EAD1354683E0C046BB1A010040420F0023
:1007D000E7030000E81A0100DB190100831501009E
:1007E000A51501002516010094150100331901001B
:1007F00044160100F9480FF097FFF9480FF094FFF5
:10080000089C002C03D52D200FF0EAF86442F5492E
:1008100020460FF0D1FD0846012503990295049169
:100820006A1E05920A2206920646039C234610F091
:1008300091FB07460D46069A234610F079F9301AC7
:10084000302420433AA9059A5054019604980A3E50
:10085000039A9041069400D20CE10A220026384601
:100860002946334610F076FB22433AA8029BC25435
:10087000059911291D46019C00D9FDE020466438E8
:100880000498B04100D2F7E0642200272046049E7D
:1008900031463B4610F05EFB0A223B4610F05AFB05
:1008A000069802433AA8401942707D20C2002046B3
:1008B00031463B4610F04EFBED1C059A102A03D83A
:1008C000C94A121BB741A9D36D1ED6E07D1E0698FA
:1008D000022810D36C423AA82818C51EA8780FF039
:1008E0007FF868780FF07CF828780FF079F8E41C2E
:1008F000ED1E002CF2D1009FBC480FF015FFB87818
:10090000002866D0199C002C03D52D200FF068F824
:100910006442B44920460FF04FFD084600210125EE
:100920000191049505916A1E06920A2203920746D8
:10093000019E334610F00EFB04460D46039A3346E3
:1009400010F0F6F8381A302318433AA9069A505492
:10095000039705990A3F0846B0413ED30A220E4646
:100960000027204629461C463B4610F0F3FA234652
:1009700022433AA8049C0255069911292546039A58
:100980002DD8104664383046B84128D31746642223
:100990000024384631460293234610F0DBFA0A223F
:1009A000234610F0D7FA029802433AA84019427041
:1009B0007D20C20038463146234610F0CBFAED1CAC
:1009C000069A102A03D8884AD21BB441A9D36D1EB7
:1009D00006E087480FF0A8FE39E0049D00E06D1C9A
:1009E0002F46681E032106900FF0E6FC481C0328E2
:1009F00012D00446032812D03AA8861EF019407877
:100A00000EF0EEFF012C0CD0BD1EF05D0EF0E8FFE5
:100A1000A41E2F46F2D105E000240328ECD13D4668
:100A200000E07D1E0698022810D36C423AA82818D0
:100A3000C51EA8780EF0D4FF68780EF0D1FF287894
:100A40000EF0CEFFE41CED1E002CF2D1009F06201C
:100A5000002110F0BFF8F879002802D0654800F0B6
:100A600015FE7879002802D0634800F00FFE634835
:100A700000F00CFE029D00E06D1C2E46681E032156
:100A800005900FF099FC481C032803D00546032865
:100A900003D114E00025032811D03AA8841E37465C
:100AA000E01940780EF09CFF012D07D0BE1EE05DDE
:100AB0000EF096FFAD1E3746F2D100E07E1E05987F
:100AC000022810D374423AA83018C51EA8780EF038
:100AD00087FF68780EF084FF28780EF081FFE41C11
:100AE000ED1E002CF2D104200021039110F072F8C9
:100AF00043480FF019FE099C002C03D52D200EF061
:100B00006FFF6442374920460FF056FC0846012526
:100B10000399029504916A1E05920A2201920646E3
:100B2000039C234610F016FA07460D46019A234609
:100B30000FF0FEFF301A069C20433AA9059A505444
:100B4000019604980A3E039A904136D30A22002661
:100B500038462946334610F0FDF922433AA8029B55
:100B6000C254059911291D46019C28D82046643895
:100B70000498B04123D3642200272046049E3146C6
:100B80003B4610F0E7F90A223B4610F0E3F90698DD
:100B900002433AA8401942707D20C20020463146E7
:100BA0003B4610F0D7F9ED1C059A102A03D80E4ADF
:100BB000121BB741ADD36D1E02E0029D00E06D1C1B
:100BC0002E46681E032105900FF0F6FB481C0328F3
:100BD00018D00546032818D129E0C0468D19010018
:100BE000631A010040420F00E7030000DB19010017
:100BF000E81A010070150100741601003316010097
:100C0000EB1A01000025032811D03AA8841E3746AC
:100C1000E01940780EF0E4FE012D07D0BE1EE05D25
:100C20000EF0DEFEAD1E3746F2D100E07E1E0598C6
:100C3000022810D374423AA83018C51EA8780EF0C6
:100C4000CFFE68780EF0CCFE28780EF0C9FEE41CCA
:100C5000ED1E002CF2D1EE480FF066FD0A9C002C30
:100C600003D52D200EF0BCFE6442EA4920460FF069
:100C7000A3FB0846002101250391029504916A1EF9
:100C800005920A2201920646039C234610F062F95F
:100C900007460D46019A23460FF04AFF301A069C7C
:100CA00020433AA9059A5054019604980A3E039AA3
:100CB000904136D30A22002638462946334610F0A2
:100CC00049F922433AA8029BC254059911291D46AD
:100CD000019C28D8204664380498B04123D364226C
:100CE00000272046049E31463B4610F033F90A2285
:100CF0003B4610F02FF9069802433AA8401942707B
:100D00007D20C200204631463B4610F023F9ED1C01
:100D1000059A102A03D8C04A121BB741ADD36D1EE5
:100D200002E0029D00E06D1C2E46681E0321069025
:100D30000FF042FB481C032803D00546032803D1CB
:100D400014E00025032811D03AA8841E3746E01984
:100D500040780EF045FE012D07D0BE1EE05D0EF07E
:100D60003FFEAD1E3746F2D100E07E1E06980228F7
:100D700010D374423AA83018C51EA8780EF030FE81
:100D800068780EF02DFE28780EF02AFEE41CED1E89
:100D9000002CF2D1062000210FF01CFF9F4800F02C
:100DA00075FC387A002800D1D9E3002001460FF005
:100DB00011FF9B480FF0B8FC787B401EC0B204289E
:100DC00000D9DFE3800097490858DCE396480FF02C
:100DD000ABFC96480FF0A8FC219D012400990491DA
:100DE000601E05900A2206922846009E334610F0A7
:100DF000B1F807460291069A33460FF099FE281A79
:100E00002246302420433AA9059B585403950A3DB5
:100E100004980546B041069436D301920A22002672
:100E200038460299334610F095F822433AA8019CBF
:100E3000025505991129039828D80246643A2A4692
:100E4000B24123D364220027294606463B4610F0D0
:100E500081F80A223B4610F07DF8069802433AA832
:100E6000001942707D20C200304629463B4610F0F2
:100E700071F8E41C059A102A04D8674A921BAF4106
:100E80000546ACD3641E02E0144600E0641C26460E
:100E9000601E032105900FF08FFA481C032801D033
:100EA000054600E00025032811D03AA8841E3746E5
:100EB000E01940780EF094FD012D07D0BE1EE05DD4
:100EC0000EF08EFDAD1E3746F2D100E07E1E059875
:100ED000022810D374423AA83018C51EA8780EF024
:100EE0007FFD68780EF07CFD28780EF079FDE41C1B
:100EF000ED1E002CF2D10220002103910FF06AFEBA
:100F00004B480FF011FC179C002C03D52D200EF040
:100F100067FD64423F4920460FF04EFA084601251E
:100F20000399029504916A1E05920A2201920646CF
:100F3000039C234610F00EF807460D46019A2346FF
:100F40000FF0F6FD301A069C20433AA9059A50543A
:100F5000019604980A3E039A904136D30A2200264D
:100F60003846294633460FF0F5FF22433AA8029B44
:100F7000C254059911291D46019C28D82046643881
:100F80000498B04123D3642200272046049E3146B2
:100F90003B460FF0DFFF0A223B460FF0DBFF0698CF
:100FA00002433AA8401942707D20C20020463146D3
:100FB0003B460FF0CFFFED1C059A102A03D8164AC6
:100FC000121BB741ADD36D1E02E0029D00E06D1C07
:100FD0002E46681E032105900FF0EEF9481C0328E9
:100FE00001D0054600E00025032824D03AA8841E3D
:100FF0003746E01940780EF0F3FC012D1AD0BE1EE2
:10100000E05D0EF0EDFCAD1E3746F2D113E0C046B8
:10101000D918010040420F00E7030000BE1601008E
:101020008E170100481501003D1901004B1A0100FF
:10103000F11A01007E1E0598022810D374423AA8C6
:101040003018C51EA8780EF0CBFC68780EF0C8FCEE
:1010500028780EF0C5FCE41CED1E002CF2D1E3480C
:101060000FF062FB269C002C03D52D200EF0B8FC5F
:101070006442DF4920460FF09FF908460021012510
:101080000391029504916A1E05920A220192064676
:10109000039C23460FF05EFF07460D46019A234648
:1010A0000FF046FD301A069C20433AA9059A505489
:1010B000019604980A3E039A904136D30A220026EC
:1010C0003846294633460FF045FF22433AA8029B93
:1010D000C254059911291D46019C28D82046643820
:1010E0000498B04123D3642200272046049E314651
:1010F0003B460FF02FFF0A223B460FF02BFF0698CE
:1011000002433AA8401942707D20C2002046314671
:101110003B460FF01FFFED1C059A102A03D8B54A75
:10112000121BB741ADD36D1E02E0029D00E06D1CA5
:101130002E46681E032105900FF03EF9481C032837
:1011400001D0054600E00025032811D03AA8841EEE
:101150003746E01940780EF043FC012D07D0BE1E43
:10116000E05D0EF03DFCAD1E3746F2D100E07E1E84
:101170000598022810D374423AA83018C51EA878E2
:101180000EF02EFC68780EF02BFC28780EF028FC70
:10119000E41CED1E002CF2D10420002103910FF07D
:1011A00019FD95480FF0C0FA099C002C03D52D209D
:1011B0000EF016FC64428E4920460FF0FDF80846FA
:1011C00001250399029504916A1E05920A22019253
:1011D0000646039C23460FF0BDFE07460D46019AC6
:1011E00023460FF0A5FC301A069C20433AA9059A25
:1011F0005054019604980A3E039A904136D30A222D
:1012000000263846294633460FF0A4FE22433AA86A
:10121000029BC254059911291D46019C28D82046DD
:1012200064380498B04123D3642200272046049EEA
:1012300031463B460FF08EFE0A223B460FF08AFEF7
:10124000069802433AA8401942707D20C200204609
:1012500031463B460FF07EFEED1C059A102A03D85E
:10126000644A121BB741ADD36D1E02E0029D00E03F
:101270006D1C2E46681E032105900FF09DF8481C3A
:10128000032801D0054600E00025032811D03AA824
:10129000841E3746E01940780EF0A2FB012D07D0DE
:1012A000BE1EE05D0EF09CFBAD1E3746F2D100E0A5
:1012B0007E1E0598022810D374423AA83018C51E25
:1012C000A8780EF08DFB68780EF08AFB28780EF077
:1012D00087FBE41CED1E002CF2D148480FF024FAE5
:1012E000279C002C03D52D200EF07AFB6442404948
:1012F00020460FF061F80846002101250391029570
:1013000004916A1E05920A2201920646039C234616
:101310000FF020FE07460D46019A23460FF008FC09
:10132000301A069C20433AA9059A50540196049815
:101330000A3E039A904136D30A22002638462946AF
:1013400033460FF007FE22433AA8029BC254059988
:1013500011291D46019C28D8204664380498B041C4
:1013600023D3642200272046049E31463B460FF0DB
:10137000F1FD0A223B460FF0EDFD069802433AA824
:10138000401942707D20C200204631463B460FF096
:10139000E1FDED1C059A102A03D8F64A121BB7414D
:1013A000ADD36D1E02E0029D00E06D1C2E46681E4E
:1013B000032105900FF000F8481C032801D00546D2
:1013C00000E0002503281CD03AA8841E3746E01907
:1013D00040780EF005FB012D12D0BE1EE05D0EF030
:1013E000FFFAAD1E3746F2D10BE0C046971A010056
:1013F00040420F00E7030000EB1A01006F1A0100E2
:101400007E1E0598022810D374423AA83018C51ED3
:10141000A8780EF0E5FA68780EF0E2FA28780EF077
:10142000DFFAE41CED1E002CF2D106200024214638
:101430000FF0D0FBDA480FF077F907A8008E0125EE
:1014400003942146029504916A1E05920A22019294
:101450000646039C23460FF07DFD07460D46019A84
:1014600023460FF065FB301A069C20433AA9059AE3
:101470005054019604980A3E039A904136D30A22AA
:1014800000263846294633460FF064FD22433AA829
:10149000029BC254059911291D46019C28D820465B
:1014A00064380498B04123D3642200272046049E68
:1014B00031463B460FF04EFD0A223B460FF04AFDF7
:1014C000069802433AA8401942707D20C200204687
:1014D00031463B460FF03EFDED1C059A102A03D81D
:1014E000A44A121BB741ADD36D1E02E0029D00E07D
:1014F0006D1C2E46681E032106900EF05DFF481CF1
:10150000032801D0054600E00025032811D03AA8A1
:10151000841E3746E01940780EF062FA012D07D09C
:10152000BE1EE05D0EF05CFAAD1E3746F2D100E063
:101530007E1E0698022800D2A7E074423AA830180E
:10154000C51EA8780EF04CFA68780EF049FA287893
:101550000EF046FAE41CED1E002CF2D195E02C783A
:10156000002001460FF036FB002C4ED090480FF0C3
:10157000DBF82879401EC0B2032852D880008D497C
:1015800008584FE078480FF0CFF820200EF028FAE6
:1015900030460FF0C9F80220002421460FF01AFB54
:1015A00075480FF0C1F81798C1170AF029F97B4860
:1015B0000FF0BAF82298C1170AF022F90420214648
:1015C0000FF008FB6D480FF0AFF81A98C1170AF03A
:1015D00017F96B480FF0A8F81B98C1170AF010F91B
:1015E000062021460FF0F6FA69480FF09DF8099899
:1015F000C1170AF005F96C480FF096F807A8008E9D
:1016000021460AF063FD694840E05E480FF08CF81F
:10161000387B401EC0B202283CD88000544908588C
:1016200039E051480FF080F80220002421460FF0E5
:10163000D1FA59480FF078F80898C1170AF0E0F885
:1016400056480FF071F80798C1170AF0D9F804202E
:1016500021460FF0BFFA4E480FF066F80998C117FF
:101660000AF0CEF84B480FF05FF80A98C1170AF05D
:10167000C7F8062021460FF0ADFA49480FF054F89C
:1016800007A8008E21460AF021FD46480FF04CF8CD
:101690003FB0F0BD35480FF047F83C480FF044F834
:1016A0003878179909F0FCFF20200EF099F93046A0
:1016B0000FF03AF80220002529460FF08BFA3E4839
:1016C0000FF032F82D98C1170AF09AF83B480FF046
:1016D0002BF8359934980AF093F8042029460FF036
:1016E00079FA26480FF020F87878189909F0D8FF91
:1016F00023480FF019F8B878199909F0D1FF06209E
:1017000029460FF067FA787B04280DD005280DD103
:101710002C480FF009F8B87B401EC0B2062818D834
:1017200080002949085815E02548AFE7F97B28488B
:101730000329ABD1397C0629A8D026480EF0F4FF46
:10174000387C401EC0B2062808D880001E490858C0
:1017500005E00D480EF0E8FF1C4897E70A480EF038
:10176000E3FF1D4892E7C0463D190100E81A010059
:1017700050160100E7030000A7180100BB1A010082
:10178000DB190100061B01008D190100631A01001D
:10179000EB1A0100D9180100F11A0100971A010093
:1017A000DC1A01004B170100031A01002817010081
:1017B000D2160100B81501009C190100DF190100C3
:1017C000E8150100AC170100CC140100E41601007B
:1017D000F81501005217010018170100F0B59BB071
:1017E00016480178491CCAB20170052A2AD31D4641
:1017F000002404700FF078F90FF04AFC401E1728FF
:101800001ED8400078448088400087441801990021
:101810009C00EC0096009F002A00A20015015101D7
:1018200019001900190019001900190019001900F0
:1018300019001900E600E9001C011503790F2020AA
:1018400008F080FE884C20784006000E09F0BAFDB2
:101850002078401CC1B2032900D9002020701BB0A1
:10186000F0BD0FF0B7FC06460FF0A4FC05460FF0E4
:101870009DFC04460FF076FC099000273846394657
:101880000FF0A8F979480EF04FFF687809F052FE82
:1018900077480EF049FF0FF01FFC09F04BFE75482A
:1018A0000EF042FF0FF00CFC09F044FE72480EF0FF
:1018B0003BFF207809F03EFE70480EF035FFE078DF
:1018C00009F038FE022039460FF084F96C480EF01A
:1018D0002BFF7078002800D0778838B209F02AFEF4
:1018E00065480EF021FFA87809F024FE04200026A8
:1018F00031460FF06FF963480EF016FFA87909F032
:1019000019FE61480EF010FFE87909F013FE062079
:1019100031460FF05FF9099C2088002800D18EE243
:101920005A480EF001FF20880CF028F90EF0FCFE5A
:1019300057480EF0F9FE201D85E201F007FA81E715
:1019400003F016FD7EE709F0BFFB7BE705F038FBEF
:1019500078E70FF053FC074680690EF07BFE4D4C94
:10196000A04200DC20464C4EB04200DB30460290E4
:10197000F8690EF06FFEA04200DC2046B04200DBAA
:10198000304601900025284629460FF023F94348A8
:101990000EF0CAFE3868A04200DC2046B04200DBF0
:1019A000304609F0C7FD3E480EF0BEFE7868A04202
:1019B00000DC2046B04200DB304609F0BBFD0220CF
:1019C00029460FF007F937480EF0AEFEFE68BC68F6
:1019D000002E00D558E235465BE205F067FE31E7A0
:1019E000FEF76EFB2EE72C4F0FF0C8FB0546099063
:1019F000006A2D490DF098F8064601460FF04EFAA0
:101A0000002100280C46084601D000F08FFC274931
:101A100030460DF00DFE0028384601D000F086FC5F
:101A2000C720010630460DF0E5FD002801D100F089
:101A30007AFC781C00F07AFC06F05AF902E7284696
:101A400008F0BCF9FEE60FF0C9FB05460FF0CAFB33
:101A500006460FF047FB29780029039600D17AE269
:101A60006968411A78E2C046780F2020E51A010023
:101A7000DB190100171A0100431A0100731A010053
:101A8000CA1A01006B1A0100C0180100061B0100F0
:101A9000DF1901000080FFFFFF7F0000371A0100FF
:101AA000A2180100E31901000000204100FEFF46DA
:101AB000E74C0FF077FB07460025284629460FF034
:101AC00089F8E4480EF030FEFE6A304631460FF0E9
:101AD000E5F90028284610D1DF4930460DF0A8FD71
:101AE0000028DE4809D1DE4930460DF083FD00288C
:101AF000204602D130460EF0ADFD00B209F01AFDCD
:101B00002F200DF06DFFFE6D304631460FF0C6F907
:101B10000028284610D1D04930460DF089FD002814
:101B2000CE4809D1CE4930460DF064FD002820464C
:101B300002D130460EF08EFD00B209F0FBFC02200F
:101B400029460FF047F8C7480EF0EEFDFE6B304611
:101B500031460FF0A3F90028284610D1BE4930467F
:101B60000DF066FD0028BD4809D1BD4930460DF095
:101B700041FD0028204602D130460EF06BFD00B238
:101B800009F0D8FC2F200DF02BFFFE6E30463146B9
:101B90000FF084F90028284610D1AF4930460DF0E7
:101BA00047FD0028AD4809D1AD4930460DF022FD72
:101BB0000028204602D130460EF04CFD00B209F05C
:101BC000B9FCA9480EF0B0FD7E6B304631460FF0EF
:101BD00065F90028284610D19F4930460DF028FDB0
:101BE00000289E4809D19E4930460DF003FD00288B
:101BF000204602D130460EF02DFD00B209F09AFCCD
:101C00002F200DF0EDFE7E6E304631460FF046F986
:101C10000028284610D1904930460DF009FD0028D3
:101C20008E4809D18E4930460DF0E4FC002820464C
:101C300002D130460EF00EFD00B209F07BFC04200C
:101C400029460EF0C7FF89480EF06EFD3E6B304608
:101C500031460FF023F90028284610D17E4930463E
:101C60000DF0E6FC00287D4809D17D4930460DF095
:101C7000C1FC0028204602D130460EF0EBFC00B239
:101C800009F058FC2F200DF0ABFE3E6E3046314679
:101C90000FF004F90028284610D16F4930460DF0A6
:101CA000C7FC00286D4809D16D4930460DF0A2FCF3
:101CB0000028204602D130460EF0CCFC00B209F0DC
:101CC00039FC6B480EF030FDBE6B304631460FF0EC
:101CD000E5F80028284610D15F4930460DF0A8FCF1
:101CE00000285E4809D15E4930460DF083FC00288B
:101CF000204602D130460EF0ADFC00B209F01AFCCD
:101D00002F200DF06DFEBE6E304631460FF0C6F846
:101D10000028284610D1504930460DF089FC002893
:101D20004E4809D14E4930460DF064FC002820464B
:101D300002D130460EF08EFC00B209F0FBFB06200B
:101D400029460EF047FF4B480EF0EEFC3E6C304645
:101D500031460FF0A3F80028284610D13E493046FE
:101D60000DF066FC00283D4809D13D4930460DF094
:101D700041FC0028204602D130460EF06BFC3C4668
:101D8000493400B209F0D6FB2F200DF029FE3E6F3A
:101D9000304631460FF082F8002811D12E493046E6
:101DA0000DF046FC00282D4D0AD12D4930460DF08E
:101DB00021FC0028264D03D130460EF04BFC054691
:101DC000793728B209F0B6FB2B480EF0ADFC20782D
:101DD00041254F260028284600D030460DF000FE51
:101DE0003878002800D0354628460DF0F9FD234804
:101DF0000EF09AFCA078302531260028284600D025
:101E000030460DF0EDFDB8780028284600D0304669
:101E10000DF0E6FD1A480EF087FC60780028284691
:101E200000D030460DF0DCFD7878002800D0354633
:101E300028460DF0D5FD05E50AF028FC02E511481D
:101E40000EF072FC281D805F09F074FBFAE4C046B6
:101E500019FC0000EB1A010000C07944E703000000
:101E600000C079C4061B0100631A0100C7190100F4
:101E7000E7190100C11A0100FD1A0100001B010051
:101E8000C71A01009A1701002D200DF0A9FD644228
:101E9000B54103974A3700970023FE4A204629465A
:101EA00006930FF057F8104619460125059507913E
:101EB0006A1E08920A2209920646069F3B460FF0C8
:101EC00049F804460D46099A3B460EF031FE301A99
:101ED000302738430AA9089A5054049607980A3EB6
:101EE000069A9041099765D30A2200262046294682
:101EF00033460FF02FF83A430AA8059BC2540899BD
:101F000011291D46049F57D8384664380798B041B8
:101F100052D3642200243846079E314623460FF0F0
:101F200019F80A2223460FF015F8099802430AA867
:101F3000401942707D20C2003846314623460FF0DA
:101F400009F8ED1C089A102A03D8D34AD21BB441D1
:101F5000ACD36D1E31E0E1436F78781E8741079165
:101F60009729049501D3264600E001260AAD2846AC
:101F70000EF09CFE285F1221049D0191695E411ABA
:101F8000C648814200DB0146C548814200DC01466B
:101F90000291204621460EF01DFEC2480EF0C4FB01
:101FA0002878002804D00798962825D9BE480EE343
:101FB000BE480CE3059D00E06D1C2E46681E032103
:101FC00008900EF0F9F9481C032800D00690032869
:101FD00001D1354617E00AA8841E069FA019407853
:101FE0000DF0FEFC012F0DD0B51EA05D0DF0F8FC2C
:101FF000BF1E2E46F2D106E06878002800D1E5E247
:10200000AB48E4E2751E0898022810D36C420AA877
:102010002818C51EA8780DF0E3FC68780DF0E0FCE8
:1020200028780DF0DDFCE41CED1E002CF2D1A14857
:102030000EF07AFB039845690469002D01D4294606
:1020400005E02D200DF0CCFC00216442A941914A0D
:102050000023204606930EF07DFF10461946012509
:10206000059507916A1E08920A2204920646069F69
:102070003B460EF06FFF04460D46049A3B460EF0B9
:1020800057FD301A099F38430AA9089A50540496FC
:1020900007980A3E069A904136D30A220026204627
:1020A000294633460EF056FF3A430AA8059BC25410
:1020B000089911291D46049F28D838466438079886
:1020C000B04123D3642200243846079E314623467C
:1020D0000EF040FF0A2223460EF03CFF099802430F
:1020E0000AA8401942707D20C20038463146234676
:1020F0000EF030FFED1C089A102A03D8664AD21B56
:10210000B441ADD36D1E02E0059D00E06D1C2E466E
:10211000681E032108900EF04FF9481C032800D0D8
:102120000690032801D1354611E00AA8841E069FB7
:10213000A01940780DF054FC012F07D0B51EA05D0A
:102140000DF04EFCBF1E2E46F2D100E0751E089821
:10215000022810D36C420AA82818C51EA8780DF0D2
:102160003FFC68780DF03CFC28780DF039FCE41C4D
:10217000ED1E002CF2D10420002529460EF02AFD88
:102180004D480EF0D1FA029800B209F0D3F94B484D
:102190000EF0CAFA019800B209F0CCF906202946DF
:1021A0000EF018FD46480EF0BFFA009C207809F0AA
:1021B000C1F944480EF0B8FA607809F0BBF942481A
:1021C0000EF0B2FA0398006D012406952946059495
:1021D0000791621E08920A2204920546069F3B461A
:1021E0000EF0B8FE06460C46049A3B460EF0A0FCE4
:1021F000281A099F38430AA9089A50540495079849
:102200000A3D069A904136D30A22002530462146DF
:102210002B460EF09FFE3A430AA8059BC25408992C
:1022200011291C46049F28D8384664380798A841CD
:1022300023D3642200263846079D294633460EF0F4
:1022400089FE0A2233460EF085FE099802430AA849
:10225000001942707D20C2003846294633460EF0F0
:1022600079FEE41C089A102A03D80B4AD21BAE410F
:10227000ADD3641E02E0059C00E0641C2646601E8F
:10228000032109900EF098F8481C03281ED005463B
:102290001DE0C04640420F00E7030000FF7F000042
:1022A0000080FFFFA617010082170100101901002E
:1022B000EE1A0100C5180100A31A01009D180100C3
:1022C000D01A0100DF1901003B1A01000025032884
:1022D00011D00AA8841E3746E01940780DF080FB23
:1022E000012D07D0BE1EE05D0DF07AFBAD1E374616
:1022F000F2D100E07E1E0998022801D2FFF7A2FA6F
:1023000074420AA83018C51EA8780DF069FB6878D9
:102310000DF066FB28780DF063FBE41CED1E002C2D
:10232000F2D1FFF78FFA30460EF094F90790686803
:10233000F0490CF0F9FB064601460EF0AFFD00280F
:10234000204612D1EC4930460DF072F9002838468B
:102350000BD1C720010630460DF04CF9002801D002
:10236000781C02E030460EF075F906900895A868D2
:10237000E0490CF0D9FB074601460EF08FFD00281E
:10238000204613D1DC4938460DF052F90028DB48CD
:102390000CD1C720010638460DF02CF9002802D0D8
:1023A000D648401C02E038460EF054F905900998D2
:1023B00005467A352A3009900898C069D0490CF052
:1023C000B3FB064601460EF069FD0028274615D1ED
:1023D000C94930460DF02CF9002801D0C74F0DE057
:1023E000C720010630460DF005F90028C34801D08A
:1023F000471C03E030460EF02DF9074620462146E3
:102400000EF0E8FBBF480EF08FF9287809F092F83B
:10241000BD480EF089F9687809F08CF8BB480EF0D9
:1024200083F9079800B209F085F8B9480EF07CF9F5
:102430000820285609F07EF8022021460EF0CAFB3B
:10244000B4480EF071F9089D285F09F073F8B2489E
:102450000EF06AF9069800B209F06CF804202146E3
:102460000EF0B8FBAD480EF05FF9059800B209F028
:1024700061F8AB480EF058F938B209F05BF8062065
:1024800021460EF0A7FBA7480EF04EF909980078F8
:1024900009F050F8A4480EF047F921462E6F0125A7
:1024A00007910895681E09900A2206920025304679
:1024B0002B460EF04FFD07460C46069A2B460EF0B3
:1024C00037FB301A302318430AA9099A505406964C
:1024D0000A3E079806460495A8413DD311460A22B4
:1024E000002538460F4621461C462B460EF032FD8D
:1024F0002346394622430AA8089FC255112934466B
:10250000069E2BD8304664382046A84126D3642244
:102510003D4600273046214605933B460EF01AFD06
:102520000A223B460EF016FD059802430AA8401900
:1025300042707D20C200304621463B460EF00AFD27
:10254000ED1C099A102A04D8784A921BA741064626
:10255000A6D32F466F1E02E0089F00E07F1C781E66
:10256000032109900DF028FF481C032800D0049097
:10257000032801D13E4611E00AA8851E049CE819F3
:1025800040780DF02DFA012C07D0BE1EE85D0DF04D
:1025900027FAA41E3746F2D100E07E1E09980228D1
:1025A00001D2FFF74FF974420AA83018C51EA87867
:1025B0000DF016FA68780DF013FA28780DF010FA7D
:1025C000E41CED1E002CF2D1FFF73CF958483740CF
:1025D0003E46564C0EF0A8F856480EF0A5F828785E
:1025E000002860D000960798A04200D307940020EE
:1025F000012605900146079C06910896701E0990D9
:102600000A2207922046059E33460EF0A3FC05469B
:102610000F46079A33460EF08BFA201A30231843E0
:1026200016A9099A505407940A3C06980446B041EA
:102630003ED30A220026284639461D4633460EF070
:1026400089FC2A4316A80899425409991129079828
:1026500030D82746014664392146B1412AD32B465A
:1026600064220025044639461E462B460EF072FCB5
:102670000A222B460EF06EFC324316A8089E8019E3
:1026800042707D20C200204639462B460EF062FC87
:10269000F61C099A102A04D8244A121BBD4104468C
:1026A000AAD3761E08E024480EF03EF8039F5DE0B2
:1026B000089E01E0089E761C701E032109900DF013
:1026C0007BFE481C032801D0054600E000250328B6
:1026D00035D016A8841E3746E01940780DF080F9F1
:1026E000012D2BD0BE1EE05D0DF07AF9AD1E3746F0
:1026F000F2D124E00000204100FEFF46FF7F0000F1
:102700000000C842F71A01007F1A0100B817010043
:102710003F1A0100DC1A01007C170100E3180100D8
:1027200036170100571A0100971A0100E70300004D
:102730008D190100171A0100531A01007E1E099815
:10274000022810D3744216A83018C51EA8780DF0C0
:1027500047F968780DF044F928780DF041F9E41C48
:10276000ED1E002CF2D1039F049D009E0220002448
:1027700021460EF02FFAFC480DF0D6FF002E04D0B3
:102780000198285E08F0D6FE02E0F8480DF0CCFF74
:10279000F7480DF0C9FF0AA8005F08F0CBFEF54826
:1027A0000DF0C2FF002E04D0029800B208F0C2FE65
:1027B00002E0EE480DF0B8FF042000210EF00AFA06
:1027C000ED480DF0B1FF06200AAC205E08F0B2FE25
:1027D000EA480DF0A9FF0D98E949884200DC084657
:1027E000E849884200DB084608F0A4FEE6480DF000
:1027F0009BFF2C20205C052803D88000E349085863
:1028000000E0E3480DF090FF0620002421460EF082
:10281000E1F9287800286BD0DE480DF085FF288A82
:102820000AF09AFFDC480DF07FFF688B0AF094FFF6
:10283000DA480DF079FF0EF0EDF9012205942146FA
:10284000144608940791621E09920A2206920546D0
:10285000059C23460EF07EFB07460E46069A23464D
:102860000EF066F9281A3023184316A9099A505415
:10287000069507990A3D0846A04142D30A220C4614
:102880000025384631461E462B460EF063FB334684
:10289000324316A80899425409991129069E32D844
:1028A000304664382046A8412DD3642200273046A4
:1028B000254621461C463B460EF04CFB0A223B4671
:1028C0000EF048FB224316A8089C001942707D2098
:1028D000C200304629463B460EF03CFBE41C099AF8
:1028E000102A03D8AE4A921BAF41AAD3641E0CE053
:1028F000AC480DF019FF3868C0087C2825D9A84ECF
:1029000024E0089C01E0089C641C601E03210990DF
:102910000DF052FD481C032801D0054600E00025BB
:10292000032801D126466CE016A82746841EE0192C
:1029300040780DF055F8012D62D0BE1EE05D0DF01F
:102940004FF8AD1E3746F2D15BE03E68002001250E
:102950000490014606910795681E08900A22099284
:102960003046049C23460EF0F5FA07460D46099AB8
:1029700023460EF0DDF8301A3023184316A9089AC2
:10298000505405960A3E06980646A041099350D336
:102990000A2200243846294623460EF0DBFA09981D
:1029A000024316A807994254089B112B05980D461F
:1029B00041D8014664393146A1413CD36422002705
:1029C000044631463B460EF0C5FA0A223B460EF05D
:1029D000C1FA0998024316A8401942707D20C2002E
:1029E000204631463B460EF0B5FAED1C089A102AF7
:1029F00004D8D34A121BB7410646ABD36D1E1BE069
:102A00007E1E0998022801D2FEF71CFF744216A808
:102A10003018C51EA8780CF0E3FF68780CF0E0FFD2
:102A200028780CF0DDFFE41CED1E002CF2D1FEF73F
:102A300009FF079D00E06D1C681E032108900DF042
:102A4000BBFC481C032801D0064600E000260328F2
:102A500001D12F4610E016A8841E601940780CF0B2
:102A6000BFFF012E07D0AF1E605D0CF0B9FFB61E90
:102A70003D46F2D100E06F1E0898022810D37C4238
:102A800016A83818C51EA8780CF0AAFF68780CF0B4
:102A9000A7FF28780CF0A4FFE41CED1E002CF2D157
:102AA000A9480DF041FE03980569A548854200D369
:102AB000054600200124039001460791601E0890FE
:102AC0000A2206922846039E33460EF043FA074632
:102AD0000591069A33460EF02BF8281A2246099CD7
:102AE000204316A9089B585406950A3D07980546A9
:102AF000B04136D304920A2200263846059933465F
:102B00000EF028FA224316A8049C025508991129B0
:102B1000069849D80246643A2A46B24144D3642210
:102B20000027294606463B460EF014FA0A223B4689
:102B30000EF010FA0998024316A8001942707D2081
:102B4000C200304629463B460EF004FAE41C089ABF
:102B5000102A04D87A4A921BAF410546ADD3641EB1
:102B600023E0144621E0C046F11A0100E81A0100F2
:102B7000971A01003B1A0100D01A01000F1A010038
:102B80000080FFFFFF7F0000F61601000415010022
:102B90004F1A0100F41A01004B1A0100031A010038
:102BA000E7030000091B0100641C2646601E032188
:102BB00008900DF001FC481C032801D0054600E0F8
:102BC0000025032811D016A8841E3746E019407846
:102BD0000CF006FF012D07D0BE1EE05D0CF000FFDB
:102BE000AD1E3746F2D100E07E1E0898022810D3B1
:102BF000744216A83018C51EA8780CF0F1FE68784B
:102C00000CF0EEFE28780CF0EBFEE41CED1E002C20
:102C1000F2D14C480DF088FD0DF0FCFF002101259C
:102C20000691059507916A1E08920A2204920646AB
:102C3000069C23460EF08EF907460D46049A23465D
:102C40000DF076FF301A099C204316A9089A5054BB
:102C5000049607980A3E069A904136D30A22002627
:102C60003846294633460EF075F9224316A8059BCF
:102C7000C254089911291D46049C28D8204664385E
:102C80000798B04123D3642200272046079E31468F
:102C90003B460EF05FF90A223B460EF05BF90998BD
:102CA000024316A8401942707D20C20020463146DA
:102CB0003B460EF04FF9ED1C089A102A03D8204A23
:102CC000121BB741ADD36D1E02E0059D00E06D1CE7
:102CD0002E46681E032109900DF06EFB481C032848
:102CE00001D0054600E00025032811D016A8841E57
:102CF0003746E01940780CF073FE012D07D0BE1E58
:102D0000E05D0CF06DFEAD1E3746F2D100E07E1E98
:102D10000998022801D2FEF795FD744216A83018D2
:102D2000C51EA8780CF05CFE68780CF059FE287877
:102D30000CF056FEE41CED1E002CF2D1FEF782FDD5
:102D4000E7030000031A01007F1A0100F0B58DB0FF
:102D500000260EF013FA0446304631460DF03AFFD5
:102D6000D6480DF0E1FC0194E06A01250496314655
:102D7000039505916A1E06920A2207920746049D52
:102D80002B460EF0E7F804460E46079A2B460DF048
:102D9000CFFE381A3025284308A9069A50540297C6
:102DA00005980A3F049A9041079536D30A220027D6
:102DB000204631463B460EF0CDF82A4308A8039B37
:102DC000C254069911291D46029E28D830466438FF
:102DD0000598B84123D3642200243046059F394624
:102DE00023460EF0B7F80A2223460EF0B3F80798F0
:102DF000024308A8401942707D20C200304639467F
:102E000023460EF0A7F8ED1C069A102A03D8AC4A08
:102E1000921BBC41ACD36D1E02E0039D00E06D1C13
:102E2000681E032106900DF0C7FA481C032803D042
:102E30000446032803D114E00024032811D008A875
:102E40002F46861EF01940780CF0CAFD012C07D0E1
:102E5000BD1EF05D0CF0C4FDA41E2F46F2D100E0B3
:102E60007D1E0698022810D36C4208A82818C51E9B
:102E7000A8780CF0B5FD68780CF0B2FD28780CF05D
:102E8000AFFDE41CED1E002CF2D18E480DF04CFC81
:102E90000198006B002101250491039505916A1E9C
:102EA00006920A2202920746049D2B460EF052F823
:102EB00004460E46029A2B460DF03AFE381A079D3C
:102EC000284308A9069A5054029705980A3F049A85
:102ED000904136D30A220027204631463B460EF069
:102EE00039F82A4308A8039BC254069911291D46A4
:102EF000029E28D8304664380598B84123D364220E
:102F000000243046059F394623460EF023F80A2256
:102F100023460EF01FF80798024308A84019427094
:102F20007D20C2003046394623460EF013F8ED1CD2
:102F3000069A102A03D8624A921BBC41ADD36D1E7B
:102F400002E0039D00E06D1C681E032106900DF059
:102F500033FA481C032803D00446032803D114E0A5
:102F60000024032811D008A82F46861EF0194078A7
:102F70000CF036FD012C07D0BD1EF05D0CF030FDCD
:102F8000A41E2F46F2D100E07D1E0698022810D321
:102F90006C4208A82818C51EA8780CF021FD687896
:102FA0000CF01EFD28780CF01BFDE41CED1E002C1F
:102FB000F2D10220002421460DF00CFE42480DF013
:102FC000B3FB0198406B01250494214603950591BC
:102FD0006A1E06920A2202920746049D2B460DF0B5
:102FE000B9FF04460E46029A2B460DF0A1FD381A91
:102FF000079D284308A9069A5054029705980A3F4E
:10300000049A904136D30A220027204631463B4697
:103010000DF0A0FF2A4308A8039BC254069911296A
:103020001D46029E28D8304664380598B84123D3FF
:10303000642200243046059F394623460DF08AFF5E
:103040000A2223460DF086FF0798024308A840197C
:1030500042707D20C2003046394623460DF07AFF8B
:10306000ED1C069A102A03D8154A921BBC41ADD319
:103070006D1E02E0039D00E06D1C681E032106909A
:103080000DF09AF9481C032803D00446032803D105
:103090001DE0002403281AD008A82F46861EF01928
:1030A00040780CF09DFC012C10D0BD1EF05D0CF0A2
:1030B00097FCA41E2F46F2D109E0C046CA1A0100AF
:1030C000E7030000B0190100871A01007D1E069871
:1030D000022810D36C4208A82818C51EA8780CF046
:1030E0007FFC68780CF07CFC28780CF079FCE41C00
:1030F000ED1E002CF2D1D6480DF016FB0198806B26
:10310000002101250491039505916A1E06920A2269
:1031100002920746049D2B460DF01CFF04460E4606
:10312000029A2B460DF004FD381A079D284308A982
:10313000069A5054029705980A3F049A904136D354
:103140000A220027204631463B460DF003FF2A4362
:1031500008A8039BC254069911291D46029E28D82F
:10316000304664380598B84123D3642200243046A1
:10317000059F394623460DF0EDFE0A2223460DF049
:10318000E9FE0798024308A8401942707D20C2005A
:103190003046394623460DF0DDFEED1C069A102A16
:1031A00003D8AC4A921BBC41ADD36D1E02E0039D17
:1031B00000E06D1C681E032106900DF0FDF8481C10
:1031C000032803D00446032803D114E00024032875
:1031D00011D008A82F46861EF01940780CF000FC8C
:1031E000012C07D0BD1EF05D0CF0FAFBA41E2F468B
:1031F000F2D100E07D1E0698022810D36C4208A888
:103200002818C51EA8780CF0EBFB68780CF0E8FBDA
:1032100028780CF0E5FBE41CED1E002CF2D1042014
:10322000002421460DF0D6FC8B480DF07DFA019864
:10323000C06B012504942146039505916A1E0692F0
:103240000A2202920746049D2B460DF083FE044697
:103250000E46029A2B460DF06BFC381A079D284348
:1032600008A9069A5054029705980A3F049A90417B
:1032700036D30A220027204631463B460DF06AFE2F
:103280002A4308A8039BC254069911291D46029E91
:1032900028D8304664380598B84123D364220024E6
:1032A0003046059F394623460DF054FE0A22234638
:1032B0000DF050FE0798024308A8401942707D2087
:1032C000C2003046394623460DF044FEED1C069AF6
:1032D000102A03D85F4A921BBC41ADD36D1E02E099
:1032E000039D00E06D1C681E032106900DF064F83C
:1032F000481C032803D00446032803D114E000240B
:10330000032811D008A82F46861EF01940780CF02B
:1033100067FB012C07D0BD1EF05D0CF061FBA41E05
:103320002F46F2D100E07D1E0698022810D36C4291
:1033300008A82818C51EA8780CF052FB68780CF075
:103340004FFB28780CF04CFBE41CED1E002CF2D156
:1033500042480DF0E9F90198C06C00210125049163
:10336000039505916A1E06920A2202920746049D61
:103370002B460DF0EFFD04460E46029A2B460DF04B
:10338000D7FB381A079D284308A9069A505402977C
:1033900005980A3F049A904136D30A220027204616
:1033A00031463B460DF0D6FD2A4308A8039BC25484
:1033B000069911291D46029E28D830466438059882
:1033C000B84123D3642200243046059F3946234662
:1033D0000DF0C0FD0A2223460DF0BCFD0798024304
:1033E00008A8401942707D20C20030463946234665
:1033F0000DF0B0FDED1C069A102A03D8154A921B59
:10340000BC41ADD36D1E02E0039D00E06D1C681E43
:10341000032106900CF0D0FF481C032803D004467B
:10342000032803D11DE0002403281AD008A82F4642
:10343000861EF01940780CF0D3FA012C10D0BD1E76
:10344000F05D0CF0CDFAA41E2F46F2D109E0C04683
:10345000BA190100E7030000931A0100ED180100FA
:103460007D1E0698022810D36C4208A82818C51E95
:10347000A8780CF0B5FA68780CF0B2FA28780CF05D
:10348000AFFAE41CED1E002CF2D1062000242146E8
:103490000DF0A0FBE0480DF047F90198006C012504
:1034A00004942146039505916A1E06920A2202920F
:1034B0000746049D2B460DF04DFD04460E46029A2C
:1034C0002B460DF035FB381A079D284308A9069AAC
:1034D0005054029705980A3F049A904136D30A2225
:1034E0000027204631463B460DF034FD2A4308A80C
:1034F000039BC254069911291D46029E28D83046C6
:1035000064380598B84123D3642200243046059FCF
:10351000394623460DF01EFD0A2223460DF01AFD02
:103520000798024308A8401942707D20C200304627
:10353000394623460DF00EFDED1C069A102A03D8DD
:10354000B44A921BBC41ADD36D1E02E0039D00E066
:103550006D1C681E032106900CF02EFF481C0328EA
:1035600003D00446032803D114E00024032811D01B
:1035700008A82F46861EF01940780CF031FA012C6D
:1035800007D0BD1EF05D0CF02BFAA41E2F46F2D121
:1035900000E07D1E0698022810D36C4208A8281867
:1035A000C51EA8780CF01CFA68780CF019FA287877
:1035B0000CF016FAE41CED1E002CF2D197480DF029
:1035C000B3F80198406C0021012504910395059101
:1035D0006A1E06920A2202920746049D2B460DF0AF
:1035E000B9FC04460E46029A2B460DF0A1FA381A91
:1035F000079D284308A9069A5054029705980A3F48
:10360000049A904136D30A220027204631463B4691
:103610000DF0A0FC2A4308A8039BC2540699112967
:103620001D46029E28D8304664380598B84123D3F9
:10363000642200243046059F394623460DF08AFC5B
:103640000A2223460DF086FC0798024308A8401979
:1036500042707D20C2003046394623460DF07AFC88
:10366000ED1C069A102A03D86A4A921BBC41ADD3BE
:103670006D1E02E0039D00E06D1C681E0321069094
:103680000CF09AFE481C032803D00446032803D1FB
:1036900014E00024032811D008A82F46861EF01934
:1036A00040780CF09DF9012C07D0BD1EF05D0CF0A8
:1036B00097F9A41E2F46F2D100E07D1E069802283D
:1036C00010D36C4208A82818C51EA8780CF088F9F9
:1036D00068780CF085F928780CF082F9E41CED1E6E
:1036E000002CF2D14E480DF01FF80198866C002096
:1036F00001240490014603940691601E05900A225D
:1037000002923046049D2B460DF024FC07460C46E1
:10371000029A2B460DF00CFA301A079D284308A98F
:10372000059A505402960A3E06980499884136D369
:103730000A2200263846214633460DF00BFC069936
:103740002A4308A8039C0255059B112B029D28D8EB
:10375000284664380846B04123D364221E46002719
:1037600028463B460DF0F6FB0A223B460DF0F2FBE5
:103770000798024308A8001942707D20C20028461D
:1037800006993B460DF0E6FB069BE41C102E04D880
:10379000204A521B9F410646ADD3641E02E0039CA3
:1037A00000E0641C2646601E032107900CF004FE16
:1037B000481C032803D00546032803D114E0002544
:1037C000032811D008A8841E3746E01940780CF071
:1037D00007F9012D07D0BE1EE05D0CF001F9AD1E0A
:1037E0003746F2D100E07E1E0798022810D37442BB
:1037F00008A83018C51EA8780CF0F2F868780CF00C
:10380000EFF828780CF0ECF8E41CED1E002CF2D157
:103810000DB0F0BDE7030000AB1A01000119010073
:10382000BB180100F0B587B05B4E31787078B37883
:1038300099420A4600D31A46814200D3104630709E
:103840000420315E0620305E0822B35E99420A46AB
:1038500000DB1A46814200DB1046B0800A20315E50
:103860000C20305E0E22B35E99420A4600DB1A46F7
:10387000814200DB104670811020315E1220305EE4
:1038800014220492B35E99420A4600DB1A46814232
:1038900000DB104630821620315E1820305E1A227E
:1038A000B35E99420A4600DB1A46814200DB1046AD
:1038B000F0821C20315E1E20305E2022B35E9942D1
:1038C0000A4600DB1A46814200DB1046B083222004
:1038D000315E7D25E800814200DB0146CA17914335
:1038E00071842421715E814200DB0146CA17914335
:1038F000B1842621725E824200DB02460121012A48
:1039000000DC0A46F2842820335C072B1A4600D3D9
:103910000722002B0B4600D0134633542922B45CF7
:10392000642C234600D36423002C00D019461B4B83
:10393000B154718DC82901D2C82102E099421946BB
:1039400000D971852B01B18D642901D2642102E077
:103950009942194600D9B1850695EF00F18D2829C5
:1039600002D3B942384601D9F0850146328E8A42E7
:10397000104600D808468A4201D3984205D90699D4
:103980000901884200D308463086716BC829059327
:1039900006D2C82007E0C046D007202088130000C8
:1039A000D348814200D97063B46B002120460BF0EC
:1039B0002BFE002805D1CF4920460BF039FE002808
:1039C00001D0CD4CB463F56B002128460BF01CFEF2
:1039D000002805D1284621460BF020FE002801D002
:1039E000C648F063346C002120460BF00DFE002821
:1039F00005D1C34920460BF01BFE002801D0BF486B
:103A000030644420315ABF4A8918491E89B2BE4ADF
:103A1000914201D8642131524620315E069AD2008B
:103A2000914200DB1146CA17914331524820315A66
:103A3000B64A8918143989B2FD4A914201D8C82181
:103A400031525021705A0246153A049BDB439A4288
:103A500001D8052070525221725A642A01D882423C
:103A600001D2642070525421705AF24A8218521EB8
:103A700092B2F14B9A4201D83C2070525621725AB0
:103A8000BA4201D8824201D864207052B46D00213C
:103A900020460BF0B9FD0028069F05D1E7492046D6
:103AA0000BF0C6FD002801D0E548B0655C20315C14
:103AB000012903D0FF2901D0FF2131545E21725E1C
:103AC000F800824200DB0246D3179A43725260210B
:103AD000725E824200DB0246D3179A437252622121
:103AE000725E824200DB0246012A00DC0122725231
:103AF0006422B05EC82800DBC820C1178843049246
:103B0000B052B46E002120460BF092FD002805D083
:103B1000C54920460BF08CFD002801D0C14CB4668D
:103B2000F56E002128460BF083FD002805D02846BD
:103B300021460BF073FD002801D0C248F0667020CA
:103B4000315EFA00914200DB1146012900DC0121BF
:103B50003152756F002128460BF06AFD002806D00F
:103B60003F20010628460BF063FD002801D0B6482F
:103B70007067B56F284629460DF090F900280BD1E3
:103B8000284621460BF036FD002805D1A6492846D7
:103B90000BF04EFD002801D0AC48B067A34DF46F88
:103BA000002120460BF03AFD002805D0A749204609
:103BB0000BF03EFD002802D001208007F067802036
:103BC000315A6918491E89B2A94201D2C82131521D
:103BD00084257459002120460BF02AFD002805D0C9
:103BE0008F4920460BF024FD002801D097487051E2
:103BF00088257459002120460BF01AFD47424741A1
:103C0000B8203158204603910BF012FD411E884127
:103C10003843012801D18E4C745101258C2001902C
:103C20003758384639460DF039F902903846214662
:103C30000BF0E0FC0446384603990BF0F9FC411EFA
:103C40008841002C294600D1014602980028069F91
:103C500000D10D46012D02D17E480199705090206F
:103C6000325E9221715E9423F45EA242134600DB21
:103C700023468A4200DB194631529620315E5A298A
:103C8000664C00DB5A215922D2439142059B00DC4D
:103C9000114631529A20315E782900DB7821772253
:103CA000D243914200DC114631529820315A6429A6
:103CB000049A02D3A142224600D932529C20315AA2
:103CC000A14200D934529E20315A994200D9335230
:103CD000A020315A642901D2642301E0994200D91D
:103CE0003352A420325891087D2911D2B90012E034
:103CF000102700000000B442000040410000A04036
:103D00000000C84230F8FFFF2FF800002BFCFFFF37
:103D100051498A4200D93150F021725EF800824246
:103D200000DB0246D3179A437252F221725E82423E
:103D300000DB0246D01782437252F4203158474AC2
:103D40008918491E914201D239013150F825745920
:103D5000002120460BF058FC002806D17F20C10529
:103D600020460BF065FC002801D03D487051FC2531
:103D70007459002120460BF047FC002806D17F2013
:103D8000C10520460BF054FC002801D02E4870518C
:103D9000012005027459002120460BF02BFC00285D
:103DA00005D1304920460BF043FC002801D02E48B5
:103DB0007051412085007459002120460BF01AFCF7
:103DC000002806D17F20C10520460BF031FC0028D9
:103DD00001D0264870512120C100725EF800824255
:103DE00000DB0246D3179A43725285214900725E66
:103DF000824200DB0246D017824372524320810088
:103E0000705A002801D10520705287214900725A4A
:103E1000824200D2705207B0F0BDC0468813000045
:103E20000000B4420000A0400000C84230F800008A
:103E30002AFC00000CFEFFFF0BFE00000000FA430E
:103E40000000F543CDCC4C3FCDCC4C3E0000A04112
:103E50000000C84100003442983A0000F0D8FFFF4B
:103E60003333B33E000020419A99193F0AD7233CCF
:103E7000F0B58FB0DE4D0B90002800D19BE22426D8
:103E8000A85D002800D196E2FB4F01200190FB487D
:103E90000DF03AF9FA480B994843C00C081A002172
:103EA00080B20290039108460490039868610BE089
:103EB0007C2008212954686E401C686638460DF045
:103EC00023F9601D2D2C79D20446A85D00280AD064
:103ED00047200CA9022204F08BF8002806D07C2091
:103EE0000021295408E07C20082101E07C200921E0
:103EF0002954686E401C686638460DF005F9A85DC7
:103F000000280AD047200CA9022204F071F80028EA
:103F100006D07C200021295408E07C20082101E003
:103F20007C2009212954686E401C686638460DF0D3
:103F3000EBF8A85D00280AD047200CA9022204F063
:103F400057F8002806D07C200021295408E07C2066
:103F5000082101E07C2009212954686E401C686614
:103F600038460DF0D1F8A85D00280AD047200CA9EA
:103F7000022204F03DF8002806D07C2000212954BC
:103F800008E07C20082101E07C2009212954686E8A
:103F9000401C686638460DF0B7F8A85D002887D049
:103FA00047200CA9022204F023F8002803D07C202B
:103FB0000021295482E77C2009217BE7B148411C7C
:103FC0000A910027089707973C46099009E0641C6E
:103FD0000A90A9480DF098F87F1CB8B20B99884256
:103FE0002CD2A85D002820D047200DA9022203F082
:103FF000FFFF00281BD00D99C8BA09BA7C22002304
:10400000AB54C917089A12180892079A4A410792A6
:10401000099909B28142024600DC0A4609920A99CE
:1040200009B28142D3DB0846D1E7082000E009202D
:104030007C216854686E401C6866CAE7A2B2029888
:104040008242ED4F00D2A7E1002408980799234649
:104050000CF076FF06902F6A3846079421460BF045
:10406000D3FA0890069800B20CF060FA39460AF0CC
:10407000ADFE04460898002800D0079C099800B2BD
:104080000A9909B2081A0CF051FA39460AF09EFE54
:104090000746204607990BF0ADFA01210091C907A8
:1040A00000280894079100D04C402046D3490BF0DB
:1040B000BFFA04463846D2490BF0BAFA411E88418D
:1040C000002C019900D101460029CB4F00D063E1BB
:1040D0000898686100240A940EE00820099C7C215D
:1040E0006854686E401C686638460DF00DF8601D17
:1040F0000F2C044600D34BE1A85D0028099433D06F
:1041000047200EA9022203F073FF00282ED00E983C
:1041100005907C2000272F542C6A204639460BF04E
:1041200073FA06900598C0BA0CF000FA21460AF01E
:104130004DFE0699002900D03846089909F078FB11
:10414000044639460BF056FA002801D0079844403F
:10415000A94F2046AB490BF06BFA002800D01BE1B9
:104160000A98401C0A9007E0082000E009207C2102
:104170006854686E401C686638460CF0C5FFA85D40
:10418000002833D047200EA9022203F031FF002877
:1041900030D00E9805907C2000272F542C6A2046A2
:1041A00039460BF031FA06900598C0BA0CF0BEF90A
:1041B00021460AF00BFE0699002900D038460899DE
:1041C00009F036FB044639460BF014FA002801D0FA
:1041D00007984440884F20468A490BF029FA002866
:1041E00000D0D9E00A98401C0A9009E0082002E0BB
:1041F000E008202009207C216854686E401C686615
:1042000038460CF081FFA85D002833D047200EA966
:10421000022203F0EDFE002836D00E9805907C2097
:1042200000272F542C6A204639460BF0EDF90690F2
:104230000598C0BA0CF07AF921460AF0C7FD069934
:10424000002900D03846089909F0F2FA04463946A8
:104250000BF0D0F9002801D007984440664F204663
:1042600068490BF0E5F9002800D095E00A98401C59
:104270000A900FE0082008E0007102000024F4001A
:10428000CDCC0000FF7F000009207C216854686EBF
:10429000401C686638460CF037FFA85D002832D015
:1042A00047200EA9022203F0A3FE00282DD00E986D
:1042B00005907C2000272F542C6A204639460BF0AD
:1042C000A3F906900598C0BA0CF030F921460AF01F
:1042D0007DFD0699002900D03846089909F0A8FA12
:1042E000044639460BF086F9002801D0079844406F
:1042F000414F204643490BF09BF900284CD10A98C6
:10430000401C0A9007E0082000E009207C21685446
:10431000686E401C686638460CF0F6FEA85D002802
:1043200000D1DAE647200EA9022203F061FE002840
:104330002CD00E9805907C2000272F542C6A204604
:1043400039460BF061F906900598C0BA0CF0EEF80A
:1043500021460AF03BFD0699002900D0384608990D
:1043600009F066FA044639460BF044F9002801D0FA
:1043700007984440204F204622490BF059F9002865
:104380000AD10A98401C0A90099CADE60920A5E6CE
:104390000A9880B2112825D80498022807D004462C
:1043A00019480CF0B1FE601C022C00D27CE5002004
:1043B0006861252101E025210020685426216854E8
:1043C0000B23124900220A6011490A6011490A7040
:1043D00011490A7029216A54EA616A857C216B546B
:1043E0000FB0F0BD2520009929540023EB84AB6564
:1043F0002B660198E5E7C0460071020000002041ED
:104400000000A0400000404000A86100440F2020B0
:10441000640B2020870F2020940F2020F0B597B048
:104420000E91002900D1ACE20B904B2085000120B9
:104430000C900FA812300A900024324E324B334AAF
:104440000D9508E032498868401C8860641C0E980D
:10445000844200D397E231881888814200D193E2E8
:104460002C48405C491C17462A46D3320A40328009
:104470003A460D28EAD028490A2805D108780128AB
:104480001FD100200870B2E009780129DAD0014676
:104490007F395F22D24391426DD81D4DA86B401CDD
:1044A000A86354200C2129541C4A1088A96840187C
:1044B000401CA8600D9D002010800C9816490870C3
:1044C000A3E0164801880029C0D0114D2869401C7E
:1044D00028610FAA124801F0C9FF2B46042876D89C
:1044E000194620310622800001A31858084B874640
:1044F00025450000CF450000C5450000DD45000012
:10450000D74500006C0F20206A0F2020300F20209C
:104510000C0B202000042020810F2020680F202079
:10452000500A20200FA8007C099000283A466ED03F
:10453000119801B2C9134840401A80B2962811D888
:104540000FA8408901B2C9134840401A80B296288A
:1045500008D8129801B2C9134840401A80B2FB49EA
:10456000884254D3986B401C986354200C211954F2
:10457000FB4B0D9D3AE0FB49098840280FD10029EB
:1045800006D0F94A906840189060D068401CD0600E
:104590004020F64908700C98F249088035E000295F
:1045A00028D05F292BD3FD4D286A401C2862542057
:1045B00006222A54A8684018A8600D9D0020F649DC
:1045C00008807AE7F44800889968081898601946C6
:1045D00038310C2202E01946243107220868401CB9
:1045E000086054201A54EB4B0D9D3A460020EA49CE
:1045F00008802BE7E9498868401C886005E04A1C70
:10460000E54E3280E24EE64A50543A461EE75220CA
:10461000195C00290D9D13D006901098E149096896
:10462000079088422BD21168481C08900020049003
:104630000898884200D398E00498C043089095E019
:104640000121089111600F9A502107925A52FF21BF
:10465000023119520B9898640898D8645869401C24
:1046600058611099CF4806910160CF480830242145
:104670000CF044FD099A002A2CD110462BE053215E
:10468000595C002900D1F4E00FA9088850215A5A3A
:10469000831A1BB2012B00DAF2E03A680890BF4B94
:1046A0005852FF210231069819520B9898640692CD
:1046B000DA645869401C5861BA4807990160BA48E1
:1046C000083024210CF01AFD099A002A00D0E0E0FD
:1046D0001046DFE00920B44908720898C860079BBB
:1046E0000B82069B4B610D834883119804900FA8A1
:1046F0000590C08906900021CB43002A184600D0BF
:1047000004980390002A184600D008460290002A18
:10471000069900D11146A44A039890830298D08349
:1047200011845384089B1370099850700B99516041
:104730009E4A1370099850700598407C90705160A3
:104740009068401C9060D36007981082099A002AF4
:1047500000D104929549049848820598408988823E
:104760001298C8820D8306986DE01060596C491C40
:104770000F98502205909852FF22023206981A5242
:1047800059640B9898640898D8645869401C58611B
:104790008448079901608448083024210CF0AEFC5D
:1047A000099A002A01D1104600E00920049B7E49A5
:1047B00008720898C86005980882079848610D83B8
:1047C000012001904883119807900FA80290C18999
:1047D000D843002A069002D0079B0693049B002A28
:1047E000039000D00393002A049100D11146009158
:1047F0006D4B069999830399D9830099198458843C
:10480000019919705A700B985860684A117009998B
:104810005170029B587C90700B9850609068401CBF
:1048200090600898D060059810820A46002901D14E
:10483000084607915D4907984882588988821298EE
:10484000C8820D830498488308461C300C220A99BC
:104850000CF0D8FC0998002801D0182000E01C209A
:104860004C4B4E4A1158491C1150542003211154ED
:10487000BBE60FA800220B9908F0BCF9454BB4E643
:10488000904275D1454AD06B401CD063542004211E
:1048900074E00920444908720698C86008980882A4
:1048A000079848610D830C984883119805900FA8CC
:1048B0000490C08907900021CB43002A184600D0FD
:1048C00005980390002A184600D008460290002A56
:1048D000079900D11146344A039890830298D083F7
:1048E000118453840C981070099951700B99516080
:1048F0002E4A107009985070049B587C907051603B
:104900009068401C90600698D060089810820998C2
:10491000002800D105902549059848825889888249
:104920001298C8820D830798488308461C300C22D1
:104930000A990CF067FC0999002901D0182000E0C1
:104940001C20144B002903D00C9902E0B90B000085
:104950000221124D2A58521C2A505420295443E651
:104960006A0F2020680F20200C0B2020500A2020E6
:104970000A4A106C401C1064542005211154054B48
:1049800033E6002400E00E9CA0B217B0F0BDC04694
:104990006C0F20206A0F2020680F20200C0B202095
:1049A000500A2020240F2020DC0C2020340D202051
:1049B000F0B597B0099103901C99002B01D000200D
:1049C00018800493002901D0002008800A920591E4
:1049D000DC4801210C910170DB49F020085AF221DA
:1049E0000B91F4210D912121C900129185214900DB
:1049F00013914321890010910026FC210F91F82189
:104A00000E9141210191890011917D210291C900EE
:104A100008918842304671D8CB480B99415E0029F5
:104A200030466BD4C9488142304667DAC6480D9992
:104A300040580028304661D0C3491298085E16904D
:104A40001398085E15901098085A14900F980C58F7
:104A50000E980F581198085806900C9800020858A4
:104A60000790002138460AF0E3FD0028304645D083
:104A70007F20C505384629460AF0C6FD0028304685
:104A80003CD0002120460AF0D3FD0028304635D026
:104A9000204629460AF0B8FD002830462ED00021D5
:104AA00007980AF0BBFD0028304627D0002406985E
:104AB00021460AF0B3FD002830461FD01698002882
:104AC00030461BD4A14816998142304616DA159813
:104AD0000028304612D4FC481599814230460DDA40
:104AE00014980028304609D087204000F549085A1C
:104AF0001499884201D2204600E00120F04C6070F9
:104B00007F210998084060710BF0E0FEA071411E02
:104B100002468A412271002803D060790AF096FC8F
:104B2000064626810A9887B208998F4200D30F461D
:104B3000002800D50027E783E06B401C00D2E0632B
:104B4000207800280AD06078002807D02622A35CAD
:104B5000032B0ED10021218408468CE100206080C7
:104B6000E06020616061A061A0832062A08417B032
:104B7000F0BD591E2079012910D8002800D18DE000
:104B80000020E06220866080E06020616061A061BA
:104B9000A083606221462431087102E0002800D120
:104BA00095E0607932216054A6860199014001297F
:104BB00004D0084640290BD1012000E0FF20272126
:104BC0006054282001212154A06B401C00D2A06316
:104BD000E07800284DD0E468BA490F98085815903D
:104BE0000E980D5830460BF0A1FC214608F020FE2F
:104BF0000146284609F098FF214608F01EFE16904F
:104C0000AF49C8601098AF49085A01210026039A9D
:104C100090420B4600D9334687225200A94DAA5A2A
:104C2000039DAA4200D231460B40A54EB370012B22
:104C3000169D2DD12846214608F0FAFD044603981A
:104C40000BF0BEFE0146A2480AF0C0F8214609F06A
:104C50006BFF30617469214608F0EAFD0146159842
:104C600009F062FF214608F0E8FD01467061954EAB
:104C700083E030460BF05AFC05460021E0602161DC
:104C800061610120E070A078002861D08D4E74E051
:104C900000213161716134468A4E60E0E06A039D13
:104CA00029180020A94200D2C143E1622546854E61
:104CB0000D9C3459A14234D20B98315A0022012B59
:104CC000104600D00846012B7D4C28D1F2E0002090
:104CD0006080A084E06020616061A061A0832821E1
:104CE000615C0029774D00D1D1E02721635CFF2B67
:104CF00001D002210C910C99A1542086039EE662FA
:104D00000D996958B14200D8CCE00B98295A00227D
:104D1000FF2B104600D00846FF2B00D1CAE01146F9
:104D2000C8E06880A884E86028616861A861A883F9
:104D30000321A954654929860146049A2C462884F2
:104D40009AE0C046000C2020D0072020E903000094
:104D500016955C4E1098305A87214900725A0123EB
:104D60000021039DA842184600D90846039DAA4287
:104D700000D20B461840A070169D0120169000022C
:104D800034581198305809F0CFFE0646204629467F
:104D900009F0CAFE314608F050FD054648488561D5
:104DA000129848490E5A284629460CF077F80028F0
:104DB00000D082E0744220B20BF0B8FB01462846D6
:104DC0000AF022FC002819D130B20BF0AFFB0146EB
:104DD00028460AF023FC002834460FD1002128463B
:104DE0000AF01CFC002801D1BF2000E03F20010692
:104DF000284608F022FD0BF02DFC04463048848341
:104E000020B21590C0190299CA009042044600D3FE
:104E10001446002100280D462A4B00D425466C1E5E
:104E20002846A041139C1C5FA542169E00DB0E463F
:104E300030402426224B98550028084600D12846A9
:104E40001F4D2884159BFD1A95422B4600D313460F
:104E5000002D0A4600D41A46551E1346AB41A24205
:104E600000DB1691169C23402524154D2B552C460E
:104E7000002B00D11146049A6184002A00D01080D2
:104E80000599002901D0608C088017B0F0BD002181
:104E9000E162E170252021540320A054012000028A
:104EA000208658E6E070252160540321A15407496B
:104EB00021860146049A2084DEE700249EE7C0464E
:104EC000000C2020D0072020E90300000102000090
:104ED00000007A44F0B59BB009900CF05BF90C909F
:104EE0000CF05CF908900CF065F902900CF05EF99A
:104EF00003900CF037F904900CF074F906900CF064
:104F000075F905900CF076F907900CF037F9074623
:104F10007A3000903846243001900CF06FF90A90F6
:104F200048300B900CF03EF9014677310F910D900F
:104F300044300E900CF026F906460446243410A89E
:104F40000BF058FE094D099828600CF077F828718D
:104F50000BF0E2FF089A68710C98C088E88010682E
:104F6000072100280C9104D002E0C0460006202052
:104F70000178297210796872D08968819089A88136
:104F8000907CA8730CF048F8E873F84948782874C6
:104F9000C8886882C869686130882883B078A87634
:104FA0007079E876B07928773089E883F0682862EC
:104FB00070696862B069A862B08BA885308CE8859A
:104FC000708C2886207832216854607833210891CB
:104FD0006854A07834216854E078352109916854E8
:104FE000207936216854F06AA863207B3C216854FC
:104FF000607B3D216854A07B3E216854B08E4021E7
:105000006852B06B6864B869A8643869E864786904
:1050100028653888542168527868A865B868E865BA
:10502000F8692866386A6866009A108868216852AC
:10503000D0886A216852107A6C26A855386D286786
:10504000786D686701990868A8674868E867F86A32
:1050500080216850386B84216850786B88216850B3
:10506000B86B8C216850F86B90216850386C942193
:105070006850786C98216850B86C9C216850F86C26
:10508000A0216850F86EA4216850386FA82168509C
:10509000786FAC216850B86DB0216850F86DB421BC
:1050A0006850386EB8216850B86EBC2168500298BC
:1050B0000078C02168540BF0BBFFC12168540BF08D
:1050C000F3FFC221685403980078C3216854049AFE
:1050D0001068C42168509088C8216852A34F386A6C
:1050E000CC216850B86BD0216850B88DD42168525B
:1050F0004820385CD62168543B464C330FCBD8242B
:105100002851DC202950E0202A50E4202B505C203C
:10511000385AE82168525E20385CEA216854F88DDC
:10512000EC2168525F21785CEE22A8546020385C44
:10513000EF22A854786EBA6EF023E850F4202A507B
:10514000B85BF822A8521698FC22A85017980122A2
:105150001202A850189841229200A8500698406860
:10516000059B5A6810185A6980182122D200A8504D
:10517000079C207843229200A8546278FF200346BF
:105180000E33EA54A27887235B00EA54A268112305
:105190001B01EA500A9E326845239B00EA50726860
:1051A0002323DB00EA50F268B368092464012B5121
:1051B0002B195A60726933692524E4002B512B198D
:1051C0005A60B26913231B01EA50F2694D239B0018
:1051D000EA50326A2723DB00EA50726A4F239B00B1
:1051E000EA50B26A05239B01EA50F26A51239B0000
:1051F000EA50326B2923DB00EA500B9CA278532340
:105200009B00EA54E27803464E33EA542279A723FE
:105210005B00EA54326D15231B01EA50F26B5523F3
:105220009B00EA50326C2B23DB00EA50726C572350
:105230009B00EA5022780B235B01EA546278034614
:105240006233EA540D9E3288B1235B00EA527288C1
:1052500059239B00EA523279B3235B00EA54B268C7
:105260002D23DB00EA50F2685B239B00EA50326991
:1052700017231B01EA50B28B5D239B00EA520E9C60
:105280002289BB235B00EA52326A2F23DB00EA50FB
:10529000326D89006A50716A0322D201A950716D82
:1052A00061229200A950B16A3122D200A950B16D99
:1052B00063229200A950F16A19221201A950F16DDE
:1052C00065229200A950316B089AD200A950316E24
:1052D00067229200A950716B0D225201A950716E84
:1052E00069229200A950B16B099AD200A950B16EFF
:1052F0006B229200A950F16B1B221201A950F16E92
:105300006D229200A950316C3722D200A950316F22
:105310006F229200A95021880C9A9201A952218EE5
:10532000E1225200A952E17871229200A9540F9B08
:1053300019780246C632A9546179E3225200A95471
:1053400099780246C832A954A1793922D200A954C9
:10535000D9780246CA32A954E179E5225200A9540B
:105360001979CC3029541BB0F0BDC046E00920208B
:10537000F0B591B00BF006FF0546044626340BF05D
:1053800021FF0B902620285C401EC0B2022803D8C3
:105390008000F249085800E0F148099060780390D5
:1053A000E07A02900026304631460BF013FCED48BF
:1053B0000BF0BAF90A956C7930253127E0072846B9
:1053C00000D038460AF00CFBA007284600D5384626
:1053D0000AF006FB6007284600D538460AF000FBB5
:1053E0002007284600D538460AF0FAFAE006284693
:1053F00000D538460AF0F4FAA006284600D538460B
:105400000AF0EEFA600600D53D4628460AF0E8FAB2
:10541000022031460BF0DEFBE4480BF085F90998D9
:105420000BF082F9E2480BF07FF908200A9C205E1D
:1054300006F080F82F200AF0D3FAE56828462946BE
:105440000BF02CFD002813D1DA4EDB4928460AF078
:10545000EFF800280CD1C720010628460AF0CAF848
:10546000002801D0761C03E028460BF0F3F806462E
:1054700030B206F05FF80420002529460BF0AAFBA5
:10548000CE480BF051F91C20205E06F053F8CC48B2
:105490000BF04AF92020205E06F04CF8C9480BF0CA
:1054A00043F92220205E06F045F80620099529469A
:1054B0000BF090FBC4480BF037F90B984469C349D3
:1054C00020460AF079FF05467D20C1002046049160
:1054D0000AF072FF3C210AF06FFF0791BC4801946B
:1054E000844202D830200AF07BFA01270999284625
:1054F00006970A917A1E0B920A2208920446099E88
:1055000033460BF027FD05460F46089A33460BF04D
:105510000FFB201A302630430CA90B9A50540594E7
:105520000A980A3C099A9041089635D30A22002429
:105530002846394623460BF00DFD32430CA8069B46
:10554000C2540B9911291F46059E27D8304664384E
:105550000A98A04122D36422002530460A9C2146A5
:105560002B460BF0F7FC0A222B460BF0F3FC0898B5
:1055700002430CA8C019427030462146049A2B46BB
:105580000BF0E8FCFF1C0B9A102A03D8914A921BDF
:10559000A541ADD37F1E02E0069F00E07F1C781E70
:1055A00003210B900AF008FF481C032812D005467F
:1055B000032812D00CA8841EE01940780AF010FAD3
:1055C000012D0CD0BE1EE05D0AF00AFAAD1E374672
:1055D000F2D105E000250328ECD13E4600E07E1E16
:1055E0000B98022810D374420CA83018C51EA87856
:1055F0000AF0F6F968780AF0F3F928780AF0F0F979
:10560000E41CED1E002CF2D13A200AF0E9F9079DC6
:10561000092D02D830200AF0E3F9002101200A9078
:1056200005910B910A98401E09900A262846324699
:10563000059C23460BF08EFC0F460690324623460F
:105640000BF076FA281A089E30430CA9099A505498
:1056500007950A3D0B98A04137D30A2200240698EB
:10566000394623460BF076FC0B9932430CA80A9B73
:10567000C254099B112B079D29D828466438084637
:10568000A04124D36422002728463B460BF062FC4D
:105690000A223B460BF05EFC32430CA80A9C001920
:1056A000427028460B99049A3B460BF053FC0B9B27
:1056B000E41C0A94099A102A04D8464A521B9F41B6
:1056C0000546AED30A9D6D1E03E00A9D01E00A9DCA
:1056D0006D1C681E03210B900AF06EFE481C032807
:1056E00012D00646032812D00CA8841E60194078F8
:1056F0000AF076F9012E0CD0AF1E605D0AF070F949
:10570000B61E3D46F2D105E000260328ECD12F4617
:1057100000E06F1E0B98022810D37C420CA83818AA
:10572000C51EA8780AF05CF968780AF059F928785B
:105730000AF056F9E41CED1E002CF2D10299022960
:1057400001D0264C00E0244C0398012900D1244CC0
:10575000012809D05525FF2809D009E06816010065
:10576000A71A0100001701005225FF2800D14C257F
:10577000642101980AF020FE0A210AF01DFE0E465F
:105780002E200AF02DF90898064330460AF028F931
:1057900014480AF0C9FF28460AF022F909480AF01D
:1057A000C3FF20460AF0C0FF11B0F0BDBE1A0100D1
:1057B0003B1A0100FF7F000000FEFF46F71A0100C0
:1057C0002B1A0100031A0100D61A010060EA00003A
:1057D000BF270900E70300004C1901000C1B010062
:1057E000FB1901006F1A0100F0B58FB00B930A92FC
:1057F0000C460546476800263846314609F0F0FE5B
:1058000000280DD0AE60E8680121C9074140296138
:105810006E61AE61EE612E626E62AE62EE62FFE1BB
:105820000294159809902E462A360D95AC680025ED
:105830002046294609F0D4FE00280C960E970894BD
:1058400032D1069500263846314609F0F1FE079020
:105850002046314609F0ECFE411E224604468C41AA
:105860004142414105911046314609F0C3FE0546CB
:10587000401E85413846314609F0BCFE4142414157
:1058800007980028204603D1694005980140084642
:105890000C99891C012800D0ACE0087800280E9FE4
:1058A000069D089C04D104E0B078002801D0B11C0A
:1058B0000D7000263846314609F09CFE0121CD07C7
:1058C0000028069100D06F402046314609F092FE34
:1058D000002801D1254600E06540D34C38462946D2
:1058E00009F0A6FE002801D1E83400E0E4340E9F60
:1058F0002068099909F018F90546089C20463946A0
:1059000009F078FE00280AD02046294607F095FFC6
:105910000546394609F08CFE002810D010E02046DC
:10592000394609F085FE00280AD02046294607F0AE
:105930007FFF0546394609F05DFE002800D12F465D
:105940000D9DAF60E9680E97384607F071FF044679
:105950002861314609F06CFE0746401E39468141F8
:10596000079103942046314609F044FE411E044647
:105970008C41002800D0F043069B002F00D1034645
:10598000002B0C9F09D03878411E02468A41D9B2BB
:105990000E1A701E864116403B701498019001202B
:1059A00005903E7100210E9D2846089109F040FEA9
:1059B000411E88410490204200940DD00120F870CF
:1059C0000A9E0D9D6E6268690021069009F030FE06
:1059D000002805982CD042E000262846314609F0E0
:1059E00009FE002820D00798F8700028029E1DD0DC
:1059F0000A9E1BE001200E9108708B48E821405858
:105A0000099909F091F80146002D089800D1E1E0CC
:105A100007F013FF07460025294609F009FE002874
:105A20000D9C00D0E3E0E3E0FE70029E0D9846621C
:105A300000270E98394609F0DDFD34460646401E23
:105A40008641079806400D984069069039460C9F9C
:105A500009F0D0FD411E8841304026460D9D0A9038
:105A60007871039C2046314609F05EF80290A861E7
:105A7000B8206D4F39580E9809F0A8F96B490E916E
:105A800009F052F8019909F04FF801902862204678
:105A9000099909F049F80A99002928D0E021795894
:105AA00009F042F8069D294607F0C7FE0146002688
:105AB00028460D46314609F0BBFD002805D00021DF
:105AC000284609F097FD002815D100260698314692
:105AD00009F090FD07462846314609F0A9FD002847
