:10000000008020207F130100FBE50000FBE50000DD
:1000100000000000000000000000000000000000E0
:10002000000000000000000000000000FBE50000F0
:100030000000000000000000FBE50000B9E2000045
:10004000FBE50000F50C0100FBE50000D502010016
:10005000FBE50000FBE50000FBE50000FBE5000020
:1000600000000000FBE50000FBE5000000000000D0
:1000700000000000FBE50000FBE50000FBE50000E0
:10008000FBE50000FBE50000FBE50000FBE50000F0
:10009000FBE50000FBE500000000000000000000A0
:1000A000FBE50000FBE50000000000000000000090
:1000B000FBE5000000000000FBE50000FBE50000A0
:1000C000F0B5BFB016AF07AD34AC204610F074FDEC
:1000D0002DA810F041F938460FF0B0FE284610F078
:1000E0004DFC207DE17C002901D0C14E00E0C14ED5
:1000F0004937002800D0C04E3879002800970FD02B
:100100000020014610F016FEBC4810F0BDFBB87A86
:10011000401EC0B2022818D88000B949085815E01E
:10012000B879002800D198E00020014610F002FEC6
:10013000B44810F0A9FB387B401EC0B2022800D999
:10014000CFE08000B0490858CCE0B04810F09CFBEC
:10015000AF4810F099FB387B401EC0B2022803D88C
:100160008000A949085800E0AA48002410F08CFB40
:1001700002200194214610F0DDFDA74810F084FB19
:100180003878002865D0179C002C03D52D200FF05F
:10019000D5FC6442A149204610F0BEF9084601256D
:1001A0000199049505916A1E06920A220392074658
:1001B000019E334610F07EFF04460D46039A3346F7
:1001C00010F066FD381A302318433AA9069A5054A5
:1001D000039705990A3F0846B0415DD30A220E46AF
:1001E0000027204629461C463B4610F063FF234665
:1001F00022433AA8049C0255069911292546039AE0
:100200004CD8104664383046B84147D3174664226C
:100210000024384631460293234610F04BFF0A2251
:10022000234610F047FF029802433AA84019427053
:100230007D20C20038463146234610F03BFFED1CBE
:10024000069A102A03D8764AD21BB441A9D36D1E50
:1002500025E0704810F018FB04E134356879002877
:1002600000D175E200242046214610F063FD6D4860
:1002700010F00AFB02200394214610F05BFD614858
:1002800010F002FB6879401EC0B2042800D9B1E228
:10029000800065490858AEE2049D00E06D1C2F46C1
:1002A000681E0321069010F037F9481C032813D06C
:1002B0000446032813D03AA8861EF01940780FF0A0
:1002C0003DFC012C00D1B7E0BD1EF05D0FF036FC07
:1002D000A41E2F46F1D1B0E000240328EBD13D4607
:1002E000ABE04C48002410F0CFFA504810F0CCFAA4
:1002F000304610F0C9FA0220214610F01BFD4C4890
:1003000010F0C2FA04200194214610F013FD494870
:1003100010F0BAFA7878002800D115E2189C002C69
:1003200003D52D200FF00AFC64423C49204610F012
:10033000F3F80D460126019904910596701E06906A
:100340000A2203922846019F3B4610F0B3FE044662
:100350000E46039A3B4610F09BFC281A30231843A4
:100360003AA9069A505403950A3D04980546B841A7
:1003700000D203E20A220027204631461C463B46B3
:1003800010F098FE234622433AA8059C0255069990
:1003900011292646039A00D9F2E11046643828460E
:1003A000B84100D2ECE117466422002438462946C1
:1003B0000293234610F07EFE0A22234610F07AFEB6
:1003C000029802433AA8801942707D20C200384644
:1003D0002946234610F06EFEF61C069A102A04D811
:1003E0000F4AD21BAC410546A6D3761EC9E1C046D2
:1003F000401A0100AD1B0100691B01001C1B01001C
:10040000F0170100C31C0100E4170100C71A010026
:10041000351C0100A81C0100361A010040420F00E3
:10042000E70300009C170100C816010081180100B5
:100430006C170100781C01007D1E0698022810D35D
:100440006C423AA82818C51EA8780FF077FB687888
:100450000FF074FB28780FF071FBE41CED1E002CEC
:10046000F2D1009F04200021019110F063FCD648D6
:1004700010F00AFA7878002865D0189C002C03D573
:100480002D200FF05BFB6442D049204610F044F869
:10049000084601250199049505916A1E06920A22D3
:1004A00003920746019E334610F004FE04460D46B3
:1004B000039A334610F0ECFB381A302318433AA95C
:1004C000069A5054039705990A3F0846B0413ED317
:1004D0000A220E460027204629461C463B4610F0BD
:1004E000E9FD234622433AA8049C025506991129A6
:1004F0002546039A2DD8104664383046B84128D393
:10050000174664220024384631460293234610F0F1
:10051000D1FD0A22234610F0CDFD029802433AA8ED
:10052000401942707D20C20038463146234610F003
:10053000C1FDED1C069A102A03D8A54AD21BB4416E
:10054000A9D36D1E06E0A34810F09EF939E0049D82
:1005500000E06D1C2F46681E032106900FF0DCFFA3
:10056000481C032812D00446032812D03AA8861E3D
:10057000F01940780FF0E2FA012C0CD0BD1EF05DAE
:100580000FF0DCFAA41E2F46F2D105E00024032868
:10059000ECD13D4600E07D1E0698022810D36C4247
:1005A0003AA82818C51EA8780FF0C8FA68780FF086
:1005B000C5FA28780FF0C2FAE41CED1E002CF2D127
:1005C000009F854810F060F9B878002866D0199C23
:1005D000002C03D52D200FF0B1FA64427B49204650
:1005E0000FF09AFF0846002101250191049505911D
:1005F0006A1E06920A2203920746019E334610F0B5
:1006000059FD04460D46039A334610F041FB381A53
:10061000302318433AA9069A5054039705990A3F84
:100620000846B0413ED30A220E46002720462946FE
:100630001C463B4610F03EFD234622433AA8049C4C
:100640000255069911292546039A2DD8104664387B
:100650003046B84128D31746642200243846314634
:100660000293234610F026FD0A22234610F022FDB5
:10067000029802433AA8401942707D20C2003846D1
:100680003146234610F016FDED1C069A102A03D8B9
:100690004F4AD21BB441A9D36D1E06E04D4810F05D
:1006A000F3F839E0049D00E06D1C2F46681E03211D
:1006B00006900FF031FF481C032812D0044603288F
:1006C00012D03AA8861EF01940780FF037FA012CA4
:1006D0000CD0BD1EF05D0FF031FAA41E2F46F2D1F2
:1006E00005E000240328ECD13D4600E07D1E06987D
:1006F000022810D36C423AA82818C51EA8780FF01B
:100700001DFA68780FF01AFA28780FF017FAE41C2F
:10071000ED1E002CF2D1009F0620002110F00AFBF4
:10072000F87A032804D0022805D12C4800F0AEFF47
:100730002B4800F0ABFFB87A032802D0294800F01C
:10074000A5FF294800F0A2FF224810F09DF8D3E051
:10075000787A002800D124E300200090014610F0B0
:10076000E9FA224810F090F8F87B401EC0B2022847
:1007700000D92BE380001E49085828E3059E00E0BD
:10078000761C701E032106900FF0C6FE481C03283D
:1007900014D00446032814D03AA83746861EF01910
:1007A00040780FF0CBF9012C00D18FE0BD1EF05D39
:1007B0000FF0C4F9A41E2F46F1D188E000240328CD
:1007C000EAD1354683E0C046781C010040420F0064
:1007D000E7030000A81C0100851B0100171701009A
:1007E00039170100B917010028170100BD1A0100CF
:1007F000D8170100F94810F047F8F94810F044F80C
:10080000089C002C03D52D200FF098F96442F5497F
:1008100020460FF081FE08460125039902950491B8
:100820006A1E05920A2206920646039C234610F091
:1008300041FC07460D46069A234610F029FA301A65
:10084000302420433AA9059A5054019604980A3E50
:10085000039A9041069400D20CE10A220026384601
:100860002946334610F026FC22433AA8029BC25484
:10087000059911291D46019C00D9FDE020466438E8
:100880000498B04100D2F7E0642200272046049E7D
:1008900031463B4610F00EFC0A223B4610F00AFCA3
:1008A000069802433AA8401942707D20C2002046B3
:1008B00031463B4610F0FEFBED1C059A102A03D88A
:1008C000C94A121BB741A9D36D1ED6E07D1E0698FA
:1008D000022810D36C423AA82818C51EA8780FF039
:1008E0002DF968780FF02AF928780FF027F9E41C21
:1008F000ED1E002CF2D1009FBC480FF0C5FFB87868
:10090000002866D0199C002C03D52D200FF016F975
:100910006442B44920460FF0FFFD0846002101253E
:100920000191049505916A1E06920A2203920746D8
:10093000019E334610F0BEFB04460D46039A334633
:1009400010F0A6F9381A302318433AA9069A5054E1
:10095000039705990A3F0846B0413ED30A220E4646
:100960000027204629461C463B4610F0A3FB2346A1
:1009700022433AA8049C0255069911292546039A58
:100980002DD8104664383046B84128D31746642223
:100990000024384631460293234610F08BFB0A228E
:1009A000234610F087FB029802433AA84019427090
:1009B0007D20C20038463146234610F07BFBED1CFB
:1009C000069A102A03D8884AD21BB441A9D36D1EB7
:1009D00006E087480FF058FF39E0049D00E06D1CE9
:1009E0002F46681E032106900FF096FD481C032831
:1009F00012D00446032812D03AA8861EF019407877
:100A00000FF09CF8012C0CD0BD1EF05D0FF096F895
:100A1000A41E2F46F2D105E000240328ECD13D4668
:100A200000E07D1E0698022810D36C423AA82818D0
:100A3000C51EA8780FF082F868780FF07FF8287844
:100A40000FF07CF8E41CED1E002CF2D1009F062074
:100A5000002110F06FF9F879002802D0654800F005
:100A600015FE7879002802D0634800F00FFE634835
:100A700000F00CFE029D00E06D1C2E46681E032156
:100A800005900FF049FD481C032803D005460328B4
:100A900003D114E00025032811D03AA8841E37465C
:100AA000E01940780FF04AF8012D07D0BE1EE05D36
:100AB0000FF044F8AD1E3746F2D100E07E1E0598D7
:100AC000022810D374423AA83018C51EA8780FF037
:100AD00035F868780FF032F828780FF02FF8E41C1A
:100AE000ED1E002CF2D104200021039110F022F918
:100AF00043480FF0C9FE099C002C03D52D200FF0B0
:100B00001DF86442374920460FF006FD08460125CE
:100B10000399029504916A1E05920A2201920646E3
:100B2000039C234610F0C6FA07460D46019A234659
:100B300010F0AEF8301A069C20433AA9059A50549A
:100B4000019604980A3E039A904136D30A22002661
:100B500038462946334610F0ADFA22433AA8029BA4
:100B6000C254059911291D46019C28D82046643895
:100B70000498B04123D3642200272046049E3146C6
:100B80003B4610F097FA0A223B4610F093FA06987B
:100B900002433AA8401942707D20C20020463146E7
:100BA0003B4610F087FAED1C059A102A03D80E4A2E
:100BB000121BB741ADD36D1E02E0029D00E06D1C1B
:100BC0002E46681E032105900FF0A6FC481C032842
:100BD00018D00546032818D129E0C046211B010082
:100BE000111C010040420F00E7030000851B0100BB
:100BF000A81C01000417010008180100C717010014
:100C0000AB1C01000025032811D03AA8841E3746EA
:100C1000E01940780EF092FF012D07D0BE1EE05D76
:100C20000EF08CFFAD1E3746F2D100E07E1E059817
:100C3000022810D374423AA83018C51EA8780EF0C6
:100C40007DFF68780EF07AFF28780EF077FFE41CBD
:100C5000ED1E002CF2D1EE480FF016FE0A9C002C7F
:100C600003D52D200EF06AFF6442EA4920460FF0BA
:100C700053FC0846002101250391029504916A1E48
:100C800005920A2201920646039C234610F012FAAE
:100C900007460D46019A23460FF0FAFF301A069CCC
:100CA00020433AA9059A5054019604980A3E039AA3
:100CB000904136D30A22002638462946334610F0A2
:100CC000F9F922433AA8029BC254059911291D46FD
:100CD000019C28D8204664380498B04123D364226C
:100CE00000272046049E31463B4610F0E3F90A22D5
:100CF0003B4610F0DFF9069802433AA840194270CB
:100D00007D20C200204631463B4610F0D3F9ED1C51
:100D1000059A102A03D8C04A121BB741ADD36D1EE5
:100D200002E0029D00E06D1C2E46681E0321069025
:100D30000FF0F2FB481C032803D00546032803D11B
:100D400014E00025032811D03AA8841E3746E01984
:100D500040780EF0F3FE012D07D0BE1EE05D0EF0D0
:100D6000EDFEAD1E3746F2D100E07E1E0698022849
:100D700010D374423AA83018C51EA8780EF0DEFED3
:100D800068780EF0DBFE28780EF0D8FEE41CED1E2D
:100D9000002CF2D1062000210FF0CCFF9F4800F07C
:100DA00075FC387A002800D1D9E3002001460FF005
:100DB000C1FF9B480FF068FD787B401EC0B204283D
:100DC00000D9DFE3800097490858DCE396480FF02C
:100DD0005BFD96480FF058FD219D01240099049178
:100DE000601E05900A2206922846009E334610F0A7
:100DF00061F907460291069A33460FF049FF281A17
:100E00002246302420433AA9059B585403950A3DB5
:100E100004980546B041069436D301920A22002672
:100E200038460299334610F045F922433AA8019C0E
:100E3000025505991129039828D80246643A2A4692
:100E4000B24123D364220027294606463B4610F0D0
:100E500031F90A223B4610F02DF9069802433AA8D0
:100E6000001942707D20C200304629463B4610F0F2
:100E700021F9E41C059A102A04D8674A921BAF4155
:100E80000546ACD3641E02E0144600E0641C26460E
:100E9000601E032105900FF03FFB481C032801D082
:100EA000054600E00025032811D03AA8841E3746E5
:100EB000E01940780EF042FE012D07D0BE1EE05D25
:100EC0000EF03CFEAD1E3746F2D100E07E1E0598C6
:100ED000022810D374423AA83018C51EA8780EF024
:100EE0002DFE68780EF02AFE28780EF027FEE41C0E
:100EF000ED1E002CF2D10220002103910FF01AFF09
:100F00004B480FF0C1FC179C002C03D52D200EF090
:100F100015FE64423F4920460FF0FEFA08460125BF
:100F20000399029504916A1E05920A2201920646CF
:100F3000039C234610F0BEF807460D46019A23464F
:100F40000FF0A6FE301A069C20433AA9059A505489
:100F5000019604980A3E039A904136D30A2200264D
:100F600038462946334610F0A5F822433AA8029B9A
:100F7000C254059911291D46019C28D82046643881
:100F80000498B04123D3642200272046049E3146B2
:100F90003B4610F08FF80A223B4610F08BF806987B
:100FA00002433AA8401942707D20C20020463146D3
:100FB0003B4610F07FF8ED1C059A102A03D8164A1C
:100FC000121BB741ADD36D1E02E0029D00E06D1C07
:100FD0002E46681E032105900FF09EFA481C032838
:100FE00001D0054600E00025032824D03AA8841E3D
:100FF0003746E01940780EF0A1FD012D1AD0BE1E33
:10100000E05D0EF09BFDAD1E3746F2D113E0C04609
:10101000681A010040420F00E70300005218010067
:101020002E190100DC160100C71A0100F51B010092
:10103000B11C01007E1E0598022810D374423AA804
:101040003018C51EA8780EF079FD68780EF076FD90
:1010500028780EF073FDE41CED1E002CF2D1E3485D
:101060000FF012FC269C002C03D52D200EF066FDFF
:101070006442DF4920460FF04FFA0846002101255F
:101080000391029504916A1E05920A220192064676
:10109000039C234610F00EF807460D46019A23469E
:1010A0000FF0F6FD301A069C20433AA9059A5054D9
:1010B000019604980A3E039A904136D30A220026EC
:1010C0003846294633460FF0F5FF22433AA8029BE3
:1010D000C254059911291D46019C28D82046643820
:1010E0000498B04123D3642200272046049E314651
:1010F0003B460FF0DFFF0A223B460FF0DBFF06986E
:1011000002433AA8401942707D20C2002046314671
:101110003B460FF0CFFFED1C059A102A03D8B54AC5
:10112000121BB741ADD36D1E02E0029D00E06D1CA5
:101130002E46681E032105900FF0EEF9481C032887
:1011400001D0054600E00025032811D03AA8841EEE
:101150003746E01940780EF0F1FC012D07D0BE1E95
:10116000E05D0EF0EBFCAD1E3746F2D100E07E1ED6
:101170000598022810D374423AA83018C51EA878E2
:101180000EF0DCFC68780EF0D9FC28780EF0D6FC66
:10119000E41CED1E002CF2D10420002103910FF07D
:1011A000C9FD95480FF070FB099C002C03D52D203C
:1011B0000EF0C4FC64428E4920460FF0ADF908469B
:1011C00001250399029504916A1E05920A22019253
:1011D0000646039C23460FF06DFF07460D46019A15
:1011E00023460FF055FD301A069C20433AA9059A74
:1011F0005054019604980A3E039A904136D30A222D
:1012000000263846294633460FF054FF22433AA8B9
:10121000029BC254059911291D46019C28D82046DD
:1012200064380498B04123D3642200272046049EEA
:1012300031463B460FF03EFF0A223B460FF03AFF95
:10124000069802433AA8401942707D20C200204609
:1012500031463B460FF02EFFED1C059A102A03D8AD
:10126000644A121BB741ADD36D1E02E0029D00E03F
:101270006D1C2E46681E032105900FF04DF9481C89
:10128000032801D0054600E00025032811D03AA824
:10129000841E3746E01940780EF050FC012D07D02F
:1012A000BE1EE05D0EF04AFCAD1E3746F2D100E0F6
:1012B0007E1E0598022810D374423AA83018C51E25
:1012C000A8780EF03BFC68780EF038FC28780EF019
:1012D00035FCE41CED1E002CF2D148480FF0D4FA86
:1012E000279C002C03D52D200EF028FC6442404999
:1012F00020460FF011F908460021012503910295BF
:1013000004916A1E05920A2201920646039C234616
:101310000FF0D0FE07460D46019A23460FF0B8FCA9
:10132000301A069C20433AA9059A50540196049815
:101330000A3E039A904136D30A22002638462946AF
:1013400033460FF0B7FE22433AA8029BC2540599D8
:1013500011291D46019C28D8204664380498B041C4
:1013600023D3642200272046049E31463B460FF0DB
:10137000A1FE0A223B460FF09DFE069802433AA8C2
:10138000401942707D20C200204631463B460FF096
:1013900091FEED1C059A102A03D8F64A121BB7419C
:1013A000ADD36D1E02E0029D00E06D1C2E46681E4E
:1013B000032105900FF0B0F8481C032801D0054622
:1013C00000E0002503281CD03AA8841E3746E01907
:1013D00040780EF0B3FB012D12D0BE1EE05D0EF082
:1013E000ADFBAD1E3746F2D10BE0C046511C0100EB
:1013F00040420F00E7030000AB1C01001D1C010070
:101400007E1E0598022810D374423AA83018C51ED3
:10141000A8780EF093FB68780EF090FB28780EF019
:101420008DFBE41CED1E002CF2D106200024214689
:101430000FF080FCDA480FF027FA07A8008E01258C
:1014400003942146029504916A1E05920A22019294
:101450000646039C23460FF02DFE07460D46019AD3
:1014600023460FF015FC301A069C20433AA9059A32
:101470005054019604980A3E039A904136D30A22AA
:1014800000263846294633460FF014FE22433AA878
:10149000029BC254059911291D46019C28D820465B
:1014A00064380498B04123D3642200272046049E68
:1014B00031463B460FF0FEFD0A223B460FF0FAFD97
:1014C000069802433AA8401942707D20C200204687
:1014D00031463B460FF0EEFDED1C059A102A03D86D
:1014E000A44A121BB741ADD36D1E02E0029D00E07D
:1014F0006D1C2E46681E032106900FF00DF8481C47
:10150000032801D0054600E00025032811D03AA8A1
:10151000841E3746E01940780EF010FB012D07D0ED
:10152000BE1EE05D0EF00AFBAD1E3746F2D100E0B4
:101530007E1E0698022800D2A7E074423AA830180E
:10154000C51EA8780EF0FAFA68780EF0F7FA287837
:101550000EF0F4FAE41CED1E002CF2D195E02C788C
:10156000002001460FF0E6FB002C4ED090480FF013
:101570008BF92879401EC0B2032852D880008D49CB
:1015800008584FE078480FF07FF920200EF0D6FA87
:1015900030460FF079F90220002421460FF0CAFBF3
:1015A00075480FF071F91798C1170AF047F87B4892
:1015B0000FF06AF92298C1170AF040F8042021467A
:1015C0000FF0B8FB6D480FF05FF91A98C1170AF0D9
:1015D00035F86B480FF058F91B98C1170AF02EF830
:1015E000062021460FF0A6FB69480FF04DF9099837
:1015F000C1170AF023F86C480FF046F907A8008ECF
:1016000021460AF01FFD694840E05E480FF03CF9B2
:10161000387B401EC0B202283CD88000544908588C
:1016200039E051480FF030F90220002421460FF034
:1016300081FB59480FF028F90898C11709F0FEFFFF
:1016400056480FF021F90798C11709F0F7FF042059
:1016500021460FF06FFB4E480FF016F90998C1179D
:1016600009F0ECFF4B480FF00FF90A98C11709F089
:10167000E5FF062021460FF05DFB49480FF004F915
:1016800007A8008E21460AF0DDFC46480FF0FCF862
:101690003FB0F0BD35480FF0F7F83C480FF0F4F8D4
:1016A0003878179909F01AFF20200EF047FA3046D3
:1016B0000FF0EAF80220002529460FF03BFB3E48D8
:1016C0000FF0E2F82D98C11709F0B8FF3B480FF072
:1016D000DBF83599349809F0B1FF042029460FF062
:1016E00029FB26480FF0D0F87878189909F0F6FE13
:1016F00023480FF0C9F8B878199909F0EFFE0620D1
:1017000029460FF017FB787B04280DD005280DD152
:101710002C480FF0B9F8B87B401EC0B2062818D884
:1017200080002949085815E02548AFE7F97B28488B
:101730000329ABD1397C0629A8D026480FF0A4F89C
:10174000387C401EC0B2062808D880001E490858C0
:1017500005E00D480FF098F81C4897E70A480FF08D
:1017600093F81D4892E7C046C71A0100A81C010063
:10177000E4170100E7030000361A0100781C01009D
:10178000851B0100C31C0100211B0100111C01006D
:10179000AB1C0100681A0100B11C0100511C0100C2
:1017A000961C0100DF180100B11B0100BC180100EC
:1017B000661801004C1701003A1B0100891B01004B
:1017C0007C1701004619010060160100781801001D
:1017D0008C170100E6180100B4180100F0B58DB0B7
:1017E00000260FF07BFD0446304631460FF0A2FA8A
:1017F000D6480FF049F80194E06A01250496314675
:10180000039505916A1E06920A2207920746049DD7
:101810002B460FF04FFC04460E46079A2B460FF05E
:1018200037FA381A3025284308A9069A50540297E7
:1018300005980A3F049A9041079536D30A2200275B
:10184000204631463B460FF035FC2A4308A8039B4F
:10185000C254069911291D46029E28D83046643884
:101860000598B84123D3642200243046059F3946A9
:1018700023460FF01FFC0A2223460FF01BFC07989B
:10188000024308A8401942707D20C2003046394604
:1018900023460FF00FFCED1C069A102A03D8AC4A21
:1018A000921BBC41ACD36D1E02E0039D00E06D1C99
:1018B000681E032106900EF02FFE481C032803D05B
:1018C0000446032803D114E00024032811D008A8FB
:1018D0002F46861EF01940780EF030F9012C07D003
:1018E000BD1EF05D0EF02AF9A41E2F46F2D100E0D5
:1018F0007D1E0698022810D36C4208A82818C51E21
:10190000A8780EF01BF968780EF018F928780EF018
:1019100015F9E41CED1E002CF2D18E480EF0B4FF38
:101920000198006B002101250491039505916A1E21
:1019300006920A2202920746049D2B460FF0BAFB3C
:1019400004460E46029A2B460FF0A2F9381A079D5C
:10195000284308A9069A5054029705980A3F049A0A
:10196000904136D30A220027204631463B460FF0ED
:10197000A1FB2A4308A8039BC254069911291D46BE
:10198000029E28D8304664380598B84123D3642293
:1019900000243046059F394623460FF08BFB0A2270
:1019A00023460FF087FB0798024308A840194270AE
:1019B0007D20C2003046394623460FF07BFBED1CEC
:1019C000069A102A03D8624A921BBC41ADD36D1E01
:1019D00002E0039D00E06D1C681E032106900EF0DE
:1019E0009BFD481C032803D00446032803D114E0C0
:1019F0000024032811D008A82F46861EF01940782D
:101A00000EF09CF8012C07D0BD1EF05D0EF096F88C
:101A1000A41E2F46F2D100E07D1E0698022810D3A6
:101A20006C4208A82818C51EA8780EF087F86878B8
:101A30000EF084F828780EF081F8E41CED1E002CDE
:101A4000F2D10220002421460FF074F942480EF032
:101A50001BFF0198406B01250494214603950591D5
:101A60006A1E06920A2202920746049D2B460FF038
:101A700021FB04460E46029A2B460FF009F9381A4C
:101A8000079D284308A9069A5054029705980A3FD3
:101A9000049A904136D30A220027204631463B461D
:101AA0000FF008FB2A4308A8039BC254069911298A
:101AB0001D46029E28D8304664380598B84123D385
:101AC000642200243046059F394623460FF0F2FA7F
:101AD0000A2223460FF0EEFA0798024308A840199D
:101AE00042707D20C2003046394623460FF0E2FAAC
:101AF000ED1C069A102A03D8154A921BBC41ADD39F
:101B00006D1E02E0039D00E06D1C681E032106901F
:101B10000EF002FD481C032803D00446032803D11D
:101B20001DE0002403281AD008A82F46861EF019AD
:101B300040780EF003F8012C10D0BD1EF05D0DF0C2
:101B4000FDFFA41E2F46F2D109E0C046811C010012
:101B5000E70300004E1B01003D1C01007D1E06989E
:101B6000022810D36C4208A82818C51EA8780DF0CA
:101B7000E5FF68780DF0E2FF28780DF0DFFFE41C48
:101B8000ED1E002CF2D1D6480EF07EFE0198806B3F
:101B9000002101250491039505916A1E06920A22EF
:101BA00002920746049D2B460FF084FA04460E4627
:101BB000029A2B460FF06CF8381A079D284308A9A3
:101BC000069A5054029705980A3F049A904136D3DA
:101BD0000A220027204631463B460FF06BFA2A4383
:101BE00008A8039BC254069911291D46029E28D8B5
:101BF000304664380598B84123D364220024304627
:101C0000059F394623460FF055FA0A2223460FF066
:101C100051FA0798024308A8401942707D20C2007B
:101C20003046394623460FF045FAED1C069A102A35
:101C300003D8AC4A921BBC41ADD36D1E02E0039D9C
:101C400000E06D1C681E032106900EF065FC481C28
:101C5000032803D00446032803D114E000240328FA
:101C600011D008A82F46861EF01940780DF066FFA7
:101C7000012C07D0BD1EF05D0DF060FFA41E2F46A5
:101C8000F2D100E07D1E0698022810D36C4208A80D
:101C90002818C51EA8780DF051FF68780DF04EFF8A
:101CA00028780DF04BFFE41CED1E002CF2D104202F
:101CB000002421460FF03EF88B480EF0E5FD019818
:101CC000C06B012504942146039505916A1E069276
:101CD0000A2202920746049D2B460FF0EBF90446B8
:101CE0000E46029A2B460EF0D3FF381A079D284362
:101CF00008A9069A5054029705980A3F049A904101
:101D000036D30A220027204631463B460FF0D2F94F
:101D10002A4308A8039BC254069911291D46029E16
:101D200028D8304664380598B84123D3642200246B
:101D30003046059F394623460FF0BCF90A22234658
:101D40000FF0B8F90798024308A8401942707D20A7
:101D5000C2003046394623460FF0ACF9ED1C069A16
:101D6000102A03D85F4A921BBC41ADD36D1E02E01E
:101D7000039D00E06D1C681E032106900EF0CCFB55
:101D8000481C032803D00446032803D114E0002490
:101D9000032811D008A82F46861EF01940780DF0B0
:101DA000CDFE012C07D0BD1EF05D0DF0C7FEA41EB8
:101DB0002F46F2D100E07D1E0698022810D36C4217
:101DC00008A82818C51EA8780DF0B8FE68780DF090
:101DD000B5FE28780DF0B2FEE41CED1E002CF2D109
:101DE00042480EF051FD0198C06C0021012504917C
:101DF000039505916A1E06920A2202920746049DE7
:101E00002B460FF057F904460E46029A2B460EF069
:101E10003FFF381A079D284308A9069A5054029795
:101E200005980A3F049A904136D30A22002720469B
:101E300031463B460FF03EF92A4308A8039BC254A3
:101E4000069911291D46029E28D830466438059807
:101E5000B84123D3642200243046059F39462346E7
:101E60000FF028F90A2223460FF024F907980243BD
:101E700008A8401942707D20C200304639462346EA
:101E80000FF018F9ED1C069A102A03D8154A921B78
:101E9000BC41ADD36D1E02E0039D00E06D1C681EC9
:101EA000032106900EF038FB481C032803D004469B
:101EB000032803D11DE0002403281AD008A82F46C8
:101EC000861EF01940780DF039FE012C10D0BD1E91
:101ED000F05D0DF033FEA41E2F46F2D109E0C0469E
:101EE000581B0100E70300004D1C01007C1A010093
:101EF0007D1E0698022810D36C4208A82818C51E1B
:101F0000A8780DF01BFE68780DF018FE28780DF00B
:101F100015FEE41CED1E002CF2D106200024214603
:101F20000EF008FFE0480EF0AFFC0198006C0125B0
:101F300004942146039505916A1E06920A22029294
:101F40000746049D2B460FF0B5F804460E46029A4C
:101F50002B460EF09DFE381A079D284308A9069AC5
:101F60005054029705980A3F049A904136D30A22AA
:101F70000027204631463B460FF09CF82A4308A82C
:101F8000039BC254069911291D46029E28D830464B
:101F900064380598B84123D3642200243046059F55
:101FA000394623460FF086F80A2223460FF082F8BE
:101FB0000798024308A8401942707D20C2003046AD
:101FC000394623460FF076F8ED1C069A102A03D8FE
:101FD000B44A921BBC41ADD36D1E02E0039D00E0EC
:101FE0006D1C681E032106900EF096FA481C03280B
:101FF00003D00446032803D114E00024032811D0A1
:1020000008A82F46861EF01940780DF097FD012C88
:1020100007D0BD1EF05D0DF091FDA41E2F46F2D13C
:1020200000E07D1E0698022810D36C4208A82818EC
:10203000C51EA8780DF082FD68780DF07FFD287828
:102040000DF07CFDE41CED1E002CF2D197480EF043
:102050001BFC0198406C002101250491039505911A
:102060006A1E06920A2202920746049D2B460FF032
:1020700021F804460E46029A2B460EF009FE381A45
:10208000079D284308A9069A5054029705980A3FCD
:10209000049A904136D30A220027204631463B4617
:1020A0000FF008F82A4308A8039BC2540699112987
:1020B0001D46029E28D8304664380598B84123D37F
:1020C000642200243046059F394623460EF0F2FF75
:1020D0000A2223460EF0EEFF0798024308A8401993
:1020E00042707D20C2003046394623460EF0E2FFA2
:1020F000ED1C069A102A03D86A4A921BBC41ADD344
:102100006D1E02E0039D00E06D1C681E0321069019
:102110000EF002FA481C032803D00446032803D11A
:1021200014E00024032811D008A82F46861EF019B9
:1021300040780DF003FD012C07D0BD1EF05D0DF0C1
:10214000FDFCA41E2F46F2D100E07D1E0698022859
:1021500010D36C4208A82818C51EA8780DF0EEFC14
:1021600068780DF0EBFC28780DF0E8FCE41CED1E1F
:10217000002CF2D14E480EF087FB0198866C0020AF
:1021800001240490014603940691601E05900A22E2
:1021900002923046049D2B460EF08CFF07460C46FB
:1021A000029A2B460EF074FD301A079D284308A9A9
:1021B000059A505402960A3E06980499884136D3EF
:1021C0000A2200263846214633460EF073FF069950
:1021D0002A4308A8039C0255059B112B029D28D871
:1021E000284664380846B04123D364221E4600279F
:1021F00028463B460EF05EFF0A223B460EF05AFF91
:102200000798024308A8001942707D20C2002846A2
:1022100006993B460EF04EFF069BE41C102E04D898
:10222000204A521B9F410646ADD3641E02E0039C28
:1022300000E0641C2646601E032107900EF06CF936
:10224000481C032803D00546032803D114E00025C9
:10225000032811D008A8841E3746E01940780DF0F5
:102260006DFC012D07D0BE1EE05D0DF067FCAD1EBC
:102270003746F2D100E07E1E0798022810D3744240
:1022800008A83018C51EA8780DF058FC68780DF025
:1022900055FC28780DF052FCE41CED1E002CF2D108
:1022A0000DB0F0BDE7030000651C0100901A0100AD
:1022B0004F1A0100F0B59BB00FF040F805460FF043
:1022C00041F806460EF0BEFF297800240029039647
:1022D00002D06968411A00E0E1436F78781E8741B7
:1022E00007919729049501D3264600E001260AADFF
:1022F00028460EF08BFD285F1221049D0191695E36
:10230000411ADF48814200DB0146DE48814200DCA1
:1023100001460291204621460EF00CFDDA480EF0EF
:10232000B3FA2878002804D00798962803D9D7480C
:1023300007E0D74805E06878002801D0D54800E0DC
:10234000D54837403E46D54C0EF09EFAD4480EF0A4
:102350009BFA2878002860D000960798A04200D306
:1023600007940020012605900146079C06910896D7
:10237000701E09900A2207922046059E33460EF0F1
:1023800099FE05460F46079A33460EF081FC201A47
:102390003023184316A9099A505407940A3C06980A
:1023A0000446B0413ED30A220026284639461D463F
:1023B00033460EF07FFE2A4316A808994254099925
:1023C0001129079830D82746014664392146B14182
:1023D0002AD32B4664220025044639461E462B4646
:1023E0000EF068FE0A222B460EF064FE324316A859
:1023F000089E801942707D20C200204639462B4637
:102400000EF058FEF61C099A102A04D8A34A121B93
:10241000BD410446AAD3761E08E0A2480EF034FA65
:10242000039F3BE0089E01E0089E761C701E03217E
:1024300009900EF071F8481C032803D005460328C4
:1024400003D114E00025032811D016A8841E3746B6
:10245000E01940780DF072FB012D07D0BE1EE05D43
:102460000DF06CFBAD1E3746F2D100E07E1E0998E0
:10247000022810D3744216A83018C51EA8780DF093
:102480005DFB68780DF05AFB28780DF057FBE41CD3
:10249000ED1E002CF2D1039F049D009E022000241B
:1024A00021460EF047FC80480EF0EEF9002E04D0D5
:1024B0000198285E08F05CFF02E07C480EF0E4F929
:1024C0007B480EF0E1F90AA8005F08F051FF794857
:1024D0000EF0DAF9002E04D0029800B208F048FF9E
:1024E00002E072480EF0D0F9042000210EF022FC28
:1024F00071480EF0C9F906200AAC205E08F038FFDA
:102500006E480EF0C1F90D985E49884200DC08461D
:102510005B49884200DB084608F02AFF68480EF055
:10252000B3F92C20205C052803D8800065490858A1
:1025300000E065480EF0A8F90620002421460EF0C0
:10254000F9FB287800286BD060480EF09DF9288AA6
:102550000BF04AF95E480EF097F9688B0BF044F9DE
:102560005C480EF091F90EF005FC0122059421461D
:10257000144608940791621E09920A2206920546A3
:10258000059C23460EF096FD07460E46069A234606
:102590000EF07EFB281A3023184316A9099A5054CE
:1025A000069507990A3D0846A04142D30A220C46E7
:1025B0000025384631461E462B460EF07BFD33463D
:1025C000324316A80899425409991129069E32D817
:1025D000304664382046A8412DD364220027304677
:1025E000254621461C463B460EF064FD0A223B462A
:1025F0000EF060FD224316A8089C001942707D2051
:10260000C200304629463B460EF054FDE41C099AB0
:10261000102A03D8214A921BAF41AAD3641E0CE0B2
:102620002D480EF031F93868C0087C2856D91B4E69
:1026300055E0089C01E0089C641C601E0321099081
:102640000DF06AFF481C032814D00546032814D057
:1026500016A82746841EE01940780DF06FFA012D68
:1026600000D196E0BE1EE05D0DF068FAAD1E374663
:10267000F1D18FE000250328EAD126468AE0C04642
:10268000FF7F00000080FFFF4019010022190100B8
:10269000A41A0100AE1C0100211B0100E703000089
:1026A000C51B0100FD1B0100B11C0100A81C01009D
:1026B000511C0100E11B0100871C0100BD1B010032
:1026C0008A18010098160100F91B0100B41C0100D2
:1026D000F51B0100B11B0100C61C01003E68002073
:1026E00001250490014606910795681E08900A226C
:1026F00009923046049C23460EF0DCFC07460D464A
:10270000099A23460EF0C4FA301A3023184316A94A
:10271000089A505405960A3E06980646A041099329
:102720004ED30A2200243846294623460EF0C2FC26
:102730000998024316A807994254089B112B059843
:102740000D463FD8014664393146A1413AD364224F
:102750000027044631463B460EF0ACFC0A223B46BD
:102760000EF0A8FC0998024316A8401942707D207B
:10277000C200204631463B460EF09CFCED1C089AF8
:10278000102A04D8C34A121BB7410646ABD36D1EAC
:1027900019E07E1E0998022800D278E1744216A83A
:1027A0003018C51EA8780DF0C9F968780DF0C6F983
:1027B00028780DF0C3F9E41CED1E002CF2D166E17F
:1027C000079D00E06D1C681E032108900DF0A4FE1B
:1027D000481C032812D00646032812D016A8841ECF
:1027E000601940780DF0AAF9012E0CD0AF1E605D83
:1027F0000DF0A4F9B61E3D46F2D105E000260328EF
:10280000ECD12F4600E06F1E0898022810D37C42BE
:1028100016A83818C51EA8780DF090F968780DF044
:102820008DF928780DF08AF9E41CED1E002CF2D108
:102830009A480EF029F8039805699648854200D316
:10284000054600200124039001460791601E089070
:102850000A2206922846039E33460EF02BFC0746BA
:102860000591069A33460EF013FA281A2246099C5F
:10287000204316A9089B585406950A3D079805461B
:10288000B04136D304920A220026384605993346D1
:102890000EF010FC224316A8049C02550899112939
:1028A000069828D80246643A2A46B24123D36422C5
:1028B0000027294606463B460EF0FCFB0A223B4613
:1028C0000EF0F8FB0998024316A8001942707D200B
:1028D000C200304629463B460EF0ECFBE41C089A49
:1028E000102A04D86B4A921BAF410546ADD3641E33
:1028F00002E0144600E0641C2646601E0321089096
:102900000DF00AFE481C032803D00546032803D116
:1029100014E00025032811D016A8841E3746E019BC
:1029200040780DF00BF9012D07D0BE1EE05D0DF0D3
:1029300005F9AD1E3746F2D100E07E1E0898022848
:1029400010D3744216A83018C51EA8780DF0F6F8FA
:1029500068780DF0F3F828780DF0F0F8E41CED1E1F
:10296000002CF2D14C480DF08FFF0EF003FA00213D
:1029700001250691059507916A1E08920A22049284
:102980000646069C23460EF095FB07460D46049A24
:1029900023460EF07DF9301A099C204316A9089AA7
:1029A0005054049607980A3E069A904136D30A225C
:1029B00000263846294633460EF07CFB224316A8F3
:1029C000059BC254089911291D46049C28D820460D
:1029D00064380798B04123D3642200272046079E1D
:1029E00031463B460EF066FB0A223B460EF062FB88
:1029F0000998024316A8401942707D20C200204663
:102A000031463B460EF056FBED1C089A102A03D8BF
:102A1000204A121BB741ADD36D1E02E0059D00E0B8
:102A20006D1C2E46681E032109900DF075FD481C93
:102A3000032803D00546032803D114E0002503280A
:102A400011D016A8841E3746E01940780DF076F8AC
:102A5000012D07D0BE1EE05D0DF070F8AD1E3746AB
:102A6000F2D100E07E1E0998022810D3744216A805
:102A70003018C51EA8780DF061F868780DF05EF882
:102A800028780DF05BF8E41CED1E002CF2D11BB091
:102A9000F0BDC046E7030000B11B0100351C01007A
:102AA000F0B587B05B4E31787078B37899420A46BA
:102AB00000D31A46814200D3104630700420315EA4
:102AC0000620305E0822B35E99420A4600DB1A46B1
:102AD000814200DB1046B0800A20315E0C20305E5F
:102AE0000E22B35E99420A4600DB1A46814200DBA1
:102AF000104670811020315E1220305E1422049244
:102B0000B35E99420A4600DB1A46814200DB10465A
:102B100030821620315E1820305E1A22B35E994250
:102B20000A4600DB1A46814200DB1046F0821C2078
:102B3000315E1E20305E2022B35E99420A4600DBE1
:102B40001A46814200DB1046B0832220315E7D258B
:102B5000E800814200DB0146CA17914371842421B9
:102B6000715E814200DB0146CA179143B184262180
:102B7000725E824200DB02460121012A00DC0A4625
:102B8000F2842820335C072B1A4600D30722002B3F
:102B90000B4600D0134633542922B45C642C2346E0
:102BA00000D36423002C00D019461B4BB154718D07
:102BB000C82901D2C82102E09942194600D971857D
:102BC0002B01B18D642901D2642102E0994219469A
:102BD00000D9B1850695EF00F18D282902D3B942BD
:102BE000384601D9F0850146328E8A42104600D817
:102BF00008468A4201D3984205D9069909018842BC
:102C000000D308463086716BC829059306D2C820C8
:102C100007E0C046D007202088130000D348814237
:102C200000D97063B46B002120460CF09BFD002896
:102C300005D1CF4920460CF0A9FD002801D0CD4C8C
:102C4000B463F56B002128460CF08CFD002805D1FB
:102C5000284621460CF090FD002801D0C648F063BC
:102C6000346C002120460CF07DFD002805D1C349BD
:102C700020460CF08BFD002801D0BF483064442072
:102C8000315ABF4A8918491E89B2BE4A914201D8B9
:102C9000642131524620315E069AD200914200DB17
:102CA0001146CA17914331524820315AB64A891801
:102CB000143989B2FD4A914201D8C82131525021BC
:102CC000705A0246153A049BDB439A4201D805200C
:102CD00070525221725A642A01D8824201D2642071
:102CE00070525421705AF24A8218521E92B2F14B1D
:102CF0009A4201D83C2070525621725ABA4201D8E9
:102D0000824201D864207052B46D002120460CF03C
:102D100029FD0028069F05D1E74920460CF036FD25
:102D2000002801D0E548B0655C20315C012903D062
:102D3000FF2901D0FF2131545E21725EF8008242EA
:102D400000DB0246D3179A4372526021725E8242C0
:102D500000DB0246D3179A4372526221725E8242AE
:102D600000DB0246012A00DC012272526422B05EBE
:102D7000C82800DBC820C11788430492B052B46E43
:102D8000002120460CF002FD002805D0C549204650
:102D90000CF0FCFC002801D0C14CB466F56E00219B
:102DA00028460CF0F3FC002805D0284621460CF0FC
:102DB000E3FC002801D0C248F0667020315EFA00C2
:102DC000914200DB1146012900DC01213152756F6F
:102DD000002128460CF0DAFC002806D03F2001062E
:102DE00028460CF0D3FC002801D0B6487067B56FB8
:102DF000284629460EF002F900280BD12846214624
:102E00000CF0A6FC002805D1A64928460CF0BEFC13
:102E1000002801D0AC48B067A34DF46F00212046D4
:102E20000CF0AAFC002805D0A74920460CF0AEFC07
:102E3000002802D001208007F0678020315A6918ED
:102E4000491E89B2A94201D2C82131528425745940
:102E5000002120460CF09AFC002805D08F4920461E
:102E60000CF094FC002801D09748705188257459C3
:102E7000002120460CF08AFC47424741B8203158D7
:102E8000204603910CF082FC411E88413843012802
:102E900001D18E4C745101258C2001903758384651
:102EA00039460EF0ABF80290384621460CF050FC43
:102EB0000446384603990CF069FC411E8841002CF9
:102EC000294600D1014602980028069F00D10D46F0
:102ED000012D02D17E48019970509020325E9221DE
:102EE000715E9423F45EA242134600DB23468A42BD
:102EF00000DB194631529620315E5A29664C00DBC0
:102F00005A215922D2439142059B00DC114631528D
:102F10009A20315E782900DB78217722D2439142D2
:102F200000DC114631529820315A6429049A02D3A8
:102F3000A142224600D932529C20315AA14200D9E6
:102F400034529E20315A994200D93352A020315A2E
:102F5000642901D2642301E0994200D93352A420AC
:102F6000325891087D2911D2B90012E010270000D3
:102F70000000B442000040410000A0400000C842F0
:102F800030F8FFFF2FF800002BFCFFFF51498A4269
:102F900000D93150F021725EF800824200DB024617
:102FA000D3179A437252F221725E824200DB0246CC
:102FB000D01782437252F4203158474A8918491E6B
:102FC000914201D239013150F8257459002120462F
:102FD0000CF0C8FB002806D17F20C10520460CF06C
:102FE000D5FB002801D03D487051FC2574590021C3
:102FF00020460CF0B7FB002806D17F20C1052046F3
:103000000CF0C4FB002801D02E48705101200502AD
:103010007459002120460CF09BFB002805D1304953
:1030200020460CF0B3FB002801D02E4870514120FF
:1030300085007459002120460CF08AFB002806D137
:103040007F20C10520460CF0A1FB002801D02648B6
:1030500070512120C100725EF800824200DB0246FE
:10306000D3179A43725285214900725E824200DB77
:103070000246D0178243725243208100705A0028C2
:1030800001D10520705287214900725A824200D234
:10309000705207B0F0BDC046881300000000B44273
:1030A0000000A0400000C84230F800002AFC0000E8
:1030B0000CFEFFFF0BFE00000000FA430000F5438A
:1030C000CDCC4C3FCDCC4C3E0000A0410000C841CF
:1030D00000003442983A0000F0D8FFFF3333B33E8B
:1030E000000020419A99193F0AD7233CF0B58FB0D0
:1030F000DE4D0B90002800D19BE22426A85D00281D
:1031000000D196E2FB4F01200190FB480EF0ACF895
:10311000FA480B994843C00C081A002180B202906B
:10312000039108460490039868610BE07C20082115
:103130002954686E401C686638460EF095F8601D8C
:103140002D2C79D20446A85D00280AD047200CA96E
:10315000022204F063FE002806D07C2000212954BE
:1031600008E07C20082101E07C2009212954686EB8
:10317000401C686638460EF077F8A85D00280AD033
:1031800047200CA9022204F049FE002806D07C202A
:103190000021295408E07C20082101E07C2009213D
:1031A0002954686E401C686638460EF05DF8A85DCC
:1031B00000280AD047200CA9022204F02FFE002884
:1031C00006D07C200021295408E07C20082101E061
:1031D0007C2009212954686E401C686638460EF030
:1031E00043F8A85D00280AD047200CA9022204F069
:1031F00015FE002806D07C200021295408E07C2000
:10320000082101E07C2009212954686E401C686671
:1032100038460EF029F8A85D002887D047200CA971
:10322000022204F0FBFD002803D07C200021295459
:1032300082E77C2009217BE7B148411C0A910027E5
:10324000089707973C46099009E0641C0A90A94832
:103250000EF00AF87F1CB8B20B9988422CD2A85DF8
:10326000002820D047200DA9022204F0D7FD002815
:103270001BD00D99C8BA09BA7C220023AB54C917D8
:10328000089A12180892079A4A410792099909B2B6
:103290008142024600DC0A4609920A9909B281423B
:1032A000D3DB0846D1E7082000E009207C216854E0
:1032B000686E401C6866CAE7A2B202988242ED4F6F
:1032C00000D2A7E100240898079923460DF0E8FEF4
:1032D00006902F6A3846079421460CF043FA08906E
:1032E000069800B20DF0D2F939460BF01DFE0446E7
:1032F0000898002800D0079C099800B20A9909B2E2
:10330000081A0DF0C3F939460BF00EFE07462046A9
:1033100007990CF01DFA01210091C90700280894B3
:10332000079100D04C402046D3490CF02FFA0446B8
:103330003846D2490CF02AFA411E8841002C0199E6
:1033400000D101460029CB4F00D063E108986861A5
:1033500000240A940EE00820099C7C216854686EC1
:10336000401C686638460DF07FFF601D0F2C044638
:1033700000D34BE1A85D0028099433D047200EA963
:10338000022204F04BFD00282ED00E9805907C20E0
:1033900000272F542C6A204639460CF0E3F906909A
:1033A0000598C0BA0DF072F921460BF0BDFD0699E3
:1033B000002900D0384608990AF082FA04463946B6
:1033C0000CF0C6F9002801D007984440A94F2046C8
:1033D000AB490CF0DBF9002800D01BE10A98401C37
:1033E0000A9007E0082000E009207C216854686EFC
:1033F000401C686638460DF037FFA85D002833D0C2
:1034000047200EA9022204F009FD002830D00E98B2
:1034100005907C2000272F542C6A204639460CF05A
:10342000A1F906900598C0BA0DF030F921460BF0CD
:103430007BFD0699002900D0384608990AF040FA29
:10344000044639460CF084F9002801D0079844401E
:10345000884F20468A490CF099F9002800D0D9E01D
:103460000A98401C0A9009E0082002E0E0082020A9
:1034700009207C216854686E401C686638460DF04F
:10348000F3FEA85D002833D047200EA9022204F0E5
:10349000C5FC002836D00E9805907C2000272F54BC
:1034A0002C6A204639460CF05DF906900598C0BAA2
:1034B0000DF0ECF821460BF037FD0699002900D0FD
:1034C000384608990AF0FCF9044639460CF040F9F0
:1034D000002801D007984440664F204668490CF008
:1034E00055F9002800D095E00A98401C0A900FE09A
:1034F000082008E0007102000024F400CDCC000098
:10350000FF7F000009207C216854686E401C6866BB
:1035100038460DF0A9FEA85D002832D047200EA93C
:10352000022204F07BFC00282DD00E9805907C2010
:1035300000272F542C6A204639460CF013F90690C8
:103540000598C0BA0DF0A2F821460BF0EDFC0699E3
:10355000002900D0384608990AF0B2F904463946E5
:103560000CF0F6F8002801D007984440414F20465F
:1035700043490CF00BF900284CD10A98401C0A90E2
:1035800007E0082000E009207C216854686E401C98
:10359000686638460DF068FEA85D002800D1DAE6BE
:1035A00047200EA9022204F039FC00282CD00E98E6
:1035B00005907C2000272F542C6A204639460CF0B9
:1035C000D1F806900598C0BA0DF060F821460BF0CE
:1035D000ABFC0699002900D0384608990AF070F92A
:1035E000044639460CF0B4F8002801D0079844404E
:1035F000204F204622490CF0C9F800280AD10A9829
:10360000401C0A90099CADE60920A5E60A9880B204
:10361000112825D80498022807D0044619480DF02F
:1036200023FE601C022C00D27CE50020686125216D
:1036300001E0252100206854262168540B231249FB
:1036400000220A6011490A6011490A7011490A7082
:1036500029216A54EA616A857C216B540FB0F0BD60
:103660002520009929540023EB84AB652B66019833
:10367000E5E7C04600710200000020410000A040C4
:103680000000404000A86100440F2020640B20206F
:10369000870F2020940F2020F0B597B00E910029BD
:1036A00000D1B2E20B904B20850001200C900FA8B6
:1036B00012300A900024324E324B334A0D9508E006
:1036C00032498868401C8860641C0E98844200D38C
:1036D0009DE231881888814200D199E22C48405CF3
:1036E000491C17462A46D3320A4032803A460D28F2
:1036F000EAD028490A2805D1087801281FD10020DE
:103700000870B5E009780129DAD001467F395F22D7
:10371000D24391426DD81D4DA86B401CA863542024
:103720000C2129541C4A1088A9684018401CA86024
:103730000D9D002010800C9816490870A9E01648CD
:1037400001880029C0D0114D2869401C28610FAAAA
:10375000124802F02DFA2B46042879D81946203158
:103760000622800001A31858084B8746A1370000A5
:1037700051380000473800005F3800005938000019
:103780006C0F20206A0F2020300F20200C0B2020EF
:1037900000042020810F2020680F2020500A2020C4
:1037A0000FA8007C099000283A4674D0119801B205
:1037B000C9134840401A80B2962811D80FA84089F2
:1037C00001B2C9134840401A80B2962808D812980E
:1037D00001B2C9134840401A80B2FE4988425AD308
:1037E000986B401C986354200C211954FA4B0D9D82
:1037F0003DE0FA490988402812D1002909D0F84A49
:10380000906840189060D068401CD06054200D2112
:1038100011544020F34908700C98F049088038E0B2
:10382000002928D05F292ED3ED4D286A401C28623C
:10383000542006222A54A8684018A8600D9D002034
:10384000F749088077E7F648008899680818986073
:10385000194638310C2202E0194624310722086843
:10386000401C086054201A54EC4B0D9D3A46002031
:10387000EB49088028E7EB4A9068401C9060542090
:103880000D21115405E04A1CE54E3280E24EE64A15
:1038900050543A4618E75220195C00290D9D13D068
:1038A00006901098E1490968079088422BD2116868
:1038B000481C0890002004900898884200D398E0A3
:1038C0000498C043089095E00121089111600F9A77
:1038D000502107925A52FF21023119520B989864D5
:1038E0000898D8645869401C58611099CF480691CF
:1038F0000160CF48083024210DF0B0FC099A002A5D
:103900002CD110462BE05321595C002900D1F4E062
:103910000FA9088850215A5A831A1BB2012B00DACA
:10392000F2E03A680890BF4B5852FF2102310698E6
:1039300019520B9898640692DA645869401C5861D1
:10394000BA4807990160BA48083024210DF086FC76
:10395000099A002A00D0E0E01046DFE00920B449CF
:1039600008720898C860079B0B82069B4B610D8309
:103970004883119804900FA80590C08906900021F3
:10398000CB43002A184600D004980390002A18461A
:1039900000D008460290002A069900D11146A44A98
:1039A000039890830298D08311845384089B1370EA
:1039B000099850700B9951609E4A13700998507085
:1039C0000598407C907051609068401C9060D36076
:1039D00007981082099A002A00D104929549049808
:1039E00048820598408988821298C8820D8306987B
:1039F0006DE01060596C491C0F9850220590985248
:103A0000FF22023206981A5259640B98986408985B
:103A1000D8645869401C58618448079901608448FB
:103A2000083024210DF01AFC099A002A01D1104611
:103A300000E00920049B7E4908720898C860059838
:103A40000882079848610D830120019048831198EE
:103A500007900FA80290C189D843002A069002D08F
:103A6000079B0693049B002A039000D00393002A2F
:103A7000049100D1114600916D4B069999830399E9
:103A8000D983009919845884019919705A700B9838
:103A90005860684A117009995170029B587C907067
:103AA0000B9850609068401C90600898D060059812
:103AB00010820A46002901D1084607915D490798FE
:103AC0004882588988821298C8820D830498488356
:103AD00008461C300C220A990DF044FC0998002875
:103AE00001D0182000E01C204C4B4E4A1158491CB4
:103AF0001150542003211154B8E60FA800220B994D
:103B000009F0C0F8454BB1E6904275D1454AD06BFB
:103B1000401CD0635420042174E0092044490872F9
:103B20000698C86008980882079848610D830C9829
:103B30004883119805900FA80490C0890790002130
:103B4000CB43002A184600D005980390002A184657
:103B500000D008460290002A079900D11146344A45
:103B6000039890830298D083118453840C9810702A
:103B7000099951700B9951602E4A10700998507034
:103B8000049B587C907051609068401C906006982F
:103B9000D060089810820998002800D10590254926
:103BA00005984882588988821298C8820D830798A0
:103BB000488308461C300C220A990DF0D3FB099962
:103BC000002901D0182000E01C20144B00290BD044
:103BD0000C990AE0B90B00006A0F2020680F202022
:103BE0000C0B2020500A202002210E4D2A58521C76
:103BF0002A505420295438E60A4A106C401C10649C
:103C0000542005211154054B30E6002400E00E9CA1
:103C1000A0B217B0F0BDC0466C0F20206A0F202064
:103C2000680F20200C0B2020500A2020240F202079
:103C3000DC0C2020340D2020F0B597B009910390C2
:103C40001C99002B01D0002018800493002901D07A
:103C5000002008800A920591DC4801210C91017036
:103C6000DB49F020085AF2210B91F4210D9121211A
:103C7000C9001291852149001391432189001091B7
:103C80000026FC210F91F8210E914121019189001C
:103C900011917D210291C90008918842304671D866
:103CA000CB480B99415E002930466BD4C94881420C
:103CB000304667DAC6480D9940580028304661D032
:103CC000C3491298085E16901398085E15901098D4
:103CD000085A14900F980C580E980F5811980858BD
:103CE00006900C98000208580790002138460BF007
:103CF0004DFD0028304645D07F20C5053846294671
:103D00000BF030FD002830463CD0002120460BF05F
:103D10003DFD0028304635D0204629460BF022FDD7
:103D2000002830462ED0002107980BF025FD0028F2
:103D3000304627D00024069821460BF01DFD0028B0
:103D400030461FD01698002830461BD4A14816993B
:103D50008142304616DA15980028304612D4FC48C5
:103D60001599814230460DDA14980028304609D062
:103D700087204000F549085A1499884201D220460C
:103D800000E00120F04C60707F21099808406071CC
:103D90000CF04CFEA071411E02468A41227100289F
:103DA00003D060790BF000FC064626810A9887B2A2
:103DB00008998F4200D30F46002800D50027E783DB
:103DC000E06B401C00D2E063207800280AD06078C5
:103DD000002807D02622A35C032B0ED100212184CA
:103DE00008468CE100206080E06020616061A06195
:103DF000A0832062A08417B0F0BD591E207901294C
:103E000010D8002800D18DE00020E062208660807C
:103E1000E06020616061A061A0836062214624317E
:103E2000087102E0002800D195E0607932216054E9
:103E3000A68601990140012904D0084640290BD1EA
:103E4000012000E0FF202721605428200121215477
:103E5000A06B401C00D2A063E07800284DD0E4683D
:103E6000BA490F98085815900E980D5830460CF026
:103E70000DFC214609F024FD014628460AF002FF08
:103E8000214609F022FD1690AF49C8601098AF494D
:103E9000085A01210026039A90420B4600D9334666
:103EA00087225200A94DAA5A039DAA4200D2314648
:103EB0000B40A54EB370012B169D2DD128462146EF
:103EC00009F0FEFC044603980CF02AFE0146A248C5
:103ED0000BF02AF821460AF0D5FE306174692146BC
:103EE00009F0EEFC014615980AF0CCFE214609F0D7
:103EF000ECFC01467061954E83E030460CF0C6FB49
:103F000005460021E060216161610120E070A07838
:103F1000002861D08D4E74E000213161716134461A
:103F20008A4E60E0E06A039D29180020A94200D271
:103F3000C143E1622546854E0D9C3459A14234D2DD
:103F40000B98315A0022012B104600D00846012B55
:103F50007D4C28D1F2E000206080A084E0602061E8
:103F60006061A061A0832821615C0029774D00D1A8
:103F7000D1E02721635CFF2B01D002210C910C9929
:103F8000A1542086039EE6620D996958B14200D87B
:103F9000CCE00B98295A0022FF2B104600D008468F
:103FA000FF2B00D1CAE01146C8E06880A884E86011
:103FB00028616861A861A8830321A95465492986FD
:103FC0000146049A2C4628849AE0C046000C202022
:103FD000D0072020E903000016955C4E1098305A57
:103FE00087214900725A01230021039DA8421846E7
:103FF00000D90846039DAA4200D20B461840A07083
:10400000169D0120169000023458119830580AF07D
:1040100039FE0646204629460AF034FE314609F0AC
:1040200054FC054648488561129848490E5A28466E
:1040300029460CF0E3FF002800D082E0744220B251
:104040000CF024FB014628460BF08CFB002819D10C
:1040500030B20CF01BFB014628460BF08DFB00280C
:1040600034460FD1002128460BF086FB002801D1F1
:10407000BF2000E03F200106284609F026FC0CF096
:1040800099FB04463048848320B21590C0190299E8
:10409000CA009042044600D31446002100280D4671
:1040A0002A4B00D425466C1E2846A041139C1C5F59
:1040B000A542169E00DB0E4630402426224B985522
:1040C0000028084600D128461F4D2884159BFD1A5C
:1040D00095422B4600D31346002D0A4600D41A46BB
:1040E000551E1346AB41A24200DB1691169C23409D
:1040F0002524154D2B552C46002B00D11146049A32
:104100006184002A00D010800599002901D0608CBC
:10411000088017B0F0BD0021E162E1702520215434
:104120000320A05401200002208658E6E0702521DB
:1041300060540321A154074921860146049A208432
:10414000DEE700249EE7C046000C2020D007202098
:10415000E90300000102000000007A44F0B58FB0CE
:104160000DF0FCF8074680690CF024FBB44CA0422B
:1041700000DC2046B34EB04200DB30460290F869C6
:104180000CF018FBA04200DC2046B04200DB3046B9
:1041900001900025284629460CF0CCFDAA480CF0D9
:1041A00073FB3868A04200DC2046B04200DB30469A
:1041B00007F0DEF8A5480CF067FB7868A04200DC49
:1041C0002046B04200DB304607F0D2F802202946F4
:1041D0000CF0B0FD9E480CF057FBFE68BC68002E4A
:1041E00001D4354604E02D200BF0A8FC6442B54113
:1041F00003974A3700970023964A2046294606939C
:104200000CF058FF104619460125059507916A1EC6
:1042100008920A2209920646069F3B460CF04AFF86
:1042200004460D46099A3B460CF032FD301A302701
:1042300038430AA9089A5054049607980A3E069AE9
:104240009041099736D30A22002620462946334654
:104250000CF030FF3A430AA8059BC2540899112973
:104260001D46049F28D8384664380798B04123D3A8
:10427000642200243846079E314623460CF01AFF7C
:104280000A2223460CF016FF099802430AA8401997
:1042900042707D20C2003846314623460CF00AFFAA
:1042A000ED1C089A102A03D8D34AD21BB441ACD3D0
:1042B0006D1E02E0059D00E06D1C2E46681E032168
:1042C00008900CF029F9481C032800D00690032818
:1042D00001D1354611E00AA8841E069FA019407836
:1042E0000BF02CFC012F07D0B51EA05D0BF026FCB7
:1042F000BF1E2E46F2D100E0751E0898022810D38A
:104300006C420AA82818C51EA8780BF017FC68781C
:104310000BF014FC28780BF011FCE41CED1E002CB3
:10432000F2D1B7480CF0B0FA039845690469002D42
:1043300001D4294605E02D200BF000FC0021644249
:10434000A941AE4A0023204606930CF0B3FE104666
:1043500019460125059507916A1E08920A220492C2
:104360000646069F3B460CF0A5FE04460D46049A01
:104370003B460CF08DFC301A099F38430AA9089A75
:104380005054049607980A3E069A904136D30A2262
:1043900000262046294633460CF08CFE3A430AA8F4
:1043A000059BC254089911291D46049F28D83846F8
:1043B00064380798B04123D3642200243846079E0E
:1043C000314623460CF076FE0A2223460CF072FE9C
:1043D000099802430AA8401942707D20C20038465D
:1043E000314623460CF066FEED1C089A102A03D8CD
:1043F000814AD21BB441ADD36D1E02E0059D00E0A1
:104400006D1C2E46681E032108900CF085F8481C90
:10441000032800D00690032801D135461DE00AA8E4
:10442000841E069FA01940780BF088FB012F13D043
:10443000B51EA05D0BF082FBBF1E2E46F2D10CE034
:104440000080FFFFFF7F0000411C0100351B0100C1
:10445000791B010040420F00751E0898022810D3F6
:104460006C420AA82818C51EA8780BF067FB68786C
:104470000BF064FB28780BF061FBE41CED1E002CB4
:10448000F2D10420002529460CF054FC5D480CF0C4
:10449000FBF9029800B206F06BFF5B480CF0F4F9F0
:1044A000019800B206F064FF062029460CF042FC99
:1044B00056480CF0E9F9009C207806F059FF544862
:1044C0000CF0E2F9607806F053FF52480CF0DCF98A
:1044D0000398006D01240695294605940791621EF4
:1044E00008920A2204920546069F3B460CF0E2FD24
:1044F00006460C46049A3B460CF0CAFB281A099F54
:1045000038430AA9089A5054049507980A3D069A18
:10451000904136D30A220025304621462B460CF026
:10452000C9FD3A430AA8059BC254089911291C46A3
:10453000049F28D8384664380798A84123D36422BA
:1045400000263846079D294633460CF0B3FD0A2263
:1045500033460CF0AFFD099802430AA800194270D7
:104560007D20C2003846294633460CF0A3FDE41CEA
:10457000089A102A03D8204AD21BAE41ADD3641E3C
:1045800002E0059C00E0641C2646601E03210990A1
:104590000BF0C2FF481C032803D00546032803D1B3
:1045A00014E00025032811D00AA8841E3746E0191C
:1045B00040780BF0C3FA012D07D0BE1EE05D0BF072
:1045C000BDFAAD1E3746F2D100E07E1E09980228E2
:1045D00010D374420AA83018C51EA8780BF0AEFAA2
:1045E00068780BF0ABFA28780BF0A8FAE41CED1E03
:1045F000002CF2D10FB0F0BDE703000040420F00E5
:10460000591A0100D51B0100D61A0100871C0100B0
:10461000891B0100E11B0100F0B59BB009900CF073
:1046200069FE0C900CF06AFE08900CF073FE02908C
:104630000CF06CFE03900CF045FE04900CF082FE32
:1046400006900CF083FE05900CF084FE07900CF0B1
:1046500045FE07467A3000903846243001900CF031
:104660007DFE0A9048300B900CF04CFE01467731ED
:104670000F910D9044300E900CF034FE0646044627
:10468000243410A80CF066FB094D099828600CF042
:1046900085FD28710CF0F0FC089A68710C98C088B0
:1046A000E8801068072100280C9104D002E0C04681
:1046B000000620200178297210796872D0896881FB
:1046C0009089A881907CA8730CF056FDE873F84996
:1046D00048782874C8886882C869686130882883E7
:1046E000B078A8767079E876B07928773089E88351
:1046F000F068286270696862B069A862B08BA885AA
:10470000308CE885708C2886207832216854607857
:10471000332108916854A07834216854E078352119
:1047200009916854207936216854F06AA863207B87
:104730003C216854607B3D216854A07B3E21685435
:10474000B08E40216852B06B6864B869A86438695B
:10475000E864786928653888542168527868A865C3
:10476000B868E865F8692866386A6866009A10884B
:1047700068216852D0886A216852107A6C26A85540
:10478000386D2867786D686701990868A867486878
:10479000E867F86A80216850386B84216850786B2C
:1047A00088216850B86B8C216850F86B9021685054
:1047B000386C94216850786C98216850B86C9C21B2
:1047C0006850F86CA0216850F86EA4216850386FCA
:1047D000A8216850786FAC216850B86DB02168503E
:1047E000F86DB4216850386EB8216850B86EBC219D
:1047F000685002980078C02168540CF0C9FCC121AF
:1048000068540CF001FDC221685403980078C3215C
:104810006854049A1068C42168509088C82168526E
:10482000A34F386ACC216850B86BD0216850B88D3E
:10483000D42168524820385CD62168543B464C331A
:104840000FCBD8242851DC202950E0202A50E42026
:104850002B505C20385AE82168525E20385CEA21EF
:104860006854F88DEC2168525F21785CEE22A854E0
:104870006020385CEF22A854786EBA6EF023E850BE
:10488000F4202A50B85BF822A8521698FC22A850AF
:10489000179801221202A850189841229200A8509D
:1048A00006984068059B5A6810185A69801821229A
:1048B000D200A850079C207843229200A854627826
:1048C000FF2003460E33EA54A27887235B00EA54A4
:1048D000A26811231B01EA500A9E326845239B00FF
:1048E000EA5072682323DB00EA50F268B3680924B7
:1048F00064012B512B195A60726933692524E40035
:104900002B512B195A60B26913231B01EA50F2692B
:104910004D239B00EA50326A2723DB00EA50726A7B
:104920004F239B00EA50B26A05239B01EA50F26ACA
:1049300051239B00EA50326B2923DB00EA500B9C89
:10494000A27853239B00EA54E27803464E33EA549C
:104950002279A7235B00EA54326D15231B01EA502C
:10496000F26B55239B00EA50326C2B23DB00EA509C
:10497000726C57239B00EA5022780B235B01EA54A8
:10498000627803466233EA540D9E3288B1235B009D
:10499000EA52728859239B00EA523279B3235B00B2
:1049A000EA54B2682D23DB00EA50F2685B239B00D7
:1049B000EA50326917231B01EA50B28B5D239B003A
:1049C000EA520E9C2289BB235B00EA52326A2F23F3
:1049D000DB00EA50326D89006A50716A0322D2010D
:1049E000A950716D61229200A950B16A3122D200A2
:1049F000A950B16D63229200A950F16A19221201E7
:104A0000A950F16D65229200A950316B089AD2002D
:104A1000A950316E67229200A950716B0D2252018C
:104A2000A950716E69229200A950B16B099AD20007
:104A3000A950B16E6B229200A950F16B1B2212019A
:104A4000A950F16E6D229200A950316C3722D2002C
:104A5000A950316F6F229200A95021880C9A9201BF
:104A6000A952218EE1225200A952E17871229200CE
:104A7000A9540F9B19780246C632A9546179E322E2
:104A80005200A95499780246C832A954A179392212
:104A9000D200A954D9780246CA32A954E179E52254
:104AA0005200A9541979CC3029541BB0F0BDC0462E
:104AB000E0092020F0B591B00CF014FC0546044646
:104AC00026340CF02FFC0B902620285C401EC0B230
:104AD000022803D88000F249085800E0F148099004
:104AE00060780390E07A02900026304631460CF060
:104AF00021F9ED480BF0C8FE0A956C793025312775
:104B0000E007284600D038460BF018F8A0072846E2
:104B100000D538460BF012F86007284600D5384615
:104B20000BF00CF82007284600D538460BF006F8A5
:104B3000E006284600D538460BF000F8A0062846C7
:104B400000D538460AF0FAFF600600D53D462846F3
:104B50000AF0F4FF022031460CF0ECF8E4480BF0C8
:104B600093FE09980BF090FEE2480BF08DFE0820B2
:104B70000A9C205E06F0FCFB2F200AF0DFFFE568B0
:104B8000284629460CF03AFA002813D1DA4EDB49C0
:104B900028460AF0FBFD00280CD1C7200106284654
:104BA0000AF0D6FD002801D0761C03E028460BF061
:104BB00001FE064630B206F0DBFB04200025294644
:104BC0000CF0B8F8CE480BF05FFE1C20205E06F01B
:104BD000CFFBCC480BF058FE2020205E06F0C8FB2F
:104BE000C9480BF051FE2220205E06F0C1FB0620D2
:104BF000099529460CF09EF8C4480BF045FE0B9829
:104C00004469C34920460BF087FC05467D20C1005E
:104C1000204604910BF080FC3C210BF07DFC0791B9
:104C2000BC480194844202D830200AF087FF012753
:104C30000999284606970A917A1E0B920A22089231
:104C40000446099E33460CF035FA05460F46089A8D
:104C500033460CF01DF8201A302630430CA90B9A6D
:104C6000505405940A980A3C099A9041089635D305
:104C70000A2200242846394623460CF01BFA324308
:104C80000CA8069BC2540B9911291F46059E27D8D4
:104C9000304664380A98A04122D364220025304669
:104CA0000A9C21462B460CF005FA0A222B460CF0F2
:104CB00001FA089802430CA8C019427030462146F8
:104CC000049A2B460CF0F6F9FF1C0B9A102A03D815
:104CD000914A921BA541ADD37F1E02E0069F00E0E2
:104CE0007F1C781E03210B900BF016FC481C032838
:104CF00012D00546032812D00CA8841EE019407873
:104D00000AF01CFF012D0CD0BE1EE05D0AF016FF5C
:104D1000AD1E3746F2D105E000250328ECD13E4612
:104D200000E07E1E0B98022810D374420CA83018A5
:104D3000C51EA8780AF002FF68780AF0FFFE2878FE
:104D40000AF0FCFEE41CED1E002CF2D13A200AF021
:104D5000F5FE079D092D02D830200AF0EFFE002154
:104D600001200A9005910B910A98401E09900A268D
:104D700028463246059C23460CF09CF90F460690C7
:104D8000324623460BF084FF281A089E30430CA9B4
:104D9000099A505407950A3D0B98A04137D30A222F
:104DA00000240698394623460CF084F90B993243C7
:104DB0000CA80A9BC254099B112B079D29D8284691
:104DC00064380846A04124D36422002728463B4685
:104DD0000CF070F90A223B460CF06CF932430CA837
:104DE0000A9C0019427028460B99049A3B460CF025
:104DF00061F90B9BE41C0A94099A102A04D8464ACC
:104E0000521B9F410546AED30A9D6D1E03E00A9DCD
:104E100001E00A9D6D1C681E03210B900BF07CFBCA
:104E2000481C032812D00646032812D00CA8841E62
:104E3000601940780AF082FE012E0CD0AF1E605D32
:104E40000AF07CFEB61E3D46F2D105E0002603289E
:104E5000ECD12F4600E06F1E0B98022810D37C4245
:104E60000CA83818C51EA8780AF068FE68780AF001
:104E700065FE28780AF062FEE41CED1E002CF2D1DB
:104E80000299022901D0264C00E0244C0398012904
:104E900000D1244C012809D05525FF2809D009E06C
:104EA000FC170100611C0100941801005225FF2825
:104EB00000D14C25642101980BF02EFB0A210BF048
:104EC0002BFB0E462E200AF039FE0898064330468A
:104ED0000AF034FE14480BF0D7FC28460AF02EFEE8
:104EE00009480BF0D1FC20460BF0CEFC11B0F0BD10
:104EF0007B1C0100E11B0100FF7F000000FEFF465C
:104F0000B71C0100D91B0100B11B01008D1C010061
:104F100060EA0000BF270900E7030000DB1A010078
:104F2000C91C0100A51B01001D1C0100F0B58FB0BC
:104F30000B930A920C4605464768002638463146D0
:104F40000AF0FCFB00280DD0AE60E8680121C9071B
:104F5000414029616E61AE61EE612E626E62AE62A9
:104F6000EE62FFE10294159809902E462A360D95BF
:104F7000AC680025204629460AF0E0FB00280C9684
:104F80000E97089432D106950026384631460AF02D
:104F9000FDFB0790204631460AF0F8FB411E2246F1
:104FA00004468C41414241410591104631460AF088
:104FB000CFFB0546401E8541384631460AF0C8FB06
:104FC0004142414107980028204603D16940059895
:104FD000014008460C99891C012800D0ACE00878F3
:104FE00000280E9F069D089C04D104E0B07800289C
:104FF00001D0B11C0D700026384631460AF0A8FBDE
:105000000121CD070028069100D06F40204631468F
:105010000AF09EFB002801D1254600E06540D34CF4
:10502000384629460AF0B2FB002801D1E83400E0F6
:10503000E4340E9F2068099909F024FE0546089C77
:10504000204639460AF084FB00280AD0204629462B
:1050500008F03BFC054639460AF098FB002810D0C2
:1050600010E0204639460AF091FB00280AD020467D
:10507000294608F025FC054639460AF069FB002858
:1050800000D12F460D9DAF60E9680E97384608F0B5
:1050900017FC0446286131460AF078FB0746401E9B
:1050A0003946814107910394204631460AF050FB6E
:1050B000411E04468C41002800D0F043069B002F7F
:1050C00000D10346002B0C9F09D03878411E0246C0
:1050D0008A41D9B20E1A701E864116403B70149850
:1050E0000190012005903E7100210E9D28460891F7
:1050F0000AF04CFB411E88410490204200940DD0E0
:105100000120F8700A9E0D9D6E626869002106906C
:105110000AF03CFB002805982CD042E000262846E7
:1051200031460AF015FB002820D00798F8700028B7
:10513000029E1DD00A9E1BE001200E9108708B4834
:10514000E8214058099909F09DFD0146002D089875
:1051500000D1E1E008F0B9FB0746002529460AF036
:1051600015FB00280D9C00D0E3E0E3E0FE70029EFA
:105170000D98466200270E9839460AF0E9FA34463F
:105180000646401E8641079806400D9840690690E5
:1051900039460C9F0AF0DCFA411E88413040264611
:1051A0000D9D0A907871039C2046314609F06AFDF6
:1051B0000290A861B8206D4F39580E9809F0B4FEDE
:1051C0006B490E9109F05EFD019909F05BFD0190BC
:1051D00028622046099909F055FD0A99002928D02E
:1051E000E021795809F04EFD069D294608F06DFB37
:1051F0000146002628460D4631460AF0C7FA002827
:1052000005D0002128460AF0A3FA002815D100266F
:10521000069831460AF09CFA0746284631460AF0BD
:10522000B5FA002800D12E46002F00D12E464F4F50
:1052300003E0069908F049FB0646DC203F580120B0
:105240000990C107794030460C460AF081FA0546BC
:10525000304639460AF09AFA002800D13746002D28
:1052600000D13C4620460B9D294609F00BFD074620
:105270000499002901D13F480890002900D10E91DE
:105280000298019908F021FB0490394608F01DFBB3
:1052900006460E990AF07AFA411E884107990142A2
:1052A000059806D1304608990AF052FA002800986D
:1052B00004D0099948400A99014303D00D984461EC
:1052C00004460AE00698294609F0DCFC07460498E3
:1052D000394608F0FAFA06460D9CE7613046089F09
:1052E00039460AF035FA054630460E990AF04EFA6C
:1052F000002800D10E96002D0C9D00D10E9F38463F
:1053000031460AF01BFA41424141697038460BF0C0
:1053100051FA0646208525E0002C37460D9C09D021
:1053200008F0CEFA0746002529460AF011FA0028AF
:1053300000D02F46A7600C98C67086806661A66173
:10534000E66126626662A662E168384608F0B8FA4D
:105350002061384631460AF0F1F9002802D00026D3
:105360000E98067030460FB0F0BDC046D007202022
:1053700000007A4400007AC4F0B58BB006460AA853
:1053800009A90AF01FFF0790FA48A8214358FA4AD2
:10539000D363AC2145581564B02144585464B421FA
:1053A000475C482104975754B521415C492001913D
:1053B000115406965663906B401C906358420093BC
:1053C00058410646871CED49029528460D460AF0CD
:1053D000C9F9002800D13E460021029808910AF040
:1053E000D5F9002800D13E463746361D20462946CD
:1053F0000AF0B8F90028079D00D1374620460899E1
:105400000AF0C4F90028394600D13146049EFF2E27
:105410000846019F01D008200843012E00D0014614
:10542000FF2F084601D010200843012F00D001466D
:105430000391012128460591084004D0D0490A680B
:10544000402313430B6002210D4004D0CC490A686D
:10545000802313430B600795CA4A0A9CFF2E01D094
:10546000012E0BD176B2002E04D5511C8C4213466E
:10547000089D08D0002E04D4234603E02346089D4F
:1054800001E06342059D099CFF2F01D0012F09D146
:105490007EB2002E02D5511C8C4208D0002E03D4BF
:1054A000224602E0224602E0624205990891B24C8F
:1054B000236062602E46002D049909D1FF2901D096
:1054C000012905D1AE490A6801231B0213430B6071
:1054D00008990029079D09D1FF2F01D0012F05D17F
:1054E000A7490A6801235B0213430B6069426941C3
:1054F0004242424101200790C0073240089B1940B8
:1055000008910492012A33D12368DA17E168A4686C
:10551000012B0CDB451E16466E40DF433F1B8E41C0
:1055200005DA0021C943944CA160E5601AE05D42B0
:1055300006469641651B0D46B54101DA002600E09E
:105540000126002B059D00DA3546E3185141002D58
:1055500000D12B46002D884C00D10146E160A360AC
:10556000002D05D186490A6801239B0213430B6075
:105570000899002933D06368DA1761692469012B1F
:105580000CDB451E16466E40DF433F1B8E4105DA9D
:105590000020C043784C206165611AE05D420646F8
:1055A0009641651B0D46B54101DA002600E0012653
:1055B000002B059D00DA3546E3185141002D00D13E
:1055C0002B46002D6C4C00D1014661612361002DFA
:1055D00005D16B4801680122D2020A4302601B20F8
:1055E000069E653E6321CF43BE4201D30021079151
:1055F000039B1840BE4201D220210B43002806D055
:105600000025A562E56225630598079054E00393A1
:105610005D49029809F036FB044600980BF080FAC9
:1056200001462046544C09F07FFC0546A068E1681D
:105630000AF07CFC0146284609F024FBA0622069A0
:1056400061690AF073FC0146284609F01BFBE06221
:10565000A06AE16A08F039F93F21090609F012FB56
:105660002063BE4227D301200499414023D1206802
:105670000BF00CF80146284609F004FB434909F0F9
:1056800001FB2646044606980BF04AFA01462046DE
:1056900009F04AFCB061B069346A3D490A78002AD1
:1056A00060D0214608F00CF93A4909F0EBFA21469E
:1056B00008F00BF958E0039B0020A0610798012631
:1056C000002827D10898704024D11F4660680AF04E
:1056D000DDFF0146284609F0D5FA2C4909F0D2FA37
:1056E0002546044606980BF01BFA0146204609F0B1
:1056F0001BFCE861E8696C6A27490A78002A0CD02B
:10570000214608F0DDF8234909F0BCFA214608F0EB
:10571000DCF804E00020E06104E0059A0A703B46F2
:10572000154C6062069A3D3A3B20C14300208A42F4
:1057300000D306464B216654114A12681A4322656B
:10574000226D3F239B0113405A1E93414C22A354C8
:10575000226D002A02D1615C484248414A216054CE
:105760000BB0F0BD059A0A70034C20620020039B29
:10577000A5E7C046D0072020680B20200000C842C3
:105780002C0F2020FFFFFF7FDB0F494000007A44F1
:10579000880F20203333B33E920F2020F0B597B00E
:1057A000F84E39230F93F35C002B01D017B0F0BDF6
:1057B00070603468231A01250E95ED0784420D951B
:1057C00001D7DB176B40B3603525735D002BEDD03F
:1057D000B368DC1763401F1B3424335D002B15D0E6
:1057E0000797E94B1B68934269D008F0B3FC00208F
:1057F000308670863055705536217054372170547C
:105800003820042131540F980E9913E1092FCDD37C
:1058100007970C950A9101250B94355536210024E4
:1058200074543821755410A90890084617460BF097
:10583000C3F90898D5490860D54908601099119AAC
:10584000D44B06C3D44B06C3CF490F60B461316853
:10585000081A02D7C117E8074840C1174840401A44
:105860001921CA01214623460BF012FACB4A8018AF
:1058700061410A05000B8018090B7D22D2002346E6
:105880000BF006FAC7306141C82223460BF012FC28
:10589000032223460BF0FCF9C14A90420C9D00D331
:1058A000104600290A9900D01046BE4A8018F061BF
:1058B00034627462B462F462F46008980B9C0C95D4
:1058C000B3695A1800259A4200D2EA43B2613727D9
:1058D000F25D002A13D1B269F3699A420FD908F038
:1058E00039FC00203086708630550C997054362172
:1058F0007054F05538200421315402203FE00997BC
:105900000B940A9110A9044608460BF055F920465D
:10591000119B109FA04A06CA0497791A0691059315
:105920001F4697419A49096802918C4211D1002182
:10593000FB173D465D40069A5A40D21A9D41F36AD4
:10594000DB439B1A0B46AB4101D2CD4301E0F16A28
:105950008D180397F562F16A2029099D13D308F089
:10596000F9FB0020308670860B9970540C997054A6
:1059700036217054705538200421315403200F997A
:10598000705417B0F0BDC01701908248016840689C
:10599000049A521A05998141100D09030918100340
:1059A0001922D201002500922B460BF079FB774A91
:1059B0001268D3170894121B019CA34114184B4181
:1059C000E8430D99091B014699410E9A00DB2A46CE
:1059D000002A194600D10146002A204600D10D9820
:1059E000714A1746821AA94100DB3846F060D81781
:1059F00043404440211A83414139AB410B9C05D3BC
:105A0000706A0A99451801D30020C5437562706A0F
:105A1000C82812D308F09EFB0020308670863055CF
:105A20000C9970543621705409997054382004210F
:105A300031540F98315417B0F0BD029808990B1AE1
:105A400000210698401E039888410C9D01DB002B25
:105A500004D40398002807D5012B05DBB06A0A9906
:105A6000411801D30020C143B162B06A64280FD34A
:105A700008F070FB00203086708630557055362156
:105A8000705409997054382004213154052076E768
:105A9000049841490860059848603D4808990160AC
:105AA0000798042818D808F055FB00213186718624
:105AB000382002223254326A0A9BD21800D3CA43D9
:105AC0003262326A642A0B9A00D26FE6B1543621F0
:105AD000012272540321ADE70020306238210122F7
