:1000000000802020430801008FDB00008FDB000010
:1000100000000000000000000000000000000000E0
:100020000000000000000000000000008FDB000066
:1000300000000000000000008FDB00004DD8000031
:100040008FDB0000B10101008FDB0000A9F7000089
:100050008FDB00008FDB00008FDB00008FDB0000F8
:10006000000000008FDB00008FDB000000000000BC
:10007000000000008FDB00008FDB00008FDB000042
:100080008FDB00008FDB00008FDB00008FDB0000C8
:100090008FDB00008FDB000000000000000000008C
:1000A0008FDB00008FDB000000000000000000007C
:1000B0008FDB0000000000008FDB00008FDB000002
:1000C000F0B5BFB016AF07AD34AC20460FF0D2FF8D
:1000D0002DA80FF0ABFB38460FF0F4F828460FF0D0
:1000E00097FE207DE17C002901D0C14E00E0C14E89
:1000F0004937002800D0C04E3879002800970FD02B
:100100000020014610F074F8BC480FF007FEB87AE2
:10011000401EC0B2022818D88000B949085815E01E
:10012000B879002800D198E00020014610F060F86E
:10013000B4480FF0F3FD387B401EC0B2022800D94E
:10014000CFE08000B0490858CCE0B0480FF0E6FDA1
:10015000AF480FF0E3FD387B401EC0B2022803D841
:100160008000A949085800E0AA4800240FF0D6FDF5
:1001700002200194214610F03BF8A7480FF0CEFD75
:100180003878002865D0179C002C03D52D200EF060
:1001900043FF6442A14920460FF028FC0846012590
:1001A0000199049505916A1E06920A220392074658
:1001B000019E334610F0DCF904460D46039A33469F
:1001C0000FF0C4FF381A302318433AA9069A505446
:1001D000039705990A3F0846B0415DD30A220E46AF
:1001E0000027204629461C463B4610F0C1F923460D
:1001F00022433AA8049C0255069911292546039AE0
:100200004CD8104664383046B84147D3174664226C
:100210000024384631460293234610F0A9F90A22F9
:10022000234610F0A5F9029802433AA840194270FB
:100230007D20C20038463146234610F099F9ED1C66
:10024000069A102A03D8764AD21BB441A9D36D1E50
:1002500025E070480FF062FD04E13435687900282C
:1002600000D175E20024204621460FF0C1FF6D4801
:100270000FF054FD0220039421460FF0B9FF6148AE
:100280000FF04CFD6879401EC0B2042800D9B1E2DD
:10029000800065490858AEE2049D00E06D1C2F46C1
:1002A000681E032106900FF0A1FB481C032813D001
:1002B0000446032813D03AA8861EF01940780EF0A1
:1002C000ABFE012C00D1B7E0BD1EF05D0EF0A4FE28
:1002D000A41E2F46F1D1B0E000240328EBD13D4607
:1002E000ABE04C4800240FF019FD50480FF016FD0C
:1002F00030460FF013FD022021460FF079FF4C48E5
:100300000FF00CFD0420019421460FF071FF4948C5
:100310000FF004FD7878002800D115E2189C002C1D
:1003200003D52D200EF078FE64423C4920460FF0A4
:100330005DFB0D460126019904910596701E0690FD
:100340000A2203922846019F3B4610F011F9044609
:100350000E46039A3B460FF0F9FE281A3023184345
:100360003AA9069A505403950A3D04980546B841A7
:1003700000D203E20A220027204631461C463B46B3
:1003800010F0F6F8234622433AA8059C0255069938
:1003900011292646039A00D9F2E11046643828460E
:1003A000B84100D2ECE117466422002438462946C1
:1003B0000293234610F0DCF80A22234610F0D8F806
:1003C000029802433AA8801942707D20C200384644
:1003D0002946234610F0CCF8F61C069A102A04D8B9
:1003E0000F4AD21BAC410546A6D3761EC9E1C046D2
:1003F000CF0E01002F100100F30F0100AB0F010021
:10040000840C01002B110100780C0100560F010033
:10041000AB1001000D110100C50E010040420F009C
:10042000E7030000300C01005C0B0100150D01001A
:10043000000C0100E31001007D1E0698022810D375
:100440006C423AA82818C51EA8780EF0E5FD687819
:100450000EF0E2FD28780EF0DFFDE41CED1E002C0E
:10046000F2D1009F0420002101910FF0C1FED64877
:100470000FF054FC7878002865D0189C002C03D528
:100480002D200EF0C9FD6442D04920460FF0AEFA8F
:10049000084601250199049505916A1E06920A22D3
:1004A00003920746019E334610F062F804460D465B
:1004B000039A33460FF04AFE381A302318433AA9FC
:1004C000069A5054039705990A3F0846B0413ED317
:1004D0000A220E460027204629461C463B4610F0BD
:1004E00047F8234622433AA8049C0255069911294D
:1004F0002546039A2DD8104664383046B84128D393
:10050000174664220024384631460293234610F0F1
:100510002FF80A22234610F02BF8029802433AA83B
:10052000401942707D20C20038463146234610F003
:100530001FF8ED1C069A102A03D8A54AD21BB44115
:10054000A9D36D1E06E0A3480FF0E8FB39E0049D37
:1005500000E06D1C2F46681E032106900FF046FA3E
:10056000481C032812D00446032812D03AA8861E3D
:10057000F01940780EF050FD012C0CD0BD1EF05D3E
:100580000EF04AFDA41E2F46F2D105E000240328F8
:10059000ECD13D4600E07D1E0698022810D36C4247
:1005A0003AA82818C51EA8780EF036FD68780EF017
:1005B00033FD28780EF030FDE41CED1E002CF2D146
:1005C000009F85480FF0AAFBB878002866D0199CD8
:1005D000002C03D52D200EF01FFD64427B492046E0
:1005E0000FF004FA084600210125019104950591B8
:1005F0006A1E06920A2203920746019E33460FF0B6
:10060000B7FF04460D46039A33460FF09FFD381A94
:10061000302318433AA9069A5054039705990A3F84
:100620000846B0413ED30A220E46002720462946FE
:100630001C463B460FF09CFF234622433AA8049CED
:100640000255069911292546039A2DD8104664387B
:100650003046B84128D31746642200243846314634
:10066000029323460FF084FF0A2223460FF080FFF7
:10067000029802433AA8401942707D20C2003846D1
:10068000314623460FF074FFED1C069A102A03D85A
:100690004F4AD21BB441A9D36D1E06E04D480FF05E
:1006A0003DFB39E0049D00E06D1C2F46681E0321D0
:1006B00006900FF09BF9481C032812D0044603282B
:1006C00012D03AA8861EF01940780EF0A5FC012C35
:1006D0000CD0BD1EF05D0EF09FFCA41E2F46F2D183
:1006E00005E000240328ECD13D4600E07D1E06987D
:1006F000022810D36C423AA82818C51EA8780EF01C
:100700008BFC68780EF088FC28780EF085FCE41CE1
:10071000ED1E002CF2D1009F062000210FF068FD95
:10072000F87A032804D0022805D12C4800F0AEFF47
:100730002B4800F0ABFFB87A032802D0294800F01C
:10074000A5FF294800F0A2FF22480FF0E7FAD3E006
:10075000787A002800D124E30020009001460FF0B1
:1007600047FD22480FF0DAFAF87B401EC0B202289B
:1007700000D92BE380001E49085828E3059E00E0BD
:10078000761C701E032106900FF030F9481C0328D8
:1007900014D00446032814D03AA83746861EF01910
:1007A00040780EF039FC012C00D18FE0BD1EF05DC9
:1007B0000EF032FCA41E2F46F1D188E0002403285D
:1007C000EAD1354683E0C046E310010040420F0005
:1007D000E70300000D11010007100100AB0B010041
:1007E000CD0B01004D0C0100BC0B01004C0F0100B2
:1007F0006C0C0100F9480FF091FAF9480FF08EFAED
:10080000089C002C03D52D200EF006FC6442F5490F
:1008100020460FF0EBF80846012503990295049154
:100820006A1E05920A2206920646039C23460FF092
:100830009FFE07460D46069A23460FF087FC301AA6
:10084000302420433AA9059A5054019604980A3E50
:10085000039A9041069400D20CE10A220026384601
:10086000294633460FF084FE22433AA8029BC25425
:10087000059911291D46019C00D9FDE020466438E8
:100880000498B04100D2F7E0642200272046049E7D
:1008900031463B460FF06CFE0A223B460FF068FEE5
:1008A000069802433AA8401942707D20C2002046B3
:1008B00031463B460FF05CFEED1C059A102A03D82A
:1008C000C94A121BB741A9D36D1ED6E07D1E0698FA
:1008D000022810D36C423AA82818C51EA8780EF03A
:1008E0009BFB68780EF098FB28780EF095FBE41CD3
:1008F000ED1E002CF2D1009FBC480FF00FFAB87823
:10090000002866D0199C002C03D52D200EF084FB06
:100910006442B44920460FF069F8084600210125D9
:100920000191049505916A1E06920A2203920746D8
:10093000019E33460FF01CFE04460D46039A3346D3
:100940000FF004FC381A302318433AA9069A505481
:10095000039705990A3F0846B0413ED30A220E4646
:100960000027204629461C463B460FF001FE234641
:1009700022433AA8049C0255069911292546039A58
:100980002DD8104664383046B84128D31746642223
:10099000002438463146029323460FF0E9FD0A222F
:1009A00023460FF0E5FD029802433AA84019427031
:1009B0007D20C2003846314623460FF0D9FDED1C9C
:1009C000069A102A03D8884AD21BB441A9D36D1EB7
:1009D00006E087480FF0A2F939E0049D00E06D1CA5
:1009E0002F46681E032106900FF000F8481C0328CC
:1009F00012D00446032812D03AA8861EF019407877
:100A00000EF00AFB012C0CD0BD1EF05D0EF004FBB5
:100A1000A41E2F46F2D105E000240328ECD13D4668
:100A200000E07D1E0698022810D36C423AA82818D0
:100A3000C51EA8780EF0F0FA68780EF0EDFA287866
:100A40000EF0EAFAE41CED1E002CF2D1009F062005
:100A500000210FF0CDFBF879002802D0654800F0A6
:100A600015FE7879002802D0634800F00FFE634835
:100A700000F00CFE029D00E06D1C2E46681E032156
:100A800005900EF0B3FF481C032803D00546032849
:100A900003D114E00025032811D03AA8841E37465C
:100AA000E01940780EF0B8FA012D07D0BE1EE05DC7
:100AB0000EF0B2FAAD1E3746F2D100E07E1E059868
:100AC000022810D374423AA83018C51EA8780EF038
:100AD000A3FA68780EF0A0FA28780EF09DFAE41CCC
:100AE000ED1E002CF2D10420002103910FF080FBB9
:100AF00043480FF013F9099C002C03D52D200EF06C
:100B00008BFA6442374920460EF070FF08460125F3
:100B10000399029504916A1E05920A2201920646E3
:100B2000039C23460FF024FD07460D46019A2346F9
:100B30000FF00CFB301A069C20433AA9059A50543A
:100B4000019604980A3E039A904136D30A22002661
:100B50003846294633460FF00BFD22433AA8029B44
:100B6000C254059911291D46019C28D82046643895
:100B70000498B04123D3642200272046049E3146C6
:100B80003B460FF0F5FC0A223B460FF0F1FC0698BD
:100B900002433AA8401942707D20C20020463146E7
:100BA0003B460FF0E5FCED1C059A102A03D80E4ACF
:100BB000121BB741ADD36D1E02E0029D00E06D1C1B
:100BC0002E46681E032105900EF010FF481C0328D6
:100BD00018D00546032818D129E0C046B00F0100FF
:100BE0008F10010040420F00E703000007100100D2
:100BF0000D110100980B01009C0C01005B0C010021
:100C0000101101000025032811D03AA8841E374690
:100C1000E01940780EF000FA012D07D0BE1EE05D0D
:100C20000EF0FAF9AD1E3746F2D100E07E1E0598AF
:100C3000022810D374423AA83018C51EA8780EF0C6
:100C4000EBF968780EF0E8F928780EF0E5F9E41C85
:100C5000ED1E002CF2D1EE480FF060F80A9C002C3B
:100C600003D52D200EF0D8F96442EA4920460EF053
:100C7000BDFE0846002101250391029504916A1EDC
:100C800005920A2201920646039C23460FF070FC4F
:100C900007460D46019A23460FF058FA301A069C73
:100CA00020433AA9059A5054019604980A3E039AA3
:100CB000904136D30A2200263846294633460FF0A3
:100CC00057FC22433AA8029BC254059911291D469C
:100CD000019C28D8204664380498B04123D364226C
:100CE00000272046049E31463B460FF041FC0A2275
:100CF0003B460FF03DFC069802433AA8401942706B
:100D00007D20C200204631463B460FF031FCED1CF1
:100D1000059A102A03D8C04A121BB741ADD36D1EE5
:100D200002E0029D00E06D1C2E46681E0321069025
:100D30000EF05CFE481C032803D00546032803D1AF
:100D400014E00025032811D03AA8841E3746E01984
:100D500040780EF061F9012D07D0BE1EE05D0EF067
:100D60005BF9AD1E3746F2D100E07E1E06980228E0
:100D700010D374423AA83018C51EA8780EF04CF96A
:100D800068780EF049F928780EF046F9E41CED1E5B
:100D9000002CF2D1062000210FF02AFA9F4800F023
:100DA00075FC387A002800D1D9E3002001460FF005
:100DB0001FFA9B480EF0B2FF787B401EC0B2042899
:100DC00000D9DFE3800097490858DCE396480EF02D
:100DD000A5FF96480EF0A2FF219D012400990491E1
:100DE000601E05900A2206922846009E33460FF0A8
:100DF000BFFB07460291069A33460FF0A7F9281A5F
:100E00002246302420433AA9059B585403950A3DB5
:100E100004980546B041069436D301920A22002672
:100E20003846029933460FF0A3FB22433AA8019CAF
:100E3000025505991129039828D80246643A2A4692
:100E4000B24123D364220027294606463B460FF0D1
:100E50008FFB0A223B460FF08BFB069802433AA811
:100E6000001942707D20C200304629463B460FF0F3
:100E70007FFBE41C059A102A04D8674A921BAF41F5
:100E80000546ACD3641E02E0144600E0641C26460E
:100E9000601E032105900EF0A9FD481C032801D017
:100EA000054600E00025032811D03AA8841E3746E5
:100EB000E01940780EF0B0F8012D07D0BE1EE05DBD
:100EC0000EF0AAF8AD1E3746F2D100E07E1E05985E
:100ED000022810D374423AA83018C51EA8780EF024
:100EE0009BF868780EF098F828780EF095F8E41CD6
:100EF000ED1E002CF2D10220002103910FF078F9B1
:100F00004B480EF00BFF179C002C03D52D200EF044
:100F100083F864423F4920460EF068FD08460125EB
:100F20000399029504916A1E05920A2201920646CF
:100F3000039C23460FF01CFB07460D46019A2346EF
:100F40000FF004F9301A069C20433AA9059A505430
:100F5000019604980A3E039A904136D30A2200264D
:100F60003846294633460FF003FB22433AA8029B3A
:100F7000C254059911291D46019C28D82046643881
:100F80000498B04123D3642200272046049E3146B2
:100F90003B460FF0EDFA0A223B460FF0E9FA0698BD
:100FA00002433AA8401942707D20C20020463146D3
:100FB0003B460FF0DDFAED1C059A102A03D8164ABD
:100FC000121BB741ADD36D1E02E0029D00E06D1C07
:100FD0002E46681E032105900EF008FD481C0328CC
:100FE00001D0054600E00025032824D03AA8841E3D
:100FF0003746E01940780EF00FF8012D1AD0BE1ECA
:10100000E05D0EF009F8AD1E3746F2D113E0C046A0
:10101000F20E010040420F00E7030000E60C010061
:10102000C20D0100700B0100560F01007B10010082
:10103000161101007E1E0598022810D374423AA8AA
:101040003018C51EA8780DF0E7FF68780DF0E4FFB2
:1010500028780DF0E1FFE41CED1E002CF2D1E348EE
:101060000EF05CFE269C002C03D52D200DF0D4FF45
:101070006442DF4920460EF0B9FC084600210125F4
:101080000391029504916A1E05920A220192064676
:10109000039C23460FF06CFA07460D46019A23463F
:1010A0000FF054F8301A069C20433AA9059A505480
:1010B000019604980A3E039A904136D30A220026EC
:1010C0003846294633460FF053FA22433AA8029B8A
:1010D000C254059911291D46019C28D82046643820
:1010E0000498B04123D3642200272046049E314651
:1010F0003B460FF03DFA0A223B460FF039FA0698BC
:1011000002433AA8401942707D20C2002046314671
:101110003B460FF02DFAED1C059A102A03D8B54A6C
:10112000121BB741ADD36D1E02E0029D00E06D1CA5
:101130002E46681E032105900EF058FC481C03281B
:1011400001D0054600E00025032811D03AA8841EEE
:101150003746E01940780DF05FFF012D07D0BE1E25
:10116000E05D0DF059FFAD1E3746F2D100E07E1E66
:101170000598022810D374423AA83018C51EA878E2
:101180000DF04AFF68780DF047FF28780DF044FF16
:10119000E41CED1E002CF2D10420002103910FF07D
:1011A00027F895480EF0BAFD099C002C03D52D2098
:1011B0000DF032FF64428E4920460EF017FC0846BF
:1011C00001250399029504916A1E05920A22019253
:1011D0000646039C23460FF0CBF907460D46019ABD
:1011E00023460EF0B3FF301A069C20433AA9059A15
:1011F0005054019604980A3E039A904136D30A222D
:1012000000263846294633460FF0B2F922433AA861
:10121000029BC254059911291D46019C28D82046DD
:1012200064380498B04123D3642200272046049EEA
:1012300031463B460FF09CF90A223B460FF098F9E5
:10124000069802433AA8401942707D20C200204609
:1012500031463B460FF08CF9ED1C059A102A03D855
:10126000644A121BB741ADD36D1E02E0029D00E03F
:101270006D1C2E46681E032105900EF0B7FB481C1E
:10128000032801D0054600E00025032811D03AA824
:10129000841E3746E01940780DF0BEFE012D07D0C0
:1012A000BE1EE05D0DF0B8FEAD1E3746F2D100E087
:1012B0007E1E0598022810D374423AA83018C51E25
:1012C000A8780DF0A9FE68780DF0A6FE28780DF03C
:1012D000A3FEE41CED1E002CF2D148480EF01EFDCA
:1012E000279C002C03D52D200DF096FE644240492A
:1012F00020460EF07BFB0846002101250391029554
:1013000004916A1E05920A2201920646039C234616
:101310000FF02EF907460D46019A23460EF016FFF0
:10132000301A069C20433AA9059A50540196049815
:101330000A3E039A904136D30A22002638462946AF
:1013400033460FF015F922433AA8029BC25405997F
:1013500011291D46019C28D8204664380498B041C4
:1013600023D3642200272046049E31463B460FF0DB
:10137000FFF80A223B460FF0FBF8069802433AA812
:10138000401942707D20C200204631463B460FF096
:10139000EFF8ED1C059A102A03D8F64A121BB74144
:1013A000ADD36D1E02E0029D00E06D1C2E46681E4E
:1013B000032105900EF01AFB481C032801D00546B6
:1013C00000E0002503281CD03AA8841E3746E01907
:1013D00040780DF021FE012D12D0BE1EE05D0DF013
:1013E0001BFEAD1E3746F2D10BE0C046C310010014
:1013F00040420F00E7030000101101009B100100A4
:101400007E1E0598022810D374423AA83018C51ED3
:10141000A8780DF001FE68780DF0FEFD28780DF03B
:10142000FBFDE41CED1E002CF2D106200024214619
:101430000EF0DEFEDA480EF071FC07A8008E0125E2
:1014400003942146029504916A1E05920A22019294
:101450000646039C23460FF08BF807460D46019A7B
:1014600023460EF073FE301A069C20433AA9059AD3
:101470005054019604980A3E039A904136D30A22AA
:1014800000263846294633460FF072F822433AA820
:10149000029BC254059911291D46019C28D820465B
:1014A00064380498B04123D3642200272046049E68
:1014B00031463B460FF05CF80A223B460FF058F8E5
:1014C000069802433AA8401942707D20C200204687
:1014D00031463B460FF04CF8ED1C059A102A03D814
:1014E000A44A121BB741ADD36D1E02E0029D00E07D
:1014F0006D1C2E46681E032106900EF077FA481CDC
:10150000032801D0054600E00025032811D03AA8A1
:10151000841E3746E01940780DF07EFD012D07D07E
:10152000BE1EE05D0DF078FDAD1E3746F2D100E045
:101530007E1E0698022800D2A7E074423AA830180E
:10154000C51EA8780DF068FD68780DF065FD287857
:101550000DF062FDE41CED1E002CF2D195E02C781C
:10156000002001460EF044FE002C4ED090480EF0B4
:10157000D5FB2879401EC0B2032852D880008D497F
:1015800008584FE078480EF0C9FB20200DF044FDCC
:1015900030460EF0C3FB0220002421460EF028FE48
:1015A00075480EF0BBFB1798C11709F06DFD7B481D
:1015B0000EF0B4FB2298C11709F066FD0420214605
:1015C0000EF016FE6D480EF0A9FB1A98C11709F02F
:1015D0005BFD6B480EF0A2FB1B98C11709F054FD90
:1015E000062021460EF004FE69480EF097FB09988C
:1015F000C11709F049FD6C480EF090FB07A8008E5A
:1016000021460AF0FFF8694840E05E480EF086FB8C
:10161000387B401EC0B202283CD88000544908588C
:1016200039E051480EF07AFB0220002421460EF0EA
:10163000DFFD59480EF072FB0898C11709F024FD30
:1016400056480EF06BFB0798C11709F01DFD0420EA
:1016500021460EF0CDFD4E480EF060FB0998C117F3
:1016600009F012FD4B480EF059FB0A98C11709F01A
:101670000BFD062021460EF0BBFD49480EF04EFB47
:1016800007A8008E21460AF0BDF846480EF046FB3A
:101690003FB0F0BD35480EF041FB3C480EF03EFB3C
:1016A0003878179909F040FC20200DF0B5FC304641
:1016B0000EF034FB0220002529460EF099FD3E482D
:1016C0000EF02CFB2D98C11709F0DEFC3B480EF004
:1016D00025FB3599349809F0D7FC042029460EF0F3
:1016E00087FD26480EF01AFB7878189909F01CFC43
:1016F00023480EF013FBB878199909F015FC062061
:1017000029460EF075FD787B04280DD005280DD1F3
:101710002C480EF003FBB87B401EC0B2062818D838
:1017200080002949085815E02548AFE7F97B28488B
:101730000329ABD1397C0629A8D026480EF0EEFA51
:10174000387C401EC0B2062808D880001E490858C0
:1017500005E00D480EF0E2FA1C4897E70A480EF043
:10176000DDFA1D4892E7C046560F01000D11010039
:10177000780C0100E7030000C50E0100E310010032
:10178000071001002B110100B00F01008F100100A4
:1017900010110100F20E010016110100C31001002A
:1017A00004110100730D010033100100500D010000
:1017B000FA0C0100E00B0100BF0F01000B1001004B
:1017C000100C0100D40D0100F40A01000C0D010001
:1017D000200C01007A0D0100400D0100F0B59BB016
:1017E00016480178491CCAB20170052A2AD31C4642
:1017F000002606700EF086FC0EF058FF401E1728DB
:101800001ED8400078448088400087441801990021
:101810009C00EC0096009F002A00A20015014D01DB
:1018200019001900190019001900190019001900F0
:1018300019001900E600E9001C011103270F202000
:1018400008F0C4FA864C20784006000E09F0FEF934
:101850002078401CC1B2032900D9002020701BB0A1
:10186000F0BD0EF0C5FF06460EF0B2FF05460EF0C5
:10187000ABFF04460EF084FF099000273846394636
:101880000EF0B6FC77480EF049FA687809F096FA3F
:1018900075480EF043FA0EF02DFF09F08FFA7348E9
:1018A0000EF03CFA0EF01AFF09F088FA70480EF0BC
:1018B00035FA207809F082FA6E480EF02FFAE078B7
:1018C00009F07CFA022039460EF092FC6A480EF0CC
:1018D00025FA7078002800D0778838B209F06EFABF
:1018E00063480EF01BFAA87809F068FA0420002675
:1018F00031460EF07DFC61480EF010FAA87909F02F
:101900005DFA5F480EF00AFAE87909F057FA062006
:1019100031460EF06DFC099C2088002800D18AE237
:1019200058480EF0FBF920880BF040FC0EF0F6F959
:1019300055480EF0F3F9201D81E201F029F881E706
:1019400003F06EF87EE709F003F87BE704F082FE0F
:1019500078E70EF061FF074680690EF075F94B4C91
:10196000A04200DC20464A4EB04200DB30460290E6
:10197000F8690EF069F9A04200DC2046B04200DBB5
:10198000304601900025284629460EF031FC41489A
:101990000EF0C4F93868A04200DC2046B04200DBFB
:1019A000304609F00BFA3C480EF0B8F97868A042CE
:1019B00000DC2046B04200DB304609F0FFF902208F
:1019C00029460EF015FC35480EF0A8F9FE68BC68F3
:1019D000002E00D554E2354657E205F0B1F931E763
:1019E000FEF76EFB2EE72A4F0EF0D6FE0546099055
:1019F000006A2B490CF010FC064601460EF05CFD17
:101A0000002100280C46084601D000F08BFC254937
:101A100030460DF085F90028384601D000F082FCF0
:101A2000C720010630460DF05DF9002801D100F015
:101A300076FC781C00F076FC05F0A4FC02E720465A
:101A400007F000FEFEE60EF0D7FE07460EF058FE49
:101A50003978002900D17AE27968421A78E2C046E2
:101A6000260F20201C110100071001004710010063
:101A70007310010027100100F2100100671001002F
:101A80008D0F01002B1101000B1001000080FFFFE2
:101A9000FF7F00009F100100330F0100F70F0100CE
:101AA0000000204100FEFF46E74C0EF089FE07468D
:101AB0000025284629460EF09BFBE4480EF02EF93F
:101AC000FE6A304631460EF0F7FC0028284610D159
:101AD000DF4930460DF024F90028DE4809D1DE49FF
:101AE00030460DF0FFF80028204602D130460EF0B7
:101AF000ABF800B209F062F92F200DF08DFAFE6DFF
:101B0000304631460EF0D8FC0028284610D1D04986
:101B100030460DF005F90028CE4809D1CE493046AF
:101B20000DF0E0F80028204602D130460EF08CF887
:101B300000B209F043F9022029460EF059FBC748CC
:101B40000EF0ECF8FE6B304631460EF0B5FC002886
:101B5000284610D1BE4930460DF0E2F80028BD48B5
:101B600009D1BD4930460DF0BDF80028204602D10C
:101B700030460EF069F800B209F020F92F200DF080
:101B80004BFAFE6E304631460EF096FC0028284691
:101B900010D1AF4930460DF0C3F80028AD4809D147
:101BA000AD4930460DF09EF80028204602D130465F
:101BB0000EF04AF800B209F001F9A9480EF0AEF8AB
:101BC0007E6B304631460EF077FC0028284610D157
:101BD0009F4930460DF0A4F800289E4809D19E493F
:101BE00030460DF07FF80028204602D130460EF036
:101BF0002BF800B209F0E2F82F200DF00DFA7E6EFE
:101C0000304631460EF058FC0028284610D1904945
:101C100030460DF085F800288E4809D18E493046AF
:101C20000DF060F80028204602D130460EF00CF886
:101C300000B209F0C3F8042029460EF0D9FA894809
:101C40000EF06CF83E6B304631460EF035FC002845
:101C5000284610D17E4930460DF062F800287D48B4
:101C600009D17D4930460DF03DF80028204602D1CB
:101C700030460DF0E9FF00B209F0A0F82F200DF07A
:101C8000CBF93E6E304631460EF016FC0028284651
:101C900010D16F4930460DF043F800286D4809D146
:101CA0006D4930460DF01EF80028204602D130461E
:101CB0000DF0CAFF00B209F081F86B480EF02EF863
:101CC000BE6B304631460EF0F7FB0028284610D197
:101CD0005F4930460DF024F800285E4809D15E497E
:101CE00030460CF0FFFF0028204602D130460DF0B0
:101CF000ABFF00B209F062F82F200DF08DF9BE6E37
:101D0000304631460EF0D8FB0028284610D1504905
:101D100030460DF005F800284E4809D14E493046AE
:101D20000CF0E0FF0028204602D130460DF08CFF79
:101D300000B209F043F8062029460EF059FA4B4844
:101D40000DF0ECFF3E6C304631460EF0B5FB00283E
:101D5000284610D13E4930460CF0E2FF00283D48AD
:101D600009D13D4930460CF0BDFF0028204602D184
:101D700030460DF069FF3C46493400B209F01EF8C8
:101D80002F200DF049F93E6F304631460EF094FB9E
:101D9000002811D12E4930460CF0C2FF00282D4DED
:101DA0000AD12D4930460CF09DFF0028264D03D165
:101DB00030460DF049FF0546793728B208F0FEFF9E
:101DC0002B480DF0ABFF207841254F2600282846F0
:101DD00000D030460DF020F93878002800D0354684
:101DE00028460DF019F923480DF098FFA07830250A
:101DF00031260028284600D030460DF00DF9B8787D
:101E00000028284600D030460DF006F91A480DF09B
:101E100085FF60780028284600D030460DF0FCF899
:101E20007878002800D0354628460DF0F5F809E509
:101E300009F0C8FF06E511480DF070FF281D805F0E
:101E400008F0BCFFFEE4C04619FC000010110100C0
:101E500000C07944E703000000C079C42B110100E1
:101E60008F100100A31001000F100100E610010007
:101E7000EC1001002211010025110100980D010054
:101E80002D200DF0C9F86442B54103974A370097F9
:101E90000023FE4A2046294606930EF069FB1046B1
:101EA00019460125059507916A1E08920A22099292
:101EB0000646069F3B460EF05BFB04460D46099A1C
:101EC0003B460EF043F9301A302738430AA9089AE6
:101ED0005054049607980A3E069A9041099765D394
:101EE0000A2200262046294633460EF041FB3A439B
:101EF0000AA8059BC254089911291D46049F57D86A
:101F0000384664380798B04152D3642200243846DA
:101F1000079E314623460EF02BFB0A2223460EF085
:101F200027FB099802430AA8401942707D20C2008D
:101F30003846314623460EF01BFBED1C089A102A4A
:101F400003D8D34AD21BB441ACD36D1E31E0F24367
:101F50007978481E814104910792652A01D335465C
:101F600000E001250AAC20460EF0AEF9A05F122178
:101F70000291795E441AC748844200DB0446C64891
:101F8000844200DC0446304631460EF031F9C34845
:101F90000DF0C4FE38780028039404D0079E642E08
:101FA00026D9BF480FE3BF48079E0CE3059D00E01C
:101FB0006D1C2E46681E032108900DF017FD481C6D
:101FC000032800D00690032801D1354617E00AA85F
:101FD000841E069FA01940780DF01EF8012F0DD029
:101FE000B51EA05D0DF018F8BF1E2E46F2D106E01A
:101FF0007878002800D1E5E2AB48E4E2751E089845
:10200000022810D36C420AA82818C51EA8780DF023
:1020100003F868780DF000F828780CF0FDFFE41C58
:10202000ED1E002CF2D1A1480DF078FE0398456911
:102030000469002D01D4294605E02D200CF0ECFFA9
:1020400000216442A941914A0023204606930EF0E4
:102050008FFA104619460125059507916A1E0892C8
:102060000A2204920646069F3B460EF081FA044679
:102070000D46049A3B460EF069F8301A099F384322
:102080000AA9089A5054049607980A3E069A904165
:1020900036D30A2200262046294633460EF068FA37
:1020A0003A430AA8059BC254089911291D46049F6A
:1020B00028D8384664380798B04123D364220024D6
:1020C0003846079E314623460EF052FA0A2223462E
:1020D0000EF04EFA099802430AA8401942707D207A
:1020E000C2003846314623460EF042FAED1C089AEB
:1020F000102A03D8664AD21BB441ADD36D1E02E04C
:10210000059D00E06D1C2E46681E032108900DF011
:102110006DFC481C032800D00690032801D13546E9
:1021200011E00AA8841E069FA01940780CF074FFE5
:10213000012F07D0B51EA05D0CF06EFFBF1E2E460E
:10214000F2D100E0751E0898022810D36C420AA84C
:102150002818C51EA8780CF05FFF68780CF05CFFAB
:1021600028780CF059FFE41CED1E002CF2D104205D
:10217000002529460EF03CF84D480DF0CFFD0298A1
:1021800000B208F01BFE4B480DF0C8FD019800B2EC
:1021900008F014FE062029460EF02AF846480DF0F5
:1021A000BDFD009C207808F009FE44480DF0B6FD06
:1021B000607808F003FE42480DF0B0FD0398006D12
:1021C00001240695294605940791621E08920A2269
:1021D00004920546069F3B460EF0CAF906460C4699
:1021E000049A3B460DF0B2FF281A099F38430AA90A
:1021F000089A5054049507980A3D069A904136D3A0
:102200000A220025304621462B460EF0B1F93A430A
:102210000AA8059BC254089911291C46049F28D876
:10222000384664380798A84123D3642200263846EC
:10223000079D294633460EF09BF90A2233460EF0DD
:1022400097F9099802430AA8001942707D20C2003C
:102250003846294633460EF08BF9E41C089A102ABA
:1022600003D80B4AD21BAE41ADD3641E02E0059CDD
:1022700000E0641C2646601E032109900DF0B6FBA9
:10228000481C03281ED005461DE0C04640420F00F2
:10229000E7030000FF7F00000080FFFFCE0D01007C
:1022A000B60D01006A0F010013110100DE0E0100DE
:1022B0001B100100DD0F0100F81001000B100100E0
:1022C0006B1001000025032811D00AA8841E374690
:1022D000E01940780CF0A0FE012D07D0BE1EE05D95
:1022E0000CF09AFEAD1E3746F2D100E07E1E099832
:1022F000022801D2FFF7A6FA74420AA83018C51EB8
:10230000A8780CF089FE68780CF086FE28780CF02E
:1023100083FEE41CED1E002CF2D1FFF793FA304649
:102320000DF092FC07906868F0490BF075FF0646C7
:1023300001460EF0C1F80028204612D1EC49304683
:102340000CF0EEFC002838460BD1C72001063046C1
:102350000CF0C8FC002801D0781C02E030460DF0DB
:1023600073FC06900895A868E0490BF055FF0746F6
:1023700001460EF0A1F80028204613D1DC4938466A
:102380000CF0CEFC0028DB480CD1C72001063846F3
:102390000CF0A8FC002802D0D648401C02E03846C9
:1023A0000DF052FC0590099805467A352A300990BF
:1023B0000898C069D0490BF02FFF064601460EF081
:1023C0007BF80028274615D1C94930460CF0A8FCF7
:1023D000002801D0C74F0DE0C720010630460CF0A1
:1023E00081FC0028C34801D0471C03E030460DF0B3
:1023F0002BFC0746204621460DF0FAFEBF480DF0A3
:102400008DFC287808F0DAFCBD480DF087FC687870
:1024100008F0D4FCBB480DF081FC079800B208F02E
:10242000CDFCB9480DF07AFC0820285608F0C6FC0F
:10243000022021460DF0DCFEB4480DF06FFC089D33
:10244000285F08F0BBFCB2480DF068FC069800B2AB
:1024500008F0B4FC042021460DF0CAFEAD480DF092
:102460005DFC059800B208F0A9FCAB480DF056FCE5
:1024700038B208F0A3FC062021460DF0B9FEA748AB
:102480000DF04CFC0998007808F098FCA4480DF079
:1024900045FC21462E6F012507910895681E09907D
:1024A0000A220692002530462B460EF061F80746B8
:1024B0000C46069A2B460DF049FE301A302318437D
:1024C0000AA9099A505406960A3E079806460495AA
:1024D000A8413DD311460A22002538460F46214621
:1024E0001C462B460EF044F82346394622430AA8E0
:1024F000089FC25511293446069E2BD830466438B1
:102500002046A84126D364223D4600273046214676
:1025100005933B460EF02CF80A223B460EF028F8B5
:10252000059802430AA8401942707D20C200304637
:1025300021463B460EF01CF8ED1C099A102A04D8DF
:10254000784A921BA7410646A6D32F466F1E02E08B
:10255000089F00E07F1C781E032109900DF046FAC9
:10256000481C032800D00490032801D13E4611E006
:102570000AA8851E049CE81940780CF04DFD012C3A
:1025800007D0BE1EE85D0CF047FDA41E3746F2D111
:1025900000E07E1E0998022801D2FFF753F9744229
:1025A0000AA83018C51EA8780CF036FD68780CF023
:1025B00033FD28780CF030FDE41CED1E002CF2D128
:1025C000FFF740F9E648049929400D46DE4C0DF02E
:1025D000A5FBE2480DF0A2FB387800285FD00495F7
:1025E0000197A64200D3264600200125059001460A
:1025F00006910895681E09900A2207923046059DAB
:102600002B460DF0B5FF04460F46079A2B460DF0FA
:102610009DFD301A3023184316A9099A5054079685
:102620000A3E06980646A8413DD30A2200252046C8
:1026300039461C462B460DF09BFF224316A80899ED
:1026400042540999112907982FD837460146643911
:102650003146A94129D3234664220024064639463F
:102660001D4623460DF084FF0A2223460DF080FF0D
:102670002A4316A8089D401942707D20C2003046AA
:10268000394623460DF074FFED1C099A102A04D830
:10269000AD4A921BBC410646AAD36D1E07E0B14865
:1026A0000DF03CFB57E0089D01E0089D6D1C681E85
:1026B000032109900DF09AF9481C032801D0044623
:1026C00000E00024032830D016A8861E2F46F019FB
:1026D00040780CF0A1FC012C26D0BD1EF05D0CF062
:1026E0009BFCA41E2F46F2D11FE0C04600002041F3
:1026F00000FEFF46FF7F00000000C84219110100E4
:10270000AB100100E00D01006F1001000411010089
:10271000AA0D0100FC0E01005E0D010083100100F6
:10272000C3100100E70300007D1E0998022810D3A2
:102730006C4216A82818C51EA8780CF06DFC6878A5
:102740000CF06AFC28780CF067FCE41CED1E002CF1
:10275000F2D1019F049D0220002421460DF048FD86
:1027600081480DF0DBFA002D04D00298385E08F0A5
:1027700025FB02E07D480DF0D1FA7D480DF0CEFA40
:102780000AA8005F08F01AFB73480DF0C7FA002D85
:1027900004D0039800B208F011FB02E073480DF07A
:1027A000BDFA0420002104910DF022FD69480DF0CE
:1027B000B5FA06200AAC205E08F000FB6D480DF06B
:1027C000ADFA0D986149884200DC084660498842AC
:1027D00000DB084608F0F2FA67480DF09FFA2C205B
:1027E000205C052803D880006549085800E063484C
:1027F0000DF094FA0620049C21460DF0F9FC614886
:102800000DF08CFA388A0AF0BFFA5F480DF086FAAC
:10281000F88A0AF0B9FA5D480DF080FA0DF008FD6B
:1028200001252146079508916A1E09920A220692FF
:102830000646049C23460DF09BFE07460D46069A6D
:1028400023460DF083FC301A3023184316A9099A49
:102850005054069608990A3E0846A04139D30A22E8
:102860000C460026384629461D4633460DF080FEAC
:102870002B462A4316A8079D425509991129069A05
:1028800029D8104664382046B04124D31646642225
:1028900000273046214605933B460DF069FE0A228B
:1028A0003B460DF065FE0598024316A8401942709C
:1028B0007D20C200304621463B460DF059FEED1CFE
:1028C000099A102A03D8204A921BA741AAD36D1E49
:1028D00002E0079D00E06D1C2E46681E0321099052
:1028E0000DF084F8481C032801D0054600E00025BF
:1028F000032811D016A8841E3746E01940780CF042
:102900008BFB012D07D0BE1EE05D0CF085FBAD1EDC
:102910003746F2D100E07E1E0998022801D2FEF768
:1029200091FF744216A83018C51EA8780CF074FBED
:1029300068780CF071FB28780CF06EFBE41CED1E3F
:10294000002CF2D1FEF77EFFE70300000080FFFFBE
:10295000FF7F0000F81001006B100100471001001C
:10296000B00F01007F100100161101000D110100D0
:10297000C31001003F1001001E0D0100CF10010027
:102980002C0B01002E1101007B10010033100100FF
:10299000F0B58DB000260DF0FFFE044630463146FE
:1029A0000DF026FCD6480DF0B9F90194E06A012536
:1029B00004963146039505916A1E06920A220792F3
:1029C0000746049D2B460DF0D3FD04460E46079A9C
:1029D0002B460DF0BBFB381A3025284308A9069A70
:1029E0005054029705980A3F049A9041079536D3B0
:1029F0000A220027204631463B460DF0B9FD2A4306
:102A000008A8039BC254069911291D46029E28D886
:102A1000304664380598B84123D3642200243046F8
:102A2000059F394623460DF0A3FD0A2223460DF0EB
:102A30009FFD0798024308A8401942707D20C200FC
:102A40003046394623460DF093FDED1C069A102AB8
:102A500003D8AC4A921BBC41ACD36D1E02E0039D6F
:102A600000E06D1C681E032106900CF0BFFF481C9F
:102A7000032803D00446032803D114E000240328CC
:102A800011D008A82F46861EF01940780CF0C4FA21
:102A9000012C07D0BD1EF05D0CF0BEFAA41E2F461F
:102AA000F2D100E07D1E0698022810D36C4208A8DF
:102AB0002818C51EA8780CF0AFFA68780CF0ACFAAC
:102AC00028780CF0A9FAE41CED1E002CF2D18E48F7
:102AD0000DF024F90198006B002101250491039564
:102AE00005916A1E06920A2202920746049D2B4611
:102AF0000DF03EFD04460E46029A2B460DF026FBD5
:102B0000381A079D284308A9069A50540297059839
:102B10000A3F049A904136D30A22002720463146C4
:102B20003B460DF025FD2A4308A8039BC254069995
:102B300011291D46029E28D8304664380598B841B0
:102B400023D3642200243046059F394623460DF0E6
:102B50000FFD0A2223460DF00BFD0798024308A83B
:102B6000401942707D20C2003046394623460DF0A0
:102B7000FFFCED1C069A102A03D8624A921BBC4146
:102B8000ADD36D1E02E0039D00E06D1C681E0321A5
:102B900006900CF02BFF481C032803D004460328A2
:102BA00003D114E00024032811D008A82F46861E64
:102BB000F01940780CF030FA012C07D0BD1EF05D02
:102BC0000CF02AFAA41E2F46F2D100E07D1E0698D2
:102BD000022810D36C4208A82818C51EA8780CF04B
:102BE0001BFA68780CF018FA28780CF015FAE41C37
:102BF000ED1E002CF2D10220002421460DF0F8FA3F
:102C000042480DF08BF80198406B01250494214651
:102C1000039505916A1E06920A2202920746049DB8
:102C20002B460DF0A5FC04460E46029A2B460DF0ED
:102C30008DFA381A079D284308A9069A505402971E
:102C400005980A3F049A904136D30A22002720466D
:102C500031463B460DF08CFC2A4308A8039BC25426
:102C6000069911291D46029E28D8304664380598D9
:102C7000B84123D3642200243046059F39462346B9
:102C80000DF076FC0A2223460DF072FC07980243F1
:102C900008A8401942707D20C200304639462346BC
:102CA0000DF066FCED1C069A102A03D8154A921BFB
:102CB000BC41ADD36D1E02E0039D00E06D1C681E9B
:102CC000032106900CF092FE481C032803D0044612
:102CD000032803D11DE0002403281AD008A82F469A
:102CE000861EF01940780CF097F9012C10D0BD1E0B
:102CF000F05D0CF091F9A41E2F46F2D109E0C04618
:102D0000F2100100E7030000D30F0100B31001002F
:102D10007D1E0698022810D36C4208A82818C51EEC
:102D2000A8780CF079F968780CF076F928780CF02E
:102D300073F9E41CED1E002CF2D1D6480CF0EEFF26
:102D40000198806B002101250491039505916A1E6D
:102D500006920A2202920746049D2B460DF008FCBB
:102D600004460E46029A2B460DF0F0F9381A079DDC
:102D7000284308A9069A5054029705980A3F049AD6
:102D8000904136D30A220027204631463B460DF0BB
:102D9000EFFB2A4308A8039BC254069911291D463C
:102DA000029E28D8304664380598B84123D364225F
:102DB00000243046059F394623460DF0D9FB0A22F0
:102DC00023460DF0D5FB0798024308A8401942702E
:102DD0007D20C2003046394623460DF0C9FBED1C6C
:102DE000069A102A03D8AC4A921BBC41ADD36D1E83
:102DF00002E0039D00E06D1C681E032106900CF0AC
:102E0000F5FD481C032803D00446032803D114E031
:102E10000024032811D008A82F46861EF0194078F8
:102E20000CF0FAF8012C07D0BD1EF05D0CF0F4F8A0
:102E3000A41E2F46F2D100E07D1E0698022810D372
:102E40006C4208A82818C51EA8780CF0E5F8687828
:102E50000CF0E2F828780CF0DFF8E41CED1E002CF2
:102E6000F2D10420002421460DF0C2F98B480CF069
:102E700055FF0198C06B01250494214603950591E7
:102E80006A1E06920A2202920746049D2B460DF006
:102E90006FFB04460E46029A2B460DF057F9381A7E
:102EA000079D284308A9069A5054029705980A3F9F
:102EB000049A904136D30A220027204631463B46E9
:102EC0000DF056FB2A4308A8039BC254069911290A
:102ED0001D46029E28D8304664380598B84123D351
:102EE000642200243046059F394623460DF040FBFE
:102EF0000A2223460DF03CFB0798024308A840191C
:102F000042707D20C2003046394623460DF030FB2A
:102F1000ED1C069A102A03D85F4A921BBC41ADD320
:102F20006D1E02E0039D00E06D1C681E03210690EB
:102F30000CF05CFD481C032803D00446032803D191
:102F400014E00024032811D008A82F46861EF0198B
:102F500040780CF061F8012C07D0BD1EF05D0CF03C
:102F60005BF8A41E2F46F2D100E07D1E06980228D1
:102F700010D36C4208A82818C51EA8780CF04CF88D
:102F800068780CF049F828780CF046F8E41CED1E3F
:102F9000002CF2D142480CF0C1FE0198C06C002117
:102FA00001250491039505916A1E06920A22029258
:102FB0000746049D2B460DF0DBFA04460E46029AA6
:102FC0002B460DF0C3F8381A079D284308A9069A26
:102FD0005054029705980A3F049A904136D30A222A
:102FE0000027204631463B460DF0C2FA2A4308A886
:102FF000039BC254069911291D46029E28D83046CB
:1030000064380598B84123D3642200243046059FD4
:10301000394623460DF0ACFA0A2223460DF0A8FAF1
:103020000798024308A8401942707D20C20030462C
:10303000394623460DF09CFAED1C069A102A03D857
:10304000154A921BBC41ADD36D1E02E0039D00E00A
:103050006D1C681E032106900CF0C8FC481C032858
:1030600003D00446032803D11DE0002403281AD00E
:1030700008A82F46861EF01940780BF0CDFF012CD2
:1030800010D0BD1EF05D0BF0C7FFA41E2F46F2D17D
:1030900009E0C046E20F0100E7030000BF10010095
:1030A000060F01007D1E0698022810D36C4208A866
:1030B0002818C51EA8780BF0AFFF68780BF0ACFF9E
:1030C00028780BF0A9FFE41CED1E002CF2D106209D
:1030D000002421460DF08CF8E0480CF01FFE01980A
:1030E000006C012504942146039505916A1E069201
:1030F0000A2202920746049D2B460DF039FA044637
:103100000E46029A2B460DF021F8381A079D2843E7
:1031100008A9069A5054029705980A3F049A9041CC
:1031200036D30A220027204631463B460DF020FACE
:103130002A4308A8039BC254069911291D46029EE2
:1031400028D8304664380598B84123D36422002437
:103150003046059F394623460DF00AFA0A222346D7
:103160000DF006FA0798024308A8401942707D2026
:10317000C2003046394623460DF0FAF9ED1C069A96
:10318000102A03D8B44A921BBC41ADD36D1E02E095
:10319000039D00E06D1C681E032106900CF026FCC8
:1031A000481C032803D00446032803D114E000245C
:1031B000032811D008A82F46861EF01940780BF07E
:1031C0002BFF012C07D0BD1EF05D0BF025FFA41EC8
:1031D0002F46F2D100E07D1E0698022810D36C42E3
:1031E00008A82818C51EA8780BF016FF68780BF001
:1031F00013FF28780BF010FFE41CED1E002CF2D119
:1032000097480CF08BFD0198406C0021012504913A
:10321000039505916A1E06920A2202920746049DB2
:103220002B460DF0A5F904460E46029A2B460CF0EB
:103230008DFF381A079D284308A9069A5054029713
:1032400005980A3F049A904136D30A220027204667
:1032500031463B460DF08CF92A4308A8039BC25423
:10326000069911291D46029E28D8304664380598D3
:10327000B84123D3642200243046059F39462346B3
:103280000DF076F90A2223460DF072F907980243F1
:1032900008A8401942707D20C200304639462346B6
:1032A0000DF066F9ED1C069A102A03D86A4A921BA3
:1032B000BC41ADD36D1E02E0039D00E06D1C681E95
:1032C000032106900CF092FB481C032803D004460F
:1032D000032803D114E00024032811D008A82F46A6
:1032E000861EF01940780BF097FE012C07D0BD1E0A
:1032F000F05D0BF091FEA41E2F46F2D100E07D1E82
:103300000698022810D36C4208A82818C51EA87871
:103310000BF082FE68780BF07FFE28780BF07CFEC5
:10332000E41CED1E002CF2D14E480CF0F7FC019885
:10333000866C002001240490014603940691601ECF
:1033400005900A2202923046049D2B460DF010F99A
:1033500007460C46029A2B460CF0F8FE301A079DE1
:10336000284308A9059A505402960A3E06980499E3
:10337000884136D30A2200263846214633460DF0CE
:10338000F7F806992A4308A8039C0255059B112BC0
:10339000029D28D8284664380846B04123D36422C9
:1033A0001E46002728463B460DF0E2F80A223B461F
:1033B0000DF0DEF80798024308A8001942707D203E
:1033C000C200284606993B460DF0D2F8069BE41C45
:1033D000102E04D8204A521B9F410646ADD3641ECE
:1033E00002E0039C00E0641C2646601E0321079057
:1033F0000CF0FCFA481C032803D00546032803D12F
:1034000014E00025032811D008A8841E3746E019CF
:1034100040780BF001FE012D07D0BE1EE05D0BF0E1
:10342000FBFDAD1E3746F2D100E07E1E0798022854
:1034300010D3744208A83018C51EA8780BF0ECFD14
:1034400068780BF0E9FD28780BF0E6FDE41CED1E32
:10345000002CF2D10DB0F0BDE7030000D310010045
:103460001A0F0100D90E0100F0B587B05B4E31781C
:103470007078B37899420A4600D31A46814200D345
:10348000104630700420315E0620305E0822B35EA4
:1034900099420A4600DB1A46814200DB1046B080A2
:1034A0000A20315E0C20305E0E22B35E99420A463D
:1034B00000DB1A46814200DB104670811020315E2D
:1034C0001220305E14220492B35E99420A4600DB59
:1034D0001A46814200DB104630821620315E1820E9
:1034E000305E1A22B35E99420A4600DB1A468142D8
:1034F00000DB1046F0821C20315E1E20305E202250
:10350000B35E99420A4600DB1A46814200DB104650
:10351000B0832220315E7D25E800814200DB014638
:10352000CA17914371842421715E814200DB0146F8
:10353000CA179143B1842621725E824200DB0246A3
:103540000121012A00DC0A46F2842820335C072B83
:103550001A4600D30722002B0B4600D013463354E3
:103560002922B45C642C234600D36423002C00D0B1
:1035700019461B4BB154718DC82901D2C82102E0F4
:103580009942194600D971852B01B18D642901D268
:10359000642102E09942194600D9B1850695EF00F1
:1035A000F18D282902D3B942384601D9F085014668
:1035B000328E8A42104600D808468A4201D3984289
:1035C00005D906990901884200D308463086716BF7
:1035D000C829059306D2C82007E0C046D00720209E
:1035E00088130000D348814200D97063B46B002176
:1035F00020460BF081FB002805D1CF4920460BF077
:103600008FFB002801D0CD4CB463F56B0021284618
:103610000BF072FB002805D1284621460BF076FB03
:10362000002801D0C648F063346C002120460BF01E
:1036300063FB002805D1C34920460BF071FB00282D
:1036400001D0BF4830644420315ABF4A8918491E0E
:1036500089B2BE4A914201D8642131524620315E7E
:10366000069AD200914200DB1146CA1791433152AB
:103670004820315AB64A8918143989B2FD4A914214
:1036800001D8C82131525021705A0246153A049B84
:10369000DB439A4201D8052070525221725A642AA3
:1036A00001D8824201D2642070525421705AF24AE9
:1036B0008218521E92B2F14B9A4201D83C207052AD
:1036C0005621725ABA4201D8824201D864207052FF
:1036D000B46D002120460BF00FFB0028069F05D19A
:1036E000E74920460BF01CFB002801D0E548B065F7
:1036F0005C20315C012903D0FF2901D0FF21315426
:103700005E21725EF800824200DB0246D3179A43C4
:1037100072526021725E824200DB0246D3179A43E6
:1037200072526221725E824200DB0246012A00DC94
:10373000012272526422B05EC82800DBC820C11783
:1037400088430492B052B46E002120460BF0E8FA90
:10375000002805D0C54920460BF0E2FA002801D028
:10376000C14CB466F56E002128460BF0D9FA00284A
:1037700005D0284621460BF0C9FA002801D0C248DE
:10378000F0667020315EFA00914200DB114601299B
:1037900000DC01213152756F002128460BF0C0FA80
:1037A000002806D03F20010628460BF0B9FA002871
:1037B00001D0B6487067B56F284629460CF07CFEEC
:1037C00000280BD1284621460BF08CFA002805D1A1
:1037D000A64928460BF0A4FA002801D0AC48B067EF
:1037E000A34DF46F002120460BF090FA002805D07D
:1037F000A74920460BF094FA002802D00120800748
:10380000F0678020315A6918491E89B2A94201D255
:10381000C821315284257459002120460BF080FACA
:10382000002805D08F4920460BF07AFA002801D0F5
:103830009748705188257459002120460BF070FA82
:1038400047424741B8203158204603910BF068FAAF
:10385000411E88413843012801D18E4C7451012505
:103860008C2001903758384639460CF025FE0290DE
:10387000384621460BF036FA0446384603990BF0D9
:103880004FFA411E8841002C294600D1014602987A
:103890000028069F00D10D46012D02D17E480199D6
:1038A00070509020325E9221715E9423F45EA242A9
:1038B000134600DB23468A4200DB1946315296202C
:1038C000315E5A29664C00DB5A215922D24391427B
:1038D000059B00DC114631529A20315E782900DBCD
:1038E00078217722D243914200DC11463152982050
:1038F000315A6429049A02D3A142224600D9325295
:103900009C20315AA14200D934529E20315A99420A
:1039100000D93352A020315A642901D2642301E036
:10392000994200D93352A420325891087D2911D2EE
:10393000B90012E0102700000000B442000040412E
:103940000000A0400000C84230F8FFFF2FF8000040
:103950002BFCFFFF51498A4200D93150F021725EA1
:10396000F800824200DB0246D3179A437252F221DA
:10397000725E824200DB0246D01782437252F4200C
:103980003158474A8918491E914201D239013150B4
:10399000F8257459002120460BF0AEF9002806D115
:1039A0007F20C10520460BF0BBF9002801D03D481F
:1039B0007051FC257459002120460BF09DF9002818
:1039C00006D17F20C10520460BF0AAF9002801D0BE
:1039D0002E487051012005027459002120460BF039
:1039E00081F9002805D1304920460BF099F90028CB
:1039F00001D02E4870514120850074590021204685
:103A00000BF070F9002806D17F20C10520460BF08D
:103A100087F9002801D0264870512120C100725E2C
:103A2000F800824200DB0246D3179A437252852186
:103A30004900725E824200DB0246D0178243725216
:103A400043208100705A002801D10520705287213F
:103A50004900725A824200D2705207B0F0BDC0468F
:103A6000881300000000B4420000A0400000C842DB
:103A700030F800002AFC00000CFEFFFF0BFE0000E7
:103A80000000FA430000F543CDCC4C3FCDCC4C3E7A
:103A90000000A0410000C84100003442983A0000F4
:103AA000F0D8FFFF3333B33E000020419A99193F0D
:103AB0000AD7233CF0B58FB0DE4D0B90002800D123
:103AC0009BE22426A85D002800D196E2FB4F01204E
:103AD0000190FB480CF026FEFA480B994843C00CB5
:103AE000081A002180B202900391084604900398BE
:103AF00068610BE07C2008212954686E401C6866D0
:103B000038460CF00FFE601D2D2C79D20446A85DBE
:103B100000280AD047200CA9022203F0B3FD002898
:103B200006D07C200021295408E07C20082101E0F7
:103B30007C2009212954686E401C686638460CF0C8
:103B4000F1FDA85D00280AD047200CA9022203F04D
:103B500099FD002806D07C200021295408E07C2013
:103B6000082101E07C2009212954686E401C686608
:103B700038460CF0D7FDA85D00280AD047200CA9D4
:103B8000022203F07FFD002806D07C20002129546A
:103B900008E07C20082101E07C2009212954686E7E
:103BA000401C686638460CF0BDFDA85D00280AD0B0
:103BB00047200CA9022203F065FD002806D07C20D6
:103BC0000021295408E07C20082101E07C20092103
:103BD0002954686E401C686638460CF0A3FDA85D49
:103BE000002887D047200CA9022203F04BFD0028B3
:103BF00003D07C200021295482E77C2009217BE727
:103C0000B148411C0A910027089707973C46099044
:103C100009E0641C0A90A9480CF084FD7F1CB8B22E
:103C20000B9988422CD2A85D002820D047200DA9EE
:103C3000022203F027FD00281BD00D99C8BA09BA4B
:103C40007C220023AB54C917089A12180892079ACD
:103C50004A410792099909B28142024600DC0A46AC
:103C600009920A9909B28142D3DB0846D1E70820BC
:103C700000E009207C216854686E401C6866CAE731
:103C8000A2B202988242ED4F00D2A7E10024089828
:103C9000079923460CF062FC06902F6A3846079479
:103CA00021460BF029F80890069800B20BF038FF77
:103CB00039460AF003FC04460898002800D0079C07
:103CC000099800B20A9909B2081A0BF029FF39467F
:103CD0000AF0F4FB0746204607990BF003F8012190
:103CE0000091C90700280894079100D04C40204655
:103CF000D3490BF015F804463846D2490BF010F8BA
:103D0000411E8841002C019900D101460029CB4F6A
:103D100000D063E10898686100240A940EE008204E
:103D2000099C7C216854686E401C686638460CF01B
:103D3000F9FC601D0F2C044600D34BE1A85D002860
:103D4000099433D047200EA9022203F09BFC0028DF
:103D50002ED00E9805907C2000272F542C6A2046E8
:103D600039460AF0C9FF06900598C0BA0BF0D8FE94
:103D700021460AF0A3FB0699002900D0384608998D
:103D800009F06EF8044639460AF0ACFF002801D06D
:103D900007984440A94F2046AB490AF0C1FF0028CC
:103DA00000D01BE10A98401C0A9007E0082000E0C0
:103DB00009207C216854686E401C686638460CF007
:103DC000B1FCA85D002833D047200EA9022203F0E1
:103DD00059FC002830D00E9805907C2000272F54E5
:103DE0002C6A204639460AF087FF06900598C0BA2B
:103DF0000BF096FE21460AF061FB0699002900D0DF
:103E00003846089909F02CF8044639460AF06AFF4A
:103E1000002801D007984440884F20468A490AF07C
:103E20007FFF002800D0D9E00A98401C0A9009E0E2
:103E3000082002E0E008202009207C216854686EF8
:103E4000401C686638460CF06DFCA85D002833D035
:103E500047200EA9022203F015FC002836D00E9848
:103E600005907C2000272F542C6A204639460AF002
:103E700043FF06900598C0BA0BF052FE21460AF0A7
:103E80001DFB0699002900D03846089908F0E8FF84
:103E9000044639460AF026FF002801D0079844401E
:103EA000664F204668490AF03BFF002800D095E0A5
:103EB0000A98401C0A900FE0082008E000710200F8
:103EC0000024F400CDCC0000FF7F000009207C21FD
:103ED0006854686E401C686638460CF023FCA85D88
:103EE000002832D047200EA9022203F0CBFB002885
:103EF0002DD00E9805907C2000272F542C6A204648
:103F000039460AF0F9FE06900598C0BA0BF008FE93
:103F100021460AF0D3FA0699002900D038460899BC
:103F200008F09EFF044639460AF0DCFE002801D066
:103F300007984440414F204643490AF0F1FE0028CB
:103F40004CD10A98401C0A9007E0082000E00920A4
:103F50007C216854686E401C686638460CF0E2FBB1
:103F6000A85D002800D1DAE647200EA9022203F05E
:103F700089FB00282CD00E9805907C2000272F5418
:103F80002C6A204639460AF0B7FE06900598C0BA5A
:103F90000BF0C6FD21460AF091FA0699002900D0DF
:103FA0003846089908F05CFF044639460AF09AFE44
:103FB000002801D007984440204F204622490AF0AB
:103FC000AFFE00280AD10A98401C0A90099CADE671
:103FD0000920A5E60A9880B2112825D8049802285D
:103FE00007D0044619480CF09DFB601C022C00D23F
:103FF0007CE500206861252101E02521002068542E
:10400000262168540B23124900220A6011490A60D4
:1040100011490A7011490A7029216A54EA616A85B6
:104020007C216B540FB0F0BD25200099295400234A
:10403000EB84AB652B660198E5E7C0460071020092
:10404000000020410000A0400000404000A86100A6
:10405000F40E2020040B2020350F2020420F2020BA
:10406000F0B597B0099103901C99002B01D0002066
:1040700018800493002901D0002008800A9205913D
:10408000DC4801210C910170DB49F020085AF22133
:104090000B91F4210D912121C90012918521490034
:1040A00013914321890010910026FC210F91F821E2
:1040B0000E9141210191890011917D210291C90048
:1040C00008918842304671D8CB480B99415E00294F
:1040D00030466BD4C9488142304667DAC6480D99EC
:1040E00040580028304661D0C3491298085E1690A7
:1040F0001398085E15901098085A14900F980C5851
:104100000E980F581198085806900C9800020858FD
:104110000790002138460AF003FE0028304645D0BB
:104120007F20C505384629460AF0E6FD00283046BE
:104130003CD0002120460AF0F3FD0028304635D05F
:10414000204629460AF0D8FD002830462ED000210E
:1041500007980AF0DBFD0028304627D00024069897
:1041600021460AF0D3FD002830461FD016980028BB
:1041700030461BD4A14816998142304616DA15986C
:104180000028304612D4FC481599814230460DDA99
:1041900014980028304609D087204000F549085A75
:1041A0001499884201D2204600E00120F04C607052
:1041B0007F210998084060710BF082FEA071411EBA
:1041C00002468A412271002803D060790AF0B6FCC9
:1041D000064626810A9887B208998F4200D30F4677
:1041E000002800D50027E783E06B401C00D2E06385
:1041F000207800280AD06078002807D02622A35C07
:10420000032B0ED10021218408468CE10020608020
:10421000E06020616061A061A0832062A08417B08B
:10422000F0BD591E2079012910D8002800D18DE059
:104230000020E06220866080E06020616061A06113
:10424000A083606221462431087102E0002800D179
:1042500095E0607932216054A686019901400129D8
:1042600004D0084640290BD1012000E0FF2027217F
:104270006054282001212154A06B401C00D2A0636F
:10428000E07800284DD0E468BA490F980858159096
:104290000E980D5830460BF043FC214608F0E0FD27
:1042A0000146284609F0B8FF214608F0DEFD1690C9
:1042B000AF49C8601098AF49085A01210026039AF7
:1042C00090420B4600D9334687225200A94DAA5A84
:1042D000039DAA4200D231460B40A54EB370012B7C
:1042E000169D2DD12846214608F0BAFD04460398B4
:1042F0000BF060FE0146A2480AF0E0F8214609F002
:104300008BFF30617469214608F0AAFD01461598BB
:1043100009F082FF214608F0A8FD01467061954E24
:1043200083E030460BF0FCFB05460021E060216194
:1043300061610120E070A078002861D08D4E74E0AA
:1043400000213161716134468A4E60E0E06A039D6C
:1043500029180020A94200D2C143E1622546854EBA
:104360000D9C3459A14234D20B98315A0022012BB2
:10437000104600D00846012B7D4C28D1F2E00020E9
:104380006080A084E06020616061A061A08328213A
:10439000615C0029774D00D1D1E02721635CFF2BC0
:1043A00001D002210C910C99A1542086039EE66253
:1043B0000D996958B14200D8CCE00B98295A0022D7
:1043C000FF2B104600D00846FF2B00D1CAE0114653
:1043D000C8E06880A884E86028616861A861A88353
:1043E0000321A954654929860146049A2C4628844C
:1043F0009AE0C046A00B2020D0072020E90300004F
:1044000016955C4E1098305A87214900725A012344
:104410000021039DA842184600D90846039DAA42E0
:1044200000D20B461840A070169D01201690000285
:1044300034581198305809F0EFFE064620462946B8
:1044400009F0EAFE314608F010FD0546484885614E
:10445000129848490E5A284629460CF02DF8002893
:1044600000D082E0744220B20BF05AFB014628468D
:104470000AF042FC002819D130B20BF051FB014682
:1044800028460AF043FC002834460FD10021284674
:104490000AF03CFC002801D1BF2000E03F200106CB
:1044A000284608F0E2FC0BF0CFFB0446304884833A
:1044B00020B21590C0190299CA009042044600D358
:1044C0001446002100280D462A4B00D425466C1EB8
:1044D0002846A041139C1C5FA542169E00DB0E4699
:1044E00030402426224B98550028084600D1284603
:1044F0001F4D2884159BFD1A95422B4600D3134669
:10450000002D0A4600D41A46551E1346AB41A2425E
:1045100000DB1691169C23402524154D2B552C4667
:10452000002B00D11146049A6184002A00D010802B
:104530000599002901D0608C088017B0F0BD0021DA
:10454000E162E170252021540320A05401200002E3
:10455000208658E6E070252160540321A1540749C4
:1045600021860146049A2084DEE700249EE7C046A7
:10457000A00B2020D0072020E9030000010200004A
:1045800000007A44F0B59BB009900CF011F90C9042
:104590000CF012F908900CF01BF902900CF014F9D1
:1045A00003900CF0EDF804900CF02AF906900CF052
:1045B0002BF905900CF02CF907900CF0EDF807465C
:1045C0007A3000903846243001900CF025F90A909A
:1045D00048300B900CF0F4F8014677310F910D90B4
:1045E00044300E900CF0DCF806460446243410A843
:1045F0000BF00EFE094D099828600CF02DF828717B
:104600000BF098FF089A68710C98C088E8801068D1
:10461000072100280C9104D002E0C04600062020AB
:104620000178297210796872D08968819089A8818F
:10463000907CA8730BF0FEFFE873F8494878287463
:10464000C8886882C869686130882883B078A8768D
:104650007079E876B07928773089E883F068286245
:1046600070696862B069A862B08BA885308CE885F3
:10467000708C288620783221685460783321089124
:104680006854A07834216854E07835210991685441
:10469000207936216854F06AA863207B3C21685455
:1046A000607B3D216854A07B3E216854B08E402140
:1046B0006852B06B6864B869A8643869E86478695E
:1046C00028653888542168527868A865B868E86514
:1046D000F8692866386A6866009A10886821685206
:1046E000D0886A216852107A6C26A855386D2867E0
:1046F000786D686701990868A8674868E867F86A8C
:1047000080216850386B84216850786B882168500C
:10471000B86B8C216850F86B90216850386C9421EC
:104720006850786C98216850B86C9C216850F86C7F
:10473000A0216850F86EA4216850386FA8216850F5
:10474000786FAC216850B86DB0216850F86DB42115
:104750006850386EB8216850B86EBC216850029815
:104760000078C02168540BF071FFC12168540BF030
:10477000A9FFC221685403980078C3216854049AA1
:104780001068C42168509088C8216852A34F386AC5
:10479000CC216850B86BD0216850B88DD4216852B4
:1047A0004820385CD62168543B464C330FCBD82484
:1047B0002851DC202950E0202A50E4202B505C2096
:1047C000385AE82168525E20385CEA216854F88D36
:1047D000EC2168525F21785CEE22A8546020385C9E
:1047E000EF22A854786EBA6EF023E850F4202A50D5
:1047F000B85BF822A8521698FC22A85017980122FC
:104800001202A850189841229200A85006984068B9
:10481000059B5A6810185A6980182122D200A850A6
:10482000079C207843229200A8546278FF20034618
:104830000E33EA54A27887235B00EA54A26811235E
:104840001B01EA500A9E326845239B00EA507268B9
:104850002323DB00EA50F268B368092464012B517A
:104860002B195A60726933692524E4002B512B19E6
:104870005A60B26913231B01EA50F2694D239B0071
:10488000EA50326A2723DB00EA50726A4F239B000A
:10489000EA50B26A05239B01EA50F26A51239B0059
:1048A000EA50326B2923DB00EA500B9CA278532399
:1048B0009B00EA54E27803464E33EA542279A72358
:1048C0005B00EA54326D15231B01EA50F26B55234D
:1048D0009B00EA50326C2B23DB00EA50726C5723AA
:1048E0009B00EA5022780B235B01EA54627803466E
:1048F0006233EA540D9E3288B1235B00EA5272881B
:1049000059239B00EA523279B3235B00EA54B26820
:104910002D23DB00EA50F2685B239B00EA503269EA
:1049200017231B01EA50B28B5D239B00EA520E9CB9
:104930002289BB235B00EA52326A2F23DB00EA5054
:10494000326D89006A50716A0322D201A950716DDB
:1049500061229200A950B16A3122D200A950B16DF2
:1049600063229200A950F16A19221201A950F16D37
:1049700065229200A950316B089AD200A950316E7D
:1049800067229200A950716B0D225201A950716EDD
:1049900069229200A950B16B099AD200A950B16E58
:1049A0006B229200A950F16B1B221201A950F16EEB
:1049B0006D229200A950316C3722D200A950316F7C
:1049C0006F229200A95021880C9A9201A952218E3F
:1049D000E1225200A952E17871229200A9540F9B62
:1049E00019780246C632A9546179E3225200A954CB
:1049F00099780246C832A954A1793922D200A95423
:104A0000D9780246CA32A954E179E5225200A95464
:104A10001979CC3029541BB0F0BDC046E0092020E4
:104A2000F0B591B00BF0BCFE0546044626340BF001
:104A3000D7FE0B902620285C401EC0B2022803D867
:104A40008000F249085800E0F1480990607803902E
:104A5000E07A02900026304631460BF0C9FBED4863
:104A60000BF05CF90A956C7930253127E007284670
:104A700000D038460AF0D0FAA007284600D53846BC
:104A80000AF0CAFA6007284600D538460AF0C4FA88
:104A90002007284600D538460AF0BEFAE006284628
:104AA00000D538460AF0B8FAA006284600D53846A0
:104AB0000AF0B2FA600600D53D4628460AF0ACFA84
:104AC000022031460BF094FBE4480BF027F90998DB
:104AD0000BF024F9E2480BF021F908200A9C205E33
:104AE00006F06CF92F200AF097FAE5682846294667
:104AF0000BF0E2FC002813D1DA4EDB4928460AF01D
:104B00000FF900280CD1C720010628460AF0EAF860
:104B1000002801D0761C03E028460BF095F80646E5
:104B200030B206F04BF90420002529460BF060FB5B
:104B3000CE480BF0F3F81C20205E06F03FF9CC487D
:104B40000BF0ECF82020205E06F038F9C9480BF095
:104B5000E5F82220205E06F031F906200995294665
:104B60000BF046FBC4480BF0D9F80B984469C349D5
:104B700020460AF03BFF05467D20C10020460491F7
:104B80000AF034FF3C210AF031FF0791BC48019440
:104B9000844202D830200AF03FFA012709992846BA
:104BA00006970A917A1E0B920A2208920446099EE1
:104BB00033460BF0DDFC05460F46089A33460BF0F2
:104BC000C5FA201A302630430CA90B9A505405948C
:104BD0000A980A3C099A9041089635D30A22002483
:104BE0002846394623460BF0C3FC32430CA8069BEB
:104BF000C2540B9911291F46059E27D830466438A8
:104C00000A98A04122D36422002530460A9C2146FE
:104C10002B460BF0ADFC0A222B460BF0A9FC0898A2
:104C200002430CA8C019427030462146049A2B4614
:104C30000BF09EFCFF1C0B9A102A03D8914A921B82
:104C4000A541ADD37F1E02E0069F00E07F1C781EC9
:104C500003210B900AF0CAFE481C032812D0054617
:104C6000032812D00CA8841EE01940780AF0D4F969
:104C7000012D0CD0BE1EE05D0AF0CEF9AD1E374608
:104C8000F2D105E000250328ECD13E4600E07E1E6F
:104C90000B98022810D374420CA83018C51EA878AF
:104CA0000AF0BAF968780AF0B7F928780AF0B4F986
:104CB000E41CED1E002CF2D13A200AF0ADF9079D5C
:104CC000092D02D830200AF0A7F9002101200A900E
:104CD00005910B910A98401E09900A2628463246F3
:104CE000059C23460BF044FC0F46069032462346B3
:104CF0000BF02CFA281A089E30430CA9099A50543C
:104D000007950A3D0B98A04137D30A220024069844
:104D1000394623460BF02CFC0B9932430CA80A9B16
:104D2000C254099B112B079D29D828466438084690
:104D3000A04124D36422002728463B460BF018FCF0
:104D40000A223B460BF014FC32430CA80A9C0019C3
:104D5000427028460B99049A3B460BF009FC0B9BCA
:104D6000E41C0A94099A102A04D8464A521B9F410F
:104D70000546AED30A9D6D1E03E00A9D01E00A9D23
:104D80006D1C681E03210B900AF030FE481C03289E
:104D900012D00646032812D00CA8841E6019407851
:104DA0000AF03AF9012E0CD0AF1E605D0AF034F91A
:104DB000B61E3D46F2D105E000260328ECD12F4671
:104DC00000E06F1E0B98022810D37C420CA8381804
:104DD000C51EA8780AF020F968780AF01DF928782D
:104DE0000AF01AF9E41CED1E002CF2D102990229F6
:104DF00001D0264C00E0244C0398012900D1244C1A
:104E0000012809D05525FF2809D009E0900C0100A0
:104E1000CB100100300D01005225FF2800D14C2598
:104E2000642101980AF0E2FD0A210AF0DFFD0E4636
:104E30002E200AF0F1F80898064330460AF0ECF804
:104E400014480AF06BFF28460AF0E6F809480AF011
:104E500065FF20460AF062FF11B0F0BDE9100100C5
:104E60006B100100FF7F000000FEFF4619110100DA
:104E70005B10010033100100FE10010060EA000029
:104E8000BF270900E7030000650F01003111010091
:104E90002B1001009B100100F0B58FB00B930A920C
:104EA0000C460546476800263846314609F010FF93
:104EB00000280DD0AE60E8680121C9074140296192
:104EC0006E61AE61EE612E626E62AE62EE62FFE115
:104ED0000294159809902E462A360D95AC68002547
:104EE0002046294609F0F4FE00280C960E970894F7
:104EF00032D1069500263846314609F011FF079059
:104F00002046314609F00CFF411E224604468C41E2
:104F10004142414105911046314609F0E3FE054604
:104F2000401E85413846314609F0DCFE4142414190
:104F300007980028204603D169400598014008469B
:104F40000C99891C012800D0ACE0087800280E9F3D
:104F5000069D089C04D104E0B078002801D0B11C63
:104F60000D7000263846314609F0BCFE0121CD0700
:104F70000028069100D06F402046314609F0B2FE6D
:104F8000002801D1254600E06540D34C384629462B
:104F900009F0C6FE002801D1E83400E0E4340E9F99
:104FA0002068099909F038F90546089C20463946D9
:104FB00009F098FE00280AD02046294607F055FF40
:104FC0000546394609F0ACFE002810D010E0204616
:104FD000394609F0A5FE00280AD02046294607F0E8
:104FE0003FFF0546394609F07DFE002800D12F46D7
:104FF0000D9DAF60E9680E97384607F031FF044613
:105000002861314609F08CFE0746401E3946814131
:10501000079103942046314609F064FE411E044680
:105020008C41002800D0F043069B002F00D103469E
:10503000002B0C9F09D03878411E02468A41D9B214
:105040000E1A701E864116403B7014980190012084
:1050500005903E7100210E9D2846089109F060FEE2
:10506000411E88410490204200940DD00120F87028
:105070000A9E0D9D6E6268690021069009F050FE3F
:10508000002805982CD042E000262846314609F039
:1050900029FE002820D00798F8700028029E1DD015
:1050A0000A9E1BE001200E9108708B48E8214058B1
:1050B000099909F0B1F80146002D089800D1E1E006
:1050C00007F0D3FE07460025294609F029FE0028EF
:1050D0000D9C00D0E3E0E3E0FE70029E0D98466276
:1050E00000270E98394609F0FDFD34460646401E5D
:1050F0008641079806400D984069069039460C9FF6
:1051000009F0F0FD411E8841304026460D9D0A9071
:105110007871039C2046314609F07EF80290A86120
:10512000B8206D4F39580E9809F0C8F96B490E91A7
:1051300009F072F8019909F06FF801902862204691
:10514000099909F069F80A99002928D0E0217958CD
:1051500009F062F8069D294607F087FE0146002601
:1051600028460D46314609F0DBFD002805D0002118
:10517000284609F0B7FD002815D1002606983146CB
:1051800009F0B0FD07462846314609F0C9FD002860
:1051900000D12E46002F00D12E464F4F03E0069936
:1051A00007F063FE0646DC203F5801200990C10746
:1051B000794030460C4609F095FD054630463946A3
:1051C00009F0AEFD002800D13746002D00D13C4645
:1051D00020460B9D294609F01FF80746049900292F
:1051E00001D13F480890002900D10E910298019901
:1051F00007F03BFE0490394607F037FE06460E994D
:1052000009F08EFD411E884107990142059806D19B
:105210003046089909F066FD0028009804D00999E5
:1052200048400A99014303D00D98446104460AE0BE
:105230000698294608F0F0FF07460498394607F01B
:1052400014FE06460D9CE7613046089F394609F07A
:1052500049FD054630460E9909F062FD002800D14F
:105260000E96002D0C9D00D10E9F3846314609F058
:105270002FFD41424141697038460AF0E5FC06467F
:10528000208525E0002C37460D9C09D007F0E8FD6D
:1052900007460025294609F025FD002800D02F46A5
:1052A000A7600C98C67086806661A661E66126627A
:1052B0006662A662E168384607F0D2FD2061384692
:1052C000314609F005FD002802D000260E98067030
:1052D00030460FB0F0BDC046D007202000007A4411
:1052E00000007AC4F0B58BB006460AA809A90AF0F6
:1052F000D3F90790FA48A8214358FA4AD363AC215E
:1053000045581564B02144585464B421475C482181
:1053100004975754B521415C4920019111540696D8
:105320005663906B401C9063584200935841064668
:10533000871CED49029528460D4609F0DDFC002842
:1053400000D13E4600210298089109F0E9FC0028AE
:1053500000D13E463746361D2046294609F0CCFC92
:105360000028079D00D137462046089909F0D8FC4F
:105370000028394600D13146049EFF2E0846019F81
:1053800001D008200843012E00D00146FF2F084617
:1053900001D010200843012F00D0014603910121C4
:1053A00028460591084004D0D0490A684023134399
:1053B0000B6002210D4004D0CC490A6880231343BE
:1053C0000B600795CA4A0A9CFF2E01D0012E0BD113
:1053D00076B2002E04D5511C8C421346089D08D08D
:1053E000002E04D4234603E02346089D01E06342D7
:1053F000059D099CFF2F01D0012F09D17EB2002EFF
:1054000002D5511C8C4208D0002E03D4224602E063
:10541000224602E0624205990891B24C2360626024
:105420002E46002D049909D1FF2901D0012905D16B
:10543000AE490A6801231B0213430B600899002937
:10544000079D09D1FF2F01D0012F05D1A7490A6877
:1054500001235B0213430B606942694142424241AE
:1054600001200790C0073240089B19400891049220
:10547000012A33D12368DA17E168A468012B0CDB19
:10548000451E16466E40DF433F1B8E4105DA002164
:10549000C943944CA160E5601AE05D42064696411E
:1054A000651B0D46B54101DA002600E00126002B00
:1054B000059D00DA3546E3185141002D00D12B46F9
:1054C000002D884C00D10146E160A360002D05D17C
:1054D00086490A6801239B0213430B60089900293F
:1054E00033D06368DA1761692469012B0CDB451E30
:1054F00016466E40DF433F1B8E4105DA0020C04355
:10550000784C206165611AE05D4206469641651B54
:105510000D46B54101DA002600E00126002B059D6D
:1055200000DA3546E3185141002D00D12B46002DFD
:105530006C4C00D1014661612361002D05D16B489F
:1055400001680122D2020A4302601B20069E653ECA
:105550006321CF43BE4201D300210791039B184032
:10556000BE4201D220210B43002806D00025A562AF
:10557000E56225630598079054E003935D4902981E
:1055800008F04AFE044600980AF014FD0146204641
:10559000544C08F093FF0546A068E16809F032FF1B
:1055A0000146284608F038FEA0622069616909F0CA
:1055B00029FF0146284608F02FFEE062A06AE16A52
:1055C00007F053FC3F21090608F026FE2063BE4287
:1055D00027D301200499414023D120680AF0A0FA82
:1055E0000146284608F018FE434908F015FE2646F5
:1055F000044606980AF0DEFC0146204608F05EFFED
:10560000B061B069346A3D490A78002A60D0214609
:1056100007F026FC3A4908F0FFFD214607F025FC7B
:1056200058E0039B0020A06107980126002827D19D
:105630000898704024D11F4660680AF071FA01464C
:10564000284608F0E9FD2C4908F0E6FD2546044609
:1056500006980AF0AFFC0146204608F02FFFE861EB
:10566000E8696C6A27490A78002A0CD0214607F0BD
:10567000F7FB234908F0D0FD214607F0F6FB04E0D4
:105680000020E06104E0059A0A703B46154C606218
:10569000069A3D3A3B20C14300208A4200D3064689
:1056A0004B216654114A12681A432265226D3F232A
:1056B0009B0113405A1E93414C22A354226D002A91
:1056C00002D1615C484248414A2160540BB0F0BDB0
:1056D000059A0A70034C20620020039BA5E7C04690
:1056E000D0072020080B20200000C842E00E202018
:1056F000FFFFFF7FDB0F494000007A44360F202078
:105700003333B33E400F2020F0B597B0F84E392325
:105710000F93F35C002B01D017B0F0BD70603468BC
:10572000231A01250E95ED0784420D9501D7DB174D
:105730006B40B3603525735D002BEDD0B368DC178B
:1057400063401F1B3424335D002B15D00797E94BB2
:105750001B68934269D007F0C7FF0020308670862F
:10576000305570553621705437217054382004213B
:1057700031540F980E9913E1092FCDD307970C954B
:105780000A9101250B943555362100247454382193
:10579000755410A90890084617460AF06BFC089843
:1057A000D5490860D54908601099119AD44B06C3B1
:1057B000D44B06C3CF490F60B4613168081A02D7D1
:1057C000C117E8074840C1174840401A1921CA01CB
:1057D000214623460AF0BAFCCB4A801861410A05EB
:1057E000000B8018090B7D22D20023460AF0AEFC84
:1057F000C7306141C82223460AF0BAFE032223467D
:105800000AF0A4FCC14A90420C9D00D31046002926
:105810000A9900D01046BE4A8018F0613462746262
:10582000B462F462F46008980B9C0C95B3695A1842
:1058300000259A4200D2EA43B2613727F25D002A7E
:1058400013D1B269F3699A420FD907F04DFF0020D6
:105850003086708630550C99705436217054F0554E
:1058600038200421315402203FE009970B940A911B
:1058700010A9044608460AF0FDFB2046119B109F24
:10588000A04A06CA0497791A069105931F469741C4
:105890009A49096802918C4211D10021FB173D46BB
:1058A0005D40069A5A40D21A9D41F36ADB439B1A27
:1058B0000B46AB4101D2CD4301E0F16A8D1803974D
:1058C000F562F16A2029099D13D307F00DFF00202E
:1058D000308670860B9970540C9970543621705430
:1058E000705538200421315403200F99705417B09B
:1058F000F0BDC0170190824801684068049A521AAE
:1059000005998141100D0903091810031922D201CC
:10591000002500922B460AF021FE774A1268D31721
:105920000894121B019CA34114184B41E8430D99A4
:10593000091B014699410E9A00DB2A46002A1946A6
:1059400000D10146002A204600D10D98714A174621
:10595000821AA94100DB3846F060D8174340444022
:10596000211A83414139AB410B9C05D3706A0A99D6
:10597000451801D30020C5437562706AC82812D348
:1059800007F0B2FE00203086708630550C997054B6
:1059900036217054099970543820042131540F98DD
:1059A000315417B0F0BD029808990B1A00210698DF
:1059B000401E039888410C9D01DB002B04D4039802
:1059C000002807D5012B05DBB06A0A99411801D3DD
:1059D0000020C143B162B06A64280FD307F084FE8F
:1059E00000203086708630557055362170540999E4
:1059F0007054382004213154052076E70498414939
:105A00000860059848603D48089901600798042897
:105A100018D807F069FE00213186718638200222ED
:105A20003254326A0A9BD21800D3CA433262326AB5
:105A3000642A0B9A00D26FE6B154362101227254C7
:105A40000321ADE700203062382101227254B3688F
:105A5000D9174B40591AA4290B4600D3A423243349
:105A60000529044600D31C460F940E92052905D340
:105A700099B24808284A801809F0B8FF0446B76868
:105A8000F91700253846009A2B460AF05FFB012FD4
:105A900005DB0122D2028018694123460AE00E9AF2
:105AA000D202801AA941002F00D13846002F234688
:105AB00000D139460F9CCA17120D80186941000B9E
:105AC00009054018012F01DB0E9D00E0ED43002881
:105AD00000D00546002F00D105463486738698B263
