:10000000008020204B3101007301010073010100C9
:1000100000000000000000000000000000000000E0
:10002000000000000000000000000000730101005B
:1000300000000000000000007301010031FE00001C
:1000400073010100B12A0100730101008D2001003C
:1000500073010100730101007301010073010100CC
:1000600000000000730101007301010000000000A6
:10007000000000007301010071150100730101000F
:10008000730101007301010073010100730101009C
:100090007301010073010100000000000000000076
:1000A0007301010073010100000000000000000066
:1000B00073010100000000007301010073010100E1
:1000C000F0B5C1B018AF08AD36AC204612F054FC04
:1000D0002FA812F01DF8384611F068FD284612F0DE
:1000E00005FB207DE17C002901D0C14E00E0C14E1E
:1000F0004937002800D0C04E3879002801970FD02A
:100100000020014612F0F4FCBC4812F075FAB87AEF
:10011000401EC0B2022818D88000B949085815E01E
:10012000B879002800D198E00020014612F0E0FCE8
:10013000B44812F061FA387B401EC0B2022800D9E0
:10014000CFE08000B0490858CCE0B04812F054FA33
:10015000AF4812F051FA387B401EC0B2022803D8D3
:100160008000A949085800E0AA48002412F044FA87
:1001700002200294214612F0BBFCA74812F03CFA80
:100180003878002865D0199C002C03D52D2011F05B
:100190008DFB6442A149204612F07AF808460125F9
:1001A0000299059506916A1E07920A220492074653
:1001B000029E334612F06AFE04460D46049A334608
:1001C00012F034FC381A302318433CA9079A5054D3
:1001D000049706990A3F0846B0415DD30A220E46AD
:1001E0000027204629461C463B4612F04FFE234678
:1001F00022433CA8059C0255079911292546049ADB
:100200004CD8104664383046B84147D3174664226C
:100210000024384631460393234612F037FE0A2263
:10022000234612F033FE039802433CA84019427063
:100230007D20C20038463146234612F027FEED1CD1
:10024000079A102A03D8764AD21BB441A9D36D1E4F
:1002500025E0704812F0D0F904E1383568790028BB
:1002600000D175E200242046214612F041FC6D4881
:1002700012F0C2F902200494214612F039FC6148C0
:1002800012F0BAF96879401EC0B2042800D9B1E270
:10029000800065490858AEE2059D00E06D1C2F46C0
:1002A000681E0321079011F0F3FF481C032813D0A8
:1002B0000446032813D03CA8861EF019407811F09C
:1002C000F5FA012C00D1B7E0BD1EF05D11F0EEFA99
:1002D000A41E2F46F1D1B0E000240328EBD13D4607
:1002E000ABE04C48002412F087F9504812F084F932
:1002F000304612F081F90220214612F0F9FB4C48F9
:1003000012F07AF904200294214612F0F1FB4948D8
:1003100012F072F97878002800D115E21A9C002CAE
:1003200003D52D2011F0C2FA64423C49204611F059
:10033000AFFF0D460126029905910696701E0790A3
:100340000A2204922846029F3B4612F09FFD044673
:100350000E46049A3B4612F069FB281A30231843D4
:100360003CA9079A505404950A3D05980546B841A2
:1003700000D203E20A220027204631461C463B46B3
:1003800012F084FD234622433CA8069C025507999F
:1003900011292646049A00D9F2E11046643828460D
:1003A000B84100D2ECE117466422002438462946C1
:1003B0000393234612F06AFD0A22234612F066FDDB
:1003C000039802433CA8801942707D20C200384641
:1003D0002946234612F05AFDF61C079A102A04D823
:1003E0000F4AD21BAC410546A6D3761EC9E1C046D2
:1003F00048380100BF3901007B3901002E39010066
:10040000DC350100E43A0100D0350100D9380100A3
:10041000473A0100C93A01003E38010040420F004E
:10042000E703000088350100A03401008B3601008D
:10043000583501008A3A01007D1E0798022810D322
:100440006C423CA82818C51EA87811F02FFA6878CD
:1004500011F02CFA287811F029FAE41CED1E002C7A
:10046000F2D1019F04200021029112F041FBD648F5
:1004700012F0C2F87878002865D01A9C002C03D5B9
:100480002D2011F013FA6442D049204611F000FFEC
:10049000084601250299059506916A1E07920A22CF
:1004A00004920746029E334612F0F0FC04460D46C5
:1004B000049A334612F0BAFA381A302318433CA98A
:1004C000079A5054049706990A3F0846B0413ED314
:1004D0000A220E460027204629461C463B4612F0BB
:1004E000D5FC234622433CA8059C025507991129B7
:1004F0002546049A2DD8104664383046B84128D392
:10050000174664220024384631460393234612F0EE
:10051000BDFC0A22234612F0B9FC039802433CA812
:10052000401942707D20C20038463146234612F001
:10053000ADFCED1C079A102A03D8A54AD21BB44182
:10054000A9D36D1E06E0A34812F056F839E0059DC8
:1005500000E06D1C2F46681E0321079011F098FEE5
:10056000481C032812D00446032812D03CA8861E3B
:10057000F019407811F09AF9012C0CD0BD1EF05DF5
:1005800011F094F9A41E2F46F2D105E000240328AF
:10059000ECD13D4600E07D1E0798022810D36C4246
:1005A0003CA82818C51EA87811F080F9687811F0C9
:1005B0007DF9287811F07AF9E41CED1E002CF2D1B7
:1005C000019F854812F018F8B878002866D01B9C67
:1005D000002C03D52D2011F069F964427B49204697
:1005E00011F056FE0846002101250291059506915D
:1005F0006A1E07920A2204920746029E334612F0B0
:1006000045FC04460D46049A334612F00FFA381A98
:10061000302318433CA9079A5054049706990A3F7F
:100620000846B0413ED30A220E46002720462946FE
:100630001C463B4612F02AFC234622433CA8059C5C
:100640000255079911292546049A2DD81046643879
:100650003046B84128D31746642200243846314634
:100660000393234612F012FC0A22234612F00EFCDA
:10067000039802433CA8401942707D20C2003846CE
:100680003146234612F002FCED1C079A102A03D8CB
:100690004F4AD21BB441A9D36D1E06E04D4811F05C
:1006A000ABFF39E0059D00E06D1C2F46681E03215D
:1006B000079011F0EDFD481C032812D004460328D2
:1006C00012D03CA8861EF019407811F0EFF8012CEA
:1006D0000CD0BD1EF05D11F0E9F8A41E2F46F2D13A
:1006E00005E000240328ECD13D4600E07D1E07987C
:1006F000022810D36C423CA82818C51EA87811F017
:10070000D5F8687811F0D2F8287811F0CFF8E41C09
:10071000ED1E002CF2D1019F0620002112F0E8F915
:10072000F87A032804D0022805D12C4800F0AEFF47
:100730002B4800F0ABFFB87A032802D0294800F01C
:10074000A5FF294800F0A2FF224811F055FFD3E091
:10075000787A002800D124E300200190014612F0AD
:10076000C7F9224811F048FFF87B401EC0B20228AA
:1007700000D92BE380001E49085828E3069E00E0BC
:10078000761C701E0321079011F082FD481C03287F
:1007900014D00446032814D03CA83746861EF0190E
:1007A000407811F083F8012C00D18FE0BD1EF05D80
:1007B00011F07CF8A41E2F46F1D188E00024032814
:1007C000EAD1354683E0C0468A3A010040420F0034
:1007D000E7030000C93A0100973901000335010021
:1007E00025350100A535010014350100CF38010081
:1007F000C4350100F94811F0FFFEF94811F0FCFE84
:10080000099C002C03D52D2011F050F86442F549C5
:10081000204611F03DFD08460125049903950591F8
:100820006A1E06920A2207920646049C234612F08C
:100830002DFB07460D46079A234612F0F7F8301AAB
:10084000302420433CA9069A5054029605980A3E4B
:10085000049A9041079400D20CE10A2200263846FF
:100860002946334612F012FB22433CA8039BC25494
:10087000069911291D46029C00D9FDE020466438E6
:100880000598B04100D2F7E0642200272046059E7B
:1008900031463B4612F0FAFA0A223B4612F0F6FACB
:1008A000079802433CA8401942707D20C2002046B0
:1008B00031463B4612F0EAFAED1C069A102A03D89C
:1008C000C94A121BB741A9D36D1ED6E07D1E0798F9
:1008D000022810D36C423CA82818C51EA87810F036
:1008E000E5FF687810F0E2FF287810F0DFFFE41CE5
:1008F000ED1E002CF2D1019FBC4811F07DFEB878AE
:10090000002866D01B9C002C03D52D2010F0CEFFB4
:100910006442B449204611F0BBFC08460021012581
:100920000291059506916A1E07920A2204920746D3
:10093000029E334612F0AAFA04460D46049A334644
:1009400012F074F8381A302318433CA9079A50540F
:10095000049706990A3F0846B0413ED30A220E4644
:100960000027204629461C463B4612F08FFA2346B4
:1009700022433CA8059C0255079911292546049A53
:100980002DD8104664383046B84128D31746642223
:100990000024384631460393234612F077FA0A22A0
:1009A000234612F073FA039802433CA840194270A0
:1009B0007D20C20038463146234612F067FAED1C0E
:1009C000079A102A03D8884AD21BB441A9D36D1EB6
:1009D00006E0874811F010FE39E0059D00E06D1C2F
:1009E0002F46681E0321079011F052FC481C032873
:1009F00012D00446032812D03CA8861EF019407875
:100A000010F054FF012C0CD0BD1EF05D10F04EFF15
:100A1000A41E2F46F2D105E000240328ECD13D4668
:100A200000E07D1E0798022810D36C423CA82818CD
:100A3000C51EA87810F03AFF687810F037FF2878C4
:100A400010F034FFE41CED1E002CF2D1019F0620B3
:100A5000002112F04DF8F879002802D0654800F026
:100A600015FE7879002802D0634800F00FFE634835
:100A700000F00CFE039D00E06D1C2E46681E032155
:100A8000069011F005FC481C032803D005460328F6
:100A900003D114E00025032811D03CA8841E37465A
:100AA000E019407810F002FF012D07D0BE1EE05D76
:100AB00010F0FCFEAD1E3746F2D100E07E1E069817
:100AC000022810D374423CA83018C51EA87810F034
:100AD000EDFE687810F0EAFE287810F0E7FEE41CDE
:100AE000ED1E002CF2D104200021049112F000F838
:100AF000434811F081FD0A9C002C03D52D2010F0F5
:100B0000D5FE64423749204611F0C2FB0846012554
:100B10000499039505916A1E06920A2202920646DE
:100B2000049C234612F0B2F907460D46029A23466A
:100B300011F07CFF301A079C20433CA9069A5054C0
:100B4000029605980A3E049A904136D30A2200265E
:100B500038462946334612F099F922433CA8039BB4
:100B6000C254069911291D46029C28D82046643893
:100B70000598B04123D3642200272046059E3146C4
:100B80003B4612F083F90A223B4612F07FF90798A0
:100B900002433CA8401942707D20C20020463146E5
:100BA0003B4612F073F9ED1C069A102A03D80E4A40
:100BB000121BB741ADD36D1E02E0039D00E06D1C1A
:100BC0002E46681E0321069011F062FB481C032884
:100BD00018D00546032818D129E0C0463339010052
:100BE000233A010040420F00E7030000973901005B
:100BF000C93A0100F0340100F4350100B3350100B9
:100C0000CC3A01000025032811D03CA8841E3746A9
:100C1000E019407810F04AFE012D07D0BE1EE05DBD
:100C200010F044FEAD1E3746F2D100E07E1E06985D
:100C3000022810D374423CA83018C51EA87810F0C2
:100C400035FE687810F032FE287810F02FFEE41C94
:100C5000ED1E002CF2D1EE4811F0CEFC0B9C002CC6
:100C600003D52D2010F022FE6442EA49204611F0FF
:100C70000FFB0846002101250491039505916A1E8A
:100C800006920A2202920646049C234612F0FEF8BF
:100C900007460D46029A234611F0C8FE301A079CFB
:100CA00020433CA9069A5054029605980A3E049A9D
:100CB000904136D30A22002638462946334612F0A0
:100CC000E5F822433CA8039BC254069911291D460E
:100CD000029C28D8204664380598B04123D364226A
:100CE00000272046059E31463B4612F0CFF80A22E7
:100CF0003B4612F0CBF8079802433CA840194270DB
:100D00007D20C200204631463B4612F0BFF8ED1C64
:100D1000069A102A03D8C04A121BB741ADD36D1EE4
:100D200002E0039D00E06D1C2E46681E0321079023
:100D300011F0AEFA481C032803D00546032803D15E
:100D400014E00025032811D03CA8841E3746E01982
:100D5000407810F0ABFD012D07D0BE1EE05D10F015
:100D6000A5FDAD1E3746F2D100E07E1E0798022891
:100D700010D374423CA83018C51EA87810F096FD18
:100D8000687810F093FD287810F090FDE41CED1EBB
:100D9000002CF2D10620002111F0AAFE9F4800F09D
:100DA00075FC387A002800D1D9E30020014611F003
:100DB0009FFE9B4811F020FC787B401EC0B20428A7
:100DC00000D9DFE3800097490858DCE3964811F02A
:100DD00013FC964811F010FC239D01240199059104
:100DE000601E06900A2207922846019E334612F0A2
:100DF0004DF807460391079A334611F017FE281A5B
:100E00002246302420433CA9069B585404950A3DB1
:100E100005980546B041079436D302920A2200266F
:100E200038460399334612F031F822433CA8029C1D
:100E3000025506991129049828D80246643A2A4690
:100E4000B24123D364220027294606463B4612F0CE
:100E50001DF80A223B4612F019F8079802433CA8F5
:100E6000001942707D20C200304629463B4612F0F0
:100E70000DF8E41C069A102A04D8674A921BAF4169
:100E80000546ACD3641E02E0144600E0641C26460E
:100E9000601E0321069011F0FBF9481C032801D0C5
:100EA000054600E00025032811D03CA8841E3746E3
:100EB000E019407810F0FAFC012D07D0BE1EE05D6D
:100EC00010F0F4FCAD1E3746F2D100E07E1E06980D
:100ED000022810D374423CA83018C51EA87810F020
:100EE000E5FC687810F0E2FC287810F0DFFCE41CE8
:100EF000ED1E002CF2D102200021049111F0F8FD2A
:100F00004B4811F079FB199C002C03D52D2010F0D3
:100F1000CDFC64423F49204611F0BAF9084601254C
:100F20000499039505916A1E06920A2202920646CA
:100F3000049C234611F0AAFF07460D46029A234659
:100F400011F074FD301A079C20433CA9069A5054B6
:100F5000029605980A3E049A904136D30A2200264A
:100F600038462946334611F091FF22433CA8039BA3
:100F7000C254069911291D46029C28D8204664387F
:100F80000598B04123D3642200272046059E3146B0
:100F90003B4611F07BFF0A223B4611F077FF079892
:100FA00002433CA8401942707D20C20020463146D1
:100FB0003B4611F06BFFED1C069A102A03D8164A27
:100FC000121BB741ADD36D1E02E0039D00E06D1C06
:100FD0002E46681E0321069011F05AF9481C03287A
:100FE00001D0054600E00025032824D03CA8841E3B
:100FF0003746E019407810F059FC012D1AD0BE1E7A
:10100000E05D10F053FCAD1E3746F2D113E0C04650
:101010007538010040420F00E7030000523601001E
:1010200036370100B4340100D9380100073A010015
:10103000D23A01007E1E0698022810D374423CA8C2
:101040003018C51EA87810F031FC687810F02EFC1E
:10105000287810F02BFCE41CED1E002CF2D1E348A4
:1010600011F0CAFA289C002C03D52D2010F01EFC8C
:101070006442DF49204611F00BF9084600210125A2
:101080000491039505916A1E06920A220292064671
:10109000049C234611F0FAFE07460D46029A2346A9
:1010A00011F0C4FC301A079C20433CA9069A505406
:1010B000029605980A3E049A904136D30A220026E9
:1010C00038462946334611F0E1FE22433CA8039BF3
:1010D000C254069911291D46029C28D8204664381E
:1010E0000598B04123D3642200272046059E31464F
:1010F0003B4611F0CBFE0A223B4611F0C7FE079893
:1011000002433CA8401942707D20C200204631466F
:101110003B4611F0BBFEED1C069A102A03D8B54AD7
:10112000121BB741ADD36D1E02E0039D00E06D1CA4
:101130002E46681E0321069011F0AAF8481C0328C9
:1011400001D0054600E00025032811D03CA8841EEC
:101150003746E019407810F0A9FB012D07D0BE1EDC
:10116000E05D10F0A3FBAD1E3746F2D100E07E1E1D
:101170000698022810D374423CA83018C51EA878DF
:1011800010F094FB687810F091FB287810F08EFB3B
:10119000E41CED1E002CF2D104200021049111F07A
:1011A000A7FC954811F028FA0A9C002C03D52D20A5
:1011B00010F07CFB64428E49204611F069F8084625
:1011C00001250499039505916A1E06920A2202924E
:1011D0000646049C234611F059FE07460D46029A26
:1011E000234611F023FC301A079C20433CA9069AA1
:1011F0005054029605980A3E049A904136D30A222A
:10120000002638462946334611F040FE22433CA8CA
:10121000039BC254069911291D46029C28D82046DA
:1012200064380598B04123D3642200272046059EE8
:1012300031463B4611F02AFE0A223B4611F026FEBB
:10124000079802433CA8401942707D20C200204606
:1012500031463B4611F01AFEED1C069A102A03D8BF
:10126000644A121BB741ADD36D1E02E0039D00E03E
:101270006D1C2E46681E0321069011F009F8481CCB
:10128000032801D0054600E00025032811D03CA822
:10129000841E3746E019407810F008FB012D07D076
:1012A000BE1EE05D10F002FBAD1E3746F2D100E03D
:1012B0007E1E0698022810D374423CA83018C51E22
:1012C000A87810F0F3FA687810F0F0FA287810F0A7
:1012D000EDFAE41CED1E002CF2D1484811F08CF917
:1012E000299C002C03D52D2010F0E0FA64424049DF
:1012F000204610F0CDFF08460021012504910395FA
:1013000005916A1E06920A2202920646049C234612
:1013100011F0BCFD07460D46029A234611F086FBEC
:10132000301A079C20433CA9069A5054029605980F
:101330000A3E049A904136D30A22002638462946AE
:10134000334611F0A3FD22433CA8039BC2540699E7
:1013500011291D46029C28D8204664380598B041C2
:1013600023D3642200272046059E31463B4611F0D8
:101370008DFD0A223B4611F089FD079802433CA8E7
:10138000401942707D20C200204631463B4611F094
:101390007DFDED1C069A102A03D8F64A121BB741B0
:1013A000ADD36D1E02E0039D00E06D1C2E46681E4D
:1013B0000321069010F06CFF481C032801D005465D
:1013C00000E0002503281CD03CA8841E3746E01905
:1013D000407810F06BFA012D12D0BE1EE05D10F0C7
:1013E00065FAAD1E3746F2D10BE0C046633A010004
:1013F00040420F00E7030000CC3A01002F3A010001
:101400007E1E0698022810D374423CA83018C51ED0
:10141000A87810F04BFA687810F048FA287810F0A5
:1014200045FAE41CED1E002CF2D1062000242146D2
:1014300011F05EFBDA4811F0DFF808A8008E0125F4
:1014400004942146039505916A1E06920A2202928F
:101450000646049C234611F019FD07460D46029AE4
:10146000234611F0E3FA301A079C20433CA9069A60
:101470005054029605980A3E049A904136D30A22A7
:10148000002638462946334611F000FD22433CA889
:10149000039BC254069911291D46029C28D8204658
:1014A00064380598B04123D3642200272046059E66
:1014B00031463B4611F0EAFC0A223B4611F0E6FCBD
:1014C000079802433CA8401942707D20C200204684
:1014D00031463B4611F0DAFCED1C069A102A03D87F
:1014E000A44A121BB741ADD36D1E02E0039D00E07C
:1014F0006D1C2E46681E0321079010F0C9FE481C83
:10150000032801D0054600E00025032811D03CA89F
:10151000841E3746E019407810F0C8F9012D07D035
:10152000BE1EE05D10F0C2F9AD1E3746F2D100E0FC
:101530007E1E0798022800D2A7E074423CA830180B
:10154000C51EA87810F0B2F9687810F0AFF92878C5
:1015500010F0ACF9E41CED1E002CF2D195E02C78D3
:101560000020014611F0C4FA002C4ED0904811F032
:1015700043F82879401EC0B2032852D880008D4914
:1015800008584FE0784811F037F8202010F08EF915
:10159000304611F031F802200024214611F0A8FA5B
:1015A000754811F029F81998C1170BF035FC7B48E4
:1015B00011F022F82498C1170BF02EFC04202146CC
:1015C00011F096FA6D4811F017F81C98C1170BF03E
:1015D00023FC6B4811F010F81D98C1170BF01CFC90
:1015E0000620214611F084FA694811F005F80A989E
:1015F000C1170BF011FC6C4810F0FEFF08A8008E1C
:1016000021460CF00DF9694840E05E4810F0F4FF07
:10161000387B401EC0B202283CD88000544908588C
:1016200039E0514810F0E8FF02200024214611F073
:101630005FFA594810F0E0FF0998C1170BF0ECFB76
:10164000564810F0D9FF0898C1170BF0E5FB0420AD
:10165000214611F04DFA4E4810F0CEFF0A98C117FE
:101660000BF0DAFB4B4810F0C7FF0B98C1170BF0DB
:10167000D3FB0620214611F03BFA494810F0BCFF8D
:1016800008A8008E21460CF0CBF8464810F0B4FFB5
:1016900041B0F0BD354810F0AFFF3C4810F0ACFF52
:1016A000387819990BF008FB202010F0FFF830462D
:1016B00010F0A2FF02200025294611F019FA3E4839
:1016C00010F09AFF2F98C1170BF0A6FB3B4810F0C3
:1016D00093FF379936980BF09FFB0420294611F0B1
:1016E00007FA264810F088FF78781A990BF0E4FA88
:1016F000234810F081FFB8781B990BF0DDFA062023
:10170000294611F0F5F9787B04280DD005280DD174
:101710002C4810F071FFB87B401EC0B2062818D8C4
:1017200080002949085815E02548AFE7F97B28488B
:101730000329ABD1397C0629A8D0264810F05CFFDC
:10174000387C401EC0B2062808D880001E490858C0
:1017500005E00D4810F050FF1C4897E70A4810F0CC
:101760004BFF1D4892E7C046D9380100C93A010035
:10177000D0350100E70300003E3801008A3A01003D
:1017800097390100E43A010033390100233A01009E
:10179000CC3A010075380100D23A0100633A0100E9
:1017A000B43A0100E7360100C3390100C436010034
:1017B00070360100383501004C3901009B390100B9
:1017C000683501004E3701003834010082360100CF
:1017D00078350100EE360100BC360100F0B58DB061
:1017E000002611F061FC04463046314611F080F9C4
:1017F000D64810F001FF0194E06A012504963146B5
:10180000039505916A1E06920A2207920746049DD7
:101810002B4611F03BFB04460E46079A2B4611F06F
:1018200005F9381A3025284308A9069A505402971A
:1018300005980A3F049A9041079536D30A2200275B
:10184000204631463B4611F021FB2A4308A8039B62
:10185000C254069911291D46029E28D83046643884
:101860000598B84123D3642200243046059F3946A9
:10187000234611F00BFB0A22234611F007FB0798C1
:10188000024308A8401942707D20C2003046394604
:10189000234611F0FBFAED1C069A102A03D8AC4A35
:1018A000921BBC41ACD36D1E02E0039D00E06D1C99
:1018B000681E0321069010F0EBFC481C032803D09F
:1018C0000446032803D114E00024032811D008A8FB
:1018D0002F46861EF01940780FF0E8FF012C07D044
:1018E000BD1EF05D0FF0E2FFA41E2F46F2D100E016
:1018F0007D1E0698022810D36C4208A82818C51E21
:10190000A8780FF0D3FF68780FF0D0FF28780FF099
:10191000CDFFE41CED1E002CF2D18E4810F06CFEC1
:101920000198006B002101250491039505916A1E21
:1019300006920A2202920746049D2B4611F0A6FA4F
:1019400004460E46029A2B4611F070F8381A079D8D
:10195000284308A9069A5054029705980A3F049A0A
:10196000904136D30A220027204631463B4611F0EB
:101970008DFA2A4308A8039BC254069911291D46D3
:10198000029E28D8304664380598B84123D3642293
:1019900000243046059F3946234611F077FA0A2283
:1019A000234611F073FA0798024308A840194270C1
:1019B0007D20C20030463946234611F067FAED1CFF
:1019C000069A102A03D8624A921BBC41ADD36D1E01
:1019D00002E0039D00E06D1C681E0321069010F0DC
:1019E00057FC481C032803D00446032803D114E005
:1019F0000024032811D008A82F46861EF01940782D
:101A00000FF054FF012C07D0BD1EF05D0FF04EFF0C
:101A1000A41E2F46F2D100E07D1E0698022810D3A6
:101A20006C4208A82818C51EA8780FF03FFF6878F8
:101A30000FF03CFF28780FF039FFE41CED1E002C5E
:101A4000F2D102200024214611F052F8424810F051
:101A5000D3FD0198406B012504942146039505911F
:101A60006A1E06920A2202920746049D2B4611F036
:101A70000DFA04460E46029A2B4610F0D7FF381A8C
:101A8000079D284308A9069A5054029705980A3FD3
:101A9000049A904136D30A220027204631463B461D
:101AA00011F0F4F92A4308A8039BC254069911299E
:101AB0001D46029E28D8304664380598B84123D385
:101AC000642200243046059F3946234611F0DEF992
:101AD0000A22234611F0DAF90798024308A84019B0
:101AE00042707D20C20030463946234611F0CEF9BF
:101AF000ED1C069A102A03D8154A921BBC41ADD39F
:101B00006D1E02E0039D00E06D1C681E032106901F
:101B100010F0BEFB481C032803D00446032803D161
:101B20001DE0002403281AD008A82F46861EF019AD
:101B300040780FF0BBFE012C10D0BD1EF05D0FF001
:101B4000B5FEA41E2F46F2D109E0C046993A010025
:101B5000E7030000603901004F3A01007D1E06983E
:101B6000022810D36C4208A82818C51EA8780FF0C8
:101B70009DFE68780FF09AFE28780FF097FEE41C1F
:101B8000ED1E002CF2D1D64810F036FD0198806B86
:101B9000002101250491039505916A1E06920A22EF
:101BA00002920746049D2B4611F070F904460E463A
:101BB000029A2B4610F03AFF381A079D284308A9CD
:101BC000069A5054029705980A3F049A904136D3DA
:101BD0000A220027204631463B4611F057F92A4396
:101BE00008A8039BC254069911291D46029E28D8B5
:101BF000304664380598B84123D364220024304627
:101C0000059F3946234611F041F90A22234611F077
:101C10003DF90798024308A8401942707D20C20090
:101C200030463946234611F031F9ED1C069A102A48
:101C300003D8AC4A921BBC41ADD36D1E02E0039D9C
:101C400000E06D1C681E0321069010F021FB481C6B
:101C5000032803D00446032803D114E000240328FA
:101C600011D008A82F46861EF01940780FF01EFEEE
:101C7000012C07D0BD1EF05D0FF018FEA41E2F46EC
:101C8000F2D100E07D1E0698022810D36C4208A80D
:101C90002818C51EA8780FF009FE68780FF006FE18
:101CA00028780FF003FEE41CED1E002CF2D1042076
:101CB0000024214610F01CFF8B4810F09DFC019879
:101CC000C06B012504942146039505916A1E069276
:101CD0000A2202920746049D2B4611F0D7F80446CB
:101CE0000E46029A2B4610F0A1FE381A079D284393
:101CF00008A9069A5054029705980A3F049A904101
:101D000036D30A220027204631463B4611F0BEF862
:101D10002A4308A8039BC254069911291D46029E16
:101D200028D8304664380598B84123D3642200246B
:101D30003046059F3946234611F0A8F80A2223466B
:101D400011F0A4F80798024308A8401942707D20BA
:101D5000C20030463946234611F098F8ED1C069A29
:101D6000102A03D85F4A921BBC41ADD36D1E02E01E
:101D7000039D00E06D1C681E0321069010F088FA98
:101D8000481C032803D00446032803D114E0002490
:101D9000032811D008A82F46861EF01940780FF0AE
:101DA00085FD012C07D0BD1EF05D0FF07FFDA41E48
:101DB0002F46F2D100E07D1E0698022810D36C4217
:101DC00008A82818C51EA8780FF070FD68780FF0D5
:101DD0006DFD28780FF06AFDE41CED1E002CF2D199
:101DE000424810F009FC0198C06C002101250491C3
:101DF000039505916A1E06920A2202920746049DE7
:101E00002B4611F043F804460E46029A2B4610F07A
:101E10000DFE381A079D284308A9069A50540297C8
:101E200005980A3F049A904136D30A22002720469B
:101E300031463B4611F02AF82A4308A8039BC254B6
:101E4000069911291D46029E28D830466438059807
:101E5000B84123D3642200243046059F39462346E7
:101E600011F014F80A22234611F010F807980243E3
:101E700008A8401942707D20C200304639462346EA
:101E800011F004F8ED1C069A102A03D8154A921B8B
:101E9000BC41ADD36D1E02E0039D00E06D1C681EC9
:101EA0000321069010F0F4F9481C032803D00446DF
:101EB000032803D11DE0002403281AD008A82F46C8
:101EC000861EF01940780FF0F1FC012C10D0BD1ED9
:101ED000F05D0FF0EBFCA41E2F46F2D109E0C046E6
:101EE0006A390100E70300005F3A01008938010008
:101EF0007D1E0698022810D36C4208A82818C51E1B
:101F0000A8780FF0D3FC68780FF0D0FC28780FF099
:101F1000CDFCE41CED1E002CF2D10620002421464D
:101F200010F0E6FDE04810F067FB0198006C012519
:101F300004942146039505916A1E06920A22029294
:101F40000746049D2B4610F0A1FF04460E46029A58
:101F50002B4610F06BFD381A079D284308A9069AF6
:101F60005054029705980A3F049A904136D30A22AA
:101F70000027204631463B4610F088FF2A4308A838
:101F8000039BC254069911291D46029E28D830464B
:101F900064380598B84123D3642200243046059F55
:101FA0003946234610F072FF0A22234610F06EFFD6
:101FB0000798024308A8401942707D20C2003046AD
:101FC0003946234610F062FFED1C069A102A03D80A
:101FD000B44A921BBC41ADD36D1E02E0039D00E0EC
:101FE0006D1C681E0321069010F052F9481C03284E
:101FF00003D00446032803D114E00024032811D0A1
:1020000008A82F46861EF01940780FF04FFC012CCF
:1020100007D0BD1EF05D0FF049FCA41E2F46F2D183
:1020200000E07D1E0698022810D36C4208A82818EC
:10203000C51EA8780FF03AFC68780FF037FC2878B6
:102040000FF034FCE41CED1E002CF2D1974810F088
:10205000D3FA0198406C0021012504910395059164
:102060006A1E06920A2202920746049D2B4610F031
:102070000DFF04460E46029A2B4610F0D7FC381A84
:10208000079D284308A9069A5054029705980A3FCD
:10209000049A904136D30A220027204631463B4617
:1020A00010F0F4FE2A4308A8039BC2540699112994
:1020B0001D46029E28D8304664380598B84123D37F
:1020C000642200243046059F3946234610F0DEFE88
:1020D0000A22234610F0DAFE0798024308A84019A6
:1020E00042707D20C20030463946234610F0CEFEB5
:1020F000ED1C069A102A03D86A4A921BBC41ADD344
:102100006D1E02E0039D00E06D1C681E0321069019
:1021100010F0BEF8481C032803D00446032803D15E
:1021200014E00024032811D008A82F46861EF019B9
:1021300040780FF0BBFB012C07D0BD1EF05D0FF007
:10214000B5FBA41E2F46F2D100E07D1E06980228A2
:1021500010D36C4208A82818C51EA8780FF0A6FB5B
:1021600068780FF0A3FB28780FF0A0FBE41CED1EAD
:10217000002CF2D14E4810F03FFA0198866C0020F6
:1021800001240490014603940691601E05900A22E2
:1021900002923046049D2B4610F078FE07460C460E
:1021A000029A2B4610F042FC301A079D284308A9DA
:1021B000059A505402960A3E06980499884136D3EF
:1021C0000A22002638462146334610F05FFE069963
:1021D0002A4308A8039C0255059B112B029D28D871
:1021E000284664380846B04123D364221E4600279F
:1021F00028463B4610F04AFE0A223B4610F046FEB7
:102200000798024308A8001942707D20C2002846A2
:1022100006993B4610F03AFE069BE41C102E04D8AB
:10222000204A521B9F410646ADD3641E02E0039C28
:1022300000E0641C2646601E0321079010F028F879
:10224000481C032803D00546032803D114E00025C9
:10225000032811D008A8841E3746E01940780FF0F3
:1022600025FB012D07D0BE1EE05D0FF01FFBAD1E4C
:102270003746F2D100E07E1E0798022810D3744240
:1022800008A83018C51EA8780FF010FB68780FF06A
:102290000DFB28780FF00AFBE41CED1E002CF2D198
:1022A0000DB0F0BDE7030000773A0100A23801004D
:1022B00057380100F0B5B3B00220C04308902AA8F7
:1022C00010F010FD0AA843210170462141704722F9
:1022D00082702C210791C1704B25057150214171ED
:1022E0003D21069181712A9C002C039204D4002C7C
:1022F00065D00495072105E004950AA82D21C17138
:10230000644208210898851C0027059109910998C5
:10231000401C09900A26204631460FF0B9FF46437B
:10232000A11B30220A437E1C30A9CA556D1C082F00
:1023300003D8092C37460446E9D8032128460FF074
:10234000A7FF089948438119CA1E00D11146701E83
:10235000002A18D002900AAA0598121830AB9C1EC9
:102360004D1E0023A7197F78D7549D420DD0B71E6C
:10237000A65DD01846709B1C99423E46F2D1059945
:10238000C9183E4605E0059904E00598C018411CAF
:10239000761E02980228049D0FD30AA8401830A97F
:1023A000C91E8A199378037052784270F21E8B5DB1
:1023B0008370C01C002A1646F3D1099E03E00AA8C8
:1023C0003021C1710826F0B2371D0AA90A18079BEF
:1023D0000B5455704420059090700698D0702B9C3B
:1023E000002C02D40DD0049718E070B20321C94329
:1023F000884211DBF8B2711D04910AA92D220A54FA
:102400000BE070B20321C943884265DBF8B2771D47
:102410000AA930220A545FE0049764420898851C98
:102420000027049809900998401C09900A26204624
:1024300031460FF02DFF4643A11B30220A437E1C7C
:1024400030A9CA556D1C082F03D8092C37460446FD
:10245000E9D8032128460FF01BFF08994843831948
:10246000D91E00D10B460498C4B2701E002917D0A3
:1024700002900AA904940C1930A98F1E591E002538
:10248000BA1952786255A9420ED0B21EBE5D6019CB
:102490004670AD1CAB421646F2D1049C641907E0AD
:1024A0003246022807D216E004984019441C721ED6
:1024B000029802280FD30AA8001930A9C91E8B1848
:1024C0009C7804705B784370D31E8A5C8270C01C59
:1024D000002B1A46F3D1099FF8B27D1D0AA90A18EC
:1024E000079B0B5405985070492090705223D3706D
:1024F0000698107114202AA90C56002C029302D4BD
:102500000DD0049518E078B20421C943884211DB4C
:10251000E8B2B91D04910AA92D220A540BE078B241
:102520000421C943884265DBE8B2BD1D0AA93022F7
:102530000A545FE0049564420898851C00270498BB
:1025400009900998401C09900A26204631460FF050
:102550009FFE4643A11B30220A437E1C30A9CA5568
:102560006D1C082F03D8092C37460446E9D80321EF
:1025700028460FF08DFE089948438319D91E00D1D3
:102580000B460498C4B2701E002917D001900AA906
:1025900004940C1930A98F1E591E0025BA195278BF
:1025A0006255A9420ED0B21EBE5D60194670AD1CC8
:1025B000AB421646F2D1049C641907E03246022869
:1025C00007D216E004984019441C721E0198022894
:1025D0000FD30AA8001930A9C91E8B189C78047063
:1025E0005B784370D31E8A5C8270C01C002B1A4635
:1025F000F3D1099DE8B26E1D0AA90A18079B0B5476
:102600004D205070412090705820D0700698107165
:102610002C9C002C0BD415D168B20421C9438842EC
:102620006EDBF0B2AE1D0AA930220A5468E068B22F
:102630000421C943884204DBF0B2AE1D0AA92D2251
:102640000A5464420898851C002704960996099844
:10265000401C09900A26204631460FF019FE4643D9
:10266000A11B30220A437E1C30A9CA556D1C082FBD
:1026700003D8092C37460446E9D8032128460FF031
:1026800007FE089948438319D91E00D10B460498C8
:10269000C4B2701E002917D001900AA904940C1925
:1026A00030A98F1E591E0025BA1952786255A942C9
:1026B0000ED0B21EBE5D60194670AD1CAB42164610
:1026C000F2D1049C641907E03246022807D216E0D2
:1026D00004984019441C721E019802280FD30AA8BE
:1026E000001930A9C91E8B189C7804705B78437060
:1026F000D31E8A5C8270C01C002B1A46F3D1099E3F
:10270000F0B2B71D0AA90A18079B0B54532050704A
:102710004C2090704520D070572010710698507151
:102720002D9C002C02D40DD0049718E070B2052126
:10273000C943884211DBF8B2F11D04910AA92D2288
:102740000A540BE070B20521C943884265DBF8B238
:10275000F71D0AA930220A545FE0049764420898E2
:10276000851C0027049809900998401C09900A26A6
:10277000204631460FF08CFD4643A11B30220A4310
:102780007E1C30A9CA556D1C082F03D8092C37466A
:102790000446E9D8032128460FF07AFD08994843FA
:1027A0008319D91E00D10B460498C4B2701E0029AB
:1027B00017D001900AA904940C1930A98F1E591E34
:1027C0000025BA1952786255A9420ED0B21EBE5DDC
:1027D00060194670AD1CAB421646F2D1049C6419D8
:1027E00007E03246022807D216E004984019441C3C
:1027F000721E019802280FD30AA8001930A9C91E19
:102800008B189C7804705B784370D31E8A5C82704E
:10281000C01C002B1A46F3D1099FFBB23C1D0AA82D
:10282000C118079A0493C2540598487042208870D2
:102830000698C8702AA8058A002D41D00594791DF4
:102840000898841C002709910A26284631460FF073
:102850001FFD099B4643A91B30220A437E1C30A959
:10286000CA55641C082F04D8591C092D3746054643
:10287000E9D8032120460FF00BFD08994843811940
:10288000CA1E00D11146731E002A25D005930AA83E
:10289000049A821830A8841E4D1E0023A019477880
:1028A000D01807719D421CD0B71EA65D46719B1CB7
:1028B00099423E46F2D10498C018011D3E4614E0EC
:1028C00078B20321C943884204DBE0B27C1D0AA927
:1028D00030220A54039A1DE00598C1B2022B07D298
:1028E00016E00498C018411D761E059B022B0FD3DD
:1028F0000AA8401830A9C91E8A1993780370527823
:102900004270F21E8B5D8370C01C002A1646F3D104
:10291000039A099CE5B2261D0AA84119079B059553
:102920004355029848708A700698C8702AA8458A4C
:10293000002D41D00796611D0898841C002709913D
:102940000A26284631460FF0A3FC099B4643A91BE3
:1029500030220A437E1C30A9CA55641C082F04D8B3
:10296000591C092D37460546E9D8032120460FF0AA
:102970008FFC089941438919CA1E00D11146731E64
:10298000002A24D008930AA8059A821830A8841E29
:102990004D1E0023A0194778D01807719D421BD007
:1029A000B71EA65D46719B1C99423E46F2D1059822
:1029B000C018011D3E4613E060B20321C94388429E
:1029C00023DBF0B2631D0AA930220A541EE00798E7
:1029D000C1B2022B07D216E00598C018411D761E21
:1029E000089B022B0FD30AA8401830A9C91E8A19C8
:1029F0009378037052784270F21E8B5D8370C01C16
:102A0000002A1646F3D1099B00E03346314D981C4D
:102A1000D9B20AAA53180D2454540A215970C7B2C6
:102A20002D4800882D4E3188C94340182840B842AF
:102A300005D22C488169491C816133B0F0BD7C1EF0
:102A4000032120460FF024FC4A1C0021032A0846DB
:102A500000D010460892022C20D3391A0991002187
:102A60001F4C0AAA5718525C2B463588625532888B
:102A7000521C1A4032807A78358862553288521C4E
:102A80001A403280BA78358862551D463288521C09
:102A90001A403280C91C099A8A42E2D1089A032A54
:102AA00015D00AAA51180E4A0B783488135533886A
:102AB0005B1C2B403380012809D04B783488135598
:102AC00033885B1C2B403380891C801EECD133B0D3
:102AD000F0BDC046FF070000F4182020F2182020A7
:102AE00000002020F4162020F0B59FB010F00CFB61
:102AF000054610F00DFB064610F08AFA29780024EE
:102B00000029049602D06968411A00E0E1436F7819
:102B1000781E874108919729059501D3264600E044
:102B200001260BAD28460FF093FF285F1221059D6B
:102B30000291695E411ADF48814200DB0146DE48AE
:102B4000814200DC01460391204621460FF0D0FF70
:102B5000DA480FF051FD2878002804D0089896280C
:102B600003D9D74807E0D74805E06878002801D0A6
:102B7000D54800E0D54837403E46D54C0FF03CFDE7
:102B8000D4480FF039FD2878002860D001960898C5
:102B9000A04200D308940020012606900146089C1C
:102BA00007910996701E0A900A2208922046069EF6
:102BB000334610F06BF905460F46089A33460FF07E
:102BC00035FF201A302318431AA90A9A5054089442
:102BD0000A3C07980446B0413ED30A220026284604
:102BE00039461D46334610F051F92A431AA809996F
:102BF00042540A991129089830D827460146643969
:102C00002146B1412AD32B46642200250446394689
:102C10001E462B4610F03AF90A222B4610F036F9E0
:102C200032431AA8099E801942707D20C2002046B6
:102C300039462B4610F02AF9F61C0A9A102A04D8B5
:102C4000A34A121BBD410446AAD3761E08E0A2483F
:102C50000FF0D2FC049F3BE0099E01E0099E761C28
:102C6000701E03210A900FF013FB481C032803D0A9
:102C70000546032803D114E00025032811D01AA823
:102C8000841E3746E01940780EF010FE012D07D063
:102C9000BE1EE05D0EF00AFEAD1E3746F2D100E02A
:102CA0007E1E0A98022810D374421AA83018C51E36
:102CB000A8780EF0FBFD68780EF0F8FD28780EF08D
:102CC000F5FDE41CED1E002CF2D1049F059D019E34
:102CD0000220002421460FF00BFF80480FF08CFCEF
:102CE000002E04D00298285E09F07AFE02E07C48AB
:102CF0000FF082FC7B480FF07FFC0BA8005F09F00F
:102D00006FFE79480FF078FC002E04D0039800B2D3
:102D100009F066FE02E072480FF06EFC042000210C
:102D20000FF0E6FE71480FF067FC06200BAC205E4A
:102D300009F056FE6E480FF05FFC10985E4988421D
:102D400000DC08465B49884200DB084609F048FE83
:102D500068480FF051FC3920205C052803D880001A
:102D60006549085800E065480FF046FC062000243D
:102D700021460FF0BDFE287800286BD060480FF088
:102D80003BFC288A0CF022FA5E480FF035FC688B79
:102D90000CF01CFA5C480FF02FFC0FF0C9FE01226A
:102DA00006942146144609940891621E0A920A224A
:102DB00007920546069C234610F068F807460E4623
:102DC000079A23460FF032FE281A302318431AA917
:102DD0000A9A5054079508990A3D0846A04142D3E3
:102DE0000A220C460025384631461E462B4610F076
:102DF0004DF8334632431AA8099942540A991129C9
:102E0000079E32D8304664382046A8412DD364222C
:102E100000273046254621461C463B4610F036F832
:102E20000A223B4610F032F822431AA8099C0019E6
:102E300042707D20C200304629463B4610F026F8FD
:102E4000E41C0A9A102A03D8214A921BAF41AAD344
:102E5000641E0CE02D480FF0CFFB3868C0087C28BA
:102E600056D91B4E55E0099C01E0099C641C601E6C
:102E700003210A900FF00CFA481C032814D00546D1
:102E8000032814D01AA82746841EE01940780EF0B3
:102E90000DFD012D00D196E0BE1EE05D0EF006FD99
:102EA000AD1E3746F1D18FE000250328EAD1264632
:102EB0008AE0C046FF7F00000080FFFF4837010026
:102EC0002A370100B6380100CF3A0100333901003A
:102ED000E7030000D73901000F3A0100D23A0100A0
:102EE000C93A0100633A0100F33901009F3A010039
:102EF000CF390100EC3A0100703401000B3A0100B7
:102F0000D53A0100073A0100C3390100E73A010050
:102F10003E68002001250590014607910895681E2E
:102F200009900A220A923046059C23460FF0AEFF14
:102F300007460D460A9A23460FF078FD301A3023D3
:102F400018431AA9099A505406960A3E079806464D
:102F5000A0410A934ED30A2200243846294623462C
:102F60000FF094FF0A9802431AA808994254099B4B
:102F7000112B06980D463FD8014664393146A141D0
:102F80003AD364220027044631463B460FF07EFFC9
:102F90000A223B460FF07AFF0A9802431AA840190A
:102FA00042707D20C200204631463B460FF06EFF46
:102FB000ED1C099A102A04D8C34A121BB7410646D1
:102FC000ABD36D1E19E07E1E0A98022800D278E16C
:102FD00074421AA83018C51EA8780EF067FC6878ED
:102FE0000EF064FC28780EF061FCE41CED1E002C51
:102FF000F2D166E1089D00E06D1C681E0321099076
:103000000FF046F9481C032812D00646032812D0B8
:103010001AA8841E601940780EF048FC012E0CD0CE
:10302000AF1E605D0EF042FCB61E3D46F2D105E0DB
:1030300000260328ECD12F4600E06F1E09980228D5
:1030400010D37C421AA83818C51EA8780EF02EFCA2
:1030500068780EF02BFC28780EF028FCE41CED1E9E
:10306000002CF2D19A480FF0C7FA049805699648E7
:10307000854200D3054600200124049001460891B2
:10308000601E09900A2207922846049E33460FF0DC
:10309000FDFE07460691079A33460FF0C7FC281A33
:1030A00022460A9C20431AA9099B585407950A3DB9
:1030B00008980546B04136D305920A2200263846C4
:1030C000069933460FF0E2FE22431AA8059C0255EA
:1030D00009991129079828D80246643A2A46B2412C
:1030E00023D364220027294606463B460FF0CEFE36
:1030F0000A223B460FF0CAFE0A9802431AA800199A
:1031000042707D20C200304629463B460FF0BEFE8D
:10311000E41C099A102A04D86B4A921BAF41054659
:10312000ADD3641E02E0144600E0641C2646601E17
:10313000032109900FF0ACF8481C032803D0054682
:10314000032803D114E00025032811D01AA8841EF7
:103150003746E01940780EF0A9FB012D07D0BE1EBE
:10316000E05D0EF0A3FBAD1E3746F2D100E07E1EFF
:103170000998022810D374421AA83018C51EA878DE
:103180000EF094FB68780EF091FB28780EF08EFB21
:10319000E41CED1E002CF2D14C480FF02DFA0FF07C
:1031A000C7FC002101250791069508916A1E099226
:1031B0000A2205920646079C23460FF067FE074643
:1031C0000D46059A23460FF031FC301A0A9C204325
:1031D0001AA9099A5054059608980A3E079A9041F0
:1031E00036D30A2200263846294633460FF04EFED3
:1031F00022431AA8069BC254099911291D46059C11
:1032000028D8204664380898B04123D36422002788
:103210002046089E31463B460FF038FE0A223B46C8
:103220000FF034FE0A9802431AA8401942707D201C
:10323000C200204631463B460FF028FEED1C099A9D
:10324000102A03D8204A121BB741ADD36D1E02E0ED
:10325000069D00E06D1C2E46681E03210A900FF0AB
:1032600017F8481C032803D00546032803D114E0AF
:103270000025032811D01AA8841E3746E01940788B
:103280000EF014FB012D07D0BE1EE05D0EF00EFB0C
:10329000AD1E3746F2D100E07E1E0A98022810D3F8
:1032A00074421AA83018C51EA8780EF0FFFA687884
:1032B0000EF0FCFA28780EF0F9FAE41CED1E002C52
:1032C000F2D11FB0F0BDC046E7030000C3390100D2
:1032D000473A0100F0B587B05B4E31787078B3782B
:1032E00099420A4600D31A46814200D310463070F4
:1032F0000420315E0620305E0822B35E99420A4601
:1033000000DB1A46814200DB1046B0800A20315EA5
:103310000C20305E0E22B35E99420A4600DB1A464C
:10332000814200DB104670811020315E1220305E39
:1033300014220492B35E99420A4600DB1A46814287
:1033400000DB104630821620315E1820305E1A22D3
:10335000B35E99420A4600DB1A46814200DB104602
:10336000F0821C20315E1E20305E2022B35E994226
:103370000A4600DB1A46814200DB1046B083222059
:10338000315E7D25E800814200DB0146CA1791438A
:1033900071842421715E814200DB0146CA1791438A
:1033A000B1842621725E824200DB02460121012A9D
:1033B00000DC0A46F2842820335C072B1A4600D32F
:1033C0000722002B0B4600D0134633542922B45C4D
:1033D000642C234600D36423002C00D019461B4BD9
:1033E000B154718DC82901D2C82102E09942194611
:1033F00000D971852B01B18D642901D2642102E0CD
:103400009942194600D9B1850695EF00F18D28291A
:1034100002D3B942384601D9F0850146328E8A423C
:10342000104600D808468A4201D3984205D9069929
:103430000901884200D308463086716BC82905937C
:1034400006D2C82007E0C046D00F20208813000015
:10345000D348814200D97063B46B002120460EF03E
:1034600039F8002805D1CF4920460EF047F800284A
:1034700001D0CD4CB463F56B002128460EF02AF83C
:10348000002805D1284621460EF02EF8002801D04C
:10349000C648F063346C002120460EF01BF800286B
:1034A00005D1C34920460EF029F8002801D0BF48B5
:1034B00030644420315ABF4A8918491E89B2BE4A35
:1034C000914201D8642131524620315E069AD200E1
:1034D000914200DB1146CA17914331524820315ABC
:1034E000B64A8918143989B2FD4A914201D8C821D7
:1034F00031525021705A0246153A049BDB439A42DE
:1035000001D8052070525221725A642A01D8824291
:1035100001D2642070525421705AF24A8218521E0D
:1035200092B2F14B9A4201D83C2070525621725A05
:10353000BA4201D8824201D864207052B46D002191
:1035400020460DF0C7FF0028069F05D1E749204619
:103550000DF0D4FF002801D0E548B0655C20315C57
:10356000012903D0FF2901D0FF2131545E21725E71
:10357000F800824200DB0246D3179A437252602160
:10358000725E824200DB0246D3179A437252622176
:10359000725E824200DB0246012A00DC0122725286
:1035A0006422B05EC82800DBC820C117884304929B
:1035B000B052B46E002120460DF0A0FF002805D0C7
:1035C000C54920460DF09AFF002801D0C14CB466D1
:1035D000F56E002128460DF091FF002805D0284601
:1035E00021460DF081FF002801D0C248F06670200E
:1035F000315EFA00914200DB1146012900DC012115
:103600003152756F002128460DF078FF002806D052
:103610003F20010628460DF071FF002801D0B64872
:103620007067B56F284629460FF0D4FB00280BD1F0
:10363000284621460DF044FF002805D1A64928461A
:103640000DF05CFF002801D0AC48B067A34DF46FCB
:10365000002120460DF048FF002805D0A74920464C
:103660000DF04CFF002802D001208007F067802079
:10367000315A6918491E89B2A94201D2C821315272
:1036800084257459002120460DF038FF002805D00C
:103690008F4920460DF032FF002801D09748705125
:1036A00088257459002120460DF028FF47424741E4
:1036B000B8203158204603910DF020FF411E88416B
:1036C0003843012801D18E4C745101258C20019082
:1036D0003758384639460FF07DFB02903846214670
:1036E0000DF0EEFE0446384603990DF007FF411E2B
:1036F0008841002C294600D1014602980028069FE7
:1037000000D10D46012D02D17E48019970509020C4
:10371000325E9221715E9423F45EA242134600DB76
:1037200023468A4200DB194631529620315E5A29DF
:10373000664C00DB5A215922D2439142059B00DCA2
:10374000114631529A20315E782900DB78217722A8
:10375000D243914200DC114631529820315A6429FB
:10376000049A02D3A142224600D932529C20315AF7
:10377000A14200D934529E20315A994200D9335285
:10378000A020315A642901D2642301E0994200D972
:103790003352A420325891087D2911D2B90012E089
:1037A000102700000000B442000040410000A0408B
:1037B0000000C84230F8FFFF2FF800002BFCFFFF8D
:1037C00051498A4200D93150F021725EF80082429C
:1037D00000DB0246D3179A437252F221725E824294
:1037E00000DB0246D01782437252F4203158474A18
:1037F0008918491E914201D239013150F825745976
:10380000002120460DF066FE002806D17F20C1056C
:1038100020460DF073FE002801D03D487051FC2574
:103820007459002120460DF055FE002806D17F2056
:10383000C10520460DF062FE002801D02E487051CF
:10384000012005027459002120460DF039FE0028A0
:1038500005D1304920460DF051FE002801D02E48F8
:103860007051412085007459002120460DF028FE3A
:10387000002806D17F20C10520460DF03FFE00281C
:1038800001D0264870512120C100725EF8008242AA
:1038900000DB0246D3179A43725285214900725EBB
:1038A000824200DB0246D0178243725243208100DD
:1038B000705A002801D10520705287214900725AA0
:1038C000824200D2705207B0F0BDC046881300009B
:1038D0000000B4420000A0400000C84230F80000E0
:1038E0002AFC00000CFEFFFF0BFE00000000FA4364
:1038F0000000F543CDCC4C3FCDCC4C3E0000A04168
:103900000000C84100003442983A0000F0D8FFFFA0
:103910003333B33E000020419A99193F0AD7233C24
:10392000F0B58FB06E460D2800D161E10A281BD199
:10393000F24F3878F24D29784A424A4102431DD06D
:10394000002800D1E1E2EF48EF490A88EF490B88EF
:10395000DB43D218C31E13400B2B00D9E4E0EC4824
:103960008169491C816134E101467F39C9B2A029CE
:1039700061D8F648012101700FB0F0BDF94800256B
:103980004554F74FF968491CF960017842781202F2
:10399000511882781204C078000680184018F24945
:1039A000884200D1ABE0EF4CF049052220460FF0F1
:1039B000CFF800284DD020786178090208185828DF
:1039C00047D02078617809020818A1780904E278C4
:1039D000120651180818E649884200D129E22078D9
:1039E0006178090208183F2800D122E22078617826
:1039F00009020818A1780904E2781206511808187B
:103A0000DC49884200D185E12078002800D115E208
:103A10003D2800D1FCE16078002800D10EE23D286D
:103A200000D1F2E1A078002800D107E23D2800D1C2
:103A3000EDE1E41CE8E7C54B1978002900D0D7E098
:103A4000C34A11782F2900D2C8E0012018700FB0A6
:103A5000F0BDC04C0FF0ACF8BF480188BF480288E9
:103A6000D2438918621E0A400A2AB94D58D30288E7
:103A7000C14941238B540288521C22400280028893
:103A800043238B540288521C2240028002884B231D
:103A90008B540288521C2240028002882C238B54B3
:103AA0000288521C22400280028853238B540288D1
:103AB000521C22400280028854238B540288521CDC
:103AC0002240028002884F238B540288521C2240DD
:103AD0000280028850238B540288521C22400280AC
:103AE00002880D238B540288521C224002800288D7
:103AF0000A238B540188491C2140018004E2954C23
:103B000000200EF0E5FA94490A8894490B88DB43BB
:103B1000D218224000286DD0092A8D4D00D3ABE089
:103B2000B869401CB861EFE10C88934A45231355EE
:103B30000C88641C04400C800C882E4652251555B8
:103B40000C88641C04400C800C8815550C88641C7F
:103B500004400C800C882C2515550C88641C0440EE
:103B60000C800C884C25155535460C88641C044087
:103B70000C800C8813550B885B1C03400B800B8852
:103B80004E24D4540B885B1C03400B800B884724C5
:103B9000D4540B885B1C03400B800B885424D454F2
:103BA0000B885B1C03400B800B884824D4540B8883
:103BB0005B1C03400B800B880D24D4540B885B1CCA
:103BC00003400B800B880A24D4540A88521C0240FC
:103BD0000A80DB480169491C016196E10346613BAB
:103BE000DBB21A2B00D220384B1C1370D34A50542E
:103BF0000FB0F0BD092A00D22BE10A88D648452330
:103C000083540A88521C22400A800B885222C254D4
:103C10000B885B1C23400B800B88C2540B885B1CF9
:103C200023400B800B882C25C5540B885B1C23403C
:103C30000B800B88C2540A88521C22400A800A88D2
:103C4000552383540A88521C22400A800A884E2336
:103C500083540A88521C22400A800A880D23835408
:103C60000A88521C22400A800A880A238354088842
:103C7000401C2040088043E10A88B7484123835410
:103C80000A88521C22400A800A88432383540A88E7
:103C9000521C22400A800A884B2383540A88521CF3
:103CA00022400A800A882C2383540A88521C22400E
:103CB0000A800A88522383540A88521C22400A80B0
:103CC0000A88552383540A88521C22400A800A8895
:103CD0004E2383540A88521C22400A800A880D23EE
:103CE00083540A88521C22400A800A880A2383547B
:103CF0000888401C2040088006E1C04601192020A9
:103D00000A192020FF070000F4182020F2182020B4
:103D1000F4162020343668460EF09AFE30780028DB
:103D2000854D03D17078002800D1F3E08748884999
:103D30000A8888490B88DB43D218431E13400A2B9C
:103D40001CD2B869401CB861DBE0C04601192020D4
:103D50000A192020FF070000F4182020F218202064
:103D6000F4162020BC15202052554E009338010037
:103D70004745540044454600000020200B88764A01
:103D80004524D4540B885B1C03400B800B885224C1
:103D9000D4540B885B1C03400B800B88D4540B88D5
:103DA0005B1C03400B800B882C24D4540B885B1CB9
:103DB00003400B800B884224D4540B885B1C0340C7
:103DC0000B800B885524D4540B885B1C03400B805C
:103DD0000B885324D4540B885B1C03400B800B8846
:103DE0005924D4540B885B1C03400B800B880D2492
:103DF000D4540B885B1C03400B800B880A24D454DA
:103E00000A88521C02400A807BE0641C00E0A41C6B
:103E1000002C13D04948844210D0607800280DD07F
:103E2000601C257007F01CF900287BD045480AF07B
:103E300021FDFEF73FFA3F4F3F4D66E043484449BE
:103E40000A8844490B88DB43D218C31E13400B2B4E
:103E500003D8B869401CB86152E00B883E4A45243B
:103E6000D4540B885B1C03400B800C8852231355E1
:103E70000C88641C04400C800C8813550C88641C4E
:103E800004400C800C882C2515550C88641C0440BB
:103E90000C800C88462515550C88641C04400C8049
:103EA0000C884F2515550C88641C04400C800C8828
:103EB00013550B885B1C03400B800B884D24D45496
:103EC0000B885B1C03400B800B884124D4540B8867
:103ED0005B1C03400B800B885424D4540B885B1C60
:103EE00003400B800B880D24D4540B885B1C0340CB
:103EF0000B800B880A24D4540A88521C02400A8082
:103F00000D4D3869401C38610A4F00202870387008
:103F10000FB0F0BD0EF058FC10480AF0ABFCFEF7F5
:103F2000C9F9F1E708480AF0A5FC3869401C386176
:103F300081E7C046011920200A192020BC15202045
:103F4000F41620205C360100DC340100FF0700007D
:103F5000F4182020F2182020000020202036010034
:103F6000F0B58FB0DE4D0B90002800D19BE22426E7
:103F7000A85D002800D196E2FB4F01200190FB488C
:103F80000FF058F8FA480B994843C00C081A002162
:103F900080B20290039108460490039868610BE098
:103FA0007C2008212954686E401C686638460FF052
:103FB00041F8601D2D2C79D20446A85D00280AD056
:103FC00047200CA9022204F013FF002806D07C2011
:103FD0000021295408E07C20082101E07C200921EF
:103FE0002954686E401C686638460FF023F8A85DB7
:103FF00000280AD047200CA9022204F0F9FE00286C
:1040000006D07C200021295408E07C20082101E012
:104010007C2009212954686E401C686638460FF0E0
:1040200009F8A85D00280AD047200CA9022204F054
:10403000DFFE002806D07C200021295408E07C20E7
:10404000082101E07C2009212954686E401C686623
:1040500038460EF0EFFFA85D00280AD047200CA9D3
:10406000022204F0C5FE002806D07C20002129543D
:1040700008E07C20082101E07C2009212954686E99
:10408000401C686638460EF0D5FFA85D002887D032
:1040900047200CA9022204F0ABFE002803D07C20AC
:1040A0000021295482E77C2009217BE7B148411C8B
:1040B0000A910027089707973C46099009E0641C7D
:1040C0000A90A9480EF0B6FF7F1CB8B20B9988423F
:1040D0002CD2A85D002820D047200DA9022204F090
:1040E00087FE00281BD00D99C8BA09BA7C2200238C
:1040F000AB54C917089A12180892079A4A410792B6
:10410000099909B28142024600DC0A4609920A99DD
:1041100009B28142D3DB0846D1E7082000E009203C
:104120007C216854686E401C6866CAE7A2B2029897
:104130008242ED4F00D2A7E1002408980799234658
:104140000EF09AFE06902F6A3846079421460DF02D
:10415000C1F90890069800B20EF036F939460CF015
:1041600031FD04460898002800D0079C099800B249
:104170000A9909B2081A0EF027F939460CF022FD07
:104180000746204607990DF09BF901210091C907C8
:1041900000280894079100D04C402046D3490DF0E8
:1041A000ADF904463846D2490DF0A8F9411E8841C0
:1041B000002C019900D101460029CB4F00D063E1CA
:1041C0000898686100240A940EE00820099C7C216C
:1041D0006854686E401C686638460EF02BFF601D00
:1041E0000F2C044600D34BE1A85D0028099433D07E
:1041F00047200EA9022204F0FBFD00282ED00E98C5
:1042000005907C2000272F542C6A204639460DF05B
:1042100061F906900598C0BA0EF0D6F821460CF068
:10422000D1FC0699002900D0384608990BF0A6F871
:10423000044639460DF044F9002801D0079844405F
:10424000A94F2046AB490DF059F9002800D01BE1D9
:104250000A98401C0A9007E0082000E009207C2111
:104260006854686E401C686638460EF0E3FEA85D30
:10427000002833D047200EA9022204F0B9FD0028FF
:1042800030D00E9805907C2000272F542C6A2046B1
:1042900039460DF01FF906900598C0BA0EF094F853
:1042A00021460CF08FFC0699002900D03846089969
:1042B0000BF064F8044639460DF002F9002801D0ED
:1042C00007984440884F20468A490DF017F9002886
:1042D00000D0D9E00A98401C0A9009E0082002E0CA
:1042E000E011202009207C216854686E401C68661B
:1042F00038460EF09FFEA85D002833D047200EA957
:10430000022204F075FD002836D00E9805907C201E
:1043100000272F542C6A204639460DF0DBF8069012
:104320000598C0BA0EF050F821460CF04BFC0699E7
:10433000002900D0384608990BF020F80446394689
:104340000DF0BEF8002801D007984440664F204683
:1043500068490DF0D3F8002800D095E00A98401C79
:104360000A900FE0082008E0007102000024F40029
:10437000CDCC0000FF7F000009207C216854686ECE
:10438000401C686638460EF055FEA85D002832D005
:1043900047200EA9022204F02BFD00282DD00E98F4
:1043A00005907C2000272F542C6A204639460DF0BA
:1043B00091F806900598C0BA0EF006F821460CF068
:1043C00001FC0699002900D0384608990AF0D6FF6A
:1043D000044639460DF074F8002801D0079844408F
:1043E000414F204643490DF089F800284CD10A98E6
:1043F000401C0A9007E0082000E009207C21685456
:10440000686E401C686638460EF014FEA85D0028F1
:1044100000D1DAE647200EA9022204F0E9FC0028C8
:104420002CD00E9805907C2000272F542C6A204613
:1044300039460DF04FF806900598C0BA0DF0C4FF4C
:1044400021460CF0BFFB0699002900D03846089998
:104450000AF094FF044639460DF032F8002801D0E6
:1044600007984440204F204622490DF047F8002885
:104470000AD10A98401C0A90099CADE60920A5E6DD
:104480000A9880B2112825D80498022807D004463B
:1044900019480EF0CFFD601C022C00D27CE50020F4
:1044A0006861252101E025210020685426216854F7
:1044B0000B23124900220A6011490A6011490A704F
:1044C00011490A7029216A54EA616A857C216B547A
:1044D0000FB0F0BD2520009929540023EB84AB6573
:1044E0002B660198E5E7C0460071020000002041FC
:1044F0000000A0400000404000A86100B818202043
:10450000641420200819202016192020F0B597B037
:104510000E91002900D1B2E20B904B2085000120C2
:104520000C900FA812300A900024324E324B334ABE
:104530000D9508E032498868401C8860641C0E981C
:10454000844200D39DE231881888814200D199E2EB
:104550002C48405C491C17462A46D3320A40328018
:104560003A460D28EAD028490A2805D108780128BA
:104570001FD100200870B5E009780129DAD0014682
:104580007F395F22D24391426DD81D4DA86B401CEC
:10459000A86354200C2129541C4A1088A96840188B
:1045A000401CA8600D9D002010800C9816490870D2
:1045B000A9E0164801880029C0D0114D2869401C87
:1045C00028610FAA124802F061FC2B46042879D812
:1045D000194620310622800001A31858084B87464F
:1045E00015460000C5460000BB460000D34600004B
:1045F000CD460000E0182020DE182020A41820203E
:104600000C142020000C202002192020DC1820206F
:10461000501320200FA8007C099000283A4674D03F
:10462000119801B2C9134840401A80B2962811D897
:104630000FA8408901B2C9134840401A80B2962899
:1046400008D8129801B2C9134840401A80B2FE49F6
:1046500088425AD3986B401C986354200C211954FB
:10466000FA4B0D9D3DE0FA490988402812D10029F6
:1046700009D0F84A906840189060D068401CD0601B
:1046800054200D2111544020F34908700C98F04932
:10469000088038E0002928D05F292ED3ED4D286A04
:1046A000401C2862542006222A54A8684018A8609A
:1046B0000D9D0020F749088077E7F6480088996843
:1046C00008189860194638310C2202E01946243146
:1046D00007220868401C086054201A54EC4B0D9DBA
:1046E0003A460020EB49088028E7EB4A9068401CD6
:1046F000906054200D21115405E04A1CE54E328093
:10470000E24EE64A50543A4618E75220195C002916
:104710000D9D13D006901098E149096807908842D2
:104720002BD21168481C08900020049008988842F9
:1047300000D398E00498C043089095E001210891C7
:1047400011600F9A502107925A52FF2102311952DB
:104750000B9898640898D8645869401C586110995F
:10476000CF4806910160CF48083024210EF05CFC50
:10477000099A002A2CD110462BE05321595C0029BC
:1047800000D1F4E00FA9088850215A5A831A1BB2AD
:10479000012B00DAF2E03A680890BF4B5852FF2133
:1047A0000231069819520B9898640692DA64586997
:1047B000401C5861BA4807990160BA480830242162
:1047C0000EF032FC099A002A00D0E0E01046DFE04B
:1047D0000920B44908720898C860079B0B82069BA1
:1047E0004B610D834883119804900FA80590C089F0
:1047F00006900021CB43002A184600D0049803906D
:10480000002A184600D008460290002A069900D1D6
:104810001146A44A039890830298D083118453844C
:10482000089B1370099850700B9951609E4A137041
:10483000099850700598407C907051609068401CB9
:104840009060D36007981082099A002A00D10492E0
:104850009549049848820598408988821298C882B0
:104860000D8306986DE01060596C491C0F9850221A
:1048700005909852FF22023206981A5259640B98FA
:1048800098640898D8645869401C5861844807990E
:1048900001608448083024210EF0C6FB099A002AE2
:1048A00001D1104600E00920049B7E490872089857
:1048B000C86005980882079848610D83012001901F
:1048C0004883119807900FA80290C189D843002A05
:1048D000069002D0079B0693049B002A039000D009
:1048E0000393002A049100D1114600916D4B069963
:1048F00099830399D983009919845884019919706F
:104900005A700B985860684A117009995170029B4F
:10491000587C90700B9850609068401C906008988C
:10492000D060059810820A46002901D108460791F7
:104930005D4907984882588988821298C8820D83F9
:104940000498488308461C300C220A990EF0F0FBAC
:104950000998002801D0182000E01C204C4B4E4A3A
:104960001158491C1150542003211154B8E60FA8C6
:1049700000220B9909F074FD454BB1E6904275D1C8
:10498000454AD06B401CD0635420042174E00920B8
:10499000444908720698C8600898088207984861D8
:1049A0000D830C984883119805900FA80490C08936
:1049B00007900021CB43002A184600D005980390A9
:1049C000002A184600D008460290002A079900D114
:1049D0001146344A039890830298D08311845384FB
:1049E0000C981070099951700B9951602E4A1070F3
:1049F00009985070049B587C907051609068401CDE
:104A000090600698D060089810820998002800D11C
:104A10000590254905984882588988821298C8824D
:104A20000D830798488308461C300C220A990EF023
:104A30007FFB0999002901D0182000E01C20144BAD
:104A400000290BD00C990AE0B90B0000DE182020D9
:104A5000DC1820200C1420205013202002210E4DA1
:104A60002A58521C2A505420295438E60A4A106CFD
:104A7000401C1064542005211154054B30E60024DD
:104A800000E00E9CA0B217B0F0BDC046E018202098
:104A9000DE182020DC1820200C14202050132020A9
:104AA000981820201C16202074162020F0B597B0EE
:104AB000099103901C99002B01D0002018800493C9
:104AC000002901D0002008800A920591DC480121CC
:104AD0000C910170DB49F020085AF2210B91F4216E
:104AE0000D912121C9001291852149001391432183
:104AF000890010910026FC210F91F8210E9141218F
:104B00000191890011917D210291C900089188428B
:104B1000304671D8CB480B99415E002930466BD4A2
:104B2000C9488142304667DAC6480D994058002886
:104B3000304661D0C3491298085E16901398085EFB
:104B400015901098085A14900F980C580E980F58FA
:104B50001198085806900C980002085807900021F8
:104B600038460CF0CBFC0028304645D07F20C505E8
:104B7000384629460CF0AEFC002830463CD00021D7
:104B800020460CF0BBFC0028304635D02046294694
:104B90000CF0A0FC002830462ED0002107980CF025
:104BA000A3FC0028304627D00024069821460CF0AC
:104BB0009BFC002830461FD01698002830461BD496
:104BC000A14816998142304616DA159800283046D9
:104BD00012D4FC481599814230460DDA1498002809
:104BE000304609D087204000F549085A1499884278
:104BF00001D2204600E00120F04C60707F2109982E
:104C0000084060710DF0CAFDA071411E02468A4144
:104C10002271002803D060790CF04CFB06462681F7
:104C20000A9887B208998F4200D30F46002800D512
:104C30000027E783E06B401C00D2E0632078002867
:104C40000AD06078002807D02622A35C032B0ED15F
:104C50000021218408468CE100206080E060206112
:104C60006061A061A0832062A08417B0F0BD591ECE
:104C70002079012910D8002800D18DE00020E062C1
:104C800020866080E06020616061A061A083606236
:104C900021462431087102E0002800D195E06079B6
:104CA00032216054A68601990140012904D00846AA
:104CB00040290BD1012000E0FF202721605428204B
:104CC00001212154A06B401C00D2A063E078002891
:104CD0004DD0E468BA490F98085815900E980D58B1
:104CE00030460DF071FB21460AF048FB014628468C
:104CF0000BF0CCFD21460AF046FB1690AF49C86088
:104D00001098AF49085A01210026039A90420B4699
:104D100000D9334687225200A94DAA5A039DAA42C0
:104D200000D231460B40A54EB370012B169D2DD1FC
:104D3000284621460AF022FB044603980DF0D0FDD8
:104D40000146A2480BF03EFF21460BF09FFD30616B
:104D5000746921460AF012FB014615980BF096FD86
:104D600021460AF010FB01467061954E83E0304603
:104D70000DF02AFB05460021E06021616161012000
:104D8000E070A078002861D08D4E74E00021316180
:104D9000716134468A4E60E0E06A039D2918002064
:104DA000A94200D2C143E1622546854E0D9C34598B
:104DB000A14234D20B98315A0022012B104600D068
:104DC0000846012B7D4C28D1F2E000206080A084B1
:104DD000E06020616061A061A0832821615C0029FE
:104DE000774D00D1D1E02721635CFF2B01D0022158
:104DF0000C910C99A1542086039EE6620D99695886
:104E0000B14200D8CCE00B98295A0022FF2B104663
:104E100000D00846FF2B00D1CAE01146C8E06880E8
:104E2000A884E86028616861A861A8830321A95467
:104E3000654929860146049A2C4628849AE0C04692
:104E400000152020D00F2020E903000016955C4EAD
:104E50001098305A87214900725A01230021039D7E
:104E6000A842184600D90846039DAA4200D20B4624
:104E70001840A070169D0120169000023458119819
:104E800030580BF003FD0646204629460BF0FEFC89
:104E900031460AF078FA0546484885611298484933
:104EA0000E5A284629460DF095FF002800D082E0D2
:104EB000744220B20DF088FA014628460CF00AFB35
:104EC000002819D130B20DF07FFA014628460CF0C7
:104ED0000BFB002834460FD1002128460CF004FBC0
:104EE000002801D1BF2000E03F20010628460AF03B
:104EF0004AFA0DF0FDFA04463048848320B215903A
:104F0000C0190299CA009042044600D314460021F9
:104F100000280D462A4B00D425466C1E2846A04189
:104F2000139C1C5FA542169E00DB0E4630402426D3
:104F3000224B98550028084600D128461F4D28844A
:104F4000159BFD1A95422B4600D31346002D0A46A9
:104F500000D41A46551E1346AB41A24200DB1691FF
:104F6000169C23402524154D2B552C46002B00D193
:104F70001146049A6184002A00D010800599002906
:104F800001D0608C088017B0F0BD0021E162E170B3
:104F9000252021540320A05401200002208658E639
:104FA000E070252160540321A15407492186014660
:104FB000049A2084DEE700249EE7C04600152020E6
:104FC000D00F2020E90300000102000000007A4415
:104FD000F0B58FB00EF0A8F8074680690DF088FA9A
:104FE000B44CA04200DC2046B34EB04200DB304659
:104FF0000290F8690DF07CFAA04200DC2046B04235
:1050000000DB304601900025284629460DF070FD52
:10501000AA480DF0F1FA3868A04200DC2046B04200
:1050200000DB304607F0DCFCA5480DF0E5FA7868B7
:10503000A04200DC2046B04200DB304607F0D0FC46
:10504000022029460DF054FD9E480DF0D5FAFE6869
:10505000BC68002E01D4354604E02D200CF026FC5F
:105060006442B54103974A3700970023964A204689
:10507000294606930DF00AFF1046194601250595AD
:1050800007916A1E08920A2209920646069F3B462D
:105090000DF0FCFE04460D46099A3B460DF0C6FC99
:1050A000301A302738430AA9089A505404960798B2
:1050B0000A3E069A9041099736D30A2200262046D6
:1050C000294633460DF0E2FE3A430AA8059BC25436
:1050D000089911291D46049F28D838466438079836
:1050E000B04123D3642200243846079E314623462C
:1050F0000DF0CCFE0A2223460DF0C8FE09980243AB
:105100000AA8401942707D20C20038463146234625
:105110000DF0BCFEED1C089A102A03D8D34AD21B0E
:10512000B441ACD36D1E02E0059D00E06D1C2E461F
:10513000681E032108900DF0ABF8481C032800D02E
:105140000690032801D1354611E00AA8841E069F67
:10515000A01940780CF0AAFB012F07D0B51EA05D66
:105160000CF0A4FBBF1E2E46F2D100E0751E08987D
:10517000022810D36C420AA82818C51EA8780CF083
:1051800095FB68780CF092FB28780CF08FFBE41C00
:10519000ED1E002CF2D1B7480DF02EFA03984569A8
:1051A0000469002D01D4294605E02D200CF07EFB7A
:1051B00000216442A941AE4A0023204606930DF027
:1051C00065FE104619460125059507916A1E08924D
:1051D0000A2204920646069F3B460DF057FE0446FF
:1051E0000D46049A3B460DF021FC301A099F3843C6
:1051F0000AA9089A5054049607980A3E069A9041C4
:1052000036D30A2200262046294633460DF03EFEBC
:105210003A430AA8059BC254089911291D46049FC8
:1052200028D8384664380798B04123D36422002434
:105230003846079E314623460DF028FE0A222346B3
:105240000DF024FE099802430AA8401942707D20FF
:10525000C2003846314623460DF018FEED1C089A70
:10526000102A03D8814AD21BB441ADD36D1E02E08F
:10527000059D00E06D1C2E46681E032108900DF070
:1052800007F8481C032800D00690032801D13546B2
:105290001DE00AA8841E069FA01940780CF006FBAA
:1052A000012F13D0B51EA05D0CF000FBBF1E2E46D3
:1052B000F2D10CE00080FFFFFF7F0000533A0100B5
:1052C000473901008B39010040420F00751E0898D4
:1052D000022810D36C420AA82818C51EA8780CF022
:1052E000E5FA68780CF0E2FA28780CF0DFFAE41CB2
:1052F000ED1E002CF2D10420002529460DF0F8FB0C
:105300005D480DF079F9029800B207F069FB5B483F
:105310000DF072F9019800B207F062FB06202946F1
:105320000DF0E6FB56480DF067F9009C207807F079
:1053300057FB54480DF060F9607807F051FB524874
:105340000DF05AF90398006D01240695294605943D
:105350000791621E08920A2204920546069F3B4668
:105360000DF094FD06460C46049A3B460DF05EFB9C
:10537000281A099F38430AA9089A50540495079897
:105380000A3D069A904136D30A220025304621462E
:105390002B460DF07BFD3A430AA8059BC2540899A1
:1053A00011291C46049F28D8384664380798A8411C
:1053B00023D3642200263846079D294633460DF044
:1053C00065FD0A2233460DF061FD099802430AA8E3
:1053D000001942707D20C2003846294633460DF040
:1053E00055FDE41C089A102A03D8204AD21BAE416E
:1053F000ADD3641E02E0059C00E0641C2646601EDE
:10540000032109900CF044FF481C032803D00546F3
:10541000032803D114E00025032811D00AA8841E14
:105420003746E01940780CF041FA012D07D0BE1E36
:10543000E05D0CF03BFAAD1E3746F2D100E07E1E77
:105440000998022810D374420AA83018C51EA878FB
:105450000CF02CFA68780CF029FA28780CF026FA6F
:10546000E41CED1E002CF2D10FB0F0BDE7030000EC
:1054700040420F0066380100E7390100E8380100BA
:105480009F3A01009B390100F3390100F0B59BB050
:1054900009900DF015FE0C900DF016FE08900DF021
:1054A0001FFE02900DF018FE03900DF0F1FD049028
:1054B0000DF02EFE06900DF02FFE05900DF030FE43
:1054C00007900DF0F1FD07467A3000903846243001
:1054D00001900DF029FE0A9048300B900DF0F8FD78
:1054E000014677310F910D9044300E900DF0E0FDA4
:1054F00006460446243410A80DF00AFB094D09980D
:1055000028600DF031FD28710DF0A2FC089A687139
:105510000C98C088E8801068072100280C9104D0FE
:1055200002E0C046000E20200178297210796872CE
:10553000D08968819089A881907CA8730DF002FDC4
:10554000E873F84948782874C8886882C86968612F
:1055500030882883B078A8767079E876B079287793
:105560003089E883F068286270696862B069A8626F
:10557000B08BA885308CE885708C28862078322105
:1055800068546078332108916854A07834216854B5
:10559000E078352109916854207936216854F06A01
:1055A000A863207B3C216854607B3D216854A07B2C
:1055B0003E216854B08E40216852B06B6864B8696F
:1055C000A8643869E8647869286538885421685285
:1055D0007868A865B868E865F8692866386A686612
:1055E000009A108868216852D0886A216852107A1F
:1055F0006C26A855386D2867786D6867019908682A
:10560000A8674868E867F86A80216850386B842189
:105610006850786B88216850B86B8C216850F86BA3
:1056200090216850386C94216850786C98216850AB
:10563000B86C9C216850F86CA0216850F86EA421C9
:105640006850386FA8216850786FAC216850B86DE9
:10565000B0216850F86DB4216850386EB821685098
:10566000B86EBC21685002980078C02168540DF0D3
:1056700075FCC12168540DF0ADFCC221685403983B
:105680000078C3216854049A1068C4216850908837
:10569000C8216852A34F386ACC216850B86BD0211A
:1056A0006850B88DD42168524820385CD62168549F
:1056B0003B464C330FCBD8242851DC202950E02026
:1056C0002A50E4202B505C20385AE82168525E2092
:1056D000385CEA216854F88DEC2168525F21785CCF
:1056E000EE22A8546020385CEF22A854786EBA6E7F
:1056F000F023E850F4202A50B85BF822A8521698FC
:10570000FC22A850179801221202A8501898412292
:105710009200A85006984068059B5A6810185A696C
:1057200080182122D200A850079C207843229200A2
:10573000A8546278FF2003460E33EA54A2788723E8
:105740005B00EA54A26811231B01EA500A9E3268EA
:1057500045239B00EA5072682323DB00EA50F2687D
:10576000B368092464012B512B195A60726933699B
:105770002524E4002B512B195A60B26913231B0115
:10578000EA50F2694D239B00EA50326A2723DB007E
:10579000EA50726A4F239B00EA50B26A05239B01CC
:1057A000EA50F26A51239B00EA50326B2923DB0056
:1057B000EA500B9CA27853239B00EA54E2780346FC
:1057C0004E33EA542279A7235B00EA54326D152345
:1057D0001B01EA50F26B55239B00EA50326C2B23DD
:1057E000DB00EA50726C57239B00EA5022780B23AF
:1057F0005B01EA54627803466233EA540D9E3288B4
:10580000B1235B00EA52728859239B00EA52327935
:10581000B3235B00EA54B2682D23DB00EA50F26840
:105820005B239B00EA50326917231B01EA50B28BBD
:105830005D239B00EA520E9C2289BB235B00EA5247
:10584000326A2F23DB00EA50326D89006A50716A98
:105850000322D201A950716D61229200A950B16A50
:105860003122D200A950B16D63229200A950F16A91
:1058700019221201A950F16D65229200A950316BD5
:10588000089AD200A950316E67229200A950716B1C
:105890000D225201A950716E69229200A950B16B7C
:1058A000099AD200A950B16E6B229200A950F16BF7
:1058B0001B221201A950F16E6D229200A950316C89
:1058C0003722D200A950316F6F229200A95021884F
:1058D0000C9A9201A952218EE1225200A952E1783C
:1058E00071229200A9540F9B19780246C632A9541E
:1058F0006179E3225200A95499780246C832A9542A
:10590000A1793922D200A954D9780246CA32A954C1
:10591000E179E5225200A9541979CC3029541BB001
:10592000F0BDC046E0122020F0B591B00DF0C0FBF4
:105930000546044626340DF0DBFB0B902620285C40
:10594000401EC0B2022803D88000F249085800E087
:10595000F148099060780390E07A02900026304682
:1059600031460DF0C5F8ED480CF046FE0A956C790D
:1059700030253127E007284600D038460BF096FF47
:10598000A007284600D538460BF090FF6007284650
:1059900000D538460BF08AFF2007284600D5384648
:1059A0000BF084FFE006284600D538460BF07EFF5A
:1059B000A006284600D538460BF078FF600600D5D3
:1059C0003D4628460BF072FF022031460DF090F85C
:1059D000E4480CF011FE09980CF00EFEE2480CF0C1
:1059E0000BFE08200A9C205E06F0FAFF2F200BF029
:1059F0005DFFE568284629460DF0ECF9002813D133
:105A0000DA4EDB4928460BF079FD00280CD1C7207F
:105A1000010628460BF054FD002801D0761C03E057
:105A200028460CF065FD064630B206F0D9FF04208A
:105A3000002529460DF05CF8CE480CF0DDFD1C2059
:105A4000205E06F0CDFFCC480CF0D6FD2020205E75
:105A500006F0C6FFC9480CF0CFFD2220205E06F0FC
:105A6000BFFF0620099529460DF042F8C4480CF006
:105A7000C3FD0B984469C34920460CF009FC054658
:105A80007D20C100204604910CF002FC3C210CF06A
:105A9000FFFB0791BC480194844202D830200BF0F0
:105AA00005FF01270999284606970A917A1E0B924D
:105AB0000A2208920446099E33460DF0E7F905468E
:105AC0000F46089A33460CF0B1FF201A30263043B7
:105AD0000CA90B9A505405940A980A3C099A9041D3
