:1000000000802020D326010017F9000017F9000016
:1000100000000000000000000000000000000000E0
:1000200000000000000000000000000017F90000C0
:10003000000000000000000017F90000D5F50000E6
:1000400017F900005D20010017F90000890C01007C
:1000500017F9000017F9000017F9000017F9000060
:100060000000000017F9000017F900000000000070
:100070000000000017F9000017F9000017F9000050
:1000800017F9000017F9000017F9000017F9000030
:1000900017F9000017F90000000000000000000040
:1000A00017F9000017F90000000000000000000030
:1000B00017F900000000000017F9000017F9000010
:1000C000F0B5C3B01AAF0BAE16480178491CCAB2DE
:1000D0000170052A2AD31D460024047011F056FF32
:1000E00012F034FA401E16281ED84000784480884A
:1000F00040008744FF020401190190029800BB01EF
:100100002A00E901B90205041900190019001900B3
:100110001900190019001900190019004D027C027C
:100120007803C046451120200BF06AFCE54C20788E
:100130004006000E0CF0DCFA2078401CC1B2032906
:1001400000D90020207043B0F0BD12F09DFA0646A1
:1001500012F08AFA054612F083FA044612F05CFAAD
:100160000A9000273846394611F098FFF94811F0F7
:10017000D7FC68780CF074FBF74811F0D1FC12F052
:1001800009FA0CF06DFBF54811F0CAFC12F0F6F913
:100190000CF066FBF24811F0C3FC20780CF060FB19
:1001A000F04811F0BDFCE0780CF05AFB0220394613
:1001B00011F074FFEC4811F0B3FC7078002800D007
:1001C000778838B20CF04CFBE54811F0A9FCA87810
:1001D0000CF046FB04200026314611F05FFFE34897
:1001E00011F09EFCA8790CF03BFBE14811F098FC63
:1001F000E8790CF035FB0620314611F04FFF0A9CE0
:100200002088002801D100F0E5FDDA4811F088FCD3
:1002100020880EF0EFFE11F083FCD74811F080FC2F
:10022000201D00F0DBFD002612F002FA04463046E5
:10023000314611F033FFCC4811F072FC0494E06AAF
:10024000012507963146069508916A1E09920A22F1
:100250000A920746079D2B4612F0DAF804460E462E
:100260000A9A2B4611F0C8FE381A302528431AA9DD
:10027000099A5054059708980A3F079A90410A95A1
:1002800001D200F031FE0A220027204631463B46CB
:1002900012F0BEF82A431AA8069BC25409991129E4
:1002A0001D46059E01D900F023FE304664380898AB
:1002B000B84101D200F01CFE642200243046089FA1
:1002C0003946234612F0A4F80A22234612F0A0F879
:1002D0000A9802431AA8401942707D20C200304695
:1002E0003946234612F094F8ED1C099A102A03D8D7
:1002F000A24A921BBC41A6D36D1E00F0FAFD12F07B
:100300009BF905460446263412F0B6F92621695CAD
:10031000491EC9B202290A9001D900F0D1FC880017
:100320009749085800F0CDFC12F082F904460069A4
:10033000944D29460FF09CFD11F054FB074692485E
:10034000874200DC904F914EB74200DB3746606930
:1003500029460FF08DFD11F045FBFE49884200DC77
:10036000FC48B04200DB30460A90A06911F03AFB2D
:100370000546F848854200DCF64D204624300990B9
:10038000B54200DB354600263046314611F086FE88
:10039000F84811F0C5FB28460CF062FAF64811F057
:1003A000BFFB38460CF05CFA0220314611F076FEB5
:1003B000F24811F0B5FB5020205E0CF051FA68486D
:1003C00011F0AEFB099DA8780CF04AFA6A4811F0CA
:1003D000A7FBE8780CF044FA604811F0A1FBA06D8F
:1003E000E24FB84200DC3846E149884200DBE04891
:1003F0000CF036FA0420314611F050FEE04811F0BE
:100400008FFBE06DB84200DC3846D949884200DBFA
:10041000D7480CF025FADB4811F082FB206EB84279
:1004200000DC3846D249884200DB08460CF018FA56
:10043000D54811F075FB68790CF012FA06203146A8
:1004400011F02CFED14811F06BFB0A980CF008FA61
:10045000CF4811F065FB2420205C0CF001FACD4858
:1004600011F05EFB68780CF0FBF95FE612F0E0F843
:10047000054612F0EDF804460895A86911F0B2FAA5
:10048000BA49884200DC08460A94B949884200DB30
:100490000846C14DE9782C4634340429099001D12D
:1004A00002F093FA11F08CFF062801D102F08DFAC8
:1004B000E878052801D002F085FA2C46443402F091
:1004C00084FAC0464411202012F0EEF807468069F5
:1004D00011F088FAA54CA04200DC2046A44EB042A0
:1004E00000DB30460390F86911F07CFAA04200DC92
:1004F0002046B04200DB30460290002528462946BF
:1005000011F0CCFDA54811F00BFB3868A04200DCCF
:100510002046B04200DB30460CF0A2F9A04811F0B2
:10052000FFFA7868A04200DC2046B04200DB30468B
:100530000CF096F90220294611F0B0FD994811F00F
:10054000EFFAFC68B868002C01D500F04CFC254699
:1005500000F051FC34300100F32E01002F2F010078
:100560004F2F0100DF2E0100DD2F0100572F01006A
:10057000372E010031300100F72E0100E7030000A3
:10058000502B0100000020410080FFFFFF7F000092
:10059000774F12F071F805460A90DC352046214667
:1005A00011F07CFD804811F0BBFA68686E490FF0CD
:1005B0005FFC0646014611F0C5FE0028204601D02A
:1005C00001F08EFD7949304610F094FA0028384643
:1005D00001D001F085FDC7200106304610F06CFA0D
:1005E000002801D101F079FD781C01F079FD38ACCB
:1005F000204611F083FC31A810F0CAFF1AA810F0B1
:100600007DFD0BA811F01EFB207DE17C002900D1AF
:10061000C5E3674DC4E3564F12F00AF805460A9049
:10062000006A51490FF024FC0646014611F08AFE8B
:10063000002100280C46084601D001F0AAFE5B49C3
:10064000304610F057FA0028384601D001F0A1FEDC
:10065000C7200106304610F02FFA002801D101F022
:1006600095FE781C01F095FE414E11F0F5FF054610
:100670000A9012F019F8099000242046214611F042
:100680000DFD4C4811F04CFA434F1220385E0CF02F
:10069000E7F82F2010F008FC1420385E0CF0E0F88A
:1006A0000220214611F0FAFC434811F039FA686A39
:1006B0002D490FF0DDFB0746014611F043FE0028EF
:1006C0000894204601D001F0DCFF3849384610F08C
:1006D00011FA0028304601D001F0D3FFC7200106EF
:1006E000384610F0E9F9002801D101F0C7FF701C6D
:1006F00001F0C7FF11F030FF0646002420462146D6
:1007000011F0CCFC2D4811F00BFA0220214611F01B
:10071000C5FC3E2010F0C8FB304611F0E3FD11F09F
:10072000FFF90420214611F0B9FC254811F0F8F931
:1007300030460EF03FFE0CF093F80620214611F0F3
:10074000ADFC072E01D902F02DF903A176008E5BD6
:100750007600B7440080FFFF3700E311241229120E
:100760002E12D11127111512000020410080FFFF29
:10077000FF7F0000E92F01008F2C0100032F0100F3
:10078000972F01005A2E0100412E0100192E010061
:10079000FB2E01005B2F0100E00B20207F2F0100CA
:1007A000D32D0100EB2E01003C2E010000FEFF4680
:1007B000C42D010019300100DD2D0100892C01003C
:1007C000732E010010F03CF8054611F039FF04B219
:1007D000002801D102F07CFDA1B2681C10F0B8FF26
:1007E0004D1C02F076FD3B4E11F00EFF0446C06832
:1007F000000C304600D1E0680890A069B042304655
:1008000000D8A0690A902069B042304600D820691B
:1008100009906068B042374600D86768A068B04267
:10082000304600D8A0680790E069B04200D8E66979
:1008300000252846294611F031FC274811F070F9AF
:1008400020780CF00DF8254811F06AF960780CF06A
:1008500007F8234811F064F9A0780CF001F80220A1
:10086000294611F01BFC1F4811F05AF9089880B274
:100870000EF0AEF91C4811F053F9207D0EF0A8F9E6
:100880000420294611F00AFC184811F049F9B8B2C1
:100890000EF09EF9164811F043F9079880B20EF059
:1008A00097F90620294611F0F9FB124811F038F9A2
:1008B0000A9880B20EF08CF90F4811F031F90998BE
:1008C00080B20EF085F90D4811F02AF9B0B20EF0A1
:1008D0007FF92BE4FFFF00002C2C01007B2F01008F
:1008E000F32E01005F2F01003F2F0100E22D0100D8
:1008F000732F0100E62F0100232F0100DF2E0100DE
:10090000E24C11F0A9FE074600252846294611F0C1
:10091000C5FBDF4811F004F9FE6A3046314611F09C
:1009200011FD0028284610D1DA49304610F0E2F8CF
:100930000028D94809D1D949304610F0BDF800281F
:10094000204602D1304611F04DF800B20BF088FF7E
:100950002F2010F0A9FAFE6D3046314611F0F2FC5E
:100960000028284610D1CB49304610F0C3F80028A3
:10097000C94809D1C949304610F09EF800282046E0
:1009800002D1304611F02EF800B20BF069FF0220C0
:10099000294611F083FBC24811F0C2F8FE6B3046C5
:1009A000314611F0CFFC0028284610D1B949304615
:1009B00010F0A0F80028B84809D1B849304610F026
:1009C0007BF80028204602D1304611F00BF800B227
:1009D0000BF046FF2F2010F067FAFE6E30463146CE
:1009E00011F0B0FC0028284610D1AA49304610F07A
:1009F00081F80028A84809D1A849304610F05CF8D1
:100A00000028204602D1304610F0ECFF00B20BF077
:100A100027FFA44811F084F87E6B3046314611F070
:100A200091FC0028284610D19A49304610F062F80F
:100A30000028994809D19949304610F03DF800281E
:100A4000204602D1304610F0CDFF00B20BF008FF77
:100A50002F2010F029FA7E6E3046314611F072FCDC
:100A60000028284610D18B49304610F043F8002862
:100A7000894809D18949304610F01EF800282046DF
:100A800002D1304610F0AEFF00B20BF0E9FE0420B8
:100A9000294611F003FB844811F042F83E6B3046C2
:100AA000314611F04FFC0028284610D179493046D4
:100AB00010F020F80028784809D1784930460FF026
:100AC000FBFF0028204602D1304610F08BFF00B219
:100AD0000BF0C6FE2F2010F0E7F93E6E304631468F
:100AE00011F030FC0028284610D16A49304610F039
:100AF00001F80028684809D1684930460FF0DCFF4A
:100B00000028204602D1304610F06CFF00B20BF0F6
:100B1000A7FE664811F004F8BE6B3046314611F06E
:100B200011FC0028284610D15A4930460FF0E2FF48
:100B30000028594809D1594930460FF0BDFF002817
:100B4000204602D1304610F04DFF00B20BF088FE77
:100B50002F2010F0A9F9BE6E3046314611F0F2FB9D
:100B60000028284610D14B4930460FF0C3FF00281B
:100B7000494809D1494930460FF09EFF00282046D8
:100B800002D1304610F02EFF00B20BF069FE0620B5
:100B9000294611F083FA464810F0C2FF3E6C3046F9
:100BA000314611F0CFFB0028284610D13949304694
:100BB0000FF0A0FF0028384809D1384930460FF01F
:100BC0007BFF0028204602D1304610F00BFF3C4648
:100BD000493400B20BF044FE2F2010F065F93E6F4F
:100BE0003046314611F0AEFB002811D1294930467C
:100BF0000FF080FF0028284D0AD1284930460FF019
:100C00005BFF0028214D03D1304610F0EBFE054676
:100C1000793728B20BF024FE264810F081FF2078A7
:100C200041254F260028284600D0304610F03CF9D8
:100C30003878002800D03546284610F035F91E488F
:100C400010F06EFFA078302531260028284600D00D
:100C5000304610F029F9B8780028284600D03046F0
:100C600010F022F9154810F05BFF60780028284644
:100C700000D0304610F018F97878002800D03546BA
:100C8000284610F011F9FFF751FAC04619FC000090
:100C90000D30010000C07944E703000000C079C4B2
:100CA00031300100732F01000B2F0100FB2E0100DA
:100CB00022300100013001001F300100DA2F010055
:100CC000F448089060780290E07A0190002630465F
:100CD000314611F0E3F9F04810F022FF09956C79E4
:100CE00030253127E007284600D0384610F0DCF8E0
:100CF000A007284600D5384610F0D6F860072846E9
:100D000000D5384610F0D0F82007284600D53846E0
:100D100010F0CAF8E006284600D5384610F0C4F8AE
:100D2000A006284600D5384610F0BEF8600600D56B
:100D30003D46284610F0B8F80220314611F0AEF9D1
:100D4000D64810F0EDFE089810F0EAFED44810F0F6
:100D5000E7FE0820099C205E0BF082FD2F2010F09A
:100D6000A3F8E5682846294611F0ECFA002801D0DE
:100D700001F006F8CB4ECC4928460FF0BBFE002808
:100D800001D000F0FDFFC720010628460FF094FEB9
:100D9000002801D100F0F0FF761C00F0F1FFC34DF8
:100DA0004937002800D0C24D38790028049700D177
:100DB00082E00020014611F071F9BE4810F0B0FE4B
:100DC000B87A401EC0B2022800D9D6E08000BA49E5
:100DD0000858D3E0B94810F0A3FE281D805F0BF03F
:100DE0003FFDFFF7A3F92D210646084610F05CF8F9
:100DF00030467042A54104974A3701970023B04A14
:100E00002946079311F004FB104619460125069563
:100E100008916A1E09920A220A920646079F3B46DB
:100E200011F0F6FA04460D460A9A3B4611F0E4F832
:100E3000301A302738431AA9099A50540596089851
:100E40000A3E079A90410A9750D30A22002620466C
:100E50002946334611F0DCFA3A431AA8069BC254DD
:100E6000099911291D46059F63D8384664380898AA
:100E7000B0415ED3642200243846089E31462346A2
:100E800011F0C6FA0A22234611F0C2FA0A98024368
:100E90001AA8401942707D20C200384631462346C8
:100EA00011F0B6FAED1C099A102A03D8854AD21B14
:100EB000B441ACD36D1E3DE0B879002801D101F0FA
:100EC0002CFD0020014611F0E9F87F4810F028FEC3
:100ED000387B401EC0B2022801D901F06FFE8000AD
:100EE0007A49085801F06BFE069D02E0069D21E05C
:100EF0006D1C681E0321099010F02AFC481C032871
:100F000001D0044600E00024032800D1E9E01AA83B
:100F10002F46861EF01940780FF0C6FF012C00D135
:100F2000DEE0BD1EF05D0FF0BFFFA41E2F46F1D125
:100F3000D7E06D1C2E46681E0321099010F008FCB6
:100F4000481C032800D00790032802D1354600F042
:100F500093FD1AA8841E079FA01940780FF0A4FFE4
:100F6000012F01D100F087FDB51EA05D0FF09CFFA1
:100F7000BF1E2E46F0D100F07FFD554810F0D0FD89
:100F8000544810F0CDFD387B401EC0B2022803D873
:100F900080004E49085800E04F48002410F0C0FD82
:100FA00002200594214611F079F84C4810F0B8FD64
:100FB0003878002801D101F0ACFC1B9C002C03D533
:100FC0002D200FF071FF64423D49204610F0C0FB18
:100FD00008460124059908940991621E0A920A2282
:100FE00007920646059D2B4611F012FA07460C465D
:100FF000079A2B4611F000F8301A302318433EA907
:101000000A9A5054079609990A3E0846A84101D207
:1010100001F0A4FC0A220D460026384621461C4653
:10102000334611F0F5F9234622433EA8089C0255A9
:101030000A991129079A01D901F092FC10466438E7
:101040002846B04101D201F08BFC164664220027ED
:101050003046294606933B4611F0DAF90A223B4610
:1010600011F0D6F9069802433EA8001942707D207F
:10107000C200304629463B4611F0CAF9E41C0A9AE0
:10108000102A03D80F4A921BAF41A4D3641E01F06B
:1010900068FCC046AB2F0100042C0100D12F0100D9
:1010A000472F0100FF7F000000FEFF46132F0100C5
:1010B000E72E0100962E01002C2B0100A12C01002F
:1010C00040420F00E703000031300100442B0100D3
:1010D000552E01008B2F01000A300100BA2D0100AE
:1010E0007D1E0998022810D36C421AA82818C51E24
:1010F000A8780FF0D9FE68780FF0D6FE28780FF0A8
:10110000D3FEE41CED1E002CF2D1D34810F008FDF4
:101110000498006B002101250791069508916A1E2D
:1011200009920A2205920746079D2B4611F070F995
:1011300004460E46059A2B4610F05EFF381A0A9DAB
:1011400028431AA9099A5054059708980A3F079A04
:10115000904136D30A220027204631463B4611F003
:1011600057F92A431AA8069BC254099911291D460A
:10117000059E28D8304664380898B84123D36422A5
:1011800000243046089F3946234611F041F90A22CF
:10119000234611F03DF90A9802431AA840194270FB
:1011A0007D20C20030463946234611F031F9ED1C4E
:1011B000099A102A03D8A94A921BBC41ADD36D1ECF
:1011C00002E0069D00E06D1C681E0321099010F0EE
:1011D000BFFA481C032801D0044600E0002403287D
:1011E00011D01AA82F46861EF01940780FF05CFE29
:1011F000012C07D0BD1EF05D0FF056FEA41E2F4639
:10120000F2D100E07D1E0998022810D36C421AA882
:101210002818C51EA8780FF047FE68780FF044FE26
:1012200028780FF041FEE41CED1E002CF2D10220C4
:101230000024214610F032FF894810F071FC049818
:10124000406B012507942146069508916A1E099274
:101250000A2205920746079D2B4611F0D9F804464D
:101260000E46059A2B4610F0C7FE381A0A9D2843F1
:101270001AA9099A5054059708980A3F079A90416D
:1012800036D30A220027204631463B4611F0C0F8EB
:101290002A431AA8069BC254099911291D46059E86
:1012A00028D8304664380898B84123D364220024F3
:1012B0003046089F3946234611F0AAF80A222346F1
:1012C00011F0A6F80A9802431AA8401942707D202E
:1012D000C20030463946234611F09AF8ED1C099AAF
:1012E000102A03D85D4A921BBC41ADD36D1E02E0AB
:1012F000069D00E06D1C681E0321099010F028FA7D
:10130000481C032801D0044600E00024032811D023
:101310001AA82F46861EF01940780FF0C5FD012C43
:1013200007D0BD1EF05D0FF0BFFDA41E2F46F2D109
:1013300000E07D1E0998022810D36C421AA82818D4
:10134000C51EA8780FF0B0FD68780FF0ADFD2878C5
:101350000FF0AAFDE41CED1E002CF2D1414810F064
:10136000DFFB0498806B0021012507910695089109
:101370006A1E09920A2205920746079D2B4611F024
:1013800047F804460E46059A2B4610F035FE381AEB
:101390000A9D28431AA9099A5054059708980A3FAC
:1013A000079A904136D30A220027204631463B4611
:1013B00011F02EF82A431AA8069BC2540999112944
:1013C0001D46059E28D8304664380898B84123D376
:1013D000642200243046089F3946234611F018F84D
:1013E0000A22234611F014F80A9802431AA8401959
:1013F00042707D20C20030463946234611F008F87D
:10140000ED1C099A102A03D8144A921BBC41ADD393
:101410006D1E02E0069D00E06D1C681E0321099010
:1014200010F096F9481C032801D0044600E000247F
:1014300003281AD01AA82F46861EF01940780FF0FC
:1014400033FD012C10D0BD1EF05D0FF02DFDA41E4C
:101450002F46F2D109E0C046C82E0100E703000084
:10146000932F0100D22E01007D1E0998022810D36F
:101470006C421AA82818C51EA8780FF015FD6878C8
:101480000FF012FD28780FF00FFDE41CED1E002C6C
:10149000F2D104200024214610F000FED24810F0C2
:1014A0003FFB0498C06B01250794214606950891DF
:1014B0006A1E09920A2205920746079D2B4610F0E4
:1014C000A7FF04460E46059A2B4610F095FD381AE4
:1014D0000A9D28431AA9099A5054059708980A3F6B
:1014E000079A904136D30A220027204631463B46D0
:1014F00010F08EFF2A431AA8069BC254099911299D
:101500001D46059E28D8304664380898B84123D334
:10151000642200243046089F3946234610F078FFA5
:101520000A22234610F074FF0A9802431AA84019B1
:1015300042707D20C20030463946234610F068FFD5
:10154000ED1C099A102A03D8A84A921BBC41ADD3BE
:101550006D1E02E0069D00E06D1C681E03210990CF
:1015600010F0F6F8481C032801D0044600E00024DF
:10157000032811D01AA82F46861EF01940780FF0C4
:1015800093FC012C07D0BD1EF05D0FF08DFCA41E56
:101590002F46F2D100E07D1E0998022810D36C423C
:1015A0001AA82818C51EA8780FF07EFC68780FF0DE
:1015B0007BFC28780FF078FCE41CED1E002CF2D1A7
:1015C0008B4810F0ADFA0498C06C002101250791FA
:1015D000069508916A1E09920A2205920746079D00
:1015E0002B4610F015FF04460E46059A2B4610F0C8
:1015F00003FD381A0A9D28431AA9099A50540597E1
:1016000008980A3F079A904136D30A2200272046BD
:1016100031463B4610F0FCFE2A431AA8069BC254F2
:10162000099911291D46059E28D830466438089826
:10163000B84123D3642200243046089F394623460C
:1016400010F0E6FE0A22234610F0E2FE0A9802435A
:101650001AA8401942707D20C20030463946234600
:1016600010F0D6FEED1C099A102A03D85F4A921B8F
:10167000BC41ADD36D1E02E0069D00E06D1C681EEE
:101680000321099010F064F8481C032801D0044697
:1016900000E00024032811D01AA82F46861EF01956
:1016A00040780FF001FC012C07D0BD1EF05D0FF05B
:1016B000FBFBA41E2F46F2D100E07D1E09980228F4
:1016C00010D36C421AA82818C51EA8780FF0ECFB9E
:1016D00068780FF0E9FB28780FF0E6FBE41CED1EBC
:1016E000002CF2D106200024214610F0D7FC4148FE
:1016F00010F016FA0498006C01250794214606950F
:1017000008916A1E09920A2205920746079D2B46F8
:1017100010F07EFE04460E46059A2B4610F06CFC37
:10172000381A0A9D28431AA9099A5054059708980F
:101730000A3F079A904136D30A22002720463146B5
:101740003B4610F065FE2A431AA8069BC25409992D
:1017500011291D46059E28D8304664380898B8419E
:1017600023D3642200243046089F3946234610F0D4
:101770004FFE0A22234610F04BFE0A9802431AA895
:10178000401942707D20C20030463946234610F091
:101790003FFEED1C099A102A03D8144A921BBC4143
:1017A000ADD36D1E02E0069D00E06D1C681E032196
:1017B00009900FF0CDFF481C032801D0044600E03B
:1017C0000024032819D01AA82F46861EF019407845
:1017D0000FF06AFB012C0FD0BD1EF05D0FF064FB13
:1017E000A41E2F46F2D108E09F2F0100E70300005E
:1017F0000F2E0100B72F01007D1E0998022810D37B
:101800006C421AA82818C51EA8780FF04DFB6878FE
:101810000FF04AFB28780FF047FBE41CED1E002C6C
:10182000F2D1E84810F07CF90498406C00210125C1
:101830000791069508916A1E09920A2205920746A9
:10184000079D2B4610F0E4FD04460E46059A2B46F4
:1018500010F0D2FB381A0A9D28431AA9099A50544D
:10186000059708980A3F079A904136D30A22002725
:10187000204631463B4610F0CBFD2A431AA8069B72
:10188000C254099911291D46059E28D8304664384E
:101890000898B84123D3642200243046089F394673
:1018A000234610F0B5FD0A22234610F0B1FD0A9838
:1018B00002431AA8401942707D20C20030463946C2
:1018C000234610F0A5FDED1C099A102A03D8BE4A44
:1018D000921BBC41ADD36D1E02E0069D00E06D1C65
:1018E000681E032109900FF033FF481C032801D024
:1018F000044600E00024032811D01AA82F46861EB3
:10190000F01940780FF0D0FA012C07D0BD1EF05D21
:101910000FF0CAFAA41E2F46F2D100E07D1E0998EE
:10192000022810D36C421AA82818C51EA8780FF0F8
:10193000BBFA68780FF0B8FA28780FF0B5FAE41C13
:10194000ED1E002CF2D1A14810F0EAF80498866C44
:10195000002001240790014606940991601E08901A
:101960000A2205923046079D2B4610F051FD07468E
:101970000C46059A2B4610F03FFB301A0A9D28436F
:101980001AA9089A505405960A3E09980799884161
:1019900036D30A22002638462146334610F038FD59
:1019A00009992A431AA8069C0255089B112B059DEC
:1019B00028D8284664380846B04123D364221E46FE
:1019C000002728463B4610F023FD0A223B4610F034
:1019D0001FFD0A9802431AA8001942707D20C20018
:1019E000284609993B4610F013FD099BE41C102E74
:1019F00004D8754A521B9F410646ADD3641E02E0CF
:101A0000069C00E0641C2646601E03210A900FF02D
:101A10009FFE481C032801D0054600E0002503284E
:101A200011D01AA8841E3746E01940780FF03CFA0E
:101A3000012D07D0BE1EE05D0FF036FAAD1E374611
:101A4000F2D100E07E1E0A98022801D2FEF76EFB5A
:101A500074421AA83018C51EA8780FF025FA6878C5
:101A60000FF022FA28780FF01FFAE41CED1E002C6C
:101A7000F2D1FEF75BFB751E0998022810D36C4269
:101A80001AA82818C51EA8780FF00EFA68780FF06B
:101A90000BFA28780FF008FAE41CED1E002CF2D1A6
:101AA0004B4810F03DF8049844690069002C01D4BB
:101AB000214608E02D21054608460FF0F5F9284695
:101AC00000216842A141434A0023079310F0A0FC83
:101AD000104619460125069508916A1E09920A22A8
:101AE00005920646079F3B4610F092FC04460D46C1
:101AF000059A3B4610F080FA301A0A9F38431AA91B
:101B0000099A5054059608980A3E079A904136D390
:101B10000A22002620462946334610F079FC3A4333
:101B20001AA8069BC254099911291D46059F28D859
:101B3000384664380898B04123D3642200243846DC
:101B4000089E3146234610F063FC0A22234610F01B
:101B50005FFC0A9802431AA8401942707D20C20017
:101B600038463146234610F053FCED1C099A102AE2
:101B700003D8154AD21BB441ADD36D1E02E0069DB9
:101B800000E06D1C2E46681E032109900FF0E0FD59
:101B9000481C032800D00790032801D135461CE0DB
:101BA0001AA8841E079FA01940780FF07DF9012F15
:101BB00012D0B51EA05D0FF077F9BF1E2E46F2D1F0
:101BC0000BE0C046232E0100E7030000D82D0100E2
:101BD000BF2D010040420F00751E0998022810D346
:101BE0006C421AA82818C51EA8780FF05DF968780D
:101BF0000FF05AF928780FF057F9E41CED1E002C6D
:101C0000F2D104200025294610F048FAFC480FF0D4
:101C100087FF039800B20AF023FEFA480FF080FF16
:101C2000029800B20AF01CFE0620294610F036FA8F
:101C3000F5480FF075FF019C20780AF011FEF3487B
:101C40000FF06EFF60780AF00BFEF1480FF068FFAE
:101C50000498006D01240795294606940891621E98
:101C600009920A2205920546079F3B4610F0D0FBD9
:101C700006460C46059A3B4610F0BEF9281A0A9F04
:101C800038431AA9099A5054059508980A3D079AAD
:101C9000904136D30A220025304621462B4610F0CB
:101CA000B7FB3A431AA8069BC254099911291C464E
:101CB000059F28D8384664380898A84123D3642261
:101CC00000263846089D2946334610F0A1FB0A221B
:101CD000334610F09DFB0A9802431AA8001942707F
:101CE0007D20C20038462946334610F091FBE41CA3
:101CF000099A102A03D8C74AD21BAE41ADD3641E3D
:101D000002E0069C00E0641C2646601E03210A9047
:101D10000FF01EFD481C032801D0054600E00025F9
:101D2000032811D01AA8841E3746E01940780FF016
:101D3000BBF8012D07D0BE1EE05D0FF0B5F8AD1E5B
:101D40003746F2D100E07E1E0A98022801D2FEF743
:101D5000EDF974421AA83018C51EA8780FF0A4F83F
:101D600068780FF0A1F828780FF09EF8E41CED1EBB
:101D7000002CF2D1FEF7DAF928460FF033FE0646C2
:101D800030B20AF06DFD04200025294610F086F9D6
:101D9000A1480FF0C5FE1C20205E0AF061FD9F489F
:101DA0000FF0BEFE2020205E0AF05AFD9C480FF086
:101DB000B7FE2220205E0AF053FD06200895294632
:101DC00010F06CF997480FF0ABFE0A9844699649F9
:101DD00020460FF0BDFC05467D20C1002046039142
:101DE0000FF0B6FC3C210FF0B3FC06918F48009435
:101DF000844202D830200FF057F80127089928466E
:101E0000059709917A1E0A920A2207920446089EB3
:101E1000334610F0FDFA05460F46079A334610F098
:101E2000EBF8201A302630431AA90A9A5054049429
:101E300009980A3C089A9041079635D30A22002453
:101E400028463946234610F0E3FA32431AA8059B88
:101E5000C2540A9911291F46049E27D83046643877
:101E60000998A04122D3642200253046099C2146CE
:101E70002B4610F0CDFA0A222B4610F0C9FA07982B
:101E800002431AA8C019427030462146039A2B46D5
:101E900010F0BEFAFF1C0A9A102A03D85D4A921B62
:101EA000A541ADD37F1E02E0059F00E07F1C781E98
:101EB00003210A900FF04CFC481C032801D0054672
:101EC00000E00025032801D13E4610E01AA8841E38
:101ED000E01940780EF0E8FF012D07D0BE1EE05D4E
:101EE0000EF0E2FFAD1E3746F2D100E07E1E0A98EA
:101EF000022810D374421AA83018C51EA8780EF014
:101F0000D3FF68780EF0D0FF28780EF0CDFFE41CE8
:101F1000ED1E002CF2D13A200EF0C6FF069D092DD1
:101F200002D830200EF0C0FF00210120099004915A
:101F30000A910998401E08900A2628463246049CB9
:101F4000234610F065FA0F4605903246234610F0FE
:101F500053F8281A079E30431AA9089A5054069538
:101F60000A3D0A98A04137D30A2200240598394631
:101F7000234610F04DFA0A9932431AA8099BC2541D
:101F8000089B112B069D29D8284664380846A04195
:101F900024D36422002728463B4610F039FA0A224F
:101FA0003B4610F035FA32431AA8099C00194270DA
:101FB00028460A99039A3B4610F02AFA0A9BE41C29
:101FC0000994089A102A04D8124A521B9F410546C8
:101FD000AED3099D6D1E03E0099D01E0099D6D1CB6
:101FE000681E03210A900FF0B3FB481C032801D0A0
:101FF000064600E0002603281AD12F4629E0C046F5
:10200000AF2F0100642E01001C300100F72E0100EB
:10201000472F0100E7030000193001003F2F0100A6
:10202000172F0100E62F010060EA0000BF2709001A
:102030001AA8841E601940780EF036FF012E07D0D2
:10204000AF1E605D0EF030FFB61E3D46F2D100E0DF
:102050006F1E0A98022810D37C421AA83818C51E91
:10206000A8780EF021FF68780EF01EFF28780EF099
:102070001BFFE41CED1E002CF2D10199022901D0B6
:10208000F64C00E0F64C029A0098012900D1F54C7C
:10209000012A01D0552500E05225FF2A00D14C2508
:1020A00064210FF055FB0A210FF052FB0E462E2043
:1020B0000EF0FAFE0798064330460EF0F5FEEA48A9
:1020C0000FF02EFD28460EF0EFFEE8480FF028FD39
:1020D00020460FF025FDFEF729F830460FF082FC70
:1020E00000B20AF0BDFB2F200EF0DEFE2868E049AA
:1020F0000DF0BEFE0646014610F024F900282046E9
:1021000012D1DC4930460EF0F5FC002838460BD1E0
:10211000C720010630460EF0CFFC002801D0781C05
:1021200002E030460FF05EFC00B20AF099FBCF48A7
:102130000FF0F6FCA868CE490DF09AFE064601465F
:1021400010F000F90028204612D1CA4930460EF09E
:10215000D1FC002838460BD1C720010630460EF0CE
:10216000ABFC002801D0781C02E030460FF03AFCAE
:10217000532700B20AF074FB022021460FF08EFFB5
:10218000BD480FF0CDFC0A98866C3046314610F001
:10219000D9F80028204613D1B64930460EF0AAFCE3
:1021A0000028B6480CD1C720010630460EF084FC4A
:1021B000002802D0B148401C02E030460FF012FC6B
:1021C000BF0000B20AF04CFBAD480FF0A9FC6E69ED
:1021D0003046314610F0B6F80028204613D1A54904
:1021E00030460EF087FC0028A4480CD1C720010619
:1021F00030460EF061FC002802D0A048401C02E0EE
:1022000030460FF0EFFB0A99C919099100B20AF0A4
:1022100027FB9C480FF084FCA86995490DF028FE27
:102220000646014610F08EF800282046934F12D142
:10223000904930460EF05EFC002838460BD1C7208E
:10224000010630460EF038FC002801D0781C02E070
:1022500030460FF0C7FB00B20AF002FB0420214613
:102260000FF01CFF88480FF05BFC2820099E305EB1
:102270000AF0F6FA2F200EF017FE2A20305E0AF040
:10228000EFFA82480FF04CFC1C20285E0AF0E8FAB6
:10229000062021460FF002FF7D480FF041FCE86D5B
:1022A00073490DF0E5FD0646014610F04BF8002895
:1022B000204612D16F4930460EF01CFC00283846EB
:1022C0000BD1C720010630460EF0F6FB002801D0E6
:1022D000781C02E030460FF085FB0A9F783700B289
:1022E0000AF0BEFA2F200EF0DFFD286E60490DF0D7
:1022F000BFFD0646014610F025F80028204614D1FF
:102300005C4930460EF0F6FB002801D05B480CE03B
:10231000C720010630460EF0CFFB002802D05748F8
:10232000401C02E030460FF05DFB0A99D6310A915D
:1023300000B20AF095FA57480FF0F2FB09980078BE
:102340000AF08EFA3878002808D07878002805D06E
:10235000B878002802D0F8784442444120460AF078
:102360007FFA20200EF0A0FD0A980078401EC0B22F
:10237000062806D88000484908580FF0D1FBFDF721
:10238000D5FE46480FF0CCFBFDF7D0FE30460FF0EF
:1023900029FB0890686836490DF06AFD064601463B
:1023A0000FF0D0FF0028204612D1324930460EF0FF
:1023B000A1FB002838460BD1C720010630460EF09D
:1023C0007BFB002801D0781C02E030460FF00AFBAE
:1023D00007900995A86826490DF04AFD0746014671
:1023E0000FF0B0FF0028204613D1224938460EF0E6
:1023F00081FB002821480CD1C720010638460EF089
:102400005BFB002802D01D48401C02E038460FF05C
:10241000E9FA06900A9805467A352A300A90099812
:10242000C0691F490DF024FD064601460FF08AFFE2
:10243000002827463AD10F4930460EF05BFB0028B2
:1024400001D00E4F32E0C720010630460EF034FBBB
:1024500000280A4826D0471C28E0C046F22B01007D
:102460005F2E01000F2F01007B2F0100172F0100AD
:102470000000204100FEFF46E92F0100FF7F000021
:10248000A32F0100472F010019300100F32E010096
:10249000F52F01004F2F010084290100552E010066
:1024A0000000C84230460FF09DFA074620462146FC
:1024B0000FF0F4FDFA480FF033FB28780AF0D0F95A
:1024C000F8480FF02DFB68780AF0CAF9F6480FF0CB
:1024D00027FB089800B20AF0C3F9F4480FF020FB7C
:1024E000082028560AF0BCF9022021460FF0D6FD3C
:1024F000EF480FF015FB099D285F0AF0B1F9ED4890
:102500000FF00EFB079800B20AF0AAF9042021464A
:102510000FF0C4FDE8480FF003FB069800B20AF084
:102520009FF9E6480FF0FCFA38B20AF099F9062054
:1025300021460FF0B3FDE2480FF0F2FA0A98007856
:102540000AF08EF9DF480FF0EBFA21462E6F0125D5
:1025500008910995681E0A900A22079200253046C4
:102560002B460FF055FF07460C46079A2B460FF0F7
:1025700043FD301A302318431AA90A9A505407967B
:102580000A3E089806460595A8413DD311460A2201
:10259000002538460F4621461C462B460FF038FFD3
:1025A0002346394622431AA8099FC25511293446A9
:1025B000079E2BD8304664382046A84126D3642293
:1025C0003D4600273046214606933B460FF020FF4C
:1025D0000A223B460FF01CFF069802431AA8401936
:1025E00042707D20C200304621463B460FF010FF6E
:1025F000ED1C0A9A102A04D8B34A921BA74106463A
:10260000A6D32F466F1E02E0099F00E07F1C781EB4
:1026100003210A900FF09CF8481C032800D0059075
:10262000032801D13E4611E01AA8851E059CE81931
:1026300040780EF039FC012C07D0BE1EE85D0EF08C
:1026400033FCA41E3746F2D100E07E1E0A98022811
:1026500001D2FDF76BFD74421AA83018C51EA87888
:102660000EF022FC68780EF01FFC28780EF01CFC9F
:10267000E41CED1E002CF2D1FDF758FD38460FF09A
:10268000B1F900B20AF0ECF82F200EF00DFC0A9818
:10269000406D8E490DF0ECFB074601460FF052FEEF
:1026A0000028089812D18A4938460EF023FA0028EB
:1026B00030460BD1C720010638460EF0FDF9002840
:1026C00001D0701C02E038460FF08CF900B20AF01D
:1026D000C7F80420089C21460FF0E0FC7D480FF06D
:1026E0001FFA0998006A79490DF0C2FB07460146B6
:1026F0000FF028FE00282046344612D1744938468F
:102700000EF0F8F9002820460BD1C7200106384604
:102710000EF0D2F9002801D0601C02E038460FF01C
:1027200061F9443500B20AF09BF82F200EF0BCFB93
:102730000998406A65490DF09BFB064601460FF07B
:1027400001FE0028089813D1614930460EF0D2F9F5
:10275000002801D020460BE0C720010630460EF0CD
:10276000ABF9002801D0601C02E030460FF03AF9C6
:1027700000B20AF075F80620089C21460FF08EFC86
:1027800055480FF0CDF9285F0AF06AF82F200EF0B7
:102790008BFB30200790285E0AF062F84F480FF05C
:1027A000BFF923460A988668012508930695691E95
:1027B0000A910A2209920025304619462B460FF04D
:1027C00027FE07460C46099A2B460FF015FC0A9A7D
:1027D000301A079908431AA9505409960A3E0898D6
:1027E00006460595A8413AD30A22002538462146D7
:1027F0002B460FF00DFE079B1A431AA8069FC255E1
:102800000A9A112A09982CD834460146643931466F
:10281000A94126D364223D46002721461E463B4659
:102820000FF0F6FD0A223B460FF0F2FD3243099EFF
:102830001AA8401942707D20C200304621463B460E
:102840000FF0E6FDED1C0A9A102A05D81E4A921BCD
:10285000A74106460B46A8D32F466F1E02E0069FEF
:1028600000E07F1C781E03210A900EF071FF481CC7
:10287000032800D00590032801D13E4631E01AA874
:10288000851E059CE81940780EF00EFB012C27D020
:10289000BE1EE85D0EF008FBA41E3746F2D120E014
:1028A000193001008B2F0100D12C01004B2F0100AA
:1028B000F22F0100952C0100052E0100492C01008A
:1028C000672F0100A32F0100E70300000000204153
:1028D00000FEFF46AB2D010034300100472F010000
:1028E0007E1E0A98022801D2FDF720FC74421AA825
:1028F0003018C51EA8780EF0D7FA68780EF0D4FA12
:1029000028780EF0D1FAE41CED1E002CF2D1FDF770
:102910000DFCED480FF004F932E2343670790028EE
:1029200000D1A7E30024204621460FF0B7FBE7487B
:102930000FF0F6F80220079421460FF0AFFBE448B1
:102940000FF0EEF87079401EC0B2042801D900F0F3
:10295000D5FC8000DF49085800F0D1FC089C00E05D
:10296000641C2646601E03210A900EF0F1FE481CEE
:10297000032801D0054600E00025032800D1EAE144
:102980003EA8841E3746E01940780EF08DFA012DDE
:1029900000D1DFE1BE1EE05D0EF086FAAD1E3746C7
:1029A000F1D1D8E1CC480FF0BBF8CC480E21405E05
:1029B00009F056FFCA480FF0B3F8284609F050FF57
:1029C000FDF7B4FB0FF030FE044620680FF00AF864
:1029D0000746C448874200DC0746C34EB74200DBC7
:1029E0003746BE48806BC14D29460DF041FA0EF0C6
:1029F000F9FF0446BB48844200DC0446B44200DBD5
:102A000034460898006929460DF032FA0EF0EAFFC4
:102A10000546B448854200DC0546B54200DB354634
:102A20000026304631460FF039FBB1480FF078F8F8
:102A3000099800B209F014FFAE480FF071F838465B
:102A400009F00EFF022031460FF028FBAA480FF0D4
:102A500067F8204609F004FFA8480FF061F82846FF
:102A600009F0FEFE042031460FF018FB9A480FF0E3
:102A700057F81220994F385E09F0F2FE2F200EF021
:102A800013FA1420385E09F0EBFE9D480FF048F869
:102A90000FF0DAFD0546BC6B204631460EF00CF80F
:102AA0000121002801D10E4602E00E46C80744402D
:102AB0002879052801D193481AE30FF081FC0628F4
:102AC00004D12879042801D18F4811E3F87804282B
:102AD00010D18E4DE96B20460DF0F8FF002800D094
:102AE000C2E2A96B20460DF0F1FF002800D1FEE202
:102AF0008748FDE28748FBE287480FF011F88348DA
:102B0000F021405E09F0ACFE84480FF009F87348EC
:102B10000E21405E09F0A4FEFDF708FB7B4EF0207D
:102B2000305E0EF0AFFE7E490DF03CFB0146B82052
:102B300030580DF09DF905467A480EF0F1FF6B49CB
:102B400028460DF095F9054601460FF0FBFB0028DD
:102B500001D000F01AFD644C734928460DF0CAFFFD
:102B6000002801D000F011FDC720010628460DF015
:102B7000A3FF002801D100F004FD641C00F005FD56
:102B80000FF072FC044669480EF0CAFF3920205C41
:102B900009F066FE66480EF0C3FFFDF7C7FA654808
:102BA0000EF0BEFFFDF7C2FA63480EF0B9FFFDF765
:102BB000BDFA62480EF0B4FFFDF7B8FA42480024AF
:102BC0000EF0AEFF5E480EF0ABFF28460EF0A8FFF9
:102BD000022021460FF062FA5A480EF0A1FF0420AD
:102BE000059421460FF05AFA57480EF099FF78786D
:102BF000002800D13AE21C9C002C03D52D200EF0B9
:102C000053F96442514920460EF0A2FD08460124C2
:102C1000059908940991621E0A920A2207920646B3
:102C2000059D2B460FF0F4FB07460C46079A2B46F2
:102C30000FF0E2F9301A302318433EA90A9A505493
:102C4000079609990A3E0846A84100D22BE20A22BB
:102C50000D460026384621461C4633460FF0D8FB69
:102C6000234622433EA8089C02550A991129079A37
:102C700000D91AE2104664382846B04100D214E266
:102C80001646642200273046294606933B460FF03D
:102C9000BFFB0A223B460FF0BBFB069802433EA84F
:102CA000001942707D20C200304629463B460FF095
:102CB000AFFBE41C0A9A102A03D8254A921BAF41A5
:102CC000A7D3641EF2E1C0460A300100F02A0100D9
:102CD00031300100082A010019300100E00B2020EA
:102CE000372F01000080FFFFFF7F00000000204120
:102CF0000C2C0100A32F01000A2E01008F2C0100D3
:102D0000F72E0100872F0100AF2E0100D0072020F1
:102D1000912E0100552E0100502E01005B2F010065
:102D200000007A44D72C010000FEFF46FE2F010070
:102D3000FF2A0100682B0100D72B01009C2B01000A
:102D4000E92B0100C02A0100CB2F010040420F00F7
:102D5000E70300007E1E0A98022810D374423EA8A2
:102D60003018C51EA8780EF09FF868780EF09CF811
:102D700028780EF099F8E41CED1E002CF2D1049F87
:102D80000420002105910FF089F9F3480EF0C8FEE8
:102D90007878002864D01C9C002C03D52D200EF0E0
:102DA00083F86442ED4920460EF0D2FC0846012427
:102DB000059908940991621E0A920A220792064612
:102DC000059D2B460FF024FB07460C46079A2B4621
:102DD0000FF012F9301A302318433EA90A9A5054C2
:102DE000079609990A3E0846A8413DD30A220D4696
:102DF0000026384621461C4633460FF009FB234681
:102E000022433EA8089C02550A991129079A2DD8F9
:102E1000104664382846B04128D31646642200275D
:102E20003046294606933B460FF0F2FA0A223B460B
:102E30000FF0EEFA069802433EA8001942707D207A
:102E4000C200304629463B460FF0E2FAE41C0A9ADB
:102E5000102A03D8C24A921BAF41AAD3641E06E0CF
:102E6000C0480EF05DFE37E0089C00E0641C26467A
:102E7000601E03210A900EF06BFC481C032801D051
:102E8000054600E00025032811D03EA8841E3746E1
:102E9000E01940780EF008F8012D07D0BE1EE05D65
:102EA0000EF002F8AD1E3746F2D100E07E1E0A9801
:102EB000022810D374423EA83018C51EA8780DF021
:102EC000F3FF68780DF0F0FF28780DF0EDFFE41CBB
:102ED000ED1E002CF2D1049FA3480EF021FEB8781D
:102EE000002865D01D9C002C03D52D200DF0DCFFA3
:102EF00064429A4920460EF02BFC0846002101242A
:102F0000059108940991621E0A920A2207920646C8
:102F1000059D2B460FF07CFA07460C46079A2B4678
:102F20000FF06AF8301A302318433EA90A9A505419
:102F3000079609990A3E0846A8413DD30A220D4644
:102F40000026384621461C4633460FF061FA2346D8
:102F500022433EA8089C02550A991129079A2DD8A8
:102F6000104664382846B04128D31646642200270C
:102F70003046294606933B460FF04AFA0A223B4662
:102F80000FF046FA069802433EA8001942707D20D1
:102F9000C200304629463B460FF03AFAE41C0A9A32
:102FA000102A03D86E4A921BAF41AAD3641E06E0D2
:102FB0006C480EF0B5FD37E0089C00E0641C264626
:102FC000601E03210A900EF0C3FB481C032801D0A9
:102FD000054600E00025032811D03EA8841E374690
:102FE000E01940780DF060FF012D07D0BE1EE05DB6
:102FF0000DF05AFFAD1E3746F2D100E07E1E0A9852
:10300000022810D374423EA83018C51EA8780DF0CF
:103010004BFF68780DF048FF28780DF045FFE41C61
:10302000ED1E002CF2D1049F062000210FF036F88F
:10303000F87A032806D0022809D14C480EF070FD1A
:10304000FDF774F84A480EF06BFDFDF76FF8B87A9B
:10305000032804D047480EF063FDFDF767F84648A3
:103060000EF05EFDFDF762F8444841E03D480EF089
:1030700057FDC5E1787A002801D100F02DFC002031
:10308000079001460FF00AF83D480EF049FDF87B25
:10309000401EC0B2022801D900F033FC800039493B
:1030A000085800F02FFC089C00E0641C2646601EB7
:1030B00003210A900EF04CFB481C032801D0054662
:1030C00000E00025032800D185E13EA8841E374694
:1030D000E01940780DF0E8FE012D00D17AE1BE1E26
:1030E000E05D0DF0E1FEAD1E3746F1D173E12648FB
:1030F0000A9C0EF015FD0620002106910EF0CEFF71
:1031000022480EF00DFD2079401EC0B2042803D8DD
:1031100080001F49085800E01E4834460EF000FDAC
:103120001D480EF0FDFC0FF093FA016800290AD04B
:1031300009780A2907D822468A40432109010A4210
:1031400001D080682BE0F878052803D0042825D129
:10315000386A24E0F88C22E0CB2F010040420F00B7
:10316000E70300000A300100F32E01006B2A010082
:103170008D2A01000D2B01007C2A0100A72F0100E0
:103180004B2E0100382B0100142E0100F22F0100FC
:10319000442A0100552E01002F2F0100002006991E
:1031A00009940891621E0A920A2207920646069C1A
:1031B00023460FF02DF907460D46079A23460EF0D9
:1031C0001BFF301A302318431AA90A9A5054079645
:1031D00008990A3E0846A04139D30A220C46002627
:1031E000384629461D4633460FF012F92B462A432E
:1031F0001AA8099942540A991129079D29D82846E5
:1032000064382046B04124D364220027284626464D
:1032100021461C463B460FF0FBF80A223B460FF0C6
:10322000F7F822431AA8099C001942707D20C200B9
:10323000284631463B460FF0EBF8E41C0A9A102A68
:1032400003D8E94A521BB741AAD3641E03E0099C84
:1032500001E0099C641C2646601E03210A900EF0C2
:1032600077FA481C032801D0054600E00025032812
:1032700011D01AA8841E3746E01940780DF014FECC
:10328000012D07D0BE1EE05D0DF00EFEAD1E3746CF
:10329000F2D100E07E1E0A98022810D374421AA8C8
:1032A0003018C51EA8780DF0FFFD68780DF0FCFD04
:1032B00028780DF0F9FDE41CED1E002CF2D1CB486E
:1032C0000EF02EFC0EF0C4FB09F0CAFAFCF72EFF3C
:1032D0000125C7480EF024FC0FF072F809F0C0FA7F
:1032E000C4480EF01DFC204609F0BAFAC2480EF0A0
:1032F00017FC28B209F0B4FAFCF718FFBF480EF02B
:103300000FFCBF480EF00CFC0C9C002C03D52D20AC
:103310000DF0CAFD6442BB4920460EF019FA08467A
:1033200001250799069508916A1E09920A220A92B8
:103330000646079C23460FF06BF807460D460A9A8F
:1033400023460EF059FE301A302420433EA9099A34
:103350005054059608980A3E079A90410A9400D264
:1033600020E10A2200263846294633460FF050F85D
:1033700022433EA8069BC254099911291D46059C6B
:1033800000D911E1204664380898B04100D20BE121
:10339000642200272046089E31463B460FF038F84D
:1033A0000A223B460FF034F80A9802433EA840191F
:1033B00042707D20C200204631463B460FF028F87F
:1033C000ED1C099A102A03D8874A121BB741A9D3CA
:1033D0006D1EEAE07E1E0A98022810D374423EA8B1
:1033E0003018C51EA8780DF05FFD68780DF05CFD03
:1033F00028780DF059FDE41CED1E002CF2D1049F3D
:1034000081480EF08DFBB878002865D01D9C002CFB
:1034100003D52D200DF048FD64427A4920460EF078
:1034200097F9084600210124059108940991621E2C
:103430000A920A2207920646059D2B460EF0E8FFE7
:1034400007460C46079A2B460EF0D6FD301A30235D
:1034500018433EA90A9A5054079609990A3E08460D
:10346000A8413DD30A220D460026384621461C4677
:1034700033460EF0CDFF234622433EA8089C02555A
:103480000A991129079A2DD8104664382846B04168
:1034900028D31646642200273046294606933B4629
:1034A0000EF0B6FF0A223B460EF0B2FF069802432A
:1034B0003EA8001942707D20C200304629463B4696
:1034C0000EF0A6FFE41C0A9A102A03D8464A921B63
:1034D000AF41AAD3641E06E04C480EF021FB37E052
:1034E000089C00E0641C2646601E03210A900EF032
:1034F0002FF9481C032801D0054600E000250328C9
:1035000011D03EA8841E3746E01940780DF0CCFC5F
:10351000012D07D0BE1EE05D0DF0C6FCAD1E374686
:10352000F2D100E07E1E0A98022810D374423EA811
:103530003018C51EA8780DF0B7FC68780DF0B4FC03
:1035400028780DF0B1FCE41CED1E002CF2D1049F94
:10355000062000210EF0A2FDF879002804D02C48A6
:103560000EF0DEFAFCF7E2FD7879002804D0294855
:103570000EF0D6FAFCF7DAFD27480EF0D1FAFCF788
:10358000D5FD28460EF02EFA044620B209F068F95F
:1035900022480EF0C5FA2120C000305E09F060F923
:1035A000FCF7C4FD069D00E06D1C2E46681E03213D
:1035B00009900EF0CDF8481C032801D0054600E024
:1035C000002503282DD03EA8841E3746E0194078F8
:1035D0000DF06AFC012D23D0BE1EE05D0DF064FCF1
:1035E000AD1E3746F2D11CE0E70300004F2F01006B
:1035F000C72F0100C32F0100BE2E01009B2E01002A
:10360000732F010040420F00F32E01000A30010029
:10361000582A01005C2B01001B2B01007B2F0100AD
:103620007E1E0998022810D374423EA83018C51E89
:10363000A8780DF039FC68780DF036FC28780DF08C
:1036400033FCE41CED1E002CF2D104200021079174
:103650000EF024FDEB480EF063FA0D9C002C03D510
:103660002D200DF021FC6442E74920460EF070F851
:10367000084601250799069508916A1E09920A22B3
:1036800005920646079C23460EF0C2FE07460D46ED
:10369000059A23460EF0B0FC301A0A9C20433EA93E
:1036A000099A5054059608980A3E079A904136D3D5
:1036B0000A2200263846294633460EF0A9FE224348
:1036C0003EA8069BC254099911291D46059C28D87D
:1036D000204664380898B04123D36422002720464E
:1036E000089E31463B460EF093FE0A223B460EF002
:1036F0008FFE0A9802433EA8401942707D20C20006
:10370000204631463B460EF083FEED1C099A102AF6
:1037100003D8BE4A121BB741ADD36D1E02E0069D11
:1037200000E06D1C2E46681E032109900EF010F873
:10373000481C032801D0054600E00025032811D0CD
:103740003EA8841E3746E01940780DF0ADFB012DF0
:1037500007D0BE1EE05D0DF0A7FBAD1E3746F2D1CF
:1037600000E07E1E0998022810D374423EA830184B
:10377000C51EA8780DF098FB68780DF095FB2878A9
:103780000DF092FBE41CED1E002CF2D1A0480EF0CF
:10379000C7F90E9C002C03D52D200DF085FB64424B
:1037A000994920460DF0D4FF0846002101250791D4
:1037B000069508916A1E09920A2205920646079C00
:1037C00023460EF025FE07460D46059A23460EF0C9
:1037D00013FC301A0A9C20433EA9099A50540596BE
:1037E00008980A3E079A904136D30A2200263846A6
:1037F000294633460EF00CFE22433EA8069BC254D7
:10380000099911291D46059C28D820466438089836
:10381000B04123D3642200272046089E31463B4610
:103820000EF0F6FD0A223B460EF0F2FD0A98024326
:103830003EA8401942707D20C200204631463B46DA
:103840000EF0E6FDED1C099A102A03D86F4A121BF0
:10385000B741ADD36D1E02E0069D00E06D1C2E4603
:10386000681E03210A900DF073FF481C032801D045
:10387000054600E00025032811D03EA8841E3746E7
:10388000E01940780DF010FB012D07D0BE1EE05D61
:103890000DF00AFBAD1E3746F2D100E07E1E0A98FD
:1038A000022810D374423EA83018C51EA8780DF027
:1038B000FBFA68780DF0F8FA28780DF0F5FAE41CB8
:1038C000ED1E002CF2D1062000210EF0E7FB51483E
:1038D0000EF026F9FCF72AFC387A002800D1D9E34B
:1038E000002001460EF0DAFB4B480EF019F9787B08
:1038F000401EC0B2042800D9DFE3800047490858C1
:10390000DCE347480EF00CF946480EF009F925981B
:1039100001250799069508916A1E09920A220A92C2
:103920000646079C23460EF073FD07460D460A9A8D
:1039300023460EF061FB301A302420433EA9099A39
:103940005054059608980A3E079A90410A9436D337
:103950000A2200263846294633460EF059FD2243F6
:103960003EA8069BC254099911291D46059C28D8DA
:10397000204664380898B04123D3642200272046AB
:10398000089E31463B460EF043FD0A223B460EF0B0
:103990003FFD0A9802433EA8401942707D20C200B4
:1039A000204631463B460EF033FDED1C099A102AA5
:1039B00003D8164A121BB741ACD36D1E02E0069D18
:1039C00000E06D1C2E46681E032109900DF0C0FE1C
:1039D000481C032801D0054600E00025032824D018
:1039E0003EA8841E3746E01940780DF05DFA012D9F
:1039F0001AD0BE1EE05D0DF057FAAD1E3746F2D16B
:103A000013E0C0460D30010040420F00E703000004
:103A1000FB2D0100B02B0100AD2C01001C2A010080
:103A2000552E01005B2F01007E1E0998022810D33D
:103A300074423EA83018C51EA8780DF035FA687893
:103A40000DF032FA28780DF02FFAE41CED1E002C50
:103A5000F2D10220002107910EF020FBE2480EF087
:103A60005FF81B9C002C03D52D200DF01DFA64423D
:103A7000DE4920460DF06CFE0846012507990695A3
:103A800008916A1E09920A2205920646079C23465F
:103A90000EF0BEFC07460D46059A23460EF0ACFA22
:103AA000301A0A9C20433EA9099A5054059608985A
:103AB0000A3E079A904136D30A2200263846294604
:103AC00033460EF0A5FC22433EA8069BC25409993A
:103AD00011291D46059C28D8204664380898B04115
:103AE00023D3642200272046089E31463B460EF031
:103AF0008FFC0A223B460EF08BFC0A9802433EA83C
:103B0000401942707D20C200204631463B460EF0EF
:103B10007FFCED1C099A102A03D8B54A121BB74145
:103B2000ADD36D1E02E0069D00E06D1C2E46681EA2
:103B3000032109900DF00CFE481C032801D0054616
:103B400000E00025032811D03EA8841E3746E01966
:103B500040780DF0A9F9012D07D0BE1EE05D0DF0F3
:103B6000A3F9AD1E3746F2D100E07E1E0998022867
:103B700010D374423EA83018C51EA8780DF094F9F1
:103B800068780DF091F928780DF08EF9E41CED1E9F
:103B9000002CF2D197480DF0C3FF2A9C002C03D5CE
:103BA0002D200DF081F96442904920460DF0D0FDA2
:103BB0000846002101250791069508916A1E099281
:103BC0000A2205920646079C23460EF021FC074672
:103BD0000D46059A23460EF00FFA301A0A9C204330
:103BE0003EA9099A5054059608980A3E079A9041B2
:103BF00036D30A2200263846294633460EF008FC02
:103C000022433EA8069BC254099911291D46059CD2
:103C100028D8204664380898B04123D3642200276E
:103C20002046089E31463B460EF0F2FB0A223B46F8
:103C30000EF0EEFB0A9802433EA8401942707D2028
:103C4000C200204631463B460EF0E2FBED1C099ACD
:103C5000102A03D8664A121BB741ADD36D1E02E08D
:103C6000069D00E06D1C2E46681E032109900DF094
:103C70006FFD481C032801D0054600E000250328FD
:103C800011D03EA8841E3746E01940780DF00CF99B
:103C9000012D07D0BE1EE05D0DF006F9AD1E3746C2
:103CA000F2D100E07E1E0998022810D374423EA88B
:103CB0003018C51EA8780DF0F7F868780DF0F4F804
:103CC00028780DF0F1F8E41CED1E002CF2D1042050
:103CD000002107910EF0E2F947480DF021FF0D9CFD
:103CE000002C03D52D200DF0DFF864423F4920461B
:103CF0000DF02EFD084601250799069508916A1ECC
:103D000009920A2205920646079C23460EF080FB84
:103D100007460D46059A23460EF06EF9301A0A9CA6
:103D200020433EA9099A5054059608980A3E079ADE
:103D3000904136D30A2200263846294633460EF0F3
:103D400067FB22433EA8069BC254099911291D46D0
:103D5000059C28D8204664380898B04123D36422B3
:103D600000272046089E31463B460EF051FB0A22B2
:103D70003B460EF04DFB0A9802433EA840194270A4
:103D80007D20C200204631463B460EF041FBED1C33
:103D9000099A102A03D8164A121BB741ADD36D1EDB
:103DA00002E0069D00E06D1C2E46681E032109906E
:103DB0000DF0CEFC481C032801D0054600E000258C
:103DC00003281CD03EA8841E3746E01940780DF029
:103DD0006BF8012D12D0BE1EE05D0DF065F8AD1E32
:103DE0003746F2D10BE0C0461330010040420F00CD
:103DF000E7030000A32F01000D3001007E1E09988B
:103E0000022810D374423EA83018C51EA8780DF0C1
:103E10004BF868780DF048F828780DF045F8E41C68
:103E2000ED1E002CF2D1EA480DF07AFE2B9C002CFE
:103E300003D52D200DF038F86442E64920460DF0F8
:103E400087FC0846002101250791069508916A1E06
:103E500009920A2205920646079C23460EF0D8FADC
:103E600007460D46059A23460EF0C6F8301A0A9CFE
:103E700020433EA9099A5054059608980A3E079A8D
:103E8000904136D30A2200263846294633460EF0A2
:103E9000BFFA22433EA8069BC254099911291D4628
:103EA000059C28D8204664380898B04123D3642262
:103EB00000272046089E31463B460EF0A9FA0A220A
:103EC0003B460EF0A5FA0A9802433EA840194270FC
:103ED0007D20C200204631463B460EF099FAED1C8B
:103EE000099A102A03D8F84A121BB741ADD36D1EA8
:103EF00002E0069D00E06D1C2E46681E032109901D
:103F00000DF026FC481C032801D0054600E00025E2
:103F1000032811D03EA8841E3746E01940780CF0E3
:103F2000C3FF012D07D0BE1EE05D0CF0BDFFAD1E2E
:103F30003746F2D100E07E1E0998022810D3744261
:103F40003EA83018C51EA8780CF0AEFF68780CF0BB
:103F5000ABFF28780CF0A8FFE41CED1E002CF2D17A
:103F60000620002421460EF099F8E6480DF0D8FD11
:103F70000BA8008E012507942146069508916A1E1C
:103F800009920A2205920646079C23460EF040FA43
:103F900007460D46059A23460EF02EF8301A0A9C65
:103FA00020433EA9099A5054059608980A3E079A5C
:103FB000904136D30A2200263846294633460EF071
:103FC00027FA22433EA8069BC254099911291D468F
:103FD000059C28D8204664380898B04123D3642231
:103FE00000272046089E31463B460EF011FA0A2271
:103FF0003B460EF00DFA0A9802433EA84019427063
:104000007D20C200204631463B460EF001FAED1CF1
:10401000099A102A03D8AC4A121BB741ADD36D1EC2
:1040200002E0069D00E06D1C2E46681E03210A90EA
:104030000DF08EFB481C032801D0054600E000254A
:10404000032811D03EA8841E3746E01940780CF0B2
:104050002BFF012D07D0BE1EE05D0CF025FFAD1E2D
:104060003746F2D100E07E1E0A98022800D2AAE06C
:1040700074423EA83018C51EA8780CF015FF687869
:104080000CF012FF28780CF00FFFE41CED1E002C42
:10409000F2D198E03478002001460DF0FFFF002CAB
:1040A00051D09C480DF03CFD3079401EC0B2032831
:1040B00055D880009849085852E089480DF030FDE5
:1040C00020200CF0F1FE28460DF02AFD02200024ED
:1040D00021460DF0E3FF85480DF022FD1B98C11726
:1040E00008F024FD86480DF01BFD2698C11708F046
:1040F0001DFD042021460DF0D1FF7D480DF010FD7F
:104100001E98C11708F012FD74480DF009FD1F98A4
:10411000C11708F00BFD062021460DF0BFFF6B48CC
:104120000DF0FEFC0D98C11708F000FD77480DF06A
:10413000F7FC0BA8008E214609F00EFA74480DF02A
:10414000EFFCFBF7F3FF62480DF0EAFC387B401E02
:10415000C0B2022840D88000634908583DE060485A
:104160000DF0DEFC0220002421460DF097FF63488D
:104170000DF0D6FC0C98C11708F0D8FC60480DF083
:10418000CFFC0B98C11708F0D1FC042021460DF09C
:1041900085FF4E480DF0C4FC0D98C11708F0C6FC11
:1041A00055480DF0BDFC0E98C11708F0BFFC062065
:1041B00021460DF073FF53480DF0B2FC0BA8008EA2
:1041C000214609F0C9F950480DF0AAFCFBF7AEFFF3
:1041D0007B2F010040420F0042480DF0A1FC3D48FA
:1041E0000DF09EFC049E30781B9908F0EFFB202018
:1041F0000CF05AFE28460DF093FC022000242146C4
:104200000DF04CFF45480DF08BFC3198C11708F0BC
:104210008DFC31480DF084FC3999389808F086FC03
:10422000042021460DF03AFF31480DF079FC7078FA
:104230001C9908F0CBFB29480DF072FCB0781D9951
:1042400008F0C4FB062021460DF028FF707B0428EF
:104250000ED0052811D133480DF062FC0498807B04
:10426000401EC0B206281ED880002F4908581BE007
:104270002B480DF055FCFBF759FF0498C17B2C48E7
:1042800003291CD10499097C062918D029480DF06E
:1042900047FC0498007C401EC0B206280BD8800062
:1042A0002149085808E013480DF03AFC1F480DF06A
:1042B00037FCFBF73BFF0F480DF032FC1E480DF0BA
:1042C0002FFCFBF733FFC046E70300000D30010071
:1042D00031300100732F0100F72E0100F32E010091
:1042E000552E01000A300100442B0100BA2D0100B7
:1042F000CB2F01009B2E0100FB2D0100133001008C
:10430000A32F0100F22F01005E2C0100172F0100E6
:104310003B2C0100CE2B0100A02A0100B42E01008D
:10432000D02A0100C52C0100A0290100E02B0100CA
:10433000E02A0100652C0100142C0100F0B5BFB08B
:10434000002801D101F0CFFE05461CA8C11E159121
:10435000801E11901CA8811E1391C01E10901CA8D5
:10436000C11E1491801E0F901CA8811E1291C01EA8
:104370000E900026434B444F444C179507E0002015
:1043800043490870761CAE4201D301F0AEFE198895
:1043900040480088814201D101F0A8FE3E48405CBF
:1043A000491CC9B219803D49097801295AD10D2803
:1043B000E8D00A2800D09FE039480078010600D1F3
:1043C00006E11896C6B20025A555701E0321169168
:1043D0000DF0BEF9491C0329284600D00846032EDB
:1043E00000D31CE1032900D03BE121780029254BB3
:1043F0000AD02646202904D1701C7178064620294F
:10440000FAD0002930465FD126498868401C886070
:104410001FA8452101705221417081702021C17077
:10442000432101714F2141714D218171C1714121A0
:1044300001724E214172442181720D21C1720A2103
:1044400001731948018819480088C2438918C9B204
:104450000D2900D31FE113494869401C4861179D8D
:10446000189E7BE1124909787944097949008F4403
:104470000221676E56002438414241410C480170C8
:104480007DE7C04634112020E0092020A00D202027
:104490006111202032112020E00820204B11202023
:1044A00057112020C80F2020401120203E1120202D
:1044B000601120200246243A51425141562800D131
:1044C0000221FA4801705DE7002900D1A3E120290B
:1044D00000D18EE14178002900D19CE1202900D152
:1044E00084E18178002900D195E1202900D17FE184
:1044F000C21CC1781046E7E702467F3A5F21CB43F2
:104500009A4231D80020F7490870F5490870F649F9
:104510000870F6490870F6490870F64B32E7202813
:10452000A9D10120F24908700020EE490870EE4A36
:104530001178EE4C2170F04CE9490870107021E7B9
:10454000592800D1D8E0502895D10120D5E0024665
:10455000243A51425141542800D10421E04A1170BB
:10456000542800D00BE70DE7DE4B1A783F2A00D223
:10457000BDE01FA8452202705223437083702023A0
:10458000C3704C230371492444714E248471C27159
:104590000172542242724F228272C27201734373BB
:1045A0008273C473472101740D2141740A218174FF
:1045B000D2480188D2480088C2438918C9B2132959
:1045C00000D3DBE0CF494869401C4861C94BFDE09E
:1045D0001FA8452101705221417081702021C170B6
:1045E000432101714F2141714D218171C1714121DF
:1045F00001724E214172442181720D21C1720A2142
:104600000173BE480188BE480088C2438918C9B2F8
:104610000D2977D2BB494869401C48619BE0321A9A
:10462000002504E0ED1CAA42B34C00D1DAE6635D3C
:104630001E46613EF6B2192E01D8203B6355631920
:104640005C782646613EF6B2192E01D8203C5C709B
:104650009E783446613CE4B2192CE3D8203E9E702B
:10466000E0E7611903E0891C801E00D1BDE60A78ED
:104670001346613BDBB2192B01D8203A0A7001289E
:1046800000D1B2E64A781346613BDBB2192BEAD877
:10469000203A4A70E7E70021179D189E1FAA531879
:1046A000525C84B23A55421CD2B25C78BC54821C33
:1046B000D2B29B78BB54C01CC0B2C91C0C29EDD12E
:1046C0001FAA511800228B5C84B23B55431CDBB2FD
:1046D000002A06D08C186478FC54801CC0B2921C4E
:1046E000F1E787480380834B8649834C36E0511CB1
:1046F0001970A0547F4B45E602207B4908700320C7
:1047000077493EE600211FAA5318525C84B23A55FD
:10471000421CD2B25C78BC54821CD2B29B78BB548F
:10472000C01CC0B2C91C0C29EDD11FAA511800220F
:104730008B5C84B23B55431CDBB2002A06D08C183C
:104740006478FC54801CC0B2921CF1E76C48038072
:10475000684B6C49684C8868401C8860084610307B
:104760000168491C016000205E4908705C490870BE
:104770005D4908705D4908705D4902E600211FAA85
:104780005318525C84B23A55421CD2B25C78BC5485
:10479000821CD2B29B78BB54C01CC0B2C91C122967
:1047A000EDD11FAA511800228B5C84B23B55431CEB
:1047B000DBB2002A06D08C186478FC54801CC0B28E
:1047C000921CF1E74E4803804A4B4E490869401C51
:1047D0000861002043490870414908704249087047
:1047E0004249087042490870434CCBE5401C00E048
:1047F000801C00210D910170417800290BD0451CCF
:10480000801C202905D16A1C6978401C1546202986
:10481000F9D000294CD13B498868401C886030465B
:1048200039490BF0B5FB002872D0304637490BF000
:10483000AFFB00282F4B00D0EAE51FA845210170EF
:104840005222427082702023C3705323037141248B
:10485000447156248471C1715F24047255244472DA
:104860004E258572C37204735023437383734F23A1
:10487000C37302745422427481744421C1740D21A3
:1048800001750A2141751D4801881D480088C243F1
:104890008918FE220A40162A00D38EE01949486979
:1048A000401C4861179D189E124BB0E060112020FB
:1048B000002900D1C3E0202900D1ACE00178002913
:1048C00000D1BCE0202900D1A8E04178002900D126
:1048D000B5E0202900D1A0E08178C01CE8E7C046FF
:1048E0006011202057112020611120204E1120201E
:1048F0004B11202034112020A00D20204011202019
:104900003E112020C80F20201C2C0100322E010057
:10491000FD4800780228189E02D10DF001FA01E04E
:104920000DF048F9179DF9480188F94C2088C243D9
:104930008918FC220A400B2AF64B05D8F64948692B
:10494000401C4861084635E04F213954411CC9B22A
:104950004B227A54811CC9B220227A54C11CC9B29C
:1049600044227A54011DC9B245227A54411DC9B26C
:1049700046227A54811DC9B241227A54C11DC9B25E
:1049800055227A5401460831C9B24C227A54014664
:104990000931C9B254227A5401460A31C9B20D22F2
:1049A0007A5401460B31C9B20A227A540C30C0B293
:1049B0002080D9480C30D94CD2E60021179D189E92
:1049C0001FAA5318525C84B23A55421CD2B25C788A
:1049D000BC54821CD2B29B78BB54C01CC0B2C91C50
:1049E0001529EDD11FAA511800228B5C84B23B55CA
:1049F000431CDBB2002A06D08C186478FC54801C5F
:104A0000C0B2921CF1E7C2480380C24BC2490846BB
:104A10001030C24CA4E6401E00E0401C0D9901700D
:104A2000417800290BD0421C801C202905D1114659
:104A3000521C4978401C2029F9D0002975D1B6496B
:104A40008868401C88603046B5490BF0A1FAB14B2C
:104A5000002800D0DCE42846B2490BF099FAAD4BAF
:104A6000002800D0D4E4A8480078022870D119ADFD
:104A700028460DF0C3FB1FA8502108910170412268
:104A800042705221069181700292C2704D210391B1
:104A9000017120210A9141714421019181714221CA
:104AA000C1713D21079101722C880126711E0C9164
:104AB0000A25204629460CF04BFE0D952946254631
:104AC0000C9C4143691A3022169211431CAAA1542E
:104AD000082C00D970E10A2D00D26DE10A210CF0FA
:104AE00037FE169801431CA88155072C00D962E1B6
:104AF000642D00D25FE1642128460CF029FE0A21D2
:104B00000CF026FE169801431CA8801941707D20E8
:104B1000C10028460CF01CFEF61C062C03D8824966
:104B20008D420446C2D8761E46E1002900D186E0B7
:104B300020296DD00178002900D180E020296AD099
:104B4000417800297BD0202964D08178C01CECE713
:104B500019AD28460DF03EFC1FA8502103910170AD
:104B600041224270522181700692C2704D21029101
:104B700001712021079141714421009181714221ED
:104B8000C1713D2101910172288801260D900A967C
:104B9000761E0A250D9829460CF0DAFD0B9529465C
:104BA0000D9D4143691A3022169211431CAAB1543B
:104BB0000C96082E00D9FCE00A2D00D2F9E00A215B
:104BC0000CF0C6FD169801431CA80A9E81550C984E
:104BD000072800D942E2642D00D23FE26421284632
:104BE0000CF0B6FD0A210CF0B3FD169801431CA889
:104BF000801941707D20C10028460CF0A9FDF61CEB
:104C00000C99062902D848498D42BFD8761E26E263
:104C1000401E00E0401C0D990170417800290ED023
:104C20000C92421C801C202906D1531C5178401C38
:104C30001A46384B2029F8D000290C9A46D10C92FC
:104C400035498868401C8860304638490BF0A0F927
:104C5000304B002801D0FFF7DBFB2B4804782846B7
:104C600033490BF095F90126022C69D1002801D1B6
:104C700000F0CAFC28462F490BF08AF90028274C7F
:104C800001D100F064FF28462B490BF081F9002880
:104C900001D100F079FF284628490BF079F9002866
:104CA00001D100F07FFF1948018819480088C243EC
:104CB0008918C9B20A29189E01D901F01FF81649AE
:104CC0004869401C4861084601F047F8002901D1B5
:104CD000FFF79AFB202901D100F04FFF017800294E
:104CE00001D1FFF791FB202901D100F049FF417864
:104CF000002901D1FFF788FB202901D100F03FFFF7
:104D00008178C01CE2E7C0464E11202040112020CF
:104D10003E11202034112020C80F2020A00D20207B
:104D2000B32F0100B32C0100E7030000072F01009F
:104D3000F82F0100D72F0100342C0100FC2B0100BB
:104D4000002801D100F067FC2846FA490BF020F951
:104D50000028F94C01D100F002FF2846F7490BF07A
:104D600017F9002200280B9201D100F015FF284608
:104D7000F3490BF00DF9002801D100F056FF284649
:104D8000F0490BF005F9002801D101F00BF8EE48CD
:104D90000188EE480088C2438918C9B20A2901D99E
:104DA00001F04EF8EA494869401C4861084601F0A4
:104DB00063F90A9E53E1761C751E032128460CF008
:104DC000C7FC4A1C032A01D0114600E0002109203B
:104DD000022D19D2032A32D181B27E2946D81FAAC8
:104DE0000A9B53547F247E2941D052184B23537081
:104DF0007C293CD80899917039D00799D170041D4D
:104E000035E0F61EB142E5D083B27E2B05D8149C66
:104E1000A419A4781FADEC54401C83B27E2B05D896
:104E2000149CA41964781FADEC54401C83B27E2BF3
:104E3000E7D8149CA45D1FADEC54401CE1E70F9A29
:104E4000921902E0921E891EC6D083B27E2B03D82F
:104E500054781FADEC54401C0129BDD083B27E2B89
:104E6000F0D814781FADEC54401CEBE704460B94CB
:104E700019A84088059080B2C008B6494843040D7F
:104E800001260494701E0C9020460D9D29460CF0BE
:104E90005FFC29460C9D4143611A169A11431CAAD6
:104EA000A954082D27D80A2C25D30A210CF050FC30
:104EB000169801431CA88155072D1BD8642C19D3C3
:104EC000642120460CF044FC0A210CF041FC1698A9
:104ED00001431CA8801941707D20C10020460CF0C0
:104EE00037FCF61C062D03D89B498C420446C9D8D2
:104EF000761E00E0761C0B9C01E0761E0AD0A0B264
:104F00007E28FAD81CA98919491E09781FAA1154AC
:104F1000641CF2E7A0B27E2837D81FA92E220A54BB
:104F2000601C099081B27E29169D53D87D20C00057
:104F3000049A5043059A101A83B29A082646874C61
:104F40006243520C2A431FAC62543146B11C8AB2F0
:104F50007F2109917E2A3DD881494B43D90CCBB2A0
:104F6000CD245C43E30A0D9C6343CB1A2B431FAC57
:104F7000A354F21C92B27E2A2CD834460D9B4B438C
:104F8000C01A28431FA98854341DA0B27E2820D8F7
:104F90001FA90A9A0A547F237E2809931AD0091858
:104FA000039A4A707C2815D8029A8A7012D0582227
:104FB000CA707A280ED853220A717A280AD0089A21
:104FC0004A71782806D80198887103D00798C8716B
:104FD0000834099419A88088012505906E1E0A24BA
:104FE0000D9021460CF0B4FB0B9421460CF0B0FB65
:104FF000169801431CA831540C96082E2CD80D98F5
:105000006428554C28D364210CF0A2FB0A210CF033
:105010009FFB0D98169E31431CAA51550C990729E8
:1050200000D95BE1A04200D858E17D21C9000CF015
:105030008FFB344606460A210CF08AFB0D9A214369
:105040001CA840194170ED1C0C98062803D845484F
:1050500082423046C2D86D1E169E40E1761C751EF7
:10506000032128460CF074FB4A1C032A01D0114688
:1050700000E000210920022D7AD2032A00D092E01C
:1050800081B27E2911D81FAA202353547F230A936B
:105090007E290BD052184B2353707C2906D80399D4
:1050A000917003D00199D170001D0A9019A8408811
:1050B000059080B2C00827494843000D012604909E
:1050C0000C90711E0D910B9D29460CF041FB294659
:1050D0000C9D4143691A169A11431CAA0D9B9954C1
:1050E000082B7CD80A2D7AD30A210CF031FB1698B4
:1050F00001431CA881550D9807286FD8642D6DD3E6
:10510000642128460CF024FB0A210CF021FB1698A0
:1051100001431CA8801941707D20C10028460CF075
:1051200017FBF61C0D99062902D80B498D42C7D8EA
:10513000761E54E0D72F0100A00D2020342C010052
:10514000712C0100FC2B0100401120203E11202079
:10515000C80F2020C5200000E70300007B140000DA
:10516000CDCC00000F270000F34CF61EB14284D0D6
:1051700083B27E2B05D8159CA419A4781FADEC54DE
:10518000401C83B27E2B05D8159CA41964781FADF2
:10519000EC54401C83B27E2BE6D8159CA45D1FAD59
:1051A000EC54401CE0E7119A921903E0921E891E0C
:1051B00000D165E783B27E2B04D854781FADEC5440
:1051C000EC4C401C012900D15AE783B27E2BEDD86C
:1051D00014781FADEC54E74C401CE7E7761C169D95
:1051E0000A9B01E0761E0AD098B27E28FAD81CA944
:1051F0008919491E09781FAA11545B1CF2E77D200A
:10520000C000099098B27E2838D81FA92E220A54CF
:10521000581C089081B27E2900D904E20998049AAA
:1052200042430598801A1E4683B29A08D24C6243C4
:10523000520C2A431FAC6254B11C8AB27F210891E0
:105240007E2A00D9EEE1CD494B43D90CCBB2CD2417
:105250005C43E30A0B9C6343CB1A2B431FACA35460
:10526000F21C92B27E2AC34C00D9DCE10B9B4B436B
:10527000C01A334628431FA98854331D98B27E288C
:1052800000D9E5E01D461FA920220A547F237E286D
:10529000089300D1C7E10918029A4A707C2800D906
:1052A000C1E1069A8A7000D1BDE15822CA707A28FD
:1052B00000D9B8E153220A717A2800D1B2E1039AE9
:1052C0004A71782800D9ADE100988871A94C00D1C5
:1052D000A9E10198C87108350895A4E16D1C099BE6
:1052E00001E06D1E0AD098B27E28FAD81CA949198F
:1052F000491E09781FAA11545B1CF2E798B27E2858
:1053000011D81FA92E220A545C1CA0B27E2833D8C3
:105310009A49059C6143C90C0B9A5143611A314368
:105320001FAA11549B1C98B27E2824D81FA90A9A40
:105330000A547F247E281FD0091854224A707C28E2
:105340001AD81E4649238B707C2815D0039BCB703E
:105350007A2811D8254645230B717A2809D04F2386
:105360004B71782805D855238B71782801D000F02F
:10537000A2FE2C4600E01C460C9419A8C588012406
:105380000D94661E28460B9C21460CF0E1F944431F
:10539000291B169A11431CAAB154082E27D80A2D8E
:1053A00025D30A210CF0D4F9169801431CA80D9CB2
:1053B0000155072E1DD8642D1BD3642128460CF0FF
:1053C000C7F90A210CF0C4F9169801431CA800196A
:1053D00041707D20C10028460CF0BAF9E41C062E6D
:1053E00003D867498D420546CAD8641E02E00D9C69
:1053F00000E0641C0D94601E032109900CF0A8F9D4
:10540000491C0329129C01D0084600E00020032912
:105410000BD122E00D9D625D1FAB5A54761C0C9699
:10542000801EAD1E0D95002817D00C9EB1B27E29AE
:1054300006D80D9AA21852781FAB5A54761C0C96B7
:10544000012807D00C9EB1B27E29E3D90D9DE7E774
:105450000893E8E00D98401E0D9009980228454CED
:105460000C9D64D2A8B27E2803D81FA90A9A0A54B8
:105470006D1CA8B27E2803D81FA9089A0A546D1C77
:10548000A8B27E2803D81FA945220A546D1CA8B2D1
:105490007E2803D81FA9069A0A546D1CA8B27E283C
:1054A00003D81FA953220A546D1CA8B27E2803D822
:1054B0001FA949220A546D1CA8B27E2803D81FA92F
:1054C00053220A546D1CA8B27E2803D81FA9542267
:1054D0000A546D1CA8B27E2803D81FA9079A0A5443
:1054E0006D1CA8B27E2803D81FA9169A0A546D1CF9
:1054F000A8B27E2803D81FA90D220A546D1CA8B299
:105500007E2803D81FA90B9A0A546D1C1D49ADB201
:105510001D4800880E88F1434018C0B2A84239D215
:105520001A494869401C4861179D194B0AE30D9AB6
:1055300050420E99891806E0A00D20200D4CC01C89
:10554000C91E00288ED0AAB27E2A03D88B781FAC41
:10555000A3546D1CAAB27E2A03D84B781FACA35467
:105560006D1CAAB27E2AE9D80B781FACA3546D1C1F
:10557000E4E7C046A00D20207B140000CDCC000045
:10558000E70300003E11202040112020C80F2020FA
:10559000341120206C1E032120460CF0D9F84A1C3F
:1055A0000021032A084600D010461692022C13D37D
:1055B0002B1A00211FAC6518645CB2B2BC54721C7B
:1055C000D2B26C78BC54B21CD2B2AC78BC54F21CCF
:1055D000D6B2C91C8B42EDD1169A032A179DEF4C07
:1055E00000D1ABE21FAA51180A78B3B2FA54721C68
:1055F000D2B2012800D1A0E24B78BB54B21CD6B283
:10560000891C801EF0D199E200210A960B9609911F
:105610001691E24CCCE20A960B960D9809901690E2
:10562000DE4C08E3DD4C19A8808801260B90711E22
:105630000D910A250C9029460CF08AF80A95294606
:105640000CF086F8169D29431CA80D9A1154082ABF
:105650002CD80C98642829D364210CF079F80A21FD
:105660000CF076F80C9A29431CA881550D98072850
:105670001BD8CB48824218D9104609990CF068F81B
:1056800005460A210CF064F80C9A169801431CA8F0
:1056900080194170F61C0D98062803D8C148824233
:1056A0002846C4D8761E169D00E0761C089B01E0B3
:1056B000761E0AD098B27E28FAD81CA98919491EEC
:1056C00009781FAA11545B1CF2E798B27E2812D801
:1056D0001FA92E220A541E465B1C98B27E282CD885
:1056E000B1490B9B5943C90C0A9A5143591A294392
:1056F0001FAA1154B31C98B27E281ED81D461FA99C
:1057000020220A547F237E2817D00918069A4A704F
:105710007C2812D84C228A707C280ED0039ACA703A
:105720007A280AD848220A717A2806D0069A4A713D
:10573000782802D801988871EB1D0B9319A8C088AE
:10574000089080B2C00899494843000D0126069090
:105750000C90711E0D910A9D29460BF0F9FF294608
:105760000C9D4143691A169A11431CAA0D9B99542A
:10577000082B27D80A2D25D30A210BF0E9FF16980C
:1057800001431CA881550D9807281AD8642D18D3F9
:10579000642128460BF0DCFF0A210BF0D9FF169894
:1057A00001431CA880194170284609990BF0D0FFCD
:1057B000F61C0D99062902D879498D42C8D8761E63
:1057C00000E0761C169D0B9B01E0761E0AD098B275
:1057D0007E28FAD81CA98919491E09781FAA1154D4
:1057E0005B1CF2E798B27E2835D81FA92E220A54F6
:1057F0005E1CB1B27E2956D80998069A4243089891
:10580000821A18460D9293B29A08694C6243520C60
:105810002A431FAC6254811C8AB27F267E2A3FD85D
:1058200061494B43D90CCBB2CD245C43E30A0A9CBB
:105830006343CB1A2B431FACA354C21C92B27E2AE3
:10584000564C30D80A9B594303460D98401A2843BA
:105850001FA988541B1D98B27E2823D81FA9202277
:105860000A547F267E281ED0091854224A707C28AC
:1058700019D81D4649238B707C2814D0029BCB700D
:105880007A2810D845230B717A2809D04F234B7101
:10589000782805D855238B71782801D000F017FCA3
:1058A0003E4C00E01E4619A8008901250D900C957C
:1058B000691E0B910A9D29460BF04AFF0D9B45433B
:1058C000591B169A11431CAA0B9DA954082D29D8BF
:1058D0000A2B27D30A210BF03BFF0D9A16980143A0
:1058E0001CA80C9D41550B9807281DD8642A1BD372
:1058F000642110460BF02CFF0A210BF029FF1698AB
:1059000001431CA8401941700D9809990BF020FF24
:105910000D9AED1C0B99062902D821498A42C5D857
:105920006D1E02E00C9D00E06D1C0C95681E0321AD
:1059300016900BF00DFF491C03291E4D01D008469F
:1059400000E0002003290CD11FE0139A0C9D525D4A
:105950001FAB5A54761C801EAD1E0C950028154DA9
:1059600013D0B1B27E2906D8139A0C9BD218527864
:105970001FAB5A54761C012804D0B1B27E29E4D959
:105980000C9DE8E70C98401E0C9000200D90C04341
:105990001699022972D21A38079A13E0A00D202016
:1059A000E70300000F270000CDCC0000C520000059
:1059B0007B140000BC290100FE4B291824228A5CBC
:1059C00009304BD0B1B27E2903D813461FAA5354D5
:1059D000761CB1B27E2904D82A18127F1FAB5A5404
:1059E000761CB1B27E2904D82A18527F1FAB5A54B4
:1059F000761CB1B27E2904D82A18927F1FAB5A5464
:105A0000761CB1B27E2904D82A18D27F1FAB5A5413
:105A1000761CB1B27E2905D82A182023D25C1FAB90
:105A20005A54761CB1B27E2905D82A182123D25C9B
:105A30001FAB5A54761CB1B27E2905D82A182223EE
:105A4000D25C1FAB5A54761CB1B27E29B4D82A1846
:105A50002323D25C1FAB5A54761CADE7D64800888E
:105A6000D6490D88E9434018C0B2B2B2904228D25C
:105A7000D3494869401C4861189E79E001460C9B57
:105A80005943109AD21806E0CE4CCF4DC91CD21EF5
:105A9000002900D17FE7B3B27E2B03D894781FADE5
:105AA000EC54761CB3B27E2B03D854781FADEC5463
:105AB000761CB3B27E2BE7D814781FADEC54761C5D
:105AC000E2E73004189EBE4952D01446501E03210E
:105AD0000BF03EFE491C03290D9A104600D00846E3
