:1000000000802020477701003F4701003F47010063
:1000100000000000000000000000000000000000E0
:100020000000000000000000000000003F47010049
:1000300000000000000000003F47010051430100A4
:100040003F470100AD7001003F47010049660100D4
:100050003F4701003F4701003F4701003F47010084
:10006000000000003F4701003F4701000000000082
:10007000000000003F4701002D5B01003F470100E9
:100080003F4701003F4701003F4701003F47010054
:100090003F4701003F470100000000000000000052
:1000A0003F4701003F470100000000000000000042
:1000B0003F470100000000003F4701003F470100AB
:1000C000F0B5C1B018AF07AD36AC204616F052FF00
:1000D0002FA816F0DBFA384616F046F8284616F038
:1000E00025FF207DE17C002901D0C14E00E0C14EFA
:1000F0004937002800D0C04E3879002800970FD02B
:100100000020014616F0F2FFBC4816F077FDB87AE1
:10011000401EC0B2022818D88000B949085815E01E
:10012000B879002800D198E00020014616F0DEFFE3
:10013000B44816F063FD387B401EC0B2022800D9D7
:10014000CFE08000B0490858CCE0B04816F056FD2A
:10015000AF4816F053FD387B401EC0B2022803D8CA
:100160008000A949085800E0AA48002416F046FD7E
:1001700002200194214616F0B9FFA74816F03EFD73
:100180003878002865D0199C002C03D52D2015F057
:100190006BFE6442A149204616F038FB0846012553
:1001A0000199049505916A1E06920A220392074658
:1001B000019E334617F068F904460D46039A33460C
:1001C00016F032FF381A302318433CA9069A5054CF
:1001D000039705990A3F0846B0415DD30A220E46AF
:1001E0000027204629461C463B4617F04DF923467A
:1001F00022433CA8049C0255069911292546039ADE
:100200004CD8104664383046B84147D3174664226C
:100210000024384631460293234617F035F90A2266
:10022000234617F031F9029802433CA84019427066
:100230007D20C20038463146234617F025F9ED1CD3
:10024000069A102A03D8764AD21BB441A9D36D1E50
:1002500025E0704816F0D2FC04E13C3568790028AE
:1002600000D175E200242046214616F03FFF6D487C
:1002700016F0C4FC02200394214616F037FF6148B3
:1002800016F0BCFC6879401EC0B2042800D9B1E267
:10029000800065490858AEE2049D00E06D1C2F46C1
:1002A000681E0321069016F0B1FA481C032813D0EB
:1002B0000446032813D03CA8861EF019407815F098
:1002C000D3FD012C00D1B7E0BD1EF05D15F0CCFDD3
:1002D000A41E2F46F1D1B0E000240328EBD13D4607
:1002E000ABE04C48002416F089FC504816F086FC20
:1002F000304616F083FC0220214616F0F7FE4C48EB
:1003000016F07CFC04200194214616F0EFFE4948CB
:1003100016F074FC7878002800D115E21A9C002CA5
:1003200003D52D2015F0A0FD64423C49204616F06F
:100330006DFA0D460126019904910596701E0690EE
:100340000A2203922846019F3B4617F09DF8044677
:100350000E46039A3B4616F067FE281A30231843D0
:100360003CA9069A505403950A3D04980546B841A5
:1003700000D203E20A220027204631461C463B46B3
:1003800017F082F8234622433CA8059C02550699A3
:1003900011292646039A00D9F2E11046643828460E
:1003A000B84100D2ECE117466422002438462946C1
:1003B0000293234617F068F80A22234617F064F8E0
:1003C000029802433CA8801942707D20C200384642
:1003D0002946234617F058F8F61C069A102A04D826
:1003E0000F4AD21BAC410546A6D3761EC9E1C046D2
:1003F0001D800100C8810100788101001C8101007D
:10040000F07C0100F9820100E47C0100A980010078
:100410005C8201009C8201001380010040420F00B9
:10042000E7030000687C0100587B0100007E0100AA
:10043000587C01009F8201007D1E0698022810D37F
:100440006C423CA82818C51EA87815F00DFD6878E8
:1004500015F00AFD287815F007FDE41CED1E002CB0
:10046000F2D1009F04200021019116F03FFED648F2
:1004700016F0C4FB7878002865D01A9C002C03D5B0
:100480002D2015F0F1FC6442D049204616F0BEF94B
:10049000084601250199049505916A1E06920A22D3
:1004A00003920746019E334616F0EEFF04460D46C2
:1004B000039A334616F0B8FD381A302318433CA986
:1004C000069A5054039705990A3F0846B0413ED317
:1004D0000A220E460027204629461C463B4616F0B7
:1004E000D3FF234622433CA8049C025506991129B8
:1004F0002546039A2DD8104664383046B84128D393
:10050000174664220024384631460293234616F0EB
:10051000BBFF0A22234616F0B7FF029802433CA80D
:10052000401942707D20C20038463146234616F0FD
:10053000ABFFED1C069A102A03D8A54AD21BB44182
:10054000A9D36D1E06E0A34816F058FB39E0049DC0
:1005500000E06D1C2F46681E0321069016F056F928
:10056000481C032812D00446032812D03CA8861E3B
:10057000F019407815F078FC012C0CD0BD1EF05D10
:1005800015F072FCA41E2F46F2D105E000240328CA
:10059000ECD13D4600E07D1E0698022810D36C4247
:1005A0003CA82818C51EA87815F05EFC687815F0E0
:1005B0005BFC287815F058FCE41CED1E002CF2D1F1
:1005C000009F854816F01AFBB878002866D01B9C5F
:1005D000002C03D52D2015F047FC64427B492046B2
:1005E00016F014F9084600210125019104950591A2
:1005F0006A1E06920A2203920746019E334616F0AF
:1006000043FF04460D46039A334616F00DFD381A93
:10061000302318433CA9069A5054039705990A3F82
:100620000846B0413ED30A220E46002720462946FE
:100630001C463B4616F028FF234622433CA8049C58
:100640000255069911292546039A2DD8104664387B
:100650003046B84128D31746642200243846314634
:100660000293234616F010FF0A22234616F00CFFD1
:10067000029802433CA8401942707D20C2003846CF
:100680003146234616F000FFED1C069A102A03D8C7
:100690004F4AD21BB441A9D36D1E06E04D4816F057
:1006A000ADFA39E0049D00E06D1C2F46681E032161
:1006B000069016F0ABF8481C032812D00446032815
:1006C00012D03CA8861EF019407815F0CDFB012C05
:1006D0000CD0BD1EF05D15F0C7FBA41E2F46F2D155
:1006E00005E000240328ECD13D4600E07D1E06987D
:1006F000022810D36C423CA82818C51EA87815F013
:10070000B3FB687815F0B0FB287815F0ADFBE41C5E
:10071000ED1E002CF2D1009F0620002116F0E6FC11
:10072000F87A032804D0022805D12C4800F0AEFF47
:100730002B4800F0ABFFB87A032802D0294800F01C
:10074000A5FF294800F0A2FF224816F057FAD3E08F
:10075000787A002800D124E300200090014616F0AA
:10076000C5FC224816F04AFAF87B401EC0B20228A7
:1007700000D92BE380001E49085828E3059E00E0BD
:10078000761C701E0321069016F040F8481C0328C2
:1007900014D00446032814D03CA83746861EF0190E
:1007A000407815F061FB012C00D18FE0BD1EF05D9B
:1007B00015F05AFBA41E2F46F1D188E0002403282F
:1007C000EAD1354683E0C0469F82010040420F00D7
:1007D000E70300009C82010090810100E17B0100A1
:1007E000257C0100857C0100F27B01009F800100D7
:1007F000D87C0100F94816F001FAF94816F0FEF924
:10080000089C002C03D52D2015F02EFB6442F549E1
:10081000204615F0FBFF0846012503990295049137
:100820006A1E05920A2206920646039C234616F08B
:100830002BFE07460D46069A234616F0F5FB301AA6
:10084000302420433CA9059A5054019604980A3E4E
:10085000039A9041069400D20CE10A220026384601
:100860002946334616F010FE22433CA8029BC25490
:10087000059911291D46019C00D9FDE020466438E8
:100880000498B04100D2F7E0642200272046049E7D
:1008900031463B4616F0F8FD0A223B4616F0F4FDC1
:1008A000069802433CA8401942707D20C2002046B1
:1008B00031463B4616F0E8FDED1C059A102A03D898
:1008C000C94A121BB741A9D36D1ED6E07D1E0698FA
:1008D000022810D36C423CA82818C51EA87815F031
:1008E000C3FA687815F0C0FA287815F0BDFAE41C50
:1008F000ED1E002CF2D1009FBC4816F07FF9B878AD
:10090000002866D01B9C002C03D52D2015F0ACFAD6
:100910006442B449204615F079FF084600210125BC
:100920000191049505916A1E06920A2203920746D8
:10093000019E334616F0A8FD04460D46039A334641
:1009400016F072FB381A302318433CA9069A50540B
:10095000039705990A3F0846B0413ED30A220E4646
:100960000027204629461C463B4616F08DFD2346AF
:1009700022433CA8049C0255069911292546039A56
:100980002DD8104664383046B84128D31746642223
:100990000024384631460293234616F075FD0A229C
:1009A000234616F071FD029802433CA8401942709C
:1009B0007D20C20038463146234616F065FDED1C09
:1009C000069A102A03D8884AD21BB441A9D36D1EB7
:1009D00006E0874816F012F939E0049D00E06D1C2E
:1009E0002F46681E0321069015F010FF481C0328AF
:1009F00012D00446032812D03CA8861EF019407875
:100A000015F032FA012C0CD0BD1EF05D15F02CFA59
:100A1000A41E2F46F2D105E000240328ECD13D4668
:100A200000E07D1E0698022810D36C423CA82818CE
:100A3000C51EA87815F018FA687815F015FA287808
:100A400015F012FAE41CED1E002CF2D1009F0620D6
:100A5000002116F04BFBF879002802D0654800F021
:100A600015FE7879002802D0634800F00FFE634835
:100A700000F00CFE029D00E06D1C2E46681E032156
:100A8000059015F0C3FE481C032803D00546032833
:100A900003D114E00025032811D03CA8841E37465A
:100AA000E019407815F0E0F9012D07D0BE1EE05D99
:100AB00015F0DAF9AD1E3746F2D100E07E1E05983A
:100AC000022810D374423CA83018C51EA87815F02F
:100AD000CBF9687815F0C8F9287815F0C5F9E41C49
:100AE000ED1E002CF2D104200021039116F0FEFA35
:100AF000434816F083F8099C002C03D52D2015F0EF
:100B0000B3F964423749204615F080FE08460125B6
:100B10000399029504916A1E05920A2201920646E3
:100B2000039C234616F0B0FC07460D46019A234667
:100B300016F07AFA301A069C20433CA9059A5054C4
:100B4000019604980A3E039A904136D30A22002661
:100B500038462946334616F097FC22433CA8029BB0
:100B6000C254059911291D46019C28D82046643895
:100B70000498B04123D3642200272046049E3146C6
:100B80003B4616F081FC0A223B4616F07DFC069897
:100B900002433CA8401942707D20C20020463146E5
:100BA0003B4616F071FCED1C059A102A03D80E4A3C
:100BB000121BB741ADD36D1E02E0029D00E06D1C1B
:100BC0002E46681E0321059015F020FE481C0328C0
:100BD00018D00546032818D129E0C046EA80010054
:100BE0003882010040420F00E703000090810100BD
:100BF0009C820100BC7B0100207D0100A17C0100E2
:100C0000DE8201000025032811D03CA8841E37464F
:100C1000E019407815F028F9012D07D0BE1EE05DDF
:100C200015F022F9AD1E3746F2D100E07E1E059880
:100C3000022810D374423CA83018C51EA87815F0BD
:100C400013F9687815F010F9287815F00DF9E41CFF
:100C5000ED1E002CF2D1EE4815F0D0FF0A9C002CBE
:100C600003D52D2015F000F96442EA49204615F01D
:100C7000CDFD0846002101250391029504916A1ECD
:100C800005920A2201920646039C234616F0FCFBBD
:100C900007460D46019A234616F0C6F9301A069CFF
:100CA00020433CA9059A5054019604980A3E039AA1
:100CB000904136D30A22002638462946334616F09C
:100CC000E3FB22433CA8029BC254059911291D460F
:100CD000019C28D8204664380498B04123D364226C
:100CE00000272046049E31463B4616F0CDFB0A22E3
:100CF0003B4616F0C9FB069802433CA840194270D7
:100D00007D20C200204631463B4616F0BDFBED1C5F
:100D1000059A102A03D8C04A121BB741ADD36D1EE5
:100D200002E0029D00E06D1C2E46681E0321069025
:100D300015F06CFD481C032803D00546032803D199
:100D400014E00025032811D03CA8841E3746E01982
:100D5000407815F089F8012D07D0BE1EE05D15F032
:100D600083F8AD1E3746F2D100E07E1E06980228B9
:100D700010D374423CA83018C51EA87815F074F83A
:100D8000687815F071F8287815F06EF8E41CED1EFF
:100D9000002CF2D10620002116F0A8F99F4800F09F
:100DA00075FC387A002800D1D9E30020014616F0FE
:100DB0009DF99B4815F022FF787B401EC0B20428A5
:100DC00000D9DFE3800097490858DCE3964815F026
:100DD00015FF964815F012FF239D012400990491F8
:100DE000601E05900A2206922846009E334616F0A1
:100DF0004BFB07460291069A334616F015F9281A5E
:100E00002246302420433CA9059B585403950A3DB3
:100E100004980546B041069436D301920A22002672
:100E200038460299334616F02FFB22433CA8019C1A
:100E3000025505991129039828D80246643A2A4692
:100E4000B24123D364220027294606463B4616F0CA
:100E50001BFB0A223B4616F017FB069802433CA8F0
:100E6000001942707D20C200304629463B4616F0EC
:100E70000BFBE41C059A102A04D8674A921BAF4169
:100E80000546ACD3641E02E0144600E0641C26460E
:100E9000601E0321059015F0B9FC481C032801D001
:100EA000054600E00025032811D03CA8841E3746E3
:100EB000E019407814F0D8FF012D07D0BE1EE05D88
:100EC00014F0D2FFAD1E3746F2D100E07E1E059829
:100ED000022810D374423CA83018C51EA87814F01C
:100EE000C3FF687814F0C0FF287814F0BDFFE41C3D
:100EF000ED1E002CF2D102200021039116F0F6F82D
:100F00004B4815F07BFE199C002C03D52D2014F0C6
:100F1000ABFF64423F49204615F078FC08460125A6
:100F20000399029504916A1E05920A2201920646CF
:100F3000039C234616F0A8FA07460D46019A23465D
:100F400016F072F8301A069C20433CA9059A5054BA
:100F5000019604980A3E039A904136D30A2200264D
:100F600038462946334616F08FFA22433CA8029BA6
:100F7000C254059911291D46019C28D82046643881
:100F80000498B04123D3642200272046049E3146B2
:100F90003B4616F079FA0A223B4616F075FA069897
:100FA00002433CA8401942707D20C20020463146D1
:100FB0003B4616F069FAED1C059A102A03D8164A2A
:100FC000121BB741ADD36D1E02E0029D00E06D1C07
:100FD0002E46681E0321059015F018FC481C0328B6
:100FE00001D0054600E00025032824D03CA8841E3B
:100FF0003746E019407814F037FF012D1AD0BE1E95
:10100000E05D14F031FFAD1E3746F2D113E0C0466B
:101010004080010040420F00E7030000B47D010062
:10102000FE7E01006C7B0100A9800100248201008A
:10103000E18201007E1E0598022810D374423CA86C
:101040003018C51EA87814F00FFF687814F00CFF54
:10105000287814F009FFE41CED1E002CF2D1E348BF
:1010600015F0CCFD289C002C03D52D2014F0FCFE9F
:101070006442DF49204615F0C9FB084600210125DE
:101080000391029504916A1E05920A220192064676
:10109000039C234616F0F8F907460D46019A2346AD
:1010A00015F0C2FF301A069C20433CA9059A505403
:1010B000019604980A3E039A904136D30A220026EC
:1010C00038462946334616F0DFF922433CA8029BF6
:1010D000C254059911291D46019C28D82046643820
:1010E0000498B04123D3642200272046049E314651
:1010F0003B4616F0C9F90A223B4616F0C5F9069898
:1011000002433CA8401942707D20C200204631466F
:101110003B4616F0B9F9ED1C059A102A03D8B54ADA
:10112000121BB741ADD36D1E02E0029D00E06D1CA5
:101130002E46681E0321059015F068FB481C032805
:1011400001D0054600E00025032811D03CA8841EEC
:101150003746E019407814F087FE012D07D0BE1EF7
:10116000E05D14F081FEAD1E3746F2D100E07E1E38
:101170000598022810D374423CA83018C51EA878E0
:1011800014F072FE687814F06FFE287814F06CFE8C
:10119000E41CED1E002CF2D104200021039115F077
:1011A000A5FF954815F02AFD099C002C03D52D209C
:1011B00014F05AFE64428E49204615F027FB08467B
:1011C00001250399029504916A1E05920A22019253
:1011D0000646039C234616F057F907460D46019A2A
:1011E000234615F021FF301A069C20433CA9059A9E
:1011F0005054019604980A3E039A904136D30A222D
:10120000002638462946334616F03EF922433CA8CC
:10121000029BC254059911291D46019C28D82046DD
:1012200064380498B04123D3642200272046049EEA
:1012300031463B4616F028F90A223B4616F024F9BF
:10124000069802433CA8401942707D20C200204607
:1012500031463B4616F018F9ED1C059A102A03D8C2
:10126000644A121BB741ADD36D1E02E0029D00E03F
:101270006D1C2E46681E0321059015F0C7FA481C08
:10128000032801D0054600E00025032811D03CA822
:10129000841E3746E019407814F0E6FD012D07D092
:1012A000BE1EE05D14F0E0FDAD1E3746F2D100E059
:1012B0007E1E0598022810D374423CA83018C51E23
:1012C000A87814F0D1FD687814F0CEFD287814F0D9
:1012D000CBFDE41CED1E002CF2D1484815F08EFC2D
:1012E000299C002C03D52D2014F0BEFD64424049FA
:1012F000204615F08BFA084600210125039102953E
:1013000004916A1E05920A2201920646039C234616
:1013100016F0BAF807460D46019A234615F084FEEA
:10132000301A069C20433CA9059A50540196049813
:101330000A3E039A904136D30A22002638462946AF
:10134000334616F0A1F822433CA8029BC2540599EB
:1013500011291D46019C28D8204664380498B041C4
:1013600023D3642200272046049E31463B4616F0D4
:101370008BF80A223B4616F087F8069802433CA8F1
:10138000401942707D20C200204631463B4616F08F
:101390007BF8ED1C059A102A03D8F04A121BB741BE
:1013A000ADD36D1E02E0029D00E06D1C2E46681E4E
:1013B0000321059015F02AFA481C032801D00546A0
:1013C00000E0002503281CD03CA8841E3746E01905
:1013D000407814F049FD012D12D0BE1EE05D14F0DE
:1013E00043FDAD1E3746F2D10BE0C04674820100CA
:1013F00040420F00E7030000DE820100448201004A
:101400007E1E0598022810D374423CA83018C51ED1
:10141000A87814F029FD687814F026FD287814F0D7
:1014200023FDE41CED1E002CF2D1062000242146F1
:1014300015F05CFED44815F0E1FB07A8808E01256D
:1014400003942146029504916A1E05920A22019294
:101450000646039C234616F017F807460D46019AE8
:10146000234615F0E1FD301A069C20433CA9059A5D
:101470005054019604980A3E039A904136D30A22AA
:10148000002638462946334615F0FEFF22433CA885
:10149000029BC254059911291D46019C28D820465B
:1014A00064380498B04123D3642200272046049E68
:1014B00031463B4615F0E8FF0A223B4615F0E4FFB3
:1014C000069802433CA8401942707D20C200204685
:1014D00031463B4615F0D8FFED1C059A102A03D87B
:1014E0009E4A121BB741ADD36D1E02E0029D00E083
:1014F0006D1C2E46681E0321069015F087F9481CC6
:10150000032801D0054600E00025032811D03CA89F
:10151000841E3746E019407814F0A6FC012D07D050
:10152000BE1EE05D14F0A0FCAD1E3746F2D100E017
:101530007E1E0698022800D2A7E074423CA830180C
:10154000C51EA87814F090FC687814F08DFC2878FB
:1015500014F08AFCE41CED1E002CF2D195E02C78EE
:101560000020014615F0C2FD002C4ED08A4815F02F
:1015700045FB2879401EC0B2032852D88000874915
:1015800008584FE0724815F039FB202014F06CFC2D
:10159000304615F033FB02200024214615F0A6FD4D
:1015A0006F4815F02BFB1998C1170FF055FF7548C0
:1015B00015F024FB2498C1170FF04EFF042021469C
:1015C00015F094FD674815F019FB1C98C1170FF032
:1015D00043FF654815F012FB1D98C1170FF03CFF43
:1015E0000620214615F082FD634815F007FB099897
:1015F000C1170FF031FF664815F000FB07A8808E79
:10160000214610F03DFC634840E0584815F0F6FADA
:10161000387B401EC0B202283CD880004E49085892
:1016200039E04B4815F0EAFA02200024214615F073
:101630005DFD534815F0E2FA0898C1170FF00CFF52
:10164000504815F0DBFA0798C1170FF005FF04208A
:10165000214615F04BFD484815F0D0FA0998C117FE
:101660000FF0FAFE454815F0C9FA0A98C1170FF0B5
:10167000F3FE0620214615F039FD434815F0BEFA69
:1016800007A8808E214610F0FBFB404815F0B6FA03
:1016900041B0F0BD2F4815F0B1FA364815F0AEFA5A
:1016A000387819990FF028FE202014F0DDFB304621
:1016B00015F0A4FA02200025294615F017FD384838
:1016C00015F09CFA2F98C1170FF0C6FE354815F09B
:1016D00095FA379936980FF0BFFE0420294615F089
:1016E00005FD204815F08AFA78781A990FF004FE63
:1016F0001D4815F083FAB8781B990FF0FDFD062000
:10170000294615F0F3FC787B04280DD005280DD16F
:10171000264815F073FAB87B401EC0B2062811D8CF
:101720008000234908580EE01F48AFE7F97B2248A4
:101730000329ABD1397C0629A8D0204815F05EFAE0
:10174000387CE9E70A4815F059FA1A489EE7C0467E
:10175000A98001009C820100E47C0100E7030000F5
:10176000138001009F82010090810100F982010035
:10177000EA80010038820100DE8201004080010021
:10178000E182010074820100C68201009C7E01009A
:10179000CC8101006B7E0100DC7D0100387C010002
:1017A0003581010094810100147C0100347F010027
:1017B000D87A0100BE7D0100037C0100AA7E0100F1
:1017C000F0B5C9B00B9105460EA844210170422125
:1017D0004170472181702C22C27052210171582121
:1017E00041710A92827174210491C1713D21059168
:1017F0000172002D40D0002401210A220C922646BD
:101800000D91144628460C9F394614F0FFFF2346DD
:1018100039460D9F4143691A30220A43741C46A978
:101820008A55082E04D8791C5A1C092D0546E6D87D
:101830000C930321304614F0E9FF4B1C032B20D0FE
:101840001846022E20D30D9346AAD31E251A002235
:101850001E19B7780EA989184F7276788E721E5DA0
:10186000CE72D21CDB1E9542F2D1A71A09320C9916
:101870000D9B032B0CD11BE00EA8302141720A21D5
:1018800016E00020022EDED209220C99032B0FD085
:101890000EA9891846AABA18921E53780B7001280F
:1018A00005D013784B70891C921E801EF5D10C99BF
:1018B0000C46CBB20EA8C1180A9AC25465224A70CF
:1018C0007620029088700392CA706E200190087191
:1018D000049848710598887154200B99085C0D286C
:1018E00003D88000EB49085800E0EB48E11D05787B
:1018F000002D24D00D900846C9B20EAAD2180C9221
:10190000D924E31A0024A3421BD00D9A16190C9A6D
:101910001719FD717578002D19D04A1CE02A10D0D6
:101920003D72B578002D14D08A1CE02A09D0C91C5C
:10193000C01C7D72F578E41C002DE4D10AE0084655
:1019400008E00B980568E027002D21D1BDE0401C80
:1019500000E0801C0746C1B2E029084600D8E0201C
:101960004A09062A10D84B1C0EAA0A9C54548342DA
:1019700001D11F4608E08A1C0EAC6225E554824264
:1019800001D000F09BFE17460B980568002D34D05F
:101990000D970124671E0A262846314614F036FFAB
:1019A0004643A91B3026314346AAB954082F2FD8E5
:1019B0000A2D2DD30A2114F029FF314346A80155E1
:1019C000072F24D8642D22D36421284614F01EFF4B
:1019D0000A2114F01BFF314346A8001941707D20F5
:1019E000C100284614F012FFE41C062F03D8AB49AF
:1019F0008D420546CED8641E0AE0F8B24109062998
:101A000063D87F1C0D970EA930220A5443E0641C52
:101A10000D98C3B2E02B184600D8E0200EA9C918D3
:101A2000C21A951E07950693181A401C099046A8DD
:101A3000C71EA01E0890601E0C900026B2421BD04C
:101A40003D19A87888550C98B04218D0099880198B
:101A500017D068788D1968700898B04215D007982B
:101A6000B04214D0385D0D9BDB1C0D93A870F61CA2
:101A7000FF1EB442E2D10EE0069880190AE00D98EC
:101A800001E006988019401C04E00D9801E00698DA
:101A90008019801C0D900D9FF9B2E029084600D8EE
:101AA000E0204A09062A10D84B1C0EAA0A9C54545E
:101AB000834201D11F4608E08A1C0EAC7025E55414
:101AC000824201D000F0D0FD17460B980569002D29
:101AD00036D00D97F8B206900124671E0A262846D4
:101AE000314614F093FE4643A91B3026314346AAE3
:101AF000B954082F2FD80A2D2DD30A2114F086FEB1
:101B0000314346A80155072F24D8642D22D36421E0
:101B1000284614F07BFE0A2114F078FE314346A8D3
:101B2000001941707D20C100284614F06FFEE41CAE
:101B3000062F03D859498D420546CED8641E0AE0C7
:101B4000F8B24109072960D27F1C0D970EA93022F7
:101B50000A5441E0641C069AE02A00D8E0220EA84C
:101B6000069BC018D11A8D1E07959A1A521C09920D
:101B700046AAD61EA21E0892621E0C920025A942F9
:101B80001BD033199F7847550C9AAA4218D0099A4E
:101B9000571917D05F7843195F70089AAA4215D079
:101BA000079AAA4214D0375D0D9AD21C0D929F70ED
:101BB000ED1CF61EAC42E2D10EE0069840190AE098
:101BC0000D9801E006984019401C04E00D9801E0D2
:101BD00006984019801C0D900D9FF8B2E028014630
:101BE00000D8E0214209062A0FD8431C0EAA0A9CFD
:101BF00014548B4201D11F4607E0821C0EAC6125B4
:101C0000E5548A4200D089E017460B984569002DBB
:101C100036D00D97F8B206900124671E0A26284692
:101C2000314614F0F3FD4643A91B3026314346AA42
:101C3000B954082F35D80A2D33D30A2114F0E6FD04
:101C4000314346A80155072F2AD8642D28D3642193
:101C5000284614F0DBFD0A2114F0D8FD314346A8D4
:101C6000001941707D20C100284614F0CFFDE41C0E
:101C7000062F03D809498D420546CED8641E10E0D0
:101C8000F8B24109072976D27F1C0D970EA93022A0
:101C90000A5457E0B8790100347E0100E7030000E0
:101CA000641C069AE02A00D8E0220EA8069BC01801
:101CB000D11A8D1E07959A1A521C099246AAD61E51
:101CC000A21E0892621E0C920025A9421BD0331955
:101CD0009F7847550C9AAA4218D0099A571917D0DD
:101CE0005F7843195F70089AAA4215D0079AAA42F2
:101CF00024D0375D0D9AD21C0D929F70ED1CF61EFC
:101D0000AC42E2D11EE0069840191AE00D9801E0BD
:101D100006984019401C14E00D9811E0C31C0EAC4D
:101D20006325A5548B4200D165E7041D0EAAD55446
:101D30008C4201D000F0D3FC274666E70698401994
:101D4000801C0D900D9FF8B2E028014600D8E021DC
:101D50004209062A0FD8421C0EAB0A9C1C548A4228
:101D600001D1174607E0831C0EAC6C25A5548B42AD
:101D700000D083E01F460B98056A002D36D00D97E2
:101D8000F8B206900124671E0A262846314614F050
:101D90003DFD4643A91B3026314346AAB954082FBE
:101DA0002FD80A2D2DD30A2114F030FD314346A837
:101DB0000155072F24D8642D22D36421284614F01E
:101DC00025FD0A2114F022FD314346A80019417077
:101DD0007D20C100284614F019FDE41C062F03D80D
:101DE000E9498D420546CED8641E0AE0F8B24109A1
:101DF000072971D27F1C0D970EA930220A5452E098
:101E0000641C069AE02A00D8E0220EA8069BC0189F
:101E1000D11A8D1E07959A1A521C099246AAD61EEF
:101E2000A21E0892621E0C920025A9421BD03319F3
:101E30009F7847550C9AAA4218D0099A571917D07B
:101E40005F7843195F70089AAA4215D0079AAA4290
:101E500025D0375D0D9AD21C0D929F70ED1CF61E99
:101E6000AC42E2D11FE0069840191BE00D9801E05A
:101E700006984019401C15E00D9812E0C21C0EACEB
:101E8000039DE5548A4200D16BE7001D0EAB019C17
:101E90009C54884201D000F04CFC07466BE7069842
:101EA0004019801C0D900D9FF8B2E028014600D823
:101EB000E0214209062A0FD8441C0EAA0A9B13549B
:101EC0008C4201D1274607E0831C0EAD63222A55C0
:101ED0008B4200D083E01F460B98456A002D36D018
:101EE0000D97F8B206900124671E0A26284631464F
:101EF00014F08CFC4643A91B3026314346AAB95442
:101F0000082F2FD80A2D2DD30A2114F07FFC31433E
:101F100046A80155072F24D8642D22D364212846D2
:101F200014F074FC0A2114F071FC314346A8001926
:101F300041707D20C100284614F068FCE41C062F87
:101F400003D891498D420546CED8641E0AE0F8B206
:101F5000410907296FD27F1C0D970EA930220A5420
:101F600050E0641C069AE02A00D8E0220EA8069BE6
:101F7000C018D11A8D1E07959A1A521C099246AAAA
:101F8000D61EA21E0892621E0C920025A9421BD0EA
:101F900033199F7847550C9AAA4218D0099A5719B5
:101FA00017D05F7843195F70089AAA4215D0079A34
:101FB000AA4223D0375D0D9AD21C0D929F70ED1C62
:101FC000F61EAC42E2D11DE00698401919E00D98CA
:101FD00001E006984019401C13E00D9810E0C41C65
:101FE0000EAD7226EE548C4200D16BE7001D0EAB95
:101FF0001A55884200D0A2E307466DE706984019BB
:10200000801C0D900D9FF9B2E029084600D8E02011
:102010004A09062A0FD84B1C0EAA0A9C5454834224
:1020200001D11F4607E08A1C0EAC6625E5548242AA
:1020300000D083E017460B98856B002D36D00D97A6
:10204000F8B206900124671E0A262846314614F08D
:10205000DDFB4643A91B3026314346AAB954082F5D
:102060002FD80A2D2DD30A2114F0D0FB314346A8D6
:102070000155072F24D8642D22D36421284614F05B
:10208000C5FB0A2114F0C2FB314346A80019417078
:102090007D20C100284614F0B9FBE41C062F03D8AC
:1020A00039498D420546CED8641E0AE0F8B241098E
:1020B000072973D27F1C0D970EA930220A5451E0D4
:1020C000641C069AE02A00D8E0220EA8069BC018DD
:1020D000D11A8D1E07959A1A521C099246AAD61E2D
:1020E000A21E0892621E0C920025A9421BD0331931
:1020F0009F7847550C9AAA4218D0099A571917D0B9
:102100005F7843195F70089AAA4215D0079AAA42CD
:1021100024D0375D0D9AD21C0D929F70ED1CF61ED7
:10212000AC42E2D11EE0069840191AE00D9801E099
:1021300006984019401C14E00D9811E0CB1C0EAC21
:102140006925A554834200D16BE70C1D0EAA039D9F
:10215000D554844200D0F8E227466CE7069840192F
:10216000801C0D900D9FF9B2E029084600D8E020B0
:102170004A09062A12D84B1C0EAA0A9C54548342C0
:1021800004D11F460AE0C046E70300008A1C0EACDB
:102190006425E554824200D083E017460B98C56B56
:1021A000002D36D00D97F8B206900124671E0A263E
:1021B0002846314614F02AFB4643A91B30263143FA
:1021C00046AAB954082F2FD80A2D2DD30A2114F06E
:1021D0001DFB314346A80155072F24D8642D22D377
:1021E0006421284614F012FB0A2114F00FFB31433E
:1021F00046A8001941707D20C100284614F006FB56
:10220000E41C062F03D8F2498D420546CED8641E41
:102210000AE0F8B24109072970D27F1C0D970EA978
:1022200030220A5451E0641C069AE02A00D8E022C9
:102230000EA8069BC018D11A8D1E07959A1A521C1B
:10224000099246AAD61EA21E0892621E0C92002572
:10225000A9421BD033199F7847550C9AAA4218D02F
:10226000099A571917D05F7843195F70089AAA42E4
:1022700015D0079AAA4224D0375D0D9AD21C0D9230
:102280009F70ED1CF61EAC42E2D11EE0069840198C
:102290001AE00D9801E006984019401C14E00D98D2
:1022A00011E0CB1C0EAC7525A554834200D168E724
:1022B000091D0EAA7024D454814200D054E20F4666
:1022C0006CE706984019801C0D900D9FF9B2E0292B
:1022D000084600D8E0204A09062A0FD84B1C0EAA4F
:1022E0000A9C5454834201D11F4607E08A1C0EAC5D
:1022F0006F25E554824200D083E017460B98056CA9
:10230000002D36D00D97F8B206900124671E0A26DC
:102310002846314614F07AFA4643A91B3026314349
:1023200046AAB954082F2FD80A2D2DD30A2114F00C
:102330006DFA314346A80155072F24D8642D22D3C6
:102340006421284614F062FA0A2114F05FFA31433E
:1023500046A8001941707D20C100284614F056FAA5
:10236000E41C062F03D89A498D420546CED8641E38
:102370000AE0F8B24109072970D27F1C0D970EA917
:1023800030220A5451E0641C069AE02A00D8E02268
:102390000EA8069BC018D11A8D1E07959A1A521CBA
:1023A000099246AAD61EA21E0892621E0C92002511
:1023B000A9421BD033199F7847550C9AAA4218D0CE
:1023C000099A571917D05F7843195F70089AAA4283
:1023D00015D0079AAA4224D0375D0D9AD21C0D92CF
:1023E0009F70ED1CF61EAC42E2D11EE0069840192B
:1023F0001AE00D9801E006984019401C14E00D9871
:1024000011E0CB1C0EAC6C25A554834200D16BE7C8
:10241000091D0EAA6424D454814200D0A9E10F46BC
:102420006CE706984019801C0D900D9FF9B2E029C9
:10243000084600D8E0204A09062A0FD84A1C0EABED
:102440000A9C5C54824201D1174607E08B1C0EACFB
:102450006F25A554834200D083E01F460B98446843
:10246000002C34D00D970126771E0A2520462946D8
:1024700014F0CCF94543611B3025294346AAB954D1
:10248000082F2FD80A2C2DD30A2114F0BFF9294385
:1024900046A88155072F24D8642C22D364212046D6
:1024A00014F0B4F90A2114F0B1F9294346A88019AF
:1024B00041707D20C100204614F0A8F9F61C062FBB
:1024C00003D8C5498C420446CED8761E0AE0F8B23D
:1024D000410907296AD27F1C0D970EA930220A54A0
:1024E00053E0761C0D98C3B2E02B184600D8E020CC
:1024F0000EA9C918C21A941E09940893181A401CF0
:102500000B9046A8C71EB01E0A90701E0C900025A6
:10251000AA421BD0BC19A07848550C98A84218D0E4
:102520000B98401917D060784C1960700A98A8422F
:1025300015D00998A84224D0B85D0D9BDB1C0D93E3
:10254000A070ED1CFF1EAE42E2D11EE008984019BB
:102550001AE00D9801E008984019401C14E00D980D
:1025600011E0CA1C0EAC029DE554824200D16BE71B
:10257000091D0EAB66249C54814200D0FEE00F463C
:102580006CE708984019801C0D900D9FF9B248091E
:1025900006280BD8481C0EAA0D235354E02801D15D
:1025A000E02703E0BF1C0EA90A220A548B4DFFB29C
:1025B0008B4800888B4E3188C94340182840B84268
:1025C00008D28A488169491C816149B0F0BDC04682
:1025D000E70300007C1E0321204614F017F94A1C73
:1025E0000021032A084600D010460C92022C20D36A
:1025F000391A0D9100217C4C0EAA5718525C2B46BB
:10260000358862553288521C1A4032807A78358873
:1026100062553288521C1A403280BA783588625529
:102620001D463288521C1A403280C91C0D9A8A42BB
:10263000E2D10C9A032A15D00EAA51186A4A0B78D7
:102640003488135533885B1C2B403380012809D014
:102650004B783488135533885B1C2B403380891C9E
:10266000801EECD149B0F0BDCB1C0EAC6125A55449
:10267000834201D1FFF71EFA0A1D0EAC7225E55404
:10268000824201D1FFF720FA4B1D0EAC7325A554F1
:10269000834201D1FFF70EFA8A1D0EAC039DE5546B
:1026A000824201D1FFF710FAC91D0EAB64249C547D
:1026B000814200D083E00F46FFF707FACB1C0EAC37
:1026C0007925A554834201D1FFF753F90C1D0EAAB9
:1026D000049DD554844256D12746FFF755F9421D33
:1026E0000EAB039D1D558A4201D1FFF78DFA831D64
:1026F0000EAC7025A5548B4201D1FFF77CFAC41DA6
:102700000EAA049DD5548C4201D1FFF715FB024659
:1027100008320EAB039D1D558A4201D1FFF774FAB2
:1027200009300EAB64249C5488424ED10746FFF713
:102730006CFA7F1D0EA9059A0A54FFF71CFB7F1D3A
:102740000EA9059A0A54FFF7C7FB4A1D0EAB6C256C
:102750001D55824200D16DE4891D0EAB64249C544A
:10276000814221D10F4666E47F1D0EA8059A42548E
:1027700014E57F1D0EA8059A4254BFE57F1D0EA8E3
:10278000059A42546AE64A1D0EAB039D1D558242CE
:1027900001D1FFF7F8F8891D0EAB73249C548142D8
:1027A00007D10F46FFF7F0F8FF1D0EA8059A425417
:1027B00041E4FF1D0EA8059A4254FFF7E5F80837DB
:1027C0000EA8059A4254FFF780F90A370EA9059A18
:1027D0000A54FFF71AFAC046E7030000FF0700009B
:1027E000281920202619202000002020281720202A
:1027F000F0B5D3B00C930D4604461192D069211A5E
:102800000D910026F14300280B4600D00D9BA848EF
:102810008268A01A0292002A00D001460A910B9009
:1028200014A84421017042214170472181702C225B
:10283000C27043210171542107914171522181716C
:102840004C21C171129202727421039141723D2197
:1028500009918172002C049406933CD00F950121BC
:102860000C223546139117460A262046314613F0AE
:10287000CDFF139B4643A11B30220A436E1C50A977
:102880004A55082D04D8591C7A1C092C0446E8D84E
:102890001C4610970321284613F0B8FF4F1C032F46
:1028A0001ED03846022D1ED3139750AAD31E341AB9
:1028B00000229D19AF7814A98918CF726D780D7315
:1028C0009D5D4D73D21CDB1E9442F2D1B31A0B32C4
:1028D0001099139F0AE014A83021C1720C2118E04E
:1028E0000020022DE0D223460B221099032F0F9DCA
:1028F0000FD014A9891850AA9A18921E53780B70F9
:10290000012805D013784B70891C921E801EF5D1CA
:1029100010990C46C8B214A90A18129B0B546F21C7
:1029200051706C210191917064210091D1700999CD
:102930001171072D03D8A9005E4A525800E05E4A83
:1029400011993C311191611D1778002F2AD0CBB21B
:1029500014AC24180F94EB24201A10900026F020B9
:10296000109CB442139037D094190F9DAD196F711C
:102970006778002F13D010465A1CF02A2CD0AF7164
:10298000A778002F0DD09A1CF02A25D0DB1CC91C7B
:10299000EF71E778F61C002F0246E0D102E0491CF7
:1029A00000E0891CCBB2F02B1A4600D8F02218099F
:1029B0000E2801D913910FE0581C14AC129DE55458
:1029C000904201D1139007E09C1C14AD6E262E544A
:1029D000944200D095E013941199897807290591C4
:1029E00003D88900334A525800E0334A117800294D
:1029F00013982FD0C3B2F02B1D4600D8F02514AC8D
:102A0000E4180895ED1AAB1E0E9310956B1E0F93EC
:102A10000023109D9D4218D0D618E1547778002FDE
:102A200015D00F99994210D0E1184F70B778002F48
:102A30000FD015460E9A9A4207D0C01C8F70F178BD
:102A4000DB1C00292A46E4D104E0089802E0401C7F
:102A500000E0801C589908910599052900D0B9E03B
:102A6000C2B2F02A114600D8F02113090E2B0FD85C
:102A7000541C14AB129D9D548C4201D1204607E09A
:102A8000931C14AD63262E558B4200D080E018466F
:102A9000049C1199497804290B9B49D8074DC046DD
:102AA0007944097949008F440B443F413D00C046B9
:102AB000A8162020B87A0100347E01004C7E010067
:102AC000F84D0299002934D0F74AC73A934230D8DA
:102AD0000799089B595C091FC9B20A2905D2F34B13
:102AE000CB40DB0701D000F0FFFD0899896C631A29
:102AF000EF4D93422A4600D8EE4A002919D01546D8
:102B000017E0D81C14AD65262E55904200D159E728
:102B10001B1D14AC77252554934201D000F0C9FD4C
:102B2000139359E7E44D04E0E44D02E0E44D00E086
:102B3000E44D2F78002F4DD01095C1B2F0290B46EF
:102B400000D8F02314AA521813935B1A991E0E9101
:102B5000591E0F910026B34217D010998919975525
:102B60004C78002C33D00F9DB5420ED097197C7055
:102B70008C78002C2DD00E9DB54206D0C01CBC70A8
:102B8000CF78F61C002FE6D124E00B980D9E3DE097
:102B9000D41C14AD6126EE548C4200D16EE7131D97
:102BA00014AD75262E558B4200D170E7541D14AD1F
:102BB0007326EE548C4200D160E7921D14AB65255C
:102BC0001D558A4201D000F0A5FD104660E7401C6B
:102BD00000E0801CC2B2F02A114600D8F02113098F
:102BE0000E2B0D9E01D913900FE0571C14AB129CB5
:102BF0009C548F4201D1139707E0931C14AC6D25B0
:102C0000E5558B4200D017E213930B98069B002BDF
:102C10000BD415D1139EF4B221090F2900D39FE0E4
:102C2000731C14A930220A5580E0139AD0B201090E
:102C30000E2904D8521C139214A92D220A545E4264
:102C400001256F1E0A243046214613F0DFFD444360
:102C5000311B3024214350AAB954082F25D80A2EFD
:102C600023D30A2113F0D2FD214350A84155072F49
:102C70001AD8642E18D36421304613F0C7FD0A21F8
:102C800013F0C4FD214350A8401941707D20C100BC
:102C9000304613F0BBFDED1C062F03D882498E424F
:102CA0000646CED86D1E00E06D1C13980346C4B2D4
:102CB000F02C204600D8F02014A90919021B961EFA
:102CC0000D960694201A401C0F9050A8C71EA81EEF
:102CD0000E90681E10900026B24219D07C19A07880
:102CE00088551098B04216D00F98801915D060788A
:102CF0008C1960700E98B04213D00D98B04212D06B
:102D0000785DDB1CA070F61CFF1EB542E4D10DE01F
:102D1000069883190AE05B1C08E006988019431C9A
:102D200004E09B1C02E006988019831C1E46D9B261
:102D3000F029084600D8F0200A090E2A0FD84B1CAB
:102D400014AA129C5454834201D11E4607E08A1CE7
:102D500014AC7225E554824200D039E116460B9836
:102D60000A99002902D474D013960AE0F0B201093E
:102D70000E2903D8761C14A92D220A5413960A98FA
:102D8000404201256F1E0A242146064613F03EFDEF
:102D90004443311B3024214350AAB954082F25D86D
:102DA00033460A2E22D30A2113F030FD214350AAC4
:102DB0005155072F19D83046642E16D3642113F0CD
:102DC00025FD0A2113F022FD214350A8401941702E
:102DD0007D20C100304613F019FDED1C062F02D8EE
:102DE00031498E42CED86D1E00E06D1C139803460B
:102DF000C4B2F02C204600D8F02014A90919021BF7
:102E0000961E0D960B94201A401C0F9050A8C71EBA
:102E1000A81E0E90681E10900026B24222D07C1987
:102E2000A07888551098B0421FD00F9880191ED0F6
:102E300060788C1960700E98B0421CD00D98B0422A
:102E40001BD0785DDB1CA070F61CFF1EB542E4D1E0
:102E500016E0F0B201090F293ED2731C14A93022EA
:102E60000A540DE00B9883190AE05B1C08E00B98EC
:102E70008019431C04E09B1C02E00B988019831C02
:102E80001E46D9B2F029084600D8F0200A090E2AB9
:102E900022D84B1C14AA129C5454834214D11E46AF
:102EA0001AE0C046937C0100E70300000F03000016
:102EB000CF7B0100BC7C0100EE7D0100387D01006C
:102EC000087D0100347E01008A1C14AC7325E55492
:102ED000824200D09AE016460C98048A002C36D024
:102EE0001396F0B20B9001277E1E0A252046294634
:102EF00013F08CFC4543611B3025294350AAB15483
:102F0000082E30D80A2C2ED30A2113F07FFC294337
:102F100050A8C155072E25D8642C23D36421204600
:102F200013F074FC0A2113F071FC294350A8C01956
:102F300041707D20C100204613F068FCFF1C062E66
:102F400003D8F9498C420446CED87F1E0BE0F0B27C
:102F500001090F2900D3A5E0761C139614A930228D
:102F60000A5486E07F1C0B9AF02A00D8F02214A89D
:102F70000B9BC018D11A8C1E0D949A1A521C0F92DA
:102F800050AAD51EBA1E0E927A1E10920024A1429B
:102F90001BD0EB199E780655109AA24246D00F9A84
:102FA000161945D05E7803195E700E9AA2425AD067
:102FB0000D9AA24259D0EE5D139AD21C13929E70C4
:102FC000E41CED1EA742E2D153E00B9800194FE03C
:102FD000CB1C14AC7825A554834200D1B5E60A1D5C
:102FE00014AC6125E554824200D1B7E64B1D14AC08
:102FF0006725A554834200D1A7E6891D14AA65243C
:10300000D454814200D074E30E46A8E6CB1C14AC25
:103010006525A554834200D141E7091D14AA7124F6
:10302000D454814200D03FE30E4655E7139801E0A7
:103030000B980019401C1BE0D71C14AC6125E5540B
:103040008F4200D1D7E5131D14AC6725E5558B429F
:1030500000D1D9E5521D14AC6525E5548A4200D053
:103060002EE31392D1E5139801E00B980019801C10
:103070001390139EF0B2F028014600D8F021020907
:103080000E2A0FD8431C14AA129C14548B4201D14F
:103090001E4607E0821C14AC7625E5548A4200D017
:1030A00083E016460C984478002C36D01396F0B284
:1030B0000B9001277E1E0A252046294613F0A6FB09
:1030C0004543611B3025294350AAB154082E2FD8FF
:1030D0000A2C2DD30A2113F099FB294350A8C1557E
:1030E000072E24D8642C22D36421204613F08EFBB3
:1030F0000A2113F08BFB294350A8C01941707D2091
:10310000C100204613F082FBFF1C062E03D8934912
:103110008C420446CED87F1E0AE0F0B201090F2986
:103120007ED2761C139614A930220A545FE07F1CCD
:103130000B9AF02A00D8F02214A80B9BC018D11AC1
:103140008C1E0D949A1A521C0F9250AAD51EBA1EAC
:103150000E927A1E10920024A1421BD0EB199E7889
:103160000655109AA24218D00F9A161917D05E78F9
:1031700003195E700E9AA24215D00D9AA24232D067
:10318000EE5D139AD21C13929E70E41CED1EA742B2
:10319000E2D12CE00B98001928E0139801E00B987D
:1031A0000019401C22E013981FE0C31C14AC6125D9
:1031B000A5548B4200D16BE7021D14AC019DE55470
:1031C0008A4200D16DE7431D14AC6925A5548B429A
:1031D00000D15DE7801D14AA009CD454884200D021
:1031E0008DE206465EE70B980019801C1390139E33
:1031F000F1B2F029084600D8F0200A090E2A0FD8AB
:103200004B1C14AA129C5454834201D11E4607E061
:103210008A1C14AC6D25E554824200D086E0164627
:103220000C988478002C36D01396F0B20C900127BD
:103230007E1E0A252046294613F0E8FA4543611B05
:103240003025294350AAB154082E30D80A2C2ED349
:103250000A2113F0DBFA294350A8C155072E25D8BF
:10326000642C23D36421204613F0D0FA0A2113F0F2
:10327000CDFA294350A8C01941707D20C1002046D5
:1032800013F0C4FAFF1C062E03D834498C420446BE
:10329000CED87F1E0BE0F0B201090F2900D384E0E5
:1032A000761C139614A930220A545DE07F1C0C9AF8
:1032B000F02A00D8F02214A80C9BC018D11A8C1E3A
:1032C0000D949A1A521C0F9250AAD51EBA1E0E9235
:1032D0007A1E10920024A1421BD0EB199E7806554D
:1032E000109AA24218D00F9A161917D05E780319B7
:1032F0005E700E9AA24215D00D9AA24230D0EE5DB9
:10330000139AD21C13929E70E41CED1EA742E2D1C8
:103310002AE00C98001926E0139801E00C98001997
:10332000401C20E013981DE0E7030000CB1C14AC08
:103330006525A554834200D168E70A1D14AC6125B8
:10334000E554824200D16AE7491D14AB73249C54B2
:10335000814200D0BBE10E4662E7C046E7030000B1
:103360000C980019801C1390139EF1B2F0290846A6
:1033700000D8F0200A090E2A17D84A1C14AB129C58
:103380005C54824201D116460FE08B1C14AC7325AD
:10339000A554834201D11E4607E0CC1C14AA039D0C
:1033A000D554844200D062E1264611980478002C5E
:1033B00036D01396F0B20D9001277E1E0A252046C6
:1033C000294613F023FA4543611B3025294350AAAF
:1033D000B154082E2FD80A2C2DD30A2113F016FA37
:1033E000294350A8C155072E24D8642C22D3642128
:1033F000204613F00BFA0A2113F008FA294350A8CB
:10340000C01941707D20C100204613F0FFF9FF1C58
:10341000062E03D8C6498C420446CED87F1E0AE049
:10342000F0B201090F2960D2761C139614A930223C
:103430000A5441E07F1C0D9AF02A00D8F02214A80B
:103440000D9BC018D11A8C1E0E949A1A521C109201
:1034500050AAD51EBA1E0F927A1E11920024A142C4
:103460001BD0EB199E780655119AA24218D0109ADB
:10347000161917D05E7803195E700F9AA24215D004
:103480000E9AA24214D0EE5D139AD21C13929E7033
:10349000E41CED1EA742E2D10EE00D9800190AE0EF
:1034A000139801E00D980019401C04E0139801E006
:1034B0000D980019801C1390139EF0B2F02801465D
:1034C00000D8F02102090E2A0FD8441C14AA129B1E
:1034D00013548C4201D1264607E0831C14AD6522AB
:1034E0002A558B4200D0ADE01E4607980899085C2B
:1034F0000D2803D880009049095800E08B490F78C7
:10350000002F2BD03546F0B2F028034600D8F02328
:1035100014AA121810931B1A981E11901393581E78
:10352000129000261398B0421AD088199755447803
:10353000002C17D0129BB34212D097197C7084785C
:10354000002C11D00B461199B14209D0ED1CBC7072
:10355000C778F61C002F1946E4D106E0354604E092
:10356000109B14E06D1C00E0AD1CE9B208090E28A8
:1035700001D92B460BE0481C14AA0D235354F02804
:1035800001D1F02303E0AB1C14A90A220A546B4DAD
:10359000DFB26B4800886B4E3188C9434018284021
:1035A000B84205D269488169491C816153B0F0BDB8
:1035B0007C1E0321204613F029F94A1C0021032A0E
:1035C000084600D010461292022C20D3391A1391CB
:1035D00000215D4C14AA5718525C2B463588625561
:1035E0003288521C1A4032807A7835886255328887
:1035F000521C1A403280BA78358862551D4632888E
:10360000521C1A403280C91C139A8A42E2D1129A83
:10361000032A15D014AA51184B4A0B783488135535
:1036200033885B1C2B403380012809D04B783488C9
:10363000135533885B1C2B403380891C801EECD1D2
:1036400053B0F0BDC41C14AD7626EE548C4200D1AC
:1036500041E7031D14AD2A558B4200D144E7421DBA
:1036600014AC6E25E5548A4236D116463DE70A1D54
:1036700014AB72251D55824200D184E64B1D14AC5B
:103680006525A554834200D185E68A1D14AC6125C9
:10369000E554824200D176E6C91D14AB6B249C54DC
:1036A00081423DD10E4680E6761D14A8099A425407
:1036B00012E4481D139014A9099ACA54FFF78CF913
:1036C000801D139014A809998154FFF79EFAB61D26
:1036D00014A8099A4254A3E5801D14AB039C9C5482
:1036E000884211D1064600E78900124A5558FFF773
:1036F00020FAF61D14A8099A4254FFF730FBF61D74
:1037000014A9099A0A54CDE4139EF61D14A9099A26
:103710000A54EAE6C01D14A9099B8B54FFF7B8F9B7
:10372000083614A8099A42543FE6C046347E010088
:10373000E7030000507A0100B8790100FF0700009C
:1037400028192020261920200000202028172020BA
:10375000F0B5C3B00C920D91064610A8442101703B
:1037600042214170472181702C22C2704621017193
:10377000492141714C2181715421C171452101724E
:10378000522141720B92827274210591C1723D21C6
:1037900006910173002E3ED0002401210E222746FF
:1037A0000E9115460A243046214613F02FF80E9B41
:1037B0004443311B30220A437C1C40A9CA55082FC0
:1037C00004D8591C6A1C092E0646E8D81E460F95D7
:1037D0000321384613F01AF84D1C032D20D028463B
:1037E000022F20D30E9540AAD31E251A00221E199F
:1037F000B77810A989184F7376788E731E5DCE73D3
:10380000D21CDB1E9542F2D1A31A0D320F990E9DE8
:10381000032D0DD11CE010A8302141730E2117E0BB
:103820000020022FDED233460D220F99032D0FD038
:1038300010A9891840AA9A18921E53780B70012873
:1038400005D013784B70891C921E801EF5D10F99FC
:103850000A46CBB210A8C1180B9CC4547220487001
:1038600065200390887073200490C87075200290C2
:1038700008716C200190487105988871069CCC7184
:103880000D98005D042803D88000F149085800E035
:10389000F04808320578002D24D00F901046D1B2A0
:1038A00010AAD2180E92B824E31A0024A3421BD007
:1038B0000F9A16190E9A17193D727578002D19D0A6
:1038C0004A1CC02A10D07D72B578002D14D08A1CF5
:1038D000C02A09D0C91CC01CBD72F578E41C002D9B
:1038E000E4D10AE0104608E00C98068AC023002EB6
:1038F0001FD1C7E0401C00E0801C0346C1B2C029B4
:103900000D4600D8C0258A09022A0ED84A1C10ABE1
:103910000B9C5C54AA4201D1134606E08B1C10ACF0
:10392000049EA654AB4200D016E20C98068A002EE4
:1039300034D00F9301256F1E0A243046214612F021
:1039400065FF4443311B3024214340AAB954082F5A
:103950002FD80A2E2DD30A2112F058FF214340A858
:103960004155072F24D8642E22D36421304612F00B
:103970004DFF0A2112F04AFF214340A8401941702F
:103980007D20C100304612F041FFED1C062F03D808
:10399000B1498E420646CED86D1E0AE0D8B28109E2
:1039A00002296FD85B1C0F9310A930220A5443E000
:1039B0006D1C0F98C3B2C02B184600D8C02010A9A8
:1039C000C918C21A941E08940793181A401C0A902A
:1039D00040A8C71EA81E0990681E0E900026B2427D
:1039E0001BD07C19A07888550E98B04218D00A9840
:1039F000801917D060788C1960700998B04215D082
:103A00000898B04214D0785D0F9BDB1C0F93A07018
:103A1000F61CFF1EB542E2D10EE0079880190AE0BD
:103A20000F9801E007988019401C04E00F9801E00E
:103A300007988019801C0F900F9BD9B2C0290846A7
:103A400000D8C0208A09022A1CD84B1C10AA0B9C43
:103A50005454834216D08A1C10AC7625E554824219
:103A600001D113460EE0CB1C10AC6125A554834256
:103A700008D00C1D10AA019DD554844201D000F03D
:103A8000BDFC23460C984678002E36D00F93D8B252
:103A9000079001277D1E0A243046214612F0B6FE0B
:103AA0004443311B3024214340AAA954082D2FD868
:103AB0000A2E2DD30A2112F0A9FE214340A8C15598
:103AC000072D24D8642E22D36421304612F09EFEA6
:103AD0000A2112F09BFE214340A8C01941707D20AD
:103AE000C100304612F092FEFF1C062D03D85A4941
:103AF0008E420646CED87F1E0AE0D8B2810903293D
:103B00005FD25B1C0F9310A930220A5441E07F1C46
:103B1000079AC02A00D8C02210A8079BC018D11A43
:103B20008C1E08949A1A521C0A9240AAD51EBA1EDC
:103B300009927A1E0E920024A1421BD0EB199E78A6
:103B400006550E9AA24218D00A9A161917D05E7816
:103B500003195E70099AA24215D0089AA24214D0A5
:103B6000EE5D0F9AD21C0F929E70E41CED1EA742D0
:103B7000E2D10EE0079800190AE00F9801E00798DB
:103B80000019401C04E00F9801E007980019801C00
:103B90000F900F9BD8B2C028014600D8C0218209DF
:103BA000022A0ED8421C10AB0B9C1C548A4201D135
:103BB000134606E0831C10AC6D25A5548B4200D043
:103BC0008AE00C988678002E36D00F93D8B20790F2
:103BD00001277D1E0A243046214612F017FE444379
:103BE000311B3024214340AAA954082D37D80A2E6E
:103BF00035D30A2112F00AFE214340A8C155072DF2
:103C00002CD8642E2AD36421304612F0FFFD0A21FD
:103C100012F0FCFD214340A8C01941707D20C10075
:103C2000304612F0F3FDFF1C062D03D80A498E42E0
:103C30000646CED87F1E12E0D8B28109032900D3F0
:103C40009FE05B1C0F9310A930220A545FE0C0462E
:103C5000947B0100347E0100E70300007F1C079A7B
:103C6000C02A00D8C02210A8079BC018D11A8C1EE9
:103C700008949A1A521C0A9240AAD51EBA1E09929A
:103C80007A1E0E920024A1421BD0EB199E78065595
:103C90000E9AA24218D00A9A161917D05E78031904
:103CA0005E70099AA24215D0089AA2422BD0EE5D0E
:103CB0000F9AD21C0F929E70E41CED1EA742E2D117
:103CC00025E00798001921E00F9801E007980019F6
:103CD000401C1BE00F9818E0C21C10AC039DE5547B
:103CE0008A4200D164E7031D10AC6125A5548B42C4
:103CF00000D166E7401D10AA049CD454884200D02D
:103D000094E303465DE707980019801C0F900F9B12
:103D1000D8B2C028014600D8C0218209022A30D872
:103D2000431C10AA0B9C14548B422AD0821C10AC4A
:103D30007025E5548A4201D1134622E0C31C10AC21
:103D40006F25A5548B421CD0001D10AA049CD4548E
:103D5000884211D1034614E0CA1C10AC039EE654FD
:103D6000AA4200D1D8E5091D10AB71249C54A94288
:103D700000D054E30B46D8E50F9B5B1D10A9069AB3
:103D80000A5412200C990D5E002D02D474D00F93AA
:103D900009E0D8B28109022903D85B1C10A92D22A1
:103DA0000A540F936D420126771E0A2428462146A5
:103DB00012F02CFD4443291B3024214340AAB9545E
:103DC000082F25D80A2D23D30A2112F01FFD2143E5
:103DD00040A88155072F1AD8642D18D3642128468E
:103DE00012F014FD0A2112F011FD214340A88019A0
:103DF00041707D20C100284612F008FDF61C062FF8
:103E000003D8FE498D420546CED8761E00E0761CCA
:103E10000F98C3B2C02B184600D8C02010A9C918EB
:103E2000C21A941E09940893181A401C0C9040A8BA
:103E3000C71EB01E0A90701E0E900025AA4225D003
:103E4000BC19A07848550E98A84222D00C98401969
:103E500021D060784C1960700A98A8421FD0099848
:103E6000A8421ED0B85D0F9BDB1C0F93A070ED1C09
:103E7000FF1EAE42E2D118E0D8B28109032938D240
:103E80005B1C0F9310A930220A540EE008984019C9
:103E90000AE00F9801E008984019401C04E00F98D0
:103EA00001E008984019801C0F900F9BD8B2C028E1
:103EB000014600D8C0218209022A1AD8431C10AA40
:103EC0000B9C14548B4214D0821C10AC6125E55419
:103ED0008A4201D113460CE0C31C10AC6325A554E3
:103EE0008B4206D0041D10AAD5548C4200D060E24B
:103EF00023460D98056A002D36D00F93D8B208904E
:103F000001277E1E0A242846214612F07FFC4443E6
:103F1000291B3024214340AAB154082E2FD80A2D42
:103F20002DD30A2112F072FC214340A8C155072E5F
:103F300024D8642D22D36421284612F067FC0A217C
:103F400012F064FC214340A8C01941707D20C100DB
:103F5000284612F05BFCFF1C062E03D8A7498D42B1
:103F60000546CED87F1E0AE0D8B28109032966D261
:103F70005B1C0F9310A930220A5441E07F1C089A61
:103F8000C02A00D8C02210A8089BC018D11A8C1EC5
:103F900009949A1A521C0C9240AAD51EBA1E0A9273
:103FA0007A1E0E920024A1421BD0EB199E78065572
:103FB0000E9AA24218D00C9A161917D05E780319DF
:103FC0005E700A9AA24215D0099AA24214D0EE5D00
:103FD0000F9AD21C0F929E70E41CED1EA742E2D1F4
:103FE0000EE0089800190AE00F9801E008980019FF
:103FF000401C04E00F9801E008980019801C0F9005
:104000000F9BD9B2C029084600D8C0208A09022ACD
:1040100015D84A1C10AB0B9C5C54824201D113464C
:104020000DE08B1C10AC6A25A554834207D0CC1C34
:1040300010AA029DD554844200D09CE123460D98DD
:10404000456A002D36D00F93D8B2089001277E1E06
:104050000A242846214612F0D9FB4443291B302468
:10406000214340AAB154082E2FD80A2D2DD30A215E
:1040700012F0CCFB214340A8C155072E24D8642D53
:1040800022D36421284612F0C1FB0A2112F0BEFBA4
:10409000214340A8C01941707D20C100284612F07C
:1040A000B5FBFF1C062E03D8F0498D420546CED83D
:1040B0007F1E0AE0D8B28109032965D25B1C0F93E9
:1040C00010A930220A5441E07F1C089AC02A00D867
:1040D000C02210A8089BC018D11A8C1E09949A1AE5
:1040E000521C0C9240AAD51EBA1E0A927A1E0E923B
:1040F0000024A1421BD0EB199E7806550E9AA242CD
:1041000018D00C9A161917D05E7803195E700A9AA7
:10411000A24215D0099AA24214D0EE5D0F9AD21C89
:104120000F929E70E41CED1EA742E2D10EE00898AB
:1041300000190AE00F9801E008980019401C04E0FB
:104140000F9801E008980019801C0F900F9BD9B2BE
:10415000C029084600D8C0208A09022A14D84B1C5E
:1041600010AA0B9C545483420ED08A1C10AC6825B4
:10417000E554824201D1134606E0CB1C10AC6F25FA
:10418000A554834200D005E10D98846A002C37D0F5
:104190000F930126771E0A252046294612F036FB8A
:1041A0004543611B3025294340AAB954082F32D812
:1041B0000A2C30D30A2112F029FB294340A881554B
:1041C000072F27D8642C25D36421204612F01EFB2C
:1041D0000A2112F01BFB294340A8801941707D2061
:1041E000C100204612F012FBF61C062F03D89F498F
:1041F0008C420446CED8761E0DE0C046E703000090
:10420000D8B2810903295BD25B1C0F9310A930221D
:104210000A5443E0761C0F98C3B2C02B184600D84E
:10422000C02010A9C918C21A941E0B940A93181A18
:10423000401C0D9040A8C71EB01E0C90701E0E9022
:104240000025AA421BD0BC19A07848550E98A84258
:1042500018D00D98401917D060784C1960700C98E0
:10426000A84215D00B98A84214D0B85D0F9BDB1C58
:104270000F93A070ED1CFF1EAE42E2D10EE00A9833
:1042800040190AE00F9801E00A984019401C04E028
:104290000F9801E00A984019801C0F900F9BD9B22B
:1042A000880902280CD8481C10AA0D235354C02892
:1042B00001D1C02304E00F9B9B1C10A90A220A54C1
:1042C0006B4DDFB26B4800886B4E3188C943401894
:1042D0002840B84205D26A488169491C816143B0CF
:1042E000F0BD7C1E0321204612F090FA4A1C0021EA
:1042F000032A084600D010460E92022C20D3391A09
:104300000F9100215D4C10AA5718525C2B4635883E
:1043100062553288521C1A4032807A78358862554C
:104320003288521C1A403280BA78358862551D4650
:104330003288521C1A403280C91C0F9A8A42E2D13C
:104340000E9A032A15D010AA51184C4A0B783488BB
:10435000135533885B1C2B403380012809D04B78E0
:104360003488135533885B1C2B403380891C801E96
:10437000ECD143B0F0BD0A1D10AB6D251D55824236
:1043800000D14CE6491D10AB70249C54814254D19D
:104390000B4654E60A1D10AC019DE554824200D143
:1043A000E9E6491D10AB64249C5481424BD10B4675
:1043B000EAE6421D10AB039D1D558A4200D189E5F6
:1043C000831D10AC7025A5548B4200D191E5C41D0E
:1043D00010AA059DD5548C4200D189E502460832C9
:1043E00010AB039D1D558A4200D173E5093010AB17
:1043F00064249C54884233D103467AE54A1D10ABAD
:1044000069251D55824201D1FFF72BFB891D10AB99
:1044100064249C5481421CD10B46FFF733FB0346B6
:10442000431D10A8069A4254FFF77FFA0F9B9B1D6D
:1044300010A9069A0A54FFF7C4FB0F9B9B1D10A8F6
:10444000069A4254FBE50F9B9B1D10A8069A425406
:104450009AE60F9BDB1D10A8069A4254FFF712FB49
:104460000F9B0A3310A9069A0A5442E5E70300009D
:10447000FF070000281920202619202000002020F6
:1044800028172020F0B58DB0002613F00BF9044654
:104490003046314612F02AFED64812F0AFFB0194A6
:1044A000E06A012504963146039505916A1E06923D
:1044B0000A2207920746049D2B4612F0E5FF0446A8
:1044C0000E46079A2B4612F0AFFD381A30252843C6
:1044D00008A9069A5054029705980A3F049A9041F9
:1044E000079536D30A220027204631463B4612F074
:1044F000CBFF2A4308A8039BC254069911291D46E5
:10450000029E28D8304664380598B84123D36422E7
:1045100000243046059F3946234612F0B5FF0A2293
:10452000234612F0B1FF0798024308A840194270D1
:104530007D20C20030463946234612F0A5FFED1C0F
:10454000069A102A03D8AC4A921BBC41ACD36D1E0C
:1045500002E0039D00E06D1C681E0321069012F02E
:1045600055F9481C032803D00446032803D114E05E
:104570000024032811D008A82F46861EF019407881
:1045800011F072FC012C07D0BD1EF05D11F06CFC27
:10459000A41E2F46F2D100E07D1E0698022810D3FB
:1045A0006C4208A82818C51EA87811F05DFC687830
:1045B00011F05AFC287811F057FCE41CED1E002C79
:1045C000F2D18E4812F01AFB0198006B00210125F0
:1045D0000491039505916A1E06920A2202920746EB
:1045E000049D2B4612F050FF04460E46029A2B46BD
:1045F00012F01AFD381A079D284308A9069A50544C
:10460000029705980A3F049A904136D30A22002760
:10461000204631463B4612F037FF2A4308A8039B49
:10462000C254069911291D46029E28D83046643886
:104630000598B84123D3642200243046059F3946AB
:10464000234612F021FF0A22234612F01DFF07988D
:10465000024308A8401942707D20C2003046394606
:10466000234612F011FFED1C069A102A03D8624A65
:10467000921BBC41ADD36D1E02E0039D00E06D1C9A
:10468000681E0321069012F0C1F8481C032803D0CD
:104690000446032803D114E00024032811D008A8FD
:1046A0002F46861EF019407811F0DEFB012C07D052
:1046B000BD1EF05D11F0D8FBA41E2F46F2D100E024
:1046C0007D1E0698022810D36C4208A82818C51E23
:1046D000A87811F0C9FB687811F0C6FB287811F0B2
:1046E000C3FBE41CED1E002CF2D102200024214665
:1046F00012F0FCFC424812F081FA0198406B01254F
:1047000004942146039505916A1E06920A2202929C
:104710000746049D2B4612F0B7FE04460E46029A49
:104720002B4612F081FC381A079D284308A9069AE7
:104730005054029705980A3F049A904136D30A22B2
:104740000027204631463B4612F09EFE2A4308A829
:10475000039BC254069911291D46029E28D8304653
:1047600064380598B84123D3642200243046059F5D
:104770003946234612F088FE0A22234612F084FEB0
:104780000798024308A8401942707D20C2003046B5
:104790003946234612F078FEED1C069A102A03D8FB
:1047A000154A921BBC41ADD36D1E02E0039D00E093
:1047B0006D1C681E0321069012F028F8481C03287F
:1047C00003D00446032803D11DE0002403281AD097
:1047D00008A82F46861EF019407811F045FB012CE1
:1047E00010D0BD1EF05D11F03FFBA41E2F46F2D18C
:1047F00009E0C046B1820100E703000058810100D2
:10480000648201007D1E0698022810D36C4208A81D
:104810002818C51EA87811F027FB687811F024FB32
:10482000287811F021FBE41CED1E002CF2D1D648B3
:1048300012F0E4F90198806B0021012504910395A1
:1048400005916A1E06920A2202920746049D2B4693
:1048500012F01AFE04460E46029A2B4612F0E4FBB2
:10486000381A079D284308A9069A505402970598BC
:104870000A3F049A904136D30A2200272046314647
:104880003B4612F001FE2A4308A8039BC254069936
:1048900011291D46029E28D8304664380598B84133
:1048A00023D3642200243046059F3946234612F064
:1048B000EBFD0A22234612F0E7FD0798024308A801
:1048C000401942707D20C20030463946234612F01E
:1048D000DBFDED1C069A102A03D8AC4A921BBC41A2
:1048E000ADD36D1E02E0039D00E06D1C681E032128
:1048F000069011F08BFF481C032803D004460328C0
:1049000003D114E00024032811D008A82F46861EE6
:10491000F019407811F0A8FA012C07D0BD1EF05D07
:1049200011F0A2FAA41E2F46F2D100E07D1E0698D7
:10493000022810D36C4208A82818C51EA87811F0C8
:1049400093FA687811F090FA287811F08DFAE41C47
:10495000ED1E002CF2D104200024214612F0C6FBEB
:104960008B4812F04BF90198C06B01250494214645
:10497000039505916A1E06920A2202920746049D3B
:104980002B4612F081FD04460E46029A2B4612F089
:104990004BFB381A079D284308A9069A50540297E2
:1049A00005980A3F049A904136D30A2200272046F0
:1049B00031463B4612F068FD2A4308A8039BC254C7
:1049C000069911291D46029E28D83046643805985C
:1049D000B84123D3642200243046059F394623463C
:1049E00012F052FD0A22234612F04EFD07980243B0
:1049F00008A8401942707D20C2003046394623463F
:104A000012F042FDED1C069A102A03D85F4A921B51
:104A1000BC41ADD36D1E02E0039D00E06D1C681E1D
:104A20000321069011F0F2FE481C032803D004462F
:104A3000032803D114E00024032811D008A82F462E
:104A4000861EF019407811F00FFA012C07D0BD1E18
:104A5000F05D11F009FAA41E2F46F2D100E07D1E90
:104A60000698022810D36C4208A82818C51EA878FA
:104A700011F0FAF9687811F0F7F9287811F0F4F9E3
:104A8000E41CED1E002CF2D1424812F0B7F8019858
:104A9000C06C002101250491039505916A1E0692C0
:104AA0000A2202920746049D2B4612F0EDFC0446B2
:104AB0000E46029A2B4612F0B7FA381A079D284381
:104AC00008A9069A5054029705980A3F049A904103
:104AD00036D30A220027204631463B4612F0D4FC4A
:104AE0002A4308A8039BC254069911291D46029E19
:104AF00028D8304664380598B84123D3642200246E
:104B00003046059F3946234612F0BEFC0A22234652
:104B100012F0BAFC0798024308A8401942707D20A1
:104B2000C20030463946234612F0AEFCED1C069A10
:104B3000102A03D8154A921BBC41ADD36D1E02E06A
:104B4000039D00E06D1C681E0321069011F05EFEBF
:104B5000481C032803D00446032803D11DE0002489
:104B600003281AD008A82F46861EF019407811F0A5
:104B70007BF9012C10D0BD1EF05D11F075F9A41E5B
:104B80002F46F2D109E0C04667810100E70300002B
:104B900070820100548001007D1E0698022810D307
:104BA0006C4208A82818C51EA87811F05DF968782D
:104BB00011F05AF9287811F057F9E41CED1E002C79
:104BC000F2D106200024214612F090FAE04812F0BB
:104BD00015F80198006C0125049421460395059170
:104BE0006A1E06920A2202920746049D2B4612F084
:104BF0004BFC04460E46029A2B4612F015FA381A60
:104C0000079D284308A9069A5054029705980A3F21
:104C1000049A904136D30A220027204631463B466B
:104C200012F032FC2A4308A8039BC25406991129AA
:104C30001D46029E28D8304664380598B84123D3D3
:104C4000642200243046059F3946234612F01CFC9E
:104C50000A22234612F018FC0798024308A84019BC
:104C600042707D20C20030463946234612F00CFCCB
:104C7000ED1C069A102A03D8B44A921BBC41ADD34E
:104C80006D1E02E0039D00E06D1C681E032106906E
:104C900011F0BCFD481C032803D00446032803D1AF
:104CA00014E00024032811D008A82F46861EF0190E
:104CB000407811F0D9F8012C07D0BD1EF05D11F03D
:104CC000D3F8A41E2F46F2D100E07D1E06980228DC
:104CD00010D36C4208A82818C51EA87811F0C4F893
:104CE000687811F0C1F8287811F0BEF8E41CED1EC8
:104CF000002CF2D1974811F081FF0198406C0021FF
:104D000001250491039505916A1E06920A220292DA
:104D10000746049D2B4612F0B7FB04460E46029A46
:104D20002B4612F081F9381A079D284308A9069AE4
:104D30005054029705980A3F049A904136D30A22AC
:104D40000027204631463B4612F09EFB2A4308A826
:104D5000039BC254069911291D46029E28D830464D
:104D600064380598B84123D3642200243046059F57
:104D70003946234612F088FB0A22234612F084FBB0
:104D80000798024308A8401942707D20C2003046AF
:104D90003946234612F078FBED1C069A102A03D8F8
:104DA0006A4A921BBC41ADD36D1E02E0039D00E038
:104DB0006D1C681E0321069011F028FD481C032875
:104DC00003D00446032803D114E00024032811D0A3
:104DD00008A82F46861EF019407811F045F8012CDE
:104DE00007D0BD1EF05D11F03FF8A41E2F46F2D192
:104DF00000E07D1E0698022810D36C4208A82818EF
:104E0000C51EA87811F030F8687811F02DF82878D0
:104E100011F02AF8E41CED1E002CF2D14E4811F0DE
:104E2000EDFE0198866C0020012404900146039455
:104E30000691601E05900A2202923046049D2B4680
:104E400012F022FB07460C46029A2B4612F0ECF8B1
:104E5000301A079D284308A9059A505402960A3E25
:104E600006980499884136D30A22002638462146FE
:104E7000334612F009FB06992A4308A8039C025501
:104E8000059B112B029D28D8284664380846B0415E
:104E900023D364221E46002728463B4612F0F4FA2C
:104EA0000A223B4612F0F0FA0798024308A80019BC
:104EB00042707D20C200284606993B4612F0E4FA73
:104EC000069BE41C102E04D8204A521B9F41064624
:104ED000ADD3641E02E0039C00E0641C2646601E05
:104EE0000321079011F092FC481C032803D00546CB
:104EF000032803D114E00025032811D008A8841E3C
:104F00003746E019407810F0AFFF012D07D0BE1EE4
:104F1000E05D10F0A9FFAD1E3746F2D100E07E1E25
:104F20000798022810D3744208A83018C51EA87824
:104F300010F09AFF687810F097FF287810F094FF2F
:104F4000E41CED1E002CF2D10DB0F0BDE703000013
:104F5000888201006D80010027800100F0B5C1B09A
:104F60000C9105460EA84421017042214170472151
:104F700081702C22C2705021017143214171542152
:104F800081715221C1714C210172079242727421C8
:104F9000069181723D210591C172002D3ED00027FE
:104FA00001210D223E460D9114460A272846394616
:104FB00011F02CFC0D9B4743E91B30220A43771C60
:104FC0003EA98A55082E04D8591C621C092D054695
:104FD000E8D81D460B940321304611F017FC491CFC
:104FE000032920D00846022E20D30D913EAAD31EBD
:104FF0003C1A0022DD19AE780EA989180E736D785F
:105000004D73DD5D8D73D21CDB1E9442F2D1BD1A4F
:105010000C320B9B0D9903290CD11BE00EA83021FB
:1050200001730D2316E00020022EDED20C220B9B12
:1050300003290FD00EA989183EAAAA18921E5378E8
:105040000B70012805D013784B70891C921E801EAE
:10505000F5D10B9BDCB20EA80119079A0255662008
:105060000490487061200A90887075200290C87082
:105070006C2001900871069848710598887141204C
:105080000C99085C052803D88000FC49095800E009
:10509000FB49D81D0E78002E24D00D910146C2B2D6
:1050A0000EA800190B90B920041B0025AC421BD0A0
:1050B0000D9847190B984019C6717E78002E1BD0A9
:1050C000531CC02B10D00672BE78002E16D0931C35
:1050D000C02B09D0D21CC91C4672FE78ED1C002ED4
:1050E000E4D10CE001460AE00C980568C027002DC9
:1050F0003FD4002D3ED1CFE0491C00E0891C0F4673
:10510000C9B2C0290A4600D8C0228809022818D886
:10511000481C0EAB079C5C54904201D1074610E03E
:105120008C1C0EAB069D1D54944201D1274608E00D
:10513000CB1C0EA80A9D0555934201D000F010FC2F
:105140001F460C980568002D0BD413D1F8B28109C5
:10515000022900D9A0E07F1C0D970EA930220A5425
:1051600081E0F8B28109022903D87F1C0EA92D2203
:105170000A546D420D970124671E0A2628463146BF
:1051800011F044FB4643A91B302631433EAAB954D3
:10519000082F25D80A2D23D30A2111F037FB3143DC
:1051A0003EA80155072F1AD8642D18D3642128462C
:1051B00011F02CFB0A2111F029FB31433EA8001904
:1051C00041707D20C100284611F020FBE41C062F11
:1051D00003D8AC498D420546CED8641E00E0641C5D
:1051E0000D98C3B2C02B184600D8C0200EA9C9180C
:1051F000C21A951E08950393181A401C0A903EA8DF
:10520000C71EA01E0990601E0B900026B2421BD044
:105210003D19A87888550B98B04218D00A98801983
:1052200017D068788D1968700998B04215D0089821
:10523000B04214D0385D0D9BDB1C0D93A870F61C9A
:10524000FF1EB442E2D10EE0039880190AE00D98E7
:1052500001E003988019401C04E00D9801E00398D8
:105260008019801C0D900D9FF8B2C028014600D80F
:10527000C0218209022A0FD8421C0EAB079C1C5485
:105280008A4201D1174607E0831C0EAC6325A55462
:105290008B4200D0BCE21F460C984568002D02D41A
:1052A00074D00D9709E0F8B28109022903D87F1C58
:1052B0000EA92D220A540D976D420124671E0A265D
:1052C0002846314611F0A2FA4643A91B3026314345
:1052D0003EAAB954082F25D80A2D23D30A2111F04C
:1052E00095FA31433EA80155072F1AD8642D18D3DB
:1052F0006421284611F08AFA0A2111F087FA314315
:105300003EA8001941707D20C100284611F07EFAA8
:10531000E41C062F03D85B498D420546CED8641E97
:1053200000E0641C0D98C3B2C02B184600D8C02002
:105330000EA9C918C21A951E08950693181A401C82
:105340000A903EA8C71EA01E0990601E0B90002662
:10535000B24225D03D19A87888550B98B04222D08A
:105360000A98801921D068788D1968700998B04220
:105370001FD00898B0421ED0385D0D9BDB1C0D93EA
:10538000A870F61CFF1EB442E2D118E0F8B2810901
:1053900003292DD27F1C0D970EA930220A540EE04E
:1053A000069880190AE00D9801E006988019401CC3
:1053B00004E00D9801E006988019801C0D900D9F67
:1053C000F8B2C028014600D8C0218209022A0FD8AD
:1053D000431C0EAA079C14548B4201D11F4607E0C0
:1053E000821C0EAC6525E5548A4200D0B3E0174616
:1053F0000C988568002D02D47BD00D9709E0F8B297
:105400008109022903D87F1C0EA92D220A540D9769
:105410006D420124671E0A262846314611F0F6F92E
:105420004643A91B302631433EAAB954082F2CD835
:105430000A2D2AD30A2111F0E9F931433EA801557A
:10544000072F21D8642D1FD36421284611F0DEF9DF
:105450000A2111F0DBF931433EA8001941707D208B
:10546000C100284611F0D2F9E41C062F03D80549E3
:105470008D420546CED8641E07E0C046287B010059
:10548000347E0100E7030000641C0D98C3B2C02BFA
:10549000184600D8C0200EA9C918C21A951E089532
:1054A0000693181A401C0A903EA8C71EA01E099019
:1054B000601E0B900026B24225D03D19A878885571
:1054C0000B98B04222D00A98801921D068788D19A3
:1054D00068700998B0421FD00898B0421ED0385D5D
:1054E0000D9BDB1C0D93A870F61CFF1EB442E2D18D
:1054F00018E0F8B28109032944D27F1C0D970EA948
:1055000030220A540EE0069880190AE00D9801E056
:1055100006988019401C04E00D9801E00698801957
:10552000801C0D900D9FF9B2C029084600D8C020FC
:105530008A09022A26D84A1C0EAB079C5C54824278
:1055400001D117461EE08B1C0EAC049DA55483426E
:1055500010D11F4616E0C31C0EAD7224AC548B4212
:1055600000D13BE7001D0EAAD454884200D018E2B7
:1055700007463DE7CC1C0EAD6F22EA54844200D0B2
:10558000D2E127460C98C568002D02D474D00D973F
:1055900009E0F8B28109022903D87F1C0EA92D2247
:1055A0000A540D976D420124671E0A26284631468B
:1055B00011F02CF94643A91B302631433EAAB954B9
:1055C000082F25D80A2D23D30A2111F01FF93143C2
:1055D0003EA80155072F1AD8642D18D364212846F8
:1055E00011F014F90A2111F011F931433EA8001904
:1055F00041707D20C100284611F008F9E41C062FF7
:1056000003D8FD498D420546CED8641E00E0641CD7
:105610000D98C3B2C02B184600D8C0200EA9C918D7
:10562000C21A951E08950693181A401C0A903EA8A7
:10563000C71EA01E0990601E0B900026B24225D006
:105640003D19A87888550B98B04222D00A98801945
:1056500021D068788D1968700998B0421FD00898D9
:10566000B0421ED0385D0D9BDB1C0D93A870F61C5C
:10567000FF1EB442E2D118E0F8B2810903292CD20E
:105680007F1C0D970EA930220A540EE0069880194F
:105690000AE00D9801E006988019401C04E00D987E
:1056A00001E006988019801C0D900D9FF9B2C02969
:1056B000084600D8C0208A09022A0ED84C1C0EAA1F
:1056C000079B5354844201D1274606E08B1C0EAD44
:1056D0006E222A5583427CD11F460C98046B002C05
:1056E00034D00D970126771E0A252046294611F051
:1056F0008DF84543611B302529433EAAB954082F34
:1057000030D80A2C2ED30A2111F080F829433EA864
:105710008155072F25D8642C23D36421204611F00E
:1057200075F80A2111F072F829433EA880194170DA
:105730007D20C100204611F069F8F61C062F03D821
:10574000B1498C420446CED8761E0BE0F8B28109EE
:10575000032900D38DE07F1C0D970EA930220A5437
:1057600076E0761C0D98C3B2C02B184600D8C02036
:105770000EA9C918C21A941E09940893181A401C3D
:105780000B903EA8C71EB01E0A90701E0C900025FC
:10579000AA421BD0BC19A07848550C98A84235D015
:1057A0000B9840194AD060784C1960700A98A8424A
:1057B00048D00998A84247D0B85D0D9BDB1C0D93DB
:1057C000A070ED1CFF1EAE42E2D141E008984019E6
:1057D0003DE0CC1C0EAD6F26EE54844200D173E741
:1057E0000B1D0EAD65262E55834200D174E74C1D6E
:1057F0000EADEA54844200D166E7891D0EAA6323E8
:105800001355814200D0E7E00F4666E70D9817E098
:10581000C21C0EAC029DE5548A4200D132E5031D44
:105820000EAC7225A5548B4200D134E5441D0EAA5E
:10583000D5548C4200D0B9E027462DE50898401990
:10584000401C04E00D9801E008984019801C0D9060
:105850000D9FF9B2880902280BD8481C0EAA0D2307
:105860005354C02801D1C02703E0BF1C0EA90A224F
:105870000A54664DFFB266480088664E3188C943B7
:1058800040182840B84205D264488169491C8161AA
:1058900041B0F0BD7C1E0321204610F0B7FF4A1C2A
:1058A0000021032A084600D010460C92022C20D377
:1058B000391A0D910021584C0EAA5718525C2B46EC
:1058C000358862553288521C1A4032807A78358881
:1058D00062553288521C1A403280BA783588625537
:1058E0001D463288521C1A403280C91C0D9A8A42C9
:1058F000E2D10C9A032A15D00EAA5118464A0B7809
:105900003488135533885B1C2B403380012809D021
:105910004B783488135533885B1C2B403380891CAB
:10592000801EECD141B0F0BD0B1D0EAD019E2E5579
:10593000834200D10DE634464C1D0EADEE54844238
:1059400000D11EE68B1D0EAD2A55834200D100E624
:10595000C91D0EAA7724D454814242D10F4611E6C4
:10596000081D0EAC7225E554904201D1FFF7D6FB1D
:105970004B1D0EAC67252554934201D1FFF7E0FB88
:10598000881D0EAC6525E554904201D1FFF7C6FB9A
:10599000C91D0EAB069C1C54914227D10F46FFF740
:1059A000D0FB7F1D0EA9059A0A5421E5821D0EAB7E
:1059B00065251D558A4200D164E4C31D0EAC6E25D9
:1059C000A5548B4200D166E408300EAA069CD4543C
:1059D000884213D107465FE4FF1D0EA8059A425482
:1059E0007BE608370EA8059A4254CBE508370EA887
:1059F000059A4254FFF7A5FBE703000009370EA9FB
:105A0000059A0A5448E4C046E7030000FF07000077
:105A100028192020261920200000202028172020C7
:105A2000F0B5C3B0064649310B9110A8442101706E
:105A300042214170472181702C23C37041210171A3
:105A400058214171492181715321C1710E93037213
:105A50007421099141723D210D918172002E0A92AB
:105A60003ED0002401210C2227460F9115460A241E
:105A70003046214610F0CAFE0F9B4443311B3022B2
:105A80000A437C1C40A9CA55082F04D8591C6A1C1B
:105A9000092E0646E8D81E460C950321384610F01C
:105AA000B5FE491C032920D00846022F20D30F91B0
:105AB00040AAD31E251A00221E19B77810A98918EA
:105AC000CF7276780E731E5D4E73D21CDB1E95422C
:105AD000F2D1A61A0B320C9B0F9903290CD11BE0B3
